:100000000C9429020C9451020C9451020C9451024C
:100010000C9451020C9451020C9451020C94F9115D
:100020000C9451020C9451020C9451020C94510204
:100030000C9451020C9451020C9451020C945102F4
:100040000C94F3100C9451020C947B120C945512E6
:100050000C9451020C9451020C9451020C945102D4
:100060000C940E190C945102D40EDB0EE20EE90E24
:10007000F00EF70EFE0E050F0C0F130F1A0F210FC7
:10008000280F2F0F360F3D0F480F4F0F560F0763E6
:100090004236B79BD8A71A39685618AEBAAB558CFA
:1000A0001D3CB7CC5763BD6DEDFD753EF617723143
:1000B000BF000000803F08000000BE922449123EAD
:1000C000ABAAAA2ABECDCCCC4C3E00000080BEAB71
:1000D000AAAAAA3E00000000BF000000803F000066
:1000E000000000084178D3BB4387D1133D190E3C73
:1000F000C3BD4282AD2B3E68EC8276BED98FE1A9AA
:100100003E4C80EFFFBE01C4FF7F3F0000000000B7
:100110003B002C002C002C002C002C002C002C0070
:100120002C002C002C002C002C002C002474656C5E
:10013000656D657472792C004E6F2073756368204D
:10014000666C696768740A003B0A002C002C002C5E
:10015000002C002C002C002C002C002C002C002C3F
:10016000002C002C002C00416C74694D756C746976
:10017000002C002C002C002C002C002C002C002C1F
:100180000024616C7469636F6E66696700696E76DE
:10019000616C696420636F6E660024554E4B4E4F50
:1001A000574E3B00244B303B0A00244F4B3B0A0088
:1001B00054656C656D657472792064697361626CF5
:1001C00065640A0054656C656D6574727920656EAE
:1001D00061626C65640A00636F6E666967207265B0
:1001E00073657465640A00244F4B3B0A00244F4B2F
:1001F0003B0A00244F4B3B0A0024656E643B0A0017
:100200002473746172743B0A0024656E643B0A00B7
:100210002473746172743B0A00436F6E74696E7567
:10022000697479206F6E200A00436F6E74696E7571
:10023000697479206F6666200A00466C6967687485
:10024000204C6973743A200A006E3B004E756D6253
:100250006572206F6620666C69676874200A0052B8
:1002600065636F7264696E67200A006E6F74206147
:100270002076616C696420666C69676874005265F9
:10028000616420666C696768743A20004572617326
:10029000650A0053746172742070726F6772616DC9
:1002A0000A00456E74657220436F6D6D616E642047
:1002B000616E64207465726D696E61746520697425
:1002C0002062792061203B203E3E0A006220203DD2
:1002D000207072696E7420616C746920636F6E6641
:1002E0006967200A006320203D20746F67676C6592
:1002F00020636F6E74696E75697479206F6E2F6FED
:100300006666200A006520203D20657261736520C5
:10031000616C6C20666C696768742064617461202C
:100320000A006C20203D207072696E7420666C6932
:10033000676874206C697374200A00722028666FE5
:100340006C6C6F7765642062792074686520666CD8
:1003500069676874206E756D62657229203D207230
:1003600065616420666C6967687420646174610A01
:100370000077203D207265636F726420666C696748
:100380006874200A00436F6D6D616E647320617242
:10039000653A200A00526F636B657420666C69676A
:1003A00068742064617461206C6F676765722E20C9
:1003B00041206D6178696D756D206F662032352042
:1003C000666C696768742063616E206265206C6F7B
:1003D00067676564200A0000000000240027002AE7
:1003E0000000000000230026002900000000080093
:1003F00002010000030407000000000000000001EB
:1004000002040810204080010204081020010204A8
:1004100008102000000000250028002B0004040420
:10042000040404040402020202020203030303039D
:100430000302454550524F4D206C656E6774683A13
:100440002000456E6420616464726573733A200015
:100450007D2411241FBECFEFD8E0DEBFCDBF24E046
:10046000A2E9B1E001C01D92AD39B207E1F711E098
:10047000A0E0B1E0E4E2F8E502C005900D92A239F7
:10048000B107D9F712E0C9E2D2E004C02197FE011A
:100490000E94062AC832D107C9F70E940D1F0C948A
:1004A000102C0C9400008F929F92AF92BF92CF922B
:1004B000DF92EF92FF920F931F93CF93DF932091E0
:1004C0009D01222309F40EC18A014B015C010E94A7
:1004D000FB12C0909201D0909301E0909401F090B3
:1004E0009501DC01CB018C199D09AE09BF09A8015A
:1004F000110F660B770B481759076A077B0708F03F
:10050000F1C00E94FB12609392017093930180935B
:1005100094019093950100910F0210E0E090060283
:10052000F12C809105028111CAC0C12CD12CD0E0E0
:10053000C0E08CE291E00E94A21C609110027091D8
:10054000110280911202909113020E94101D8AE202
:1005500091E00E94A21CC8010E943C1D88E291E02B
:100560000E94A21CC7010E943C1D86E291E00E94ED
:10057000A21C6091D7017091D8018091D90190910E
:10058000DA010E94101D84E291E00E94A21CC601C3
:100590000E943C1D82E291E00E94A21C6091D30166
:1005A0007091D4018091D5019091D6010E94101DC7
:1005B00080E291E00E94A21C8D2F9C2F0E943C1D86
:1005C0008EE191E00E94A21CC501B4010E94101DA1
:1005D0008CE191E00E94A21C80910A01882359F0CD
:1005E0008AE00E944114892B19F480E090E005C054
:1005F00081E090E002C08FEF9FEF0E943C1D8AE1F6
:1006000091E00E94A21C80910901882391F08BE067
:100610000E944114EC0164E170E080E090E00E94EF
:100620007917CD2B19F480E090E005C081E090E0CF
:1006300002C08FEF9FEF0E943C1D88E191E00E9475
:10064000A21C80910801882359F080E10E94411486
:10065000892B19F480E090E005C081E090E002C0B1
:100660008FEF9FEF0E943C1D86E191E00E94A21C4B
:100670008FEF9FEF0E943C1D84E191E00E94A21C3D
:100680008FEF9FEF0E943C1D82E191E00E94A21C2F
:100690000E94351E0E94FA27CB010E943C1D80E17A
:1006A00091E0DF91CF911F910F91FF90EF90DF903C
:1006B000CF90BF90AF909F908F900C94B31ED1E0DD
:1006C000C0E08091100290911102A0911202B091AD
:1006D00013020A97A105B1050CF0D0E0CC24C39415
:1006E000D12C27CFDF91CF911F910F91FF90EF90E9
:1006F000DF90CF90BF90AF909F908F90089581E052
:1007000080930A0180930901809308018091DB01A5
:100710009091DC01892B29F480E090E0A0E8BFE310
:1007200004C088E499EFA1E5B0E4809316019093AA
:100730001701A0931801B09319016091E501709120
:10074000E601072E000C880B990B0E94BB25209117
:1007500016013091170140911801509119010E9422
:1007600088270E94FA27CB01770FAA0BBB0B809337
:10077000C2019093C301A093C401B093C5018091BD
:10078000EF019091F0019093C7018093C6018FEF24
:100790009FEF909301018093000190930301809358
:1007A00002018091DF019091E00181309105A1F07B
:1007B0008230910501F1892B11F58091E901909129
:1007C000EA01909397018093960189E090E09093DD
:1007D00001018093000115C08091E9019091EA0127
:1007E000909399018093980189E090E090930301A0
:1007F0008093020106C081E080939C0102C01092A8
:100800000A018091E1019091E20181309105A1F00E
:100810008230910501F1892B11F58DE090E09093E4
:100820000101809300018091EB019091EC01909384
:1008300097018093960115C08DE090E0909303019D
:10084000809302018091EB019091EC0190939901CA
:100850008093980106C081E080939B0102C01092B2
:1008600009018091E3019091E40181309105A1F0AB
:100870008230910501F1892B11F58091ED01909164
:10088000EE01909397018093960181E190E090931F
:1008900001018093000115C08091ED019091EE015E
:1008A000909399018093980181E190E090930301E6
:1008B0008093020106C081E080939A0102C01092E9
:1008C00008018091F1019091F201092E000CAA0B10
:1008D000BB0B8093040190930501A0930601B09394
:1008E00007018FEF9FEF90930C0180930B01809194
:1008F0000A01882351F010920C0110920B018AE03A
:1009000090E09093C9018093C801809109018823E8
:1009100091F080910B0190910C01019690930C0144
:1009200080930B01880F991FFC01E853FE4F8BE069
:1009300090E09183808380910801882391F08091D9
:100940000B0190910C01019690930C0180930B0187
:10095000880F991FFC01E853FE4F80E190E09183DE
:10096000808308954F925F926F927F928F929F92B1
:10097000AF92BF92CF92DF92EF92FF921F93CF93ED
:10098000DF9300D000D000D0CDB7DEB78EE20E945A
:100990001C1E8FE19EE40197F1F700C0000086EF76
:1009A0000E94EC1D4C01A12CB12C809182048295F7
:1009B000880F880F807C8C5C0E941C1E80918204B2
:1009C000811105C0AFE1BEE41197F1F715C0813088
:1009D00029F48FEF9CE70197F1F70EC0823029F4DC
:1009E000AFEBBAED1197F1F707C0BFEF24E431E0A8
:1009F000B15020403040E1F700C0000086EF0E9477
:100A0000EC1D6C01E12CF12CFE2CED2CDC2CCC240B
:100A100088EF0E94C11EC82A10918204412F50E025
:100A20005E834D838091970490919804A501940171
:100A3000281B390B41095109A0919504B0919604E6
:100A40000E94CA260E94BB2520E030E040E058E327
:100A50000E94F6250E94FA274B015C0160918F04E9
:100A600070919004072E000C880B990B0E94BB25F7
:100A700020E030E040E055E40E94F6252B013C01E7
:100A80006091910470919204CB01770FAA0BBB0B7C
:100A9000BC01CD01680D791D8A1D9B1D0E94BB25DF
:100AA0009B01AC01C301B2010E9488270E94FA2772
:100AB000860E971EA81EB91E50EA851A5FE0950A99
:100AC000A108B108A5019401C501B4010E94B5298E
:100AD0009B01AC01ACE05595479537952795AA95B4
:100AE000D1F729833A834B835C83E0918304F091AF
:100AF0008404A0918704B0918804A50194010E9408
:100B00000C2A2B013C01BDE07594679457944794DF
:100B1000BA95D1F7A0918904B0918A0429813A81CC
:100B20004B815C810E940C2ABB2797FDB095AB2FAF
:100B3000840D951DA61DB71D0296A11DB11D32E0A5
:100B4000B595A795979587953A95D1F79C01AD01F5
:100B500030584F4F5F4FA0919304B09194040E947E
:100B6000CA262B013C014FE0769467945794479432
:100B70004A95D1F788E090E04D815E81841B950B0A
:100B800004C0F694E794D794C7948A95D2F7A091BD
:100B90008B04B0918C0429813A814B815C810E9445
:100BA0000C2A9B01AC016BE055954795379527952D
:100BB0006A95D1F729833A834B835C83A09185049E
:100BC000B0918604A50194010E940C2ADC01CB019E
:100BD0007BE0B595A795979587957A95D1F749814B
:100BE0005A816B817C81480F591F6A1F7B1FCF017F
:100BF000FF0FAA0BBB0BE2E0880F991FAA1FBB1FB8
:100C0000EA95D1F7840F951FA61FB71F012E04C0C8
:100C1000880F991FAA1FBB1F0A94D2F7BC01CD01F0
:100C20006E5F7F4F8F4F9F4F24E030E040E050E0F9
:100C30000E94E729D701C601821B930BA40BB50BB9
:100C40009C01AD0180E593ECA0E0B0E0BC01CD01DA
:100C500004C096958795779567951A95D2F70E9467
:100C6000B52997FD0BC0660F771F881F991FA30139
:100C700092010E94C52949015A010AC0A3019201AB
:100C80000E94C52949015A01880C991CAA1CBB1C49
:100C90009927B7FC9A958B2D7A2D692D9B01AC0174
:100CA0000E94B5299B01AC01AEEDBBE00E94CA26B3
:100CB0006B017C01A3E4B3EEA50194010E940F2A0D
:100CC000BB2797FDB095AB2F6701FF24D7FCF094AD
:100CD000EF2C8C0D9D1DAE1DBF1D8153914FAF4F4D
:100CE000BF4F44E0B595A795979587954A95D1F75D
:100CF000BC01CD01680D791D8A1D9B1D0E94BB257D
:100D000020E836EE45EC57E40E94882721E03EEDCE
:100D100042E45EE30E94302869837A838B839C835C
:100D20004090A2015090A3016090A4017090A50191
:100D30002091B6013091B7014091B8015091B901AD
:100D400060919E0170919F018091A0019091A101FD
:100D50000E941C276B017C012091BA013091BB01DC
:100D60004091BC015091BD010E941C279B01AC0128
:100D700060E070E080E89FE30E948827A701960169
:100D80000E94F6254B015C0129813A814B815C81EF
:100D900060E070E080E89FE30E941B2720E03AE2D9
:100DA0004DE257E40E94F625A30192010E941B2701
:100DB000A50194010E94F625A30192010E941C271F
:100DC0002B013C016093A2017093A3018093A401C5
:100DD0009093A501A501940160E070E080E89FE395
:100DE0000E941B27A70196010E94F62560939E0191
:100DF00070939F018093A0019093A101C301B20160
:100E000026960FB6F894DEBF0FBECDBFDF91CF910F
:100E10001F91FF90EF90DF90CF90BF90AF909F9089
:100E20008F907F906F905F904F9008952F923F9298
:100E30004F925F926F927F928F929F92AF92BF92EA
:100E4000CF92DF92EF92FF920F931F93CF93DF9396
:100E5000CDB7DEB72D970FB6F894DEBF0FBECDBF6E
:100E600080910A01811103C081E080932802809162
:100E70000901811103C081E080932702809108015C
:100E8000811103C081E0809326021B821A821C829A
:100E900019821E82812C912C5401188619861A867B
:100EA0001B86212C1D82332433940E94B2046B01D3
:100EB0007C0160911402709115028091160290914C
:100EC00017020E94BB259B01AC01C701B6010E941D
:100ED0001B270E94FA2760931002709311028093DF
:100EE00012029093130280910F02882391F00E94C6
:100EF000FB1200910B0210910C0220910D02309117
:100F00000E02601B710B820B930B48EC50E00E94A9
:100F1000530240911002509111026091120270919F
:100F200013028091070290910802A0910902B091EA
:100F30000A0284179507A607B7074CF480910F02A1
:100F4000811105C080910502882309F41CC380919A
:100F50000F02882309F4A9CF809111018823B9F0E9
:100F6000E091D101F091D20193E0EE0FFF1F9A952D
:100F7000E1F7E455FC4F8091120190911301A0918B
:100F80001401B091150181839283A383B483C12C92
:100F9000D12C76011F8280910F0281111DC01F810B
:100FA000112309F482CF2D960FB6F894DEBF0FBE41
:100FB000CDBFDF91CF911F910F91FF90EF90DF9008
:100FC000CF90BF90AF909F908F907F906F905F90E9
:100FD0004F903F902F9008950E94B2042B013C0146
:100FE000609114027091150280911602909117027F
:100FF0000E94BB259B01AC01C301B2010E941B27CB
:101000000E94FA27609310027093110280931202DB
:10101000909313020E94FB1200910B0210910C029C
:1010200020910D0230910E022B013C01401A510A11
:10103000620A730A48EC50E0C301B2010E945302F5
:1010400080919C018823B1F10981011111C0809127
:10105000E9019091EA01092E000CAA0BBB0B48167E
:1010600059066A067B0630F161E089E00E946A1445
:101070008091E9019091EA01092E000CAA0BBB0BAB
:10108000A3019201281B390B4A0B5B0BDA01C90142
:10109000883E9340A105B10508F492C280912802D0
:1010A00081118EC260E089E00E946A1430922802A9
:1010B00011E0198380919B018823B9F01A811111E5
:1010C00082C28091EB019091EC01092E000CAA0BD9
:1010D000BB0B481659066A067B0638F061E08DE0C6
:1010E0000E946A1470C211E01A8380919A018823C9
:1010F000B1F10B81011111C08091ED019091EE01D0
:10110000092E000CAA0BBB0B481659066A067B0673
:1011100030F161E081E10E946A148091ED019091CB
:10112000EE01092E000CAA0BBB0BA3019201281B98
:10113000390B4A0B5B0BDA01C901883E9340A105CC
:10114000B10508F462C28091260281115EC260E09E
:1011500081E10E946A143092260211E01B83809183
:101160001101882309F45CC0D301C2018C199D09C7
:10117000AE09BF098093750490937604A093770419
:10118000B09378048091100290911102A091120204
:10119000B09113028093790490937A04A0937B0416
:1011A000B0937C040E94351E0E94FA2760937D0450
:1011B00070937E0480937F0490938004C09012010A
:1011C000D0901301E0901401F090150105E714E0B0
:1011D0001D861C86F80161918F018C859D858C0D83
:1011E0009D1D0E94B3172C853D852F5F3F4F3D8786
:1011F0002C872C30310571F73CE0C30ED11C0D2C2F
:10120000000CEE08FF084FEFC41AD40AE40AF40AEF
:10121000C0921201D0921301E0921401F0921501D4
:101220008091E7019091E801019741F459EB45164F
:101230005BE055066104710408F01E828091100283
:1012400090911102A0911202B09113024091BE013F
:101250005091BF016091C0017091C1018417950741
:10126000A607B707ACF520910602211131C00E8107
:1012700001112EC08091040190910501A0910601F9
:10128000B09107010197A109B109809304019093DE
:101290000501A0930601B0930701892B8A2B8B2BA4
:1012A00079F50E94FB12688779878A879B878091EE
:1012B000100290911102A0911202B091130280933A
:1012C000D7019093D801A093D901B093DA011CC043
:1012D0008093BE019093BF01A093C001B093C10160
:1012E0008091F1019091F201092E000CAA0BBB0B29
:1012F0008093040190930501A0930601B093070128
:101300001D81112309F43FC00E94FB12AB01BC01F7
:10131000088519852A853B85401B510B620B730B91
:101320008091980190919901092E000CAA0BBB0B9A
:10133000481759076A077B0720F1109102011D83A6
:10134000009103010C8761E0812F0E946A148D8156
:101350009C850E944D13309206020E94FB12009160
:101360000B0210910C0220910D0230910E02601BB5
:10137000710B820B930B48EC50E00E9453021D82CC
:1013800002C011E01D834091100250911102609142
:101390001202709113028091C2019091C301A09139
:1013A000C401B091C501481759076A077B0710F5BA
:1013B000809106028823F1F080910502811156C1C7
:1013C00060E0809102010E946A140E94FB124B01AE
:1013D0005C018091100290911102A0911202B091D3
:1013E00013028093D3019093D401A093D501B093BD
:1013F000D60102C02220D9F14AE0C501B4010E9401
:10140000CF1C85E491E00E94BD1C0E94FB12AB0141
:10141000BC01481959096A097B098091960190918C
:101420009701092E000CAA0BBB0B481759076A0736
:101430007B07D8F061E0809100010E946A1430922D
:1014400005020E94FB1200910B0210910C022091E8
:101450000D0230910E02601B710B820B930B48EC56
:1014600050E00E945302212C02C022242394809138
:1014700005028823E9F00E94FB1220919601309129
:1014800097018901330F220B330BAB01BC01401BC9
:10149000510B620B730B481959096A097B09483EC5
:1014A00053406105710520F00C81002309F4B0C0A0
:1014B00080911101882301F11C81112309F43FC09F
:1014C0008091100290911102A0911202B09113022A
:1014D0000A97A105B1050CF4ACC00E94FB12DC0117
:1014E000CB0188199909AA09BB0981329E44A1053B
:1014F000B10508F09EC003C00C81002301F180916A
:10150000100290911102A0911202B09113020A9759
:10151000A105B105A4F410920F020E94FB120091E4
:101520000B0210910C0220910D0230910E02601BF3
:10153000710B820B930B48EC50E00E945302809198
:101540002802811103C07301620125CD8091270219
:101550008823C9F3809126028823A9F30E94FB12F5
:1015600000910B0210910C0220910D0230910E029D
:10157000601B710B820B930B48EC50E00E945302EE
:1015800011E01F83E0CF30920F0248EC50E060E0A2
:1015900070E0CB010E9453020E94FB1260930B0289
:1015A00070930C0280930D0290930E028091E701DC
:1015B0009091E801019709F0CACC01E00E83C7CCF5
:1015C00001E0098377CD8091EB019091EC01092E28
:1015D000000CAA0BBB0BA3019201281B390B4A0B71
:1015E0005B0BDA01C901883E9340A105B10550F0BB
:1015F00080912702811177CD60E08DE00E946A140E
:101600003092270201E00A8370CD01E00B83A7CD61
:10161000109100011C83009101010C8760E0812F73
:101620000E946A148C819C850E944D1311E01C83DA
:101630003FCFE091D101F091D20183E0EE0FFF1F87
:101640008A95E1F7E455FC4F8091120190911301C6
:10165000A0911401B09115010197A109B1098583E9
:101660009683A783B0870E94DA1749CF222009F416
:1016700002CFC2CE2F923F924F925F926F927F9293
:101680008F929F92AF92BF92CF92DF92EF92FF9292
:101690000F931F93CF93DF93CDB7DEB7C855D10912
:1016A0000FB6F894DEBF0FBECDBF8C010E94E71EBF
:1016B000D8018C918536B1F48CE892E00E94B31E7B
:1016C000ECEAF3E0118212821382148215821682F0
:1016D000178210863896B4E0E437FB0799F70E942A
:1016E000DA178CC4823709F026C18EE792E00E9497
:1016F000B31EF80181810E94611386E491E00E948B
:10170000E71ED80111968C9111978FAB12968C9190
:10171000882319F088AF19AE01C018AECE01C79664
:101720000E94E82497FD02C1CE01C7960E94CA24F8
:1017300023E0880F991F2A95E1F7FC01E455FC4F3F
:1017400021813281438154812D962CAF3DAF4EAF24
:101750005FAF2D97293C3105410551050CF4E3C0DD
:1017600085819681A781B08561968CAF9DAFAEAF24
:10177000BFAF61972B960EAD1FAD2B9788E491E01C
:101780000E94E71EC12CD12C7601412C512C320134
:101790009801110F440B550B69962CAF3DAF4EAF1E
:1017A0005FAF6997AE014F5F5F4F1A0169968CADCD
:1017B0009DADAEADBFAD69978C0D9D1DAE1DBF1D1E
:1017C00061962CAD3DAD4EAD5FAD619728173907E1
:1017D0004A075B070CF4A2C005E714E0812C912CAA
:1017E0002B96AEACBFAC2B97AC0CBD1CC501880DC5
:1017F000991D0E940713D8018D938D01BFEF8B1A9D
:101800009B0AECE08E16910489F780917504909103
:101810007604A0917704B0917804480E591E6A1E90
:101820007B1E80907D0490907E04A0907F04B090F9
:1018300080042091790430917A0440917B04509186
:101840007C0465962CAF3DAF4EAF5FAF6597B3019B
:10185000A201CE018B960E949F131AAA19AA1CAA54
:101860001BAA1EAA1DAA6BA57CA56115710531F0E6
:101870004FA558A9CE01C1960E94961164E671E069
:10188000CE01C1960E947D118C012AE0A1016596CE
:101890006CAD7DAD8EAD9FAD65970E944125F10188
:1018A00001900020E9F73197AF0142195309B101C6
:1018B000C8010E943D11811103C0C8010E946B1133
:1018C00064E671E0C8010E947D118C012AE0A1014B
:1018D000C501B4010E944125F10101900020E9F702
:1018E0003197AF0142195309B101C8010E943D115E
:1018F000811103C0C8010E946B11C8010E947713B7
:10190000CE01C1960E947213CE018B960E94721373
:101910003DE0C30ED11CE11CF11C48CF85E591E0F0
:101920000E94E71E6BC388E391E002C08BE692E061
:101930000E94B31E63C3873739F48FE592E00E949B
:10194000B31E0E9416075AC38E3649F48CE492E007
:101950000E94B31E89E492E00E94A21C06C08C364D
:1019600039F48AE392E00E94B31E0E94F91346C341
:10197000833679F48091D001811106C081E0809393
:10198000D00189E292E0D4CF1092D00189E192E0B7
:10199000CFCF813609F0F3C080E192E00E94A21C13
:1019A0009CEAE92E93E0F92EC12CD12C0E94F51E61
:1019B0008C159D050CF4E0C0D70111960D911C917A
:1019C0001297093C11050CF4D0C015962D913D914C
:1019D0004D915C9118972D962CAF3DAF4EAF5FAFF8
:1019E0002D97412C512C32012B96EEADFFAD2B974C
:1019F000E017F1070CF4B9C085E7882E84E0982E33
:101A0000A12CB12CC501800F911F0E940713D40196
:101A10008D934D01BFEFAB1ABB0AECE0AE16B104DB
:101A200089F7035F1F4F8091750490917604A09110
:101A30007704B0917804480E591E6A1E7B1E4091AF
:101A40007D0450917E0460917F0470918004CE01EA
:101A50008D5B9F4F0E94CC134091790450917A0482
:101A600060917B0470917C04CE01CD960E94CC13D2
:101A7000B301A201CE01C7960E949F131AAA19AA08
:101A80001CAA1BAA1EAA1DAA4AE0BE016F5F7F4FB7
:101A9000C6010E943625BE016F5F7F4FCE01C19601
:101AA0000E94B7111CA61BA61EA61DA618AA1FA63B
:101AB00045E050E060E671E0CE018B960E94961101
:101AC0001A8219821C821B821E821D8241E050E014
:101AD00066E671E0CE0101960E949611BE01655D39
:101AE0007F4FCE0101960E948C13BE016F5C7F4F29
:101AF0000E948C1364E671E00E947D11BE01695C56
:101B00007F4F0E948C1364E671E00E947D11BE013C
:101B1000635C7F4F0E948C1364E671E00E947D112C
:101B2000BE016D5B7F4F0E948C136EE571E00E94D9
:101B30007D110E947713CE0101960E947213CE018F
:101B40008B960E947213CE01C1960E947213CE0131
:101B5000C7960E947213CE01CD960E947213CE01D9
:101B60008D5B9F4F0E9472133FCFFFEFCF1ADF0AAA
:101B700028E0E20EF11C1ACF89E092E034C28236EE
:101B800009F0F1C080E092E00E94A21C0E94411B7B
:101B9000811104C08DE891E00E94A21C81E891E0CF
:101BA0000E94A21C8FE791E00E94A21C8091DB01A1
:101BB0009091DC010E943C1D8DE791E00E94A21CE7
:101BC0008091DD019091DE010E943C1D8BE791E048
:101BD0000E94A21C8091DF019091E0010E943C1DB7
:101BE00089E791E00E94A21C8091E1019091E201BD
:101BF0000E943C1D87E791E00E94A21C8091E301B6
:101C00009091E4010E943C1D85E791E00E94A21C96
:101C10008091E7019091E8010E943C1D83E791E0EB
:101C20000E94A21C8091E5019091E6010E943C1D5A
:101C300081E791E00E94A21C87E691E00E94A21C2D
:101C400085E691E00E94A21C81E090E00E943C1D8C
:101C500083E691E00E94A21C83E190E00E943C1D7B
:101C600081E691E00E94A21C8091E9019091EA0135
:101C70000E943C1D8FE591E00E94A21C8091EB0127
:101C80009091EC010E943C1D8DE591E00E94A21C08
:101C90008091ED019091EE010E943C1D8BE591E059
:101CA0000E94A21C8091EF019091F0010E943C1DC6
:101CB00089E591E00E94A21C8091F1019091F201CE
:101CC0000E943C1D87E591E00E94A21C8091F301D7
:101CD0009091F4010E943C1D85E591E00E94A21CB8
:101CE0008091F5019091F6010E943C1D83E591E001
:101CF0000E94A21C8091F7019091F8010E943C1D66
:101D000081E591E00E94A21C6091F9017091FA01B5
:101D10008091FB019091FC010E94101D8FE491E0E5
:101D20000E94A21C8091FD019091FE010E943C1D29
:101D30008DE491E00E94A21C8091FF01909100022D
:101D40000E943C1D8BE491E00E94A21C8091010244
:101D5000909102020E943C1D88E491E00E94A21C26
:101D600089EF91E040C1833709F0C8C01CA70BA7D9
:101D7000E12CF12CAE01455D5F4F64E671E08BA56F
:101D80009CA50E940F258C01009709F499C00E9420
:101D9000E71EF7013197E331F10508F08DC0EC5CE7
:101DA000FF4FC8010C94062A0E94CA249093DC01BC
:101DB0008093DB0181C00E94CA249093DE0180934E
:101DC000DD017AC00E94CA249093E0018093DF0174
:101DD00073C00E94CA249093E2018093E1016CC019
:101DE0000E94CA249093E4018093E30165C00E949D
:101DF000CA249093E6018093E5015EC00E94CA2444
:101E00009093E8018093E70157C00E94E824709303
:101E1000EA016093E90150C00E94E8247093EC014C
:101E20006093EB0149C00E94E8247093EE01609337
:101E3000ED0142C00E94CA249093F0018093EF010B
:101E40003BC00E94CA249093F2018093F10134C0F8
:101E50000E94E8247093F4016093F3012DC00E9466
:101E6000CA249093F6018093F50126C00E94CA24EB
:101E70009093F8018093F7011FC00E94E8246093BB
:101E8000F9017093FA018093FB019093FC0114C057
:101E90000E94CA249093FE018093FD010DC00E9410
:101EA000CA24909300028093FF0106C00E94CA24B6
:101EB00090930202809301023FEFE31AF30A5ACF94
:101EC0008AE2EBEDF1E0DE01119601900D928A9528
:101ED000E1F7FE013196AE01475D5F4F80E090E093
:101EE0004E175F0731F02191820F911D27FD9A95C2
:101EF000F7CF909304028093030204C0843639F430
:101F00000E94B11A0E948F1A0E947F0377C0863602
:101F100031F481E08093180283EF91E064C087364A
:101F200029F4109218028DEE91E05DC0883619F404
:101F300087EE91E058C0843749F40E94B11A0E949C
:101F40008F1A0E947F0387ED91E04DC0893609F416
:101F500055C08B3669F5D80111968C9111978983FC
:101F60001A82FF24F39412968C91863409F4F12C92
:101F7000CE0101960E94E82497FD40C0CE01019653
:101F80000E94CA248230910549F08330910551F0B6
:101F90000197A1F56F2D89E090E007C06F2D8DE0CE
:101FA00090E003C06F2D81E190E00E949B1C26C051
:101FB0008937A9F4F8018181813341F484EC91E0FF
:101FC0000E94A21C81E080939D0106C080EB91E0FD
:101FD0000E94A21C10929D018AEA91E004C0803206
:101FE00029F484EA91E00E94A21C08C08AE991E0E9
:101FF0000E94A21CD8018C910E946113C85ADF4F25
:102000000FB6F894DEBF0FBECDBFDF91CF911F9109
:102010000F91FF90EF90DF90CF90BF90AF909F9087
:102020008F907F906F905F904F903F902F9008958A
:10203000CF92DF92EF92FF920F931F93CF93DF9394
:102040006C017A018B01C0E0D0E0CE15DF0581F094
:10205000D8016D918D01D601ED91FC910190F08137
:10206000E02DC6010995892B11F02196EECF7E0156
:10207000C701DF91CF911F910F91FF90EF90DF90FB
:10208000CF900895FC01538D448D252F30E0842F8F
:1020900090E0821B930B541710F0CF960895019790
:1020A00008958EEE92E00E94161821E0892B09F423
:1020B00020E0822F08950E94FB2B0F931F93CF9354
:1020C000DF93EC0188819981009729F02A813B8177
:1020D0002617370788F48B016F5F7F4F0E94352BDF
:1020E000009761F0998388831B830A832C813D814B
:1020F000232B11F4FC01108281E001C080E0DF910C
:10210000CF911F910F910895EF92FF920F931F931C
:10211000CF93DF93EC0181E0888F9B8D8C8D98139A
:1021200005C0E889F989808185FD26C0F62E0B8DD2
:1021300010E00F5F1F4F0F731127E02E8C8DE812F8
:102140000CC00FB607FCFACFE889F989808185FFBA
:10215000F5CFCE010E94EC18F1CF8B8DFE01E80F78
:10216000F11DE35AFF4FF0829FB7F8940B8FEA8975
:10217000FB89808180620AC09FB7F894EE89FF894D
:102180006083E889F98980818370806480839FBF40
:1021900081E090E0DF91CF911F910F91FF90EF9040
:1021A0000895CF93DF93EC01888D8823C9F0EA89E5
:1021B000FB89808185FD05C0A889B9898C9186FD40
:1021C0000FC00FB607FCF5CF808185FFF2CFA8893D
:1021D000B9898C9185FFEDCFCE010E94EC18E7CF35
:1021E000DF91CF9108951F920F920FB60F92112495
:1021F0002F933F938F939F93AF93BF9380911E0232
:1022000090911F02A0912002B091210230911D02F5
:1022100023E0230F2D3720F40196A11DB11D05C029
:1022200026E8230F0296A11DB11D20931D02809365
:102230001E0290931F02A0932002B093210280916E
:10224000220290912302A0912402B09125020196CE
:10225000A11DB11D8093220290932302A09324021A
:10226000B0932502BF91AF919F918F913F912F9194
:102270000F900FBE0F901F901895EF92FF920F9343
:102280001F93CF93DF936115710511F480E01CC09B
:1022900041155105C1F07B01EC018C819D818A01C2
:1022A000080F191FB801CE010E945D10882371F339
:1022B000288139818C819D81B701820F931F0E94F3
:1022C000092C1D830C8381E0DF91CF911F910F9129
:1022D000FF90EF900895CF93DF93EC01888199816F
:1022E000009711F00E94AC2A198218821D821C826C
:1022F0001B821A82DF91CF910895CF93DF93EC0177
:102300006115710561F0FB0101900020E9F731973B
:10231000AF01461B570B0E943D11811103C0CE0136
:102320000E946B11CE01DF91CF910895EF92FF9241
:102330000F931F93CF93DF93EC017B018A01BA01C6
:102340000E945D10811104C0CE010E946B1107C074
:102350001D830C83B701888199810E94092CCE01CD
:10236000DF91CF911F910F91FF90EF900895CF9340
:10237000DF93EC016115710559F0FB01019000201C
:10238000E9F73197AF01461B570B0E94961102C027
:102390000E946B11CE01DF91CF91089590911A01A7
:1023A000891324C0E1E3F4E0E4919FEF90931A01D4
:1023B000E130B9F098F0E230C9F4909170009D7F5F
:1023C0009093700091E09093B0009091B100987F4D
:1023D00094609093B1001092B30008C010926E0008
:1023E00005C090916F009D7F90936F0060E00C940A
:1023F0006A141F920F920FB60F9211242F933F93DE
:102400004F935F936F937F938F939F93AF93BF93FC
:10241000EF93FF938091300290913102A0913202AC
:10242000B0913302892B8A2B8B2B51F190912D0285
:10243000E0912E02F0912F02808189278083809184
:10244000300290913102A0913202B09133021816FD
:1024500019061A061B06C4F48091300290913102CD
:10246000A0913202B09133020197A109B109809382
:10247000300290933102A0933202B093330204C031
:1024800080911A010E94CE11FF91EF91BF91AF91FF
:102490009F918F917F916F915F914F913F912F917C
:1024A0000F900FBE0F901F9018951F920F920FB6AE
:1024B0000F9211242F933F934F935F936F937F93CA
:1024C0008F939F93AF93BF93EF93FF938EEE92E022
:1024D0000E94EC18FF91EF91BF91AF919F918F9166
:1024E0007F916F915F914F913F912F910F900FBE10
:1024F0000F901F9018951F920F920FB60F921124F4
:102500002F938F939F93EF93FF93E091FE02F091AF
:10251000FF028081E0910403F091050382FD12C067
:102520009081809107038F5F8F732091080382173A
:1025300051F0E0910703F0E0E251FD4F958F809359
:10254000070301C08081FF91EF919F918F912F919F
:102550000F900FBE0F901F901895833081F028F4D4
:10256000813099F08230A1F008958730A9F0883049
:10257000B9F08430D1F4809180008F7D03C08091C8
:1025800080008F7780938000089584B58F7702C094
:1025900084B58F7D84BD08958091B0008F7703C08E
:1025A0008091B0008F7D8093B00008953FB7F8947C
:1025B0008091220290912302A0912402B0912502E1
:1025C00026B5A89B05C02F3F19F00196A11DB11D8E
:1025D0003FBFBA2FA92F982F8827820F911DA11DC9
:1025E000B11DBC01CD0142E0660F771F881F991F06
:1025F0004A95D1F708952FB7F89460911E02709113
:102600001F0280912002909121022FBF0895CF9345
:10261000DF93EC018091AC0391E09093CA02809328
:10262000EC021092CB021092ED028D2F90E00E94EE
:10263000081FCE0199270E94081F0E94421D61E0D9
:102640008091AC030E949E1D1092820280938102B1
:10265000882329F08BE893E00E94701801C08FEF67
:10266000DF91CF9108950F931F93CF93DF930DEADE
:1026700013E0C0E0D0E0C83CD10541F0CE010E949B
:102680000713F80181938F012196F5CF88EC90E034
:10269000DF91CF911F910F9108958930910521F419
:1026A00081E08093280208958D30910521F481E026
:1026B000809327020895419719F481E080932602C0
:1026C0000895CF93DF93682F8EEE92E00E948410DE
:1026D000EC0185E491E00E94BD1C8C0F9D1FDF91F1
:1026E000CF910895FC01808191810C94AC2ACF9305
:1026F000DF93FC0144815581608171818EEE92E00F
:102700000E941810EC0185E491E00E94BD1C8C0F22
:102710009D1FDF91CF910895CF93DF93EC01FB01D3
:1027200044815581608171810E943D11811103C0F6
:10273000CE010E946B11CE01DF91CF9108950F93CE
:102740001F93CF93DF93CDB7DEB7A1970FB6F89461
:10275000DEBF0FBECDBF8C01CB01BA01F8011182E3
:10276000108213821282158214822AE0AE014F5F1A
:102770005F4F0E946D25BE016F5F7F4FC8010E94B1
:10278000B711A1960FB6F894DEBF0FBECDBFDF9193
:10279000CF911F910F9108950F931F93CF93DF93C4
:1027A000CDB7DEB7A2970FB6F894DEBF0FBECDBF90
:1027B0008C01CB01BA01F8011182108213821282BE
:1027C000158214822AE0AE014F5F5F4F0E944125BF
:1027D000BE016F5F7F4FC8010E94B711A2960FB66E
:1027E000F894DEBF0FBECDBFDF91CF911F910F9147
:1027F00008950F931F93CF93DF930E9433130CEA36
:1028000013E0C0E0D0E0F80181819281A381B4811E
:10281000892B8A2B8B2B79F186E791E00E94BD1CD6
:10282000CE010E943C1D85E491E00E94BD1C83E81E
:1028300091E00E94BD1CF8016181728183819481C5
:102840000E94101D85E491E00E94BD1C8BE891E080
:102850000E94BD1CF80165817681878190850E9468
:10286000101D85E491E00E94BD1C2196085F1F4F5A
:10287000C931D10541F6CE01DF91CF911F910F9162
:102880000895CF93DF93282F30E0F901E551FC4FF5
:102890008491F901E150FC4FD491F901E35EFB4FC3
:1028A000C491CC2391F081110E94AD12EC2FF0E085
:1028B000EE0FFF1FEF51FC4FA591B491EC91ED236A
:1028C00081E090E021F480E002C080E090E0DF91C0
:1028D000CF9108951F93CF93DF93282F30E0F90114
:1028E000E551FC4F8491F901E150FC4FD491F9017D
:1028F000E35EFB4FC491CC23C1F0162F81110E94DF
:10290000AD12EC2FF0E0EE0FFF1FED5EFB4FA59137
:10291000B4919FB7F894111104C08C91D095D8232D
:1029200002C0EC91DE2BDC939FBFDF91CF911F9112
:10293000089510928202109281021092CB0210929E
:10294000ED021092C90281E08093C8021092A302A6
:1029500061E082E10E946A1461E083E10E946A14EE
:10296000E9EBF0E080818E7F808380818D7F8083A2
:1029700088E48093B80085E48093BC008EE598E1FC
:1029800090932C0280932B028FE598E190932A027A
:10299000809329020895CF93DF9390E0FC01E150EA
:1029A000FC4F2491FC01E35EFB4F8491882361F18D
:1029B00090E0880F991FFC01E952FC4FC591D4911A
:1029C000FC01ED5EFB4FA591B491611109C09FB769
:1029D000F8948881209582238883EC912E230BC064
:1029E000623061F49FB7F8948881322F3095832349
:1029F0008883EC912E2B2C939FBF06C08FB7F89441
:102A0000E8812E2B28838FBFDF91CF9108954F92BD
:102A10005F926F927F928F929F92AF92BF92CF926E
:102A2000DF92EF92FF920F931F93CF93DF9300D02B
:102A300000D01F92CDB7DEB78C012A013B018091F7
:102A40001A018C3021F08F3F09F03DC205C0E1E34F
:102A5000F4E024912D8372C08CE080931A01E1E3AD
:102A6000F4E084918D838F3F09F42DC2813009F405
:102A700041C038F1823009F061C01092B00010926C
:102A8000B1008091B00082608093B0008091B1006D
:102A900081608093B100E9E2F4E0E491F0E0EE0FB0
:102AA000FF1FED5EFB4F8591949190932F028093D1
:102AB0002E02EBE0F4E0E491E0932D0222E02D837E
:102AC000FDC114BC15BC84B5826084BD85B5816030
:102AD00085BDE9E2F4E0E491F0E0EE0FFF1FED5E6A
:102AE000FB4F85919491EBE0F4E0E491E0933502A3
:102AF0001D82E4C1109280001092810080918100BB
:102B00008860809381008091810081608093810042
:102B1000E9E2F4E0E491F0E0EE0FFF1FED5EFB4F21
:102B200085919491EBE0F4E0E491E093340261E06C
:102B30008CE00E94CB1491E09D838AC08D8187FD3B
:102B4000C2C161E08CE00E94CB148D818D7F09F0C1
:102B50007FC04801A12CB12C60E072E18AE790E0CF
:102B6000A50194010E94E72929833A834B835C8362
:102B700069017A0191E0C91AD108E108F1082FEF43
:102B8000C216D104E104F10409F008F44EC060E477
:102B900072E48FE090E0A50194010E94E7296901A9
:102BA0007A0181E0C81AD108E108F1089D819230CC
:102BB00009F52FEFC216D104E104F10409F008F47D
:102BC00044C160E970ED83E090E0A50194010E94AA
:102BD000E72969017A0181E0C81AD108E108F10802
:102BE0009FEFC916D104E104F10411F008F0BAC056
:102BF00083E027C02FEFC216D104E104F104B9F03D
:102C0000B0F068E478EE81E090E0A50194010E94C4
:102C1000E72969017A0181E0C81AD108E108F108C1
:102C20009D81992309F413C1DCC081E001C082E0D9
:102C30009D81911106C095B5987F892B85BD44C0B3
:102C400085E09091B100987F892B8093B1003CC0C2
:102C50004801A12CB12C60E072E18AE790E0A50167
:102C600094010E94E72969017A0181E0C81AD1081C
:102C7000E108F108C114D10491E0E906F10488F0FB
:102C800068E478EE81E090E0A50194010E94E729D4
:102C900069017A0181E0C81AD108E108F10883E0EE
:102CA00001C081E09D81913079F490918100987FFD
:102CB000892B80938100411451046104710449F40B
:102CC0002FEF3FEFA9012CC041145104610471049E
:102CD00071F0D801AA0FBB1FA30192010E94CA265E
:102CE00028EE33E040E050E00E94C52903C02FEFFA
:102CF0003FEFA9018D81813099F0823019F1811166
:102D0000E2C0C7BC20933A0230933B0240933C029E
:102D100050933D0280916E00826080936E00D3C01C
:102D2000D0928900C09288002093360230933702F7
:102D3000409338025093390280916F0082608093F3
:102D40006F00C1C0C092B3002093300230933102B3
:102D500040933202509333028091700082608093DE
:102D60007000B1C068E478EE81E090E0A5019401C4
:102D70000E94E72969017A0191E0C91AD108E108A6
:102D8000F1082FEFC216D104E104F10441F138F14A
:102D900064E274EF80E090E0A50194010E94E729CD
:102DA00069017A0181E0C81AD108E108F1089FEFB2
:102DB000C916D104E104F10409F008F441CF62E13D
:102DC0007AE780E090E0A50194010E94E72969017B
:102DD0007A0181E0C81AD108E108F10819C084E03D
:102DE00030CF2FEFC216D104E104F10409F008F44A
:102DF00063C062E17AE780E090E0A50194010E945F
:102E0000E72969017A0191E0C91AD108E108F108BE
:102E10008FEFC816D104E104F104A9F0A0F0898174
:102E20009A81AB81BC812AE0B595A7959795879546
:102E30002A95D1F76C017D0121E0C21AD108E10881
:102E4000F10887E0FECE86E0FCCE82E0FACE8FEF7E
:102E5000C816D104E104F10469F160F162E17AE796
:102E600080E090E0A50194010E94E72969017A01C0
:102E700091E0C91AD108E108F1082FEFC216D10478
:102E8000E104F104A9F0A0F089819A81AB81BC81B1
:102E90003AE0B595A795979587953A95D1F76C0146
:102EA0007D0121E0C21AD108E108F10885E0C3CE16
:102EB00084E0C1CE83E0BFCE84E0BACE61E08CE096
:102EC0000E94CB1446CE0F900F900F900F900F9052
:102ED000DF91CF911F910F91FF90EF90DF90CF90F6
:102EE000BF90AF909F908F907F906F905F904F902A
:102EF00008958F929F92AF92BF92CF92DF92EF92FE
:102F0000FF926B017C010E94D6124B015C01C1143F
:102F1000D104E104F104F1F00E94D612DC01CB01EE
:102F200088199909AA09BB09883E9340A105B105F2
:102F300070F321E0C21AD108E108F10888EE880E8A
:102F400083E0981EA11CB11CC114D104E104F1045A
:102F500019F7DDCFFF90EF90DF90CF90BF90AF904B
:102F60009F908F9008951F93CF93DF93EC01162FBE
:102F70008091AC0391E09093CA028093EC0210928E
:102F8000CB021092ED028D2F90E00E94081FCE011F
:102F900099270E94081F812F90E00E94081F0E941D
:102FA000421D6AE070E080E090E0DF91CF911F91D8
:102FB0000C9479170F931F93CF93DF930DEA13E0CF
:102FC000C0E0D0E0C83CD10541F0F80161918F012B
:102FD000CE010E94B3172196F5CF88EC90E0DF91E7
:102FE000CF911F910F910895FC01918D828D9817BB
:102FF00061F0828DDF01A80FB11D5D968C91928DDD
:103000009F5F9F73928F90E008958FEF9FEF0895D9
:10301000FC01918D828D981731F0828DE80FF11DA2
:10302000858D90E008958FEF9FEF0895FC01918DBD
:10303000228D892F90E0805C9F4F821B91098F73B6
:103040009927089580E090E0892B29F00E94511083
:1030500081110C940000089585ED8093BC0080914F
:10306000BC0084FDFCCF1092C902089540915E021D
:10307000262F30E0240F311D21323105DCF4209160
:10308000C9022430C9F4FC0180E090E0861758F4AE
:1030900030915E022191DC01A25CBD4FA30FB11DF6
:1030A0002C930196F3CF80915E02680F60935E02CD
:1030B00080E0089581E0089582E0089508950895DC
:1030C0000895E091820280918102E81730F4F0E0E7
:1030D000ED57FD4F808190E008958FEF9FEF0895A9
:1030E0009091820280918102981750F4E92FF0E0CC
:1030F000ED57FD4F208130E09F5F9093820202C028
:103100002FEF3FEFC90108958091810290E0209157
:103110008202821B91090895CF92DF92EF92FF9273
:103120000F931F93CF93DF937C01CB018A012091F2
:10313000CA02222389F0EB016B01C40ED51ECC1507
:10314000DD0569F06991D701ED91FC910190F08165
:10315000E02DC7010995F3CF642F0E943618C801EE
:10316000DF91CF911F910F91FF90EF90DF90CF9063
:103170000895CF93DF931F92CDB7DEB76983209177
:10318000CA022223D1F02091ED02203240F021E04A
:1031900030E0FC013383228380E090E015C0809111
:1031A000CB02E82FF0E0E453FD4F998190838F5FCD
:1031B0008093CB028093ED0205C061E0CE010196C1
:1031C0000E94361881E090E00F90DF91CF91089532
:1031D000089580E090E00895FC01848DDF01A80F40
:1031E000B11DA35ABF4F2C91848D90E001968F732F
:1031F0009927848FA689B7892C93A089B1898C914E
:10320000837080648C93938D848D981306C002889C
:10321000F389E02D80818F7D808308951F920F9226
:103220000FB60F9211242F933F934F935F936F9399
:103230007F938F939F93AF93BF93EF93FF9380916F
:10324000B900887F803609F49CC068F5883209F49B
:103250005BC090F4803109F454C038F4882309F439
:10326000F6C0883009F44DC0F6C0883109F44CC06E
:10327000803209F45DC0EFC0803409F468C048F4BE
:10328000803309F455C0883309F0E5C08093C70244
:10329000D8C0803509F44FC0883509F45DC0883442
:1032A00009F0D9C0D6C0883909F4C7C0A8F4883756
:1032B00009F467C038F4883609F463C0803709F42C
:1032C00060C0C9C0883809F4B8C0803909F45FC04B
:1032D000803809F0C0C05BC0803B09F486C038F478
:1032E000803A09F466C0883A09F47FC0B4C0803CD3
:1032F00009F4A7C0883C09F4A4C0883B09F48AC03B
:10330000AAC08091A40210C09091C6028091C5020B
:10331000981770F5E091C60281E08E0F8093C60287
:10332000F0E0EB55FD4F80818093BB0085EC86C0BB
:103330008093C7028EC0E091C60281E08E0F809319
:10334000C6028091BB00F0E0EB55FD4F8083909169
:10335000C6028091C5026EC0E091C60281E08E0F68
:103360008093C6028091BB00F0E0EB55FD4F808357
:103370008091C80281116DC081E08093A30284EA2C
:1033800061C083E08093C90210928002CFCF809108
:103390008002803208F051C0E091800281E08E0FFF
:1033A000809380028091BB00F0E0E05AFD4F808363
:1033B000BDCF85EC8093BC001092C9028091800241
:1033C000803230F4E0918002F0E0E05AFD4F10824C
:1033D0006091800270E0E0912902F0912A0280E67B
:1033E00092E009951092800236C084E08093C90271
:1033F00010925F0210925E02E0912B02F0912C027B
:10340000099580915E02811105C081E080935E0282
:1034100010923E02E0915F0281E08E0F80935F0286
:10342000F0E0E25CFD4F80818093BB0090915F02F1
:1034300080915E02981708F479CF85E88093BC00EC
:103440000AC085EC8093BC001092C90204C010929F
:10345000C7020E942C18FF91EF91BF91AF919F91ED
:103460008F917F916F915F914F913F912F910F902D
:103470000FBE0F901F9018950F931F93CF93DF935C
:10348000FC012081211102C080E013C0EC01058005
:10349000F681E02D099509811A812B813C81DC019F
:1034A000CB01801B910BA20BB30BB7FDEDCF1882A4
:1034B00081E0DF91CF911F910F910895CF92DF921C
:1034C000EF92FF920F931F93CF93DF93FC01208124
:1034D00021111CC07B016A01EC0181E08083058021
:1034E000F681E02D09958601970137FF07C03095D9
:1034F0002095109501951F4F2F4F3F4F060F171F17
:10350000281F391F09831A832B833C83DF91CF91B6
:103510001F910F91FF90EF90DF90CF9008950F9340
:103520001F93CF93DF930BED11E0C0E2D0E0F801E1
:1035300061918F01CE010E94BC262196CA34D1052B
:10354000B1F782E494E00E94A21C8AE490E00E9419
:103550003C1D82E394E0DF91CF911F910F910C9479
:10356000A21CCF93DF93CDB7DEB7AA970FB6F8941E
:10357000DEBF0FBECDBF1092DC011092DB011092B6
:10358000DE011092DD011092E0011092DF0181E076
:1035900090E09093E2018093E10183E090E09093CA
:1035A000E4018093E3011092EA011092E901109284
:1035B000EC011092EB011092EE011092ED0122E36A
:1035C00030E03093E6012093E5011092E80110927B
:1035D000E70128EB31E03093F0012093EF0125E083
:1035E00030E03093F2012093F1019093F401809345
:1035F000F3011092F6011092F5011092F801109269
:10360000F70180E096E9A0E0B0E08093F9019093A3
:10361000FA01A093FB01B093FC011092FE011092FD
:10362000FD0180E092E0909300028093FF011092F0
:103630000202109201028AE2EBEDF1E0DE01119646
:1036400001900D928A95E1F7FE013196AE01475D3A
:103650005F4F80E090E0E417F50731F02191820F91
:10366000911D27FD9A95F7CF909304028093030252
:10367000AA960FB6F894DEBF0FBECDBFDF91CF91F3
:103680000895EF92FF920F931F93CF93DF93CDB7DF
:10369000DEB7AA970FB6F894DEBF0FBECDBF0E946B
:1036A000B11A8BEDE82E81E0F82E00E210E0C8019F
:1036B0000E94B426F70181937F010F5F1F4F0A34E8
:1036C0001105A9F740910302509104028AE2EBED43
:1036D000F1E0DE01119601900D928A95E1F7FE016D
:1036E0003196BE01675D7F4F20E030E0E617F707B7
:1036F00031F08191280F311D87FD3A95F7CF81E098
:103700004217530709F080E0AA960FB6F894DEBF7F
:103710000FBECDBFDF91CF911F910F91FF90EF9022
:103720000895CF93DF93CAE0D0E048EE53E060E025
:1037300070E080E496E00E94071562E370E080E0AC
:1037400090E00E9479178CE00E94CE11219769F7D2
:1037500068EE73E080E090E0DF91CF910C947917F0
:1037600049E150E060E070E08091C6019091C701AE
:103770000E9407156CE271E080E090E00E947917EA
:103780008CE00C94CE1148EE53E060E070E0809144
:10379000C6019091C7010E9407156CED75E080E0AD
:1037A00090E00E9479178CE00C94CE118F929F923A
:1037B000AF92BF92CF92DF92FF920F931F93CF935E
:1037C000DF9300D000D01F92CDB7DEB72AE0AE0164
:1037D0004F5F5F4F6A010E946D25F6010190002046
:1037E000E9F73197FE2EFC1868EB7BE080E090E073
:1037F0000E94791756018A2D8C198F15F0F468EE06
:1038000073E080E090E00E947917F50101915F017B
:10381000005309F40AE010E0812C912C0E94B01BA7
:10382000FFEF8F1A9F0A801691062CF76AEF70E05F
:1038300080E090E00E947917F1CF0F900F900F90E9
:103840000F900F90DF91CF911F910F91FF90DF901C
:10385000CF90BF90AF909F908F900895CF92DF92BE
:10386000EF92FF920F931F93CF93DF936B017C0135
:1038700064367105810591053CF124E630E040E0B5
:1038800050E00E94E729890164E6629FC001639FBE
:10389000900D1124092E000CAA0BBB0BA701960159
:1038A000281B390B4A0B5B0BCA01B9012AE030E037
:1038B00040E050E00E94E729E90110161106D4F417
:1038C000EE24E394F12C08C02AE030E040E050E020
:1038D0000E94E729E9010EC00E94C31B62E370E069
:1038E00080E090E00E9479173FEFE31AF30A0E158B
:1038F0001F0594F71C161D0674F068E873E180E05C
:1039000090E0DF91CF911F910F91FF90EF90DF90AA
:10391000CF900C94791701E010E00E94B01B62E395
:1039200070E080E090E00E9479170F5F1F4FC01792
:10393000D1079CF7E2CF662311F061E001C060E09F
:103940000C946A140F931F93CF93DF938C01C0E004
:10395000D0E0F801EC0FFD1F6491662341F08EEE7C
:1039600092E00E948410892B11F02196F2CFCE01B3
:10397000DF91CF911F910F910895009769F0FC019D
:1039800001900020E9F73197AF01481B590BBC01AA
:103990008EEE92E00C94181080E090E008958F92E3
:1039A0009F92AF92BF920F931F93CF93DF93CDB7A8
:1039B000DEB7A1970FB6F894DEBF0FBECDBF19A238
:1039C000423008F44AE08E010F5D1F4F842E912C87
:1039D000A12CB12CA50194010E94C529E62FB901A3
:1039E000CA0101501109EA3014F4E05D01C0E95C3C
:1039F000D801EC93232B242B252B61F7C8010E94BF
:103A0000BD1CA1960FB6F894DEBF0FBECDBFDF91EF
:103A1000CF911F910F91BF90AF909F908F9008957D
:103A2000CF92DF92EF92FF92CF93DF9397FF1BC06D
:103A30006B017C016DE28EEE92E00E948410EC013D
:103A400066277727CB016C197D098E099F094AE00B
:103A50000E94CF1C8C0F9D1FDF91CF91FF90EF90A4
:103A6000DF90CF9008954AE0DF91CF91FF90EF90E3
:103A7000DF90CF900C94CF1CBC01990F880B990B51
:103A80000C94101D3091ED02313208F04BC0809142
:103A9000C9028111FCCF9091EC0222E02093C9026F
:103AA00021E02093C8022FEF2093C7021092C60294
:103AB0003093C502ECECF2E0A5EAB2E020E0321768
:103AC00021F041914D932F5FFACF1092A4022091E3
:103AD000A402990F922B9093A4029091A30291308B
:103AE00061F41092A3029091A4029093BB00909174
:103AF000BC0093FDF8CF95EC01C095EE9093BC000F
:103B00009091C9029230E1F39091C7029F3F79F002
:103B10008091C702803241F08091C702803331F03A
:103B200084E005C081E003C082E001C083E0109220
:103B3000CB021092ED021092CA0208959091C90230
:103B40009111FCCF91E09093C9029093C8022FEF9E
:103B50002093C7021092C602260F2093C5029093AD
:103B6000A4029091A402880F892B8093A4028091D3
:103B7000A302813061F41092A3028091A402809389
:103B8000BB008091BC0083FDF8CF85EC01C085EEC1
:103B90008093BC008091C9028130E1F38091C6021C
:103BA000861710F46091C602A5EAB2E0E3E8F2E0FD
:103BB00080E0861721F09D9191938F5FFACF089551
:103BC000813208F080E2682F87E70E949E1D1092E4
:103BD0008202809381020895CF93DF93C1E0C09366
:103BE000CA0297E79093EC021092CB021092ED027A
:103BF000682F8BE893E00E94B9180E94421DC09381
:103C0000CA021092CB021092ED0282E090E00E9474
:103C1000E01D8BE893E00E947018D82F80E0C82F39
:103C20008BE893E00E947018C82BD92B0E94421D8C
:103C3000CE01DF91CF910895CF93C82F81E080937B
:103C4000CA0287E78093EC021092CB021092ED0239
:103C500064EF8BE893E00E94B9186C2F8BE893E037
:103C60000E94B918CF910C94421D8F929F92AF92EF
:103C7000BF92CF92DF92EF92FF92CF93DF938EE2CB
:103C80000E941C1E8FE19EE40197F1F700C0000026
:103C900086EF0E94EC1DAC0160E070E0C2E8D4E069
:103CA0008D899E899A01AB01281B390B4109510965
:103CB000AB89BC890E94CA260E94BB2520E030E067
:103CC00040E058E30E94F6250E94FA276B017C0130
:103CD0006D857E85072E000C880B990B0E94BB25F5
:103CE00020E030E040E055E40E94F6254B015C0105
:103CF0006F857889CB01770FAA0BBB0BBC01CD0177
:103D00006C0D7D1D8E1D9F1D0E94BB259B01AC016E
:103D1000C501B4010E9488270E94FA27DC01CB016B
:103D20008C0D9D1DAE1DBF1DBC01CD01685F7F4F79
:103D30008F4F9F4F0E94BB2520E030E040E85DE3BD
:103D40000E94F62520E030E040E251E40E948827FE
:103D5000DF91CF91FF90EF90DF90CF90BF90AF9029
:103D60009F908F900895CF93DF930E94A21CEC0147
:103D700085E491E00E94BD1C8C0F9D1FDF91CF91C7
:103D80000895CF93C1E0C093CA0297E79093EC02E5
:103D90001092CB021092ED02682F8BE893E00E9404
:103DA000B9180E94421DC093CA021092CB02109211
:103DB000ED0281E090E00E94E01D8BE893E00E941C
:103DC0007018C82F0E94421D8C2FCF910895CF9359
:103DD000DF930E94BD1CEC0185E491E00E94BD1CB4
:103DE0008C0F9D1FDF91CF910895ECEAF3E080E006
:103DF00090E04181528163817481452B462B472B92
:103E000029F0019638968931910599F7019708951F
:103E1000682F8BE893E00C94B918CF93DF93CDB75C
:103E2000DEB7C85CD1090FB6F894DEBF0FBECDBFB8
:103E3000789484B5826084BD84B5816084BD85B585
:103E4000826085BD85B5816085BD80916E00816091
:103E500080936E0010928100809181008260809337
:103E60008100809181008160809381008091800039
:103E70008160809380008091B10084608093B10064
:103E80008091B00081608093B00080917A0084605E
:103E900080937A0080917A00826080937A0080918A
:103EA0007A00816080937A0080917A0080688093A4
:103EB0007A001092C1000E94411B80931902811167
:103EC00004C00E94B11A0E948F1A8091F90190914A
:103ED000FA01A091FB01B091FC018C3221E0920724
:103EE000A105B10509F443C0803B24E09207A10578
:103EF000B105E9F1803629E09207A105B105B9F1D4
:103F0000803C22E19207A105B10589F1803825E2C4
:103F10009207A105B10559F1803428E39207A10564
:103F2000B10529F181152BE49207A105B105F9F03E
:103F3000803820E79207A105B105C9F0811526E96F
:103F40009207A105B10599F0811521EE9207A1050F
:103F5000B10569F0811522EC920721E0A207B105B5
:103F600031F081159448A340B10509F0B7C40E940F
:103F70007F0382ED90E0A0E8B0E48093BA019093D3
:103F8000BB01A093BC01B093BD018CE69FECACE4F7
:103F9000BEE38093B6019093B701A093B801B093AC
:103FA000B9011092A2011092A3011092A4011092E3
:103FB000A50110929E0110929F011092A0011092F3
:103FC000A1010E949914C090F901D090FA01E090EB
:103FD000FB01F090FC0160E079E08DE390E0A70147
:103FE00096010E94C529DA01C9010197A109B10909
:103FF000B695A795979587959C01E091FE02F09163
:10400000FF0282E08083C11481EED806E104F1044E
:1040100021F0211590E13907B8F0E091FE02F0910E
:10402000FF02108260E874E88EE190E0A70196013B
:104030000E94C529DA01C9010197A109B109B69504
:10404000A795979587959C01E091FA02F091FB0264
:104050003083E091FC02F091FD0220831092060370
:10406000E0910203F091030386E08083E091000376
:10407000F0910103808180618083E0910003F091E1
:104080000103808188608083E0910003F091010347
:10409000808180688083E0910003F091010380813A
:1040A0008F7D80838091FD01843008F083E08093D0
:1040B00082040E94991480ED0E94C11E853509F08A
:1040C0004DC08AEA0E94EC1D90938404809383047F
:1040D0008CEA0E94EC1D90938604809385048EEAFE
:1040E0000E94EC1D909388048093870480EB0E94CB
:1040F000EC1D909394048093930482EB0E94EC1D3A
:10410000909396048093950484EB0E94EC1D909309
:1041100098048093970486EB0E94EC1D90938A0488
:104120008093890488EB0E94EC1D90938C0480930B
:104130008B048AEB0E94EC1D90938E0480938D0477
:104140008CEB0E94EC1D9093900480938F048EEB77
:104150000E94EC1D909392048093910410920602A9
:104160001092050283E992E00E94A21C61E089E0BE
:104170000E94CB1461E08DE00E94CB1461E081E1EC
:104180000E94CB1461E08CE00E94CB1460E088E0D8
:104190000E94CB1460E087E00E94CB1460E08AE0CC
:1041A0000E94CB1460E08BE00E94CB1460E080E1C1
:1041B0000E94CB1460E089E00E946A1460E08DE008
:1041C0000E946A1460E081E10E946A1460E08CE061
:1041D0000E946A148091010290910202019741F4B9
:1041E00081E08093D0010E94C31B03E110E003C073
:1041F0001092D001F8CF0E94B01B01501109D9F7DD
:1042000080911902811135C084E690E0A0E0B0E011
:104210008093C2019093C301A093C401B093C501E0
:1042200088E00E9441148C0187E00E94411401152E
:10423000110539F4892BE9F482E390E0A0E0B0E0C5
:1042400010C001301105A9F4009729F486E990E027
:10425000A0E0B0E006C0019761F488EC90E0A0E037
:10426000B0E08093C2019093C301A093C401B093C6
:10427000C50102E310E00E94B20401501109D9F710
:104280000AE010E0C12CD12C76010E94B2044B014F
:104290005C01C701B6010E94BB25A50194010E94E3
:1042A0001C270E94FA276B017C0162E370E080E02A
:1042B00090E00E9479170150110939F7C701B60142
:1042C0000E94BB2520E030E040E251E40E948827B4
:1042D0000E94FA27609314027093150280931602CD
:1042E000909317021092BE011092BF011092C0016C
:1042F0001092C10184E190E0A0E0B0E08093070259
:1043000090930802A0930902B0930A020E9433130B
:104310000E94F51E97FF11C01092D2011092D10198
:1043200089EC90E0A0E0B0E080931201909313013B
:10433000A0931401B09315011DC0FC01A3E0EE0F82
:10434000FF1FAA95E1F7E455FC4F4581568167812F
:1043500070854F5F5F4F6F4F7F4F409312015093B7
:104360001301609314017093150101969093D2018B
:104370008093D1010E94F51EAC01092E000C660B42
:10438000770B4F3F2FEF520762077207C1F048319A
:10439000510561057105A9F0E3E0880F991FEA95C1
:1043A000E1F7FC01E455FC4F81E0458156816781CE
:1043B00070854D3D5F4F6105710524F002C081E0BD
:1043C00001C080E080931101811104C088E691E072
:1043D0000E94E71E7724739479EC272E312C412C10
:1043E000512C85E993E00E94B31E85E893E00E947A
:1043F000B31E81E793E00E94B31E8BE393E00E941B
:10440000B31E82E293E00E94B31E85E093E00E9417
:10441000B31E85EE92E00E94B31E8CEC92E00E94E7
:10442000B31E82EA92E00E94B31E00E010E060E258
:10443000F62E2BE3F21609F44AC28091180281117C
:1044400035C20E94B2044B015C016091140270916C
:10445000150280911602909117020E94BB259B01C4
:10446000AC01C501B4010E941B270E94FA2760938A
:1044700010027093110280931202909313028091A4
:104480000F02882391F00E94FB1280900B02909003
:104490000C02A0900D02B0900E02681979098A09E9
:1044A0009B0948EC50E00E94530240911002509149
:1044B0001102609112027091130280910702909193
:1044C0000802A0910902B0910A0284179507A60775
:1044D000B7070CF4B1C08091D0018111A5C08091C3
:1044E00006028111A1C080910F01909110010196E7
:1044F00001F580911C02811109C070921C0240E0FC
:1045000050E0BA0185EA93E00E945E1AE0911A0237
:10451000F0911B02EE0FFF1FE853FE4F8081918147
:1045200090930E0180930D019093100180930F01E1
:104530007BC085EA93E00E943C1A8823A1F18CE0BD
:104540000E94CE1180910D0190910E019093100167
:1045500080930F0180911A0290911B020196909313
:104560001B0280931A0220910B0130910C01281735
:10457000390724F410921B0210921A0280911A0239
:1045800090911B02892B39F444EC59E060E070E013
:1045900087E993E006C04AEF50E060E070E08EE902
:1045A00093E00E945E1A87E993E00E943C1A8823F8
:1045B00041F04AEF50E060E070E08EE993E00E9445
:1045C0005E1A8EE993E00E943C1A882369F1E0911B
:1045D0001A02F0911B02EE0FFF1FE853FE4F80817D
:1045E000918180930D0190930E010E9441142091BE
:1045F000C6013091C70148EE53E060E070E0892BBE
:1046000041F4C9010E9407154CED55E060E070E0EF
:1046100007C0C9010E9407154CE251E060E070E05C
:1046200085EA93E00E945E1A44EF51E060E070E09A
:10463000CB010E94530202C00E9416070E94FB1287
:104640004B015C0180910602882309F42FC1E090A0
:104650000502EE2009F42AC18EEE92E00E9416189F
:10466000892B09F48AC08EEE92E00E94F417F82E8E
:104670008BE3F81671F09AE0F91609F47EC0E1E0D8
:10468000F0E0EC0FFD1FE00FF11FF0820F5F1F4FF6
:1046900074C068012FEFC21AD20AE1E0F0E0EC0F1B
:1046A000FD1FE00FF11F108210920602109205020A
:1046B00010920F02109228021092270210922602E6
:1046C0000E9433130E94F51E97FF0DC01092D20175
:1046D0001092D101209212013092130140921401E4
:1046E000509215011DC0FC0133E0EE0FFF1F3A95FB
:1046F000E1F7E455FC4F45815681678170854F5F36
:104700005F4F6F4F7F4F409312015093130160939F
:1047100014017093150101969093D2018093D101F9
:104720000E94F51EAC01092E000C660B770B4F3F63
:104730002FEF520762077207C9F048315105610532
:10474000710599F023E0880F991F2A95E1F7FC0184
:10475000E455FC4FEE24E39485819681A781B085D2
:104760008D3D9F4FA105B1050CF0E12CE0921101A8
:10477000CE0101960E943A0B86010E94FB12DC01D9
:10478000CB0188199909AA09BB0981319742A10572
:10479000B10508F457CF0E94911B8091DD019091E3
:1047A000DE01892BC9F46091D7017091D801809105
:1047B000D9019091DA010E94BB2520911601309118
:1047C000170140911801509119010E94F6250E948D
:1047D000FA270E942E1C18C06091D7017091D80151
:1047E0008091D9019091DA010E94BB252091160198
:1047F0003091170140911801509119010E94F6253E
:104800000E94FA270E94D61B0E94911B8091DD0115
:104810009091DE01892BC9F46091D3017091D4018C
:104820008091D5019091D6010E94BB25209116015F
:104830003091170140911801509119010E94F625FD
:104840000E94FA270E942E1C18C06091D30170911B
:10485000D4018091D5019091D6010E94BB25209171
:1048600016013091170140911801509119010E94D1
:10487000F6250E94FA270E94D61B0E94FB124B01CC
:104880005C017BCF8EEE92E00E94F417F82E8BE352
:10489000F81699F09AE0F91649F0E1E0F0E0EC0F33
:1048A000FD1FE00FF11FF0820F5F1F4F8EEE92E0B1
:1048B0000E941618892B31F7BCCDE1E0F0E0EC0F37
:1048C000FD1FE00FF11F10820F5F1F4FB2CDCE0111
:1048D00001960E943A0B0E94221883CD80E096E94F
:1048E000A0E0B0E08093F9019093FA01A093FB015E
:1048F000B093FC010E948F1A3ACBEEEEF2E01382E5
:10490000128288EE93E0A0E0B0E084839583A683D2
:10491000B78325E231E03183208325EC30E0358711
:10492000248724EC30E03787268720EC30E0318B79
:10493000208B21EC30E0338B228B22EC30E0358B66
:10494000248B26EC30E0378B268B118E128E138E43
:10495000148EEBE8F3E01382128284839583A6839E
:10496000B78387E391E091838083E5EAF3E01082E7
:104970008BEF92E196838583EEE9F3E010829683D4
:104980008583E7E9F3E010829683858380E5809351
:10499000AC030895FC0188279927E89421912032DF
:1049A000E9F3293010F02E30C8F32B3241F02D32CC
:1049B00039F4689404C00E946525820F911D2191ED
:1049C00020532A30C0F31EF4909581959F4F08958F
:1049D0001F93FC0199278827BC01E894119110329C
:1049E000E9F3193010F01E30C8F31B3251F01D32BC
:1049F00049F4689406C00E945025610F711D811D05
:104A0000911D119110531A30B0F33EF4909580959A
:104A1000709561957F4F8F4F9F4F1F910895FA01B9
:104A2000A191B081009719F41097E1F0CD01DC015C
:104A3000CD010D90002011F4C00113C0FB012191A4
:104A4000222319F02015D9F7F3CFFB01219120156E
:104A500019F41E92119606C02223C1F70D90002072
:104A6000A1F7D001FA01A193B0830895BB274A3082
:104A700031F4992322F4BDE2909581959F4F0C94D7
:104A80009025BB272A3051F4992342F4BDE290953A
:104A90008095709561957F4F8F4F9F4F0C946E2539
:104AA000592F482F372F262F660F771F881F991FE2
:104AB000660F771F881F991F620F731F841F951F32
:104AC000660F771F881F991F08957AE0979F902D92
:104AD000879F802D910D11240895BB27FA01A62FE1
:104AE0006217710581059105330B30FB66F0AA272B
:104AF000660F771F881F991FAA1FA21710F0A21B0D
:104B000063953850A9F7A05DAA3308F0A95DA19379
:104B100036F7B111B1931082CA010C94A925BB27B5
:104B2000FB015527AA27880F991FAA1FA41710F069
:104B3000A41B83955051B9F7A05DAA3308F0A95D75
:104B4000A193009779F7B111B1931192CB010C9415
:104B5000A925DC01FC01672F71917723E1F73297DA
:104B600004C07C916D9370836291AE17BF07C8F348
:104B70000895E89409C097FB3EF490958095709550
:104B800061957F4F8F4F9F4F9923A9F0F92F96E999
:104B9000BB279395F695879577956795B795F1110E
:104BA000F8CFFAF4BB0F11F460FF1BC06F5F7F4FAB
:104BB0008F4F9F4F16C0882311F096E911C07723BD
:104BC00021F09EE8872F762F05C0662371F096E8C6
:104BD000862F70E060E02AF09A95660F771F881F95
:104BE000DAF7880F9695879597F908950E94092618
:104BF0000C947A260E946C2638F00E94732620F0CE
:104C0000952311F00C9463260C94692611240C94BE
:104C1000AE260E948B2670F3959FC1F3950F50E04E
:104C2000551F629FF001729FBB27F00DB11D639F5E
:104C3000AA27F00DB11DAA1F649F6627B00DA11D04
:104C4000661F829F2227B00DA11D621F739FB00DAA
:104C5000A11D621F839FA00D611D221F749F33271A
:104C6000A00D611D231F849F600D211D822F762FB3
:104C70006A2F11249F5750409AF0F1F088234AF090
:104C8000EE0FFF1FBB1F661F771F881F91505040FC
:104C9000A9F79E3F510580F00C9463260C94AE2634
:104CA0005F3FE4F3983ED4F3869577956795B79583
:104CB000F795E7959F5FC1F7FE2B880F911D96959D
:104CC000879597F9089597F99F6780E870E060E00D
:104CD00008959FEF80EC089500240A941616170695
:104CE00018060906089500240A94121613061406DD
:104CF00005060895092E0394000C11F4882352F040
:104D0000BB0F40F4BF2B11F460FF04C06F5F7F4FF7
:104D10008F4F9F4F089557FD9058440F551F59F0DE
:104D20005F3F71F04795880F97FB991F61F09F3F98
:104D300079F087950895121613061406551FF2CFC1
:104D40004695F1DF08C0161617061806991FF1CF11
:104D500086957105610508940895E894BB27662738
:104D60007727CB0197F90895F999FECF92BD81BDC0
:104D7000F89A992780B50895262FF999FECF1FBA82
:104D800092BD81BD20BD0FB6F894FA9AF99A0FBE74
:104D9000019608950E940C27A59F900DB49F900D39
:104DA000A49F800D911D112408952F923F924F9240
:104DB0005F926F927F928F929F92AF92BF92CF92AB
:104DC000DF92EF92FF920F931F93CF93DF93CDB7B4
:104DD000DEB7CA1BDB0B0FB6F894DEBF0FBECDBF2C
:104DE00009942A88398848885F846E847D848C84FD
:104DF0009B84AA84B984C884DF80EE80FD800C8106
:104E00001B81AA81B981CE0FD11D0FB6F894DEBFE8
:104E10000FBECDBFED010895A29FB001B39FC001A9
:104E2000A39F700D811D1124911DB29F700D811DD6
:104E30001124911D08955058BB27AA270E9433279B
:104E40000C947A260E946C2638F00E94732620F07B
:104E500039F49F3F19F426F40C9469260EF4E0957A
:104E6000E7FB0C946326E92F0E948B2658F3BA17B0
:104E7000620773078407950720F079F4A6F50C9470
:104E8000AD260EF4E0950B2EBA2FA02D0B01B90123
:104E900090010C01CA01A0011124FF27591B99F0B0
:104EA000593F50F4503E68F11A16F040A22F232FBC
:104EB000342F4427585FF3CF469537952795A7950C
:104EC000F0405395C9F77EF41F16BA0B620B730BB3
:104ED000840BBAF09150A1F0FF0FBB1F661F771F24
:104EE000881FC2F70EC0BA0F621F731F841F48F4D9
:104EF000879577956795B795F7959E3F08F0B0CF62
:104F00009395880F08F09927EE0F97958795089548
:104F10000E949C270C947A260E94732658F00E94C7
:104F20006C2640F029F45F3F29F00C946326511160
:104F30000C94AE260C9469260E948B2668F3992364
:104F4000B1F3552391F3951B550BBB27AA27621785
:104F50007307840738F09F5F5F4F220F331F441F92
:104F6000AA1FA9F335D00E2E3AF0E0E832D09150C6
:104F70005040E695001CCAF72BD0FE2F29D0660FB3
:104F8000771F881FBB1F261737074807AB07B0E8F6
:104F900009F0BB0B802DBF01FF2793585F4F3AF0FC
:104FA0009E3F510578F00C9463260C94AE265F3F2B
:104FB000E4F3983ED4F3869577956795B795F79582
:104FC0009F5FC9F7880F911D9695879597F908956A
:104FD000E1E0660F771F881FBB1F62177307840706
:104FE000BA0720F0621B730B840BBA0BEE1F88F715
:104FF000E09508950E9401286894B1110C94AE26A2
:1050000008950E94932688F09F5798F0B92F99270A
:10501000B751B0F0E1F0660F771F881F991F1AF0A3
:10502000BA95C9F714C0B13091F00E94AD26B1E035
:1050300008950C94AD26672F782F8827B85F39F034
:10504000B93FCCF3869577956795B395D9F73EF43C
:1050500090958095709561957F4F8F4F9F4F0895E4
:10506000FA01EE0FFF1F309621053105A1F1611500
:10507000710561F48038BFE39B0749F1689490386B
:10508000810561F08038BFEF9B0741F099234AF515
:10509000FF3FE1053105210519F1E8940894E795F2
:1050A000D901AA2329F4AB2FBE2FF85FD0F310C08B
:1050B000FF5F70F4A695E0F7F73950F019F0FF3A6A
:1050C00038F49F779F930DD00F9007FC9058089568
:1050D00046F00C94692660E070E080E89FE3089554
:1050E0004FE79F775F934F933F932F930E942B2916
:1050F0002F913F914F915F910E94F6250C94882843
:1051000029F416F00C9463260C94AD260C946926B1
:105110000E949326A8F39638A0F707F80F92E89418
:105120002BE33AEA48EB5FE70E940C260F920F92BE
:105130000F924DB75EB70F920E947329EEE8F0E030
:105140000E94BA284F915F91EF91FF91E595EE1F74
:10515000FF1F49F0FE57E0684427EE0F441FFA9501
:10516000E1F74195550B0E94ED280F9007FE0C9436
:10517000E1280895DF93CF931F930F93FF92EF924F
:10518000DF927B018C01689406C0DA2EEF010E9449
:105190000926FE01E894A5912591359145915591F7
:1051A000A6F3EF010E943327FE019701A801DA94CC
:1051B00069F7DF90EF90FF900F911F91CF91DF91F2
:1051C00008959B01AC0160E070E080E89FE30C94DF
:1051D00088270C9463260C94A7290E949326D8F361
:1051E0009923C9F3940F511DA3F39150504094F0AB
:1051F00059F0882332F0660F771F881F9150504076
:10520000C1F79E3F51052CF7880F911D9695879504
:1052100097F908955F3FACF0983E9CF0BB278695C8
:1052200077956795B79508F4B1609395C1F7BB0F73
:1052300058F711F460FFE8CF6F5F7F4F8F4F9F4F9C
:10524000E3CF0C94AE2616F00C94A7290C94692693
:1052500068940C9463260E949326A8F39923C1F3C3
:10526000AEF3DF93CF931F930F93FF92C92FDD27E8
:1052700088232AF02197660F771F881FDAF720E02E
:1052800030E040E85FEB9FE3883920F0803E38F063
:1052900021968F770E941C27E6EBF0E004C00E9465
:1052A0001C27E3EEF0E00E94BA288B01BE01EC015E
:1052B000FB2E6F5771097595771F880B990B0E940C
:1052C000BB2528E132E741E35FE30E940926AF2DC9
:1052D0009801AE01FF900F911F91CF91DF910E9435
:1052E00033270C947A26FA01DC01AA0FBB1F9B011D
:1052F000AC01BF5728F4222733274427507820C019
:10530000B75190F4AB2F0024469537952795011C93
:10531000A395D2F3002071F0220F331F441FB395E1
:10532000DAF30ED00C941B2761307105A0E88A07D0
:10533000B94630F49B01AC0166277727882790781F
:10534000309621F0208331834283538308959F3F19
:1053500031F0915020F4879577956795B795880F30
:10536000911D9695879597F90895DB018F939F93EB
:105370000E94CA26BF91AF91A29F800D911DA39F4D
:10538000900DB29F900D11240895A1E21A2EAA1B30
:10539000BB1BFD010DC0AA1FBB1FEE1FFF1FA217E5
:1053A000B307E407F50720F0A21BB30BE40BF50BE2
:1053B000661F771F881F991F1A9469F7609570956B
:1053C000809590959B01AC01BD01CF010895052EFC
:1053D00097FB1EF400940E94FE2957FD07D00E94FF
:1053E000C52907FC03D04EF40C94FE295095409536
:1053F000309521953F4F4F4F5F4F08959095809581
:10540000709561957F4F8F4F9F4F0895EE0FFF1F4F
:105410000590F491E02D0994B7FF0C94CA260E94E0
:10542000CA26821B930B08950F931F93CF93DF938C
:105430008230910510F482E090E0E0919B04F091BD
:105440009C0420E030E0A0E0B0E0309719F140810A
:1054500051810281138148175907C8F084179507B5
:1054600069F4109731F012960C93129713961C93CF
:1054700027C000939B0410939C0422C02115310582
:1054800019F04217530718F49A01BD01EF01DF012B
:10549000F801DBCF21153105F9F0281B390B243039
:1054A000310580F48A819B816115710521F0FB0132
:1054B0009383828304C090939C0480939B04FE0199
:1054C000329644C0FE01E20FF31F81939193225064
:1054D0003109398328833AC02091990430919A0484
:1054E000232B41F420911D0130911E0130939A0429
:1054F0002093990420911B0130911C012115310545
:1055000041F42DB73EB740911F0150912001241B5B
:10551000350BE0919904F0919A04E217F307A0F497
:105520002E1B3F0B2817390778F0AC014E5F5F4FF9
:105530002417350748F04E0F5F1F50939A0440938D
:1055400099048193919302C0E0E0F0E0CF01DF91F4
:10555000CF911F910F910895CF93DF93009709F496
:1055600081C0FC01329713821282A0919B04B091FA
:105570009C04109781F420813181820F931F209128
:10558000990430919A042817390751F5F0939A0439
:10559000E093990467C0ED0120E030E0CE17DF070B
:1055A00040F44A815B819E0141155105F1F0EA0109
:1055B000F5CFD383C28340815181840F951FC817D3
:1055C000D90759F488819981840F951F0296918398
:1055D00080838A819B81938382832115310529F4FD
:1055E000F0939C04E0939B043DC0E901FB83EA83B4
:1055F00049915991C40FD51FEC17FD0761F48081C3
:105600009181840F951F0296E90199838883828195
:1056100093819B838A83E0E0F0E012968D919C91C8
:105620001397009719F0FD01DC01F7CF8D919C9144
:1056300011979D012E5F3F4F820F931F2091990478
:1056400030919A042817390769F4309729F4109299
:105650009C0410929B0402C013821282B0939A049D
:10566000A0939904DF91CF910895A0E0B0E0EBE31F
:10567000FBE20C94D926EC01009721F4CB010E94A7
:10568000142AB4C0FC01E60FF71F9C012250310917
:10569000E217F30708F4A8C0D9010D911C911197E6
:1056A00006171707B0F00530110508F49BC0C801B4
:1056B00004978617970708F495C002501109061B36
:1056C000170B019311936D937C93CF010E94AC2A29
:1056D00089C05B01A01AB10A4C01800E911EA091F5
:1056E0009B04B0919C04612C712CE12CF12C10973F
:1056F00009F446C08D919C911197A815B905B1F593
:105700006C0142E0C40ED11CCA14DB0478F14C01D8
:105710008A189B08640142E0C40ED11C1296BC900A
:1057200012971396AC91B5E0CB16D10440F0B2823B
:10573000A38391828082D9016D937C9309C00E5F0F
:105740001F4F800F911FF90191838083EB2DFA2F5A
:10575000E114F10431F0D7011396FC93EE93129704
:1057600041C0F0939C04E0939B043CC0681679060A
:1057700008F43C017D0112960D90BC91A02DB7CF8D
:105780008091990490919A0488169906E1F466161E
:105790007706C8F480911B0190911C01009741F499
:1057A0008DB79EB740911F0150912001841B950B2E
:1057B000E817F907C8F4F0939A04E0939904F90103
:1057C000718360830FC0CB010E94142A7C01009773
:1057D00059F0A801BE010E94002CCE010E94AC2A03
:1057E000C70104C0CE0102C080E090E0CDB7DEB7B3
:1057F000EEE00C94F52681E090E0F8940C94102CE7
:10580000FB01DC0102C001900D9241505040D8F7DD
:105810000895FB01DC0101900D920020E1F708954D
:04582000F894FFCF2A
:105824000D00090005000000010101FFFFFFFFFF5B
:10583400FF01C80000000000803FFF00009D0480BD
:105844000000000000841018104210D1101618F443
:1058540017081800000000B9188C18E9186018849B
:1058640018701861180D0A005374617274466C69DB
:105874006768743B00456E64466C696768743B00F6
:10588400646174612C00240043616E6E6F74207235
:1058940065636F726400466C69676874204E627257
:1058A4003A200053746172743A2000456E643A20C1
:0258B4000000F2
:00000001FF
