:100000000C942C020C9454020C9454020C94540240
:100010000C9454020C9454020C9454020C94640EEC
:100020000C9454020C9454020C9454020C945402F8
:100030000C9454020C9454020C9454020C945402E8
:100040000C94EF0D0C9454020C941E040C94F803C1
:100050000C9454020C9454020C9454020C945402C8
:100060000C9450040C94540256095D0964096B0900
:1000700072097909800987098E0995099C09A309E4
:10008000AA09B109B809BF09CA09D109D809076382
:100090004236B79BD8A71A39685618AEBAAB558CFA
:1000A0001D3CB7CC5763BD6DEDFD753EF617723143
:1000B000BF000000803F08000000BE922449123EAD
:1000C000ABAAAA2ABECDCCCC4C3E00000080BEAB71
:1000D000AAAAAA3E00000000BF000000803F000066
:1000E000000000084178D3BB4387D1133D190E3C73
:1000F000C3BD4282AD2B3E68EC8276BED98FE1A9AA
:100100003E4C80EFFFBE01C4FF7F3F0000000000B7
:100110003B002C002C002C002C002C002C002C0070
:100120002C002C002474656C656D657472792C004C
:100130003B0A002C002C002C002C002C002C002C46
:10014000002C002C002C002C002C002C002C00413A
:100150006C746944756F002C002C002C002C002C52
:10016000002C002C002C0024616C7469636F6E6697
:10017000696700696E76616C696420636F6E660002
:1001800024554E4B4E4F574E3B00244B303B0A00FC
:10019000244F4B3B0A0054656C656D657472792081
:1001A00064697361626C65640A0054656C656D65B1
:1001B00074727920656E61626C65640A00636F6EAB
:1001C00066696720726573657465640A00244F4B25
:1001D0003B0A00244F4B3B0A00244F4B3B0A0024B0
:1001E000656E643B0A002473746172743B0A0024D8
:1001F0004F4B3B0A004E6F7420656D706C656D65EA
:100200006E7465640A00436F6E74696E7569747903
:10021000206F6E200A00436F6E74696E7569747981
:10022000206F6666200A00244F4B3B0A004E6F7415
:1002300020696D706C656D656E7465640A00244F8D
:100240004B3B0A004E6F7420696D706C656D656E76
:100250007465640A00244F4B3B0A004E6F7420699A
:100260006D706C656D656E746564200A00244F4B7B
:100270003B0A004E6F7420696D706C656D656E741D
:10028000656400244F4B3B0A004E6F7420696D700B
:100290006C656D656E74656400454550524F4D2028
:1002A0006C656E6774683A2000456E642061646412
:1002B000726573733A200053746172742070726FA8
:1002C0006772616D0A00456E74657220436F6D6DD3
:1002D000616E6420616E64207465726D696E617414
:1002E000652069742062792061203B203E3E0A002F
:1002F0006220203D207072696E7420616C746920E8
:10030000636F6E666967200A006320203D20746F6A
:1003100067676C6520636F6E74696E7569747920A8
:100320006F6E2F6F6666200A006520203D20657283
:1003300061736520616C6C20666C69676874206409
:10034000617461200A006C20203D207072696E7417
:1003500020666C69676874206C697374200A007287
:100360002028666F6C6C6F776564206279207468F2
:100370006520666C69676874206E756D62657229A8
:10038000203D207265616420666C69676874206432
:100390006174610A0077203D207265636F7264208A
:1003A000666C69676874200A00436F6D6D616E64E6
:1003B00073206172653A200A00526F636B65742086
:1003C000666C696768742064617461206C6F67672C
:1003D00065722E2041206D6178696D756D206F66A4
:1003E00020323520666C696768742063616E206214
:1003F00065206C6F67676564200A000000000024B8
:100400000027002A00000000002300260029000029
:1004100000000800020100000304070000000000C3
:1004200000000001020408102040800102040810AE
:100430002001020408102000000000250028002BE5
:10044000000404040404040404020202020202037D
:10045000030303030302401D11241FBECFEFD8E0A6
:10046000DEBFCDBF11E0A0E0B1E0E0EEF4E402C0F9
:1004700005900D92AE33B107D9F723E0AEE3B1E0BA
:1004800001C01D92A736B207E1F712E0CCE2D2E03C
:1004900004C02197FE010E944122CB32D107C9F747
:1004A0000E944E140C946E220C940000FC01538D9B
:1004B000448D252F30E0842F90E0821B930B54173E
:1004C00010F0CF96089501970895FC01918D828DCB
:1004D000981761F0828DDF01A80FB11D5D968C9198
:1004E000928D9F5F9F73928F90E008958FEF9FEFA3
:1004F0000895FC01918D828D981731F0828DE80F5F
:10050000F11D858D90E008958FEF9FEF0895FC0118
:10051000918D228D892F90E0805C9F4F821B9109E5
:100520008F739927089587E892E00E94870221E05F
:10053000892B09F420E0822F0895FC01848DDF01CE
:10054000A80FB11DA35ABF4F2C91848D90E0019646
:100550008F739927848FA689B7892C93A089B18935
:100560008C91837080648C93938D848D981306C0D6
:100570000288F389E02D80818F7D80830895EF923A
:10058000FF920F931F93CF93DF93EC0181E0888F4D
:100590009B8D8C8D981305C0E889F989808185FD34
:1005A00026C0F62E0B8D10E00F5F1F4F0F73112723
:1005B000E02E8C8DE8120CC00FB607FCFACFE8894C
:1005C000F989808185FFF5CFCE010E949D02F1CF90
:1005D0008B8DFE01E80FF11DE35AFF4FF0829FB7AC
:1005E000F8940B8FEA89FB89808180620AC09FB7EB
:1005F000F894EE89FF896083E889F98980818370A6
:10060000806480839FBF81E090E0DF91CF911F9154
:100610000F91FF90EF900895CF93DF93EC01888DB9
:100620008823C9F0EA89FB89808185FD05C0A889F6
:10063000B9898C9186FD0FC00FB607FCF5CF80817C
:1006400085FFF2CFA889B9898C9185FFEDCFCE01C6
:100650000E949D02E7CFDF91CF91089580E090E066
:10066000892B29F00E94930281110C9400000895B7
:1006700085ED8093BC008091BC0084FDFCCF10927E
:100680006302089540915F01262F30E0240F311D51
:1006900021323105DCF4209163022430C9F4FC01DD
:1006A00080E090E0861758F430915F012191DC01E1
:1006B000A15CBE4FA30FB11D2C930196F3CF809187
:1006C0005F01680F60935F0180E0089581E0089505
:1006D00082E00895089508950895E0911C028091A4
:1006E0001B02E81730F4F0E0E35EFD4F808190E0FC
:1006F00008958FEF9FEF089590911C0280911B0247
:10070000981750F4E92FF0E0E35EFD4F208130E0D0
:100710009F5F90931C0202C02FEF3FEFC901089525
:1007200080911B0290E020911C02821B9109089588
:10073000CF92DF92EF92FF920F931F93CF93DF93AD
:100740007C01CB018A0120916402222389F0EB0114
:100750006B01C40ED51ECC15DD0569F06991D7017A
:10076000ED91FC910190F081E02DC7010995F3CF47
:10077000642F0E944203C801DF91CF911F910F9116
:10078000FF90EF90DF90CF900895CF93DF931F926B
:10079000CDB7DEB76983209164022223D1F0209186
:1007A0008602203240F021E030E0FC0133832283D6
:1007B00080E090E015C080916502E82FF0E0EA59F2
:1007C000FD4F998190838F5F8093650280938602AD
:1007D00005C061E0CE0101960E94420381E090E0F5
:1007E0000F90DF91CF910895089580E090E00895F3
:1007F0001F920F920FB60F9211242F933F934F9396
:100800005F936F937F938F939F93AF93BF93EF9378
:10081000FF9387E892E00E949D02FF91EF91BF91C4
:10082000AF919F918F917F916F915F914F913F9188
:100830002F910F900FBE0F901F9018951F920F923F
:100840000FB60F9211242F938F939F93EF93FF93E3
:10085000E0919702F09198028081E0919D02F091E1
:100860009E0282FD12C090818091A0028F5F8F73E3
:100870002091A102821751F0E091A002F0E0E95727
:10088000FD4F958F8093A00201C08081FF91EF9171
:100890009F918F912F910F900FBE0F901F901895E1
:1008A0001F920F920FB60F9211242F933F934F93E5
:1008B0005F936F937F938F939F93AF93BF93EF93C8
:1008C000FF938091B900887F803609F49CC068F559
:1008D000883209F45BC090F4803109F454C038F4D4
:1008E000882309F4F6C0883009F44DC0F6C0883179
:1008F00009F44CC0803209F45DC0EFC0803409F4C3
:1009000068C048F4803309F455C0883309F0E5C065
:1009100080936102D8C0803509F44FC0883509F44E
:100920005DC0883409F0D9C0D6C0883909F4C7C081
:10093000A8F4883709F467C038F4883609F463C02E
:10094000803709F460C0C9C0883809F4B8C080395C
:1009500009F45FC0803809F0C0C05BC0803B09F477
:1009600086C038F4803A09F466C0883A09F47FC03A
:10097000B4C0803C09F4A7C0883C09F4A4C0883BFB
:1009800009F48AC0AAC080913E0210C09091600212
:1009900080915F02981770F5E091600281E08E0F00
:1009A00080936002F0E0E15CFD4F80818093BB00AA
:1009B00085EC86C0809361028EC0E091600281E088
:1009C0008E0F809360028091BB00F0E0E15CFD4FF0
:1009D00080839091600280915F026EC0E09160021E
:1009E00081E08E0F809360028091BB00F0E0E15CBB
:1009F000FD4F80838091620281116DC081E0809300
:100A00003D0284EA61C083E0809363021092810119
:100A1000CFCF80918101803208F051C0E0918101F7
:100A200081E08E0F809381018091BB00F0E0EF594F
:100A3000FE4F8083BDCF85EC8093BC001092630293
:100A400080918101803230F4E0918101F0E0EF5932
:100A5000FE4F10826091810170E0E0911002F091F0
:100A6000110281E691E009951092810136C084E07F
:100A7000809363021092600110925F01E091120274
:100A8000F0911302099580915F01811105C081E009
:100A900080935F0110923F01E091600181E08E0F31
:100AA00080936001F0E0E15CFE4F80818093BB00A9
:100AB0009091600180915F01981708F479CF85E8E3
:100AC0008093BC000AC085EC8093BC001092630246
:100AD00004C0109261020E943803FF91EF91BF9110
:100AE000AF919F918F917F916F915F914F913F91C6
:100AF0002F910F900FBE0F901F9018950F931F937B
:100B0000CF93DF93FC012081211102C080E013C04C
:100B1000EC010580F681E02D099509811A812B8170
:100B20003C81DC01CB01801B910BA20BB30BB7FD09
:100B3000EDCF188281E0DF91CF911F910F91089541
:100B4000CF92DF92EF92FF920F931F93CF93DF9399
:100B5000FC01208121111CC07B016A01EC0181E0B4
:100B600080830580F681E02D09958601970137FF86
:100B700007C030952095109501951F4F2F4F3F4F7F
:100B8000060F171F281F391F09831A832B833C83E5
:100B9000DF91CF911F910F91FF90EF90DF90CF9059
:100BA00008950F931F93CF93DF930DEA11E0C0E2F6
:100BB000D0E0F80161918F01CE010E944D1E219677
:100BC000CA34D105B1F789EA92E00E94BF0F8AE4E6
:100BD00090E00E94591089E992E0DF91CF911F9136
:100BE0000F910C94BF0FCF93DF93CDB7DEB7AA97C9
:100BF0000FB6F894DEBF0FBECDBF1092AE011092BB
:100C0000AD011092B0011092AF011092B20110929A
:100C1000B10181E090E09093B4018093B30183E04F
:100C200090E09093B6018093B5011092BC011092B0
:100C3000BB011092BE011092BD011092C001109232
:100C4000BF0122E330E03093B8012093B701109246
:100C5000BA011092B90128EB31E03093C201209320
:100C6000C10125E030E03093C4012093C30190938B
:100C7000C6018093C5011092C8011092C70110925D
:100C8000CA011092C90180E096E9A0E0B0E080932B
:100C9000CB019093CC01A093CD01B093CE011092E3
:100CA000D0011092CF0180E092E09093D201809326
:100CB000D1011092D4011092D3018AE2EDEAF1E061
:100CC000DE01119601900D928A95E1F7FE013196B1
:100CD000AE01475D5F4F80E090E0E417F50731F02B
:100CE0002191820F911D27FD9A95F7CF9093D60100
:100CF0008093D501AA960FB6F894DEBF0FBECDBF84
:100D0000DF91CF910895EF92FF920F931F93CF93AE
:100D1000DF93CDB7DEB7AA970FB6F894DEBF0FBE4C
:100D2000CDBF0E94F3058DEAE82E81E0F82E00E2A7
:100D300010E0C8010E94451EF70181937F010F5FFB
:100D40001F4F0A341105A9F74091D5015091D601E2
:100D50008AE2EDEAF1E0DE01119601900D928A95AA
:100D6000E1F7FE013196BE01675D7F4F20E030E084
:100D7000E617F70731F08191280F311D87FD3A956D
:100D8000F7CF81E04217530709F080E0AA960FB62B
:100D9000F894DEBF0FBECDBFDF91CF911F910F91B1
:100DA000FF90EF900895CF93DF93CAE0D0E048EE34
:100DB00053E060E070E080E496E00E94A21162E3FC
:100DC00070E080E090E00E9414148CE00E94390EE4
:100DD000219769F768EE73E080E090E0DF91CF91B2
:100DE0000C94141449E150E060E070E08091A2019D
:100DF0009091A3010E94A2116CE271E080E090E06A
:100E00000E9414148CE00C94390E48EE53E060E01C
:100E100070E08091A2019091A3010E94A2116CED5B
:100E200075E080E090E00E9414148CE00C94390E80
:100E30008F929F92AF92BF92CF92DF92FF920F93C9
:100E40001F93CF93DF9300D000D01F92CDB7DEB7B2
:100E50002AE0AE014F5F5F4F6A010E94131EF60148
:100E600001900020E9F73197FE2EFC1868EB7BE03B
:100E700080E090E00E94141456018A2D8C198F1581
:100E8000F0F468EE73E080E090E00E941414F50145
:100E900001915F01005309F40AE010E0812C912CCC
:100EA0000E94F206FFEF8F1A9F0A801691062CF718
:100EB0006AEF70E080E090E00E941414F1CF0F9090
:100EC0000F900F900F900F90DF91CF911F910F9186
:100ED000FF90DF90CF90BF90AF909F908F9008953C
:100EE000CF92DF92EF92FF920F931F93CF93DF93F6
:100EF0006B017C0164367105810591053CF124E6A6
:100F000030E040E050E00E942222890164E6629FC6
:100F1000C001639F900D1124092E000CAA0BBB0B7E
:100F2000A7019601281B390B4A0B5B0BCA01B901BB
:100F30002AE030E040E050E00E942222E901101651
:100F40001106D4F4EE24E394F12C08C02AE030E03A
:100F500040E050E00E942222E9010EC00E940507F5
:100F600062E370E080E090E00E9414143FEFE31A27
:100F7000F30A0E151F0594F71C161D0674F068E899
:100F800073E180E090E0DF91CF911F910F91FF908E
:100F9000EF90DF90CF900C94141401E010E00E94C9
:100FA000F20662E370E080E090E00E9414140F5FAC
:100FB0001F4FC017D1079CF7E2CFEF92FF920F931C
:100FC0001F93CF93DF93CDB7DEB7AC970FB6F894EE
:100FD000DEBF0FBECDBF8C010E94DA0F89E391E026
:100FE0000E94DA0FF8018081853639F489E892E0B1
:100FF0000E945F1083E892E06DC2823739F483E784
:1010000092E00E945F108DE692E064C2873739F467
:101010008BE592E00E945F1085E592E05BC28E3620
:1010200039F484E492E00E945F108EE392E052C2B1
:101030008C3639F48DE292E00E945F1087E292E0F4
:1010400049C2833689F48091A401811106C081E0F0
:101050008093A40186E192E004C01092A40186E08E
:1010600092E00E945F1047C2813639F485EF91E02B
:101070000E94BF0F8FEE91E02DC2823609F0F1C0C1
:1010800086EE91E00E94BF0F0E948306811104C08A
:1010900083E791E00E94BF0F87E691E00E94BF0FB7
:1010A00085E691E00E94BF0F8091AD019091AE0165
:1010B0000E94591083E691E00E94BF0F8091AF011A
:1010C0009091B0010E94591081E691E00E94BF0FFB
:1010D0008091B1019091B2010E9459108FE591E089
:1010E0000E94BF0F8091B3019091B4010E945910EA
:1010F0008DE591E00E94BF0F8091B5019091B601FE
:101100000E9459108BE591E00E94BF0F8091B901B8
:101110009091BA010E94591089E591E00E94BF0F99
:101120008091B7019091B8010E94591087E591E034
:101130000E94BF0F8FE491E00E94BF0F8DE491E009
:101140000E94BF0F81E090E00E9459108BE491E073
:101150000E94BF0F85E090E00E94591089E491E061
:101160000E94BF0F8091BB019091BC010E94591059
:1011700087E491E00E94BF0F8091BD019091BE0174
:101180000E94591085E491E00E94BF0F8091BF0139
:101190009091C0010E94591083E491E00E94BF0F1A
:1011A0008091C1019091C2010E94591081E491E0A7
:1011B0000E94BF0F8091C3019091C4010E945910F9
:1011C0008FE391E00E94BF0F8091C5019091C6010D
:1011D0000E9459108DE391E00E94BF0F8091C701DA
:1011E0009091C8010E9459108BE391E00E94BF0FBB
:1011F0008091C9019091CA010E94591089E391E040
:101200000E94BF0F6091CB017091CC018091CD0104
:101210009091CE010E942D1087E391E00E94BF0FB4
:101220008091CF019091D0010E94591085E391E007
:101230000E94BF0F8091D1019091D2010E9459105C
:1012400083E391E00E94BF0F8091D3019091D4017C
:101250000E94591080E391E00E94BF0F8FED91E052
:1012600039C1833709F0CCC01CA70BA7E12CF12CA6
:10127000AE01455D5F4F6CE371E08BA59CA50E94BC
:10128000CF1D8C01009709F49DC00E94DA0F89E3FD
:1012900091E00E94DA0FF7013197E331F10508F090
:1012A0008DC0EC5CFF4FC8010C9441220E948A1D46
:1012B0009093AE018093AD0181C00E948A1D9093EE
:1012C000B0018093AF017AC00E948A1D9093B20151
:1012D0008093B10173C00E948A1D9093B4018093E2
:1012E000B3016CC00E948A1D9093B6018093B50132
:1012F00065C00E948A1D9093B8018093B7015EC0BB
:101300000E948A1D9093BA018093B90157C00E9430
:10131000A81D7093BC016093BB0150C00E94A81D22
:101320007093BE016093BD0149C00E94A81D7093D7
:10133000C0016093BF0142C00E948A1D9093C20108
:101340008093C1013BC00E948A1D9093C401809389
:10135000C30134C00E94A81D7093C6016093C501EB
:101360002DC00E948A1D9093C8018093C70126C09A
:101370000E948A1D9093CA018093C9011FC00E94D8
:10138000A81D6093CB017093CC018093CD01909305
:10139000CE0114C00E948A1D9093D0018093CF018A
:1013A0000DC00E948A1D9093D2018093D10106C086
:1013B0000E948A1D9093D4018093D301FFEFEF1A0E
:1013C000FF0A56CF8AE2EDEAF1E0DE0111960190C4
:1013D0000D928A95E1F7FE013196AE01475D5F4FB0
:1013E00080E090E0E417F50731F02191820F911D24
:1013F00027FD9A95F7CF9093D6018093D50104C02D
:10140000843629F40E94F3050E94D10574C0863603
:1014100031F481E08093DE0189ED91E05BC0873695
:1014200029F41092DE0183ED91E054C0883619F45E
:101430008DEC91E04FC0843739F40E94F3050E948F
:10144000D1058DEB91E046C0893609F454C08B3646
:1014500031F5F801818189831A82CE0101960E94BB
:10146000A81D97FD48C0F8011281CE0101960E9487
:101470008A1D8130910519F0029741F03CC0163465
:1014800011F060E001C061E089E006C0163411F09F
:1014900060E001C061E08DE00E9405112CC0893739
:1014A000A9F4F8018181813341F48AEA91E00E9434
:1014B000BF0F81E080933E0106C086E991E00E9463
:1014C000BF0F10923E0180E991E004C0803229F400
:1014D0008AE891E00E94BF0F0EC080E891E00E9470
:1014E000BF0FF801608187E892E00E94BF0289E3A4
:1014F00091E00E94DA0FAC960FB6F894DEBF0FBEF3
:10150000CDBFDF91CF911F910F91FF90EF90089584
:101510008F929F92AF92BF92CF92DF92EF92FF9203
:101520000F931F93CF93DF9320913E01222309F461
:10153000B9C0E090D901F12C0091D80110E02091C0
:10154000D70121119AC0C12CD12CD0E0C0E04B01B1
:101550005C0184E291E00E94BF0F6091DA0170911A
:10156000DB018091DC019091DD010E942D1082E26F
:1015700091E00E94BF0FC7010E94591080E291E0E4
:101580000E94BF0FC8010E9459108EE191E00E9495
:10159000BF0F6091A9017091AA018091AB01909158
:1015A000AC010E942D108CE191E00E94BF0FC6019A
:1015B0000E9459108AE191E00E94BF0F6091A5013D
:1015C0007091A6018091A7019091A8010E942D1011
:1015D00088E191E00E94BF0F8D2F9C2F0E9459102F
:1015E00086E191E00E94BF0FC501B4010E942D1059
:1015F00084E191E00E94BF0F80910F01882359F090
:101600008AE00E94DC10892B19F480E090E005C08C
:1016100081E090E002C08FEF9FEF0E94591082E1BD
:1016200091E00E94BF0F80910E01882391F08BE022
:101630000E94DC10EC0164E170E080E090E00E9428
:101640001414CD2B19F480E090E005C081E090E007
:1016500002C08FEF9FEF0E94591080E191E0DF916F
:10166000CF911F910F91FF90EF90DF90CF90BF909F
:10167000AF909F908F900C945F10D1E0C0E080906D
:10168000DA019090DB01A090DC01B090DD012AE04E
:1016900082169104A104B1040CF0D0E0CC24C394D0
:1016A000D12C55CFDF91CF911F910F91FF90EF90EB
:1016B000DF90CF90BF90AF909F908F9008954F9202
:1016C0005F926F927F928F929F92AF92BF92CF92D2
:1016D000DF92EF92FF921F93CF93DF9300D000D061
:1016E00000D0CDB7DEB78EE20E94C3108FE19EE43A
:1016F0000197F1F700C0000086EF0E9493104C01A3
:10170000A12CB12C809145038295880F880F807C95
:101710008C5C0E94C31080914503811105C0AFE12C
:10172000BEE41197F1F715C0813029F48FEF9CE7E3
:101730000197F1F70EC0823029F4AFEBBAED1197A3
:10174000F1F707C0BFEF24E431E0B1502040304052
:10175000E1F700C0000086EF0E9493106C01E12CBD
:10176000F12CFE2CED2CDC2CCC2488EF0E946D108B
:10177000C82A10914503412F50E05E834D8380912C
:101780005A0390915B03A5019401281B390B410971
:101790005109A0915803B09159030E9447220E9419
:1017A000721F20E030E040E058E30E94FE1F0E94DC
:1017B0003A1F4B015C016091520370915303072E55
:1017C000000C880B990B0E94721F20E030E040E073
:1017D00055E40E94FE1F2B013C016091540370915F
:1017E0005503CB01770FAA0BBB0BBC01CD01680DD4
:1017F000791D8A1D9B1D0E94721F9B01AC01C301B4
:10180000B2010E94C81E0E943A1F860E971EA81E93
:10181000B91E50EA851A5FE0950AA108B108A50132
:101820009401C501B4010E94F0219B01AC01ACE020
:101830005595479537952795AA95D1F729833A83EA
:101840004B835C83E0914603F0914703A0914A03E8
:10185000B0914B03A50194010E9452222B013C013F
:10186000BDE07594679457944794BA95D1F7A091C9
:101870004C03B0914D0329813A814B815C810E94D8
:101880005222BB2797FDB095AB2F840D951DA61D49
:10189000B71D0296A11DB11D32E0B595A79597958C
:1018A00087953A95D1F79C01AD0130584F4F5F4F66
:1018B000A0915603B09157030E9447222B013C018F
:1018C0004FE076946794579447944A95D1F788E00F
:1018D00090E04D815E81841B950B04C0F694E794E3
:1018E000D794C7948A95D2F7A0914E03B0914F0335
:1018F00029813A814B815C810E9452229B01AC017B
:101900006BE055954795379527956A95D1F72983CB
:101910003A834B835C83A0914803B0914903A501AE
:1019200094010E945222DC01CB017BE0B595A79582
:10193000979587957A95D1F749815A816B817C81FA
:10194000480F591F6A1F7B1FCF01FF0FAA0BBB0B4C
:10195000E2E0880F991FAA1FBB1FEA95D1F7840FF9
:10196000951FA61FB71F012E04C0880F991FAA1F1D
:10197000BB1F0A94D2F7BC01CD016E5F7F4F8F4F22
:101980009F4F24E030E040E050E00E942222D70147
:10199000C601821B930BA40BB50B9C01AD0180E526
:1019A00093ECA0E0B0E0BC01CD0104C09695879512
:1019B000779567951A95D2F70E94F02197FD0BC095
:1019C000660F771F881F991FA30192010E940022B2
:1019D00049015A010AC0A30192010E940022490153
:1019E0005A01880C991CAA1CBB1C9927B7FC9A9514
:1019F0008B2D7A2D692D9B01AC010E94F0219B015A
:101A0000AC01AEEDBBE00E9447226B017C01A3E478
:101A1000B3EEA50194010E945522BB2797FDB09516
:101A2000AB2F6701FF24D7FCF094EF2C8C0D9D1D8C
:101A3000AE1DBF1D8153914FAF4FBF4F44E0B595D1
:101A4000A795979587954A95D1F7BC01CD01680D6B
:101A5000791D8A1D9B1D0E94721F20E836EE45EC01
:101A600057E40E94C81E21E03EED42E45EE30E947E
:101A70006B2069837A838B839C834090860150908E
:101A80008701609088017090890120919A013091BE
:101A90009B0140919C0150919D0160918201709148
:101AA000830180918401909185010E945C1E6B01ED
:101AB0007C0120919E0130919F014091A0015091A5
:101AC000A1010E945C1E9B01AC0160E070E080E817
:101AD0009FE30E94C81EA70196010E94FE1F4B01B2
:101AE0005C0129813A814B815C8160E070E080E893
:101AF0009FE30E945B1E20E03AE24DE257E40E9421
:101B0000FE1FA30192010E945B1EA50194010E9489
:101B1000FE1FA30192010E945C1E2B013C016093F9
:101B20008601709387018093880190938901A501B4
:101B3000940160E070E080E89FE30E945B1EA701D3
:101B400096010E94FE1F609382017093830180932F
:101B5000840190938501C301B20126960FB6F894D3
:101B6000DEBF0FBECDBFDF91CF911F91FF90EF90F1
:101B7000DF90CF90BF90AF909F908F907F906F90AD
:101B80005F904F900895CF92DF92EF92FF920F9364
:101B90001F93CF93DF936C017A018B01C0E0D0E0FB
:101BA000CE15DF0581F0D8016D918D01D601ED9143
:101BB000FC910190F081E02DC6010995892B11F06F
:101BC0002196EECF7E01C701DF91CF911F910F913A
:101BD000FF90EF90DF90CF9008950E9469221F92AE
:101BE0000F920FB60F9211242F933F938F939F93D1
:101BF000AF93BF938091080290910902A0910A02CD
:101C0000B0910B023091070223E0230F2D3720F40F
:101C10000196A11DB11D05C026E8230F0296A11D46
:101C2000B11D209307028093080290930902A093AC
:101C30000A02B0930B0280910C0290910D02A091C8
:101C40000E02B0910F020196A11DB11D80930C02EE
:101C500090930D02A0930E02B0930F02BF91AF912B
:101C60009F918F913F912F910F900FBE0F901F90DA
:101C7000189590911401891324C0E5E5F4E0E491EE
:101C80009FEF90931401E130B9F098F0E230C9F47D
:101C9000909170009D7F9093700091E09093B000C0
:101CA0009091B100987F94609093B1001092B3002E
:101CB00008C010926E0005C090916F009D7F9093B8
:101CC0006F0060E00C9405111F920F920FB60F92F7
:101CD00011242F933F934F935F936F937F938F9331
:101CE0009F93AF93BF93EF93FF93809117029091CF
:101CF0001802A0911902B0911A02892B8A2B8B2B02
:101D000051F190911402E0911502F0911602808138
:101D1000892780838091170290911802A09119025F
:101D2000B0911A02181619061A061B06C4F48091FF
:101D3000170290911802A0911902B0911A0201970E
:101D4000A109B1098093170290931802A093190278
:101D5000B0931A0204C0809114010E94390EFF91C1
:101D6000EF91BF91AF919F918F917F916F915F9113
:101D70004F913F912F910F900FBE0F901F9018958C
:101D80002FB7F894609108027091090280910A02BD
:101D900090910B022FBF089530918602313208F0E6
:101DA0004BC0809163028111FCCF9091660322E0C9
:101DB0002093630221E0209362022FEF20936102BF
:101DC0001092600230935F02E6E6F2E0AFE3B2E029
:101DD00020E0321721F041914D932F5FFACF1092FE
:101DE0003E0220913E02990F922B90933E029091D9
:101DF0003D02913061F410923D0290913E02909329
:101E0000BB009091BC0093FDF8CF95EC01C095EE1E
:101E10009093BC00909163029230E1F39091610243
:101E20009F3F79F080916102803241F080916102A0
:101E3000803331F084E005C081E003C082E001C05E
:101E400083E0109265021092860210926402089557
:101E5000833081F028F4813099F08230A1F0089528
:101E60008730A9F08830B9F08430D1F480918000B7
:101E70008F7D03C0809180008F77809380000895CC
:101E800084B58F7702C084B58F7D84BD089580911D
:101E9000B0008F7703C08091B0008F7D8093B00039
:101EA00008953FB7F89480910C0290910D02A09193
:101EB0000E02B0910F0226B5A89B05C02F3F19F066
:101EC0000196A11DB11D3FBFBA2FA92F982F8827BA
:101ED000820F911DA11DB11DBC01CD0142E0660F15
:101EE000771F881F991F4A95D1F708959091630233
:101EF0009111FCCF982F813208F090E281E080931D
:101F00006302809362022FEF2093610210926002BD
:101F1000290F20935F0280933E0280913E028E6ED5
:101F200080933E0280913D02813061F410923D0227
:101F300080913E028093BB008091BC0083FDF8CF6E
:101F400085EC01C085EE8093BC00809163028130F6
:101F5000E1F380916002891710F490916002EFE341
:101F6000F2E0ADE1B2E080E0891721F021912D93FC
:101F70008F5FFACF10921C0280931B0208950F937B
:101F80001F93CF93DF938C01C0E0D0E0F801EC0FFA
:101F9000FD1F6491662341F087E892E00E94BF0232
:101FA000892B11F02196F2CFCE01DF91CF911F91B5
:101FB0000F910895009769F0FC0101900020E9F766
:101FC0003197AF01481B590BBC0187E892E00C9494
:101FD000C30D80E090E008958F929F92AF92BF92E0
:101FE0000F931F93CF93DF93CDB7DEB7A1970FB6B3
:101FF000F894DEBF0FBECDBF19A2423008F44AE00C
:102000008E010F5D1F4F842E912CA12CB12CA501A8
:1020100094010E940022E62FB901CA010150110962
:10202000EA3014F4E05D01C0E95CD801EC93232BA5
:10203000242B252B61F7C8010E94DA0FA1960FB659
:10204000F894DEBF0FBECDBFDF91CF911F910F91EE
:10205000BF90AF909F908F900895CF92DF92EF92B4
:10206000FF92CF93DF9397FF1BC06B017C016DE262
:1020700087E892E00E94BF02EC0166277727CB0138
:102080006C197D098E099F094AE00E94EC0F8C0FA4
:102090009D1FDF91CF91FF90EF90DF90CF9008953B
:1020A0004AE0DF91CF91FF90EF90DF90CF900C94BA
:1020B000EC0FBC01990F880B990B0C942D10CF934A
:1020C000DF930E94BF0FEC0189E391E00E94DA0FD9
:1020D0008C0F9D1FDF91CF910895CF93C1E0C093E6
:1020E000640297E79093660310926502109286024D
:1020F000682F84E293E00E94C5030E94CC0EC09337
:102100006402109265021092860281E090E00E94C3
:10211000760F84E293E00E947C03C82F0E94CC0ECD
:102120008C2FCF910895CF93DF93C1E0C0936402C9
:1021300097E7909366031092650210928602682FCB
:1021400084E293E00E94C5030E94CC0EC093640217
:10215000109265021092860282E090E00E94760F53
:1021600084E293E00E947C03D82F80E0C82F84E2B1
:1021700093E00E947C03C82BD92B0E94CC0ECE0189
:10218000DF91CF910895CF93C82F81E080936402AF
:1021900087E780936603109265021092860264EFCF
:1021A00084E293E00E94C5036C2F84E293E00E94D6
:1021B000C503CF910C94CC0ECF93DF93282F30E042
:1021C000F901E15FFB4F8491F901ED5DFB4FD49183
:1021D000F901EF5BFB4FC491CC2391F081110E9478
:1021E000280FEC2FF0E0EE0FFF1FEB5FFB4FA591E8
:1021F000B491EC91ED2381E090E021F480E002C005
:1022000080E090E0DF91CF9108951F93CF93DF930B
:10221000282F30E0F901E15FFB4F8491F901ED5D7A
:10222000FB4FD491F901EF5BFB4FC491CC23C1F07C
:10223000162F81110E94280FEC2FF0E0EE0FFF1FE8
:10224000E95CFB4FA591B4919FB7F894111104C0BC
:102250008C91D095D82302C0EC91DE2BDC939FBFEC
:10226000DF91CF911F91089510921C0210921B02D2
:1022700010926502109286021092630281E08093B0
:10228000620210923D0261E082E10E94051161E06C
:1022900083E10E940511E9EBF0E080818E7F80836D
:1022A00080818D7F808388E48093B80085E480936B
:1022B000BC008AE693E090931302809312028BE6AF
:1022C00093E090931102809310020895CF93DF93CF
:1022D00090E0FC01ED5DFB4F2491FC01EF5BFB4FB7
:1022E0008491882361F190E0880F991FFC01E550EB
:1022F000FC4FC591D491FC01E95CFB4FA591B491D1
:10230000611109C09FB7F894888120958223888342
:10231000EC912E230BC0623061F49FB7F894888152
:10232000322F309583238883EC912E2B2C939FBFE3
:1023300006C08FB7F894E8812E2B28838FBFDF91DA
:10234000CF9108954F925F926F927F928F929F925A
:10235000AF92BF92CF92DF92EF92FF920F931F93B3
:10236000CF93DF9300D000D01F92CDB7DEB78C01A2
:102370002A013B01809114018C3021F08F3F09F03C
:102380003DC205C0E5E5F4E024912D8372C08CE0E8
:1023900080931401E5E5F4E084918D838F3F09F487
:1023A0002DC2813009F441C038F1823009F061C09A
:1023B0001092B0001092B1008091B00082608093C2
:1023C000B0008091B10081608093B100EDE4F4E051
:1023D000E491F0E0EE0FFF1FE95CFB4F85919491D3
:1023E0009093160280931502EFE2F4E0E491E093FB
:1023F000140222E02D83FDC114BC15BC84B582609B
:1024000084BD85B5816085BDEDE4F4E0E491F0E044
:10241000EE0FFF1FE95CFB4F85919491EFE2F4E032
:10242000E491E0935D031D82E4C11092800010925C
:10243000810080918100886080938100809181007B
:10244000816080938100EDE4F4E0E491F0E0EE0F30
:10245000FF1FE95CFB4F85919491EFE2F4E0E4917A
:10246000E0935C0361E08CE00E94661191E09D8343
:102470008AC08D8187FDC2C161E08CE00E94661137
:102480008D818D7F09F07FC04801A12CB12C60E0C7
:1024900072E18AE790E0A50194010E94222229833B
:1024A0003A834B835C8369017A0191E0C91AD108B0
:1024B000E108F1082FEFC216D104E104F10409F09C
:1024C00008F44EC060E472E48FE090E0A50194014E
:1024D0000E94222269017A0181E0C81AD108E1082C
:1024E000F1089D81923009F52FEFC216D104E10465
:1024F000F10409F008F444C160E970ED83E090E074
:10250000A50194010E94222269017A0181E0C81A82
:10251000D108E108F1089FEFC916D104E104F104E4
:1025200011F008F0BAC083E027C02FEFC216D10423
:10253000E104F104B9F0B0F068E478EE81E090E0F5
:10254000A50194010E94222269017A0181E0C81A42
:10255000D108E108F1089D81992309F413C1DCC079
:1025600081E001C082E09D81911106C095B5987F00
:10257000892B85BD44C085E09091B100987F892B5F
:102580008093B1003CC04801A12CB12C60E072E105
:102590008AE790E0A50194010E94222269017A0154
:1025A00081E0C81AD108E108F108C114D10491E012
:1025B000E906F10488F068E478EE81E090E0A50196
:1025C00094010E94222269017A0181E0C81AD1088F
:1025D000E108F10883E001C081E09D81913079F448
:1025E00090918100987F892B809381004114510440
:1025F0006104710449F42FEF3FEFA9012CC041148D
:1026000051046104710471F0D801AA0FBB1FA3012A
:1026100092010E94472228EE33E040E050E00E9401
:10262000002203C02FEF3FEFA9018D81813099F087
:10263000823019F18111E2C0C7BC2093620330934C
:102640006303409364035093650380916E0082603E
:1026500080936E00D3C0D0928900C09288002093EE
:102660005E0330935F034093600350936103809156
:102670006F00826080936F00C1C0C092B30020934E
:102680001702309318024093190250931A02809156
:102690007000826080937000B1C068E478EE81E0E1
:1026A00090E0A50194010E94222269017A0191E043
:1026B000C91AD108E108F1082FEFC216D104E104CC
:1026C000F10441F138F164E274EF80E090E0A5019B
:1026D00094010E94222269017A0181E0C81AD1087E
:1026E000E108F1089FEFC916D104E104F10409F0F3
:1026F00008F441CF62E17AE780E090E0A50194011F
:102700000E94222269017A0181E0C81AD108E108F9
:10271000F10819C084E030CF2FEFC216D104E104D4
:10272000F10409F008F463C062E17AE780E090E028
:10273000A50194010E94222269017A0191E0C91A3F
:10274000D108E108F1088FEFC816D104E104F104C3
:10275000A9F0A0F089819A81AB81BC812AE0B5956E
:10276000A795979587952A95D1F76C017D0121E072
:10277000C21AD108E108F10887E0FECE86E0FCCE5F
:1027800082E0FACE8FEFC816D104E104F10469F1BA
:1027900060F162E17AE780E090E0A50194010E9497
:1027A000222269017A0191E0C91AD108E108F108F1
:1027B0002FEFC216D104E104F104A9F0A0F0898141
:1027C0009A81AB81BC813AE0B595A795979587959D
:1027D0003A95D1F76C017D0121E0C21AD108E108D8
:1027E000F10885E0C3CE84E0C1CE83E0BFCE84E0B3
:1027F000BACE61E08CE00E94661146CE0F900F9039
:102800000F900F900F90DF91CF911F910F91FF903C
:10281000EF90DF90CF90BF90AF909F908F907F9080
:102820006F905F904F9008958F929F92AF92BF925A
:10283000CF92DF92EF92FF926B017C010E94510FC9
:102840004B015C01C114D104E104F104F1F00E94D8
:10285000510FDC01CB0188199909AA09BB09883EEF
:102860009340A105B10570F321E0C21AD108E10837
:10287000F10888EE880E83E0981EA11CB11CC114DB
:10288000D104E104F10419F7DDCFFF90EF90DF9060
:10289000CF90BF90AF909F908F900895CF93DF938C
:1028A000CDB7DEB7C05DD1090FB6F894DEBF0FBE5D
:1028B000CDBF789484B5826084BD84B5816084BDC9
:1028C00085B5826085BD85B5816085BD80916E00CE
:1028D000816080936E0010928100809181008260FF
:1028E000809381008091810081608093810080913C
:1028F00080008160809380008091B100846080932B
:10290000B1008091B00081608093B00080917A0026
:10291000846080937A0080917A00826080937A004C
:1029200080917A00816080937A0080917A0080683B
:1029300080937A001092C1000E9483068093DF0189
:10294000811104C00E94F3050E94D1058091CB0142
:102950009091CC01A091CD01B091CE018C3221E0BB
:102960009207A105B10509F443C0803B34E0930709
:10297000A105B105E9F1803649E09407A105B1054B
:10298000B9F1803C52E19507A105B10589F1803884
:1029900025E29207A105B10559F1803438E3930788
:1029A000A105B10529F181154BE49407A105B105F5
:1029B000F9F0803850E79507A105B105C9F08115F8
:1029C00026E99207A105B10599F0811531EE93072B
:1029D000A105B10569F0811542EC940741E0A40717
:1029E000B10531F081159448A340B10509F0DDC768
:1029F0008091AD019091AE01892B29F480E090E0A7
:102A0000A0E8BFE304C088E499EFA1E5B0E48093B7
:102A1000100190931101A0931201B09313016091E2
:102A2000B7017091B801072E000C880B990B0E941A
:102A3000721F2091100130911101409112015091AB
:102A400013010E94C81E0E943A1FCB01770FAA0BE8
:102A5000BB0B8093ED019093EE01A093EF01B09337
:102A6000F0018091C1019091C2019093A3018093E4
:102A7000A20182ED90E0A0E8B0E480939E019093E3
:102A80009F01A093A001B093A1018CE69FECACE460
:102A9000BEE380939A0190939B01A0939C01B09315
:102AA0009D01109286011092870110928801109268
:102AB0008901109282011092830110928401109278
:102AC00085010E943411C090CB01D090CC01E090E0
:102AD000CD01F090CE0160E079E08DE390E0A701B8
:102AE00096010E940022DA01C9010197A109B109EA
:102AF000B695A795979587959C01E0919702F091DF
:102B0000980282E08083C11481EED806E104F104CA
:102B100021F0211590E13907B8F0E0919702F0918A
:102B20009802108260E874E88EE190E0A7019601B7
:102B30000E940022DA01C9010197A109B109B695E5
:102B4000A795979587959C01E0919302F091940247
:102B50003083E0919502F0919602208310929F02BB
:102B6000E0919B02F0919C0286E08083E0919902C3
:102B7000F0919A02808180618083E0919902F091C6
:102B80009A02808188608083E0919902F0919A0294
:102B9000808180688083E0919902F0919A0280811F
:102BA0008F7D808362E080E00E9466118091CF017A
:102BB000843008F083E0809345030E94341180ED57
:102BC0000E946D10853509F04DC08AEA0E9493106D
:102BD00090934703809346038CEA0E94931090934E
:102BE0004903809348038EEA0E94931090934B030D
:102BF00080934A0380EB0E94931090935703809335
:102C0000560382EB0E9493109093590380935803CC
:102C100084EB0E94931090935B0380935A0386EB9E
:102C20000E94931090934D0380934C0388EB0E9475
:102C3000931090934F0380934E038AEB0E9493105E
:102C400090935103809350038CEB0E9493109093C8
:102C50005303809352038EEB0E949310909355037D
:102C6000809354031092D8011092D70187EB92E021
:102C70000E94BF0F8FEF9FEF909307018093060193
:102C800090930901809308018091B1019091B20164
:102C900081309105A1F08230910501F1892B11F568
:102CA0008091BB019091BC019093EC018093EB016A
:102CB00089E090E0909307018093060115C0809110
:102CC000BB019091BC019093F2018093F10189E0E6
:102CD00090E0909309018093080106C081E0809301
:102CE000F80102C010920F018091B3019091B401DC
:102CF00081309105A1F08230910501F1892B11F508
:102D00008DE090E090930701809306018091BD01D2
:102D10009091BE019093EC018093EB0115C08DE082
:102D200090E090930901809308018091BD019091FA
:102D3000BE019093F2018093F10106C081E080937F
:102D4000F70102C010920E0161E089E00E94661155
:102D500061E08DE00E94661161E08CE00E946611E6
:102D600060E088E00E94661160E087E00E946611E2
:102D700060E08AE00E94661160E08BE00E946611CC
:102D800060E089E00E94051160E08DE00E9405117D
:102D900060E08CE00E9405118091D3019091D401F4
:102DA0000197A1F481E08093A4010E9405070E948D
:102DB000F2060E94F2060E94F2060E94F2060E94AB
:102DC000F2068091DF01811139C003C01092A40185
:102DD000ECCF84E690E0A0E0B0E08093ED0190932A
:102DE000EE01A093EF01B093F00188E00E94DC10A7
:102DF0008C0187E00E94DC100115110539F4892B44
:102E0000E9F482E390E0A0E0B0E010C001301105E9
:102E1000A9F4009729F486E990E0A0E0B0E006C0AC
:102E2000019761F488EC90E0A0E0B0E08093ED01C0
:102E30009093EE01A093EF01B093F0018091C30154
:102E40009091C401092E000CAA0BBB0B80930A01C0
:102E500090930B01A0930C01B0930D0102E310E0DD
:102E60000E945F0B01501109D9F70AE010E0C12C54
:102E7000D12C76010E945F0B4B015C01C701B601AA
:102E80000E94721FA50194010E945C1E0E943A1FBD
:102E90006B017C0162E370E080E090E00E9414141A
:102EA0000150110939F7C701B6010E94721F20E0D5
:102EB00030E040E251E40E94C81E0E943A1F609335
:102EC000030270930402809305029093060210920D
:102ED000F3011092F4011092F5011092F60184E1D1
:102EE00090E0A0E0B0E08093FB019093FC01A09300
:102EF000FD01B093FE0180910F01882391F0809134
:102F000000019091010101969093010180930001CD
:102F1000880F991FFC01E052FE4F8AE090E09183F8
:102F2000808380910E01882391F08091000190911F
:102F3000010101969093010180930001880F991F70
:102F4000FC01E052FE4F8BE090E09183808389EB9F
:102F500093E00E945F1089EA93E00E945F1085E988
:102F600093E00E945F108FE593E00E945F1086E47B
:102F700093E00E945F1089E293E00E945F1089E075
:102F800093E00E945F1080EF92E00E945F1086EC59
:102F900092E00E945F10212C312C20E2C753DF4FBA
:102FA0002883C95CD040C753DF4F3881C95CD0400B
:102FB0003B3309F4F3C48091DE018111DDC40E942A
:102FC0005F0B6B017C0160910302709104028091A0
:102FD0000502909106020E94721F9B01AC01C7017D
:102FE000B6010E945B1E0E943A1F6093DA01709343
:102FF000DB018093DC019093DD018091D90188236E
:1030000081F00E94C00E0091FF01109100022091FA
:10301000010230910202601B710B820B930B0E9424
:10302000880A4091DA015091DB016091DC017091D6
:10303000DD018091FB019091FC01A091FD01B09117
:10304000FE0184179507A607B7070CF4B0C080915E
:10305000A4018111A6C08091D8018111A2C08091E4
:10306000040190910501019609F58091EA01811111
:103070000AC051E05093EA0140E050E0BA018EE30B
:1030800093E00E94A005E091E801F091E901EE0FC4
:10309000FF1FE052FE4F8081918190930301809346
:1030A000020190930501809304017BC08EE393E0BD
:1030B0000E947E058823A1F18CE00E94390E809148
:1030C0000201909103019093050180930401809186
:1030D000E8019091E90101969093E9018093E8015C
:1030E00020910001309101012817390724F4109232
:1030F000E9011092E8018091E8019091E901892BA2
:1031000039F444EC59E060E070E080E393E006C0FD
:103110004AEF50E060E070E087E393E00E94A00592
:1031200080E393E00E947E05882341F04AEF50E05F
:1031300060E070E087E393E00E94A00587E393E0FE
:103140000E947E05882369F1E091E801F091E90190
:10315000EE0FFF1FE052FE4F8081918180930201AC
:10316000909303010E94DC102091A2013091A301F1
:1031700048EE53E060E070E0892B41F4C9010E9401
:10318000A2114CED55E060E070E007C0C9010E945B
:10319000A2114CE251E060E070E08EE393E00E9407
:1031A000A00560E070E0CB010E94880A02C3809114
:1031B0000F01811103C081E08093FA0180910E011B
:1031C000811103C091E09093F901C353DF4F18823E
:1031D000CD5CD040C453DF4F1882CC5CD040C55387
:1031E000DF4F1882CB5CD040C253DF4F1882CE5CD9
:1031F000D040C12CD12C7601812C912C5401C65386
:10320000DF4F1882CA5CD040C153DF4F1882CF5CB9
:10321000D0400E945F0B2B013C0160910302709132
:10322000040280910502909106020E94721F9B0188
:10323000AC01C301B2010E945B1E0E943A1F609361
:10324000DA017093DB018093DC019093DD018091C2
:10325000D901882381F00E94C00E0091FF011091D6
:1032600000022091010230910202601B710B820B5F
:10327000930B0E94880A4091DA015091DB01609122
:10328000DC017091DD018091FB019091FC01A09126
:10329000FD01B091FE0184179507A607B7074CF40E
:1032A0008091D901811105C08091D701882309F44B
:1032B0008BC38091D901882309F4ABCFC053DF4F72
:1032C0001882C05DD0408091D901811108C0C053DF
:1032D000DF4F4881C05DD04041116BC29ACF0E9440
:1032E0005F0B2B013C0160910302709104028091FD
:1032F0000502909106020E94721F9B01AC01C3015E
:10330000B2010E945B1E0E943A1F6093DA01709323
:10331000DB018093DC019093DD010E94C00E0091DF
:10332000FF011091000220910102309102022B0155
:103330003C01401A510A620A730AC301B2010E9499
:10334000880A8091F801882309F43FC0C553DF4FF4
:103350005881CB5CD040511111C08091BB0190913C
:10336000BC01092E000CAA0BBB0B481659066A06B5
:103370007B0658F161E089E00E9405118091BB0154
:103380009091BC01092E000CAA0BBB0BA30192016A
:10339000281B390B4A0B5B0BDA01C901883E9340AD
:1033A000A105B10508F437C38091FA0181112CC33E
:1033B00060E089E00E94051181E08093FA0191E0CC
:1033C000C553DF4F9883CB5CD0408091F7018823B1
:1033D00009F43FC0C453DF4F3881CC5CD040311179
:1033E00011C08091BD019091BE01092E000CAA0B65
:1033F000BB0B481659066A067B0658F161E08DE062
:103400000E9405118091BD019091BE01092E000C12
:10341000AA0BBB0BA3019201281B390B4A0B5B0BB8
:10342000DA01C901883E9340A105B10508F401C342
:103430008091F9018111F6C260E08DE00E940511D2
:1034400041E04093F90151E0C453DF4F5883CC5C15
:10345000D0408091B9019091BA01019761F499EB44
:1034600049169BE059066104710428F0C253DF4FEE
:103470001882CE5CD0404090DA015090DB01609021
:10348000DC017090DD018091F3019091F401A09135
:10349000F501B091F601481659066A067B067CF5DF
:1034A0008091D80181112BC0C253DF4F2881CE5C9F
:1034B000D040211124C080910A0190910B01A0916C
:1034C0000C01B0910D010197A109B10980930A0186
:1034D00090930B01A0930C01B0930D01892B8A2BC3
:1034E0008B2B29F50E94C00E4B015C014092A90173
:1034F0005092AA016092AB017092AC0120C0409240
:10350000F3015092F4016092F5017092F6018091FE
:10351000C3019091C401092E000CAA0BBB0B809330
:103520000A0190930B01A0930C01B0930D01C153BC
:10353000DF4F3881CF5CD040332309F449C00E946B
:10354000C00EAB01BC01481959096A097B09809179
:10355000F1019091F201092E000CAA0BBB0B481748
:1035600059076A077B0770F1009108011091090162
:1035700061E0802F0E9405110930110521F441E01E
:103580004093FA0106C00D30110519F451E0509333
:10359000F90181E08093D8010E94C00E0091FF01E3
:1035A000109100022091010230910202601B710B08
:1035B000820B930B0E94880AC153DF4F1882CF5CA5
:1035C000D04006C091E0C153DF4F9883CF5CD0401C
:1035D0004090DA015090DB016090DC017090DD01D9
:1035E0008091ED019091EE01A091EF01B091F00179
:1035F000481659066A067B06D0F48091D8018823C4
:10360000B1F08091D701811132C260E08091080150
:103610000E9405110E94C00E6B017C014092A50121
:103620005092A6016092A7017092A80108C0C653EB
:10363000DF4F2881CA5CD040222309F442C04AE00F
:10364000C701B6010E94EC0F89E391E00E94DA0FF6
:103650000E94C00EAB01BC014C195D096E097F09C7
:103660008091EB019091EC01092E000CAA0BBB0B91
:10367000481759076A077B07F0F061E0809106015F
:103680000E94051131E03093D7010E94C00E0091D5
:10369000FF01109100022091010230910202601B93
:1036A000710B820B930B0E94880AC653DF4F18825E
:1036B000CA5CD04006C041E0C653DF4F4883CA5CB5
:1036C000D0408091D701882309F10E94C00E00915B
:1036D000EB011091EC01012E000C220B330BDC01ED
:1036E000CB01801B910BA20BB30B8C199D09AE096A
:1036F000BF09883E9340A105B10540F0C353DF4F99
:103700008881CD5CD040811108C09AC1C353DF4F7E
:103710003881CD5CD040332359F18091DA0190910A
:10372000DB01A091DC01B091DD010A97A105B10593
:10373000CCF41092D9010E94C00E0091FF011091AB
:1037400000022091010230910202601B710B820B7A
:10375000930B0E94880A41E0C353DF4F4883CD5C3E
:10376000D04006C051E0C353DF4F5883CD5CD040FA
:103770008091FA01882309F4A6CD8091F90188236C
:1037800009F4A1CD0E94C00E0091FF01109100022A
:103790002091010230910202601B710B820B930B8E
:1037A0000E94880A81E0C053DF4F8883C05DD0400B
:1037B0008ACD0E94C00E6B017C018091D8018823C4
:1037C00009F4DAC08091D701882309F4D5C087E8CD
:1037D00092E00E948702892B91F187E892E00E9493
:1037E0006502C753DF4F8883C95CD0408B3371F0CB
:1037F0008A3029F1E1E0F0E0EC0FFD1FE20DF31D4E
:10380000808391012F5F3F4F190119C081010F5F24
:103810001F4FE1E0F0E0EC0FFD1FE20DF31D108201
:103820001092D8011092D7011092D9011092FA018A
:103830001092F901CE0101960E94DD0718010E9445
:10384000C00EDC01CB018C199D09AE09BF09813185
:103850009742A105B10508F4B0CF0E94D30680912C
:10386000AF019091B001892BC9F46091A9017091C9
:10387000AA018091AB019091AC010E94721F20912E
:1038800010013091110140911201509113010E94D9
:10389000FE1F0E943A1F0E94700718C06091A90184
:1038A0007091AA018091AB019091AC010E94721FAE
:1038B000209110013091110140911201509113019A
:1038C0000E94FE1F0E943A1F0E9418070E94D30602
:1038D0008091AF019091B001892BC9F46091A5014D
:1038E0007091A6018091A7019091A8010E94721F7A
:1038F000209110013091110140911201509113015A
:103900000E94FE1F0E943A1F0E94700718C060911B
:10391000A5017091A6018091A7019091A8010E9434
:10392000721F2091100130911101409112015091AC
:1039300013010E94FE1F0E943A1F0E9418070E9456
:10394000C00E6B017C017BCF87E892E00E9465028C
:10395000C753DF4F8883C95CD0408B33A1F08A30D6
:1039600059F0E1E0F0E0EC0FFD1FE20DF31D808364
:10397000A1014F5F5F4F1A0187E892E00E94870222
:10398000892B11F710CBE1E0F0E0EC0FFD1FE20D09
:10399000F31D1082C10101961C0105CBCE010196D9
:1039A0000E94DD070E942E03D2CA80E096E9A0E0C3
:1039B000B0E08093CB019093CC01A093CD01B09364
:1039C000CE010E94D10514C821E02093D90160E006
:1039D00070E0CB010E94880A0E94C00E6093FF0134
:1039E0007093000280930102909302028091B901CA
:1039F0009091BA01019709F05CCC31E0C253DF4FDE
:103A00003883CE5CD04055CC21E0C553DF4F2883AE
:103A1000CB5CD040DACC41E0C553DF4F4883CB5C70
:103A2000D040D3CC81E0C453DF4F8883CC5CD040FE
:103A300010CD41E0C453DF4F4883CC5CD04009CD6A
:103A4000009106011091070160E0802F0E9405118E
:103A50000930110521F491E09093FA015ECE0D300A
:103A6000110509F05ACE21E02093F90156CEC65334
:103A7000DF4F5881CA5CD040552309F426CEDFCDF4
:103A8000E7E8F2E01382128288EE93E0A0E0B0E073
:103A900084839583A683B78329E131E03183208332
:103AA00025EC30E03587248724EC30E03787268703
:103AB00020EC30E0318B208B21EC30E0338B228BFB
:103AC00022EC30E0358B248B26EC30E0378B268BD4
:103AD000118E128E138E148EE4E2F3E013821282A2
:103AE00084839583A683B7838BE291E0918380835F
:103AF000EEE3F3E0108280EC9EE096838583E7E3BB
:103B0000F3E0108296838583E0E3F3E010829683EE
:103B100085830895FC0188279927E8942191203214
:103B2000E9F3293010F02E30C8F32B3241F02D325A
:103B300039F4689404C00E940B1E820F911D2191DC
:103B400020532A30C0F31EF4909581959F4F08951D
:103B50001F93FC0199278827BC01E894119110322A
:103B6000E9F3193010F01E30C8F31B3251F01D324A
:103B700049F4689406C00E94F61D610F711D811DF5
:103B8000911D119110531A30B0F33EF49095809529
:103B9000709561957F4F8F4F9F4F1F910895FA0148
:103BA000A191B081009719F41097E1F0CD01DC01EB
:103BB000CD010D90002011F4C00113C0FB01219133
:103BC000222319F02015D9F7F3CFFB0121912015FD
:103BD00019F41E92119606C02223C1F70D90002001
:103BE000A1F7D001FA01A193B0830895592F482F6E
:103BF000372F262F660F771F881F991F660F771F95
:103C0000881F991F620F731F841F951F660F771FF0
:103C1000881F991F08957AE0979F902D879F802D88
:103C2000910D11240895BB27FA01A62F6217710583
:103C300081059105330B30FB66F0AA27660F771FCD
:103C4000881F991FAA1FA21710F0A21B6395385056
:103C5000A9F7A05DAA3308F0A95DA19336F7B111C9
:103C6000B1931082CA010C94351EDC01FC01672F50
:103C700071917723E1F7329704C07C916D93708343
:103C80006291AE17BF07C8F30895F999FECF92BDB0
:103C900081BDF89A992780B50895262FF999FECF0E
:103CA0001FBA92BD81BD20BD0FB6F894FA9AF99A59
:103CB0000FBE019608955058BB27AA270E94731E75
:103CC0000C94C41F0E94B61F38F00E94BD1F20F044
:103CD00039F49F3F19F426F40C94B31F0EF4E095C9
:103CE000E7FB0C94AD1FE92F0E94D51F58F3BA17BC
:103CF000620773078407950720F079F4A6F50C9402
:103D0000F71F0EF4E0950B2EBA2FA02D0B01B90171
:103D100090010C01CA01A0011124FF27591B99F041
:103D2000593F50F4503E68F11A16F040A22F232F4D
:103D3000342F4427585FF3CF469537952795A7959D
:103D4000F0405395C9F77EF41F16BA0B620B730B44
:103D5000840BBAF09150A1F0FF0FBB1F661F771FB5
:103D6000881FC2F70EC0BA0F621F731F841F48F46A
:103D7000879577956795B795F7959E3F08F0B0CFF3
:103D80009395880F08F09927EE0F979587950895DA
:103D90000E94DC1E0C94C41F0E94BD1F58F00E949C
:103DA000B61F40F029F45F3F29F00C94AD1F51116C
:103DB0000C94F81F0C94B31F0E94D51F68F399232D
:103DC000B1F3552391F3951B550BBB27AA27621717
:103DD0007307840738F09F5F5F4F220F331F441F24
:103DE000AA1FA9F335D00E2E3AF0E0E832D0915058
:103DF0005040E695001CCAF72BD0FE2F29D0660F45
:103E0000771F881FBB1F261737074807AB07B0E887
:103E100009F0BB0B802DBF01FF2793585F4F3AF08D
:103E20009E3F510578F00C94AD1F0C94F81F5F3F36
:103E3000E4F3983ED4F3869577956795B795F79513
:103E40009F5FC9F7880F911D9695879597F90895FB
:103E5000E1E0660F771F881FBB1F62177307840797
:103E6000BA0720F0621B730B840BBA0BEE1F88F7A6
:103E7000E09508950E94411F6894B1110C94F81FB9
:103E800008950E94DD1F88F09F5798F0B92F992759
:103E9000B751B0F0E1F0660F771F881F991F1AF035
:103EA000BA95C9F714C0B13091F00E94F71FB1E084
:103EB00008950C94F71F672F782F8827B85F39F083
:103EC000B93FCCF3869577956795B395D9F73EF4CE
:103ED00090958095709561957F4F8F4F9F4F089576
:103EE000E89409C097FB3EF4909580957095619594
:103EF0007F4F8F4F9F4F9923A9F0F92F96E9BB274A
:103F00009395F695879577956795B795F111F8CFC5
:103F1000FAF4BB0F11F460FF1BC06F5F7F4F8F4F30
:103F20009F4F16C0882311F096E911C0772321F026
:103F30009EE8872F762F05C0662371F096E8862FBE
:103F400070E060E02AF09A95660F771F881FDAF715
:103F5000880F9695879597F9089597F99F6780E858
:103F600070E060E008959FEF80EC089500240A94CB
:103F70001616170618060906089500240A94121644
:103F80001306140605060895092E0394000C11F477
:103F9000882352F0BB0F40F4BF2B11F460FF04C024
:103FA0006F5F7F4F8F4F9F4F089557FD9058440F7D
:103FB000551F59F05F3F71F04795880F97FB991F88
:103FC00061F09F3F79F08795089512161306140645
:103FD000551FF2CF4695F1DF08C0161617061806D2
:103FE000991FF1CF86957105610508940895E894AD
:103FF000BB2766277727CB0197F908950E941120E8
:104000000C94C41F0E94B61F38F00E94BD1F20F000
:10401000952311F00C94AD1F0C94B31F11240C9434
:10402000F81F0E94D51F70F3959FC1F3950F50E0C4
:10403000551F629FF001729FBB27F00DB11D639F5A
:10404000AA27F00DB11DAA1F649F6627B00DA11D00
:10405000661F829F2227B00DA11D621F739FB00DA6
:10406000A11D621F839FA00D611D221F749F332716
:10407000A00D611D231F849F600D211D822F762FAF
:104080006A2F11249F5750409AF0F1F088234AF08C
:10409000EE0FFF1FBB1F661F771F881F91505040F8
:1040A000A9F79E3F510580F00C94AD1F0C94F81FAA
:1040B0005F3FE4F3983ED4F3869577956795B7957F
:1040C000F795E7959F5FC1F7FE2B880F911D969599
:1040D000879597F90895FA01EE0FFF1F3096210595
:1040E0003105A1F16115710561F48038BFE39B07CB
:1040F00049F168949038810561F08038BFEF9B07E3
:1041000041F099234AF5FF3FE1053105210519F1F9
:10411000E8940894E795D901AA2329F4AB2FBE2F80
:10412000F85FD0F310C0FF5F70F4A695E0F7F739A1
:1041300050F019F0FF3A38F49F779F930DD00F900D
:1041400007FC9058089546F00C94B31F60E070E0AF
:1041500080E89FE308954FE79F775F934F933F93E6
:104160002F930E9466212F913F914F915F910E9462
:10417000FE1F0C94C32029F416F00C94AD1F0C9470
:10418000F71F0C94B31F0E94DD1FA8F39638A0F709
:1041900007F80F92E8942BE33AEA48EB5FE70E94B6
:1041A00014200F920F920F924DB75EB70F920E949C
:1041B000AE21EEE8F0E00E94F5204F915F91EF9183
:1041C000FF91E595EE1FFF1F49F0FE57E068442779
:1041D000EE0F441FFA95E1F74195550B0E942821F7
:1041E0000F9007FE0C941C210895DF93CF931F932B
:1041F0000F93FF92EF92DF927B018C01689406C0CF
:10420000DA2EEF010E941120FE01E894A59125917C
:10421000359145915591A6F3EF010E94731EFE0161
:104220009701A801DA9469F7DF90EF90FF900F9162
:104230001F91CF91DF9108959B01AC0160E070E088
:1042400080E89FE30C94C81E0C94AD1F0C94E221EF
:104250000E94DD1FD8F39923C9F3940F511DA3F3D6
:104260009150504094F059F0882332F0660F771F38
:10427000881F91505040C1F79E3F51052CF7880F81
:10428000911D9695879597F908955F3FACF0983EFC
:104290009CF0BB27869577956795B79508F4B16034
:1042A0009395C1F7BB0F58F711F460FFE8CF6F5F2C
:1042B0007F4F8F4F9F4FE3CF0C94F81F16F00C9455
:1042C000E2210C94B31F68940C94AD1F0E94DD1F73
:1042D000A8F39923C1F3AEF3DF93CF931F930F930A
:1042E000FF92C92FDD2788232AF02197660F771FB9
:1042F000881FDAF720E030E040E85FEB9FE3883981
:1043000020F0803E38F021968F770E945C1EE6EB0D
:10431000F0E004C00E945C1EE3EEF0E00E94F52095
:104320008B01BE01EC01FB2E6F5771097595771F4C
:10433000880B990B0E94721F28E132E741E35FE38B
:104340000E941120AF2D9801AE01FF900F911F9197
:10435000CF91DF910E94731E0C94C41FFA01DC01FF
:10436000AA0FBB1F9B01AC01BF5728F4222733279C
:104370004427507820C0B75190F4AB2F00244695C5
:1043800037952795011CA395D2F3002071F0220FD9
:10439000331F441FB395DAF30ED00C945B1E6130CB
:1043A0007105A0E88A07B94630F49B01AC01662785
:1043B000772788279078309621F0208331834283B5
:1043C000538308959F3F31F0915020F4879577955E
:1043D0006795B795880F911D9695879597F90895DC
:1043E000DB018F939F930E944722BF91AF91A29FC1
:1043F000800D911DA39F900DB29F900D11240895E3
:10440000A1E21A2EAA1BBB1BFD010DC0AA1FBB1FD8
:10441000EE1FFF1FA217B307E407F50720F0A21B4A
:10442000B30BE40BF50B661F771F881F991F1A94B7
:1044300069F760957095809590959B01AC01BD01E1
:10444000CF010895052E97FB1EF400940E94392297
:1044500057FD07D00E94002207FC03D04EF40C94B5
:10446000392250954095309521953F4F4F4F5F4FE2
:10447000089590958095709561957F4F8F4F9F4FD0
:104480000895EE0FFF1F0590F491E02D09940E940E
:104490005A22A59F900DB49F900DA49F800D911D51
:1044A00011240895B7FF0C9447220E944722821BD3
:1044B000930B0895A29FB001B39FC001A39F700DFD
:1044C000811D1124911DB29F700D811D1124911D1C
:1044D000089581E090E0F8940C946E22F894FFCF58
:1044E000FFFFFFFFFFFF0D000900050000000101B5
:1044F0000000803FFF00000000BF02C30D56020C09
:104500000387026502790200000000C5039803F5E5
:0E451000036C0390037C036D030D0A002C0066
:00000001FF
