:100000000C94F9010C9421020C9421020C9421020D
:100010000C9421020C9421020C9421020C949A025B
:100020000C9421020C9421020C9421020C942707B9
:100030000C9421020C9421020C9421020C942102B4
:100040000C9425020C9421020C946B050C9445052C
:100050000C9421020C9421020C9421020C94210294
:100060000C949D050C942102050C0C0C130C1A0C1D
:10007000210C280C2F0C360C3D0C440C4B0C520C54
:10008000590C600C670C6E0C790C800C870C8E0C74
:10009000950C9C0CA30CAA0CB10CB80CBF0CC60C94
:1000A000CD0C07634236B79BD8A71A39685618AEED
:1000B000BAAB558C1D3CB7CC5763BD6DEDFD753E9D
:1000C000F6177231BF000000803F08000000BE92AA
:1000D0002449123EABAAAA2ABECDCCCC4C3E00008D
:1000E0000080BEABAAAAAA3E00000000BF0000002C
:1000F000803F0000000000084178D3BB4387D11344
:100100003D190E3CC3BD4282AD2B3E68EC8276BEEB
:10011000D98FE1A93E4C80EFFFBE01C4FF7F3F00B5
:100120000000000053746172742070726F67726116
:100130006D0A00456E74657220436F6D6D616E646B
:1001400020616E64207465726D696E6174652069EA
:10015000742062792061203B203E3E0A006220200C
:100160003D207072696E7420616C746920636F6EDB
:10017000666967200A006320203D20746F67676C02
:100180006520636F6E74696E75697479206F6E2F68
:100190006F6666200A006520203D206572617365E8
:1001A00020616C6C20666C6967687420646174619E
:1001B000200A006C20203D207072696E7420666CED
:1001C00069676874206C697374200A00722028665D
:1001D0006F6C6C6F77656420627920746865206647
:1001E0006C69676874206E756D62657229203D20A8
:1001F0007265616420666C6967687420646174610B
:100200000A0077203D207265636F726420666C6916
:10021000676874200A00436F6D6D616E64732061BE
:1002200072653A200A00526F636B657420666C69D0
:100230006768742064617461206C6F676765722EF3
:100240002041206D6178696D756D206F66203235B3
:1002500020666C696768742063616E206265206C3B
:100260006F67676564200A00454550524F4D206C0A
:10027000656E6774683A2000456E6420616464723C
:100280006573733A20003B002C002C002C002C00DE
:100290002C002C002C002C002C002C002C002C00FE
:1002A0002C002474656C656D657472792C003B0AB2
:1002B000002C002C002C002C002C002C002C002CDE
:1002C000002C002C002C002C002C002C002C002CCE
:1002D000002C002C002C002C002C002C002C002CBE
:1002E00000416C7469536572766F002C002C002CF1
:1002F000002C002C002C002C002C0024616C746954
:10030000636F6E66696700696E76616C696420630D
:100310006F6E660024554E4B4E4F574E3B00244B9C
:10032000303B0A00244F4B3B0A0054656C656D65F9
:100330007472792064697361626C65640A00546543
:100340006C656D6574727920656E61626C65640AB6
:1003500000636F6E66696720726573657465640A11
:1003600000244F4B3B0A00244F4B3B0A00244F4BC9
:100370003B0A0024656E643B0A0024737461727446
:100380003B0A004E6F7420696D706C656D656E740C
:100390006564200A0000000000240027002A0000F5
:1003A00000000023002600290000000008000201D0
:1003B0000000030407000000000000000001020428
:1003C00008102040800102040810200102040810D7
:1003D0002000000000250028002B00040404040471
:1003E00004040402020202020203030303030302E1
:1003F000602011241FBECFEFD8E0DEBFCDBF11E0DB
:10040000A0E0B1E0E6E5FBE402C005900D92A23465
:10041000B107D9F723E0A2E4B1E001C01D92AD3AE3
:10042000B207E1F711E0C9EFD1E004C02197FE0166
:100430000E949E25C83FD107C9F70E941E170C9441
:10044000A9250C9400000E94A4251F920F920FB6BC
:100450000F9211242F933F938F939F93AF93BF934A
:1004600080913E0290913F02A0914002B0914102E2
:100470003091CF0123E0230F2D3720F40196A11DE9
:10048000B11D05C026E8230F0296A11DB11D2093C2
:10049000CF0180933E0290933F02A0934002B0931D
:1004A00041028091420290914302A0914402B09196
:1004B00045020196A11DB11D809342029093430213
:1004C000A0934402B0934502BF91AF919F918F9149
:1004D0003F912F910F900FBE0F901F901895909104
:1004E0001001891324C0EFEEF3E0E4919FEF9093A5
:1004F0001001E130B9F098F0E230C9F49091700049
:100500009D7F9093700091E09093B0009091B10026
:10051000987F94609093B1001092B30008C010923D
:100520006E0005C090916F009D7F90936F0060E01A
:100530000C94D5131F920F920FB60F9211242F9384
:100540003F934F935F936F937F938F939F93AF935B
:10055000BF93EF93FF9380914D0290914E02A09133
:100560004F02B0915002892B8A2B8B2B51F1909125
:100570004A02E0914B02F0914C02808189278083EE
:1005800080914D0290914E02A0914F02B091500285
:10059000181619061A061B06C4F480914D02909194
:1005A0004E02A0914F02B09150020197A109B109EA
:1005B00080934D0290934E02A0934F02B09350024D
:1005C00004C0809110010E946F02FF91EF91BF91D2
:1005D000AF919F918F917F916F915F914F913F91DB
:1005E0002F910F900FBE0F901F901895CF92DF9212
:1005F000EF92FF920F931F93CF93DF936C017A01D9
:100600008B01C0E0D0E0CE15DF0581F0D8016D91FF
:100610008D01D601ED91FC910190F081E02DC60194
:100620000995892B11F02196EECF7E01C701DF914C
:10063000CF911F910F91FF90EF90DF90CF90089591
:10064000FC01538D448D252F30E0842F90E0821BD8
:10065000930B541710F0CF96089501970895FC015D
:10066000918D828D981761F0828DDF01A80FB11DE9
:100670005D968C91928D9F5F9F73928F90E008950D
:100680008FEF9FEF0895FC01918D828D981731F0C7
:10069000828DE80FF11D858D90E008958FEF9FEF1B
:1006A0000895FC01918D228D892F90E0805C9F4FF1
:1006B000821B91098F739927089581EC92E00E9423
:1006C000510321E0892B09F420E0822F0895FC01D9
:1006D000848DDF01A80FB11DA35ABF4F2C91848DCB
:1006E00090E001968F739927848FA689B7892C9300
:1006F000A089B1898C91837080648C93938D848D53
:10070000981306C00288F389E02D80818F7D808355
:100710000895EF92FF920F931F93CF93DF93EC0115
:1007200081E0888F9B8D8C8D981305C0E889F989AD
:10073000808185FD26C0F62E0B8D10E00F5F1F4FC8
:100740000F731127E02E8C8DE8120CC00FB607FC3A
:10075000FACFE889F989808185FFF5CFCE010E9423
:100760006703F1CF8B8DFE01E80FF11DE35AFF4FB8
:10077000F0829FB7F8940B8FEA89FB8980818062B1
:100780000AC09FB7F894EE89FF896083E889F989E8
:1007900080818370806480839FBF81E090E0DF91DF
:1007A000CF911F910F91FF90EF900895CF93DF931A
:1007B000EC01888D8823C9F0EA89FB89808185FD59
:1007C00005C0A889B9898C9186FD0FC00FB607FCBA
:1007D000F5CF808185FFF2CFA889B9898C9185FFFB
:1007E000EDCFCE010E946703E7CFDF91CF9108954F
:1007F00080E090E0892B29F00E945D0381110C9428
:100800000000089585ED8093BC008091BC0084FDBC
:10081000FCCF10929D02089540911602262F30E0E1
:10082000240F311D21323105DCF420919D0224304A
:10083000C9F4FC0180E090E0861758F4309116026C
:100840002191DC01AA50BE4FA30FB11D2C9301963C
:10085000F3CF80911602680F6093160280E008952E
:1008600081E0089582E00895089508950895E09143
:10087000560280915502E81730F4F0E0E95AFD4F36
:10088000808190E008958FEF9FEF08959091560238
:1008900080915502981750F4E92FF0E0E95AFD4F86
:1008A000208130E09F5F9093560202C02FEF3FEF10
:1008B000C90108958091550290E020915602821B53
:1008C00091090895CF92DF92EF92FF920F931F93B9
:1008D000CF93DF937C01CB018A0120919E022223DA
:1008E00089F0EB016B01C40ED51ECC15DD0569F056
:1008F0006991D701ED91FC910190F081E02DC70144
:100900000995F3CF642F0E940C04C801DF91CF91A9
:100910001F910F91FF90EF90DF90CF900895CF93AC
:10092000DF931F92CDB7DEB7698320919E02222309
:10093000D1F02091C002203240F021E030E0FC01F3
:100940003383228380E090E015C080919F02E82FDE
:10095000F0E0E056FD4F998190838F5F80939F0276
:100960008093C00205C061E0CE0101960E940C0494
:1009700081E090E00F90DF91CF910895089580E09D
:1009800090E00895CF92DF92EF92FF92CF93DF93A2
:10099000EC01603282E078070CF03DC077FD06C0C4
:1009A000653B71052CF064EB70E002C060E070E024
:1009B000898128E830E06901C81AD10887FDD394FD
:1009C000CC0CDD1CCC0CDD1C0D2C000CEE08FF0843
:1009D0008A8128E532E0281B310987FD3395220FF3
:1009E000331F220F331FC901330FAA0BBB0B9C010E
:1009F000AD012C193D094E095F09DB010E94B421AC
:100A000024EB30E040E050E00E948A21C20ED31E69
:100A1000E41EF51EB60138813C3080F5298188E856
:100A200090E0821B910927FD9395880F991F880FED
:100A3000991F6817790784F08A8148E552E0481BBE
:100A4000510987FD5395440F551F440F551FCB0186
:100A5000461757070CF4CA010297880F991F4FB722
:100A6000F894232F30E0F901EE0FFF1F2E0F3F1FE8
:100A7000F901EE52FE4F928381834FBFDF91CF91F8
:100A8000FF90EF90DF90CF9008951F920F920FB6D6
:100A90000F9211242F933F934F935F936F937F9304
:100AA0008F939F93AF93BF93EF93FF9381EC92E06B
:100AB0000E946703FF91EF91BF91AF919F918F913A
:100AC0007F916F915F914F913F912F910F900FBE4A
:100AD0000F901F9018951F920F920FB60F9211242E
:100AE0002F938F939F93EF93FF93E091D102F09117
:100AF000D2028081E091D702F091D80282FD12C02B
:100B000090818091DA028F5F8F732091DB028217D0
:100B100051F0E091DA02F0E0EF53FD4F958F8093B2
:100B2000DA0201C08081FF91EF919F918F912F9107
:100B30000F900FBE0F901F9018951F920F920FB637
:100B40000F9211242F933F934F935F936F937F9353
:100B50008F939F93AF93BF93EF93FF938091B900CF
:100B6000887F803609F49CC068F5883209F45BC040
:100B700090F4803109F454C038F4882309F4F6C0A5
:100B8000883009F44DC0F6C0883109F44CC0803279
:100B900009F45DC0EFC0803409F468C048F48033C4
:100BA00009F455C0883309F0E5C080939B02D8C092
:100BB000803509F44FC0883509F45DC0883409F0E8
:100BC000D9C0D6C0883909F4C7C0A8F4883709F459
:100BD00067C038F4883609F463C0803709F460C010
:100BE000C9C0883809F4B8C0803909F45FC08038BA
:100BF00009F0C0C05BC0803B09F486C038F4803A7D
:100C000009F466C0883A09F47FC0B4C0803C09F496
:100C1000A7C0883C09F4A4C0883B09F48AC0AAC0D4
:100C20008091780210C090919A0280919902981751
:100C300070F5E0919A0281E08E0F80939A02F0E0C5
:100C4000E758FD4F80818093BB0085EC86C0809380
:100C50009B028EC0E0919A0281E08E0F80939A02EF
:100C60008091BB00F0E0E758FD4F808390919A029D
:100C7000809199026EC0E0919A0281E08E0F80937C
:100C80009A028091BB00F0E0E758FD4F808380918D
:100C90009C0281116DC081E08093770284EA61C07B
:100CA00083E080939D0210923802CFCF809138026A
:100CB000803208F051C0E091380281E08E0F8093BD
:100CC00038028091BB00F0E0E85EFD4F8083BDCF2D
:100CD00085EC8093BC0010929D0280913802803296
:100CE00030F4E0913802F0E0E85EFD4F1082609150
:100CF000380270E0E0914602F091470288E192E00C
:100D000009951092380236C084E080939D021092BB
:100D1000170210921602E0914802F09149020995DB
:100D200080911602811105C081E080931602109215
:100D3000F601E091170281E08E0F80931702F0E038
:100D4000EA50FE4F80818093BB0090911702809102
:100D50001602981708F479CF85E88093BC000AC082
:100D600085EC8093BC0010929D0204C010929B02FF
:100D70000E940204FF91EF91BF91AF919F918F91DB
:100D80007F916F915F914F913F912F910F900FBE87
:100D90000F901F9018951F93CF93DF93EC01162FA0
:100DA00088818C3008F04EC061E0812F0E9436149B
:100DB0008881E82FF0E09F01220F331FE20FF31F1D
:100DC000EE52FE4F1F739081907C192B1083198275
:100DD0001A826CE00E9492259CE0899FB001112448
:100DE00040E050E09B01240F351FF901EE0FFF1F7B
:100DF0002E0F3F1FF901EE52FE4F908196FD16C057
:100E00004F5F5F4F4C30510569F781110FC0109251
:100E1000800082E08093810010928500109284000F
:100E2000B19A80916F00826080936F00E881F0E05A
:100E3000CF01880F991FE80FF91FEE52FE4F8081F6
:100E4000806480838881DF91CF911F9108951F92E4
:100E50000F920FB60F9211242F933F934F935F93EE
:100E60006F937F938F939F93AF93BF93EF93FF9372
:100E70008091D00187FF05C01092850010928400F8
:100E80001BC02091D001022E000C330B8091D101A8
:100E900090E02817390784F48091D001082E000CC7
:100EA000990BFC01EE0FFF1F8E0F9F1FFC01EE52EE
:100EB000FE4F808186FD15C08091D0018F5F8093A9
:100EC000D0012091D001022E000C330B8091D10172
:100ED00090E028173907C4F48091D0018C3064F178
:100EE00013C08091D001082E000C990BFC01EE0F6D
:100EF000FF1F8E0F9F1FFC01EE52FE4F808160E0AE
:100F00008F730E94D513D8CF809184009091850073
:100F1000049680349C4918F480E49CE905C08091D3
:100F200084009091850004969093890080938800B6
:100F30008FEF8093D0013BC02091840030918500D9
:100F40008091D001082E000C990BFC01EE0FFF1FC1
:100F50008E0F9F1FFC01EE52FE4F81819281820F06
:100F6000931F90938900809388008091D001082E70
:100F7000000C990BFC01EE0FFF1F8E0F9F1FFC0151
:100F8000EE52FE4F808186FF12C08091D001082E64
:100F9000000C990BFC01EE0FFF1F8E0F9F1FFC0131
:100FA000EE52FE4F808161E08F730E94D513FF9156
:100FB000EF91BF91AF919F918F917F916F915F91D1
:100FC0004F913F912F910F900FBE0F901F9018954A
:100FD0000F931F93CF93DF930CE611E0C0E2D0E0B4
:100FE000F80161918F01CE010E947C212196CE35BE
:100FF000D105B1F788E792E00E9474128EE590E087
:101000000E940E1388E692E0DF91CF911F910F911D
:101010000C947412CF93DF93CDB7DEB7EE970FB673
:10102000F894DEBF0FBECDBF10926D0110926C011F
:1010300010926F0110926E01109271011092700166
:1010400081E090E0909373018093720183E090E0DF
:10105000909375018093740110927B0110927A0134
:1010600010927D0110927C0110927F0110927E01FE
:1010700022E330E0309377012093760110927901DA
:101080001092780128EB31E03093810120938001A8
:1010900025E030E030938301209382019093850115
:1010A0008093840110928701109286011092890129
:1010B0001092880140E056E960E070E040938A01B8
:1010C00050938B0160938C0170938D0110928F016E
:1010D00010928E0120E032E0309391012093900134
:1010E0001092930110929201909395018093940134
:1010F00010929701109296018CE390E090939901E1
:101100008093980190939B0180939A0190939D0105
:1011100080939C0190939F0180939E0184E190E0D5
:101120009093A1018093A0019093A3018093A201C9
:101130009093A5018093A4019093A7018093A601A9
:101140008EE3ECE6F1E0DE01119601900D928A95B6
:10115000E1F7FE013196AE01435C5F4F80E090E025
:10116000E417F50731F02191820F911D27FD9A9523
:10117000F7CF9093A9018093A801EE960FB6F8944B
:10118000DEBF0FBECDBFDF91CF910895EF92FF92EA
:101190000F931F93CF93DF93CDB7DEB7EE970FB6C4
:1011A000F894DEBF0FBECDBF0E940A088CE6E82E81
:1011B00081E0F82E00E210E0C8010E947421F701DE
:1011C00081937F010F5F1F4F0E351105A9F74091E5
:1011D000A8015091A9018EE3ECE6F1E0DE01119641
:1011E00001900D928A95E1F7FE013196BE01635C94
:1011F0007F4F20E030E0E617F70731F08191280FAC
:10120000311D87FD3A95F7CF81E04217530709F06A
:1012100080E0EE960FB6F894DEBF0FBECDBFDF9133
:10122000CF911F910F91FF90EF900895CF93DF938F
:10123000CAE0D0E048EE53E060E070E080E496E081
:101240000E94721462E370E080E090E00E94E41675
:101250008DE00E946F02219769F768EE73E080E0ED
:1012600090E0DF91CF910C94E41649E150E060E00A
:1012700070E080916201909163010E9472146CE2AF
:1012800071E080E090E00E94E4168DE00C946F0223
:1012900048EE53E060E070E080916201909163015C
:1012A0000E9472146CED75E080E090E00E94E416FC
:1012B0008DE00C946F028F929F92AF92BF92CF926B
:1012C000DF92FF920F931F93CF93DF9300D000D054
:1012D0001F92CDB7DEB72AE0AE014F5F5F4F6A01C4
:1012E0000E944221F60101900020E9F73197FE2E7D
:1012F000FC1868EB7BE080E090E00E94E416560169
:101300008A2D8C198F15F0F468EE73E080E090E080
:101310000E94E416F50101915F01005309F40AE00F
:1013200010E0812C912C0E943509FFEF8F1A9F0A43
:10133000801691062CF76AEF70E080E090E00E9442
:10134000E416F1CF0F900F900F900F900F90DF9158
:10135000CF911F910F91FF90DF90CF90BF90AF90F2
:101360009F908F900895CF92DF92EF92FF920F930C
:101370001F93CF93DF936B017C0164367105810568
:1013800091053CF124E630E040E050E00E948A21E3
:10139000890164E6629FC001639F900D1124092EAC
:1013A000000CAA0BBB0BA7019601281B390B4A0B9B
:1013B0005B0BCA01B9012AE030E040E050E00E9436
:1013C0008A21E90110161106D4F4EE24E394F12CDD
:1013D00008C02AE030E040E050E00E948A21E901A4
:1013E0000EC00E94480962E370E080E090E00E9435
:1013F000E4163FEFE31AF30A0E151F0594F71C16C7
:101400001D0674F068E873E180E090E0DF91CF9111
:101410001F910F91FF90EF90DF90CF900C94E41606
:1014200001E010E00E94350962E370E080E090E0A6
:101430000E94E4160F5F1F4FC017D1079CF7E2CF41
:101440008930910571F4662329F0609198017091BB
:10145000990104C06091A0017091A10183E793E01C
:1014600031C08A30910571F4662329F060919A01A8
:1014700070919B0104C06091A2017091A30180E76B
:1014800093E020C08530910571F4662329F06091C6
:101490009C0170919D0104C06091A4017091A5010F
:1014A0008DE693E00FC0069779F4662329F06091EA
:1014B0009E0170919F0104C06091A6017091A701E7
:1014C0008AE693E00C94C2040895EF92FF920F9382
:1014D0001F93CF93DF93CDB7DEB7C054D1090FB6BA
:1014E000F894DEBF0FBECDBF8C010E948F128DE33A
:1014F00091E00E948F12F8018081833629F483E8FD
:1015000093E00E945D13F8C2823609F055C18AE764
:1015100093E00E9474120E94C608811104C087E003
:1015200093E00E9474128BEF92E00E94741289EF94
:1015300092E00E94741280916C0190916D010E9462
:101540000E1387EF92E00E94741280916E019091C9
:101550006F010E940E1385EF92E00E947412809139
:101560007001909171010E940E1383EF92E00E942E
:10157000741280917201909173010E940E1381EF99
:1015800092E00E94741280917401909175010E9402
:101590000E138FEE92E00E94741280917801909168
:1015A00079010E940E138DEE92E00E9474128091D8
:1015B0007601909177010E940E138BEE92E00E94CB
:1015C000741281EE92E00E9474128FED92E00E94FC
:1015D000741281E090E00E940E138DED92E00E9463
:1015E000741280E090E00E940E138BED92E00E9456
:1015F000741280917A0190917B010E940E1389ED03
:1016000092E00E94741280917C0190917D010E9471
:101610000E1387ED92E00E94741280917E019091EA
:101620007F010E940E1385ED92E00E94741280915A
:101630008001909181010E940E1383ED92E00E943F
:10164000741280918201909183010E940E1381EDAA
:1016500092E00E94741280918401909185010E9411
:101660000E138FEC92E00E9474128091860190918B
:1016700087010E940E138DEC92E00E9474128091FB
:101680008801909189010E940E138BEC92E00E94D8
:10169000741260918A0170918B0180918C019091FC
:1016A0008D010E94E21289EC92E00E9474128091F6
:1016B0008E0190918F010E940E1387EC92E00E94A0
:1016C000741280919001909191010E940E1385EC0B
:1016D00092E00E94741280919201909193010E9475
:1016E0000E1383EC92E00E94741280919401909109
:1016F00095010E940E1381EC92E00E947412809179
:101700009601909197010E940E138FEB92E00E9438
:10171000741280919801909199010E940E138DEBA3
:1017200092E00E94741280919A0190919B010E9414
:101730000E138BEB92E00E94741280919C019091A9
:101740009D010E940E1389EB92E00E947412809119
:101750009E0190919F010E940E1387EB92E00E94E0
:1017600074128091A0019091A1010E940E1385EB4B
:1017700092E00E9474128091A2019091A3010E94B4
:101780000E1383EB92E00E9474128091A401909159
:10179000A5010E940E1381EB92E00E9474128091C9
:1017A000A6019091A7010E940E138EEA92E00E947A
:1017B000741283E793E08FC1833709F016C1219635
:1017C0001FAF0EAF2197E12CF12CAE01415C5F4FB2
:1017D00060E471E021968EAD9FAD21970E94FE20BE
:1017E0008C01009709F4E3C00E948F128DE391E011
:1017F0000E948F12F7013197ED31F10508F0D3C047
:10180000EC5CFF4FC8010C949E250E94B920909378
:101810006D0180936C01C7C00E94B92090936F0145
:1018200080936E01C0C00E94B92090937101809393
:101830007001B9C00E94B920909373018093720126
:10184000B2C00E94B9209093750180937401ABC01F
:101850000E94B9209093770180937601A4C00E94E2
:10186000B92090937901809378019DC00E94D72080
:1018700070937B0160937A0196C00E94D720709389
:101880007D0160937C018FC00E94D72070937F01FF
:1018900060937E0188C00E94B9209093810180935B
:1018A000800181C00E94B9209093830180938201BE
:1018B0007AC00E94D720709385016093840173C021
:1018C0000E94B92090938701809386016CC00E948A
:1018D000B920909389018093880165C00E94D72028
:1018E00060938A0170938B0180938C0190938D019A
:1018F0005AC00E94B92090938F0180938E0153C0EB
:101900000E94B92090939101809390014CC00E9455
:10191000B920909393018093920145C00E94B92011
:1019200090939501809394013EC00E94D7207093BC
:1019300097016093960137C00E94B9209093990156
:101940008093980130C00E94B92090939B018093AE
:101950009A0129C00E94B92090939D0180939C0117
:1019600022C00E94B92090939F0180939E011BC0CA
:101970000E94B9209093A1018093A00114C00E94FD
:10198000B9209093A3018093A2010DC00E94B920B9
:101990009093A5018093A40106C00E94B920909362
:1019A000A7018093A601FFEFEF1AFF0A0ECF8EE387
:1019B000ECE6F1E0DE01119601900D928A95E1F7D7
:1019C000FE013196AE01435C5F4F80E090E0E4178A
:1019D000F50731F02191820F911D27FD9A95F7CFE0
:1019E0009093A9018093A80104C0843629F40E9431
:1019F0000A080E94E80780C0863631F481E08093AF
:101A0000B1018DE693E067C0873629F41092B101E9
:101A100087E693E060C0883619F481E693E05BC006
:101A2000843739F40E940A080E94E80781E593E0B0
:101A300052C0893609F460C08B3691F5F801818176
:101A400089831A82FF24F3948281863409F4F12C6D
:101A5000CE0101960E94D72097FD4EC0CE0101967F
:101A60000E94B9208230910589F03CF4019709F079
:101A700043C06F2D89E090E010C08330910551F094
:101A80000497D1F56F2D86E090E007C06F2D8AE0B6
:101A900090E003C06F2D85E090E00E94200A2CC0EA
:101AA0008937A9F4F8018181813341F48EE393E011
:101AB0000E94741281E080933D0206C08AE293E0A6
:101AC0000E94741210923D0284E293E004C08032BE
:101AD00029F48EE193E00E9474120EC084E193E039
:101AE0000E947412F801608181EC92E00E948903E7
:101AF0008DE391E00E948F12C05CDF4F0FB6F89427
:101B0000DEBF0FBECDBFDF91CF911F910F91FF9030
:101B1000EF9008954F925F926F927F928F929F9273
:101B2000AF92BF92CF92DF92EF92FF92CF93DF936B
:101B300020913D02222309F465C17A012B013C0169
:101B40000E9475118090390290903A02A0903B0259
:101B5000B0903C02DC01CB0188199909AA09BB09A4
:101B6000A701FF0C660B770B481759076A077B071D
:101B700008F048C10E9475116093390270933A02CF
:101B800080933B0290933C02A090AC01B12CC0909A
:101B9000AB01D12C8091AA01811120C1C0E0D0E01D
:101BA000E12CF12C82EA92E00E9474126091AD0166
:101BB0007091AE018091AF019091B0010E94E2124C
:101BC00080EA92E00E947412C5010E940E138EE911
:101BD00092E00E947412C6010E940E138CE992E0FA
:101BE0000E947412609168017091690180916A018C
:101BF00090916B010E94E2128AE992E00E947412B5
:101C0000CE010E940E1388E992E00E947412609146
:101C100064017091650180916601909167010E9455
:101C2000E21286E992E00E947412C7010E940E132C
:101C300084E992E00E947412C301B2010E94E21290
:101C400082E992E00E94741280910B01882319F0BE
:101C500080E090E002C08FEF9FEF0E940E1380E9BA
:101C600092E00E94741280910A01882319F080E0AA
:101C700090E002C08FEF9FEF0E940E138EE892E07B
:101C80000E94741280910901882319F080E090E08D
:101C900002C08FEF9FEF0E940E138CE892E00E942B
:101CA000741280910801882319F080E090E002C04E
:101CB0008FEF9FEF0E940E138AE892E00E94741249
:101CC0008FEF9FEF0E940E1388E892E00E9474123B
:101CD0008EE20E9444138FE19EE40197F1F700C069
:101CE000000086EF0E941413AC0160E070E0809168
:101CF0008B0390918C039A01AB01281B390B41098E
:101D00005109A0918903B0918A030E94A9210E94E0
:101D1000042320E030E040E058E30E9490230E943A
:101D2000CC226B017C016091830370918403072EA8
:101D3000000C880B990B0E94042320E030E040E067
:101D400055E40E9490234B015C01609185037091E2
:101D50008603CB01770FAA0BBB0BBC01CD016C0D29
:101D60007D1D8E1D9F1D0E9404239B01AC01C5019A
:101D7000B4010E945A220E94CC22DC01CB018C0DBE
:101D80009D1DAE1DBF1DBC01CD01685F7F4F8F4FF4
:101D90009F4F0E94042320E030E040E85DE30E9472
:101DA000902320E030E040E251E40E945A220E9459
:101DB000CC22CB010E940E1386E892E0DF91CF91F6
:101DC000FF90EF90DF90CF90BF90AF909F908F905B
:101DD0007F906F905F904F900C945D1381E0F12C99
:101DE0004091AD015091AE016091AF017091B00191
:101DF0004A305105610571050CF080E0E82EC1E024
:101E0000D0E0D0CEDF91CF91FF90EF90DF90CF90D8
:101E1000BF90AF909F908F907F906F905F904F900A
:101E200008954F925F926F927F928F929F92AF929E
:101E3000BF92CF92DF92EF92FF921F93CF93DF93E7
:101E400000D000D000D0CDB7DEB78EE20E944413A0
:101E50008FE19EE40197F1F700C0000086EF0E9439
:101E600014134C01A12CB12C809176038295880F1C
:101E7000880F807C8C5C0E944413809176038111D2
:101E800005C0AFE1BEE41197F1F715C0813029F428
:101E90008FEF9CE70197F1F70EC0823029F4AFEB8A
:101EA000BAED1197F1F707C0BFEF24E431E0B1506C
:101EB00020403040E1F700C0000086EF0E9414137C
:101EC0006C01E12CF12CFE2CED2CDC2CCC2488EFC9
:101ED0000E946B13C82A10917603412F50E05E8355
:101EE0004D8380918B0390918C03A5019401281B55
:101EF000390B41095109A0918903B0918A030E94CD
:101F0000A9210E94042320E030E040E058E30E9431
:101F100090230E94CC224B015C016091830370915D
:101F20008403072E000C880B990B0E94042320E0E9
:101F300030E040E055E40E9490232B013C01609189
:101F4000850370918603CB01770FAA0BBB0BBC01F5
:101F5000CD01680D791D8A1D9B1D0E9404239B01E4
:101F6000AC01C301B2010E945A220E94CC22860E0B
:101F7000971EA81EB91E50EA851A5FE0950AA108AF
:101F8000B108A5019401C501B4010E9482259B01FD
:101F9000AC01ACE05595479537952795AA95D1F7B3
:101FA00029833A834B835C83E0917703F091780334
:101FB000A0917B03B0917C03A50194010E94B42100
:101FC0002B013C01BDE07594679457944794BA95F2
:101FD000D1F7A0917D03B0917E0329813A814B8195
:101FE0005C810E94B421BB2797FDB095AB2F840D77
:101FF000951DA61DB71D0296A11DB11D32E0B59518
:10200000A795979587953A95D1F79C01AD013058E2
:102010004F4F5F4FA0918703B09188030E94A92181
:102020002B013C014FE076946794579447944A956E
:10203000D1F788E090E04D815E81841B950B04C050
:10204000F694E794D794C7948A95D2F7A0917F032A
:10205000B091800329813A814B815C810E94B42137
:102060009B01AC016BE055954795379527956A958F
:10207000D1F729833A834B835C83A0917903B09194
:102080007A03A50194010E94B421DC01CB017BE01D
:10209000B595A795979587957A95D1F749815A81F6
:1020A0006B817C81480F591F6A1F7B1FCF01FF0F77
:1020B000AA0BBB0BE2E0880F991FAA1FBB1FEA9572
:1020C000D1F7840F951FA61FB71F012E04C0880FDC
:1020D000991FAA1FBB1F0A94D2F7BC01CD016E5FE6
:1020E0007F4F8F4F9F4F24E030E040E050E00E9450
:1020F0008A21D701C601821B930BA40BB50B9C014F
:10210000AD0180E593ECA0E0B0E0BC01CD0104C0DE
:1021100096958795779567951A95D2F70E948225AF
:1021200097FD0BC0660F771F881F991FA3019201AF
:102130000E94BC2149015A010AC0A30192010E94D8
:10214000BC2149015A01880C991CAA1CBB1C992767
:10215000B7FC9A958B2D7A2D692D9B01AC010E94BD
:1021600082259B01AC01AEEDBBE00E94A9216B0171
:102170007C01A3E4B3EEA50194010E94B721BB2723
:1021800097FDB095AB2F6701FF24D7FCF094EF2C9F
:102190008C0D9D1DAE1DBF1D8153914FAF4FBF4F85
:1021A00044E0B595A795979587954A95D1F7BC01D9
:1021B000CD01680D791D8A1D9B1D0E94042320E816
:1021C00036EE45EC57E40E945A2221E03EED42E40F
:1021D0005EE30E94FD2369837A838B839C83409016
:1021E000460150904701609048017090490120914C
:1021F0005A0130915B0140915C0150915D01609109
:1022000042017091430180914401909145010E94E7
:10221000EE216B017C0120915E0130915F014091C4
:102220006001509161010E94EE219B01AC0160E0D0
:1022300070E080E89FE30E945A22A70196010E9465
:1022400090234B015C0129813A814B815C8160E0E4
:1022500070E080E89FE30E94ED2120E03AE24DE249
:1022600057E40E949023A30192010E94ED21A50151
:1022700094010E949023A30192010E94EE212B0160
:102280003C0160934601709347018093480190930D
:102290004901A501940160E070E080E89FE30E949D
:1022A000ED21A70196010E94902360934201709353
:1022B00043018093440190934501C301B2012696E6
:1022C0000FB6F894DEBF0FBECDBFDF91CF911F9147
:1022D000FF90EF90DF90CF90BF90AF909F908F9046
:1022E0007F906F905F904F9008952FB7F894609112
:1022F0003E0270913F0280914002909141022FBFB7
:1023000008953091C002313208F04BC080919D0297
:102310008111FCCF9091970322E020939D0221E050
:1023200020939C022FEF20939B0210929A023093ED
:102330009902E0EAF2E0A9E7B2E020E0321721F0EA
:1023400041914D932F5FFACF10927802209178023D
:10235000990F922B9093780290917702913061F4CB
:1023600010927702909178029093BB009091BC00FC
:1023700093FDF8CF95EC01C095EE9093BC00909141
:102380009D029230E1F390919B029F3F79F0809102
:102390009B02803241F080919B02803331F084E0D7
:1023A00005C081E003C082E001C083E010929F027B
:1023B0001092C00210929E020895833081F028F49A
:1023C000813099F08230A1F008958730A9F08830EB
:1023D000B9F08430D1F4809180008F7D03C080916A
:1023E00080008F7780938000089584B58F7702C036
:1023F00084B58F7D84BD08958091B0008F7703C030
:102400008091B0008F7D8093B00008953FB7F8941D
:102410008091420290914302A0914402B091450202
:1024200026B5A89B05C02F3F19F00196A11DB11D2F
:102430003FBFBA2FA92F982F8827820F911DA11D6A
:10244000B11DBC01CD0142E0660F771F881F991FA7
:102450004A95D1F7089590919D029111FCCF982F44
:10246000813208F090E281E080939D0280939C028B
:102470002FEF20939B0210929A02290F209399022A
:1024800080937802809178028E6E8093780280919A
:102490007702813061F41092770280917802809304
:1024A000BB008091BC0083FDF8CF85EC01C085EEB8
:1024B0008093BC0080919D028130E1F380919A026B
:1024C000891710F490919A02E9E7F2E0A7E5B2E0EB
:1024D00080E0891721F021912D938F5FFACF109220
:1024E00056028093550208950F931F93CF93DF9365
:1024F0008C01C0E0D0E0F801EC0FFD1F6491662371
:1025000041F081EC92E00E948903892B11F0219621
:10251000F2CFCE01DF91CF911F910F9108950097D7
:1025200069F0FC0101900020E9F73197AF01481BE9
:10253000590BBC0181EC92E00C94F60280E090E033
:1025400008958F929F92AF92BF920F931F93CF9354
:10255000DF93CDB7DEB7A1970FB6F894DEBF0FBEFD
:10256000CDBF19A2423008F44AE08E010F5D1F4F23
:10257000842E912CA12CB12CA50194010E94BC2188
:10258000E62FB901CA0101501109EA3014F4E05DE7
:1025900001C0E95CD801EC93232B242B252B61F798
:1025A000C8010E948F12A1960FB6F894DEBF0FBE2D
:1025B000CDBFDF91CF911F910F91BF90AF909F90B2
:1025C0008F900895CF92DF92EF92FF92CF93DF9397
:1025D00097FF1BC06B017C016DE281EC92E00E94D1
:1025E0008903EC0166277727CB016C197D098E09D9
:1025F0009F094AE00E94A1128C0F9D1FDF91CF918D
:10260000FF90EF90DF90CF9008954AE0DF91CF9157
:10261000FF90EF90DF90CF900C94A112BC01990F26
:10262000880B990B0C94E212CF93DF93C1E0C09317
:102630009E0297E79093970310929F021092C00218
:10264000682F8EE593E00E948F040E948111C09351
:102650009E0210929F021092C00282E090E00E94BF
:102660002B128EE593E00E944604D82F80E0C82FFD
:102670008EE593E00E944604C82BD92B0E9481115D
:10268000CE01DF91CF910895CF93C82F81E0809341
:102690009E0287E78093970310929F021092C002D8
:1026A00064EF8EE593E00E948F046C2F8EE593E03B
:1026B0000E948F04CF910C948111CF93DF930E94DD
:1026C0007412EC018DE391E00E948F128C0F9D1F1C
:1026D000DF91CF910895CF93C1E0C0939E0297E719
:1026E0009093970310929F021092C002682F8EE57C
:1026F00093E00E948F040E948111C0939E02109269
:102700009F021092C00281E090E00E942B128EE5A1
:1027100093E00E944604C82F0E9481118C2FCF9114
:1027200008958930910521F481E080935402089541
:102730008A30910521F481E0809353020895853019
:10274000910521F481E0809352020895069719F4CF
:1027500081E0809351020895CF93DF93282F30E0DA
:10276000F901E755FC4F8491F901E354FC4FD491F2
:10277000F901E552FC4FC491CC2391F081110E94E4
:10278000DD11EC2FF0E0EE0FFF1FE156FC4FA5919D
:10279000B491EC91ED2381E090E021F480E002C05F
:1027A00080E090E0DF91CF9108951F93CF93DF9366
:1027B000282F30E0F901E755FC4F8491F901E354EB
:1027C000FC4FD491F901E552FC4FC491CC23C1F0E8
:1027D000162F81110E94DD11EC2FF0E0EE0FFF1F8C
:1027E000EF52FC4FA591B4919FB7F894111104C01A
:1027F0008C91D095D82302C0EC91DE2BDC939FBF47
:10280000DF91CF911F9108951092560210925502B8
:1028100010929F021092C00210929D0281E080935C
:102820009C021092770261E082E10E94D51361E080
:1028300083E10E94D513E9EBF0E080818E7F8083F5
:1028400080818D7F808388E48093B80085E48093C5
:10285000BC0084E394E0909349028093480285E3AE
:1028600094E090934702809346020895CF93DF93BC
:1028700090E0FC01E354FC4F2491FC01E552FC4F35
:102880008491882361F190E0880F991FFC01EB5639
:10289000FC4FC591D491FC01EF52FC4FA591B4912E
:1028A000611109C09FB7F89488812095822388839D
:1028B000EC912E230BC0623061F49FB7F8948881AD
:1028C000322F309583238883EC912E2B2C939FBF3E
:1028D00006C08FB7F894E8812E2B28838FBFDF9135
:1028E000CF9108954F925F926F927F928F929F92B5
:1028F000AF92BF92CF92DF92EF92FF920F931F930E
:10290000CF93DF9300D000D01F92CDB7DEB78C01FC
:102910002A013B01809110018D3021F08F3F09F099
:102920003DC205C0EFEEF3E024912D8372C08DE02F
:1029300080931001EFEEF3E084918D838F3F09F4D3
:102940002DC2813009F441C038F1823009F061C0F4
:102950001092B0001092B1008091B000826080931C
:10296000B0008091B10081608093B100E8EEF3E0A7
:10297000E491F0E0EE0FFF1FEF52FC4F8591949130
:1029800090934C0280934B02EAECF3E0E491E093E5
:102990004A0222E02D83FDC114BC15BC84B58260BF
:1029A00084BD85B5816085BDE8EEF3E0E491F0E09B
:1029B000EE0FFF1FEF52FC4F85919491EAECF3E08C
:1029C000E491E0938E031D82E4C110928000109286
:1029D00081008091810088608093810080918100D6
:1029E000816080938100E8EEF3E0E491F0E0EE0F87
:1029F000FF1FEF52FC4F85919491EAECF3E0E491D4
:102A0000E0938D0361E08DE00E94361491E09D8398
:102A10008AC08D8187FDC2C161E08DE00E943614BD
:102A20008D818D7F09F07FC04801A12CB12C60E021
:102A300072E18AE790E0A50194010E948A2129832E
:102A40003A834B835C8369017A0191E0C91AD1080A
:102A5000E108F1082FEFC216D104E104F10409F0F6
:102A600008F44EC060E472E48FE090E0A5019401A8
:102A70000E948A2169017A0181E0C81AD108E1081F
:102A8000F1089D81923009F52FEFC216D104E104BF
:102A9000F10409F008F444C160E970ED83E090E0CE
:102AA000A50194010E948A2169017A0181E0C81A76
:102AB000D108E108F1089FEFC916D104E104F1043F
:102AC00011F008F0BAC083E027C02FEFC216D1047E
:102AD000E104F104B9F0B0F068E478EE81E090E050
:102AE000A50194010E948A2169017A0181E0C81A36
:102AF000D108E108F1089D81992309F413C1DCC0D4
:102B000081E001C082E09D81911106C095B5987F5A
:102B1000892B85BD44C085E09091B100987F892BB9
:102B20008093B1003CC04801A12CB12C60E072E15F
:102B30008AE790E0A50194010E948A2169017A0147
:102B400081E0C81AD108E108F108C114D10491E06C
:102B5000E906F10488F068E478EE81E090E0A501F0
:102B600094010E948A2169017A0181E0C81AD10882
:102B7000E108F10883E001C081E09D81913079F4A2
:102B800090918100987F892B80938100411451049A
:102B90006104710449F42FEF3FEFA9012CC04114E7
:102BA00051046104710471F0D801AA0FBB1FA30185
:102BB00092010E94A92128EE33E040E050E00E94FB
:102BC000BC2103C02FEF3FEFA9018D81813099F027
:102BD000823019F18111E2C0C7BC20939303309376
:102BE0009403409395035093960380916E00826006
:102BF00080936E00D3C0D0928900C0928800209349
:102C00008F033093900340939103509392038091EC
:102C10006F00826080936F00C1C0C092B3002093A8
:102C20004D0230934E0240934F02509350028091D8
:102C30007000826080937000B1C068E478EE81E03B
:102C400090E0A50194010E948A2169017A0191E036
:102C5000C91AD108E108F1082FEFC216D104E10426
:102C6000F10441F138F164E274EF80E090E0A501F5
:102C700094010E948A2169017A0181E0C81AD10871
:102C8000E108F1089FEFC916D104E104F10409F04D
:102C900008F441CF62E17AE780E090E0A501940179
:102CA0000E948A2169017A0181E0C81AD108E108ED
:102CB000F10819C084E030CF2FEFC216D104E1042F
:102CC000F10409F008F463C062E17AE780E090E083
:102CD000A50194010E948A2169017A0191E0C91A33
:102CE000D108E108F1088FEFC816D104E104F1041E
:102CF000A9F0A0F089819A81AB81BC812AE0B595C9
:102D0000A795979587952A95D1F76C017D0121E0CC
:102D1000C21AD108E108F10887E0FECE86E0FCCEB9
:102D200082E0FACE8FEFC816D104E104F10469F114
:102D300060F162E17AE780E090E0A50194010E94F1
:102D40008A2169017A0191E0C91AD108E108F108E4
:102D50002FEFC216D104E104F104A9F0A0F089819B
:102D60009A81AB81BC813AE0B595A79597958795F7
:102D70003A95D1F76C017D0121E0C21AD108E10832
:102D8000F10885E0C3CE84E0C1CE83E0BFCE84E00D
:102D9000BACE61E08DE00E94361446CE0F900F90BF
:102DA0000F900F900F90DF91CF911F910F91FF9097
:102DB000EF90DF90CF90BF90AF909F908F907F90DB
:102DC0006F905F904F9008958F929F92AF92BF92B5
:102DD000CF92DF92EF92FF926B017C010E9406126C
:102DE0004B015C01C114D104E104F104F1F00E9433
:102DF0000612DC01CB0188199909AA09BB09883E92
:102E00009340A105B10570F321E0C21AD108E10891
:102E1000F10888EE880E83E0981EA11CB11CC11435
:102E2000D104E104F10419F7DDCFFF90EF90DF90BA
:102E3000CF90BF90AF909F908F900895CF93DF93E6
:102E4000CDB7DEB7C15DD1090FB6F894DEBF0FBEB6
:102E5000CDBF789484B5826084BD84B5816084BD23
:102E600085B5826085BD85B5816085BD80916E0028
:102E7000816080936E001092810080918100826059
:102E80008093810080918100816080938100809196
:102E900080008160809380008091B1008460809385
:102EA000B1008091B00081608093B00080917A0081
:102EB000846080937A0080917A00826080937A00A7
:102EC00080917A00816080937A0080917A00806896
:102ED00080937A001092C1000E94C6088093B201CC
:102EE000811104C00E940A080E94E80780918A01AB
:102EF00090918B01A0918C01B0918D018C3221E0D9
:102F00009207A105B10509F443C0803B34E0930763
:102F1000A105B105E9F1803649E09407A105B105A5
:102F2000B9F1803C52E19507A105B10589F18038DE
:102F300025E29207A105B10559F1803438E39307E2
:102F4000A105B10529F181154BE49407A105B1054F
:102F5000F9F0803850E79507A105B105C9F0811552
:102F600026E99207A105B10599F0811531EE930785
:102F7000A105B10569F0811542EC940741E0A40771
:102F8000B10531F081159448A340B10509F0CDC7D2
:102F900080916C0190916D01892B29F480E090E083
:102FA000A0E8BFE304C088E499EFA1E5B0E4809312
:102FB0000C0190930D01A0930E01B0930F0160914D
:102FC000760170917701072E000C880B990B0E94F7
:102FD000042320910C0130910D0140910E0150917C
:102FE0000F010E945A220E94CC22CB01770FAA0B1C
:102FF000BB0B8093B5019093B601A093B701B0933A
:10300000B801809180019091810190936301809338
:10301000620182ED90E0A0E8B0E480935E019093BD
:103020005F01A0936001B09361018CE69FECACE47A
:10303000BEE380935A0190935B01A0935C01B0932F
:103040005D011092460110924701109248011092C2
:1030500049011092420110924301109244011092D2
:1030600045010E940414C0908A01D0908B01E09029
:103070008C01F0908D0160E079E08DE390E0A70194
:1030800096010E94BC21DA01C9010197A109B10989
:10309000B695A795979587959C01E091D102F091FF
:1030A000D20282E08083C11481EED806E104F104EB
:1030B00021F0211590E13907B8F0E091D102F091AB
:1030C000D202108260E874E88EE190E0A7019601D8
:1030D0000E94BC21DA01C9010197A109B109B69585
:1030E000A795979587959C01E091CD02F091CE022E
:1030F0003083E091CF02F091D00220831092D90268
:10310000E091D502F091D60286E08083E091D3026F
:10311000F091D402808180618083E091D302F091AC
:10312000D402808188608083E091D302F091D40240
:10313000808180688083E091D302F091D402808105
:103140008F7D808362E080E00E94361480918E0142
:10315000843008F083E0809376030E94041480EDAD
:103160000E946B13853509F04DC08AEA0E94141342
:1031700090937803809377038CEA0E9414139093C2
:103180007A03809379038EEA0E94141390937C0350
:1031900080937B0380EB0E941413909388038093A9
:1031A000870382EB0E94141390938A038093890310
:1031B00084EB0E94141390938C0380938B0386EB13
:1031C0000E94141390937E0380937D0388EB0E94EA
:1031D00014139093800380937F038AEB0E9414134F
:1031E00090938203809381038CEB0E94141390933D
:1031F0008403809383038EEB0E94141390938603C1
:10320000809385031092AB011092AA0184E291E0B1
:103210000E9474128FEF9FEF909301018093000141
:10322000909303018093020180917001909171014C
:1032300081309105A1F08230910501F1892B11F5C2
:1032400080917A0190917B019093B4018093B301B6
:1032500089E090E0909301018093000115C0809176
:103260007A0190917B019093BA018093B90189E032
:1032700090E0909303018093020106C081E0809367
:10328000C20102C010920B018091720190917301F2
:1032900081309105A1F08230910501F1892B11F562
:1032A0008AE090E0909301018093000180917C017D
:1032B00090917D019093B4018093B30115C08AE091
:1032C00090E0909303018093020180917C019091A2
:1032D0007D019093BA018093B90106C081E080938B
:1032E000C10102C010920A01809174019091750190
:1032F00081309105A1F08230910501F1892B11F502
:1033000080917E0190917F019093B4018093B301ED
:1033100085E090E0909301018093000115C08091B9
:103320007E0190917F019093BA018093B90185E06D
:1033300090E0909303018093020106C081E08093A6
:10334000C00102C0109209018091940190919501F1
:1033500081309105A1F08230910501F1892B11F5A1
:1033600080919601909197019093B4018093B3015D
:1033700086E090E0909301018093000115C0809158
:103380009601909197019093BA018093B90186E0DC
:1033900090E0909303018093020106C081E0809346
:1033A000BF0102C01092080169E070E083E793E07A
:1033B0000E94CB066AE070E080E793E00E94CB06B3
:1033C00065E070E08DE693E00E94CB0666E070E079
:1033D0008AE693E00E94CB0660E089E090E00E94DC
:1033E000200A60E08AE090E00E94200A60E085E028
:1033F00090E00E94200A60E086E090E00E94200AAF
:1034000061E08DE00E94361460E088E00E9436148E
:1034100060E087E00E94361460E08DE00E94D513E2
:103420000E9448098091820190918301092E000C2D
:10343000AA0BBB0B8093040190930501A093060196
:10344000B09307018091B201811135C084E690E00C
:10345000A0E0B0E08093B5019093B601A093B701CE
:10346000B093B80188E00E94AC138C0187E00E9401
:10347000AC130115110539F4892BE9F482E390E0CE
:10348000A0E0B0E010C001301105A9F4009729F4C4
:1034900086E990E0A0E0B0E006C0019761F488EC16
:1034A00090E0A0E0B0E08093B5019093B601A093C6
:1034B000B701B093B80102E310E00E94110F015070
:1034C0001109D9F70AE010E0C12CD12C76010E9435
:1034D000110F4B015C01C701B6010E940423A50135
:1034E00094010E94EE210E94CC226B017C0162E3D8
:1034F00070E080E090E00E94E4160150110939F775
:10350000C701B6010E94042320E030E040E251E40C
:103510000E945A220E94CC226093CB017093CC016E
:103520008093CD019093CE011092BB011092BC010B
:103530001092BD011092BE0184E190E0A0E0B0E0E5
:103540008093C3019093C401A093C501B093C601B9
:1035500001E086E292E00E945D1386E192E00E9423
:103560005D1382E092E00E945D138CEC91E00E947A
:103570005D1383EB91E00E945D1386E991E00E9468
:103580005D1386E791E00E945D138DE591E00E9456
:103590005D1383E391E00E945D13212C312C10E236
:1035A0001B3309F4BBC48091B1018111A5C40E94F1
:1035B000110F6B017C016091CB017091CC01809166
:1035C000CD019091CE010E9404239B01AC01C70163
:1035D000B6010E94ED210E94CC226093AD01709350
:1035E000AE018093AF019093B0018091AC0188232C
:1035F00091F00E947511C090C701D090C801E09071
:10360000C901F090CA016C197D098E099F0948EC27
:1036100050E00E948A0D4091AD015091AE01609141
:10362000AF017091B0018091C3019091C401A0914C
:10363000C501B091C60184179507A607B70744F0E6
:1036400044EF51E060E070E0CB010E948A0D74C34A
:1036500080910B01811103C021E0209354028091DD
:103660000A01811103C031E03093530280910901B6
:10367000811103C041E04093520280910801811101
:1036800003C051E050935102C353DF4F1882CD5C09
:10369000D040C553DF4F1882CB5CD040C753DF4FBB
:1036A0001882C95CD040C453DF4F1882CC5CD04034
:1036B000C653DF4F1882CA5CD040C153DF4F188217
:1036C000CF5CD040C12CD12C7601412C512C320141
:1036D000C253DF4F1882CE5CD040C053DF4F1882F8
:1036E000C05DD0400E94110F4B015C016091CB0185
:1036F0007091CC018091CD019091CE010E94042364
:103700009B01AC01C501B4010E94ED210E94CC22B5
:103710006093AD017093AE018093AF019093B001BF
:103720008091AC01882391F00E9475118090C701AF
:103730009090C801A090C901B090CA016819790998
:103740008A099B0948EC50E00E948A0D4091AD0126
:103750005091AE016091AF017091B0018091C301B1
:103760009091C401A091C501B091C601841795073D
:10377000A607B7074CF48091AC01811105C0809178
:10378000AA01882309F4E0C38091AC01882309F4DD
:10379000A9CFCF52DF4F1882C15DD0408091AC01DC
:1037A000811108C0CF52DF4F9881C15DD040911187
:1037B000C3C298CF0E94110F4B015C016091CB01F5
:1037C0007091CC018091CD019091CE010E94042393
:1037D0009B01AC01C501B4010E94ED210E94CC22E5
:1037E0006093AD017093AE018093AF019093B001EF
:1037F0000E9475118090C7019090C801A090C901E6
:10380000B090CA019B01AC01281939094A095B092A
:1038100049015A0148EC50E0C501B4010E948A0DEB
:103820008091C201882301F1C653DF4F3881CA5C01
:10383000D0403111AAC380917A0190917B01092E69
:10384000000CAA0BBB0B88169906AA06BB0660F0F3
:1038500061E089E090E00E94200A97C351E0C653DE
:10386000DF4F5883CA5CD0408091C101882309F49E
:1038700040C0C453DF4F8881CC5CD040811112C05E
:1038800080917C0190917D01092E000CAA0BBB0B4D
:1038900088169906AA06BB0660F161E08AE090E00E
:1038A0000E94200A80917C0190917D01092E000CDC
:1038B000AA0BBB0BA5019401281B390B4A0B5B0B10
:1038C000DA01C901883E9340A105B10508F48BC314
:1038D00080915302811180C360E08AE090E00E94F1
:1038E000200A0093530291E0C453DF4F9883CC5CCD
:1038F000D0408091C001882301F1C753DF4F388148
:10390000C95CD040311176C380917E0190917F01D6
:10391000092E000CAA0BBB0B88169906AA06BB063B
:1039200060F061E085E090E00E94200A63C351E00E
:10393000C753DF4F5883C95CD0408091BF018823B3
:1039400009F440C0C553DF4F8881CB5CD040811162
:1039500012C08091960190919701092E000CAA0B3C
:10396000BB0B88169906AA06BB0660F161E086E0EB
:1039700090E00E94200A8091960190919701092E73
:10398000000CAA0BBB0BA5019401281B390B4A0B99
:103990005B0BDA01C901883E9340A105B10508F42B
:1039A00057C38091510281114CC360E086E090E0E2
:1039B0000E94200A0093510291E0C553DF4F988383
:1039C000CB5CD0408091780190917901019761F4AE
:1039D00039EB83163BE09306A104B10428F0C153F0
:1039E000DF4F1882CF5CD0408090AD019090AE0147
:1039F000A090AF01B090B0018091BB019091BC014B
:103A0000A091BD01B091BE0188169906AA06BB0619
:103A10007CF58091AB0181112BC0C153DF4F4881F0
:103A2000CF5CD040411124C08091040190910501E8
:103A3000A0910601B09107010197A109B1098093F6
:103A4000040190930501A0930601B0930701892B0F
:103A50008A2B8B2B29F50E9475112B013C0180923A
:103A6000680190926901A0926A01B0926B0120C036
:103A70008092BB019092BC01A092BD01B092BE01A8
:103A80008091820190918301092E000CAA0BBB0B3F
:103A90008093040190930501A0930601B093070160
:103AA000C053DF4F5881C05DD040552309F440C05A
:103AB0000E947511AB01BC014419550966097709CB
:103AC0008091B9019091BA01092E000CAA0BBB0B91
:103AD000481759076A077B0728F1A0900201B090A8
:103AE000030161E0C5010E94200AC5010E949113F3
:103AF0000093AB010E9475118090C7019090C8019E
:103B0000A090C901B090CA01681979098A099B0976
:103B100048EC50E00E948A0DC053DF4F1882C05D10
:103B2000D04006C081E0C053DF4F8883C05DD040E5
:103B30008090AD019090AE01A090AF01B090B00127
:103B40008091B5019091B601A091B701B091B801F3
:103B500088169906AA06BB06E0F48091AB0188237B
:103B6000C1F08091AA01811186C260E080910201BA
:103B7000909103010E94200A0E9475116B017C0143
:103B80008092640190926501A0926601B0926701F3
:103B900008C0C253DF4F9881CE5CD040992309F40E
:103BA00045C04AE0C701B6010E94A1128DE391E031
:103BB0000E948F120E947511AB01BC014C195D0966
:103BC0006E097F098091B3019091B401092E000C18
:103BD000AA0BBB0B481759076A077B0708F161E07E
:103BE00080910001909101010E94200A0093AA0196
:103BF0000E9475118090C7019090C801A090C901E2
:103C0000B090CA01681979098A099B0948EC50E00B
:103C10000E948A0DC253DF4F1882CE5CD04006C08E
:103C200021E0C253DF4F2883CE5CD0408091AA01AF
:103C3000882309F10E9475118090B3019090B4011E
:103C4000092C000CAA08BB08DC01CB0188199909D2
:103C5000AA09BB098C199D09AE09BF09883E93408A
:103C6000A105B10540F0C353DF4F4881CD5CD04082
:103C7000411108C0F4C1C353DF4F5881CD5CD0401F
:103C8000552369F18091AD019091AE01A091AF01F2
:103C9000B091B0010A97A105B105DCF41092AC0116
:103CA0000E9475118090C7019090C801A090C90131
:103CB000B090CA01681979098A099B0944EF51E05B
:103CC0000E948A0D81E0C353DF4F8883CD5CD040D2
:103CD00006C091E0C353DF4F9883CD5CD040809104
:103CE0005402882309F45ACD80915302882309F4A1
:103CF00055CD80915202882309F450CD8091510214
:103D0000882309F44BCD0E9475118090C7019090D3
:103D1000C801A090C901B090CA01681979098A093F
:103D20009B0944EF51E00E948A0D21E0CF52DF4F02
:103D30002883C15DD04032CD0E9475114B015C01DA
:103D40008091AB01882309F4D7C08091AA01882310
:103D500009F4D2C081EC92E00E945103892B99F1C1
:103D600081EC92E00E942F03182F8B3371F08A3080
:103D700051F1E1E0F0E0EC0FFD1FE20DF31D808357
:103D8000A1014F5F5F4F1A011EC071015FEFE51A7D
:103D9000F50AE1E0F0E0EC0FFD1FE20DF31D1082EB
:103DA0001092AB011092AA011092AC011092540231
:103DB000109253021092520210925102CE010196BB
:103DC0000E94650A17010E947511DC01CB01881958
:103DD0009909AA09BB0981319742A105B10508F4E7
:103DE000AFCF0E94160980916E0190916F01892BCF
:103DF000C9F4609168017091690180916A019091A4
:103E00006B010E94042320910C0130910D0140911F
:103E10000E0150910F010E9490230E94CC220E941B
:103E2000B30918C0609168017091690180916A01BD
:103E300090916B010E94042320910C0130910D019F
:103E400040910E0150910F010E9490230E94CC22BC
:103E50000E945B090E94160980916E0190916F018A
:103E6000892BC9F4609164017091650180916601AC
:103E7000909167010E94042320910C0130910D0163
:103E800040910E0150910F010E9490230E94CC227C
:103E90000E94B30918C0609164017091650180911E
:103EA0006601909167010E94042320910C013091DA
:103EB0000D0140910E0150910F010E9490230E942C
:103EC000CC220E945B090E9475114B015C017BCFE3
:103ED00081EC92E00E942F03182F8B33A1F08A30DF
:103EE00059F0E1E0F0E0EC0FFD1FE20DF31D8083DF
:103EF000A1014F5F5F4F1A0181EC92E00E945103D4
:103F0000892B31F74DCBE1E0F0E0EC0FFD1FE20D26
:103F1000F31D1082C10101961C0142CBCE01019616
:103F20000E94650A0E94F80314CB80E096E9A0E0A5
:103F3000B0E080938A0190938B01A0938C01B093A1
:103F40008D010E94E80724C80093AC0148EC50E0C2
:103F500060E070E0CB010E948A0D0E9475116093B1
:103F6000C7017093C8018093C9019093CA018091E1
:103F7000780190917901019709F006CC81E0C15355
:103F8000DF4F8883CF5CD040FFCB80917A01909146
:103F90007B01092E000CAA0BBB0BA5019401281B69
:103FA000390B4A0B5B0BDA01C901883E9340A1052E
:103FB000B10558F080915402811150CC60E089E045
:103FC00090E00E94200A0093540241E0C653DF4F64
:103FD0004883CA5CD04048CC21E0C453DF4F2883DB
:103FE000CC5CD04086CC41E0C453DF4F4883CC5CEE
:103FF000D0407FCC80917E0190917F01092E000CF2
:10400000AA0BBB0BA5019401281B390B4A0B5B0BB8
:10401000DA01C901883E9340A105B10558F08091AD
:104020005202811184CC60E085E090E00E94200A79
:104030000093520241E0C753DF4F4883C95CD04030
:104040007CCC21E0C553DF4F2883CB5CD040BACC79
:1040500041E0C553DF4F4883CB5CD040B3CCA09048
:104060000001B090010160E0C5010E94200AC50175
:104070000E94911307CEC253DF4F5881CE5CD040CF
:10408000552309F4D7CD8DCDFC019091D1019C3001
:10409000A0F481E0890F8093D1019083892F90E073
:1040A000FC01EE0FFF1F8E0F9F1FFC01EE52FE4F13
:1040B00088EB9BE09283818308958FEF808308953E
:1040C000E1ECF2E01382128288EE93E0A0E0B0E02F
:1040D00084839583A683B7832DE131E031832083E8
:1040E00025EC30E03587248724EC30E037872687BD
:1040F00020EC30E0318B208B21EC30E0338B228BB5
:1041000022EC30E0358B248B26EC30E0378B268B8D
:10411000118E128E138E148EEEE5F3E0138212824E
:1041200084839583A683B7838FE291E09183808314
:10413000E6EAF3E0108285E791E196838583EFE973
:10414000F3E0108296838583E8E9F3E0108296839A
:10415000858383E793E00E94442080E793E00E94F8
:1041600044208DE693E00E9444208AE693E00C947C
:104170004420FC0188279927E89421912032E9F313
:10418000293010F02E30C8F32B3241F02D3239F4A3
:10419000689404C00E943A21820F911D21912053FE
:1041A0002A30C0F31EF4909581959F4F08951F9378
:1041B000FC0199278827BC01E89411911032E9F39A
:1041C000193010F01E30C8F31B3251F01D3249F483
:1041D000689406C00E942521610F711D811D911DEB
:1041E000119110531A30B0F33EF49095809570956C
:1041F00061957F4F8F4F9F4F1F910895FA01A191B5
:10420000B081009719F41097E1F0CD01DC01CD01E8
:104210000D90002011F4C00113C0FB012191222355
:1042200019F02015D9F7F3CFFB012191201519F4CE
:104230001E92119606C02223C1F70D900020A1F70F
:10424000D001FA01A193B0830895592F482F372F39
:10425000262F660F771F881F991F660F771F881FED
:10426000991F620F731F841F951F660F771F881F8A
:10427000991F08957AE0979F902D879F802D910D2B
:1042800011240895BB27FA01A62F62177105810535
:104290009105330B30FB66F0AA27660F771F881F46
:1042A000991FAA1FA21710F0A21B63953850A9F7F7
:1042B000A05DAA3308F0A95DA19336F7B111B193BF
:1042C0001082CA010C946421DC01FC01672F7191FA
:1042D0007723E1F7329704C07C916D9370836291EC
:1042E000AE17BF07C8F30895F999FECF92BD81BDFF
:1042F000F89A992780B50895262FF999FECF1FBA0D
:1043000092BD81BD20BD0FB6F894FA9AF99A0FBEFE
:1043100001960895052E97FB1EF400940E94A1219A
:1043200057FD07D00E94BC2107FC03D04EF40C942B
:10433000A12150954095309521953F4F4F4F5F4FAC
:10434000089590958095709561957F4F8F4F9F4F01
:1043500008950E94DE21A59F900DB49F900DA49F0B
:10436000800D911D11240895B7FF0C94A9210E947E
:10437000A921821B930B0895A1E21A2EAA1BBB1B35
:10438000FD010DC0AA1FBB1FEE1FFF1FA217B30721
:10439000E407F50720F0A21BB30BE40BF50B661F37
:1043A000771F881F991F1A9469F7609570958095FB
:1043B00090959B01AC01BD01CF010895A29FB00172
:1043C000B39FC001A39F700D811D1124911DB29F49
:1043D000700D811D1124911D08955058BB27AA27E7
:1043E0000E9405220C9456230E94482338F00E9414
:1043F0004F2320F039F49F3F19F426F40C94452301
:104400000EF4E095E7FB0C943F23E92F0E9467230D
:1044100058F3BA17620773078407950720F079F4F9
:10442000A6F50C9489230EF4E0950B2EBA2FA02D3F
:104430000B01B90190010C01CA01A0011124FF2751
:10444000591B99F0593F50F4503E68F11A16F0404C
:10445000A22F232F342F4427585FF3CF469537954B
:104460002795A795F0405395C9F77EF41F16BA0B10
:10447000620B730B840BBAF09150A1F0FF0FBB1FBE
:10448000661F771F881FC2F70EC0BA0F621F731F07
:10449000841F48F4879577956795B795F7959E3F64
:1044A00008F0B0CF9395880F08F09927EE0F9795F5
:1044B000879508950E946E220C9456230E944F23E4
:1044C00058F00E94482340F029F45F3F29F00C94F3
:1044D0003F2351110C948A230C9445230E94672397
:1044E00068F39923B1F3552391F3951B550BBB2723
:1044F000AA2762177307840738F09F5F5F4F220F68
:10450000331F441FAA1FA9F335D00E2E3AF0E0E85E
:1045100032D091505040E695001CCAF72BD0FE2FA8
:1045200029D0660F771F881FBB1F2617370748073C
:10453000AB07B0E809F0BB0B802DBF01FF279358F4
:104540005F4F3AF09E3F510578F00C943F230C9456
:104550008A235F3FE4F3983ED4F386957795679579
:10456000B795F7959F5FC9F7880F911D9695879529
:1045700097F90895E1E0660F771F881FBB1F621748
:1045800073078407BA0720F0621B730B840BBA0B06
:10459000EE1F88F7E09508950E94D3226894B11128
:1045A0000C948A2308950E946F2388F09F5798F0F7
:1045B000B92F9927B751B0F0E1F0660F771F881F28
:1045C000991F1AF0BA95C9F714C0B13091F00E9442
:1045D0008923B1E008950C948923672F782F8827C9
:1045E000B85F39F0B93FCCF3869577956795B39569
:1045F000D9F73EF490958095709561957F4F8F4FD8
:104600009F4F0895E89409C097FB3EF490958095DC
:10461000709561957F4F8F4F9F4F9923A9F0F92F88
:1046200096E9BB279395F695879577956795B79506
:10463000F111F8CFFAF4BB0F11F460FF1BC06F5FEC
:104640007F4F8F4F9F4F16C0882311F096E911C0FE
:10465000772321F09EE8872F762F05C0662371F01F
:1046600096E8862F70E060E02AF09A95660F771F33
:10467000881FDAF7880F9695879597F9089597F927
:104680009F6780E870E060E008959FEF80EC0895F8
:1046900000240A9416161706180609060895002421
:1046A0000A9412161306140605060895092E03949B
:1046B000000C11F4882352F0BB0F40F4BF2B11F40F
:1046C00060FF04C06F5F7F4F8F4F9F4F089557FD6E
:1046D0009058440F551F59F05F3F71F04795880F70
:1046E00097FB991F61F09F3F79F087950895121607
:1046F00013061406551FF2CF4695F1DF08C01616B3
:1047000017061806991FF1CF869571056105089463
:104710000895E894BB2766277727CB0197F908957A
:104720000E94A3230C9456230E94482338F00E9431
:104730004F2320F0952311F00C943F230C94452334
:1047400011240C948A230E94672370F3959FC1F370
:10475000950F50E0551F629FF001729FBB27F00D2F
:10476000B11D639FAA27F00DB11DAA1F649F662784
:10477000B00DA11D661F829F2227B00DA11D621FD3
:10478000739FB00DA11D621F839FA00D611D221F8D
:10479000749F3327A00D611D231F849F600D211D71
:1047A000822F762F6A2F11249F5750409AF0F1F0F4
:1047B00088234AF0EE0FFF1FBB1F661F771F881F5D
:1047C00091505040A9F79E3F510580F00C943F2333
:1047D0000C948A235F3FE4F3983ED4F38695779553
:1047E0006795B795F795E7959F5FC1F7FE2B880F03
:1047F000911D9695879597F90895FA01EE0FFF1F81
:10480000309621053105A1F16115710561F48038FB
:10481000BFE39B0749F168949038810561F08038C7
:10482000BFEF9B0741F099234AF5FF3FE1053105B2
:10483000210519F1E8940894E795D901AA2329F4F0
:10484000AB2FBE2FF85FD0F310C0FF5F70F4A695BA
:10485000E0F7F73950F019F0FF3A38F49F779F935B
:104860000DD00F9007FC9058089546F00C94452306
:1048700060E070E080E89FE308954FE79F775F93E3
:104880004F933F932F930E94F8242F913F914F9184
:104890005F910E9490230C94552429F416F00C94F7
:1048A0003F230C9489230C9445230E946F23A8F383
:1048B0009638A0F707F80F92E8942BE33AEA48EB12
:1048C0005FE70E94A6230F920F920F924DB75EB73B
:1048D0000F920E944025E2EAF0E00E9487244F9167
:1048E0005F91EF91FF91E595EE1FFF1F49F0FE5795
:1048F000E0684427EE0F441FFA95E1F74195550B08
:104900000E94BA240F9007FE0C94AE240895DF9302
:10491000CF931F930F93FF92EF92DF927B018C0155
:10492000689406C0DA2EEF010E94A323FE01E894EA
:10493000A5912591359145915591A6F3EF010E94DE
:104940000522FE019701A801DA9469F7DF90EF9044
:10495000FF900F911F91CF91DF9108959B01AC01C2
:1049600060E070E080E89FE30C945A220C943F23AF
:104970000C9474250E946F23D8F39923C9F3940FE4
:10498000511DA3F39150504094F059F0882332F018
:10499000660F771F881F91505040C1F79E3F510509
:1049A0002CF7880F911D9695879597F908955F3F8D
:1049B000ACF0983E9CF0BB27869577956795B795A8
:1049C00008F4B1609395C1F7BB0F58F711F460FF7D
:1049D000E8CF6F5F7F4F8F4F9F4FE3CF0C948A23B9
:1049E00016F00C9474250C94452368940C943F2382
:1049F0000E946F23A8F39923C1F3AEF3DF93CF9303
:104A00001F930F93FF92C92FDD2788232AF0219748
:104A1000660F771F881FDAF720E030E040E85FEB91
:104A20009FE3883920F0803E38F021968F770E94EE
:104A3000EE21EAECF0E004C00E94EE21E7EFF0E0A6
:104A40000E9487248B01BE01EC01FB2E6F57710978
:104A50007595771F880B990B0E94042328E132E794
:104A600041E35FE30E94A323AF2D9801AE01FF90C5
:104A70000F911F91CF91DF910E9405220C94562334
:104A8000FA01DC01AA0FBB1F9B01AC01BF5728F440
:104A9000222733274427507820C0B75190F4AB2FFA
:104AA0000024469537952795011CA395D2F3002045
:104AB00071F0220F331F441FB395DAF30ED00C941C
:104AC000ED2161307105A0E88A07B94630F49B01F9
:104AD000AC016627772788279078309621F02083CD
:104AE00031834283538308959F3F31F0915020F4E6
:104AF000879577956795B795880F911D96958795BA
:104B000097F90895DB018F939F930E94A921BF918C
:104B1000AF91A29F800D911DA39F900DB29F900D0C
:104B200011240895991B79E004C0991F961708F085
:104B3000961B881F7A95C9F780950895EE0FFF1F81
:104B40000590F491E02D099481E090E0F8940C94A4
:064B5000A925F894FFCF37
:104B56000A00090005000000010101010000803F74
:104B6600FF060005000A000900000000008903F6A0
:104B7600022003D60351032F034303000000008FD6
:104B8600046204BF0436045A04460437040D0A00BE
:024B96002C00F1
:00000001FF
