:100000000C941C020C9444020C9444020C94440280
:100010000C9444020C9444020C9444020C94011E6F
:100020000C9444020C9444020C9444020C94440238
:100030000C9444020C9444020C9444020C94440228
:100040000C94B51E0C9444020C94831E0C945D1EFB
:100050000C9444020C9444020C9444020C94440208
:100060000C94FF1E0C94440207634236B79BD8A73A
:100070001A39685618AEBAAB558C1D3CB7CC5763CD
:10008000BD6DEDFD753EF6177231BF000000803F7B
:1000900008000000BE922449123EABAAAA2ABECD97
:1000A000CCCC4C3E00000080BEABAAAAAA3E000009
:1000B0000000BF000000803F000000000008417801
:1000C000D3BB4387D1133D190E3CC3BD4282AD2B38
:1000D0003E68EC8276BED98FE1A93E4C80EFFFBE30
:1000E00001C4FF7F3F00000000003B002C002C00FB
:1000F0002C002C002C002C002C002C002C002C00A0
:100100002C002C002C002C002474656C656D65742B
:1001100072792C004E6F207375636820666C696776
:1001200068740A003B0A002C002C002C002C002CC8
:10013000002C002C002C002C002C002C002C002C5F
:10014000002C002C002C002C002C00416C74694DFC
:10015000756C74695632002C002C002C002C002C7D
:10016000002C002C002C0024616C7469636F6E6697
:10017000696700696E76616C696420636F6E660002
:1001800024554E4B4E4F574E3B00244B303B0A00FC
:10019000244F4B3B0A0054656C656D657472792081
:1001A00064697361626C65640A0054656C656D65B1
:1001B00074727920656E61626C65640A00244F4B2D
:1001C0003B0A00244F4B3B0A00244F4B3B0A006381
:1001D0006F6E66696720726573657465640A0024D2
:1001E000656E643B0A002473746172743B0A0024D8
:1001F000656E643B0A002473746172743B0A0043A9
:100200006F6E74696E75697479206F6E200A004391
:100210006F6E74696E75697479206F6666200A0066
:10022000466C69676874204C6973743A200A006EE2
:100230003B004E756D626572206F6620666C696763
:100240006874200A005265636F7264696E67200AE1
:10025000006E6F7420612076616C696420666C6941
:10026000676874005265616420666C696768743AF7
:10027000200045726173650A00454550524F4D207C
:100280006C656E6774683A2000456E642061646432
:10029000726573733A200000000000240027002AD2
:1002A00000000000002300260029000000000800D4
:1002B00002010000030407000000000000000053DA
:1002C000746172742070726F6772616D0A00456E9E
:1002D00074657220436F6D6D616E6420616E642081
:1002E0007465726D696E617465206974206279202D
:1002F00061203B203E3E0A006220203D2070726952
:100300006E7420616C746920636F6E666967200A81
:10031000006320203D20746F67676C6520636F6EFB
:1003200074696E75697479206F6E2F6F6666200A26
:10033000006520203D20657261736520616C6C2032
:10034000666C696768742064617461200A006C20BF
:10035000203D207072696E7420666C696768742035
:100360006C697374200A00722028666F6C6C6F775A
:1003700065642062792074686520666C69676874BA
:10038000206E756D62657229203D20726561642062
:10039000666C6967687420646174610A0077203D47
:1003A000207265636F726420666C69676874200AE6
:1003B00000436F6D6D616E6473206172653A200A4F
:1003C00000526F636B657420666C696768742064A3
:1003D000617461206C6F676765722E2041206D61CA
:1003E00078696D756D206F6620323520666C69679F
:1003F00068742063616E206265206C6F6767656456
:10040000200A0001020408102040800102040810A4
:100410002001020408102000000000250028002B05
:10042000000404040404040404020202020202039D
:100430000303030303021E2011241FBECFEFD8E0E5
:10044000DEBFCDBF24E0A2E9B1E001C01D92A23A17
:10045000B207E1F711E0A0E0B1E0E8E5FAE502C09B
:1004600005900D92A239B107D9F712E0CCE1D2E0A4
:1004700004C02197FE010E942A2BCB31D107C9F776
:100480000E9484200C942A2D0C9400002FB7F8941D
:100490006091E2017091E3018091E4019091E501A6
:1004A0002FBF089591E09093E5028093E4021092AB
:1004B000E3021092E20208952091E20281E02132EB
:1004C00008F044C08091C1028111FCCF8091E40208
:1004D00092E09093C10291E09093C0029FEF9093BD
:1004E000BF021092BE022093BD02A2ECB2E0EDE981
:1004F000F2E090E0291331C010929C0290919C028E
:10050000880F892B80939C0280919B02813049F552
:1005100010929B0280919C028093BB008091BC0052
:1005200083FDF8CF85EC8093BC008091C1028230BE
:10053000E1F38091BF028F3FB1F08091BF02803222
:10054000A1F08091BF02803391F084E01092E30229
:100550001092E2021092E50208953D9131939F5F5F
:10056000C9CF85EEE0CF80E0F1CF82E0EFCF83E02E
:10057000EDCF9091C1029111FCCF91E09093C10217
:100580009093C0022FEF2093BF021092BE02260F5D
:100590002093BD0290939C0290919C02880F892B1E
:1005A00080939C0280919B028130F9F410929B020F
:1005B00080919C028093BB008091BC0083FDF8CFAA
:1005C00085EC8093BC008091C1028130E1F3809181
:1005D000BE02861710F46091BE02ADE9B2E0EBE70F
:1005E000F2E080E0861303C0089585EEEACF9D9186
:1005F00091938F5FF7CFE1EBF3E090E080E04181F2
:10060000528163817481452B462B472B29F001963B
:1006100038968931910599F70197089508950895BD
:100620008C30910521F481E0809363020895893034
:10063000910521F481E0809362020895419719F4B5
:1006400081E0809361020895AF92BF92CF92DF92D2
:10065000EF92FF920F931F93CF93DF936C017B0177
:100660008B01040F151FEB015E01AE18BF08C01708
:10067000D10759F06991D601ED91FC910190F0817B
:10068000E02DC6010995892B79F7C501DF91CF913E
:100690001F910F91FF90EF90DF90CF90BF90AF90A0
:1006A0000895FC01538D448D252F30E0842F90E078
:1006B000821B930B541710F0CF960895019708955D
:1006C000FC01918D828D981761F0A28DAE0FBF2F26
:1006D000B11D5D968C91928D9F5F9F73928F90E07C
:1006E00008958FEF9FEF0895FC01918D828D9817EB
:1006F00031F0828DE80FF11D858D90E008958FEF28
:100700009FEF0895FC01918D228D892F90E0805CF0
:100710009F4F821B91098F739927089586EE92E06F
:100720000E94820321E0892B09F420E0822F0895A2
:1007300080E090E0892B29F00E948E0381110C94B7
:1007400000000895FC01A48DA80FB92FB11DA35A74
:10075000BF4F2C91848D90E001968F739927848FE1
:10076000A689B7892C93A089B1898C918370806404
:100770008C93938D848D981306C00288F389E02DA5
:1007800080818F7D80830895EF92FF920F931F9356
:10079000CF93DF93EC0181E0888F9B8D8C8D981334
:1007A0001AC0E889F989808185FF15C09FB7F89440
:1007B000EE89FF896083E889F9898081837080648C
:1007C00080839FBF81E090E0DF91CF911F910F91D7
:1007D000FF90EF900895F62E0B8D10E00F5F1F4FE6
:1007E0000F731127E02E8C8D8E110CC00FB607FCF5
:1007F000FACFE889F989808185FFF5CFCE010E9483
:10080000A203F1CFEB8DEC0FFD2FF11DE35AFF4F4B
:10081000F0829FB7F8940B8FEA89FB898081806210
:10082000CFCF0F931F93CF93DF938C01D0E0C0E025
:10083000F801EC0FFD1F6491662341F086EE92E013
:100840000E94C403892B11F02196F2CFCE01DF91D3
:10085000CF911F910F910895CF93DF93EC01888D75
:100860008823B9F0AA89BB89E889F9898C9185FD2B
:1008700003C0808186FD0DC00FB607FCF7CF8C91B9
:1008800085FFF2CF808185FFEDCFCE010E94A203CC
:10089000E9CFDF91CF910895833081F028F4813042
:1008A00099F08230A9F008958730A9F08830C9F016
:1008B0008430B1F4809180008F7D03C080918000EE
:1008C0008F7780938000089584B58F7784BD0895D5
:1008D00084B58F7DFBCF8091B0008F778093B0007F
:1008E00008958091B0008F7DF9CFCF93DF93282FAB
:1008F00030E0F901E555FD4F8491F901ED5FFB4FC3
:10090000D491F901EF5DFB4FC491CC23A1F081118B
:100910000E944C04EC2FF0E0EE0FFF1FEF55FD4F4F
:10092000A591B491EC91ED2381E090E009F480E091
:10093000DF91CF91089580E090E0FACF1F93CF939D
:10094000DF93282F30E0F901E555FD4F8491F9013F
:10095000ED5FFB4FD491F901EF5DFB4FC491CC23C8
:10096000A9F0162F81110E944C04EC2FF0E0EE0F3D
:10097000FF1FE95EFB4FA591B4918FB7F894EC91FE
:10098000111108C0D095DE23DC938FBFDF91CF918A
:100990001F910895DE2BF8CF10927A0210927902FF
:1009A0001092E3021092E2021092C10281E0809361
:1009B000C00210929B0261E082E10E949E0461E00D
:1009C00083E10E949E04E9EBF0E080818E7F8083CA
:1009D00080818D7F808388E48093B80085E4809354
:1009E000BC008EE093E090936702809366028FE0F4
:1009F00093E09093650280936402089590911A01A8
:100A000089130BC0E5E3F4E0E4919FEF90931A01A2
:100A1000E13049F028F0E23061F060E00C949E048F
:100A200010926E00FACF90916F009D7F90936F00AF
:100A3000F4CF909170009D7F9093700091E090931F
:100A4000B0009091B100987F94609093B1001092A3
:100A5000B300E3CFCF93DF9390E0FC01ED5FFB4F5A
:100A600024918F5D9B4FFC0184918823C9F090E015
:100A7000880F991FFC01E956FD4FA591B491FC0127
:100A8000E95EFB4FC591D49161110DC09FB7F894F9
:100A90008C91209582238C938881282328839FBF63
:100AA000DF91CF910895623051F49FB7F8943C9153
:100AB000822F809583238C93E8812E2BEFCF8FB7E5
:100AC000F894EC912E2B2C938FBFEACF4F925F922C
:100AD0006F927F928F929F92AF92BF92CF92DF924E
:100AE000EF92FF920F931F93CF93DF9300D000D02C
:100AF0001F92CDB7DEB78C0149835A836B837C8309
:100B000080911A018D30C9F08F3F09F47DC00F909C
:100B10000F900F900F900F90DF91CF911F910F9139
:100B2000FF90EF90DF90CF90BF90AF909F908F900D
:100B30007F906F905F904F900895E5E3F4E084918B
:100B40008D8387FDE4CF61E08DE00E942A058D81D1
:100B5000882321F09D81923009F044C14801B12CD5
:100B6000A12C60E072E18AE790E0A50198010E9463
:100B70000B2B29013A017A01690181E0C81AD108D9
:100B8000E108F1089FEFC916D104E104F10409F06E
:100B90000CF4F7C060E472E48FE090E0A5019801E6
:100BA0000E940B2B69017A0181E0C81AD108E10883
:100BB000F1089D81923009F098C08FEFC816D104DA
:100BC000E104F10409F00CF4CAC160E970ED83E0BE
:100BD00090E0A50198010E940B2B69017A0191E038
:100BE000C91AD108E108F1088FEFC816D104E10451
:100BF000F10411F00CF065C183E09091B100987F91
:100C0000892B8093B100C5C08DE080931A01E5E384
:100C1000F4E094919D839F3F09F479CF913029F1BD
:100C200058F0923009F43FC09D8197FD70CF61E08C
:100C30008DE00E942A058ECF14BC15BC84B582605D
:100C400084BD85B5816085BDEEE2F4E0E491F0E01D
:100C5000EE0FFF1FE95EFB4F85919491E0E1F4E018
:100C6000E491E0936C021D826ECF1092800010928E
:100C70008100809181008860809381008091810053
:100C8000816080938100EEE2F4E0E491F0E0EE0F09
:100C9000FF1FE95EFB4F85919491E0E1F4E0E49160
:100CA000E0936B0250CF1092B0001092B10080918F
:100CB000B00082608093B0008091B1008160809329
:100CC000B100EEE2F4E0E491F0E0EE0FFF1FE95E28
:100CD000FB4F8591949190936A0280936902E0E1C1
:100CE000F4E0E491E09368022ECF9FEFC916D1049F
:100CF000E104F10409F00CF473C068E478EE81E0DB
:100D000090E0A50198010E940B2B69017A0181E016
:100D1000C81AD108E108F1089D81992309F4EAC0B5
:100D20009FEFC916D104E104F10409F00CF4E0C00E
:100D3000EAC064E274EF80E090E0A50194010E94B3
:100D40000B2B69017A0181E0C81AD108E108F1088A
:100D500085E09FEFC916D104E104F10409F008F41D
:100D60004CCF62E17AE780E090E0A50194010E9417
:100D70000B2B69017A0181E0C81AD108E108F1085A
:100D8000D5C081E09D81911138CF95B5987F892B91
:100D900085BDD801AA0FBB1F29813A814B815C8197
:100DA0000E94EE2728EE33E040E050E00E94E92A5E
:100DB0008D81813009F44AC0823009F459C0811113
:100DC000A6CEC7BC2093750230937602409377027B
:100DD0005093780280916E00826080936E0097CE6F
:100DE00082E0D0CFB12CA12C60E072E18AE790E0E4
:100DF000A50198010E940B2B69017A0181E0C81AB4
:100E0000D108E108F108C114D10491E0E906F10428
:100E100064F491E08D81813009F0BBCF8091810035
:100E2000887F892B80938100B4CF68E478EE81E0DD
:100E300090E0A50198010E940B2B69017A0181E0E5
:100E4000C81AD108E108F10893E0E4CFD0928900F4
:100E5000C092880020937102309372024093730213
:100E60005093740280916F00826080936F004FCE28
:100E7000C092B30020936D0230936E0240936F02D4
:100E800050937002809170008260809370003FCE1A
:100E900084E09FEFC916D104E104F10409F008F4DD
:100EA00074CF730162019AE0F594E794D794C794E4
:100EB0009A95D1F781E0C81AD108E108F10885E0D8
:100EC00064CF68E478EE81E090E0A50198010E948B
:100ED0000B2B69017A0191E0C91AD108E108F108E8
:100EE0008FEFC816D104E104F10411F00CF021CF0A
:100EF00084E083CE83E09FEFC916D104E104F104BE
:100F000009F00CF442CF62E17AE780E090E0A501BD
:100F100094010E940B2B69017A0181E0C81AD10863
:100F2000E108F1089D81992309F4B2CF86E09FEF93
:100F3000C916D104E104F10409F008F45ECE73018E
:100F400062012AE0F594E794D794C7942A95D1F7E3
:100F500081E0C81AD108E108F10887E04ECE82E0AE
:100F60004CCE3FB7F8948091E6019091E701A091B3
:100F7000E801B091E90126B5A89B05C02F3F19F003
:100F80000196A11DB11D3FBFBA2FA92F982F882709
:100F9000BC01CD01620F711D811D911D42E0660FE4
:100FA000771F881F991F4A95D1F708958F929F92B6
:100FB000AF92BF92CF92DF92EF92FF924B015C0112
:100FC0000E94B1076B017C010E94B1076C197D0979
:100FD0008E099F09683E734081059105A8F321E0C1
:100FE000821A9108A108B10888EEC80E83E0D81EC5
:100FF000E11CF11C81149104A104B10429F7FF90B4
:10100000EF90DF90CF90BF90AF909F908F9008951A
:1010100085ED8093BC008091BC0084FDFCCF1092D4
:10102000C10208952091BE01260F3327331F2132BC
:101030003105ECF42091C102FC0190E080E0243005
:1010400069F082E00895A091BE012191AC01425661
:101050005E4FA40FB52FB11D2C930196861798F300
:101060008091BE01680F6093BE0180E0089581E029
:1010700008950895E0917A0280917902E81730F49A
:10108000F0E0E558FD4F808190E008958FEF9FEFED
:10109000089590917A02809179022FEF3FEF98178F
:1010A00048F4E92FF0E0E558FD4F208130E09F5FE4
:1010B00090937A02C90108958091790290917A0201
:1010C000891B990B0895CF92DF92EF92FF920F93B5
:1010D0001F93CF93DF937C01CB018A012091E5021E
:1010E000222389F0EB016B01C40ED51ECC15DD0562
:1010F00069F06991D701ED91FC910190F081E02DAB
:10110000C7010995F3CF642F0E941208C801DF912F
:10111000CF911F910F91FF90EF90DF90CF900895A6
:10112000CF93DF931F92CDB7DEB769832091E5029D
:101130002223F9F02091E202203258F021E030E041
:10114000FC013383228390E080E00F90DF91CF9108
:1011500008958091E302E82FF0E0EE53FD4F99816E
:1011600090838F5F8093E3028093E20281E090E0BE
:10117000ECCF61E0CE0101960E941208F7CF4F92AA
:101180005F926F927F928F929F92AF92BF92CF9217
:10119000DF92EF92FF920F931F93CF93DF932B0178
:1011A0003C017A01890120E2C22ED12C3BECA32E16
:1011B00037E0B32EC0919303D0919403CE010197F1
:1011C00084219521C81BD90B809196039091970398
:1011D0009601281B390BC9010217130708F4C8012F
:1011E0008C179D0708F4EC0180919503A3019201EF
:1011F00004C056954795379527958A95D2F79090D4
:101200008F03922A892D0E94520280919603909119
:101210009703029741F49927872D762D652D83E852
:1012200093E00E949008642D83E893E00E94900868
:10123000AE01B70183E893E00E9463080E945C025C
:1012400081111FC084E6882EC5010197F1F7892D11
:101250000E9452028091960390919703029729F47D
:1012600060E083E893E00E94900860E083E893E008
:101270000E9490080E945C028823A1F08A94811049
:10128000E3CFDF91CF911F910F91FF90EF90DF900F
:10129000CF90BF90AF909F908F907F906F905F9016
:1012A0004F9008954C0E5D1E611C711CEC0EFD1ECE
:1012B0000C1B1D0B09F07ECFE4CF80919803909119
:1012C0009903A0919A03B0919B03883C9105A105D5
:1012D000B10548F028EC30E042EB53E060E070E00C
:1012E000CB010E94BF0888EC90E0089590E080E078
:1012F0000895CF92DF92EF92FF921F93CF93DF93E7
:10130000FC01108111110AC010E0812FDF91CF91F3
:101310001F91FF90EF90DF90CF900895EC01058032
:10132000F681E02D0995C980DA80EB80FC806C198C
:101330007D098E099F0997FDE7CF1882E6CFCF92EE
:10134000DF92EF92FF92CF93DF93FC012081211176
:1013500011C06A017B01EC0181E080830580F68188
:10136000E02D0995C60ED71EE81EF91EC982DA8245
:10137000EB82FC82DF91CF91FF90EF90DF90CF90D6
:101380000895CF93DF93CDB7DEB7E2970FB6F89409
:10139000DEBF0FBECDBF10921C0210921B02109236
:1013A0001E0210921D021092200210921F0281E074
:1013B00090E0909322028093210283E090E090934A
:1013C00024028093230210922A0210922902109282
:1013D0002C0210922B0210922E0210922D0222E368
:1013E00030E03093260220932502109228021092BA
:1013F000270228EB31E03093300220932F0225E0C2
:1014000030E0309332022093310290933402809383
:101410003302109236021092350210923802109266
:10142000370240E056E960E070E0409339025093A3
:101430003A0260933B0270933C0210923E0210927B
:101440003D0220E032E03093400220933F021092B0
:101450004202109241029093440280934302109200
:101460004602109245028AE090E0909348028093F1
:10147000470210924A021092490282E3EBE1F2E045
:10148000DE01119601900D928A95E1F7FE013196E9
:10149000AE014F5C5F4F90E080E0E417F50731F05C
:1014A0002191820F911D27FD9A95F7CF90934C02C1
:1014B00080934B02E2960FB6F894DEBF0FBECDBF0D
:1014C000DF91CF91089548EE53E060E070E08091A5
:1014D0000302909104020E9466056CED75E080E0C5
:1014E00090E00E94D6078DE00C94FE04CF93DF932A
:1014F000CAE0D0E048EE53E060E070E080E496E0BF
:101500000E94660562E370E080E090E00E94D607EA
:101510008DE00E94FE04219769F768EE73E080E099
:1015200090E0DF91CF910C94D60749E150E060E064
:1015300070E080910302909104020E9466056CE2C3
:1015400071E080E090E00E94D6078DE00C94FE04EC
:10155000CF92DF92EF92FF920F931F93CF93DF937F
:101560006B017C0124E6C216D104E104F1040CF401
:1015700046C024E630E040E050E00E940B2B890199
:1015800064E6629FC001639F900D1124092E000C38
:10159000AA0BBB0BA7019601281B390B4A0B5B0B4F
:1015A000CA01B9012AE030E040E050E00E940B2B74
:1015B000E901EE24E394F12C1016110644F11C16F7
:1015C0001D067CF401E010E00E94950A62E370E0E1
:1015D00080E090E00E94D6070F5F1F4FC017D10731
:1015E0009CF768E873E180E090E0DF91CF911F9174
:1015F0000F91FF90EF90DF90CF900C94D6072AE0E8
:1016000030E040E050E00E940B2BE901D8CF0E946F
:10161000630A62E370E080E090E00E94D6073FEF4B
:10162000E31AF30A0E151F0594F7C9CF662319F0C4
:1016300061E00C949E0460E0FCCF81E080930A019D
:10164000809309018093080180911B0290911C02F4
:10165000892B09F0E8C080E090E0A0E8BFE3809328
:10166000160190931701A0931801B093190160918E
:10167000250270912602072E000C880B990B0E9400
:10168000DF262091160130911701409118015091E9
:1016900019010E94AC280E941E29072E000C880BFD
:1016A000990B6093FE017093FF0180930002909369
:1016B000010280912F029091300290930402809356
:1016C00003028FEF9FEF90930101809300019093AD
:1016D00003018093020180911F02909120028130CA
:1016E000910509F4A5C08230910509F4B0C0892B99
:1016F00009F0B1C08091290290912A02909397013C
:10170000809396018CE090E090930101809300011A
:1017100080912102909122028130910509F49EC0AE
:101720008230910509F4A9C0892B09F0AAC089E08B
:1017300090E0909301018093000180912B029091A1
:101740002C029093970180939601809123029091AF
:1017500024028130910509F497C08230910509F483
:10176000A2C0892B09F0A3C080912D0290912E0276
:10177000909397018093960181E190E0909301010D
:10178000809300018091310290913202092E000C69
:10179000AA0BBB0B8093040190930501A093060153
:1017A000B09307018FEF9FEF90930C0180930B0193
:1017B00080910A01882351F010920C0110920B01C4
:1017C0008AE090E0909306028093050280910901DF
:1017D000882391F080910B0190910C0101969093D8
:1017E0000C0180930B01880F991FFC01EB5FFD4FEB
:1017F0008BE090E09183808380910801882391F0B1
:1018000080910B0190910C01019690930C018093B3
:101810000B01880F991FFC01EB5FFD4F80E190E009
:1018200091838083089588E499EFA1E5B0E417CF10
:101830008091290290912A029093990180939801B6
:101840008CE090E0909303018093020161CF81E0EE
:1018500080939C015DCF10920A015ACF89E090E0FD
:10186000909303018093020180912B0290912C02AE
:10187000909399018093980168CF81E080939B01B8
:1018800064CF1092090161CF80912D0290912E02B8
:10189000909399018093980181E190E090930301E6
:1018A000809302016FCF81E080939A016BCF1092F9
:1018B000080168CF682F87E70E94B90210927A0268
:1018C000809379020895CF93DF93C82F87E70E9412
:1018D00052026C2F83E893E00E9490080E945C0201
:1018E00087E70E94520282E090E00E945A0C83E84F
:1018F00093E00E944908D82F80E0C82F83E893E046
:101900000E944908C82BD92B0E945C02CE01DF91AE
:10191000CF910895CF93C82F87E70E9452026C2F72
:1019200083E893E00E9490080E945C0287E70E948F
:10193000520281E090E00E945A0C83E893E00E94FA
:101940004908C82F0E945C028C2FCF9108956F9296
:101950007F928F929F92AF92BF92CF92DF92EF923F
:10196000FF920F931F93CF93DF934B015C016A01AA
:101970008901C0919303D0919403CE0101978821EE
:101980009921C81BD90BC8010132110510F080E262
:1019900090E08C179D0708F4EC0180919503A50158
:1019A000940104C056954795379527958A95D2F7A7
:1019B000F0908F03F22A8F2D0E945202809196039D
:1019C00090919703029741F499278B2D7A2D692DD9
:1019D00083E893E00E949008682D83E893E00E94DA
:1019E00090080E945C02682E811122C06C2F8F2DFE
:1019F0000E94B90210927A0280937902712CE72C2E
:101A0000F12CEC16FD0650F483E893E00E9449089F
:101A1000F601EE0DFF1D80837394F1CF8C0E9D1E99
:101A2000A11CB11CCC0EDD1E0C1B1D0B09F0A1CF9F
:101A3000862DDF91CF911F910F91FF90EF90DF9056
:101A4000CF90BF90AF909F908F907F906F900895B0
:101A50008091980390919903A0919A03B0919B0370
:101A6000883C9105A105B10548F028EC30E042EB37
:101A700053E060E070E0CB010E94A70C88EC90E09E
:101A80000895FC0101900020E9F73197AF01481B50
:101A9000590BBC0186EE92E00C9424038F929F9226
:101AA000AF92BF92CF92DF92EF92FF920F931F936C
:101AB000CF93DF93CDB7DEB7A1970FB6F894DEBF13
:101AC0000FBECDBF6B017C01F7FE41C06DE286EE1B
:101AD00092E00E94C4038C0122273327A9012C190C
:101AE0003D094E095F0919A2CE0181967C019AE059
:101AF000892E912CA12CB12CCA01B901A501940108
:101B00000E94E92A605DF70162937F01211531058A
:101B10004105510589F790E080E0309719F0CF0139
:101B20000E94410D800F911FA1960FB6F894DEBF61
:101B30000FBECDBFDF91CF911F910F91FF90EF901E
:101B4000DF90CF90BF90AF909F908F900895AC01A1
:101B50009B0119A28E010F5D1F4F8AE0C82ED12C68
:101B6000E12CF12CCA01B901A70196010E94E92AD2
:101B7000605DF80162938F01211531054105510522
:101B800089F790E080E0309779F2CF010E94410D13
:101B9000CBCFBC01990F880B990B0C944E0DCF93B2
:101BA000DF930E941104EC0185E491E00E94410D55
:101BB0008C0F9D1FDF91CF910895CF93DF93D0E0DD
:101BC000C0E0009719F00E94410DEC0185E491E01E
:101BD0000E94410D8C0F9D1FDF91CF910895CF93EF
:101BE000DF93682F86EE92E00E94C403EC0185E447
:101BF00091E00E94410D8C0F9D1FDF91CF910895C0
:101C0000CF93DF93FC01448155816081718186EE21
:101C100092E00E942403EC0185E491E00E94410DD2
:101C20008C0F9D1FDF91CF9108950F931F93CF933A
:101C3000DF930E94280D01EB13E0D0E0C0E0F80133
:101C400081819281A381B481892B8A2B8B2B79F19D
:101C500088E491E00E94410DCE010E94C90D85E407
:101C600091E00E94410D85E591E00E94410DF8014F
:101C700061817281838194810E944E0D85E491E09F
:101C80000E94410D8DE591E00E94410DF8016581B2
:101C90007681878190850E944E0D85E491E00E94B7
:101CA000410D2196085F1F4FC931D10541F6CE0184
:101CB000DF91CF911F910F91089587E70E94520203
:101CC00064EF83E893E00E9490086EE283E893E07B
:101CD0000E9490080E945C028FE19EE40197F1F758
:101CE00000C0000086EF0C94630C8F929F92AF921D
:101CF000BF92CF92DF92EF92FF92CF93DF930E9439
:101D00005D0E9C0150E040E0C7E8D4E08D899E89DB
:101D1000281B390B41095109AB89BC890E94EE2768
:101D20000E94DF2620E030E040E058E30E941A27BE
:101D30000E941E296B017C016D857E85072E000C9B
:101D4000880B990B0E94DF2620E030E040E055E44C
:101D50000E941A274B015C016F857889072E000CC1
:101D6000880B990B6C0D7D1D8E1D9F1D0E94DF261B
:101D70009B01AC01C501B4010E94AC280E941E2940
:101D80006C0D7D1D8E1D9F1D685F7F4F8F4F9F4F78
:101D90000E94DF2620E030E040E85DE30E941A2741
:101DA00020E030E040E251E40E94AC28DF91CF9186
:101DB000FF90EF90DF90CF90BF90AF909F908F906B
:101DC00008954F925F926F927F928F929F92AF92FF
:101DD000BF92CF92DF92EF92FF920F931F93CF9318
:101DE000DF9320919D01222309F446C18A014B0112
:101DF0005C010E944602C0909201D0909301E09055
:101E00009401F0909501DC01CB018C199D09AE097C
:101E1000BF09012E000C220B330B081719072A07E4
:101E20003B0708F029C10E9446026093920170931B
:101E3000930180939401909395010091570210E0D3
:101E4000E0904E02F12C4090580250905902609060
:101E50005A0270905B0280914D02811100C1D12C19
:101E6000C12CD0E0C0E088E091E00E941104C301E1
:101E7000B2010E944E0D86E091E00E941104C8015B
:101E80000E94C90D84E091E00E941104C7010E94E4
:101E9000C90D82E091E00E941104609117027091D7
:101EA00018028091190290911A020E944E0D80E052
:101EB00091E00E941104C6010E94C90D8EEF90E0CE
:101EC0000E94110460911302709114028091150216
:101ED000909116020E944E0D8CEF90E00E9411042A
:101EE0008D2F9C2F0E94C90D8AEF90E00E94110453
:101EF000C501B4010E944E0D88EF90E00E941104CC
:101F000080910A01882309F49EC08AE00E9475042A
:101F1000892B09F095C090E080E00E94C90D86EF02
:101F200090E00E94110480910901882309F48EC079
:101F30008BE00E947504EC0164E170E080E090E0C9
:101F40000E94D60790E080E0CD2B11F081E090E078
:101F50000E94C90D84EF90E00E9411048091080155
:101F6000882309F479C080E10E947504892B09F067
:101F700070C090E080E00E94C90D82EF90E00E9466
:101F800011048FEF9FEF0E94C90D80EF90E00E9437
:101F900011048FEF9FEF0E94C90D8EEE90E00E941A
:101FA00011040E94750E0E941E29CB010E94C90DCA
:101FB0008CEE90E00E941104E1EBF3E090E080E011
:101FC0004181528163817481452B462B472B29F037
:101FD000019638968931910599F723E0880F991F6A
:101FE0002A95E1F7FC01E755FC4F658176818781F1
:101FF00090850E94DF2620E030E040E857E30E9411
:102000001A2720E030E048EC52E40E941A270E9490
:102010001E29CB010E94C90D8AEE90E0DF91CF917D
:102020001F910F91FF90EF90DF90CF90BF90AF90F6
:102030009F908F907F906F905F904F900C94CF0DFA
:1020400081E090E06ACF8FEF9FEF67CF8FEF9FEF38
:102050007FCF81E090E08FCF8FEF9FEF8CCFD1E0EB
:10206000C0E08AE048165104610471040CF0D0E02D
:10207000CC24C394D12CF7CEDF91CF911F910F9137
:10208000FF90EF90DF90CF90BF90AF909F908F9098
:102090007F906F905F904F9008958F929F92AF9234
:1020A000BF92CF92DF92FF920F931F93CF93DF9354
:1020B00000D000D01F92CDB7DEB72AE0AE014F5F4F
:1020C0005F4F6A010E949126F60101900020E9F716
:1020D0003197FE2EFC1868EB7BE080E090E00E94D8
:1020E000D60756018A2D8C198F15F0F468EE73E02F
:1020F00080E090E00E94D607F50101915F01005356
:1021000009F40AE010E0912C812C0E94950AFFEF5F
:102110008F1A9F0A801691062CF76AEF70E080E014
:1021200090E00E94D607F1CF0F900F900F900F9084
:102130000F90DF91CF911F910F91FF90DF90CF9083
:10214000BF90AF909F908F9008950F931F93CF9360
:10215000DF93EC0188819981009759F02A813B81B6
:102160002617370730F081E0DF91CF911F910F9153
:1021700008958B016F5F7F4F0E945D2C009759F08F
:10218000998388831B830A832C813D81232B59F7F4
:10219000FC011082E8CF80E0E7CFEF92FF920F932F
:1021A0001F93CF93DF936115710541F480E0DF91B8
:1021B000CF911F910F91FF90EF9008954115510518
:1021C000B1F07B01EC010C811D81040F151FB801DA
:1021D0000E94A510882351F3288139818C819D812B
:1021E000B701820F931F0E94232D1D830C8381E072
:1021F000DECFCF93DF93EC0188819981009711F0B6
:102200000E94D42B198218821D821C821B821A8282
:10221000DF91CF910895EF92FF920F931F93CF9389
:10222000DF93CDB7DEB72E970FB6F894DEBF0FBEA3
:10223000CDBF7C01CB01BA012AE08E010F5F1F4F99
:10224000A8010E946526F80101900020E9F7319766
:10225000AF01401B510BB801C7010E94CD10811185
:1022600003C0C7010E94F910C7012E960FB6F8945B
:10227000DEBF0FBECDBFDF91CF911F910F91FF90B9
:10228000EF900895CF93DF93EC01FB0101900020C4
:10229000E9F73197AF01461B570B0E94CD10811112
:1022A00003C0CE010E94F910CE01DF91CF910895B5
:1022B000CF93DF93EC01FB014481558160817181F3
:1022C0000E94CD10811103C0CE010E94F910CE01F1
:1022D000DF91CF910895EF92FF920F931F93CF93C9
:1022E000DF93EC017B018A01BA010E94A5108111E4
:1022F0000BC0CE010E94F910CE01DF91CF911F914A
:102300000F91FF90EF9008951D830C83B701888192
:1023100099810E94232DF0CFFB0101900020E9F765
:102320003197AF01461B570B0C946B110F931F9302
:10233000CF93DF93CDB7DEB7A1970FB6F894DEBF8A
:102340000FBECDBF8C01CB01BA01F8011182108202
:1023500013821282158214822AE0AE014F5F5F4F12
:102360000E949126BE016F5F7F4FC8010E948C11B1
:10237000A1960FB6F894DEBF0FBECDBFDF91CF910F
:102380001F910F9108950F931F93CF93DF93CDB7B4
:10239000DEB7A2970FB6F894DEBF0FBECDBF8C019B
:1023A000CB01BA01F80111821082138212821582C8
:1023B00014822AE0AE014F5F5F4F0E946526BE0186
:1023C0006F5F7F4FC8010E948C11A2960FB6F894E0
:1023D000DEBF0FBECDBFDF91CF911F910F9108954A
:1023E000FC0180819181009711F00C94D42B089509
:1023F0000F931F93CF93DF930BE112E0C0E2D0E085
:10240000F80161918F01CE010E94E0272196C2352B
:10241000D105B1F789E892E00E94110482E590E0CD
:102420000E94C90D89E792E0DF91CF911F910F9132
:102430000C941104EF92FF920F931F93CF93DF93AD
:10244000CDB7DEB7E2970FB6F894DEBF0FBECDBFB3
:102450000E94C1098BE1E82E82E0F82E00E210E034
:10246000C8010E94D827F70181937F010F5F1F4F9A
:1024700002351105A9F740914B0250914C0282E3BD
:10248000EBE1F2E0DE01119601900D928A95E1F701
:10249000FE013196BE016F5C7F4F30E020E0E61711
:1024A000F70731F08191280F311D87FD3A95F7CF5D
:1024B00081E04217530709F080E0E2960FB6F894E6
:1024C000DEBF0FBECDBFDF91CF911F910F91FF9067
:1024D000EF9008954F925F926F927F928F929F92AA
:1024E000AF92BF92CF92DF92EF92FF921F93CF9362
:1024F000DF9300D000D000D0CDB7DEB70E945D0ED4
:102500004C01B12CA12C209187042295220F220F7F
:10251000207C2C5C298387E70E94520264EF83E8C9
:1025200093E00E949008698183E893E00E949008FC
:102530000E945C0280918704811109C28FE19EE4B0
:102540000197F1F700C0000086EF0E94630CB0E035
:10255000A0E0CC24D82EE92EFA2E88EF0E948A0C17
:10256000C82A10918704212F30E03E832D8380916B
:102570009C0490919D04A5019401281B390B4109ED
:102580005109A0919A04B0919B040E94EE270E94E9
:10259000DF2620E030E040E058E30E941A270E9446
:1025A0001E292B013C016091940470919504072E23
:1025B000000C880B990B0E94DF2620E030E040E001
:1025C00055E40E941A274B015C01609196047091BA
:1025D0009704072E000C880B990B640D751D861D42
:1025E000971D0E94DF269B01AC01C501B4010E942A
:1025F000AC280E941E29460E571E681E791E30EA1E
:10260000431A3FE0530A61087108A3019201C30114
:10261000B2010E94D92A9B01AC01ACE055954795C7
:1026200037952795AA95D1F729833A834B835C8305
:10263000A0918C04B0918D04A30192010E94302BD3
:102640004B015C01BDE0B594A79497948794BA952B
:10265000D1F7A0918E04B0918F0429813A814B81EA
:102660005C810E94302B9C01552737FD5095452FEA
:10267000280D391D4A1D5B1D2E5F3F4F4F4F5F4F89
:1026800062E055954795379527956A95D1F730586B
:102690004F4F5F4FA0919804B09199040E94EE278C
:1026A0004B015C017FE0B694A794979487947A9548
:1026B000D1F788E090E04D815E81841B950B04C0CA
:1026C000F694E794D794C7948A95D2F7A091900492
:1026D000B091910429813A814B815C810E94302B19
:1026E0009B01AC01EBE05595479537952795EA9509
:1026F000D1F729833A834B835C83A0918A04B091FC
:102700008B04A30192010E94302BFBE095958795E5
:1027100077956795FA95D1F729813A814B815C814C
:10272000620F731F841F951F409088045090890486
:10273000052C000C66087708A2E0440C551C661CAA
:10274000771CAA95D1F7640D751D861D971D012E66
:1027500004C0660F771F881F991F0A94D2F76E5F17
:102760007F4F8F4F9F4F24E030E040E050E00E94C9
:102770000B2BD701C601821B930BA40BB50B9C013D
:10278000AD0160E573EC80E090E004C0969587951C
:10279000779567951A95D2F70E94D92A97FDEDC0D3
:1027A000660F771F881F991FA50194010E94E92ACF
:1027B00069017A019927F7FC9A958F2D7E2D6D2D51
:1027C0009B01AC010E94D92A9B01AC01AEEDBBE09C
:1027D0000E94EE274B015C01A3E4B3EEA701960132
:1027E0000E94332BBC01992777FD9095892F4501D5
:1027F000BB2497FCB094AB2C680D791D8A1D9B1DE2
:102800006153714F8F4F9F4F44E095958795779512
:1028100067954A95D1F76C0D7D1D8E1D9F1D0E94F9
:10282000DF2620E836EE45EC57E40E94AC2821E094
:102830003EED42E45EE30E94542969837A838B83F0
:102840009C834090EE015090EF016090F0017090F9
:10285000F1012091F2013091F3014091F401509186
:10286000F5016091EA017091EB018091EC0190918A
:10287000ED010E9440286B017C012091F60130910E
:10288000F7014091F8015091F9010E9440289B0105
:10289000AC0160E070E080E89FE30E94AC28A701F3
:1028A00096010E941A274B015C0129813A814B81D4
:1028B0005C8160E070E080E89FE30E943F2820E0B8
:1028C0003AE24DE257E40E941A27A30192010E94C6
:1028D0003F28A50194010E941A27A30192010E949A
:1028E00040282B013C014092EE015092EF01609292
:1028F000F0017092F101A501940160E070E080E8C0
:102900009FE30E943F28A70196010E941A27609327
:10291000EA017093EB018093EC019093ED01C30108
:10292000B20126960FB6F894DEBF0FBECDBFDF9181
:10293000CF911F91FF90EF90DF90CF90BF90AF901D
:102940009F908F907F906F905F904F90089581300F
:1029500029F4AFEFBCE71197F1F7F4CD823029F4F9
:102960008FEB9AED0197F1F7EDCD9FEFA4E4B1E085
:102970009150A040B040E1F7E5CDA50194010E943F
:10298000E92A69017A01CC0CDD1CEE1CFF1C12CF78
:102990002F923F924F925F926F927F928F929F926F
:1029A000AF92BF92CF92DF92EF92FF920F931F935D
:1029B000CF93DF93CDB7DEB767970FB6F894DEBF3E
:1029C0000FBECDBF80910A01811103C081E08093C9
:1029D000630280910901811103C081E0809362024A
:1029E00080910801811103C081E0809361021A8205
:1029F000212C312C1F861D82812C912C54011F8289
:102A0000188619861A861B821C820E946A126B0124
:102A10007C0160915C0270915D0280915E029091F8
:102A20005F020E94DF269B01AC01C701B6010E9434
:102A30003F280E941E296093580270935902809388
:102A40005A0290935B0200914F0210915002209124
:102A500051023091520206171707280739070CF068
:102A600040C08091570281113CC080914D0281117C
:102A7000CCCF442443944092570248EC50E060E0AD
:102A800070E0CB010E94E10E0E9446026093530267
:102A900070935402809355029093560280912702BE
:102AA00090912802019711F401E00D8380911101AA
:102AB0008823B9F0E0911102F091120223E0EE0FA9
:102AC000FF1F2A95E1F7EF54FC4F8091120190917E
:102AD0001301A0911401B091150181839283A38306
:102AE000B483412C512C32011E821091570219835C
:102AF00011111DC04E80442009F487CF67960FB690
:102B0000F894DEBF0FBECDBFDF91CF911F910F9123
:102B1000FF90EF90DF90CF90BF90AF909F908F90FD
:102B20007F906F905F904F903F902F9008950E94FC
:102B30006A126B017C0160915C0270915D02809170
:102B40005E0290915F020E94DF269B01AC01C701EB
:102B5000B6010E943F280E941E296093580270937C
:102B6000590280935A0290935B020E9446020091A0
:102B700053021091540220915502309156026B017C
:102B80007C01C01AD10AE20AF30A48EC50E0C701FE
:102B9000B6010E94E10E10919C011123B1F10F8545
:102BA000011111C08091290290912A02092E000C76
:102BB000AA0BBB0BC816D906EA06FB0630F161E08A
:102BC0008CE00E949E048091290290912A02092E95
:102BD000000CAA0BBB0BA7019601281B390B4A0B53
:102BE0005B0BDA01C901883E9340A105B10560F095
:102BF000009163020F87011108C060E08CE00E9421
:102C00009E0421E0209363021F8710919B011123F2
:102C1000A1F1311011C080912B0290912C02092E4C
:102C2000000CAA0BBB0BC816D906EA06FB0628F156
:102C300061E089E00E949E0480912B0290912C0219
:102C4000092E000CAA0BBB0BA7019601281B390B00
:102C50004A0B5B0BDA01C901883E9340A105B1051F
:102C600058F030906202311008C060E089E00E94A4
:102C70009E0431E030936202312E10919A011123AB
:102C8000A1F1211011C080912D0290912E02092EE8
:102C9000000CAA0BBB0BC816D906EA06FB0628F1E6
:102CA00061E081E10E949E0480912D0290912E02AC
:102CB000092E000CAA0BBB0BA7019601281B390B90
:102CC0004A0B5B0BDA01C901883E9340A105B105AF
:102CD00058F020906102211008C060E081E10E945C
:102CE0009E0441E040936102212E809111018823CE
:102CF00009F45AC08091580290915902A0915A0249
:102D0000B0915B02B701A60144195509660977091C
:102D100040937A0450937B0460937C0470937D0409
:102D200080937E0490937F04A0938004B0938104E9
:102D30000E94750E0E941E29609382047093830482
:102D40008093840490938504409012015090130165
:102D500060901401709015014C8A5D8A6E8A7F8A9A
:102D600005EF40160FEF5006610471040CF4ABC080
:102D7000E0911102F091120293E0EE0FFF1F9A957D
:102D8000E1F7EF54FC4F11E0411A51086108710856
:102D900045825682678270861092110162E370E06C
:102DA00080E090E00E94D60780912702909128024F
:102DB000019741F409EBC0160BE0D006E104F104E1
:102DC00008F01D82409058025090590260905A02BB
:102DD00070905B028091FA019091FB01A091FC013F
:102DE000B091FD01481659066A067B060CF0A5C095
:102DF00080914E028111A1C01D8111119EC0809150
:102E0000040190910501A0910601B091070101977D
:102E1000A109B1098093040190930501A0930601D3
:102E2000B0930701892B8A2B8B2B09F09EC00E943F
:102E300046026F83788789879A874092170250925B
:102E400018026092190270921A020E944602AB01A7
:102E5000BC014F80588469847A84441955096609F5
:102E600077098091980190919901092E000CAA0B85
:102E7000BB0B481759076A077B0708F4DBC01091A2
:102E800002010091030161E0812F0E949E04812FC5
:102E9000902F0E9410035524539450924E020E948A
:102EA0004602009153021091540220915502309134
:102EB0005602601B710B820B930B48EC50E00E9492
:102EC000E10E1C8255C02C893D89B901330F880B56
:102ED000990B8B019C01045F1F4F2F4F3F4F088BB5
:102EE000198B2A8B3B8B2091980330919903409149
:102EF0009A0350919B03488859886A887B882415D7
:102F000035054605570530F02CE030E04AE754E03F
:102F10000E94BF088C899D890C96092E000CAA0B73
:102F2000BB0B0196A11DB11D80931201909313015B
:102F3000A0931401B093150131CF4092FA01509241
:102F4000FB016092FC017092FD0180913102909131
:102F50003202092E000CAA0BBB0B80930401909344
:102F60000501A0930601B09307014C8041106DCF7D
:102F7000409058025090590260905A0270905B0243
:102F80008091FE019091FF01A0910002B091010299
:102F9000481659066A067B0608F04FC080914E021B
:102FA000882309F44AC080914D0281110FC160E06D
:102FB000809102010E949E040E9446024B015C0126
:102FC00040921302509214026092150270921602FF
:102FD0000E944602AB01BC01481959096A097B09E4
:102FE0008091960190919701092E000CAA0BBB0BC2
:102FF000481759076A077B0708F4A5C061E080916C
:1030000000010E949E0401E000934D020E944602CE
:1030100000915302109154022091550230915602B2
:10302000601B710B820B930B48EC50E00E94E10E89
:103030001B8206C069806C829BCF7B807110C8CFD9
:1030400080914D02882351F10E9446022091960101
:10305000309197018901330F220B330BAB01BC0177
:10306000401B510B620B730B481959096A097B0904
:10307000483E53406105710588F04A80411066C0A2
:10308000109100010091010160E0812F0E949E04D7
:10309000812F902F0E94100359805A828091110134
:1030A000882309F46EC07A80772009F46DC080917E
:1030B000580290915902A0915A02B0915B020A976E
:1030C000A105B1050CF045C0E0911102F09112028A
:1030D00083E0EE0FFF1F8A95E1F7EF54FC4F8091DC
:1030E000120190911301A0911401B0911501019763
:1030F000A109B10985839683A783B0870E945D09E2
:103100008091580290915902A0915A02B0915B02AD
:103110000A97A105B1054CF5109257020E9446028C
:1031200000915302109154022091550230915602A1
:10313000601B710B820B930B48EC50E00E94E10E78
:1031400010929D0121C019811B837ACF69806A8208
:10315000A5CF0E944602681979098A099B09613244
:103160007E448105910508F0AFCF0E9446026819A0
:1031700079098A099B0961327E448105910560F6CF
:1031800003C01A811111BCCF809163028823D9F04A
:10319000809162028823B9F010916102112399F0A5
:1031A0000E94460240905302509054026090550293
:1031B00070905602641975098609970948EC50E029
:1031C0000E94E10E1E83260137018FCC4B804420E4
:1031D00009F43ACFFDCE4F925F926F927F928F9219
:1031E0009F92AF92BF92CF92DF92EF92FF920F9396
:1031F0001F93CF93DF93CDB7DEB7C056D1090FB67B
:10320000F894DEBF0FBECDBF8C010E94DD0DD8014A
:103210008C918536E9F582E792E00E94CF0DE1EBD3
:10322000F3E01182128213821482158216821782B1
:1032300010863896B4E0E937FB0799F70E945D09DC
:10324000109212021092110289EC90E0A0E0B0E01E
:103250008093120190931301A0931401B093150170
:10326000C05ADF4F0FB6F894DEBF0FBECDBFDF915F
:10327000CF911F910F91FF90EF90DF90CF90BF9073
:10328000AF909F908F907F906F905F904F90089538
:10329000823709F0E0C084E692E00E94CF0DF80189
:1032A00081810E94EF0D86E491E00E94DD0DD8013E
:1032B00011968C91119789AF12968C91882309F4FD
:1032C000BBC08AAF1BAECE01C9960E940C2697FDEB
:1032D000BFC0CE01C9960E94EE2523E0880F991F3A
:1032E0002A95E1F7FC01EF54FC4F41805280638046
:1032F000748065964CAE5DAE6EAE7FAE6597A301F1
:103300009201293C3105410551050CF49CC04580D2
:1033100056806780708469964CAE5DAE6EAE7FAEAF
:10332000699783E691E00E94DD0D10E000E0C12C7A
:10333000D12C760163966EAD7FAD6397600F711FE0
:10334000072E000C880B990B69964CAC5DAC6EACEB
:103350007FAC699746165706680679060CF46EC06E
:10336000409098035090990360909A0370909B034B
:103370004B015C012CE0820E911CA11CB11C481475
:1033800059046A047B0430F02CE030E04AE754E052
:103390000E94A70C80917A0490917B04A0917C04F8
:1033A000B0917D04C80ED91EEA1EFB1E80908204D7
:1033B00090908304A0908404B090850440907E0493
:1033C00050907F046090800470908104B701A60142
:1033D000CE0101960E9496111CAA1BAA1EAA1DAA24
:1033E00018AE1FAA69817A816115710531F04D818E
:1033F0005E81CE01C3960E946B116FE771E0CE0132
:10340000C3960E944211B301A2010E940B116FE703
:1034100071E00E944211B501A4010E940B110E94AB
:10342000000ECE01C3960E94F011CE0101960E94BB
:10343000F011035F1F4F7ECF1AAE45CF80E791E0BA
:103440000E94DD0D0DCF84E191E00E94CF0D08CFE9
:1034500081E592E0FACF873739F485E492E00E9463
:10346000CF0D0E94C814FCCE8E3659F482E392E050
:103470000E94CF0D8FE292E00E9411040E94150E6F
:10348000EFCE8C3629F480E292E00E94CF0DF6CF89
:10349000833679F480911002811106C081E0809317
:1034A00010028FE092E0D1CF109210028FEF91E0E6
:1034B000CCCF813609F00EC186EF91E00E94110455
:1034C00001EB13E0F12CE12C0E94FB028E159F050D
:1034D0000CF4FBC0D80111964D905D906D907C90DE
:1034E0001497A1964CAE5DAE6EAE7FAEA197F20181
:1034F000E93CF1050CF4E3C015964D905D906D909C
:103500007C90189765964CAE5DAE6EAE7FAE6597BB
:10351000D12CC12C812C912C54016F966EAD7FADB6
:103520006F976C0D7D1D6396EEADFFAD6397E6174B
:10353000F7070CF4C4C0072E000C880B990B9B01F5
:10354000AC01245F3F4F4F4F5F4F40909803509026
:10355000990360909A0370909B0342165306640689
:10356000750630F02CE030E04AE754E00E94A70CEA
:1035700080917A0490917B04A0917C04B0917D04A9
:10358000880E991EAA1EBB1E40918204509183048E
:103590006091840470918504CE01855B9F4F0E94E9
:1035A000C31140917E0450917F046091800470911A
:1035B0008104CE018B5B9F4F0E94C311B501A40112
:1035C000CE01CF960E9496111AAE19AE1CAE1BAE5C
:1035D0001EAE1DAE4AE0BE016F5F7F4FC7010E9465
:1035E0005A26BE016F5F7F4FCE01C9960E948C1193
:1035F0001CAA1BAA1EAA1DAA18AE1FAA45E050E0CD
:103600006BE771E0CE01C3960E946B111A8219829A
:103610001C821B821E821D8241E050E061E871E045
:10362000CE0101960E946B11BE016D5C7F4FCE01F1
:1036300001960E945811BE01675C7F4F0E9458118D
:103640006FE771E00E944211BE01615C7F4F0E94F2
:1036500058116FE771E00E944211BE016B5B7F4F12
:103660000E9458116FE771E00E944211BE01655B34
:103670007F4F0E94581169E771E00E9442110E9439
:10368000000ECE0101960E94F011CE01C3960E9459
:10369000F011CE01C9960E94F011CE01CF960E9482
:1036A000F011CE018B5B9F4F0E94F011CE01855B24
:1036B0009F4F0E94F0112DE0C20ED11C2ECF3FEF84
:1036C000E31AF30A085F1F4FFFCE8FEE91E00E94CE
:1036D0001104C6CD823609F019C186EE91E00E9430
:1036E00011040E941A12811104C083E791E00E9424
:1036F000110487E691E00E94110485E691E00E94A2
:10370000110480911B0290911C020E94C90D83E656
:1037100091E00E94110480911D0290911E020E946E
:10372000C90D81E691E00E94110480911F029091E1
:1037300020020E94C90D8FE591E00E941104809142
:103740002102909122020E94C90D8DE591E00E9414
:10375000110480912302909124020E94C90D8BE5EF
:1037600091E00E94110480912702909128020E940A
:10377000C90D89E591E00E94110480912502909184
:1037800026020E94C90D87E591E00E9411048BE496
:1037900091E00E94110489E491E00E94110481E00B
:1037A00090E00E94C90D87E491E00E94110484E139
:1037B00090E00E94C90D85E491E00E94110480917F
:1037C000290290912A020E94C90D83E491E00E948F
:1037D000110480912B0290912C020E94C90D81E46A
:1037E00091E00E94110480912D0290912E020E947E
:1037F000C90D8FE391E00E94110480912F029091F6
:1038000030020E94C90D8DE391E00E941104809165
:103810003102909132020E94C90D8BE391E00E9427
:10382000110480913302909134020E94C90D89E302
:1038300091E00E94110480913502909136020E941D
:10384000C90D87E391E00E941104809137029091A5
:1038500038020E94C90D85E391E00E941104609135
:10386000390270913A0280913B0290913C020E9491
:103870004E0D83E391E00E94110480913D029091EE
:103880003E020E94C90D81E391E00E9411048091E3
:103890003F02909140020E94C90D8FE291E00E9488
:1038A000110480914102909142020E94C90D8DE263
:1038B00091E00E94110480914302909144020E9481
:1038C000C90D8BE291E00E94110480914502909114
:1038D00046020E94C90D89E291E00E941104809184
:1038E0004702909148020E94C90D87E291E00E9430
:1038F00011048091490290914A020E94C90D84E20C
:1039000091E00E9411048FED91E0E1CE833709F040
:10391000FEC01CAB0BABF12CE12CAE014D5C5F4F3C
:103920006FE771E08BA99CA90E9433268C01009758
:1039300009F4CBC00E94DD0DF7013197E731F105A5
:1039400010F5EA55F34EC8010C942A2BBD1CC71C78
:10395000CE1CD51CDC1CE31CEA1CF11CF81CFF1C53
:10396000061D0D1D141D1B1D221D291D341D3B1D73
:10397000421D491D501D571D5E1D0E94EE2590934E
:103980001C0280931B024FEFE41AF40AC6CF0E9478
:10399000EE2590931E0280931D02F5CF0E94EE2526
:1039A0009093200280931F02EECF0E94EE25909309
:1039B000220280932102E7CF0E94EE2590932402F9
:1039C00080932302E0CF0E94EE25909326028093FD
:1039D0002502D9CF0E94EE259093280280932702DA
:1039E000D2CF0E940C2670932A0260932902CBCF7B
:1039F0000E940C2670932C0260932B02C4CF0E946D
:103A00000C2670932E0260932D02BDCF0E94EE25EE
:103A10009093300280932F02B6CF0E94EE259093B0
:103A2000320280933102AFCF0E940C267093340291
:103A300060933302A8CF0E94EE25909336028093C4
:103A40003502A1CF0E94EE25909338028093370271
:103A50009ACF0E940C266093390270933A028093A9
:103A60003B0290933C028FCF0E94EE2590933E0242
:103A700080933D0288CF0E94EE2590934002809370
:103A80003F0281CF0E94EE25909342028093410233
:103A90007ACF0E94EE25909344028093430273CF25
:103AA0000E940C2670934602609345026CCF0E94E0
:103AB000EE25909348028093470265CF0E94EE2541
:103AC00090934A02809349025ECF82E3EBE1F2E0F9
:103AD000DE01119601900D928A95E1F7FE01319673
:103AE000AE014F5C5F4F90E080E04E175F0731F012
:103AF0002191820F911D27FD9A95F7CF90934C024B
:103B000080934B020E94F8110E941D0BA9CB8436B2
:103B100019F40E94C109F6CF843749F40E94C10903
:103B20000E94F8110E941D0B8FEC91E0D0CD8636DB
:103B300031F481E08093600289EC91E0C8CD873652
:103B400029F41092600283EC91E0C1CD883619F41B
:103B50008DEB91E0BCCD893609F482CB8B3661F5D3
:103B600011968C9189831A82CE0101960E940C26AF
:103B700097FD76CBFF24F394F8018281863409F413
:103B8000F12CCE0101960E94EE258230910561F064
:103B90008330910569F0019709F062CB6F2D8CE0BD
:103BA00090E00E94160B5CCB6F2D89E090E0F9CF7E
:103BB0006F2D81E190E0F5CF8937A9F411968C91B2
:103BC000813351F48AEA91E00E94110481E08093EC
:103BD0009D0180E991E07BCD86E991E00E9411048E
:103BE00010929D01F6CF803219F48AE891E06FCDF2
:103BF00080E891E00E941104F80180810E94EF0D9D
:103C00002FCB1F920F920FB60F9211242F933F9339
:103C10004F935F936F937F938F939F93AF93BF93D4
:103C2000EF93FF9380916D0290916E02A0916F02CD
:103C3000B0917002892B8A2B8B2BD1F19091680265
:103C4000E0916902F0916A028081892780838091E6
:103C50006D0290916E02A0916F02B09170021816E1
:103C600019061A061B069CF480916D0290916E0253
:103C7000A0916F02B09170020197A109B1098093E0
:103C80006D0290936E02A0936F02B0937002FF9149
:103C9000EF91BF91AF919F918F917F916F915F91C4
:103CA0004F913F912F910F900FBE0F901F9018953D
:103CB00080911A010E94FE04EACF1F920F920FB664
:103CC0000F9211242F933F934F935F936F937F93A2
:103CD0008F939F93AF93BF93EF93FF9386EE92E002
:103CE0000E94A203FF91EF91BF91AF919F918F919D
:103CF0007F916F915F914F913F912F910F900FBEE8
:103D00000F901F9018951F920F920FB60F921124CB
:103D10002F938F939F93EF93FF93E091F602F0918F
:103D2000F7028081E091FC02F091FD0282FD1BC050
:103D300090818091FF028F5F8F7320910003821723
:103D400041F0E091FF02F0E0EA51FD4F958F809342
:103D5000FF02FF91EF919F918F912F910F900FBED6
:103D60000F901F9018958081F4CF1F920F920FB67D
:103D70000F9211242F933F938F939F93AF93BF93F1
:103D80008091E2019091E301A091E401B091E501FD
:103D90003091E10123E0230F2D3758F50196A11D45
:103DA000B11D2093E1018093E2019093E301A09380
:103DB000E401B093E5018091E6019091E701A091C3
:103DC000E801B091E9010196A11DB11D8093E601C2
:103DD0009093E701A093E801B093E901BF91AF91FF
:103DE0009F918F913F912F910F900FBE0F901F9039
:103DF000189526E8230F0296A11DB11DD2CF1F9260
:103E00000F920FB60F9211242F933F934F935F930E
:103E10006F937F938F939F93AF93BF93EF93FF9392
:103E20008091B900887F803609F44AC0F0F5883265
:103E300009F4A7C018F5803109F49BC0B8F48823B1
:103E400009F4F9C0883009F494C0FF91EF91BF9153
:103E5000AF919F918F917F916F915F914F913F9122
:103E60002F910F900FBE0F901F901895883109F475
:103E700088C0803251F78093BF0214C0803409F4A7
:103E80009DC040F48033B9F38833F9F68093BF02C4
:103E900085ECB0C0803509F485C0883509F496C03A
:103EA000883499F60E940808D0CF883909F48CC06C
:103EB00038F5883729F050F4883611F0803729F624
:103EC00083E08093C1021092E00157C0883809F462
:103ED0007BC0803919F0803809F0B7CF8091E001BC
:103EE000803208F071C0E091E00181E08E0F809394
:103EF000E0018091BB00F0E0E054FE4F80833DC0C4
:103F0000803B39F0E0F4803A09F479C0883A09F04E
:103F10009CCF84E08093C1021092BF011092BE0139
:103F2000E0916602F091670209958091BE018111CE
:103F30000FC081E08093BE0110929E0109C0803CB9
:103F400009F4A6CF883C09F4A3CF883B09F07DCFC4
:103F5000E091BF0181E08E0F8093BF01F0E0E25657
:103F6000FE4F80818093BB009091BF018091BE0184
:103F700029C080919C028093BB0085EC8093BC009B
:103F800064CF9091BE028091BD02981758F5E091E0
:103F9000BE0281E08E0F8093BE02F0E0E356FD4F3B
:103FA0008081E9CFE091BE0281E08E0F8093BE0256
:103FB0008091BB00F0E0E356FD4F80839091BE02FC
:103FC0008091BD029817C8F285E8D8CFE091BE0273
:103FD00081E08E0F8093BE028091BB00F0E0E3563B
:103FE000FD4F80838091C00281115CCF81E080937E
:103FF0009B0284EA8093BC001092C10226CF85EC1C
:104000008093BC001092C1028091E001803230F4B4
:10401000E091E001F0E0E054FE4F10826091E00199
:1040200070E0E0916402F091650280EC91E0099506
:104030001092E0010ACF1092BF0234CFE6EEF2E018
:104040001382128288EE93E0A0E0B0E0848395832F
:10405000A683B78325E231E03183208325EC30E06D
:104060003587248724EC30E03787268720EC30E042
:10407000318B208B21EC30E0338B228B22EC30E033
:10408000358B248B26EC30E0378B268B118E128EED
:10409000138E148EE3E8F3E01382128284839583F7
:1040A000A683B78387E391E091838083EFE8F3E011
:1040B00080E092E09283818381E0838380E490E0DA
:1040C0009583848380E5808380E090E0A1E0B0E088
:1040D00081879287A387B48782E090E09087878367
:1040E00080E18683EAEAF3E0108286E492E0968338
:1040F0008583E3EAF3E0108296838583ECE9F3E0BD
:104100001082968385830895CF93DF93CDB7DEB772
:10411000C85CD1090FB6F894DEBF0FBECDBF78944E
:1041200084B5826084BD84B5816084BD85B58260BC
:1041300085BD85B5816085BD80916E00816080936D
:104140006E001092810080918100826080938100D6
:1041500080918100816080938100809180008160E6
:10416000809380008091B10084608093B100809141
:10417000B00081608093B00080917A008460809369
:104180007A0080917A00826080937A0080917A0030
:10419000816080937A0080917A00806880937A00B1
:1041A0001092C1000E941A1280930202811104C071
:1041B0000E94C1090E94F8118091390290913A023F
:1041C000A0913B02B0913C028C3221E09207A10504
:1041D000B10509F452C0803B24E09207A105B10566
:1041E00009F44BC0803629E09207A105B10509F416
:1041F00044C0803C22E19207A105B105F1F180386D
:1042000025E29207A105B105C1F1803428E39207A8
:10421000A105B10591F181152BE49207A105B10526
:1042200061F1803820E79207A105B10531F18115D0
:1042300026E99207A105B10501F1811521EE92074A
:10424000A105B105D1F0811522EC920721E0A2076A
:10425000B10599F081159448A340B10571F080E053
:1042600096E9A0E0B0E08093390290933A02A093DF
:104270003B02B0933C020E94F8110E941D0B82ED9C
:1042800090E0A0E8B0E48093F6019093F701A0934A
:10429000F801B093F9018CE69FECACE4BEE38093A7
:1042A000F2019093F301A093F401B093F501109201
:1042B000EE011092EF011092F0011092F1011092B4
:1042C000EA011092EB011092EC011092ED010E94B4
:1042D000CC04C0903902D0903A02E0903B02F090BA
:1042E0003C0260E079E08DE390E0A70196010E9436
:1042F000E92A2150310941095109569547953795C9
:104300002795E091F602F091F70282E08083C114D4
:1043100081EED806E104F10421F0211580E138078F
:10432000A8F0E091F602F091F702108260E874E8DC
:104330008EE190E0A70196010E94E92A21503109FF
:10434000410951095695479537952795E091F20215
:10435000F091F3023083E091F402F091F5022083B2
:104360001092FE02E091FA02F091FB0286E0808357
:10437000E091F802F091F902808180618083E09100
:10438000F802F091F902808188608083E091F80260
:10439000F091F902808180688083E091F802F091C9
:1043A000F90280818F7D808362E080E00E942A058F
:1043B00080913D02843008F083E0809387040E945E
:1043C000CC0480ED0E948A0C853509F04DC08AEA44
:1043D0000E94630C90938904809388048CEA0E9465
:1043E000630C90938B0480938A048EEA0E94630C82
:1043F00090938D0480938C0480EB0E94630C9093C7
:1044000099048093980482EB0E94630C90939B0420
:1044100080939A0484EB0E94630C90939D04809394
:104420009C0486EB0E94630C90938F0480938E040F
:1044300088EB0E94630C90939104809390048AEB24
:104440000E94630C90939304809392048CEB0E94DF
:10445000630C90939504809394048EEB0E94630CFC
:10446000909397048093960410924E0210924D02FE
:104470008FEB92E00E94110461E08CE00E942A051B
:1044800061E089E00E942A0561E081E10E942A053D
:1044900061E08DE00E942A0560E088E00E942A0524
:1044A00060E087E00E942A0560E08AE00E942A0519
:1044B00060E08BE00E942A0560E080E10E942A050E
:1044C00060E08CE00E949E0460E089E00E949E040F
:1044D00060E081E10E949E0460E08DE00E949E0405
:1044E0008091410290914202019709F0FCC181E064
:1044F000809310020E94630A04E110E00E94950A72
:1045000001501109D9F780910202811125C084E67A
:1045100090E0A0E0B0E08093FE019093FF01A093B3
:104520000002B093010288E00E9475048C0187E0CC
:104530000E9475040115110509F0D8C1892B61F499
:1045400082E390E0A0E0B0E08093FE019093FF0151
:10455000A0930002B093010202E310E00E946A12ED
:1045600001501109D9F70AE010E0C12CD12C7601D5
:104570000E946A122B013C01C701B6010E94DF268E
:10458000A30192010E9440280E941E296B017C0118
:1045900062E370E080E090E00E94D60701501109CC
:1045A00039F7C701B6010E94DF2620E030E040E283
:1045B00051E40E94AC280E941E2960935C02709313
:1045C0005D0280935E0290935F021092FA01109256
:1045D000FB011092FC011092FD0180914702909125
:1045E0004802092E000CAA0BBB0B80934F0290933C
:1045F0005002A0935102B09352020E94280D0E94D3
:10460000FB0297FF7FC1109212021092110289ECF7
:1046100090E0A0E0B0E08093120190931301A0938A
:104620001401B09315010E94FB02AC01092E000C8D
:10463000660B770B4F3F2FEF520762077207C1F0EF
:10464000483151056105710509F47AC1F3E0880F1D
:10465000991FFA95E1F7FC01EF54FC4F8581968193
:10466000A781B0858D3D9F4FA105B1050CF068C1B4
:1046700081E080931101E9EC8E2E912CA12CB12CBC
:1046800070E0C72E70E0D72E81EC93E00E94CF0D32
:1046900081EB93E00E94CF0D8DE993E00E94CF0D56
:1046A00087E693E00E94CF0D8EE493E00E94CF0D49
:1046B00081E393E00E94CF0D81E193E00E94CF0D52
:1046C00088EF92E00E94CF0D8EEC92E00E94CF0D19
:1046D00010E000E060E2F62E8BE3F81609F466C203
:1046E0008091600281113FC20E946A122B013C013D
:1046F00060915C0270915D0280915E0290915F0218
:104700000E94DF269B01AC01C301B2010E943F2839
:104710000E941E29609358027093590280935A0296
:1047200090935B0280915702882391F00E94460289
:10473000409053025090540260905502709056027F
:10474000641975098609970948EC50E00E94E10E4A
:10475000409158025091590260915A0270915B0247
:1047600080914F0290915002A0915102B09152025B
:1047700084179507A607B7070CF467C1809110024C
:1047800081112BC080914E02811127C080910F01B1
:1047900090911001019609F0DAC080910F02811109
:1047A0000AC081E080930F0240E050E0BA018AEA3B
:1047B00093E00E949F09E0910D02F0910E02EE0F2E
:1047C000FF1FEB5FFD4F8081918190930E018093DD
:1047D0000D019093100180930F0144EF51E060E0D0
:1047E00070E0CB010E94E10E0E9446022B013C01C9
:1047F00080914E02882309F4B6C1E0904D02EE206C
:1048000009F4B1C186EE92E00E948203892BA9F0DF
:1048100086EE92E00E946003F82E2BE3821709F4E3
:1048200017C18AE0F81649F0E1E0F0E0EC0FFD1F57
:10483000E00FF11FF0820F5F1F4F0E9446026419C4
:10484000750986099709613177428105910580F2E2
:104850000E94760A609117027091180280911902E5
:1048600090911A0240901601509017016090180123
:104870007090190120911D0230911E02232B09F026
:104880005CC10E94DF26A30192010E941A270E94A8
:104890001E290E94A80A0E94760A60911302709154
:1048A00014028091150290911602409016015090CA
:1048B0001701609018017090190120911D0230912C
:1048C0001E02232B09F044C10E94DF26A30192019E
:1048D0000E941A270E941E290E94A80A0E944602CE
:1048E0002B013C01AACF1092100204CE0130110519
:1048F00009F032CE009709F069C186E990E0A0E0A6
:10490000B0E022CEFC01A3E0EE0FFF1FAA95E1F775
:10491000EF54FC4F45815681678170854F5F5F4F33
:104920006F4F7F4F40931201509313016093140116
:10493000709315010196909312028093110273CE29
:104940001092110183E891E00E94DD0D94CE8AEA75
:1049500093E00E947909882371F18DE00E94FE04A2
:1049600080910D0190910E019093100180930F01A1
:1049700080910D0290910E02019690930E02809309
:104980000D0220910B0130910C012817390724F4F6
:1049900010920E0210920D0280910D0290910E0263
:1049A000892B09F043C044EC59E060E070E08CE9E9
:1049B00093E00E949F098CE993E00E947909882383
:1049C00041F04AEF50E060E070E083EA93E00E943B
:1049D0009F0983EA93E00E947909882309F4FDCEB8
:1049E000E0910D02F0910E02EE0FFF1FEB5FFD4F05
:1049F0008081918180930D0190930E010E94750436
:104A0000209103023091040248EE53E060E070E030
:104A1000892B99F4C9010E9466054CED55E060E0D0
:104A200070E08AEA93E00E949F09D7CE4AEF50E0F7
:104A300060E070E083EA93E0BCCFC9010E946605A4
:104A40004CE251E060E070E0ECCF0E94C814CCCEA4
:104A500018012FEF221A320AE1E0F0E0EC0FFD1FFF
:104A6000E00FF11F108210924E0210924D02109230
:104A700057021092630210926202109261020E9429
:104A8000280D0E94FB0297FF3AC01092120210926A
:104A900011028092120190921301A0921401B0921F
:104AA00015010E94FB02AC01092E000C660B770B6E
:104AB0004F3F2FEF520762077207C9F04831510587
:104AC0006105710599F023E0880F991F2A95E1F798
:104AD000FC01EF54FC4FEE24E39485819681A7817D
:104AE000B0858D3D9F4FA105B1050CF0E12CE09202
:104AF0001101CE0101960E94EB1881019ECEFC01AE
:104B000033E0EE0FFF1F3A95E1F7EF54FC4F45817C
:104B10005681678170854F5F5F4F6F4F7F4F409326
:104B200012015093130160931401709315010196C3
:104B30009093120280931102B4CF0E94DF26A3014A
:104B400092010E941A270E941E290E944D10A3CE96
:104B50000E94DF26A30192010E941A270E941E29AB
:104B60000E944D10BBCE86EE92E00E948203892BFC
:104B700009F4B2CD86EE92E00E946003F82E8BE33A
:104B8000F81669F02AE0F21671F3E1E0F0E0EC0FBC
:104B9000FD1FE00FF11FF0820F5F1F4FE4CFE1E038
:104BA000F0E0EC0FFD1FE00FF11F1082CE01019627
:104BB0000E94EB18C114D10409F466CD0E948E0343
:104BC000882309F45DCD0E9400005ACD019709F0B9
:104BD000C3CC88EC90E0A0E0B0E0B6CCFC01882724
:104BE0009927E89421912032E9F3293010F02E30F2
:104BF000C8F32B3241F02D3239F4689404C00E947E
:104C00008926820F911D219120532A30C0F31EF472
:104C1000909581959F4F08951F93FC0199278827B0
:104C2000BC01E89411911032E9F3193010F01E30F4
:104C3000C8F31B3251F01D3249F4689406C00E943B
:104C40007426610F711D811D911D119110531A3031
:104C5000B0F33EF490958095709561957F4F8F4F9E
:104C60009F4F1F910895FA01A191B081009719F407
:104C70001097E1F0CD01DC01CD010D90002011F481
:104C8000C00113C0FB012191222319F02015D9F78F
:104C9000F3CFFB012191201519F41E92119606C045
:104CA0002223C1F70D900020A1F7D001FA01A193B2
:104CB000B0830895BB274A3031F4992322F4BDE232
:104CC000909581959F4F0C94B426BB272A3051F4C0
:104CD000992342F4BDE290958095709561957F4F40
:104CE0008F4F9F4F0C949226592F482F372F262FE6
:104CF000660F771F881F991F660F771F881F991FE0
:104D0000620F731F841F951F660F771F881F991FDF
:104D100008957AE0979F902D879F802D910D112403
:104D20000895BB27FA01A62F621771058105910529
:104D3000330B30FB66F0AA27660F771F881F991F79
:104D4000AA1FA21710F0A21B63953850A9F7A05D07
:104D5000AA3308F0A95DA19336F7B111B19310827F
:104D6000CA010C94CD26BB27FB015527AA27880F23
:104D7000991FAA1FA41710F0A41B83955051B9F7CF
:104D8000A05DAA3308F0A95DA193009779F7B1114E
:104D9000B1931192CB010C94CD26DC01FC01672F5D
:104DA00071917723E1F7329704C07C916D93708302
:104DB0006291AE17BF07C8F30895E89409C097FB46
:104DC0003EF490958095709561957F4F8F4F9F4FE2
:104DD0009923A9F0F92F96E9BB279395F695879526
:104DE00077956795B795F111F8CFFAF4BB0F11F4E9
:104DF00060FF1BC06F5F7F4F8F4F9F4F16C0882390
:104E000011F096E911C0772321F09EE8872F762FC5
:104E100005C0662371F096E8862F70E060E02AF006
:104E20009A95660F771F881FDAF7880F96958795F2
:104E300097F908950E942D270C949E270E94902791
:104E400038F00E94972720F0952311F00C948727C3
:104E50000C948D2711240C94D2270E94AF2770F355
:104E6000959FC1F3950F50E0551F629FF001729F0F
:104E7000BB27F00DB11D639FAA27F00DB11DAA1F1E
:104E8000649F6627B00DA11D661F829F2227B00D6B
:104E9000A11D621F739FB00DA11D621F839FA00DF6
:104EA000611D221F749F3327A00D611D231F849F46
:104EB000600D211D822F762F6A2F11249F5750409D
:104EC0009AF0F1F088234AF0EE0FFF1FBB1F661F18
:104ED000771F881F91505040A9F79E3F510580F0E1
:104EE0000C9487270C94D2275F3FE4F3983ED4F3C9
:104EF000869577956795B795F795E7959F5FC1F785
:104F0000FE2B880F911D9695879597F9089597F92F
:104F10009F6780E870E060E008959FEF80EC08955F
:104F200000240A9416161706180609060895002488
:104F30000A9412161306140605060895092E039402
:104F4000000C11F4882352F0BB0F40F4BF2B11F476
:104F500060FF04C06F5F7F4F8F4F9F4F089557FDD5
:104F60009058440F551F59F05F3F71F04795880FD7
:104F700097FB991F61F09F3F79F08795089512166E
:104F800013061406551FF2CF4695F1DF08C016161A
:104F900017061806991FF1CF8695710561050894CB
:104FA0000895E894BB2766277727CB0197F90895E2
:104FB000F999FECF92BD81BDF89A992780B50895E1
:104FC000262FF999FECF1FBA92BD81BD20BD0FB625
:104FD000F894FA9AF99A0FBE019608950E94302823
:104FE000A59F900DB49F900DA49F800D911D11243D
:104FF00008952F923F924F925F926F927F928F927D
:105000009F92AF92BF92CF92DF92EF92FF920F9357
:105010001F93CF93DF93CDB7DEB7CA1BDB0B0FB661
:10502000F894DEBF0FBECDBF09942A88398848881E
:105030005F846E847D848C849B84AA84B984C884B4
:10504000DF80EE80FD800C811B81AA81B981CE0FAB
:10505000D11D0FB6F894DEBF0FBECDBFED01089590
:10506000A29FB001B39FC001A39F700D811D1124A9
:10507000911DB29F700D811D1124911D08955058EE
:10508000BB27AA270E9457280C949E270E9490278E
:1050900038F00E94972720F039F49F3F19F426F446
:1050A0000C948D270EF4E095E7FB0C948727E92FED
:1050B0000E94AF2758F3BA17620773078407950752
:1050C00020F079F4A6F50C94D1270EF4E0950B2E80
:1050D000BA2FA02D0B01B90190010C01CA01A0014A
:1050E0001124FF27591B99F0593F50F4503E68F1A5
:1050F0001A16F040A22F232F342F4427585FF3CFE6
:10510000469537952795A795F0405395C9F77EF4B6
:105110001F16BA0B620B730B840BBAF09150A1F0FF
:10512000FF0FBB1F661F771F881FC2F70EC0BA0F85
:10513000621F731F841F48F4879577956795B7950D
:10514000F7959E3F08F0B0CF9395880F08F0992708
:10515000EE0F9795879508950E94C0280C949E277E
:105160000E94972758F00E94902740F029F45F3F53
:1051700029F00C94872751110C94D2270C948D2779
:105180000E94AF2768F39923B1F3552391F3951B40
:10519000550BBB27AA2762177307840738F09F5F58
:1051A0005F4F220F331F441FAA1FA9F335D00E2EC5
:1051B0003AF0E0E832D091505040E695001CCAF732
:1051C0002BD0FE2F29D0660F771F881FBB1F2617F5
:1051D00037074807AB07B0E809F0BB0B802DBF01CC
:1051E000FF2793585F4F3AF09E3F510578F00C949B
:1051F00087270C94D2275F3FE4F3983ED4F386953B
:1052000077956795B795F7959F5FC9F7880F911DBB
:105210009695879597F90895E1E0660F771F881FA7
:10522000BB1F621773078407BA0720F0621B730B5A
:10523000840BBA0BEE1F88F7E09508950E9425298C
:105240006894B1110C94D22708950E94B72788F072
:105250009F5798F0B92F9927B751B0F0E1F0660F3A
:10526000771F881F991F1AF0BA95C9F714C0B1307B
:1052700091F00E94D127B1E008950C94D127672FB7
:10528000782F8827B85F39F0B93FCCF386957795AA
:105290006795B395D9F73EF4909580957095619593
:1052A0007F4F8F4F9F4F0895FA01EE0FFF1F3096EB
:1052B00021053105A1F16115710561F48038BFE365
:1052C0009B0749F168949038810561F08038BFEF01
:1052D0009B0741F099234AF5FF3FE1053105210580
:1052E00019F1E8940894E795D901AA2329F4AB2F82
:1052F000BE2FF85FD0F310C0FF5F70F4A695E0F703
:10530000F73950F019F0FF3A38F49F779F930DD09A
:105310000F9007FC9058089546F00C948D2760E09C
:1053200070E080E89FE308954FE79F775F934F9386
:105330003F932F930E944F2A2F913F914F915F915E
:105340000E941A270C94AC2929F416F00C94872794
:105350000C94D1270C948D270E94B727A8F3963878
:10536000A0F707F80F92E8942BE33AEA48EB5FE7DF
:105370000E9430270F920F920F924DB75EB70F9297
:105380000E94972AE8E6F0E00E94DE294F915F91A3
:10539000EF91FF91E595EE1FFF1F49F0FE57E06882
:1053A0004427EE0F441FFA95E1F74195550B0E94F3
:1053B000112A0F9007FE0C94052A0895DF93CF93CE
:1053C0001F930F93FF92EF92DF927B018C01689401
:1053D00006C0DA2EEF010E942D27FE01E894A59168
:1053E0002591359145915591A6F3EF010E945728DB
:1053F000FE019701A801DA9469F7DF90EF90FF9022
:105400000F911F91CF91DF9108959B01AC0160E056
:1054100070E080E89FE30C94AC280C9487270C94F0
:10542000CB2A0E94B727D8F39923C9F3940F511DB3
:10543000A3F39150504094F059F0882332F0660F56
:10544000771F881F91505040C1F79E3F51052CF7A0
:10545000880F911D9695879597F908955F3FACF059
:10546000983E9CF0BB27869577956795B79508F48D
:10547000B1609395C1F7BB0F58F711F460FFE8CF07
:105480006F5F7F4F8F4F9F4FE3CF0C94D22716F063
:105490000C94CB2A0C948D2768940C9487270E9437
:1054A000B727A8F39923C1F3AEF3DF93CF931F93EC
:1054B0000F93FF92C92FDD2788232AF02197660FCB
:1054C000771F881FDAF720E030E040E85FEB9FE3CA
:1054D000883920F0803E38F021968F770E9440284E
:1054E000E0E9F0E004C00E944028EDEBF0E00E940B
:1054F000DE298B01BE01EC01FB2E6F5771097595FA
:10550000771F880B990B0E94DF2628E132E741E3E1
:105510005FE30E942D27AF2D9801AE01FF900F9100
:105520001F91CF91DF910E9457280C949E27FA017A
:10553000DC01AA0FBB1F9B01AC01BF5728F4222737
:1055400033274427507820C0B75190F4AB2F002464
:10555000469537952795011CA395D2F3002071F04D
:10556000220F331F441FB395DAF30ED00C943F285B
:1055700061307105A0E88A07B94630F49B01AC019F
:105580006627772788279078309621F0208331830B
:105590004283538308959F3F31F0915020F48795C3
:1055A00077956795B795880F911D9695879597F98B
:1055B0000895DB018F939F930E94EE27BF91AF91D7
:1055C000A29F800D911DA39F900DB29F900D11245D
:1055D0000895A1E21A2EAA1BBB1BFD010DC0AA1F34
:1055E000BB1FEE1FFF1FA217B307E407F50720F04C
:1055F000A21BB30BE40BF50B661F771F881F991FC7
:105600001A9469F760957095809590959B01AC010F
:10561000BD01CF010895052E97FB1EF400940E9452
:10562000222B57FD07D00E94E92A07FC03D04EF435
:105630000C94222B50954095309521953F4F4F4F1C
:105640005F4F089590958095709561957F4F8F4F2E
:105650009F4F0895EE0FFF1F0590F491E02D0994E0
:10566000B7FF0C94EE270E94EE27821B930B089540
:105670000F931F93CF93DF938230910510F482E054
:1056800090E0E091A004F091A10430E020E0B0E0CF
:10569000A0E0309799F42115310509F44AC0281B80
:1056A000390B24303105D8F58A819B81611571054C
:1056B00089F1FB0193838283FE0111C040815181F6
:1056C0000281138148175907E0F04817590799F4E8
:1056D000109761F012960C93129713961C933296C2
:1056E000CF01DF91CF911F910F9108950093A004F6
:1056F0001093A104F4CF2115310551F0421753073F
:1057000038F0A901DB019A01BD01DF01F801C1CF29
:10571000EF01F9CF9093A1048093A004CDCFFE01B7
:10572000E20FF31F8193919322503109398328832B
:10573000D7CF20919E0430919F04232B41F42091D8
:105740001D0130911E0130939F0420939E042091EF
:105750001B0130911C012115310541F42DB73EB7D5
:1057600040911F0150912001241B350BE0919E04B4
:10577000F0919F04E217F307A0F42E1B3F0B2817AC
:10578000390778F0AC014E5F5F4F2417350748F0BA
:105790004E0F5F1F50939F0440939E0481939193FB
:1057A0009FCFF0E0E0E09CCFCF93DF930097E9F04C
:1057B000FC01329713821282A091A004B091A1043F
:1057C000ED0130E020E01097A1F420813181820FBB
:1057D000931F20919E0430919F042817390709F0E8
:1057E00061C0F0939F04E0939E04DF91CF910895F0
:1057F000EA01CE17DF07E8F54A815B819E0141157A
:105800005105B1F7E901FB83EA8349915991C40F2E
:10581000D51FEC17FD0761F4808191810296840FFA
:10582000951FE90199838883828193819B838A8371
:10583000F0E0E0E012968D919C9113970097B9F5F6
:105840002D913C911197CD010296820F931F2091CB
:105850009E0430919F042817390739F6309751F587
:105860001092A1041092A004B0939F04A0939E04F0
:10587000BCCFD383C28340815181840F951FC81749
:10588000D90761F44E5F5F4F88819981480F591F96
:10589000518340838A819B819383828321153105C3
:1058A00009F0B0CFF093A104E093A0049ECFFD01D6
:1058B000DC01C0CF13821282D7CFB0E0A0E0E3E6D4
:1058C000FCE20C94FB278C01009751F4CB010E9461
:1058D000382B8C01C801CDB7DEB7E0E10C94172856
:1058E000FC01E60FF71F9C0122503109E217F30774
:1058F00008F49DC0D901CD91DC911197C617D70747
:1059000098F0C530D10530F3CE010497861797077C
:1059100008F3C61BD70B2297C193D1936D937C9349
:10592000CF010E94D42BD6CF5B01AC1ABD0A4C012B
:105930008C0E9D1EA091A004B091A104512C412C6D
:10594000F12CE12C109731F580919E0490919F04E9
:105950008815990509F05CC04616570608F058C02E
:1059600080911B0190911C01009741F48DB79EB767
:1059700040911F0150912001841B950BE817F907F6
:1059800008F055C0F0939F04E0939E04F9017183E1
:105990006083A0CF8D919C91119712966C90129775
:1059A00013967C901397A815B90559F56C0142E040
:1059B000C40ED11CCA14DB0420F1AC014A195B09E6
:1059C000DA011296159780F06282738251834083C8
:1059D000D9016D937C93E114F10471F0D701139612
:1059E000FC93EE93129776CF22968C0F9D1FF901B0
:1059F00091838083F301EFCFF093A104E093A0049F
:105A000069CF4816590608F42C017D01D3019ACFBD
:105A1000CB010E94382B7C01009749F0AE01B80100
:105A20000E941A2DC8010E94D42B870153CF10E089
:105A300000E050CFFB01DC0102C001900D9241500B
:105A40005040D8F70895FB01DC0101900D92002031
:085A5000E1F70895F894FFCF7F
:105A580009000C0005000000010101FFFFFFFFFF26
:105A6800FF01C80000000000803FFF0000A2048082
:105A78000000000000C403240351032C04820360C7
:105A88000374030000000090086308760939085C75
:105A98000849083A080D0A00466C69676874204E80
:105AA80062723A200053746172743A2000456E6441
:105AB8003A20005374617274466C696768743B00DD
:105AC800456E64466C696768743B00646174612C58
