:100000000C9431010C9459010C9459010C94590130
:100010000C9459010C9459010C9459010C94B0158D
:100020000C9459010C9459010C9459010C94CD175E
:100030000C9459010C9459010C9459010C945901D8
:100040000C9464160C9459010C9432160C940C16F2
:100050000C9459010C9459010C9459010C945901B8
:100060000C94AE160C94590107634236B79BD8A77F
:100070001A39685618AEBAAB558C1D3CB7CC5763CD
:10008000BD6DEDFD753EF6177231BF000000803F7B
:1000900008000000BE922449123EABAAAA2ABECD97
:1000A000CCCC4C3E00000080BEABAAAAAA3E000009
:1000B0000000BF000000803F000000000008417801
:1000C000D3BB4387D1133D190E3CC3BD4282AD2B38
:1000D0003E68EC8276BED98FE1A93E4C80EFFFBE30
:1000E00001C4FF7F3F0000000000696E76616C690B
:1000F0006420636F6E660024554E4B4E4F574E3B47
:1001000000244B303B0A00636F6E6669672072659E
:1001100073657465640A00244F4B3B0A00244F4BFF
:100120003B0A00244F4B3B0A0054656C656D6574B7
:1001300072792064697361626C65640A0054656C4D
:10014000656D6574727920656E61626C65640A0024
:10015000244F4B3B0A00244F4B3B0A00244B4F3BA0
:100160000A00244F4B3B0A0024656E643B0A0024BE
:1001700073746172743B0A004E6F7420696D706C09
:10018000656D656E746564200A004E6F7420696D3C
:10019000706C656D656E746564200A004E6F742026
:1001A000696D706C656D656E746564200A004E6FD4
:1001B0007420696D706C656D656E746564200A00ED
:1001C0004E6F7420696D706C656D656E746564202A
:1001D0000A004E6F7420696D706C656D656E746594
:1001E00064200A004E6F7420696D706C656D656ED9
:1001F000746564200A0000000000240027002A0023
:100200000000000023002600290000000008000272
:100210000100000304070000000000000000537408
:100220006172742070726F6772616D0A000102045E
:100230000810204080010204081020010204081068
:100240002000000000250028002B00040404040402
:100250000404040202020202020303030303030272
:10026000A41811241FBECFEFD8E0DEBFCDBF11E030
:10027000A0E0B1E0E0EFF7E502C005900D92A037F5
:10028000B107D9F723E0A0E7B1E001C01D92A83C77
:10029000B207E1F711E0C1E3D1E004C02197FE010C
:1002A0000E940D29C033D107C9F70E94FD180C9494
:1002B000F62B0C9400002FB7F8946091E101709137
:1002C000E2018091E3019091E4012FBF0895209114
:1002D000E60281E0213208F044C08091C20281111F
:1002E000FCCF8091E50292E09093C20291E090935E
:1002F000C1029FEF9093C0021092BF022093BE02F2
:10030000A5ECB2E0EEE9F2E090E0291331C01092E2
:100310009D0290919D02880F892B80939D02809170
:100320009C02813049F510929C0280919D0280933D
:10033000BB008091BC0083FDF8CF85EC8093BC00AE
:100340008091C2028230E1F38091C0028F3FB1F010
:100350008091C0028032A1F08091C002803391F080
:1003600084E01092C4021092E6021092C302089533
:100370003D9131939F5FC9CF85EEE0CF80E0F1CF13
:1003800082E0EFCF83E0EDCF089508950895AF9216
:10039000BF92CF92DF92EF92FF920F931F93CF9372
:1003A000DF936C017B018B01040F151FEB015E01D4
:1003B000AE18BF08C017D10759F06991D601ED9169
:1003C000FC910190F081E02DC6010995892B79F708
:1003D000C501DF91CF911F910F91FF90EF90DF90BA
:1003E000CF90BF90AF900895FC01538D448D252F81
:1003F00030E0842F90E0821B930B541710F0CF96BF
:10040000089501970895FC01918D828D981761F0F0
:10041000A28DAE0FBF2FB11D5D968C91928D9F5F07
:100420009F73928F90E008958FEF9FEF0895FC01E6
:10043000918D828D981731F0828DE80FF11D858D99
:1004400090E008958FEF9FEF0895FC01918D228D2C
:10045000892F90E0805C9F4F821B91098F739927B1
:10046000089587EE92E00E94250221E0892B09F48D
:1004700020E0822F089580E090E0892B29F00E94EF
:10048000310281110C9400000895FC01A48DA80F85
:10049000B92FB11DA35ABF4F2C91848D90E00196C6
:1004A0008F739927848FA689B7892C93A089B189E6
:1004B0008C91837080648C93938D848D981306C087
:1004C0000288F389E02D80818F7D80830895EF92EB
:1004D000FF920F931F93CF93DF93EC0181E0888FFE
:1004E0009B8D8C8D98131AC0E889F989808185FFCE
:1004F00015C09FB7F894EE89FF896083E889F98970
:1005000080818370806480839FBF81E090E0DF9171
:10051000CF911F910F91FF90EF900895F62E0B8DC4
:1005200010E00F5F1F4F0F731127E02E8C8D8E117F
:100530000CC00FB607FCFACFE889F989808185FFE6
:10054000F5CFCE010E944502F1CFEB8DEC0FFD2FD0
:10055000F11DE35AFF4FF0829FB7F8940B8FEA89A1
:10056000FB8980818062CFCF0F931F93CF93DF935E
:100570008C01D0E0C0E0F801EC0FFD1F6491662310
:1005800041F087EE92E00E946702892B11F02196DC
:10059000F2CFCE01DF91CF911F910F910895CF93AC
:1005A000DF93EC01888D8823B9F0AA89BB89E8899B
:1005B000F9898C9185FD03C0808186FD0DC00FB641
:1005C00007FCF7CF8C9185FFF2CF808185FFEDCFBF
:1005D000CE010E944502E9CFDF91CF91089583308B
:1005E00081F028F4813099F08230A9F008958730A5
:1005F000A9F08830C9F08430B1F4809180008F7DFB
:1006000003C0809180008F7780938000089584B527
:100610008F7784BD089584B58F7DFBCF8091B00026
:100620008F778093B00008958091B0008F7DF9CFCF
:10063000CF93DF93282F30E0F901E65FFD4F8491DF
:10064000F901E35DFD4FD491F901E55BFD4FC491E4
:10065000CC23A1F081110E94EF02EC2FF0E0EE0F0D
:10066000FF1FE050FE4FA591B491EC91ED2381E086
:1006700090E009F480E0DF91CF91089580E090E070
:10068000FACF1F93CF93DF93282F30E0F901E65F75
:10069000FD4F8491F901E35DFD4FD491F901E55BD4
:1006A000FD4FC491CC23A9F0162F81110E94EF02B7
:1006B000EC2FF0E0EE0FFF1FEF5BFD4FA591B49123
:1006C0008FB7F894EC91111108C0D095DE23DC931C
:1006D0008FBFDF91CF911F910895DE2BF8CF10923D
:1006E0007B0210927A021092C4021092E6021092DB
:1006F000C20281E08093C10210929C0261E082E11B
:100700000E94410361E083E10E944103E9EBF0E0D4
:1007100080818E7F808380818D7F808388E4809339
:10072000B80085E48093BC0085EC91E0909368026A
:100730008093670286EC91E0909366028093650255
:1007400008959091080189130BC0EFE5F2E0E49160
:100750009FEF90930801E13049F028F0E23061F01A
:1007600060E00C94410310926E00FACF90916F00FC
:100770009D7F90936F00F4CF909170009D7F909338
:10078000700091E09093B0009091B100987F9460D8
:100790009093B1001092B300E3CFCF93DF9390E03A
:1007A000FC01E35DFD4F2491855B9D4FFC0184912D
:1007B0008823C9F090E0880F991FFC01EA50FE4F92
:1007C000A591B491FC01EF5BFD4FC591D4916111EE
:1007D0000DC09FB7F8948C91209582238C938881CB
:1007E000282328839FBFDF91CF910895623051F471
:1007F0009FB7F8943C91822F809583238C93E88156
:100800002E2BEFCF8FB7F894EC912E2B2C938FBF1C
:10081000EACF4F925F926F927F928F929F92AF92A8
:10082000BF92CF92DF92EF92FF920F931F93CF93DD
:10083000DF9300D000D01F92CDB7DEB78C01498383
:100840005A836B837C83809108018D30C9F08F3F80
:1008500009F47DC00F900F900F900F900F90DF91D3
:10086000CF911F910F91FF90EF90DF90CF90BF90AD
:10087000AF909F908F907F906F905F904F90089572
:10088000EFE5F2E084918D8387FDE4CF61E08DE0B8
:100890000E94CD038D81882321F09D81923009F043
:1008A00044C14801B12CA12C60E072E18AE790E0DC
:1008B000A50198010E94F92429013A017A016901F0
:1008C00081E0C81AD108E108F1089FEFC916D104E8
:1008D000E104F10409F00CF4F7C060E472E48FE085
:1008E00090E0A50198010E94F92469017A0181E054
:1008F000C81AD108E108F1089D81923009F098C02A
:100900008FEFC816D104E104F10409F00CF4CAC158
:1009100060E970ED83E090E0A50198010E94F92460
:1009200069017A0191E0C91AD108E108F1088FEF55
:10093000C816D104E104F10411F00CF065C183E0A4
:100940009091B100987F892B8093B100C5C08DE054
:1009500080930801EFE5F2E094919D839F3F09F4B5
:1009600079CF913029F158F0923009F43FC09D8140
:1009700097FD70CF61E08DE00E94CD038ECF14BC57
:1009800015BC84B5826084BD85B5816085BDE8E510
:10099000F2E0E491F0E0EE0FFF1FEF5BFD4F859179
:1009A0009491EAE3F2E0E491E0936D021D826ECF50
:1009B0001092800010928100809181008860809365
:1009C000810080918100816080938100E8E5F2E000
:1009D000E491F0E0EE0FFF1FEF5BFD4F85919491E6
:1009E000EAE3F2E0E491E0936C0250CF1092B000A1
:1009F0001092B1008091B00082608093B00080912D
:100A0000B10081608093B100E8E5F2E0E491F0E0AC
:100A1000EE0FFF1FEF5BFD4F8591949190936B025A
:100A200080936A02EAE3F2E0E491E09369022ECF58
:100A30009FEFC916D104E104F10409F00CF473C06E
:100A400068E478EE81E090E0A50198010E94F92425
:100A500069017A0181E0C81AD108E108F1089D8195
:100A6000992309F4EAC09FEFC916D104E104F10407
:100A700009F00CF4E0C0EAC064E274EF80E090E0BA
:100A8000A50194010E94F92469017A0181E0C81A44
:100A9000D108E108F10885E09FEFC916D104E1040F
:100AA000F10409F008F44CCF62E17AE780E090E0CD
:100AB000A50194010E94F92469017A0181E0C81A14
:100AC000D108E108F108D5C081E09D81911138CFAE
:100AD00095B5987F892B85BDD801AA0FBB1F2981A9
:100AE0003A814B815C810E94182528EE33E040E07A
:100AF00050E00E942B258D81813009F44AC082305C
:100B000009F459C08111A6CEC7BC20937602309358
:100B10007702409378025093790280916E00826050
:100B200080936E0097CE82E0D0CFB12CA12C60E0F4
:100B300072E18AE790E0A50198010E94F924690119
:100B40007A0181E0C81AD108E108F108C114D10482
:100B500091E0E906F10464F491E08D81813009F0BF
:100B6000BBCF80918100887F892B80938100B4CF97
:100B700068E478EE81E090E0A50198010E94F924F4
:100B800069017A0181E0C81AD108E108F10893E00F
:100B9000E4CFD0928900C0928800209372023093F3
:100BA0007302409374025093750280916F008260CB
:100BB00080936F004FCEC092B30020936E023093AB
:100BC0006F024093700250937102809170008260B6
:100BD000809370003FCE84E09FEFC916D104E104FA
:100BE000F10409F008F474CF730162019AE0F594FE
:100BF000E794D794C7949A95D1F781E0C81AD108A1
:100C0000E108F10885E064CF68E478EE81E090E0E7
:100C1000A50198010E94F92469017A0191E0C91A9D
:100C2000D108E108F1088FEFC816D104E104F104FE
:100C300011F00CF021CF84E083CE83E09FEFC91642
:100C4000D104E104F10409F00CF442CF62E17AE747
:100C500080E090E0A50194010E94F92469017A01E5
:100C600081E0C81AD108E108F1089D81992309F4AF
:100C7000B2CF86E09FEFC916D104E104F10409F078
:100C800008F45ECE730162012AE0F594E794D794EC
:100C9000C7942A95D1F781E0C81AD108E108F10874
:100CA00087E04ECE82E04CCE3FB7F8948091E501CC
:100CB0009091E601A091E701B091E80126B5A89BCB
:100CC00005C02F3F19F00196A11DB11D3FBFBA2FDE
:100CD000A92F982F8827BC01CD01620F711D811D9E
:100CE000911D42E0660F771F881F991F4A95D1F723
:100CF00008958F929F92AF92BF92CF92DF92EF9220
:100D0000FF924B015C010E9454066B017C010E9422
:100D100054066C197D098E099F09683E7340810550
:100D20009105A8F321E0821A9108A108B10888EE84
:100D3000C80E83E0D81EE11CF11C81149104A104AB
:100D4000B10429F7FF90EF90DF90CF90BF90AF9064
:100D50009F908F90089585ED8093BC008091BC009A
:100D600084FDFCCF1092C20208952091BD01260F90
:100D70003327331F21323105ECF42091C202FC01EC
:100D800090E080E0243069F082E00895A091BD01F8
:100D90002191AC0143565E4FA40FB52FB11D2C938A
:100DA0000196861798F38091BD01680F6093BD018D
:100DB00080E0089581E008950895E0917B0280919C
:100DC0007A02E81730F4F0E0E458FD4F808190E0BB
:100DD00008958FEF9FEF089590917B0280917A02A2
:100DE0002FEF3FEF981748F4E92FF0E0E458FD4F5C
:100DF000208130E09F5F90937B02C901089580912C
:100E00007A0290917B02891B990B0895CF92DF9211
:100E1000EF92FF920F931F93CF93DF937C01CB014F
:100E20008A012091C302222389F0EB016B01C40ED9
:100E3000D51ECC15DD0569F06991D701ED91FC91C6
:100E40000190F081E02DC7010995F3CF642F0E9436
:100E5000B506C801DF91CF911F910F91FF90EF90E0
:100E6000DF90CF900895CF93DF931F92CDB7DEB779
:100E700069832091C3022223F9F02091E6022032F7
:100E800058F021E030E0FC013383228390E080E0E1
:100E90000F90DF91CF9108958091C402E82FF0E088
:100EA000EB53FD4F998190838F5F8093C4028093B1
:100EB000E60281E090E0ECCF61E0CE0101960E9475
:100EC000B506F7CFCF93C82F81E08093C30287E7A1
:100ED0008093E5021092C4021092E60264EF84E867
:100EE00093E00E9433076C2F84E893E00E9433075D
:100EF000CF910C94670190E080E00895CF92DF924B
:100F0000EF92FF92CF93DF93EC01603282E078079B
:100F1000CCF5653B710514F064EB70E0898128E83D
:100F200030E0281B310987FD3395220F331F220F34
:100F3000331F6901330FEE08FF088A8128E532E08C
:100F4000281B310987FD3395220F331F220F331FD2
:100F5000032E000C440B550B2C193D094E095F095B
:100F6000DB0177FF02C0B0E0A0E00E94232524EB64
:100F700030E040E050E00E94F924C20ED31EE41E8F
:100F8000F51EB601E881EC3070F5298188E890E023
:100F9000821B910927FD9395880F991F880F991F30
:100FA000681779077CF02A8188E592E0821B910915
:100FB00027FD9395880F991F880F991F6817790748
:100FC0000CF4CB010297880F991F4FB7F8942E2F7E
:100FD00030E0F901EE0FFF1FE20FF31FE758FE4F5D
:100FE000928381834FBFDF91CF91FF90EF90DF908D
:100FF000CF9008951F93CF93DF93EC01162F888134
:101000008C3008F04EC061E0812F0E94CD038881B2
:10101000282F30E0F901EE0FFF1FE20FF31FE75812
:10102000FE4F1F736081607C612B608319821A827E
:101030002CE0622F0E940129829FB001112430E030
:1010400020E0AB01420F531FFA01EE0FFF1FE40F28
:10105000F51FE758FE4F908196FD16C02F5F3F4F5A
:101060002C30310571F781110FC01092800082E0A1
:10107000809381001092850010928400B19A809133
:101080006F00826080936F00E8818E2F90E0FC01FA
:10109000EE0FFF1FE80FF91FE758FE4F80818064B5
:1010A00080838881DF91CF911F910895CF93DF9343
:1010B000CDB7DEB7C454D1090FB6F894DEBF0FBE6A
:1010C000CDBF10920E0210920D02109210021092DB
:1010D0000F02109212021092110221E030E03093C0
:1010E00014022093130283E090E090931602809301
:1010F000150210921C0210921B0210921E021092F6
:101100001D021092200210921F0242E350E0509301
:1011100018024093170210921A021092190248EB1B
:1011200051E0509322024093210245E050E0509359
:10113000240240932302909326028093250210926A
:1011400028021092270210922A021092290240E0EF
:1011500056E960E070E040932B0250932C026093BC
:101160002D0270932E021092300210922F0240E056
:1011700052E05093320240933102109234021092A6
:10118000330290933602809335028AE090E0909388
:101190003A028093390210923C0210923B02109264
:1011A0003802109237028CE390E090933E028093D5
:1011B0003D029093400280933F02909342028093BD
:1011C0004102909344028093430284E190E0909323
:1011D0004602809345029093480280934702909381
:1011E0004A028093490290934C0280934B023093C1
:1011F0004E0220934D0284E4EDE0F2E0DE01119610
:1012000001900D928A95E1F7FE013196AE014D5B9A
:101210005F4F90E080E0E417F50731F02191820FF5
:10122000911D27FD9A95F7CF9093500280934F021E
:10123000CC5BDF4F0FB6F894DEBF0FBECDBFDF91A2
:10124000CF91089548EE53E060E070E08091750121
:10125000909176010E9409046CED75E080E090E0C9
:101260000E9479068DE00C94A103CF93DF93CAE02E
:10127000D0E048EE53E060E070E080E496E00E9449
:10128000090462E370E080E090E00E9479068DE05E
:101290000E94A103219769F768EE73E080E090E077
:1012A000DF91CF910C94790649E150E060E070E065
:1012B00080917501909176010E9409046CE271E0C1
:1012C00080E090E00E9479068DE00C94A103CF921B
:1012D000DF92EF92FF920F931F93CF93DF936B01F7
:1012E0007C0124E6C216D104E104F1040CF446C0EA
:1012F00024E630E040E050E00E94F924890164E6F1
:10130000629FC001639F900D1124092E000CAA0B4F
:10131000BB0BA7019601281B390B4A0B5B0BCA01BB
:10132000B9012AE030E040E050E00E94F924E901F0
:10133000EE24E394F12C1016110644F11C161D0640
:101340007CF401E010E00E94540962E370E080E068
:1013500090E00E9479060F5F1F4FC017D1079CF7DE
:1013600068E873E180E090E0DF91CF911F910F91E9
:10137000FF90EF90DF90CF900C9479062AE030E058
:1013800040E050E00E94F924E901D8CF0E942209F0
:1013900062E370E080E090E00E9479063FEFE31A9C
:1013A000F30A0E151F0594F7C9CF8930910579F41A
:1013B000662341F060913D0270913E028EEA93E017
:1013C0000C947E076091450270914602F7CF8A30F7
:1013D000910571F4662339F060913F0270914002EB
:1013E0008BEA93E0EDCF6091470270914802F8CF0D
:1013F0008530910571F4662339F060914102709156
:10140000420288EA93E0DCCF6091490270914A027F
:10141000F8CF069771F4662339F06091430270911A
:10142000440285EA93E0CCCF60914B0270914C026C
:10143000F8CF089580910D0290910E02892B09F04A
:1014400087C080E090E0A0E8BFE380930401909320
:101450000501A0930601B0930701609117027091F6
:101460001802072E000C880B990B0E9473262091FE
:1014700004013091050140910601509107010E943D
:10148000C9250E943B26072E000C880B990B609300
:10149000FA017093FB018093FC019093FD01809110
:1014A000210290912202909376018093750110920F
:1014B00052021092510210920402109203021092F2
:1014C000020210925B021092090210920A0210921C
:1014D0000B0210920C02109205021092060210925A
:1014E00007021092080269E070E08EEA93E00E9421
:1014F000FA076AE070E08BEA93E00E94FA0765E081
:1015000070E088EA93E00E94FA0766E070E085EAFE
:1015100093E00E94FA0760E089E090E00E94D5091C
:1015200060E08AE090E00E94D50960E085E090E00C
:101530000E94D50960E086E090E00E94D5091092F3
:10154000FE011092FF011092000210920102089514
:1015500088E499EFA1E5B0E478CF9091C2029111AF
:10156000FCCF282F91E09093C2029093C1023FEFED
:101570003093C0021092BF02380F3093BE02909396
:101580009D0290919D029E6E90939D0290919C026F
:10159000913019F510929C0290919D029093BB009E
:1015A0009091BC0093FDF8CF95EC9093BC00909186
:1015B000C2029130E1F39091BF02981710F420918C
:1015C000BF02AEE9B2E0ECE7F2E080E0821307C0D0
:1015D00010927B0280937A02089595EEE6CF9D915A
:1015E00091938F5FF3CFCF93C1E0C093C30297E78E
:1015F0009093E5021092C4021092E602682F84E8EC
:1016000093E00E9433070E946701C093C3021092C7
:10161000C4021092E60281E090E00E94AD0A84E8E4
:1016200093E00E94EC06C82F0E9467018C2FCF9197
:101630000895CF93DF93C1E0C093C30297E79093DF
:10164000E5021092C4021092E602682F84E893E04B
:101650000E9433070E946701C093C3021092C40224
:101660001092E60282E090E00E94AD0A84E893E0E6
:101670000E94EC06D82F80E0C82F84E893E00E94F7
:10168000EC06C82BD92B0E946701CE01DF91CF91C8
:101690000895FC0101900020E9F73197AF01481B44
:1016A000590BBC0187EE92E00C94C701CF93DF93F6
:1016B0000E94B402EC0185E391E00E94490B8C0F7B
:1016C0009D1FDF91CF9108950F931F93CF93DF93C9
:1016D0000DE012E0C0E2D0E0F80161918F01CE018F
:1016E0000E94EB242196C436D105B1F7DF91CF914A
:1016F0001F910F910895EF92FF920F931F93CF9335
:10170000DF93CDB7DEB7C454D1090FB6F894DEBF6E
:101710000FBECDBF0E9456088DE0E82E82E0F82E65
:1017200000E210E0C8010E94E324F70181937F01E9
:101730000F5F1F4F04361105A9F740914F025091DA
:10174000500284E4EDE0F2E0DE01119601900D928A
:101750008A95E1F7FE013196BE016D5B7F4F30E067
:1017600020E0E617F70731F08191280F311D87FD42
:101770003A95F7CF81E04217530709F080E0CC5B40
:10178000DF4F0FB6F894DEBF0FBECDBFDF91CF9114
:101790001F910F91FF90EF9008958F929F92AF92BB
:1017A000BF92CF92DF92FF920F931F93CF93DF935D
:1017B00000D000D01F92CDB7DEB72AE0AE014F5F58
:1017C0005F4F6A010E94B124F60101900020E9F701
:1017D0003197FE2EFC1868EB7BE080E090E00E94E1
:1017E000790656018A2D8C198F15F0F468EE73E096
:1017F00080E090E00E947906F50101915F010053BD
:1018000009F40AE010E0912C812C0E945409FFEFAA
:101810008F1A9F0A801691062CF76AEF70E080E01D
:1018200090E00E947906F1CF0F900F900F900F90EB
:101830000F90DF91CF911F910F91FF90DF90CF908C
:10184000BF90AF909F908F900895CF92DF92EF92CC
:10185000FF920F931F93CF93DF93CDB7DEB7CC5D8D
:10186000D1090FB6F894DEBF0FBECDBF8C010E9428
:10187000490B85E391E00E94490BD8018C91853694
:10188000A1F484EE91E00E94560BC452DF4F0FB6D4
:10189000F894DEBF0FBECDBFDF91CF911F910F91A6
:1018A000FF90EF90DF90CF900895823719F482ED8A
:1018B00091E0E9CF873719F480EC91E0E4CF8E36E0
:1018C00019F48EEA91E0DFCF8C3619F48CE991E0BF
:1018D000DACF833619F48AE891E0D5CF813619F44E
:1018E00088E791E0D0CF823609F0C7C28FE691E059
:1018F0000E94B4021A821982FE01339684E9DF0144
:101900001D928A95E9F78E0109561F4FF801119231
:10191000119288E0DF011D928A95E9F70E947B0B06
:10192000811104C08AEE90E00E94B40268E371E085
:10193000CE0101960E94132980910E028F9380910F
:101940000D028F9384E4E82E81E0F82EFF92EF924F
:101950001F930F930E941E29B801CE0101960E9489
:101960001329809110028F9380910F028F93FF9221
:10197000EF921F930F930E941E29B801CE0101968A
:101980000E941329809112028F93809111028F93EC
:10199000FF92EF921F930F930E941E29B801CE0170
:1019A00001960E941329809114028F938091130253
:1019B0008F93FF92EF921F930F930E941E29B801FD
:1019C000CE0101960E941329809116028F93809177
:1019D00015028F93FF92EF921F930F930E941E297F
:1019E000B801CE0101960E94132980911A028F93AB
:1019F000809119028F93FF92EF921F930F930E9491
:101A00001E290FB6F894DEBF0FBECDBFB801CE01C0
:101A100001960E941329809118028F9380911702DA
:101A20008F93FF92EF921F930F930E941E29B8018C
:101A3000CE0101960E94132968E471E0CE0101965F
:101A40000E9413296BE671E0CE0101960E941329D2
:101A50001F9281E08F93FF92EF921F930F930E944A
:101A60001E29B801CE0101960E9413291F9283E01E
:101A70008F93FF92EF921F930F930E941E29B8013C
:101A8000CE0101960E94132980911C028F938091B0
:101A90001B028F93FF92EF921F930F930E941E29B8
:101AA000B801CE0101960E94132980911E028F93E6
:101AB00080911D028F93FF92EF921F930F930E94CC
:101AC0001E29B801CE0101960E941329809120029F
:101AD0008F9380911F028F93FF92EF921F930F932A
:101AE0000E941E290FB6F894DEBF0FBECDBFB8010D
:101AF000CE0101960E941329809122028F9380913A
:101B000021028F93FF92EF921F930F930E941E2941
:101B1000B801CE0101960E941329809124028F936F
:101B2000809123028F93FF92EF921F930F930E9455
:101B30001E29B801CE0101960E9413298091260228
:101B40008F93809125028F93FF92EF921F930F93B3
:101B50000E941E29B801CE0101960E94132980918E
:101B600028028F93809127028F93FF92EF921F9309
:101B70000F930E941E29B801CE0101960E941329DD
:101B800080912A028F93809129028F93FF92EF9286
:101B90001F930F930E941E29B801CE0101960E9447
:101BA000132980912E028F9380912D028F93809123
:101BB0002C028F9380912B028F9382E591E09F936B
:101BC0008F931F930F930E941E290FB6F894DEBFC8
:101BD0000FBECDBFB801CE0101960E94132980919E
:101BE00030028F9380912F028F93FF92EF921F9379
:101BF0000F930E941E29B801CE0101960E9413295D
:101C0000809132028F93809131028F93FF92EF92F5
:101C10001F930F930E941E29B801CE0101960E94C6
:101C20001329809134028F93809133028F93FF9216
:101C3000EF921F930F930E941E29B801CE010196C7
:101C40000E941329809136028F93809135028F93E1
:101C5000FF92EF921F930F930E941E29B801CE01AD
:101C600001960E941329809138028F938091370248
:101C70008F93FF92EF921F930F930E941E29B8013A
:101C8000CE0101960E94132980913A028F93809190
:101C900039028F93FF92EF921F930F930E941E2998
:101CA0000FB6F894DEBF0FBECDBFB801CE010196CE
:101CB0000E94132980913C028F9380913B028F9365
:101CC000FF92EF921F930F930E941E29B801CE013D
:101CD00001960E94132980913E028F9380913D02CC
:101CE0008F93FF92EF921F930F930E941E29B801CA
:101CF000CE0101960E941329809140028F9380911A
:101D00003F028F93FF92EF921F930F930E941E2921
:101D1000B801CE0101960E941329809142028F934F
:101D2000809141028F93FF92EF921F930F930E9435
:101D30001E29B801CE0101960E9413298091440208
:101D40008F93809143028F93FF92EF921F930F9393
:101D50000E941E29B801CE0101960E94132980918C
:101D600046028F93809145028F93FF92EF921F93CB
:101D70000F930E941E290FB6F894DEBF0FBECDBF91
:101D8000B801CE0101960E941329809148028F93D9
:101D9000809147028F93FF92EF921F930F930E94BF
:101DA0001E29B801CE0101960E94132980914A0292
:101DB0008F93809149028F93FF92EF921F930F931D
:101DC0000E941E29B801CE0101960E94132980911C
:101DD0004C028F9380914B028F93FF92EF921F934F
:101DE0000F930E941E29B801CE0101960E9413296B
:101DF00080914E028F9380914D028F93FF92EF92CC
:101E00001F930F930E941E29B801CE0101960E94D4
:101E10001329FE0131960FB6F894DEBF0FBECDBF79
:101E200090E080E02191820F911D27FD9A950E1779
:101E30001F07C1F799279F938F9387E591E09F93A1
:101E40008F931F930F930E941E29B801CE01019614
:101E50000E9413298CE591E00E94490BCE01019666
:101E60000E94490B88E691E00E94B4020F900F9007
:101E70000F900F900F900F9008CD833709F082C11B
:101E8000C552DF4F19830883CB5DD0401A82198277
:101E9000FE01339682E6DF011D928A95E9F7D12C87
:101EA000C12CF12CE12CAE0145525F4F6BE671E085
:101EB000C552DF4F88819981CB5DD0400E946D244F
:101EC0008C01009709F41BC1F7013197E132F1054C
:101ED00008F030C0E259F04F0C940D298F0F9E0F7F
:101EE000A50FAC0FB30FBA0FC10FC80FCF0FD60F8E
:101EF000DD0FE40FEB0FF20FF90F00100B101210B3
:101F00001910201027102E1035103C1043104A10C5
:101F1000511058105F1066106D1074107B100E94E5
:101F2000282490930E0280930D02B801CE010196F1
:101F30000E941329BFEFEB1AFB0AB5CF0E94282499
:101F40009093100280930F02F0CF0E942824909368
:101F5000120280931102E9CF0E9428249093140268
:101F600080931302E2CF0E9428249093160280935C
:101F70001502DBCF0E942824909318028093170249
:101F8000D4CF0E94282490931A0280931902CDCFB7
:101F90000E94462470931C0260931B02C6CF0E94CD
:101FA000462470931E0260931D02BFCF0E944624F8
:101FB0007093200260931F02B8CF0E942824909350
:101FC000220280932102B1CF0E9428249093240200
:101FD00080932302AACF0E94462470932602609326
:101FE0002502A3CF0E9428249093280280932702E1
:101FF0009CCF0E94282490932A028093290295CF97
:102000000E94462460932B0270932C0280932D0231
:1020100090932E028ACF0E942824909330028093BE
:102020002F0283CF0E9428249093320280933102A2
:102030007CCF0E942824909334028093330275CF82
:102040000E94282490933602809335026ECF0E941E
:102050004624709338026093370267CF0E94282489
:1020600090933A028093390260CF0E942824909383
:102070003C0280933B0259CF0E94282490933E0259
:1020800080933D0252CF0E94282490934002809377
:102090003F024BCF0E94282490934202809341023A
:1020A00044CF0E94282490934402809343023DCF62
:1020B0000E942824909346028093450236CF0E94C6
:1020C000282490934802809347022FCF0E9428240F
:1020D00090934A028093490228CF0E94282490932B
:1020E0004C0280934B0221CF0E94282490934E02F1
:1020F00080934D021ACF0E9428246C011BCFE0E28E
:10210000EE16F1042CF48CE591E00E94B402BDCBF4
:10211000FE0131969E012B593F4F90E080E04191A6
:10212000840F911D47FD9A952E173F07C1F78C1517
:102130001D0449F784E4EDE0F2E0DE01A956BF4F4B
:1021400001900D928A95E1F7FE01E956FF4FAE012D
:1021500047525F4F90E080E04E175F0731F02191CA
:10216000820F911D27FD9A95F7CF9093500280938F
:102170004F020E94640B0E947B0B0E941A0A82E6A7
:1021800091E0C3CF843649F40E9456080E94640B44
:102190000E947B0B0E941A0A78CB883619F486E5D8
:1021A00091E0B3CF863631F481E08093640280E51C
:1021B00091E0ABCF8B36A1F511968C9189831A8271
:1021C000CE0101960E94462497FD5FCBFF24F39435
:1021D000F8018281863409F4F12CCE0101960E9427
:1021E000282482309105A1F04CF4019709F04DCBE1
:1021F0006F2D89E090E00E94D50947CB833091058F
:1022000059F0049709F041CB6F2D86E090E0F3CFB1
:102210006F2D8AE090E0EFCF6F2D85E090E0EBCF5F
:102220008937A9F411968C91813351F48DE391E0B3
:102230000E94B40281E08093740183E291E065CF53
:1022400089E291E00E94B40210927401F6CF8D36BB
:1022500069F4F8018181813329F4109264028DE1DF
:1022600091E053CF81E080936402F9CF873629F45F
:102270001092640287E191E048CF843739F40E94DC
:1022800056080E94640B87E091E03FCF893609F43D
:10229000FCCA803219F481E091E037CF87EF90E0FB
:1022A0000E94B402D8016C9187EE92E00E9467020E
:1022B00085E391E00E94490BE8CA2F923F924F922A
:1022C0005F926F927F928F929F92AF92BF92CF92C6
:1022D000DF92EF92FF920F931F93CF93DF93CDB7CF
:1022E000DEB7C35DD1090FB6F894DEBF0FBECDBF18
:1022F0001A821982FE01339626ECDF011D922A957F
:10230000E9F78E0107531F4FF8011192119228E04F
:10231000DF011D922A95E9F720917401222309F427
:102320009EC17A01892E982EA72EB62E0E945B019F
:102330004090700150907101609072017090730133
:10234000DC01CB0184199509A609B709A701FF0C87
:10235000660B770B481759076A077B0708F07FC1A0
:102360000E945B0160937001709371018093720110
:102370009093730160905B02B0915202CD52DF4F97
:10238000B883C35DD04020905C0230905D024090E5
:102390005E0250905F028091510281117AC1712CCE
:1023A000C12CD12C6EE571E0CE0101960E9413295B
:1023B0005F924F923F922F9284E4E82E81E0F82EB4
:1023C000FF92EF921F930F930E941E29B801CE0136
:1023D00001960E9413291F926F92FF92EF921F9312
:1023E0000F930E941E29B801CE0101960E94132965
:1023F0001F92CD52DF4F8881C35DD0408F93FF92F3
:10240000EF921F930F930E941E29B801CE010196EF
:102410000E94132980910C028F9380910B028F935D
:1024200080910A028F93809109028F93FF92EF921D
:102430001F930F930E941E29B801CE0101960E949E
:1024400013291F927F92FF92EF921F930F930E9486
:102450001E290FB6F894DEBF0FBECDBFB801CE0166
:1024600001960E941329809108028F9380910702A0
:102470008F93809106028F93809105028F93FF9234
:10248000EF921F930F930E941E29B801CE0101966F
:102490000E941329DF92CF92FF92EF921F930F9326
:1024A0000E941E29B801CE0101960E9413298F9225
:1024B0009F92AF92BF92FF92EF921F930F930E9451
:1024C0001E29B801CE0101960E94132969E671E028
:1024D000CE0101960E94132969E671E0CE010196B2
:1024E0000E94132969E671E0CE0101960E9413292A
:1024F00069E671E0CE0101960E94132969E671E058
:10250000CE0101960E9413298EE20E9462078FE19C
:102510009EE40197F1F700C0000086EF0E94190BBE
:102520009C0150E040E08091C6039091C703281BB6
:10253000390B41095109A091C403B091C5030E9410
:1025400018250E94732620E030E040E058E30E9406
:10255000FF260E943B264B015C016091BE037091F7
:10256000BF03072E000C880B990B0E94732620E0F6
:1025700030E040E055E40E94FF262B013C016091D1
:10258000C0037091C103072E000C880B990B680DD6
:10259000791D8A1D9B1D0E9473269B01AC01C301FE
:1025A000B2010E94C9250E943B26680D791D8A1D33
:1025B0009B1D685F7F4F8F4F9F4F0E94732620E0C7
:1025C00030E040E85DE30E94FF2620E030E040E29A
:1025D00051E40E94C9250E943B267F936F93FF928E
:1025E000EF921F930F930E941E29B801CE0101960E
:1025F0000E941329FE0131960FB6F894DEBF0FBE7C
:10260000CDBF90E080E02191820F911D27FD9A952A
:102610000E171F07C1F799279F938F938DE691E0BF
:102620009F938F931F930F930E941E29B801CE0191
:1026300001960E94132969E571E0CE0101960E947E
:1026400013298CE591E00E94490BCE0101960E946E
:10265000490B0F900F900F900F900F900F90CD524D
:10266000DF4F0FB6F894DEBF0FBECDBFDF91CF9125
:102670001F910F91FF90EF90DF90CF90BF90AF90A0
:102680009F908F907F906F905F904F903F902F9092
:10269000089581E0D12CBAE02B1631044104510495
:1026A0000CF080E0C82E772473947CCE4F925F921A
:1026B0006F927F928F929F92AF92BF92CF92DF9252
:1026C000EF92FF921F93CF93DF9300D000D000D002
:1026D000CDB7DEB78EE20E9462078FE19EE40197DC
:1026E000F1F700C0000086EF0E94190B4C01B12CDD
:1026F000A12C8091B1038295880F880F807C8C5C1F
:102700000E9462078091B103811109C2AFE1BEE46A
:102710001197F1F700C0000086EF0E94190BB0E09E
:10272000A0E0CC24D82EE92EFA2E88EF0E94F30ADE
:10273000C82A1091B103412F50E05E834D838091F0
:10274000C6039091C703A5019401281B390B4109C9
:102750005109A091C403B091C5030E9418250E949D
:10276000732620E030E040E058E30E94FF260E94FC
:102770003B262B013C016091BE037091BF03072EE5
:10278000000C880B990B0E94732620E030E040E09B
:1027900055E40E94FF264B015C016091C0037091DB
:1027A000C103072E000C880B990B640D751D861D47
:1027B000971D0E9473269B01AC01C501B4010E94C4
:1027C000C9250E943B26460E571E681E791E50EAF8
:1027D000451A5FE0550A61087108A3019201C3011F
:1027E000B2010E94F1289B01AC01ACE055954795E0
:1027F00037952795AA95D1F729833A834B835C8334
:10280000A091B603B091B703A30192010E942325C2
:102810004B015C01BDE0B594A79497948794BA9559
:10282000D1F7A091B803B091B90329813A814B81C6
:102830005C810E9423259C01552737FD5095452F2B
:10284000280D391D4A1D5B1D2E5F3F4F4F4F5F4FB7
:1028500062E055954795379527956A95D1F7305899
:102860004F4F5F4FA091C203B091C3030E94182540
:102870004B015C017FE0B694A794979487947A9576
:10288000D1F788E090E04D815E81841B950B04C0F8
:10289000F694E794D794C7948A95D2F7A091BA0397
:1028A000B091BB0329813A814B815C810E94232531
:1028B0009B01AC01EBE05595479537952795EA9537
:1028C000D1F729833A834B835C83A091B403B09101
:1028D000B503A30192010E942325FBE095958795FE
:1028E00077956795FA95D1F729813A814B815C817B
:1028F000620F731F841F951F4090B2035090B30363
:10290000052C000C66087708A2E0440C551C661CD8
:10291000771CAA95D1F7640D751D861D971D012E94
:1029200004C0660F771F881F991F0A94D2F76E5F45
:102930007F4F8F4F9F4F24E030E040E050E00E94F7
:10294000F924D701C601821B930BA40BB50B9C0184
:10295000AD0160E573EC80E090E004C0969587954A
:10296000779567951A95D2F70E94F12897FDEDC0EB
:10297000660F771F881F991FA50194010E942B25C0
:1029800069017A019927F7FC9A958F2D7E2D6D2D7F
:102990009B01AC010E94F1289B01AC01AEEDBBE0B4
:1029A0000E9418254B015C01A3E4B3EEA701960138
:1029B0000E942625BC01992777FD9095892F450116
:1029C000BB2497FCB094AB2C680D791D8A1D9B1D10
:1029D0006153714F8F4F9F4F44E095958795779541
:1029E00067954A95D1F76C0D7D1D8E1D9F1D0E9428
:1029F000732620E836EE45EC57E40E94C92521E015
:102A00003EED42E45EE30E946C2769837A838B8308
:102A10009C834090ED015090EE016090EF0170902A
:102A2000F0012091F1013091F2014091F3015091B8
:102A3000F4016091E9017091EA018091EB019091BC
:102A4000EC010E945D256B017C012091F501309124
:102A5000F6014091F7015091F8010E945D259B011C
:102A6000AC0160E070E080E89FE30E94C925A70107
:102A700096010E94FF264B015C0129813A814B811E
:102A80005C8160E070E080E89FE30E945C2520E0CC
:102A90003AE24DE257E40E94FF26A30192010E9410
:102AA0005C25A50194010E94FF26A30192010E94CA
:102AB0005D252B013C014092ED015092EE016092A8
:102AC000EF017092F001A501940160E070E080E8F0
:102AD0009FE30E945C25A70196010E94FF26609358
:102AE000E9017093EA018093EB019093EC01C3013B
:102AF000B20126960FB6F894DEBF0FBECDBFDF91B0
:102B0000CF911F91FF90EF90DF90CF90BF90AF904B
:102B10009F908F907F906F905F904F90089581303D
:102B200029F48FEF9CE70197F1F7F4CD823029F477
:102B3000AFEBBAED1197F1F7EDCDBFEF24E431E043
:102B4000B15020403040E1F7E5CDA50194010E944D
:102B50002B2569017A01CC0CDD1CEE1CFF1C12CF69
:102B60001F920F920FB60F9211242F933F934F9302
:102B70005F936F937F938F939F93AF93BF93EF93E5
:102B8000FF9380916E0290916F02A0917002B091BC
:102B90007102892B8A2B8B2BD1F190916902E091E4
:102BA0006A02F0916B0280818927808380916E0296
:102BB00090916F02A0917002B091710218161906DF
:102BC0001A061B069CF480916E0290916F02A091F0
:102BD0007002B09171020197A109B10980936E0250
:102BE00090936F02A0937002B0937102FF91EF91E6
:102BF000BF91AF919F918F917F916F915F914F9115
:102C00003F912F910F900FBE0F901F9018958091BC
:102C100008010E94A103EACF1F920F920FB60F92F4
:102C200011242F933F934F935F936F937F938F93D1
:102C30009F93AF93BF93EF93FF9387EE92E00E9431
:102C40004502FF91EF91BF91AF919F918F917F913D
:102C50006F915F914F913F912F910F900FBE0F9009
:102C60001F9018951F920F920FB60F9211242F9359
:102C70008F939F93EF93FF93E091F702F091F80207
:102C80008081E091FD02F091FE0282FD1BC09081E7
:102C9000809100038F5F8F7320910103821741F0B1
:102CA000E0910003F0E0E951FD4F958F8093000320
:102CB000FF91EF919F918F912F910F900FBE0F90E9
:102CC0001F9018958081F4CF1F920F920FB60F922C
:102CD00011242F933F938F939F93AF93BF93809132
:102CE000E1019091E201A091E301B091E401309102
:102CF000E00123E0230F2D3758F50196A11DB11DEA
:102D00002093E0018093E1019093E201A093E3011D
:102D1000B093E4018091E5019091E601A091E70173
:102D2000B091E8010196A11DB11D8093E50190933A
:102D3000E601A093E701B093E801BF91AF919F91A5
:102D40008F913F912F910F900FBE0F901F9018956C
:102D500026E8230F0296A11DB11DD2CF1F920F921C
:102D60000FB60F9211242F933F934F935F936F935E
:102D70007F938F939F93AF93BF93EF93FF93809134
:102D8000B900887F803609F44AC0F0F5883209F42A
:102D9000A7C018F5803109F49BC0B8F4882309F462
:102DA000F9C0883009F494C0FF91EF91BF91AF91C1
:102DB0009F918F917F916F915F914F913F912F9153
:102DC0000F900FBE0F901F901895883109F488C09E
:102DD000803251F78093C00214C0803409F49DC042
:102DE00040F48033B9F38833F9F68093C00285EC60
:102DF000B0C0803509F485C0883509F496C08834A0
:102E000099F60E94AB06D0CF883909F48CC038F50A
:102E1000883729F050F4883611F0803729F683E09E
:102E20008093C2021092DF0157C0883809F47BC03A
:102E3000803919F0803809F0B7CF8091DF018032F6
:102E400008F071C0E091DF0181E08E0F8093DF0117
:102E50008091BB00F0E0E154FE4F80833DC0803B99
:102E600039F0E0F4803A09F479C0883A09F09CCF4F
:102E700084E08093C2021092BE011092BD01E091E5
:102E80006702F091680209958091BD0181110FC020
:102E900081E08093BD0110929D0109C0803C09F43E
:102EA000A6CF883C09F4A3CF883B09F07DCFE09101
:102EB000BE0181E08E0F8093BE01F0E0E356FE4F2D
:102EC00080818093BB009091BE018091BD0129C09B
:102ED00080919D028093BB0085EC8093BC0064CF01
:102EE0009091BF028091BE02981758F5E091BF0201
:102EF00081E08E0F8093BF02F0E0E256FD4F8081AB
:102F0000E9CFE091BF0281E08E0F8093BF028091F4
:102F1000BB00F0E0E256FD4F80839091BF028091AC
:102F2000BE029817C8F285E8D8CFE091BF0281E0D1
:102F30008E0F8093BF028091BB00F0E0E256FD4F00
:102F400080838091C10281115CCF81E080939C02DB
:102F500084EA8093BC001092C20226CF85EC809355
:102F6000BC001092C2028091DF01803230F4E09107
:102F7000DF01F0E0E154FE4F10826091DF0170E06C
:102F8000E0916502F09166028FEB91E00995109255
:102F9000DF010ACF1092C00234CF1F920F920FB6FA
:102FA0000F9211242F933F934F935F936F937F93CF
:102FB0008F939F93AF93BF93CF93DF93EF93FF9341
:102FC00080917701C0917801D0E087FF24C01092F2
:102FD000850010928400809177018F5F8093770144
:102FE00080917701082E000C990B8C179D0724F413
:102FF000809177018C30C4F180918400909185009C
:10300000049680349C4908F47AC0809184009091A1
:103010008500049676C080917701082E000C990BEC
:103020008C179D07C4F6E09177018E2FEE0F990B58
:10303000FC01EE0FFF1FE80FF91FE758FE4F8081DC
:1030400086FFC9CFE09177018E2FEE0F990BFC011F
:10305000EE0FFF1FE80FF91FE758FE4F808160E079
:103060008F730E944103B7CF209184003091850077
:10307000E09177018E2FEE0F990BFC01EE0FFF1FF1
:10308000E80FF91FE758FE4F81819281820F931F4D
:103090009093890080938800E09177018E2FEE0F46
:1030A000990BFC01EE0FFF1FE80FF91FE758FE4FC9
:1030B000808186FF11C0E09177018E2FEE0F990B72
:1030C000FC01EE0FFF1FE80FF91FE758FE4F80814C
:1030D00061E08F730E944103FF91EF91DF91CF91E7
:1030E000BF91AF919F918F917F916F915F914F9120
:1030F0003F912F910F900FBE0F901F90189580E475
:103100009CE990938900809388008FEF80937701EA
:10311000E3CFFC01909178019C3098F481E0890F15
:10312000809378019083892F90E0FC01EE0FFF1FC0
:10313000E80FF91FE758FE4F88EB9BE092838183ED
:1031400008958FEF80830895E7EEF2E013821282F4
:1031500088EE93E0A0E0B0E084839583A683B783F4
:1031600025E131E03183208325EC30E03587248769
:1031700024EC30E03787268720EC30E0318B208B41
:1031800021EC30E0338B228B22EC30E0358B248B2A
:1031900026EC30E0378B268B118E128E138E148E18
:1031A000E4E8F3E01382128284839583A683B783D5
:1031B00087E291E091838083EEE9F3E010828BE572
:1031C00091E096838583E7E9F3E010829683858317
:1031D000E0E9F3E01082968385838EEA93E00E9413
:1031E00089188BEA93E00E94891888EA93E00E948C
:1031F000891885EA93E00C948918CF93DF93CDB7B3
:10320000DEB7C450D1400FB6F894DEBF0FBECDBFBD
:10321000789484B5826084BD84B5816084BD85B5B1
:10322000826085BD85B5816085BD80916E008160BD
:1032300080936E0010928100809181008260809363
:103240008100809181008160809381008091800065
:103250008160809380008091B10084608093B10090
:103260008091B00081608093B00080917A0084608A
:1032700080937A0080917A00826080937A008091B6
:103280007A00816080937A0080917A0080688093D0
:103290007A001092C1000E947B0B8093F90181118A
:1032A00004C00E9456080E94640B80912B029091EA
:1032B0002C02A0912D02B0912E028C3221E09207B7
:1032C000A105B10509F452C0803B34E09307A10584
:1032D000B10509F44BC0803649E09407A105B1055A
:1032E00009F444C0803C52E19507A105B105F1F114
:1032F0008038E5E29E07A105B105C1F18034F8E30D
:103300009F07A105B10591F181152BE49207A10555
:10331000B10561F1803830E79307A105B10531F1BE
:10332000811546E99407A105B10501F1811551EE1A
:103330009507A105B105D1F08115E2EC9E07E1E00A
:10334000AE07B10599F081159448A340B10571F01D
:1033500080E096E9A0E0B0E080932B0290932C02ED
:10336000A0932D02B0932E020E94640B8EE192E096
:103370000E94B4020E941A0A82ED90E0A0E8B0E434
:103380008093F5019093F601A093F701B093F801B3
:103390008CE69FECACE4BEE38093F1019093F201E4
:1033A000A093F301B093F4011092ED011092EE019D
:1033B0001092EF011092F0011092E9011092EA01CF
:1033C0001092EB011092EC010E946F03C0902B024F
:1033D000D0902C02E0902D02F0902E0260E079E077
:1033E0008DE390E0A70196010E942B252150310921
:1033F000410951095695479537952795E091F70270
:10340000F091F80282E08083C11441EED406E10419
:10341000F10421F0211550E13507A8F0E091F70201
:10342000F091F802108260E874E88EE190E0A70164
:1034300096010E942B2521503109410951095695C9
:10344000479537952795E091F302F091F402308388
:10345000E091F502F091F60220831092FF02E091D4
:10346000FB02F091FC0286E08083E091F902F0918A
:10347000FA02808180618083E091F902F091FA0282
:10348000808188608083E091F902F091FA02808166
:1034900080688083E091F902F091FA0280818F7D4B
:1034A000808362E080E00E94CD0380912F0284300F
:1034B00008F083E08093B1030E946F0380ED0E94C7
:1034C000F30A853509F04DC08AEA0E94190B9093E2
:1034D000B3038093B2038CEA0E94190B9093B50357
:1034E0008093B4038EEA0E94190B9093B7038093E4
:1034F000B60380EB0E94190B9093C3038093C20321
:1035000082EB0E94190B9093C5038093C40384EB54
:103510000E94190B9093C7038093C60386EB0E9409
:10352000190B9093B9038093B80388EB0E94190B91
:103530009093BB038093BA038AEB0E94190B90937C
:10354000BD038093BC038CEB0E94190B9093BF03C7
:103550008093BE038EEB0E94190B9093C10380935E
:10356000C00361E08DE00E94CD0360E088E00E942E
:10357000CD0360E087E00E94CD0360E08DE00E9413
:1035800041030E9422090E9454090E9454090E948A
:1035900054098091230290912402092E000CAA0B59
:1035A000BB0B8093000190930101A0930201B093A3
:1035B00003018091F901811125C084E690E0A0E02B
:1035C000B0E08093FA019093FB01A093FC01B093CB
:1035D000FD0188E00E9418038C0187E00E94180317
:1035E0000115110509F03DC1892B61F482E390E0DA
:1035F000A0E0B0E08093FA019093FB01A093FC015E
:10360000B093FD0102E310E00E945613015011092E
:10361000D9F70AE010E0C12CD12C76010E94561394
:103620004B015C01C701B6010E947326A5019401FC
:103630000E945D250E943B266B017C0162E370E0E5
:1036400080E090E00E9479060150110939F7C70126
:10365000B6010E94732620E030E040E251E40E946F
:10366000C9250E943B26609360027093610280939B
:103670006202909363021092FE011092FF01109279
:103680000002109201028091390290913A02092EB3
:10369000000CAA0BBB0B8093530290935402A0938F
:1036A0005502B0935602312C212C10E21B3311F439
:1036B0000C9402248091640281110C94DC230E94FA
:1036C00056136B017C0160916002709161028091E0
:1036D0006202909163020E9473269B01AC01C701B4
:1036E000B6010E945C250E943B2660935C027093A9
:1036F0005D0280935E0290935F0280915B0288235B
:1037000091F00E945B01C0905702D0905802E09067
:103710005902F0905A026C197D098E099F0948ECF4
:1037200050E00E945D1140915C0250915D026091F9
:103730005E0270915F028091530290915402A091B9
:103740005502B091560284179507A607B7070CF4E7
:1037500094C044EF51E060E070E0CB010E945D1145
:103760000E945B016B017C0180915202882311F45D
:103770000C94DC2380915102882311F40C94DC23F7
:1037800087EE92E00E942502892BA9F087EE92E055
:103790000E940302182F8B3309F4DBC78A3059F0DB
:1037A000E1E0F0E0EC0FFD1FE20DF31D8083A101CD
:1037B0004F5F5F4F1A010E945B016C197D098E09F2
:1037C0009F09613177428105910570F20E943509A8
:1037D0006091090270910A0280910B0290910C0293
:1037E000C0900401D0900501E0900601F09007011F
:1037F00020910F0230911002232B09F0C7C70E94BD
:103800007326A70196010E94FF260E943B260E9474
:1038100067090E9435096091050270910602809146
:10382000070290910802C0900401D0900501E09039
:103830000601F090070120910F0230911002232B16
:1038400009F0AFC70E947326A70196010E94FF26C8
:103850000E943B260E9467090E945B016B017C016C
:10386000AACF0130110509F0CDCE009709F0DEC7CF
:1038700086E990E0A0E0B0E0BDCECB51DF4F1882EA
:1038800019821A821B82C55ED040CF51DF4F188249
:1038900019821A821B82C15ED04080911B029091D6
:1038A0001C02C752DF4F99838883C95DD040809145
:1038B0001D0290911E02C552DF4F99838883CB5D14
:1038C000D04080911F0290912002C352DF4F998314
:1038D0008883CD5DD0408091370290913802C152EB
:1038E000DF4F99838883CF5DD04060911102709142
:1038F0001202CF52DF4F79836883C15DD04040917F
:10390000130250911402CD52DF4F59834883C35D97
:10391000D0402091150230911602CB52DF4F3983EF
:103920002883C55DD0408091350290913602C952FE
:10393000DF4F99838883C75DD04008E0E9E0F1E07C
:10394000DE01A753BF4F01900D920A95E1F7633056
:10395000710541F069E070E0C753DF4F79836883F8
:10396000C95CD0404330510541F04AE050E0C553B6
:10397000DF4F59834883CB5CD0402330310541F081
:1039800025E030E0C353DF4F39832883CD5CD0403E
:10399000039741F086E090E0C153DF4F998388831D
:1039A000CF5CD040CD5FDE4F1882C350D140C351B1
:1039B000DF4F1882CD5ED040C451DF4F1882CC5EFD
:1039C000D040C551DF4F1882CB5ED040C251DF4F8F
:1039D0001882CE5ED040CD50DF4F188219821A82F5
:1039E0001B82C35FD040C550DF4F188219821A82F4
:1039F0001B82CB5FD040C950DF4F188219821A82D8
:103A00001B82C75FD040C150DF4F188219821A82D3
:103A10001B82CF5FD04001E00E9456134B015C0136
:103A200060916002709161028091620290916302E4
:103A30000E9473269B01AC01C501B4010E945C2564
:103A40000E943B2660935C0270935D0280935E024D
:103A500090935F0280915B02882391F00E945B014A
:103A60008090570290905802A0905902B0905A024C
:103A7000681979098A099B0948EC50E00E945D1198
:103A800040915C0250915D0260915E0270915F0214
:103A90008091530290915402A0915502B091560228
:103AA00084179507A607B7073CF580915B02811143
:103AB00023C08091510281111FC000935B0248EC2A
:103AC00050E060E070E0CB010E945D110E945B015C
:103AD00060935702709358028093590290935A0250
:103AE0008091190290911A02019731F421E0C2519C
:103AF000DF4F2883CE5ED04080915B02882309F49B
:103B00008BCFC12CD12C7601812C912C5401CC5F10
:103B1000DE4F1882C450D14094C2CC5FDE4F888003
:103B2000C450D14081101CCE77CFC651DF4F988052
:103B3000CA5ED040C351DF4F9882CD5ED04015C3DE
:103B4000C092FE01D092FF01E0920002F0920102C9
:103B50008091230290912402092E000CAA0BBB0B2A
:103B60008093000190930101A0930201B09303019F
:103B7000C551DF4FA880CB5ED040A11000C5C090DA
:103B80005C02D0905D02E0905E02F0905F02809156
:103B9000FA019091FB01A091FC01B091FD01C816C2
:103BA000D906EA06FB0608F015C180915202882367
:103BB00009F410C1C451DF4FA880CC5ED040A110E1
:103BC00016C08091510281113BC60E945B01C95011
:103BD000DF4F688379838A839B83C75FD040C0921D
:103BE0000502D0920602E0920702F092080280904D
:103BF0005102C451DF4F8882CC5ED040811020C674
:103C00006E0125EEC20ED11CF12CE12CD6018D9156
:103C10006D01811139C00E945B01AB01BC01C9502B
:103C2000DF4F88809980AA80BB80C75FD040481949
:103C300059096A097B09E9EDF0E0EC0FFD1FEE0D73
:103C4000FF1D80819181092E000CAA0BBB0B481728
:103C500059076A077B07C0F0E1EDF0E0EC0FFD1FAC
:103C6000EE0DFF1D80819181892B71F461E0E9ECFB
:103C7000F0E0EC0FFD1FEE0DFF1D808191810E9491
:103C8000D509F6013197008322E0E20EF11C38E0FD
:103C9000E316F10409F0BACF6E0149EDC40ED11C50
:103CA000F12CE12C0E945B01D6012D913D916D011B
:103CB000AB01BC01C950DF4F88809980AA80BB80CE
:103CC000C75FD040481959096A097B09C901885161
:103CD0009C4F092E000CAA0BBB0B481759076A070B
:103CE0007B0760F151EEA52EB12CAC0EBD1EAE0CC3
:103CF000BF1CD5018C91811121C0C701880F991F6C
:103D0000E1EDF0E0EC0FFD1FE80FF91F208131819C
:103D1000232BA1F420914D0230914E02232B61F40C
:103D2000E9ECF0E0EC0FFD1F8E0F9F1F60E0DC015F
:103D30008D919C910E94D509F5010083FFEFEF1A48
:103D4000FF0A24E0E216F10409F0ACCFFE01EF51C6
:103D5000FF4FDE01AF52BF4FCF010496C751DF4F77
:103D60004881C95ED0402191211106C02D913C911E
:103D70001197232B09F440E012968E179F0799F7AD
:103D8000409351020E945B01C0905702D0905802AC
:103D9000E0905902F0905A026C197D098E099F0932
:103DA00048EC50E00E945D11C751DF4F8880C95E2A
:103DB000D040C451DF4F8882CC5ED04012C0C25187
:103DC000DF4F9880CE5ED040C551DF4F9882CB5EEA
:103DD000D040D5CEC451DF4FB880CC5ED040B110BA
:103DE00006CFC351DF4F9880CD5ED040992009F4B3
:103DF000DAC0809102028111D6C06E0125EEC20E9A
:103E0000D11CF12CE12CD6018D916D01811139C0AD
:103E10000E945B01AB01BC01C550DF4F88809980D7
:103E2000AA80BB80CB5FD040481959096A097B0939
:103E3000E9EDF0E0EC0FFD1FEE0DFF1D808191819B
:103E4000092E000CAA0BBB0B481759076A077B0702
:103E5000C0F0E1EDF0E0EC0FFD1FEE0DFF1D8081E5
:103E60009181049771F461E0E9ECF0E0EC0FFD1F43
:103E7000EE0DFF1D808191810E94D509F6013197D9
:103E8000008322E0E20EF11C38E0E316F10409F0B1
:103E9000BACF6E0149EDC40ED11CF12CE12C0E9469
:103EA0005B01D6012D913D916D01AB01BC01C55067
:103EB000DF4F88809980AA80BB80CB5FD0404819B3
:103EC00059096A097B09C90188519C4F092E000CC8
:103ED000AA0BBB0B481759076A077B0768F131EE3D
:103EE000A32EB12CAC0EBD1EAE0CBF1CD5018C9107
:103EF000811122C0C701880F991FE1EDF0E0EC0F9E
:103F0000FD1FE80FF91F2081318124303105A1F414
:103F100020914D0230914E02232B61F4E9ECF0E048
:103F2000EC0FFD1F8E0F9F1F60E0DC018D919C91B7
:103F30000E94D509F5010083FFEFEF1AFF0A24E084
:103F4000E216F10409F0ABCFFE01EF51FF4FDE01A5
:103F5000AF52BF4FCF010496C751DF4F4881C95EB2
:103F6000D0402191211107C02D913C91119724300F
:103F7000310509F440E012968E179F0791F74093A0
:103F800002020E945B01C0905702D0905802E0905C
:103F90005902F0905A026C197D098E099F0948EC6C
:103FA00050E00E945D11809151028823C1F0809100
:103FB00002028823A1F010925B020E945B01C09074
:103FC0005702D0905802E0905902F0905A026C19B2
:103FD0007D098E099F0944EF51E00E945D11809197
:103FE00051028823D9F0F0900202FF20B9F00E941C
:103FF0005B018090570290905802A0905902B090B7
:104000005A02681979098A099B0944EF51E00E9414
:104010005D11CC5FDE4FF882C450D140C151DF4FFB
:10402000C880D980EA80FB80CF5ED0404201C75172
:10403000DF4F3881C95ED040CD5FDE4F3883C3503B
:10404000D14040915B02C751DF4F4883C95ED040E9
:10405000442309F462CD0E9456132B013C01609168
:1040600060027091610280916202909163020E94ED
:1040700073269B01AC01C301B2010E945C250E9422
:104080003B26C151DF4F688379838A839B83CF5E50
:10409000D04060935C0270935D0280935E029093C7
:1040A0005F020E945B01409057025090580260905E
:1040B000590270905A029B01AC0124193509460936
:1040C000570929013A0130915102C651DF4F388317
:1040D000CA5ED040332309F448C0809102028111A6
:1040E00044C0C351DF4F4881CD5ED04041111DCD4A
:1040F000C151DF4F68817981CF5ED0406C197D0955
:10410000072E000C880B990B0E9473266B017C0113
:10411000B20168197909072E000C880B990B0E94CF
:10412000732620E030E04AE754E40E94C9259B0151
:10413000AC01C701B6010E94C9250E943B26672B2E
:10414000A1F40E945B01C550DF4F688379838A83A5
:104150009B83CB5FD040C651DF4F8880CA5ED04082
:10416000C351DF4F8882CD5ED04048EC50E0C301A0
:10417000B2010E945D11CD5FDE4FA880C350D140D7
:10418000A1100AC00E945B01CD50DF4F6883798384
:104190008A839B83C35FD040809103028111D6C084
:1041A0006E0125EEC20ED11CF12CE12CD6018D91B1
:1041B0006D01811139C00E945B01AB01BC01CD5082
:1041C000DF4F88809980AA80BB80C35FD0404819A8
:1041D00059096A097B09E9EDF0E0EC0FFD1FEE0DCE
:1041E000FF1D80819181092E000CAA0BBB0B481783
:1041F00059076A077B07C0F0E1EDF0E0EC0FFD1F07
:10420000EE0DFF1D80819181059771F461E0E9EC6D
:10421000F0E0EC0FFD1FEE0DFF1D808191810E94EB
:10422000D509F6013197008322E0E20EF11C38E057
:10423000E316F10409F0BACF6E0149EDC40ED11CAA
:10424000F12CE12C0E945B01D6012D913D916D0175
:10425000AB01BC01CD50DF4F88809980AA80BB8024
:10426000C35FD040481959096A097B09C9018851BF
:104270009C4F092E000CAA0BBB0B481759076A0765
:104280007B0768F181EEA82EB12CAC0EBD1EAE0CE2
:10429000BF1CD5018C91811122C0C701880F991FC5
:1042A000E1EDF0E0EC0FFD1FE80FF91F20813181F7
:1042B00025303105A1F420914D0230914E02232B7F
:1042C00061F4E9ECF0E0EC0FFD1F8E0F9F1F60E042
:1042D000DC018D919C910E94D509F5010083FFEFCF
:1042E000EF1AFF0A24E0E216F10409F0ABCFFE0159
:1042F000EF51FF4FDE01AF52BF4FCF010496C751C0
:10430000DF4F4881C95ED0402191211107C02D9116
:104310003C9111972530310509F440E01296E817D9
:10432000F90791F7409303020E945B01C090570286
:10433000D0905802E0905902F0905A026C197D0911
:104340008E099F0948EC50E00E945D1180910402A3
:104350008111B5C06E0135EEC30ED11CF12CE12CDC
:10436000D6018D916D01811129C0E9EDF0E0EC0FCE
:10437000FD1FEE0DFF1D80819181092E000CAA0BFF
:10438000BB0B481659066A067B06C0F0E1EDF0E06B
:10439000EC0FFD1FEE0DFF1D80819181029771F4DE
:1043A00061E0E9ECF0E0EC0FFD1FEE0DFF1D8081F8
:1043B00091810E94D509F60131970083B2E0EB0E9E
:1043C000F11CE8E0EE16F10459F66E01F9EDCF0E9E
:1043D000D11CF12CE12CD6018D919D916D0188515C
:1043E0009C4F092E000CAA0BBB0B481659066A06F7
:1043F0007B0670F1A1EEAA2EB12CAC0EBD1EAE0C48
:10440000BF1CF5018081811123C0C701880F991F4E
:10441000E1EDF0E0EC0FFD1FE80FF91F2081318185
:1044200022303105A9F420914D0230914E02232B08
:1044300069F4E9EC8E2E912C8C0E9D1E880D991D31
:1044400060E0DC018D919C910E94D509F50100830B
:10445000FFEFEF1AFF0A24E0E216F10409F0BBCFE8
:10446000FE01EF51FF4FDE01AF52BF4FCF01049667
:10447000C751DF4F4881C95ED0402191211107C04B
:104480002D913C9111972230310509F440E01296AC
:104490008E179F0791F7409304020E945B01C09022
:1044A0005702D0905802E0905902F0905A026C19CD
:1044B0007D098E099F0948EC50E00E945D118091B2
:1044C000190290911A02019761F439EB43163BE00F
:1044D00053066104710428F0C251DF4F1882CE5E8A
:1044E000D040C0905C02D0905D02E0905E02F090FF
:1044F0005F028091FE019091FF01A0910002B091B6
:104500000102C816D906EA06FB060CF019CBC55104
:10451000DF4F8880CB5ED040811012CBC251DF4F7D
:104520009880CE5ED04091100BCB8091000190918D
:104530000101A0910201B09103010197A109B10904
:104540008093000190930101A0930201B0930301B5
:10455000892B8A2B8B2B09F032CC0E945B01C15036
:10456000DF4F688379838A839B83CF5FD040C0927B
:104570000902D0920A02E0920B02F0920C02B09073
:104580005202C551DF4FB882CB5ED040B110F7CA9E
:104590006E0125EEC20ED11CF12CE12CD6018D91BD
:1045A0006D01811139C00E945B01AB01BC01C1509A
:1045B000DF4F88809980AA80BB80CF5FD0404819A8
:1045C00059096A097B09E9EDF0E0EC0FFD1FEE0DDA
:1045D000FF1D80819181092E000CAA0BBB0B48178F
:1045E00059076A077B07C0F0E1EDF0E0EC0FFD1F13
:1045F000EE0DFF1D80819181019771F461E0E9EC7E
:10460000F0E0EC0FFD1FEE0DFF1D808191810E94F7
:10461000D509F6013197008322E0E20EF11C38E063
:10462000E316F10409F0BACF6E0149EDC40ED11CB6
:10463000F12CE12C0E945B01D6012D913D916D0181
:10464000AB01BC01C150DF4F88809980AA80BB803C
:10465000CF5FD040481959096A097B09C9018851BF
:104660009C4F092E000CAA0BBB0B481759076A0771
:104670007B0768F171EEA72EB12CAC0EBD1EAE0CFF
:10468000BF1CD5018C91811122C0C701880F991FD1
:10469000E1EDF0E0EC0FFD1FE80FF91F2081318103
:1046A00021303105A1F420914D0230914E02232B8F
:1046B00061F4E9ECF0E0EC0FFD1F8E0F9F1F60E04E
:1046C000DC018D919C910E94D509F5010083FFEFDB
:1046D000EF1AFF0A24E0E216F10409F0ABCFFE0165
:1046E000EF51FF4FDE01AF52BF4FCF010496C751CC
:1046F000DF4F4881C95ED0402191211107C02D9123
:104700003C9111972130310509F440E012968E1743
:104710009F0791F7409352020E945B01C09057029D
:10472000D0905802E0905902F0905A026C197D091D
:104730008E099F0948EC50E00E945D11C751DF4F80
:104740008880C95ED040C551DF4F8882CB5ED040A3
:1047500016CA51015FEFA51AB50AE1E0F0E0EC0FCF
:10476000FD1FE20DF31D10821092520210925102B1
:1047700010920402109203021092020210925B0245
:10478000CE0101960E94250C150115C80E947326C2
:10479000A70196010E94FF260E943B260E94CD0B96
:1047A00038C80E947326A70196010E94FF260E9426
:1047B0003B260E94CD0B50C887EE92E00E94250256
:1047C000892B11F40C94561B87EE92E00E94030291
:1047D000182F8B3369F08A3079F3E1E0F0E0EC0FC9
:1047E000FD1FE20DF31D8083F10131961F01E4CF1F
:1047F000FE01E20DF31D118291012F5F3F4F190160
:104800000C94561BCE0101960E94250C80E090E08E
:10481000892B11F40C94531B0E943102882311F44C
:104820000C94531B0E9400000C94531B019711F031
:104830000C94021B88EC90E0A0E0B0E00C94FA1A13
:10484000C351DF4F8880CD5ED0408110D2CAAFCB3C
:10485000FC0188279927E89421912032E9F3293037
:1048600010F02E30C8F32B3241F02D3239F4689419
:1048700004C00E94A924820F911D219120532A3047
:10488000C0F31EF4909581959F4F08951F93FC01EE
:1048900099278827BC01E89411911032E9F3193067
:1048A00010F01E30C8F31B3251F01D3249F46894E9
:1048B00006C00E949424610F711D811D911D1191EC
:1048C00010531A30B0F33EF4909580957095619531
:1048D0007F4F8F4F9F4F1F910895FA01A191B08193
:1048E000009719F41097E1F0CD01DC01CD010D9096
:1048F000002011F4C00113C0FB012191222319F003
:104900002015D9F7F3CFFB012191201519F41E9240
:10491000119606C02223C1F70D900020A1F7D00107
:10492000FA01A193B0830895592F482F372F262FCE
:10493000660F771F881F991F660F771F881F991FA3
:10494000620F731F841F951F660F771F881F991FA3
:1049500008957AE0979F902D879F802D910D1124C7
:104960000895BB27FA01A62F6217710581059105ED
:10497000330B30FB66F0AA27660F771F881F991F3D
:10498000AA1FA21710F0A21B63953850A9F7A05DCB
:10499000AA3308F0A95DA19336F7B111B193108243
:1049A000CA010C94D324DC01FC01672F7191772399
:1049B000E1F7329704C07C916D9370836291AE17DA
:1049C000BF07C8F30895F999FECF92BD81BDF89A4B
:1049D000992780B50895262FF999FECF1FBA92BD69
:1049E00081BD20BD0FB6F894FA9AF99A0FBE0196D0
:1049F0000895052E97FB1EF400940E94102557FD84
:104A000007D00E942B2507FC03D04EF40C941025F0
:104A100050954095309521953F4F4F4F5F4F0895EA
:104A200090958095709561957F4F8F4F9F4F08951A
:104A30000E944D25A59F900DB49F900DA49F800DC1
:104A4000911D11240895B7FF0C9418250E94182574
:104A5000821B930B0895A1E21A2EAA1BBB1BFD011A
:104A60000DC0AA1FBB1FEE1FFF1FA217B307E4074D
:104A7000F50720F0A21BB30BE40BF50B661F771FA5
:104A8000881F991F1A9469F7609570958095909585
:104A90009B01AC01BD01CF010895A29FB001B39F5E
:104AA000C001A39F700D811D1124911DB29F700D37
:104AB000811D1124911D08955058BB27AA270E94DB
:104AC00074250C94C5260E94B72638F00E94BE2695
:104AD00020F039F49F3F19F426F40C94B4260EF418
:104AE000E095E7FB0C94AE26E92F0E94D62658F3FA
:104AF000BA17620773078407950720F079F4A6F5C3
:104B00000C94F8260EF4E0950B2EBA2FA02D0B0175
:104B1000B90190010C01CA01A0011124FF27591B02
:104B200099F0593F50F4503E68F11A16F040A22F08
:104B3000232F342F4427585FF3CF46953795279579
:104B4000A795F0405395C9F77EF41F16BA0B620B78
:104B5000730B840BBAF09150A1F0FF0FBB1F661FBF
:104B6000771F881FC2F70EC0BA0F621F731F841F02
:104B700048F4879577956795B795F7959E3F08F028
:104B8000B0CF9395880F08F09927EE0F97958795EA
:104B900008950E94DD250C94C5260E94BE2658F07B
:104BA0000E94B72640F029F45F3F29F00C94AE260E
:104BB00051110C94F9260C94B4260E94D62668F361
:104BC0009923B1F3552391F3951B550BBB27AA27C6
:104BD00062177307840738F09F5F5F4F220F331F00
:104BE000441FAA1FA9F335D00E2E3AF0E0E832D0C8
:104BF00091505040E695001CCAF72BD0FE2F29D0CB
:104C0000660F771F881FBB1F261737074807AB079C
:104C1000B0E809F0BB0B802DBF01FF2793585F4F11
:104C20003AF09E3F510578F00C94AE260C94F9268C
:104C30005F3FE4F3983ED4F3869577956795B795F3
:104C4000F7959F5FC9F7880F911D9695879597F9FE
:104C50000895E1E0660F771F881FBB1F6217730777
:104C60008407BA0720F0621B730B840BBA0BEE1F8C
:104C700088F7E09508950E9442266894B1110C943B
:104C8000F92608950E94DE2688F09F5798F0B92FE4
:104C90009927B751B0F0E1F0660F771F881F991F71
:104CA0001AF0BA95C9F714C0B13091F00E94F826F5
:104CB000B1E008950C94F826672F782F8827B85F05
:104CC00039F0B93FCCF3869577956795B395D9F7C9
:104CD0003EF490958095709561957F4F8F4F9F4FD3
:104CE0000895E89409C097FB3EF4909580957095DF
:104CF00061957F4F8F4F9F4F9923A9F0F92F96E928
:104D0000BB279395F695879577956795B795F1119C
:104D1000F8CFFAF4BB0F11F460FF1BC06F5F7F4F39
:104D20008F4F9F4F16C0882311F096E911C077234B
:104D300021F09EE8872F762F05C0662371F096E854
:104D4000862F70E060E02AF09A95660F771F881F23
:104D5000DAF7880F9695879597F9089597F99F67E1
:104D600080E870E060E008959FEF80EC08950024F3
:104D70000A941616170618060906089500240A94C0
:104D800012161306140605060895092E0394000C46
:104D900011F4882352F0BB0F40F4BF2B11F460FFD5
:104DA00004C06F5F7F4F8F4F9F4F089557FD9058FE
:104DB000440F551F59F05F3F71F04795880F97FBDF
:104DC000991F61F09F3F79F0879508951216130699
:104DD0001406551FF2CF4695F1DF08C016161706C8
:104DE0001806991FF1CF86957105610508940895FD
:104DF000E894BB2766277727CB0197F908950E948F
:104E000012270C94C5260E94B72638F00E94BE26B1
:104E100020F0952311F00C94AE260C94B4261124A6
:104E20000C94F9260E94D62670F3959FC1F3950F36
:104E300050E0551F629FF001729FBB27F00DB11D1E
:104E4000639FAA27F00DB11DAA1F649F6627B00DAE
:104E5000A11D661F829F2227B00DA11D621F739F97
:104E6000B00DA11D621F839FA00D611D221F749FA5
:104E70003327A00D611D231F849F600D211D822FEC
:104E8000762F6A2F11249F5750409AF0F1F0882313
:104E90004AF0EE0FFF1FBB1F661F771F881F915040
:104EA0005040A9F79E3F510580F00C94AE260C941B
:104EB000F9265F3FE4F3983ED4F38695779567959E
:104EC000B795F795E7959F5FC1F7FE2B880F911D6A
:104ED0009695879597F90895FA01EE0FFF1F309682
:104EE00021053105A1F16115710561F48038BFE339
:104EF0009B0749F168949038810561F08038BFEFD5
:104F00009B0741F099234AF5FF3FE1053105210553
:104F100019F1E8940894E795D901AA2329F4AB2F55
:104F2000BE2FF85FD0F310C0FF5F70F4A695E0F7D6
:104F3000F73950F019F0FF3A38F49F779F930DD06E
:104F40000F9007FC9058089546F00C94B42660E04A
:104F500070E080E89FE308954FE79F775F934F935A
:104F60003F932F930E9467282F913F914F915F911C
:104F70000E94FF260C94C42729F416F00C94AE2648
:104F80000C94F8260C94B4260E94DE26A8F39638DA
:104F9000A0F707F80F92E8942BE33AEA48EB5FE7B3
:104FA0000E9415270F920F920F924DB75EB70F9286
:104FB0000E94AF28E8E6F0E00E94F6274F915F914B
:104FC000EF91FF91E595EE1FFF1F49F0FE57E06856
:104FD0004427EE0F441FFA95E1F74195550B0E94C7
:104FE00029280F9007FE0C941D280895DF93CF9376
:104FF0001F930F93FF92EF92DF927B018C016894D5
:1050000006C0DA2EEF010E941227FE01E894A59156
:105010002591359145915591A6F3EF010E94742594
:10502000FE019701A801DA9469F7DF90EF90FF90F5
:105030000F911F91CF91DF9108959B01AC0160E02A
:1050400070E080E89FE30C94C9250C94AE260C9484
:10505000E3280E94DE26D8F39923C9F3940F511D4B
:10506000A3F39150504094F059F0882332F0660F2A
:10507000771F881F91505040C1F79E3F51052CF774
:10508000880F911D9695879597F908955F3FACF02D
:10509000983E9CF0BB27869577956795B79508F461
:1050A000B1609395C1F7BB0F58F711F460FFE8CFDB
:1050B0006F5F7F4F8F4F9F4FE3CF0C94F92616F011
:1050C0000C94E3280C94B42668940C94AE260E94A9
:1050D000DE26A8F39923C1F3AEF3DF93CF931F939A
:1050E0000F93FF92C92FDD2788232AF02197660F9F
:1050F000771F881FDAF720E030E040E85FEB9FE39E
:10510000883920F0803E38F021968F770E945D2507
:10511000E0E9F0E004C00E945D25EDEBF0E00E94C4
:10512000F6278B01BE01EC01FB2E6F5771097595B7
:10513000771F880B990B0E94732628E132E741E321
:105140005FE30E941227AF2D9801AE01FF900F91EF
:105150001F91CF91DF910E9474250C94C526FA010E
:10516000DC01AA0FBB1F9B01AC01BF5728F422270B
:1051700033274427507820C0B75190F4AB2F002438
:10518000469537952795011CA395D2F3002071F021
:10519000220F331F441FB395DAF30ED00C945C2515
:1051A00061307105A0E88A07B94630F49B01AC0173
:1051B0006627772788279078309621F020833183DF
:1051C0004283538308959F3F31F0915020F4879597
:1051D00077956795B795880F911D9695879597F95F
:1051E0000895DB018F939F930E941825BF91AF9183
:1051F000A29F800D911DA39F900DB29F900D112431
:105200000895991B79E004C0991F961708F0961B22
:10521000881F7A95C9F780950895EE0FFF1F0590B6
:10522000F491E02D0994FB01DC010D900020E9F7D9
:10523000119701900D920020E1F70895AEE0B0E0E3
:10524000E4E2F9E20C94CD2B0D891E8986E08C8373
:105250001A8309838FEF9FE79E838D83AE01475E9C
:105260005F4F6F89788DCE0101960E9441292F8171
:105270003885020F131FF80110822E96E4E00C947B
:10528000E92BABE0B0E0E7E4F9E20C94BF2B7C0142
:105290003B018A01FC0117821682838181FFC8C10C
:1052A000CE0101965C01F7019381F30193FD859195
:1052B00093FF81913F01882309F453C1853239F46A
:1052C00093FD859193FF81913F01853229F4B701C8
:1052D00090E00E94312BE7CF912C212C312CFFE163
:1052E000F31538F08B3211F190F4803209F18332EA
:1052F00029F137FC3CC020ED280F2A3050F536FE4E
:1053000020C08AE0989E200D1124922E06C08D3276
:1053100091F0803371F7689430F8F30193FD859133
:1053200093FF81913F018111DACF21C0689431F858
:10533000689432F8F2CF689433F8EFCF689434F879
:10534000ECCFEAE02E9E200D1124222E689435F831
:10535000E4CF8E3229F436FC04C1689436F8DDCFF0
:105360008C3619F4689437F8D8CF8836B1F2982F74
:105370009F7D95549330E0F08336A1F18337C1F1DE
:10538000833509F063C02801F2E04F0E511CF8018B
:10539000C080D180692D70E036FC02C06FEF7FEFD6
:1053A000C6010E941B2B4C01689437F882010AC089
:1053B0000C5F1F4FFFE3F98388248394912C6501D0
:1053C000E89437F833FE2DC0522C8114910471F506
:1053D000552009F468CFB70180E290E00E94312B9C
:1053E0005A94F6CFF801808189830E5F1F4FE4CF76
:1053F0002801F2E04F0E511CF801C080D180692DC8
:1054000070E036FC02C06FEF7FEFC6010E94262BD2
:105410004C018201D5CFB70180E290E00E94312B90
:105420002A942814190409F0B0F7CECFF60137FCFE
:10543000859137FE81916F01B70190E00E94312B79
:1054400051105A94F1E08F1A9108BFCF843619F0A9
:10545000893609F077C0F80137FE6BC06081718131
:10546000828193810C5F1F4FF32DFF763F2E97FFB4
:1054700009C090958095709561957F4F8F4F9F4F94
:10548000689437F82AE030E0A5010E94612BC82E0D
:10549000CA188C2C432C36FE0CC0E89440F8C91472
:1054A00040F434FE05C032FC03C0F32DFE7E4F2EC7
:1054B000892C44FE95C0FE01EC0DF11D80818033E6
:1054C00009F087C0242D297E422E842D8870582E05
:1054D00043FC95C040FE8FC09C2C821418F42C0C09
:1054E000922C981844FE91C0B70180E390E00E948E
:1054F000312B42FE09C088E790E041FE02C088E5FA
:1055000090E0B7010E94312BC91408F48AC0CA94F4
:10551000D12C9FEFC91AD90ACA0CDB1CF601829163
:105520006F01B70190E00E94312BAC14BD04B1F7BC
:105530004FCF60817181072E000C880B990B0E5F95
:105540001F4F92CFD32CE894D4F82AE030E085376F
:1055500039F1232D297FD22E8F3601F148F4883579
:10556000A9F0F701868197812B96E2E10C94DB2B61
:10557000803749F08837A9F7D4FE02C06894D2F882
:1055800020E130E00DC06894D4F8F6CF34FE03C0BB
:10559000822F8660D82E20E132E002C028E030E081
:1055A000F801D7FE0FC060817181828193810C5F09
:1055B0001F4FA5010E94612BC82ECA183D2CE894EC
:1055C00037F867CF6081718190E080E00E5F1F4FF8
:1055D000F0CF42FC02C0839478CF8394839475CF3C
:1055E000842D867809F471CFF6CFB70180E290E080
:1055F0000E94312B83948214C0F3512C73CF522C10
:105600005818821408F46ECFF8CF842D867809F4E8
:105610007BCF8BE241FE80E247FC8DE2B70190E058
:1056200071CFB70180E390E00E94312B9A946CCF48
:105630008FEF9FEF99CFFC010590615070400110F2
:10564000D8F7809590958E0F9F1F0895FC016150AB
:10565000704001900110D8F7809590958E0F9F1F94
:1056600008950F931F93CF93DF93182F092FEB010A
:105670008B8181FD09C01FEF0FEF812F902FDF91EC
:10568000CF911F910F91089582FF14C02E813F8109
:105690008C819D81281739073CF4E881F981CF017D
:1056A00001969983888310838E819F8101969F83C1
:1056B0008E83E3CFE885F985812F0995892BA1F3A6
:1056C000DACFFA01AA27283051F1203181F1E8948C
:1056D0006F936E7F6E5F7F4F8F4F9F4FAF4FB1E0E5
:1056E0003ED0B4E03CD0670F781F891F9A1FA11DE0
:1056F000680F791F8A1F911DA11D6A0F711D811DE1
:10570000911DA11D20D009F468943F912AE0269FA5
:1057100011243019305D3193DEF6CF010895462F04
:105720004770405D4193B3E00FD0C9F7F6CF462FE5
:105730004F70405D4A3318F0495D31FD405241934E
:1057400002D0A9F7EACFB4E0A6959795879577950B
:105750006795BA95C9F700976105710508959B0192
:10576000AC010A2E06945795479537952795BA951B
:10577000C9F7620F731F841F951FA01D08952F92F4
:105780003F924F925F926F927F928F929F92AF92D1
:10579000BF92CF92DF92EF92FF920F931F93CF931E
:1057A000DF93CDB7DEB7CA1BDB0B0FB6F894DEBFB5
:1057B0000FBECDBF09942A88398848885F846E84DB
:1057C0007D848C849B84AA84B984C884DF80EE8025
:1057D000FD800C811B81AA81B981CE0FD11D0FB62E
:1057E000F894DEBF0FBECDBFED010895F894FFCF52
:1057F000050000000000803FFFFFFFFFFFFFFFFFED
:10580000FF000000006702C701F401CF0225020378
:1058100002170200000000330706077B07DC06FFC3
:1058200006EC06DD060D0A00616C7469636F6E6636
:1058300069672C0025692C00416C74695365727688
:105840006F00256C642C0025693B0A0024007465F8
:105850006C656D657472792C002D312C0025690002
:00000001FF
