:100000000C9437010C945F010C945F010C945F0118
:100010000C945F010C945F010C945F010C947820A8
:100020000C945F010C945F010C945F010C945F01D0
:100030000C945F010C945F010C945F010C945F01C0
:100040000C942C210C945F010C94FA200C94D42075
:100050000C945F010C945F010C945F010C945F01A0
:100060000C9476210C945F0107634236B79BD8A7A6
:100070001A39685618AEBAAB558C1D3CB7CC5763CD
:10008000BD6DEDFD753EF6177231BF000000803F7B
:1000900008000000BE922449123EABAAAA2ABECD97
:1000A000CCCC4C3E00000080BEABAAAAAA3E000009
:1000B0000000BF000000803F000000000008417801
:1000C000D3BB4387D1133D190E3CC3BD4282AD2B38
:1000D0003E68EC8276BED98FE1A93E4C80EFFFBE30
:1000E00001C4FF7F3F0000000000696E76616C690B
:1000F0006420636F6E660024554E4B4E4F574E3B47
:1001000000244B303B0A00244F4B3B0A00244F4B4A
:100110003B0A0054656C656D65747279206469737F
:1001200061626C65640A0054656C656D6574727912
:1001300020656E61626C65640A00244F4B3B0A00C7
:10014000244F4B3B0A00244F4B3B0A00636F6E6603
:10015000696720726573657465640A00244B4F3BC0
:100160000A00244F4B3B0A0024656E643B0A0024BE
:1001700073746172743B0A0024656E643B0A002448
:1001800073746172743B0A00436F6E74696E7569B3
:100190007479206F6E200A00436F6E74696E756902
:1001A0007479206F6666200A00466C69676874205F
:1001B0004C6973743A200A006E3B004E756D62659F
:1001C00072206F6620666C69676874200A00526549
:1001D000636F7264696E67200A006E6F742061201D
:1001E00076616C696420666C696768740052656149
:1001F0006420666C696768743A20004572617365B3
:100200000A0000000000240027002A00000000006F
:10021000230026002900000000080002010000035E
:100220000407000000000000000053746172742095
:1002300070726F6772616D0A00010204081020403D
:1002400080010204081020010204081020000000B0
:1002500000250028002B0004040404040404040204
:100260000202020202030303030303029522112484
:100270001FBECFEFD8E0DEBFCDBF11E0A0E0B1E000
:10028000EEEAF0E602C005900D92AC3CB107D9F75A
:1002900024E0ACECB1E001C01D92A43DB207E1F74F
:1002A00011E0C7E3D1E004C02197FE010E944A2D6E
:1002B000C633D107C9F70E94EA220C9455300C943A
:1002C000000091E09093300380932F0310922E034F
:1002D00010922D03089520912D0381E0213208F022
:1002E00044C080910C038111FCCF80912F0392E0D8
:1002F00090930C0391E090930B039FEF90930A036C
:100300001092090320930803ADE0B3E0E8EEF2E0B9
:1003100090E0291331C01092E7029091E702880F14
:10032000892B8093E7028091E602813049F5109293
:10033000E6028091E7028093BB008091BC0083FDC0
:10034000F8CF85EC8093BC0080910C038230E1F300
:1003500080910A038F3FB1F080910A038032A1F0AF
:1003600080910A03803391F084E010922E03109262
:100370002D031092300308953D9131939F5FC9CFB3
:1003800085EEE0CF80E0F1CF82E0EFCF83E0EDCFEC
:1003900090910C039111FCCF91E090930C039093FA
:1003A0000B032FEF20930A0310920903260F2093CB
:1003B00008039093E7029091E702880F892B8093BE
:1003C000E7028091E6028130F9F41092E602809112
:1003D000E7028093BB008091BC0083FDF8CF85ECE1
:1003E0008093BC0080910C038130E1F3809109037C
:1003F000861710F460910903A8EEB2E0E6ECF2E093
:1004000080E0861303C0089585EEEACF9D91919315
:100410008F5FF7CFE7EEF3E090E080E0418152811B
:1004200063817481452B462B472B29F00196389622
:100430008931910599F701970895089508950895D0
:10044000AF92BF92CF92DF92EF92FF920F931F93E2
:10045000CF93DF936C017B018B01040F151FEB0120
:100460005E01AE18BF08C017D10759F06991D601D7
:10047000ED91FC910190F081E02DC6010995892B49
:1004800079F7C501DF91CF911F910F91FF90EF9008
:10049000DF90CF90BF90AF900895FC01538D448DB5
:1004A000252F30E0842F90E0821B930B541710F01F
:1004B000CF96089501970895FC01918D828D98172C
:1004C00061F0A28DAE0FBF2FB11D5D968C91928D04
:1004D0009F5F9F73928F90E008958FEF9FEF089535
:1004E000FC01918D828D981731F0828DE80FF11DFE
:1004F000858D90E008958FEF9FEF0895FC01918D19
:10050000228D892F90E0805C9F4F821B91098F7311
:100510009927089581E393E00E947E0221E0892BD0
:1005200009F420E0822F089580E090E0892B29F0E3
:100530000E948A0281110C9400000895FC01A48D90
:10054000A80FB92FB11DA35ABF4F2C91848D90E0F5
:1005500001968F739927848FA689B7892C93A089D8
:10056000B1898C91837080648C93938D848D981362
:1005700006C00288F389E02D80818F7D80830895F5
:10058000EF92FF920F931F93CF93DF93EC0181E0E3
:10059000888F9B8D8C8D98131AC0E889F98980818A
:1005A00085FF15C09FB7F894EE89FF896083E889BD
:1005B000F98980818370806480839FBF81E090E0AF
:1005C000DF91CF911F910F91FF90EF900895F62E3C
:1005D0000B8D10E00F5F1F4F0F731127E02E8C8DD6
:1005E0008E110CC00FB607FCFACFE889F98980811B
:1005F00085FFF5CFCE010E949E02F1CFEB8DEC0F6F
:10060000FD2FF11DE35AFF4FF0829FB7F8940B8F37
:10061000EA89FB8980818062CFCF0F931F93CF93AC
:10062000DF938C01D0E0C0E0F801EC0FFD1F649176
:10063000662341F081E393E00E94C002892B11F010
:100640002196F2CFCE01DF91CF911F910F910895A6
:10065000CF93DF93EC01888D8823B9F0AA89BB89F9
:10066000E889F9898C9185FD03C0808186FD0DC0E4
:100670000FB607FCF7CF8C9185FFF2CF808185FF05
:10068000EDCFCE010E949E02E9CFDF91CF91089578
:10069000833081F028F4813099F08230A9F00895F8
:1006A0008730A9F08830C9F08430B1F4809180009F
:1006B0008F7D03C0809180008F77809380000895A4
:1006C00084B58F7784BD089584B58F7DFBCF8091ED
:1006D000B0008F778093B00008958091B0008F7D37
:1006E000F9CFCF93DF93282F30E0F901EA5EFD4F79
:1006F0008491F901E75CFD4FD491F901E95AFD4F6E
:10070000C491CC23A1F081110E944803EC2FF0E0AA
:10071000EE0FFF1FE45FFD4FA591B491EC91ED2327
:1007200081E090E009F480E0DF91CF91089580E0CE
:1007300090E0FACF1F93CF93DF93282F30E0F90199
:10074000EA5EFD4F8491F901E75CFD4FD491F90118
:10075000E95AFD4FC491CC23A9F0162F81110E94B4
:100760004803EC2FF0E0EE0FFF1FE35BFD4FA59178
:10077000B4918FB7F894EC91111108C0D095DE2395
:10078000DC938FBFDF91CF911F910895DE2BF8CFBF
:100790001092C5021092C40210922E0310922D03E3
:1007A00010920C0381E080930B031092E60261E04B
:1007B00082E10E949A0361E083E10E949A03E9EBDF
:1007C000F0E080818E7F808380818D7F808388E4CC
:1007D0008093B80085E48093BC008DE192E0909313
:1007E000B2028093B1028EE192E09093B0028093C6
:1007F000AF0208959091110189130BC0EBE6F2E06E
:10080000E4919FEF90931101E13049F028F0E2303C
:1008100061F060E00C949A0310926E00FACF909110
:100820006F009D7F90936F00F4CF909170009D7F3B
:100830009093700091E09093B0009091B100987FF8
:1008400094609093B1001092B300E3CFCF93DF9305
:1008500090E0FC01E75CFD4F2491895A9D4FFC011B
:1008600084918823C9F090E0880F991FFC01EE5F06
:10087000FD4FA591B491FC01E35BFD4FC591D4916F
:1008800061110DC09FB7F8948C91209582238C93B1
:100890008881282328839FBFDF91CF9108956230FC
:1008A00051F49FB7F8943C91822F809583238C93C9
:1008B000E8812E2BEFCF8FB7F894EC912E2B2C9351
:1008C0008FBFEACF4F925F926F927F928F929F92EB
:1008D000AF92BF92CF92DF92EF92FF920F931F934E
:1008E000CF93DF9300D000D01F92CDB7DEB78C013D
:1008F0002A013B01809111018C30C9F08F3F09F42E
:100900007FC00F900F900F900F900F90DF91CF91BD
:100910001F910F91FF90EF90DF90CF90BF90AF901D
:100920009F908F907F906F905F904F900895EBE62F
:10093000F2E084918D8387FDE4CF61E08CE00E943A
:1009400026048D81882321F09D81923009F05CC1BD
:100950004801B12CA12C60E072E18AE790E0A5018A
:1009600098010E942B2D29833A834B835C83690174
:100970007A0181E0C81AD108E108F1089FEFC91691
:10098000D104E104F10409F00CF413C160E472E451
:100990008FE090E0A50198010E942B2D69017A015A
:1009A00081E0C81AD108E108F1089D81923009F070
:1009B00098C08FEFC816D104E104F10409F00CF4DB
:1009C000DDC160E970ED83E090E0A50198010E942F
:1009D0002B2D69017A0191E0C91AD108E108F108CB
:1009E0008FEFC816D104E104F10411F00CF0A3C19B
:1009F00083E09091B100987F892B8093B100E1C092
:100A00008CE080931101EBE6F2E094919D839F3F8F
:100A100009F477CF913029F158F0923009F43FC0B2
:100A20008D8187FD6ECF61E08CE00E9426048CCF23
:100A300014BC15BC84B5826084BD85B5816085BD5C
:100A4000E3E6F2E0E491F0E0EE0FFF1FE35BFD4F21
:100A500085919491E5E4F2E0E491E093B7021D8280
:100A60006CCF10928000109281008091810088608C
:100A70008093810080918100816080938100E3E612
:100A8000F2E0E491F0E0EE0FFF1FE35BFD4F859194
:100A90009491E5E4F2E0E491E093B6024ECF109237
:100AA000B0001092B1008091B00082608093B000DD
:100AB0008091B10081608093B100E3E6F2E0E491BF
:100AC000F0E0EE0FFF1FE35BFD4F85919491909353
:100AD000B5028093B402E5E4F2E0E491E093B3025E
:100AE0002CCF9FEFC916D104E104F10409F00CF4F6
:100AF00089C068E478EE81E090E0A50198010E9449
:100B00002B2D69017A0181E0C81AD108E108F108AA
:100B10009D81992309F428C19FEFC916D104E104EE
:100B2000F10409F00CF41EC162E17AE780E090E084
:100B3000A50194010E942B2D69017A0181E0C81A58
:100B4000D108E108F1089D81992309F4EBC08FEFEA
:100B5000C816D104E104F10411F008F0BFC086E02A
:100B600048CF64E274EF80E090E0A50194010E9418
:100B70002B2D69017A0181E0C81AD108E108F1083A
:100B800085E09FEFC916D104E104F10409F008F4EF
:100B900030CF62E17AE780E090E0A50194010E9405
:100BA0002B2D69017A0191E0C91AD108E108F108F9
:100BB000CECF81E09D8191111CCF95B5987F892B77
:100BC00085BD2FEF3FEFA901411451046104710469
:100BD00009F043C09D81913009F45EC0923009F460
:100BE0006DC091118ECEC7BC2093C0023093C1025C
:100BF0004093C2025093C30280916E008260809342
:100C00006E007FCE82E0D6CFB12CA12C60E072E1E5
:100C10008AE790E0A50198010E942B2D69017A01D5
:100C200081E0C81AD108E108F108C114D10491E0AB
:100C3000E906F10404F591E08D81813011F680918F
:100C40008100887F892B809381002FEF3FEFA901DE
:100C50004114510461047104F9F0D801AA0FBB1FBB
:100C6000A30192010E94502D28EE33E040E050E0B5
:100C70000E94092DAFCF68E478EE81E090E0A501F5
:100C800098010E942B2D69017A0181E0C81AD108D0
:100C9000E108F10893E0D0CFD0928900C09288009B
:100CA0002093BC023093BD024093BE025093BF021A
:100CB00080916F00826080936F0023CEC092B3005A
:100CC0002093B8023093B9024093BA025093BB020A
:100CD0008091700082608093700013CEC980DA80AA
:100CE000EB80FC809AE0F594E794D794C7949A95AA
:100CF000D1F791E0C91AD108E108F10887E079CE6F
:100D0000C980DA80EB80FC808AE0F594E794D79480
:100D1000C7948A95D1F791E0C91AD108E108F10882
:100D200085E04BCF8FEFC816D104E104F10409F040
:100D300038F784E042CF68E478EE81E090E0A501E6
:100D400098010E942B2D69017A0191E0C91AD108FE
:100D5000E108F1088FEFC816D104E104F10411F0A5
:100D60000CF0FFCE84E045CE8FEFC816D104E1042D
:100D7000F10411F00CF0D8CE83E01FCF82E039CE21
:100D80003FB7F89480911B0290911C02A0911D0224
:100D9000B0911E0226B5A89B05C02F3F19F0019601
:100DA000A11DB11D3FBFBA2FA92F982F8827BC01C5
:100DB000CD01620F711D811D911D42E0660F771FED
:100DC000881F991F4A95D1F708958F929F92AF92ED
:100DD000BF92CF92DF92EF92FF924B015C010E9493
:100DE000C0066B017C010E94C0066C197D098E094A
:100DF0009F09683E734081059105A8F321E0821A9E
:100E00009108A108B10888EEC80E83E0D81EE11C45
:100E1000F11C81149104A104B10429F7FF90EF9013
:100E2000DF90CF90BF90AF909F908F9008952FB795
:100E3000F8946091170270911802809119029091B4
:100E40001A022FBF089585ED8093BC008091BC00ED
:100E500084FDFCCF10920C0308952091F301260F1E
:100E60003327331F21323105ECF420910C03FC01B0
:100E700090E080E0243069F082E00895A091F301D1
:100E80002191AC014D525E4FA40FB52FB11D2C9393
:100E90000196861798F38091F301680F6093F30130
:100EA00080E0089581E008950895E091C502809161
:100EB000C402E81730F4F0E0EA53FD4F808190E07F
:100EC00008958FEF9FEF08959091C5028091C4021D
:100ED0002FEF3FEF981748F4E92FF0E0EA53FD4F6A
:100EE000208130E09F5F9093C502C90108958091F1
:100EF000C4029091C502891B990B0895CF92DF928D
:100F0000EF92FF920F931F93CF93DF937C01CB015E
:100F10008A0120913003222389F0EB016B01C40E7A
:100F2000D51ECC15DD0569F06991D701ED91FC91D5
:100F30000190F081E02DC7010995F3CF642F0E9445
:100F40002D07C801DF91CF911F910F91FF90EF9076
:100F5000DF90CF900895CF93DF931F92CDB7DEB788
:100F60006983209130032223F9F020912D03203250
:100F700058F021E030E0FC013383228390E080E0F0
:100F80000F90DF91CF91089580912E03E82FF0E02C
:100F9000E35FFC4F998190838F5F80932E03809352
:100FA0002D0381E090E0ECCF61E0CE0101960E943C
:100FB0002D07F7CF4F925F926F927F928F929F9201
:100FC000AF92BF92CF92DF92EF92FF920F931F9357
:100FD000CF93DF932B013C017A01890120E2C22EDD
:100FE000D12C3BECA32E37E0B32EC091DE03D09181
:100FF000DF03CE01019784219521C81BD90B809175
:10100000E1039091E2039601281B390BC9010217F5
:10101000130708F4C8018C179D0708F4EC018091B0
:10102000E003A301920104C0569547953795279593
:101030008A95D2F79090DA03922A892D0E94610155
:101040008091E1039091E203029741F49927872D63
:10105000762D652D8EEC93E00E94AB07642D8EEC0F
:1010600093E00E94AB07AE01B7018EEC93E00E94C3
:101070007E070E946B0181111FC084E6882EC50186
:101080000197F1F7892D0E9461018091E103909110
:10109000E203029729F460E08EEC93E00E94AB0734
:1010A00060E08EEC93E00E94AB070E946B01882306
:1010B000A1F08A948110E3CFDF91CF911F910F911E
:1010C000FF90EF90DF90CF90BF90AF909F908F9068
:1010D0007F906F905F904F9008954C0E5D1E611C45
:1010E000711CEC0EFD1E0C1B1D0B09F07ECFE4CF16
:1010F0008091E3039091E403A091E503B091E603AE
:10110000883C9105A105B10548F028EC30E048EE97
:1011100053E060E070E0CB010E94DA0788EC90E0D9
:10112000089590E080E00895CF93DF93CDB7DEB7C8
:10113000E2970FB6F894DEBF0FBECDBF10926A02E1
:101140001092690210926C0210926B0210926E0261
:1011500010926D0281E090E09093700280936F0294
:1011600083E090E090937202809371021092780273
:101170001092770210927A021092790210927C02F9
:1011800010927B0222E330E03093740220937302CA
:10119000109276021092750228EB31E030937E02B5
:1011A00020937D0225E030E03093800220937F027F
:1011B00090938202809381021092840210928302A3
:1011C000109286021092850240E056E960E070E0DD
:1011D00040938702509388026093890270938A0239
:1011E00010928C0210928B0220E032E030938E023B
:1011F00020938D021092900210928F02909392028F
:101200008093910210929402109293028AE090E0EF
:1012100090939602809395021092980210929702F2
:1012200082E3E9E6F2E0DE01119601900D928A95E3
:10123000E1F7FE013196AE014F5C5F4F90E080E038
:10124000E417F50731F02191820F911D27FD9A9542
:10125000F7CF90939A0280939902E2960FB6F89492
:10126000DEBF0FBECDBFDF91CF91089548EE53E0B2
:1012700060E070E080914302909144020E94620419
:101280006CED75E080E090E00E94E5068CE00C9447
:10129000FA03CF93DF93CAE0D0E048EE53E060E07A
:1012A00070E080E496E00E94620462E370E080E017
:1012B00090E00E94E5068CE00E94FA03219769F70E
:1012C00068EE73E080E090E0DF91CF910C94E5064A
:1012D00049E150E060E070E0809143029091440267
:1012E0000E9462046CE271E080E090E00E94E506FA
:1012F0008CE00C94FA03CF92DF92EF92FF920F935F
:101300001F93CF93DF936B017C0124E6C216D104B7
:10131000E104F1040CF446C024E630E040E050E083
:101320000E942B2D890164E6629FC001639F900D8E
:101330001124092E000CAA0BBB0BA7019601281B38
:10134000390B4A0B5B0BCA01B9012AE030E040E0DF
:1013500050E00E942B2DE901EE24E394F12C1016AD
:10136000110644F11C161D067CF401E010E00E94F9
:10137000680962E370E080E090E00E94E5060F5F9C
:101380001F4FC017D1079CF768E873E180E090E039
:10139000DF91CF911F910F91FF90EF90DF90CF9051
:1013A0000C94E5062AE030E040E050E00E942B2D4E
:1013B000E901D8CF0E94360962E370E080E090E056
:1013C0000E94E5063FEFE31AF30A0E151F0594F796
:1013D000C9CF662319F061E00C949A0360E0FCCF5A
:1013E0001092D10110929C0210929B021092600206
:1013F00010925F0210925E021092D0011092A5022C
:1014000010926502109266021092670210926802B2
:1014100010926102109262021092630210926402B2
:1014200010922F021092300210923102109232026A
:1014300008950E94F0098091690290916A02892BB7
:1014400009F08DC080E090E0A0E8BFE380930D013B
:1014500090930E01A0930F01B0931001609173025D
:1014600070917402072E000C880B990B0E947B2A46
:1014700020910D0130910E0140910F01509110010A
:101480000E94D1290E94432A072E000C880B990B39
:101490006093330270933402809335029093360246
:1014A00080917D0290917E0290934402809343024A
:1014B00080917F0290918002092E000CAA0BBB0B39
:1014C0008093000190930101A0930201B093030166
:1014D0008FEF9FEF909305018093040180916D023F
:1014E00090916E02039751F0109205011092040141
:1014F0008AE090E090934A028093490280916F02C3
:1015000090917002039791F08091040190910501F0
:1015100001969093050180930401880F991FFC01A7
:10152000E75BFD4F8BE090E09183808380917102B7
:1015300090917202039791F08091040190910501BE
:1015400001969093050180930401880F991FFC0177
:10155000E75BFD4F80E190E091838083089588E40C
:1015600099EFA1E5B0E472CF682F87E70E94C80128
:101570001092C5028093C4020895CF93C82F87E7C5
:101580000E9461016C2F8EEC93E00E94AB070E94D9
:101590006B0187E70E94610181E090E00E94B40A3C
:1015A0008EEC93E00E946407C82F0E946B018C2F81
:1015B000CF910895CF93DF93C82F87E70E946101F1
:1015C0006C2F8EEC93E00E94AB070E946B0187E7C3
:1015D0000E94610182E090E00E94B40A8EEC93E0E8
:1015E0000E946407D82F80E0C82F8EEC93E00E9401
:1015F0006407C82BD92B0E946B01CE01DF91CF91DC
:1016000008956F927F928F929F92AF92BF92CF92E6
:10161000DF92EF92FF920F931F93CF93DF934B01D3
:101620005C016A018901C091DE03D091DF03CE0124
:10163000019788219921C81BD90BC80101321105D6
:1016400010F080E290E08C179D0708F4EC01809187
:10165000E003A501940104C0569547953795279559
:101660008A95D2F7F090DA03F22A8F2D0E94610159
:101670008091E1039091E203029741F499278B2D29
:101680007A2D692D8EEC93E00E94AB07682D8EECCD
:1016900093E00E94AB070E946B01682E811122C06B
:1016A0006C2F8F2D0E94C8011092C5028093C40236
:1016B000712CE72CF12CEC16FD0650F48EEC93E027
:1016C0000E946407F601EE0DFF1D80837394F1CF35
:1016D0008C0E9D1EA11CB11CCC0EDD1E0C1B1D0B07
:1016E00009F0A1CF862DDF91CF911F910F91FF902F
:1016F000EF90DF90CF90BF90AF909F908F907F90B2
:101700006F9008958091E3039091E403A091E50325
:10171000B091E603883C9105A105B10548F028EC9D
:1017200030E048EE53E060E070E0CB010E94010B36
:1017300088EC90E0089587E70E94610164EF8EECE9
:1017400093E00E94AB076EE28EEC93E00E94AB0741
:101750000E946B018FE19EE40197F1F700C0000049
:1017600086EF0C94DA0A8F929F92AF92BF92CF923B
:10177000DF92EF92FF92CF93DF930E949B0B9C012D
:1017800050E040E0CDEBD4E08D899E89281B390BD9
:1017900041095109AB89BC890E94502D0E947B2AC6
:1017A00020E030E040E058E30E94072B0E94432AEB
:1017B0006B017C016D857E85072E000C880B990BD3
:1017C0000E947B2A20E030E040E055E40E94072B95
:1017D0004B015C016F857889072E000C880B990BF3
:1017E0006C0D7D1D8E1D9F1D0E947B2A9B01AC01EF
:1017F000C501B4010E94D1290E94432A6C0D7D1DB0
:101800008E1D9F1D685F7F4F8F4F9F4F0E947B2AC9
:1018100020E030E040E85DE30E94072B20E030E06C
:1018200040E251E40E94D129DF91CF91FF90EF90E7
:10183000DF90CF90BF90AF909F908F900895FC0164
:1018400001900020E9F73197AF01481B590BBC010B
:1018500081E393E00C942002CF93DF930E941F0C4E
:10186000EC0186E491E00E941F0C8C0F9D1FDF911C
:10187000CF910895CF93DF93682F81E393E00E9487
:10188000C002EC0186E491E00E941F0C8C0F9D1FAA
:10189000DF91CF910895CF93DF930E940D03EC0168
:1018A00086E491E00E941F0C8C0F9D1FDF91CF9169
:1018B00008958F929F92AF92BF92CF92DF92EF9254
:1018C000FF920F931F93CF93DF93CDB7DEB7A1970E
:1018D0000FB6F894DEBF0FBECDBF6B017C01F7FEE3
:1018E00041C06DE281E393E00E94C0028C01222797
:1018F0003327A9012C193D094E095F0919A2CE0110
:1019000081967C019AE0892E912CA12CB12CCA01E0
:10191000B901A50194010E94092D605DF701629350
:101920007F01211531054105510589F790E080E0DF
:10193000309719F0CF010E941F0C800F911FA196C4
:101940000FB6F894DEBF0FBECDBFDF91CF911F91D0
:101950000F91FF90EF90DF90CF90BF90AF909F904E
:101960008F900895AC019B0119A28E010F5D1F4F4E
:101970008AE0C82ED12CE12CF12CCA01B901A701B3
:1019800096010E94092D605DF80162938F01211577
:1019900031054105510589F790E080E0309779F2F3
:1019A000CF010E941F0CCBCFCF92DF92EF92FF921C
:1019B000CF93DF930E94820BC7EED3E0C12CD12CD2
:1019C0007601C60149815A816B817C81452B462B6A
:1019D000472BB1F189E491E00E941F0CC701B601C9
:1019E0000E94590C86E491E00E941F0C86E591E06C
:1019F0000E941F0C69817A818B819C810E94590C05
:101A000086E491E00E941F0C8EE591E00E941F0C7D
:101A10006D817E818F8198850E94590C86E491E0CA
:101A20000E941F0C28968FEFC81AD80AE80AF80AF5
:101A300089E1C816D104E104F10419F689E190E0C6
:101A4000DF91CF91FF90EF90DF90CF9008952F928C
:101A50003F924F925F926F927F928F929F92AF923E
:101A6000BF92CF92DF92EF92FF920F931F93CF938B
:101A7000DF93CDB7DEB7C958D1090FB6F894DEBFF2
:101A80000FBECDBFFC0123E0EE0FFF1F2A95E1F74B
:101A9000E951FC4F81809280A380B48029EC8216AA
:101AA0009104A104B10408F408C11C018581968148
:101AB000A781B085412C512C32019C01AD012F5FD3
:101AC0003F4F4F4F5F4FCC57DF4F288339834A83B7
:101AD0005B83C458D040AE014D5F5F4FCE57DF4FA0
:101AE00059834883C258D0408E0107581F4FC80100
:101AF0000296C857DF4F99838883C858D0408AE63A
:101B0000E82E81E0F82E9EE6C92E91E0D92ECC5722
:101B1000DF4F288139814A815B81C458D0408216C9
:101B20009306A406B50608F0C8C04091E30350919F
:101B3000E4036091E5037091E603D501C4010C96BE
:101B4000A11DB11D481759076A077B0740F02CE01B
:101B500030E040EB54E0C501B4010E94010B3DE0D0
:101B6000830E911CA11CB11C1A821982CE57DF4F23
:101B7000A881B981C258D040E6E71D92EA95E9F7FD
:101B8000D8011D921C92C857DF4FE881F981C858CF
:101B9000D04027E011922A95E9F78091B004909106
:101BA000B104A091B204B091B304480E591E6A1E4C
:101BB0007B1E64E671E0CE0101960E94722D3F9279
:101BC0002F92FF92EF921F930F930E947D2DB801E9
:101BD000CE0101960E94722D7F926F925F924F927A
:101BE000FF92EF921F930F930E947D2DB801CE01BB
:101BF00001960E94722D8091B7048F938091B60454
:101C00008F938091B5048F938091B4048F93FF924A
:101C1000EF921F930F930E947D2DB801CE01019684
:101C20000E94722D8091BB048F938091BA048F9390
:101C30008091B9048F938091B8048F93FF92EF92B3
:101C40001F930F930E947D2DB801CE0101960E9433
:101C5000722DFE0131960FB6F894DEBF0FBECDBFD8
:101C600090E080E02191820F911D27FD9A950E173B
:101C70001F07C1F799279F938F93DF92CF921F93EE
:101C80000F930E947D2DB801CE0101960E94722D06
:101C90006AEB71E0CE0101960E94722D81E791E01E
:101CA0000E941F0CCE0101960E941F0C0F900F90F6
:101CB0000F900F900F900F902ACFC757DF4F0FB69E
:101CC000F894DEBF0FBECDBFDF91CF911F910F9172
:101CD000FF90EF90DF90CF90BF90AF909F908F904C
:101CE0007F906F905F904F903F902F9008952F922C
:101CF0003F924F925F926F927F928F929F92AF929C
:101D0000BF92CF92DF92EF92FF920F931F93CF93E8
:101D1000DF93CDB7DEB7C15AD1090FB6F894DEBF55
:101D20000FBECDBF1A821982FE01339624E9DF016E
:101D30001D922A95E9F78E0109561F4FF80111925D
:101D4000119228E0DF011D922A95E9F72091D20136
:101D5000222309F4C8C17A01892E982EA72EB62E07
:101D60000E9417074090CC015090CD016090CE01A9
:101D70007090CF01DC01CB0184199509A609B70940
:101D8000A701FF0C660B770B481759076A077B07FB
:101D900008F0A9C10E9417076093CC017093CD0190
:101DA0008093CE019093CF016090A502B0919C02E8
:101DB000CF55DF4FB883C15AD0402090A602309053
:101DC000A7024090A8025090A90280919B02811125
:101DD000A4C1712CC12CD12C63E771E0CE01019616
:101DE0000E94722D5F924F923F922F924AE6E42E0C
:101DF00041E0F42EFF92EF921F930F930E947D2DEE
:101E0000B801CE0101960E94722D1F926F92FF922F
:101E1000EF921F930F930E947D2DB801CE01019682
:101E20000E94722D1F92CF55DF4F8881C15AD0403A
:101E30008F93FF92EF921F930F930E947D2DB80115
:101E4000CE0101960E94722D809168028F9380913D
:101E500067028F93809166028F93809165028F93C2
:101E6000FF92EF921F930F930E947D2DB801CE0138
:101E700001960E94722D1F927F92FF92EF921F9304
:101E80000F930E947D2D0FB6F894DEBF0FBECDBF1D
:101E9000B801CE0101960E94722D809164028F9349
:101EA000809163028F93809162028F93809161028F
:101EB0008F93FF92EF921F930F930E947D2DB80195
:101EC000CE0101960E94722DDF92CF92FF92EF9287
:101ED0001F930F930E947D2DB801CE0101960E94A1
:101EE000722D8F929F92AF92BF92FF92EF921F93AB
:101EF0000F930E947D2DB801CE0101960E94722D94
:101F00000FB6F894DEBF0FBECDBF80916D029091E9
:101F10006E0261E871E0039749F08AE00E94710364
:101F20006EE771E0892B11F062E871E0CE01019655
:101F30000E94722D80916F029091700261E871E0B1
:101F4000039781F08BE00E9471037C0164E170E0F3
:101F500080E090E00E94E5066EE771E0EF2811F066
:101F600062E871E0CE0101960E94722D80917102AB
:101F70009091720261E871E0039749F080E10E945C
:101F800071036EE771E0892B11F062E871E0CE0118
:101F900001960E94722D61E871E0CE0101960E94C7
:101FA000722D61E871E0CE0101960E94722D0E94AF
:101FB000B30B0E94432A7F936F938AE691E09F932D
:101FC0008F931F930F930E947D2DB801CE01019630
:101FD0000E94722DE7EEF3E00F900F900F900F909C
:101FE0000F900F9090E080E0418152816381748175
:101FF000452B462B472B29F00196389689319105C0
:1020000099F723E0880F991F2A95E1F7FC01E15227
:10201000FC4F65817681878190850E947B2A20E034
:1020200030E040E857E30E94072B20E030E048EC26
:1020300052E40E94072B0E94432A7F936F933AE653
:10204000E32E31E0F32EFF92EF921F930F930E9445
:102050007D2DB801CE0101960E94722D0E940A02C8
:1020600001969F938F93FF92EF921F930F930E947D
:102070007D2DB801CE0101960E94722DFE01319690
:102080000FB6F894DEBF0FBECDBF90E080E0219187
:10209000820F911D27FD9A950E171F07C1F79927EB
:1020A0009F938F938EE691E09F938F931F930F934F
:1020B0000E947D2DB801CE0101960E94722D6AEB1F
:1020C00071E0CE0101960E94722D81E791E00E949D
:1020D0001F0CCE0101960E941F0C0F900F900F90C5
:1020E0000F900F900F90CF55DF4F0FB6F894DEBFD3
:1020F0000FBECDBFDF91CF911F910F91FF90EF9059
:10210000DF90CF90BF90AF909F908F907F906F9017
:102110005F904F903F902F90089581E0D12CBAE0CE
:102120002B163104410451040CF080E0C82E7724B2
:10213000739452CE0F931F93CF93DF9309E612E06F
:10214000C0E2D0E0F80161918F01CE010E945629D2
:102150002196C235D105B1F7DF91CF911F910F9133
:102160000895EF92FF920F931F93CF93DF93CDB714
:10217000DEB7E2970FB6F894DEBF0FBECDBF0E9468
:10218000940889E6E82E82E0F82E00E210E0C8010B
:102190000E944E29F70181937F010F5F1F4F023587
:1021A0001105A9F74091990250919A0282E3E9E65C
:1021B000F2E0DE01119601900D928A95E1F7FE01A1
:1021C0003196BE016F5C7F4F30E020E0E617F707E5
:1021D00031F08191280F311D87FD3A95F7CF81E0CD
:1021E0004217530709F080E0E2960FB6F894DEBF7D
:1021F0000FBECDBFDF91CF911F910F91FF90EF9058
:1022000008958F929F92AF92BF92CF92DF92FF92EA
:102210000F931F93CF93DF9300D000D01F92CDB7C1
:10222000DEB72AE0AE014F5F5F4F6A010E941C29B2
:10223000F60101900020E9F73197FE2EFC1868EBBB
:102240007BE080E090E00E94E50656018A2D8C1923
:102250008F15F0F468EE73E080E090E00E94E506F0
:10226000F50101915F01005309F40AE010E0912C9F
:10227000812C0E946809FFEF8F1A9F0A8016910631
:102280002CF76AEF70E080E090E00E94E506F1CF65
:102290000F900F900F900F900F90DF91CF911F91A3
:1022A0000F91FF90DF90CF90BF90AF909F908F9055
:1022B00008954F925F926F927F928F929F92AF920A
:1022C000BF92CF92DF92EF92FF921F93CF93DF9353
:1022D00000D000D000D0CDB7DEB70E949B0B4C01E0
:1022E000B12CA12C2091BD042295220F220F207C1D
:1022F0002C5C298387E70E94610164EF8EEC93E0F8
:102300000E94AB0769818EEC93E00E94AB070E94AC
:102310006B018091BD04811109C28FE19EE4019798
:10232000F1F700C0000086EF0E94DA0AB0E0A0E0FA
:10233000CC24D82EE92EFA2E88EF0E94BD0AC82A96
:102340001091BD04212F30E03E832D838091D20473
:102350009091D304A5019401281B390B410951091F
:10236000A091D004B091D1040E94502D0E947B2AEC
:1023700020E030E040E058E30E94072B0E94432A0F
:102380002B013C016091CA047091CB04072E000C14
:10239000880B990B0E947B2A20E030E040E055E456
:1023A0000E94072B4B015C016091CC047091CD041D
:1023B000072E000C880B990B640D751D861D971D4B
:1023C0000E947B2A9B01AC01C501B4010E94D12966
:1023D0000E94432A460E571E681E791E30EA431A91
:1023E0003FE0530A61087108A3019201C301B201E1
:1023F0000E94F92C9B01AC01ACE0559547953795AF
:102400002795AA95D1F729833A834B835C83A091C2
:10241000C204B091C304A30192010E945B2D4B0141
:102420005C01BDE0B594A79497948794BA95D1F7D1
:10243000A091C404B091C50429813A814B815C818B
:102440000E945B2D9C01552737FD5095452F280D87
:10245000391D4A1D5B1D2E5F3F4F4F4F5F4F62E09E
:1024600055954795379527956A95D1F730584F4F31
:102470005F4FA091CE04B091CF040E94502D4B012C
:102480005C017FE0B694A794979487947A95D1F7EE
:1024900088E090E04D815E81841B950B04C0F6942A
:1024A000E794D794C7948A95D2F7A091C604B091C7
:1024B000C70429813A814B815C810E945B2D9B017D
:1024C000AC01EBE05595479537952795EA95D1F7FF
:1024D00029833A834B835C83A091C004B091C104EB
:1024E000A30192010E945B2DFBE09595879577955E
:1024F0006795FA95D1F729813A814B815C81620F0A
:10250000731F841F951F4090BE045090BF04052C7C
:10251000000C66087708A2E0440C551C661C771C6A
:10252000AA95D1F7640D751D861D971D012E04C057
:10253000660F771F881F991F0A94D2F76E5F7F4F2F
:102540008F4F9F4F24E030E040E050E00E942B2D61
:10255000D701C601821B930BA40BB50B9C01AD01E7
:1025600060E573EC80E090E004C0969587957795E0
:1025700067951A95D2F70E94F92C97FDEDC0660F6A
:10258000771F881F991FA50194010E94092D6901D9
:102590007A019927F7FC9A958F2D7E2D6D2D9B0141
:1025A000AC010E94F92C9B01AC01AEEDBBE00E9496
:1025B000502D4B015C01A3E4B3EEA70196010E94EC
:1025C0005E2DBC01992777FD9095892F4501BB248D
:1025D00097FCB094AB2C680D791D8A1D9B1D61532F
:1025E000714F8F4F9F4F44E09595879577956795ED
:1025F0004A95D1F76C0D7D1D8E1D9F1D0E947B2A73
:1026000020E836EE45EC57E40E94D12921E03EED6A
:1026100042E45EE30E94742B69837A838B839C83FC
:102620004090230250902402609025027090260270
:1026300020912702309128024091290250912A02CC
:1026400060911F02709120028091210290912202DC
:102650000E9465296B017C0120912B0230912C0294
:1026600040912D0250912E020E9465299B01AC01E0
:1026700060E070E080E89FE30E94D129A701960105
:102680000E94072B4B015C0129813A814B815C81BF
:1026900060E070E080E89FE30E94642920E03AE275
:1026A0004DE257E40E94072BA30192010E94642986
:1026B000A50194010E94072BA30192010E946529A4
:1026C0002B013C0140922302509224026092250289
:1026D00070922602A501940160E070E080E89FE31B
:1026E0000E946429A70196010E94072B60931F0294
:1026F000709320028093210290932202C301B201C1
:1027000026960FB6F894DEBF0FBECDBFDF91CF91F6
:102710001F91FF90EF90DF90CF90BF90AF909F9070
:102720008F907F906F905F904F900895813029F443
:10273000AFEFBCE71197F1F7F4CD823029F48FEBBE
:102740009AED0197F1F7EDCD9FEFA4E4B1E0915040
:10275000A040B040E1F7E5CDA50194010E94092D0C
:1027600069017A01CC0CDD1CEE1CFF1C12CF2F92EC
:102770003F924F925F926F927F928F929F92AF9211
:10278000BF92CF92DF92EF92FF920F931F93CF935E
:10279000DF93CDB7DEB7CC54D1090FB6F894DEBFC6
:1027A0000FBECDBF0E94F00919A61AA61BA61CA633
:1027B000188E1F8A80917702909178029A8B898B6C
:1027C0008091790290917A029C8B8B8B80917B0215
:1027D00090917C029E8B8D8B88E0E2E1F1E0DE013E
:1027E000599601900D928A95E1F740916D025091B2
:1027F0006E025A8F498F20916F02309170023C8F88
:102800002B8F80917102909172029E8F8D8F68E064
:10281000EAE1F1E0DE01919601900D926A95E1F70F
:102820004330510521F049E050E05AA349A3233039
:10283000310521F02DE030E03CA32BA3039721F0DC
:1028400081E190E09EA38DA380E1FE013196DF013E
:102850001D928A95E9F71DA61EA61FA618AA1CAEF2
:102860002D961CAE1DAE1EAE1FAE2D9729961CAE2A
:102870001DAE1EAE1FAE29971BAA1CAA1DAA1EAA1A
:1028800025961CAE1DAE1EAE1FAE2597F12C1BAEBD
:102890001AAA19AA8091D10181115AC70E9459110F
:1028A0004B015C016091AA027091AB028091AC0275
:1028B0009091AD020E947B2A9B01AC01C501B4013D
:1028C0000E9464290E94432A6093A6027093A70283
:1028D0008093A8029093A90200919D0210919E02FC
:1028E00020919F023091A002061717072807390789
:1028F0000CF03FC08091A50281113BC080919B02EA
:102900008111C8CF81E08093A50248EC50E060E0DF
:1029100070E0CB010E94770E0E9417076093A1021E
:102920007093A2028093A3029093A40280917502F7
:1029300090917602019711F4B1E0BCAF809108014B
:102940008823B9F0E0915C02F0915D0243E0EE0F64
:10295000FF1F4A95E1F7E951FC4F809109019091E1
:102960000A01A0910B01B0910C0181839283A38392
:10297000B483812C912C54011FAA18AE19AE1AAE43
:1029800011E01E01EDE22E0E311C0091A502002384
:1029900009F480CF0E9459112B013C016091AA02D9
:1029A0007091AB028091AC029091AD020E947B2AA3
:1029B0009B01AC01C301B2010E9464290E94432A19
:1029C00021966CAF7DAF8EAF9FAF21976093A6022B
:1029D0007093A7028093A8029093A9020E94170700
:1029E0004090A1025090A2026090A3027090A402B5
:1029F0009B01AC01241935094609570929013A01FF
:102A0000E0909B02EE20C1F180915E02811134C002
:102A1000CBACC11030C06DAD7EAD68197909072E01
:102A2000000C880B990B0E947B2A4B015C01C301AF
:102A3000B2012FA938AD49AD5AAD621B730B840B9F
:102A4000950B0E947B2A20E030E04AE754E40E9484
:102A5000D1299B01AC01C501B4010E94D1290E947A
:102A6000432A672B49F40E94170729966CAF7DAF64
:102A70008EAF9FAF2997EBAE48EC50E0C301B20197
:102A80000E94770EF11008C00E9417072D966CAFB8
:102A90007DAF8EAF9FAF2D9780915F028111C2C035
:102AA0006E013DE2C30ED11CF12CE12CD6018D91BB
:102AB0006D01811136C00E941707AB01BC012D9634
:102AC0008CAC9DACAEACBFAC2D97481959096A09C6
:102AD0007B09E1E1F0E0EC0FFD1FEE0DFF1D8081B1
:102AE0009181092E000CAA0BBB0B481759076A07E6
:102AF0007B07B8F0E9E1F0E0EC0FFD1FEE0DFF1DE4
:102B000080819181059769F461E0E1E2F0E0EC0FEA
:102B1000FD1FEE0DFF1D80810E949A03F601319783
:102B2000108322E0E20EF11C38E0E316F10409F014
:102B3000BDCF6E0141E1C40ED11CF12CE12C0E94ED
:102B40001707D6012D913D916D01AB01BC012D966A
:102B50008CAC9DACAEACBFAC2D97481959096A0935
:102B60007B09C90188519C4F092E000CAA0BBB0B95
:102B7000481759076A077B0730F139E2A32EB12CB9
:102B8000AC0EBD1EAE0CBF1CD5018C9181111BC0BB
:102B9000C701880F991FE9E1F0E0EC0FFD1FE80F76
:102BA000F91F208131812530310569F4E1E2F0E03F
:102BB000EC0FFD1F8E0F9F1F60E0DC018C910E94C7
:102BC0009A03F5011083FFEFEF1AFF0A24E0E216E3
:102BD000F10409F0B4CFFE01B996DE015996802FB9
:102BE0009191911107C02D913C911197253031059C
:102BF00009F480E01296E215F30591F780935F02E5
:102C00000E941707C090A102D090A202E090A302F8
:102C1000F090A4026C197D098E099F0948EC50E0E0
:102C20000E94770E8091D0018111C7C06E013DE2F4
:102C3000C30ED11CF12CE12CD6018D916D018111B7
:102C400040C0E1E1F0E0EC0FFD1FEE0DFF1D8081C3
:102C50009181092E000CAA0BBB0B4091A60250914A
:102C6000A7026091A8027091A902481759076A0744
:102C70007B073CF1E9E1F0E0EC0FFD1FEE0DFF1DDD
:102C8000808191810697E9F461E0E1E2F0E0EC0FE8
:102C9000FD1FEE0DFF1D80810E949A03F601319702
:102CA00010830E941707F701EE0FFF1F88248394FB
:102CB000912C8C0E9D1EE80DF91D6083718382831B
:102CC000938322E0E20EF11C38E0E316F10409F0F0
:102CD000B3CFAE014F5F5F4F6A01F12CE12C0E9430
:102CE0001707AB01BC01F60181919191A191B191BE
:102CF0006F0188519C4FAF4FBF4F481759076A0764
:102D00007B0760F159E2A52EB12CAC0EBD1EAE0CB6
:102D1000BF1CD5018C91811121C0C701880F991F5B
:102D2000E9E1F0E0EC0FFD1FE80FF91F2081318190
:102D30002630310599F4F101EE0DFF1D208122238B
:102D400069F0E1E2F0E0EC0FFD1F8E0F9F1F60E0E5
:102D5000DC018C910E949A03F5011083FFEFEF1ABA
:102D6000FF0A24E0E216F10409F0B9CFFE01B9969A
:102D7000DE015996802F9191911107C02D913C91C0
:102D800011972630310509F480E01296E215F3051B
:102D900091F78093D0010E941707C090A102D090B4
:102DA000A202E090A302F090A4026C197D098E09A2
:102DB0009F0948EC50E00E94770E809160028111DB
:102DC000A4C06E013DE2C30ED11CF12CE12CD60152
:102DD0008D916D01811128C0E1E1F0E0EC0FFD1F44
:102DE000EE0DFF1D80819181092E000CAA0BBB0BFB
:102DF000481659066A067B06B8F0E9E1F0E0EC0FE8
:102E0000FD1FEE0DFF1D80819181029769F461E045
:102E1000E1E2F0E0EC0FFD1FEE0DFF1D80810E944E
:102E20009A03F60131971083B2E0EB0EF11CE8E053
:102E3000EE16F10461F66E01F1E1CF0ED11CF12C1A
:102E4000E12CD6018D919D916D0188519C4F092EE9
:102E5000000CAA0BBB0B481659066A067B0638F114
:102E600039E2A32EB12CAC0EBD1EAE0CBF1CF50179
:102E7000808181111CC0C701880F991FE9E1F0E032
:102E8000EC0FFD1FE80FF91F208131812230310541
:102E900071F4B1E28B2E912C8C0E9D1E880D991D24
:102EA00060E0DC018C910E949A03F5011083FFEF32
:102EB000EF1AFF0A24E0E216F10419F6FE01B996B2
:102EC000DE015996802F9191911107C02D913C916F
:102ED00011972230310509F480E01296E215F305CE
:102EE00091F7809360020E941707C090A102D090D2
:102EF000A202E090A302F090A4026C197D098E0951
:102F00009F0948EC50E00E94770E809108018823C9
:102F100009F458C08091A6029091A702A091A8023E
:102F2000B091A902B301A2018FA898ACA9ACBAAC28
:102F3000481959096A097B094093B0045093B104B8
:102F40006093B2047093B3048093B4049093B50477
:102F5000A093B604B093B7040E94B30B0E94432A17
:102F60006093B8047093B9048093BA049093BB043F
:102F70006091090170910A0180910B0190910C01FF
:102F8000653F2FEF7207810591050CF436C1E09182
:102F90005C02F0915D02A3E0EE0FFF1FAA95E1F73E
:102FA000E951FC4F6150710981099109658376836C
:102FB000878390871092080162E370E080E090E0E0
:102FC0000E94E5068091750290917602019741F486
:102FD00059EB45165BE055066104710408F01CAE20
:102FE000C090A602D090A702E090A802F090A9029B
:102FF00080912F0290913002A0913102B091320263
:10300000C816D906EA06FB060CF01FC189A8811074
:103010001CC19CAC911019C18091000190910101DB
:10302000A0910201B09103010197A109B109809318
:10303000000190930101A0930201B0930301892B39
:103040008A2B8B2B09F00FC20E94170725966CAFB5
:103050007DAF8EAF9FAF2597C0926502D09266027A
:10306000E0926702F0926802B0909C02B9AAB11097
:1030700007C16E012DE2C20ED11CF12CE12CD6014C
:103080008D916D01811136C00E941707AB01BC0103
:1030900025968CAC9DACAEACBFAC259748195909B0
:1030A0006A097B09E1E1F0E0EC0FFD1FEE0DFF1D69
:1030B00080819181092E000CAA0BBB0B4817590780
:1030C0006A077B07B8F0E9E1F0E0EC0FFD1FEE0DB9
:1030D000FF1D80819181019769F461E0E1E2F0E0F8
:1030E000EC0FFD1FEE0DFF1D80810E949A03F6017B
:1030F0003197108322E0E20EF11C38E0E316F10470
:1031000009F0BDCF6E0141E1C40ED11CF12CE12CC0
:103110000E941707D6012D913D916D01AB01BC01B5
:1031200025968CAC9DACAEACBFAC2597481959091F
:103130006A097B09C90188519C4F092E000CAA0B12
:10314000BB0B481759076A077B0730F179E2A72EB6
:10315000B12CAC0EBD1EAE0CBF1CD5018C918111E3
:103160001BC0C701880F991FE9E1F0E0EC0FFD1FBC
:10317000E80FF91F208131812130310569F4E1E246
:10318000F0E0EC0FFD1F8E0F9F1F60E0DC018C91C3
:103190000E949A03F5011083FFEFEF1AFF0A24E063
:1031A000E216F10409F0B4CFFE01B996DE0159969A
:1031B000802F9191911107C02D913C911197213051
:1031C000310509F480E01296E215F30591F780933A
:1031D0009C020E941707C090A102D090A202E0902A
:1031E000A302F090A4026C197D098E099F0948EC96
:1031F00050E00E94770E09AB43C06B017C013CE0BC
:10320000C30ED11CE11CF11C8090E3039090E403F9
:10321000A090E503B090E6038C149D04AE04BF04B7
:1032200030F02CE030E040EB54E00E94DA074FEF42
:10323000C41AD40AE40AF40AC0920901D0920A011D
:10324000E0920B01F0920C01B7CEC0922F02D09207
:103250003002E0923102F092320280917F0290912E
:103260008002092E000CAA0BBB0B809300019093E7
:103270000101A0930201B0930301A9A8A110F4CE0B
:10328000C090A602D090A702E090A802F090A902F8
:103290008091330290913402A0913502B0913602B0
:1032A000C816D906EA06FB0608F0E0C080919C0229
:1032B000882309F4DBC09AA8911012C080919B0268
:1032C0008111D7C00E9417076BAB7CAB8DAB9EAB57
:1032D000C0926102D0926202E0926302F0926402B4
:1032E000B0909B02BAAAB110C4C06E012DE2C20E0A
:1032F000D11CF12CE12CD6018D916D01811134C0CE
:103300000E941707AB01BC018BA89CA8ADA8BEA862
:10331000481959096A097B09E1E1F0E0EC0FFD1F4A
:10332000EE0DFF1D80819181092E000CAA0BBB0BB5
:10333000481759076A077B07B8F0E9E1F0E0EC0F9E
:10334000FD1FEE0DFF1D80819181892B69F461E0E5
:10335000E1E2F0E0EC0FFD1FEE0DFF1D80810E9409
:103360009A03F6013197108322E0E20EF11C38E057
:10337000E316F10409F0BFCF6E0141E1C40ED11C88
:10338000F12CE12C0E941707D6012D913D916D0182
:10339000AB01BC018BA89CA8ADA8BEA848195909CF
:1033A0006A097B09C90188519C4F092E000CAA0BA0
:1033B000BB0B481759076A077B0728F159E2A52E6E
:1033C000B12CAC0EBD1EAE0CBF1CD5018C91811171
:1033D0001AC0C701880F991FE9E1F0E0EC0FFD1F4B
:1033E000E80FF91F20813181232B69F4E1E2F0E03D
:1033F000EC0FFD1F8E0F9F1F60E0DC018C910E947F
:103400009A03F5011083FFEFEF1AFF0A24E0E2169A
:10341000F10409F0B7CFFE01B996DE015996802F6D
:103420009191911106C02D913C911197232B09F494
:1034300080E01296E215F30599F780939B020E94B3
:103440001707C090A102D090A202E090A302F090D2
:10345000A4026C197D098E099F0948EC50E00E9476
:10346000770E0AAB06C08CAC89AA0ACFAAA8A11015
:1034700037CF8BAC882009F4C6C080915E028111E1
:10348000C2C06E012DE2C20ED11CF12CE12CD6017E
:103490008D916D01811136C00E941707AB01BC01EF
:1034A00029968CAC9DACAEACBFAC29974819590994
:1034B0006A097B09E1E1F0E0EC0FFD1FEE0DFF1D55
:1034C00080819181092E000CAA0BBB0B481759076C
:1034D0006A077B07B8F0E9E1F0E0EC0FFD1FEE0DA5
:1034E000FF1D80819181049769F461E0E1E2F0E0E1
:1034F000EC0FFD1FEE0DFF1D80810E949A03F60167
:103500003197108322E0E20EF11C38E0E316F1045B
:1035100009F0BDCF6E0141E1C40ED11CF12CE12CAC
:103520000E941707D6012D913D916D01AB01BC01A1
:1035300029968CAC9DACAEACBFAC29974819590903
:103540006A097B09C90188519C4F092E000CAA0BFE
:10355000BB0B481759076A077B0730F139E2A32EE6
:10356000B12CAC0EBD1EAE0CBF1CD5018C918111CF
:103570001BC0C701880F991FE9E1F0E0EC0FFD1FA8
:10358000E80FF91F208131812430310569F4E1E22F
:10359000F0E0EC0FFD1F8E0F9F1F60E0DC018C91AF
:1035A0000E949A03F5011083FFEFEF1AFF0A24E04F
:1035B000E216F10409F0B4CFFE01B996DE01599686
:1035C000802F9191911107C02D913C91119724303A
:1035D000310509F480E01296E215F30591F7809326
:1035E0005E020E941707C090A102D090A202E09054
:1035F000A302F090A4026C197D098E099F0948EC82
:1036000050E00E94770E80910801882391F180910B
:103610009B02882391F18091A6029091A702A0912C
:10362000A802B091A9020A97A105B1050CF049C002
:1036300080915E02882309F444C0E0915C02F0911D
:103640005D0283E0EE0FFF1F8A95E1F7E951FC4F21
:103650008091090190910A01A0910B01B0910C0198
:103660000197A109B10985839683A783B0870E943A
:10367000780880919B02811134C080915E0288237A
:10368000A1F01093D1010E941707C090A102D09021
:10369000A202E090A302F090A4026C197D098E09A9
:1036A0009F0948EC50E00E94770E21968CAC9DACAF
:1036B000AEACBFAC21974FAA58AE69AE7AAEF02E31
:1036C00064C90E9417078BA89CA8ADA8BEA868195A
:1036D00079098A099B0961327E448105910508F0C8
:1036E000ACCF8091A6029091A702A091A802B091C0
:1036F000A9020A97A105B105DCF480915E02882336
:10370000B9F01092A5020E941707C090A102D090B4
:10371000A202E090A302F090A4026C197D098E0928
:103720009F0948EC50E00E94770E1092D201A5CF7D
:103730000E9417078BA89CA8ADA8BEA86819790994
:103740008A099B0961327E4481059105D0F695CFA7
:10375000C45BDF4F0FB6F894DEBF0FBECDBFDF9165
:10376000CF911F910F91FF90EF90DF90CF90BF907E
:10377000AF909F908F907F906F905F904F903F9011
:103780002F900895CF92DF92EF92FF920F931F93A5
:10379000CF93DF93CDB7DEB7CC5AD1090FB6F894EB
:1037A000DEBF0FBECDBF8C010E942C0CD8018C91C6
:1037B0008536A9F58BEF91E00E944B0CE7EEF3E024
:1037C0001182128213821482158216821782108649
:1037D0003896B4E0EF3AFB0799F70E947808109208
:1037E0005D0210925C0289EC90E0A0E0B0E0809372
:1037F000090190930A01A0930B01B0930C01C455E9
:10380000DF4F0FB6F894DEBF0FBECDBFDF91CF9173
:103810001F910F91FF90EF90DF90CF900895823726
:1038200099F58DEE91E00E944B0CF80181810E9488
:103830003A0C87E491E00E942C0CD80111968C91EF
:103840001197898312968C918823B9F08A831B8201
:10385000CE0101960E94B12897FD11C085E891E044
:103860000E942C0CCE0101960E9493280E94270DE5
:1038700082E991E00E942C0CC2CF1A82E9CF8AED36
:1038800091E00E944B0CBBCF873739F48EEC91E06E
:103890000E944B0C0E94B713B2CF8E3659F48BEBBB
:1038A00091E00E944B0C88EB91E00E940D030E9476
:1038B000D40CA5CF8C3629F489EA91E00E944B0CF8
:1038C000F6CF833679F480915B02811106C081E0E6
:1038D00080935B0288E991E0D4CF10925B0288E884
:1038E00091E0CFCF8136B1F48FE791E00E940D03D4
:1038F00010E000E00E940A028017910734F0C8012E
:103900000E94270D0F5F1F4FF5CF88E791E00E94BF
:103910000D0375CF823609F02DC28FE691E00E942B
:103920000D031A821982FE01339686E7DF011D928C
:103930008A95E9F78E0107581F4FF80111921192ED
:1039400088E0DF011D928A95E9F70E94B11081118C
:1039500004C08AEE90E00E940D036DE971E0CE0193
:1039600001960E94722D80916A028F938091690264
:103970008F938AE6E82E81E0F82EFF92EF921F9354
:103980000F930E947D2DB801CE0101960E94722DE9
:1039900080916C028F9380916B028F93FF92EF92D4
:1039A0001F930F930E947D2DB801CE0101960E94B6
:1039B000722D80916E028F9380916D028F93FF9292
:1039C000EF921F930F930E947D2DB801CE010196B7
:1039D0000E94722D809170028F9380916F028F935D
:1039E000FF92EF921F930F930E947D2DB801CE019D
:1039F00001960E94722D809172028F9380917102C4
:103A00008F93FF92EF921F930F930E947D2DB80129
:103A1000CE0101960E94722D809176028F93809143
:103A200075028F93FF92EF921F930F930E947D2D4B
:103A30000FB6F894DEBF0FBECDBFB801CE01019620
:103A40000E94722D809174028F93809173028F93E4
:103A5000FF92EF921F930F930E947D2DB801CE012C
:103A600001960E94722D69EA71E0CE0101960E94D2
:103A7000722D6FE771E0CE0101960E94722D1F92A8
:103A800081E08F93FF92EF921F930F930E947D2D01
:103A9000B801CE0101960E94722D1F9288E18F938A
:103AA000FF92EF921F930F930E947D2DB801CE01DC
:103AB00001960E94722D809178028F9380917702F7
:103AC0008F93FF92EF921F930F930E947D2DB80169
:103AD000CE0101960E94722D80917A028F9380917F
:103AE00079028F93FF92EF921F930F930E947D2D87
:103AF000B801CE0101960E94722D80917C028F93B5
:103B000080917B028F93FF92EF921F930F930E94FD
:103B10007D2D0FB6F894DEBF0FBECDBFB801CE012C
:103B200001960E94722D80917E028F9380917D027A
:103B30008F93FF92EF921F930F930E947D2DB801F8
:103B4000CE0101960E94722D809180028F93809108
:103B50007F028F93FF92EF921F930F930E947D2D10
:103B6000B801CE0101960E94722D809182028F933E
:103B7000809181028F93FF92EF921F930F930E9487
:103B80007D2DB801CE0101960E94722D8091840294
:103B90008F93809183028F93FF92EF921F930F93E5
:103BA0000E947D2DB801CE0101960E94722D809158
:103BB00086028F93809185028F93FF92EF921F93DD
:103BC0000F930E947D2DB801CE0101960E94722DA7
:103BD00080918A028F93809189028F9380918802CD
:103BE0008F93809187028F9383EB91E09F938F93C4
:103BF0001F930F930E947D2D0FB6F894DEBF0FBE6A
:103C0000CDBFB801CE0101960E94722D80918C0229
:103C10008F9380918B028F93FF92EF921F930F935C
:103C20000E947D2DB801CE0101960E94722D8091D7
:103C30008E028F9380918D028F93FF92EF921F934C
:103C40000F930E947D2DB801CE0101960E94722D26
:103C5000809190028F9380918F028F93FF92EF92C9
:103C60001F930F930E947D2DB801CE0101960E94F3
:103C7000722D809192028F93809191028F93FF9287
:103C8000EF921F930F930E947D2DB801CE010196F4
:103C90000E94722D809194028F93809193028F9352
:103CA000FF92EF921F930F930E947D2DB801CE01DA
:103CB00001960E94722D809196028F9380919502B9
:103CC0008F93FF92EF921F930F930E947D2D0FB65B
:103CD000F894DEBF0FBECDBFB801CE0101960E94A1
:103CE000722D809198028F93809197028F93FF920B
:103CF000EF921F930F930E947D2DB801CE01019684
:103D00000E94722DCE0101967C010F900F900F90B2
:103D10000F900F900F9090E080E0D7012D917D01E2
:103D2000820F911D27FD9A95A017B107B1F799272A
:103D30009F938F9388EB91E09F938F93FF92AF9324
:103D40000E947D2DB701CE0101960E94722D81E760
:103D500091E00E941F0CCE0101960E941F0C88E684
:103D600091E00E940D030F900F900F900F900F9015
:103D70000F9045CD833709F03AC1C555DF4F198300
:103D80000883CB5AD0401A821982FE01339682E60C
:103D9000DF011D928A95E9F7D12CC12CF12CE12C81
:103DA000AE0145555F4F6FE771E0C555DF4F888124
:103DB0009981CB5AD0400E94D8288C01009709F4F1
:103DC000D3C0F7013197E831F10508F027C0E5517C
:103DD000F14E0C944A2D031F121F191F201F271F7D
:103DE0002E1F351F3C1F431F4A1F511F581F5F1FA7
:103DF000661F6D1F741F7F1F861F8D1F941F9B1FC3
:103E0000A21FA91FB01F0E94932890936A0280935B
:103E10006902B801CE0101960E94722DBFEFEB1A24
:103E2000FB0ABECF0E94932890936C0280936B0292
:103E3000F0CF0E94932890936E0280936D02E9CF99
:103E40000E9493289093700280936F02E2CF0E94A9
:103E500093289093720280937102DBCF0E94932883
:103E60009093740280937302D4CF0E94932890930E
:103E7000760280937502CDCF0E94B12870937802AC
:103E800060937702C6CF0E94B12870937A02609344
:103E90007902BFCF0E94B12870937C0260937B02AD
:103EA000B8CF0E94932890937E0280937D02B1CF79
:103EB0000E9493289093800280937F02AACF0E9451
:103EC000B1287093820260938102A3CF0E9493284D
:103ED00090938402809383029CCF0E9493289093B6
:103EE00086028093850295CF0E94B1286093870255
:103EF000709388028093890290938A028ACF0E94ED
:103F0000932890938C0280938B0283CF0E949328F6
:103F100090938E0280938D027CCF0E949328909381
:103F2000900280938F0275CF0E9493289093920203
:103F3000809391026ECF0E94B12870939402609397
:103F4000930267CF0E9493289093960280939502E4
:103F500060CF0E949328909398028093970259CF44
:103F60000E9493286C015ACFE7E1EE16F1041CF48D
:103F70008CE591E0CCCCFE0131969E012B593F4F50
:103F800090E080E04191840F911D47FD9A95E217E2
:103F9000F307C1F78C151D0459F782E3E9E6F2E057
:103FA000DE01A758BF4F01900D928A95E1F7FE01FF
:103FB000E758FF4FAF01405D5F4F90E080E04E1744
:103FC0005F0731F02191820F911D27FD9A95F7CF60
:103FD00090939A02809399020E949A1082E691E04F
:103FE0000E940D030E94B1100E94190A08CC843669
:103FF00029F40E9494080E949A10F6CF843749F45D
:104000000E9494080E949A100E94190A8CE491E080
:104010007ECC863631F481E08093AE0286E491E076
:1040200076CC873629F41092AE0280E491E06FCC12
:10403000883619F48AE391E06ACC893609F4DFCB3B
:104040008B3661F511968C9189831A82CE01019687
:104050000E94B12897FDD3CBFF24F394F80182810D
:10406000863409F4F12CCE0101960E949328823007
:10407000910561F08330910569F0019709F0BFCB9C
:104080006F2D89E090E00E94E909B9CB6F2D8DE09A
:1040900090E0F9CF6F2D81E190E0F5CF8937A9F459
:1040A00011968C91813351F487E291E00E940D03C7
:1040B00081E08093D2018DE091E029CC83E191E011
:1040C0000E940D031092D201F6CF8D3619F487E0CD
:1040D00091E01DCC803219F481E091E018CC87EF9B
:1040E00090E00E940D03F80180810E943A0C87CB7A
:1040F0001F920F920FB60F9211242F933F934F935D
:104100005F936F937F938F939F93AF93BF93EF933F
:10411000FF938091B8029091B902A091BA02B09138
:10412000BB02892B8A2B8B2BD1F19091B302E091AA
:10413000B402F091B5028081892780838091B80212
:104140009091B902A091BA02B091BB02181619065B
:104150001A061B069CF48091B8029091B902A091B6
:10416000BA02B091BB020197A109B1098093B802CC
:104170009093B902A093BA02B093BB02FF91EF9162
:10418000BF91AF919F918F917F916F915F914F916F
:104190003F912F910F900FBE0F901F901895809117
:1041A00011010E94FA03EACF1F920F920FB60F92ED
:1041B00011242F933F934F935F936F937F938F932C
:1041C0009F93AF93BF93EF93FF9381E393E00E949C
:1041D0009E02FF91EF91BF91AF919F918F917F913F
:1041E0006F915F914F913F912F910F900FBE0F9064
:1041F0001F9018951F920F920FB60F9211242F93B4
:104200008F939F93EF93FF93E0914103F0914203CB
:104210008081E0914703F091480382FD1BC09081AB
:1042200080914A038F5F8F7320914B03821741F077
:10423000E0914A03F0E0EF5CFC4F958F80934A03D6
:10424000FF91EF919F918F912F910F900FBE0F9043
:104250001F9018958081F4CF1F920F920FB60F9286
:1042600011242F933F938F939F93AF93BF9380918C
:10427000170290911802A0911902B0911A02309180
:10428000160223E0230F2D3758F50196A11DB11D0D
:10429000209316028093170290931802A09319029C
:1042A000B0931A0280911B0290911C02A0911D02F2
:1042B000B0911E020196A11DB11D80931B02909327
:1042C0001C02A0931D02B0931E02BF91AF919F915B
:1042D0008F913F912F910F900FBE0F901F901895C7
:1042E00026E8230F0296A11DB11DD2CF1F920F9277
:1042F0000FB60F9211242F933F934F935F936F93B9
:104300007F938F939F93AF93BF93EF93FF9380918E
:10431000B900887F803609F44AC0F0F5883209F484
:10432000A7C018F5803109F49BC0B8F4882309F4BC
:10433000F9C0883009F494C0FF91EF91BF91AF911B
:104340009F918F917F916F915F914F913F912F91AD
:104350000F900FBE0F901F901895883109F488C0F8
:10436000803251F780930A0314C0803409F49DC051
:1043700040F48033B9F38833F9F680930A0385EC6F
:10438000B0C0803509F485C0883509F496C08834FA
:1043900099F60E942307D0CF883909F48CC038F5EC
:1043A000883729F050F4883611F0803729F683E0F9
:1043B00080930C031092150257C0883809F47BC013
:1043C000803919F0803809F0B7CF8091150280321A
:1043D00008F071C0E091150281E08E0F8093150204
:1043E0008091BB00F0E0EB50FE4F80833DC0803BEE
:1043F00039F0E0F4803A09F479C0883A09F09CCFAA
:1044000084E080930C031092F4011092F301E09188
:10441000B102F091B20209958091F30181110FC0B0
:1044200081E08093F3011092D30109C0803C09F42C
:10443000A6CF883C09F4A3CF883B09F07DCFE0915B
:10444000F40181E08E0F8093F401F0E0ED52FE4F15
:1044500080818093BB009091F4018091F30129C089
:104460008091E7028093BB0085EC8093BC0064CF11
:104470009091090380910803981758F5E09109037A
:1044800081E08E0F80930903F0E0E851FD4F8081B9
:10449000E9CFE091090381E08E0F809309038091B9
:1044A000BB00F0E0E851FD4F8083909109038091BB
:1044B00008039817C8F285E8D8CFE091090381E096
:1044C0008E0F809309038091BB00F0E0E851FD4F0F
:1044D000808380910B0381115CCF81E08093E602A1
:1044E00084EA8093BC0010920C0326CF85EC809365
:1044F000BC0010920C0380911502803230F4E091E0
:104500001502F0E0EB50FE4F10826091150270E052
:10451000E091AF02F091B00285EF91E00995109221
:1045200015020ACF10920A0334CFE1E3F3E01382BD
:10453000128288EE93E0A0E0B0E084839583A683A6
:10454000B78326E231E03183208325EC30E03587E4
:10455000248724EC30E03787268720EC30E0318B4D
:10456000208B21EC30E0338B228B22EC30E0358B3A
:10457000248B26EC30E0378B268B118E128E138E17
:10458000148EEEECF3E01382128284839583A6836B
:10459000B78388E391E091838083EAEDF3E080E0E4
:1045A00092E09283818381E0838380E490E095832D
:1045B000848380E5808380E090E0A1E0B0E08187A3
:1045C0009287A387B48782E090E09087878380E119
:1045D00086830895CF93DF93CDB7DEB7C456D10954
:1045E0000FB6F894DEBF0FBECDBF789484B582605D
:1045F00084BD84B5816084BD85B5826085BD85B587
:10460000816085BD80916E00816080936E00109204
:10461000810080918100826080938100809181007F
:104620008160809381008091800081608093800010
:104630008091B10084608093B1008091B00081606E
:104640008093B00080917A00846080937A0080919A
:104650007A00826080937A0080917A0081608093F2
:104660007A0080917A00806880937A001092C1006D
:104670000E94B110182F811104C00E9494080E945A
:104680009A108091870290918802A0918902B0913E
:104690008A028C3221E09207A105B10509F452C0CB
:1046A000803B24E09207A105B10509F44BC0803698
:1046B00029E09207A105B10509F444C0803C22E13C
:1046C0009207A105B105F1F1803825E29207A10515
:1046D000B105C1F1803428E39207A105B10591F13C
:1046E00081152BE49207A105B10561F1803820E71F
:1046F0009207A105B10531F1811526E99207A105BF
:10470000B10501F1811521EE9207A105B105D1F0A6
:10471000811522EC920721E0A207B10599F08115DD
:104720009448A340B10571F080E096E9A0E0B0E0C4
:104730008093870290938802A0938902B0938A02A3
:104740000E949A100E94190A82ED90E0A0E8B0E45D
:1047500080932B0290932C02A0932D02B0932E02F3
:104760008CE69FECACE4BEE3809327029093280292
:10477000A0932902B0932A021092230210922402DD
:10478000109225021092260210921F02109220020F
:1047900010922102109222020E94C803C090870248
:1047A000D0908802E0908902F0908A0260E079E07F
:1047B0008DE390E0A70196010E94092D2150310957
:1047C000410951095695479537952795E091410341
:1047D000F091420382E08083C11481EED806E104A7
:1047E000F10421F0211590E13907A8F0E09141038F
:1047F000F0914203108260E874E88EE190E0A70136
:1048000096010E94092D21503109410951095695FF
:10481000479537952795E0913D03F0913E0330830E
:10482000E0913F03F0914003208310924903E0910F
:104830004503F091460386E08083E0914303F091C5
:104840004403808180618083E0914303F0914403BD
:10485000808188608083E0914303F09144038081EC
:1048600080688083E0914303F091440380818F7DD1
:10487000808362E080E00E94260480918B02843075
:1048800008F083E08093BD040E94C80380ED0E947D
:10489000BD0A853509F04DC08AEA0E94DA0A909374
:1048A000BF048093BE048CEA0E94DA0A9093C1048C
:1048B0008093C0048EEA0E94DA0A9093C304809326
:1048C000C20480EB0E94DA0A9093CF048093CE0456
:1048D00082EB0E94DA0A9093D1048093D00484EB97
:1048E0000E94DA0A9093D3048093D20486EB0E944C
:1048F000DA0A9093C5048093C40488EB0E94DA0A14
:104900009093C7048093C6048AEB0E94DA0A9093BE
:10491000C9048093C8048CEB0E94DA0A9093CB04FC
:104920008093CA048EEB0E94DA0A9093CD048093A0
:10493000CC048AE292E00E940D0361E089E00E94CB
:10494000260461E08DE00E94260461E081E10E947E
:10495000260461E08CE00E94260460E088E00E946A
:10496000260460E087E00E94260460E08AE00E945E
:10497000260460E08BE00E94260460E080E10E9453
:10498000260460E089E00E949A0360E08DE00E94C6
:104990009A0360E081E10E949A0360E08CE00E944B
:1049A0009A0380918F0290919002019709F018C2AA
:1049B00081E080935B020E943609B8E1EB2EF12C76
:1049C0000E946809A1E0EA1AF108D1F7111125C087
:1049D00084E690E0A0E0B0E080933302909334024C
:1049E000A0933502B093360288E00E9471038C01D7
:1049F00087E00E9471030115110509F0F4C1892BAC
:104A000061F482E390E0A0E0B0E080933302909301
:104A10003402A0933502B093360202E310E00E9404
:104A2000591101501109D9F70AE010E0C12CD12C1D
:104A300076010E9459114B015C01C701B6010E9429
:104A40007B2AA50194010E9465290E94432A6B01DB
:104A50007C0162E370E080E090E00E94E506015096
:104A6000110939F7C701B6010E947B2A20E030E026
:104A700040E251E40E94D1290E94432A6093AA0295
:104A80007093AB028093AC029093AD0210922F0210
:104A900010923002109231021092320280919502EF
:104AA00090919602092E000CAA0BBB0B80939D02DD
:104AB00090939E02A0939F02B093A0020E94820B4B
:104AC0000E940A0297FF9BC110925D0210925C0245
:104AD00089EC90E0A0E0B0E08093090190930A0196
:104AE000A0930B01B0930C010E940A02AC01092EA5
:104AF000000C660B770B4F3FBFEF5B076B077B0725
:104B0000C1F0483151056105710509F496C1E3E032
:104B1000880F991FEA95E1F7FC01E951FC4F858167
:104B20009681A781B0858D3D9F4FA105B1050CF001
:104B300084C181E08093080110E000E070E2F72E6C
:104B400022242A94322C6CED462E65E0562E612CE0
:104B5000712C8BE3F81609F4CDC28091AE0281115D
:104B6000A3C20E9459114B015C016091AA0270918D
:104B7000AB028091AC029091AD020E947B2A9B0116
:104B8000AC01C501B4010E9464290E94432A6093CC
:104B9000A6027093A7028093A8029093A902809125
:104BA000A502882391F00E9417078090A10290909F
:104BB000A202A090A302B090A402681979098A0900
:104BC0009B0948EC50E00E94770E4091A60250915C
:104BD000A7026091A8027091A90280919D02909114
:104BE0009E02A0919F02B091A00284179507A6078C
:104BF000B7070CF4C7C180915B02811132C180916B
:104C00009C0281112EC10E9417078090570290903C
:104C10005802A0905902B0905A02681979098A097D
:104C20009B098090530290905402A0905502B0903E
:104C3000560286169706A806B90608F04BC0809162
:104C4000060190910701019609F00FC120915102D0
:104C500030915202F901EE0FFF1FE75BFD4F80819B
:104C600091812F5F3F4F3093520220935102409128
:104C70000401509105014217530724F41092520287
:104C80001092510290930701809306018F3F98077D
:104C900009F4E7C00E947103892B09F0D5C0409246
:104CA000450250924602609247027092480240E0EC
:104CB00050E0BA0180914302909144020E94620444
:104CC0000E94170760933F02709340028093410255
:104CD0009093420244EF51E060E070E0CB010E940B
:104CE000770E0E9417074B015C0180919C0288237C
:104CF00009F4DAC1E0909B02EE2009F4D5C181E30A
:104D000093E00E947E02892BA9F081E393E00E9448
:104D10005C02F82E9BE3F91609F437C1AAE0FA16F3
:104D200049F0E1E0F0E0EC0FFD1FE00FF11FF08231
:104D30000F5F1F4F0E941707681979098A099B099D
:104D4000613177428105910580F20E9449096091A5
:104D5000650270916602809167029091680280906E
:104D60000D0190900E01A0900F01B09010012091C4
:104D70006B0230916C02232B09F080C10E947B2AC8
:104D8000A50194010E94072B0E94432A0E947B09DF
:104D90000E944909609161027091620280916302F0
:104DA0009091640280900D0190900E01A0900F01EF
:104DB000B090100120916B0230916C02232B09F00E
:104DC00068C10E947B2AA50194010E94072B0E94C2
:104DD000432A0E947B090E9417074B015C01AACF5E
:104DE00010925B02E8CD0130110509F016CE009754
:104DF00009F091C186E990E0A0E0B0E006CEFC01A8
:104E0000A3E0EE0FFF1FAA95E1F7E951FC4F4581A2
:104E10005681678170854F5F5F4F6F4F7F4F409323
:104E2000090150930A0160930B0170930C010196E4
:104E300090935D0280935C0257CE109208018DEB37
:104E400091E00E942C0C78CE8CE291E0A0E0B0E0E2
:104E50008093450290934602A0934702B093480284
:104E600026CF8CE00E94FA0335CF0E94170780906E
:104E7000450290904602A0904702B09048022091CF
:104E80003F02309140024091410250914202621B28
:104E9000730B840B950B86169706A806B90638F592
:104EA000181419041A041B0414F58CE00E94FA0368
:104EB0001092450210924602109247021092480248
:104EC00084EF91E0A0E0B0E080933B0290933C023D
:104ED000A0933D02B0933E020E94170760933702F1
:104EE000709338028093390290933A02F3CE0E9475
:104EF000170780903B0290903C02A0903D02B0903A
:104F00003E0220913702309138024091390250918F
:104F10003A02621B730B840B950B86169706A80644
:104F2000B90608F0D7CE181419041A041B040CF0A3
:104F3000D1CE3092070120920601809151029091CA
:104F40005202892BB1F480E197E2A0E0B0E08093B7
:104F5000530290935402A0935502B09356020E94BC
:104F600017076093570270935802809359029093E9
:104F70005A0210923B0210923C0210923D02109293
:104F80003E02A8CE0E94B713ACCE6801BFEFCB1A89
:104F9000DB0AE1E0F0E0EC0FFD1FE00FF11F1082F3
:104FA00010929C0210929B021092600210925F027B
:104FB00010925E021092A5020E94820B0E940A02C9
:104FC00097FF3EC010925D0210925C0289EC90E067
:104FD000A0E0B0E08093090190930A01A0930B0137
:104FE000B0930C010E940A02AC01092E000C660B62
:104FF000770B4F3FAFEF5A076A077A07C9F048317E
:1050000051056105710599F023E0880F991F2A95D4
:10501000E1F7FC01E951FC4FEE24E3948581968190
:10502000A781B0858D3D9F4FA105B1050CF0E12C06
:10503000E0920801CE0101960E94C21B86017ACE41
:10504000FC0133E0EE0FFF1F3A95E1F7E951FC4F09
:1050500045815681678170854F5F5F4F6F4F7F4FEE
:105060004093090150930A0160930B0170930C0166
:10507000019690935D0280935C02B4CF0E947B2ADC
:10508000A50194010E94072B0E94432A0E9401114E
:105090007FCE0E947B2AA50194010E94072B0E94CB
:1050A000432A0E94011197CE81E393E00E947E0281
:1050B000892B09F44ECD81E393E00E945C02F82E27
:1050C000BBE38B1769F02AE0821771F3E1E0F0E0AF
:1050D000EC0FFD1FE00FF11F80830F5F1F4FE4CF28
:1050E000E1E0F0E0EC0FFD1FE00FF11F10820F5F19
:1050F0001F4F26CDCE0101960E94C21B80E090E09A
:10510000892B09F419CD0E948A02882309F414CD51
:105110000E94000011CD019709F07FCC88EC90E04F
:10512000A0E0B0E072CCFC0188279927E894219197
:105130002032E9F3293010F02E30C8F32B3241F041
:105140002D3239F4689404C00E941429820F911DF5
:10515000219120532A30C0F31EF4909581959F4FE2
:1051600008951F93FC0199278827BC01E8941191A9
:105170001032E9F3193010F01E30C8F31B3251F031
:105180001D3249F4689406C00E94FF28610F711D0A
:10519000811D911D119110531A30B0F33EF490957A
:1051A0008095709561957F4F8F4F9F4F1F91089508
:1051B000FA01A191B081009719F41097E1F0CD01A7
:1051C000DC01CD010D90002011F4C00113C0FB01E2
:1051D0002191222319F02015D9F7F3CFFB0121915A
:1051E000201519F41E92119606C02223C1F70D90C6
:1051F0000020A1F7D001FA01A193B0830895592F9F
:10520000482F372F262F660F771F881F991F660F8D
:10521000771F881F991F620F731F841F951F660FCA
:10522000771F881F991F08957AE0979F902D879F79
:10523000802D910D11240895BB27FA01A62F621726
:10524000710581059105330B30FB66F0AA27660FC7
:10525000771F881F991FAA1FA21710F0A21B639522
:105260003850A9F7A05DAA3308F0A95DA19336F7DD
:10527000B111B1931082CA010C943E29DC01FC01EA
:10528000672F71917723E1F7329704C07C916D937A
:1052900070836291AE17BF07C8F30895F999FECFE6
:1052A00092BD81BDF89A992780B50895262FF99966
:1052B000FECF1FBA92BD81BD20BD0FB6F894FA9AF9
:1052C000F99A0FBE019608955058BB27AA270E944D
:1052D0007C290C94CD2A0E94BF2A38F00E94C62A4D
:1052E00020F039F49F3F19F426F40C94BC2A0EF4F4
:1052F000E095E7FB0C94B62AE92F0E94DE2A58F3CA
:10530000BA17620773078407950720F079F4A6F5AA
:105310000C94002B0EF4E0950B2EBA2FA02D0B0150
:10532000B90190010C01CA01A0011124FF27591BEA
:1053300099F0593F50F4503E68F11A16F040A22FF0
:10534000232F342F4427585FF3CF46953795279561
:10535000A795F0405395C9F77EF41F16BA0B620B60
:10536000730B840BBAF09150A1F0FF0FBB1F661FA7
:10537000771F881FC2F70EC0BA0F621F731F841FEA
:1053800048F4879577956795B795F7959E3F08F010
:10539000B0CF9395880F08F09927EE0F97958795D2
:1053A00008950E94E5290C94CD2A0E94C62A58F03F
:1053B0000E94BF2A40F029F45F3F29F00C94B62ADE
:1053C00051110C94012B0C94BC2A0E94DE2A68F324
:1053D0009923B1F3552391F3951B550BBB27AA27AE
:1053E00062177307840738F09F5F5F4F220F331FE8
:1053F000441FAA1FA9F335D00E2E3AF0E0E832D0B0
:1054000091505040E695001CCAF72BD0FE2F29D0B2
:10541000660F771F881FBB1F261737074807AB0784
:10542000B0E809F0BB0B802DBF01FF2793585F4FF9
:105430003AF09E3F510578F00C94B62A0C94012B5B
:105440005F3FE4F3983ED4F3869577956795B795DB
:10545000F7959F5FC9F7880F911D9695879597F9E6
:105460000895E1E0660F771F881FBB1F621773075F
:105470008407BA0720F0621B730B840BBA0BEE1F74
:1054800088F7E09508950E944A2A6894B1110C9417
:10549000012B08950E94E62A88F09F5798F0B92FB3
:1054A0009927B751B0F0E1F0660F771F881F991F59
:1054B0001AF0BA95C9F714C0B13091F00E94002BD0
:1054C000B1E008950C94002B672F782F8827B85FE0
:1054D00039F0B93FCCF3869577956795B395D9F7B1
:1054E0003EF490958095709561957F4F8F4F9F4FBB
:1054F0000895E89409C097FB3EF4909580957095C7
:1055000061957F4F8F4F9F4F9923A9F0F92F96E90F
:10551000BB279395F695879577956795B795F11184
:10552000F8CFFAF4BB0F11F460FF1BC06F5F7F4F21
:105530008F4F9F4F16C0882311F096E911C0772333
:1055400021F09EE8872F762F05C0662371F096E83C
:10555000862F70E060E02AF09A95660F771F881F0B
:10556000DAF7880F9695879597F9089597F99F67C9
:1055700080E870E060E008959FEF80EC08950024DB
:105580000A941616170618060906089500240A94A8
:1055900012161306140605060895092E0394000C2E
:1055A00011F4882352F0BB0F40F4BF2B11F460FFBD
:1055B00004C06F5F7F4F8F4F9F4F089557FD9058E6
:1055C000440F551F59F05F3F71F04795880F97FBC7
:1055D000991F61F09F3F79F0879508951216130681
:1055E0001406551FF2CF4695F1DF08C016161706B0
:1055F0001806991FF1CF86957105610508940895E5
:10560000E894BB2766277727CB0197F908950E9476
:105610001A2B0C94CD2A0E94BF2A38F00E94C62A69
:1056200020F0952311F00C94B62A0C94BC2A112476
:105630000C94012B0E94DE2A70F3959FC1F3950F05
:1056400050E0551F629FF001729FBB27F00DB11D06
:10565000639FAA27F00DB11DAA1F649F6627B00D96
:10566000A11D661F829F2227B00DA11D621F739F7F
:10567000B00DA11D621F839FA00D611D221F749F8D
:105680003327A00D611D231F849F600D211D822FD4
:10569000762F6A2F11249F5750409AF0F1F08823FB
:1056A0004AF0EE0FFF1FBB1F661F771F881F915028
:1056B0005040A9F79E3F510580F00C94B62A0C94F7
:1056C000012B5F3FE4F3983ED4F386957795679579
:1056D000B795F795E7959F5FC1F7FE2B880F911D52
:1056E0009695879597F90895FA01EE0FFF1F30966A
:1056F00021053105A1F16115710561F48038BFE321
:105700009B0749F168949038810561F08038BFEFBC
:105710009B0741F099234AF5FF3FE105310521053B
:1057200019F1E8940894E795D901AA2329F4AB2F3D
:10573000BE2FF85FD0F310C0FF5F70F4A695E0F7BE
:10574000F73950F019F0FF3A38F49F779F930DD056
:105750000F9007FC9058089546F00C94BC2A60E026
:1057600070E080E89FE308954FE79F775F934F9342
:105770003F932F930E946F2C2F913F914F915F91F8
:105780000E94072B0C94CC2B29F416F00C94B62A0B
:105790000C94002B0C94BC2A0E94E62AA8F396389D
:1057A000A0F707F80F92E8942BE33AEA48EB5FE79B
:1057B0000E941D2B0F920F920F924DB75EB70F9262
:1057C0000E94B72CE8E6F0E00E94FE2B4F915F911B
:1057D000EF91FF91E595EE1FFF1F49F0FE57E0683E
:1057E0004427EE0F441FFA95E1F74195550B0E94AF
:1057F000312C0F9007FE0C94252C0895DF93CF9346
:105800001F930F93FF92EF92DF927B018C016894BC
:1058100006C0DA2EEF010E941A2BFE01E894A59132
:105820002591359145915591A6F3EF010E947C2970
:10583000FE019701A801DA9469F7DF90EF90FF90DD
:105840000F911F91CF91DF9108959B01AC0160E012
:1058500070E080E89FE30C94D1290C94B62A0C9454
:10586000EB2C0E94E62AD8F39923C9F3940F511D1B
:10587000A3F39150504094F059F0882332F0660F12
:10588000771F881F91505040C1F79E3F51052CF75C
:10589000880F911D9695879597F908955F3FACF015
:1058A000983E9CF0BB27869577956795B79508F449
:1058B000B1609395C1F7BB0F58F711F460FFE8CFC3
:1058C0006F5F7F4F8F4F9F4FE3CF0C94012B16F0EC
:1058D0000C94EB2C0C94BC2A68940C94B62A0E946D
:1058E000E62AA8F39923C1F3AEF3DF93CF931F9376
:1058F0000F93FF92C92FDD2788232AF02197660F87
:10590000771F881FDAF720E030E040E85FEB9FE385
:10591000883920F0803E38F021968F770E946529E3
:10592000E0E9F0E004C00E946529EDEBF0E00E94A0
:10593000FE2B8B01BE01EC01FB2E6F577109759593
:10594000771F880B990B0E947B2A28E132E741E3FD
:105950005FE30E941A2BAF2D9801AE01FF900F91CB
:105960001F91CF91DF910E947C290C94CD2AFA01DE
:10597000DC01AA0FBB1F9B01AC01BF5728F42227F3
:1059800033274427507820C0B75190F4AB2F002420
:10599000469537952795011CA395D2F3002071F009
:1059A000220F331F441FB395DAF30ED00C946429F1
:1059B00061307105A0E88A07B94630F49B01AC015B
:1059C0006627772788279078309621F020833183C7
:1059D0004283538308959F3F31F0915020F487957F
:1059E00077956795B795880F911D9695879597F947
:1059F0000895DB018F939F930E94502DBF91AF912B
:105A0000A29F800D911DA39F900DB29F900D112418
:105A10000895A1E21A2EAA1BBB1BFD010DC0AA1FEF
:105A2000BB1FEE1FFF1FA217B307E407F50720F007
:105A3000A21BB30BE40BF50B661F771F881F991F82
:105A40001A9469F760957095809590959B01AC01CB
:105A5000BD01CF010895052E97FB1EF400940E940E
:105A6000422D57FD07D00E94092D07FC03D04EF4AC
:105A70000C94422D50954095309521953F4F4F4FB6
:105A80005F4F089590958095709561957F4F8F4FEA
:105A90009F4F0895EE0FFF1F0590F491E02D09949C
:105AA0000E94632DA59F900DB49F900DA49F800D23
:105AB000911D11240895B7FF0C94502D0E94502D74
:105AC000821B930B0895A29FB001B39FC001A39FB7
:105AD000700D811D1124911DB29F700D811D112427
