:100000000C9443010C946B010C946B010C946B01E8
:100010000C946B010C946B010C946B010C94A91F54
:100020000C946B010C946B010C946B010C946B01A0
:100030000C946B010C946B010C946B010C946B0190
:100040000C945D200C946B010C942B200C940520D7
:100050000C946B010C946B010C946B010C946B0170
:100060000C94A7200C946B0107634236B79BD8A76A
:100070001A39685618AEBAAB558C1D3CB7CC5763CD
:10008000BD6DEDFD753EF6177231BF000000803F7B
:1000900008000000BE922449123EABAAAA2ABECD97
:1000A000CCCC4C3E00000080BEABAAAAAA3E000009
:1000B0000000BF000000803F000000000008417801
:1000C000D3BB4387D1133D190E3CC3BD4282AD2B38
:1000D0003E68EC8276BED98FE1A93E4C80EFFFBE30
:1000E00001C4FF7F3F000000000074696D6572204D
:1000F0006C6F773A0074696D657220686967683A59
:1001000000696E76616C696420636F6E66002455C9
:100110004E4B4E4F574E3B00244B303B0A00244F72
:100120004B3B0A00244F4B3B0A0054656C656D65E0
:100130007472792064697361626C65640A00546545
:100140006C656D6574727920656E61626C65640AB8
:1001500000244F4B3B0A00244F4B3B0A00244F4BDB
:100160003B0A00636F6E666967207265736574652C
:10017000640A00244B4F3B0A00244F4B3B0A0024E7
:10018000656E643B0A002473746172743B0A002438
:10019000656E643B0A002473746172743B0A004309
:1001A0006F6E74696E75697479206F6E200A0043F2
:1001B0006F6E74696E75697479206F6666200A00C7
:1001C000466C69676874204C6973743A200A006E43
:1001D0003B004E756D626572206F6620666C6967C4
:1001E0006874200A005265636F7264696E67200A42
:1001F000006E6F7420612076616C696420666C69A2
:10020000676874005265616420666C696768743A57
:10021000200045726173650A000000000024002779
:10022000002A000000000023002600290000000032
:1002300008000201000003040700000000000000A5
:100240000053746172742070726F6772616D0A007E
:10025000010204081020408001020408102001025D
:100260000408102000000000250028002B000404D2
:10027000040404040404020202020202030303034E
:1002800003030200C62111241FBECFEFD8E0DEBF5A
:10029000CDBF11E0A0E0B1E0E0E1FFE502C00590D4
:1002A0000D92AE3CB107D9F724E0AEECB1E001C04D
:1002B0001D92A53DB207E1F711E0C3E4D1E004C00F
:1002C0002197FE010E947B2CC234D107C9F70E94FE
:1002D0001B220C94862F0C94000091E09093310324
:1002E0008093300310922F0310922E0308952091D3
:1002F0002E0381E0213208F044C080910D0381116A
:10030000FCCF8091300392E090930D0391E09093A5
:100310000C039FEF90930B0310920A0320930903A1
:10032000AEE0B3E0E9EEF2E090E0291331C01092C4
:10033000E8029091E802880F892B8093E80280916F
:10034000E702813049F51092E7028091E80280933C
:10035000BB008091BC0083FDF8CF85EC8093BC008E
:1003600080910D038230E1F380910B038F3FB1F058
:1003700080910B038032A1F080910B03803391F0C8
:1003800084E010922F0310922E03109231030895EF
:100390003D9131939F5FC9CF85EEE0CF80E0F1CFF3
:1003A00082E0EFCF83E0EDCF90910D039111FCCF70
:1003B00091E090930D0390930C032FEF20930B0388
:1003C00010920A03260F209309039093E80290915C
:1003D000E802880F892B8093E8028091E702813040
:1003E000F9F41092E7028091E8028093BB008091BB
:1003F000BC0083FDF8CF85EC8093BC0080910D0399
:100400008130E1F380910A03861710F460910A03AA
:10041000A9EEB2E0E7ECF2E080E0861303C00895B5
:1004200085EEEACF9D9191938F5FF7CFE8EEF3E0F1
:1004300090E080E04181528163817481452B462B9D
:10044000472B29F0019638968931910599F7019744
:100450000895089508950895AF92BF92CF92DF92C4
:10046000EF92FF920F931F93CF93DF936C017B0169
:100470008B01040F151FEB015E01AE18BF08C017FA
:10048000D10759F06991D601ED91FC910190F0816D
:10049000E02DC6010995892B79F7C501DF91CF9130
:1004A0001F910F91FF90EF90DF90CF90BF90AF9092
:1004B0000895FC01538D448D252F30E0842F90E06A
:1004C000821B930B541710F0CF960895019708954F
:1004D000FC01918D828D981761F0A28DAE0FBF2F18
:1004E000B11D5D968C91928D9F5F9F73928F90E06E
:1004F00008958FEF9FEF0895FC01918D828D9817DD
:1005000031F0828DE80FF11D858D90E008958FEF19
:100510009FEF0895FC01918D228D892F90E0805CE2
:100520009F4F821B91098F739927089582E393E06F
:100530000E948A0221E0892B09F420E0822F08958D
:1005400080E090E0892B29F00E94960281110C94A2
:1005500000000895FC01A48DA80FB92FB11DA35A66
:10056000BF4F2C91848D90E001968F739927848FD3
:10057000A689B7892C93A089B1898C9183708064F6
:100580008C93938D848D981306C00288F389E02D97
:1005900080818F7D80830895EF92FF920F931F9348
:1005A000CF93DF93EC0181E0888F9B8D8C8D981326
:1005B0001AC0E889F989808185FF15C09FB7F89432
:1005C000EE89FF896083E889F9898081837080647E
:1005D00080839FBF81E090E0DF91CF911F910F91C9
:1005E000FF90EF900895F62E0B8D10E00F5F1F4FD8
:1005F0000F731127E02E8C8D8E110CC00FB607FCE7
:10060000FACFE889F989808185FFF5CFCE010E9474
:10061000AA02F1CFEB8DEC0FFD2FF11DE35AFF4F36
:10062000F0829FB7F8940B8FEA89FB898081806202
:10063000CFCF0F931F93CF93DF938C01D0E0C0E017
:10064000F801EC0FFD1F6491662341F082E393E013
:100650000E94CC02892B11F02196F2CFCE01DF91BE
:10066000CF911F910F910895CF93DF93EC01888D67
:100670008823B9F0AA89BB89E889F9898C9185FD1D
:1006800003C0808186FD0DC00FB607FCF7CF8C91AB
:1006900085FFF2CF808185FFEDCFCE010E94AA02B7
:1006A000E9CFDF91CF910895833081F028F4813034
:1006B00099F08230A9F008958730A9F08830C9F008
:1006C0008430B1F4809180008F7D03C080918000E0
:1006D0008F7780938000089584B58F7784BD0895C7
:1006E00084B58F7DFBCF8091B0008F778093B00071
:1006F00008958091B0008F7DF9CFCF93DF93282F9D
:1007000030E0F901E35DFD4F8491F901E05BFD4FBD
:10071000D491F901E259FD4FC491CC23A1F081118C
:100720000E945403EC2FF0E0EE0FFF1FED5DFD4F34
:10073000A591B491EC91ED2381E090E009F480E083
:10074000DF91CF91089580E090E0FACF1F93CF938F
:10075000DF93282F30E0F901E35DFD4F8491F9012B
:10076000E05BFD4FD491F901E259FD4FC491CC23D8
:10077000A9F0162F81110E945403EC2FF0E0EE0F28
:10078000FF1FEC59FD4FA591B4918FB7F894EC91F0
:10079000111108C0D095DE23DC938FBFDF91CF917C
:1007A0001F910895DE2BF8CF1092C6021092C50259
:1007B00010922F0310922E0310920D0381E080936C
:1007C0000C031092E70261E082E10E94A60361E05F
:1007D00083E10E94A603E9EBF0E080818E7F8083B5
:1007E00080818D7F808388E48093B80085E4809346
:1007F000BC0089E292E09093B3028093B2028AE255
:1008000092E09093B1028093B0020895909111010B
:1008100089130BC0E2E8F2E0E4919FEF909311019D
:10082000E13049F028F0E23061F060E00C94A6037A
:1008300010926E00FACF90916F009D7F90936F00A1
:10084000F4CF909170009D7F9093700091E0909311
:10085000B0009091B100987F94609093B100109295
:10086000B300E3CFCF93DF9390E0FC01E05BFD4F5B
:10087000249182599D4FFC0184918823C9F090E016
:10088000880F991FFC01E75EFD4FA591B491FC0113
:10089000EC59FD4FC591D49161110DC09FB7F894EB
:1008A0008C91209582238C938881282328839FBF55
:1008B000DF91CF910895623051F49FB7F8943C9145
:1008C000822F809583238C93E8812E2BEFCF8FB7D7
:1008D000F894EC912E2B2C938FBFEACF4F925F921E
:1008E0006F927F928F929F92AF92BF92CF92DF9240
:1008F000EF92FF920F931F93CF93DF9300D000D01E
:100900001F92CDB7DEB78C012A013B018091110106
:100910008D30C9F08F3F09F47FC00F900F900F907A
:100920000F900F90DF91CF911F910F91FF90EF905B
:10093000DF90CF90BF90AF909F908F907F906F90FF
:100940005F904F900895E2E8F2E084918D8387FDF7
:10095000E4CF61E08DE00E9432048D81882321F094
:100960009D81923009F05CC14801B12CA12C60E05E
:1009700072E18AE790E0A50198010E945C2C29832E
:100980003A834B835C8369017A0181E0C81AD108FC
:10099000E108F1089FEFC916D104E104F10409F060
:1009A0000CF413C160E472E48FE090E0A5019801BB
:1009B0000E945C2C69017A0181E0C81AD108E10823
:1009C000F1089D81923009F098C08FEFC816D104CC
:1009D000E104F10409F00CF4DDC160E970ED83E09D
:1009E00090E0A50198010E945C2C69017A0191E0D8
:1009F000C91AD108E108F1088FEFC816D104E10443
:100A0000F10411F00CF0A3C183E09091B100987F44
:100A1000892B8093B100E1C08DE080931101E2E861
:100A2000F2E094919D839F3F09F477CF913029F1B3
:100A300058F0923009F43FC08D8187FD6ECF61E0A0
:100A40008DE00E9432048CCF14BC15BC84B582604A
:100A500084BD85B5816085BDEBE7F2E0E491F0E00F
:100A6000EE0FFF1FEC59FD4F85919491EDE5F2E0FB
:100A7000E491E093B8021D826CCF10928000109236
:100A80008100809181008860809381008091810045
:100A9000816080938100EBE7F2E0E491F0E0EE0FFB
:100AA000FF1FEC59FD4F85919491EDE5F2E0E49143
:100AB000E093B7024ECF1092B0001092B100809137
:100AC000B00082608093B0008091B100816080931B
:100AD000B100EBE7F2E0E491F0E0EE0FFF1FEC591C
:100AE000FD4F859194919093B6028093B502EDE508
:100AF000F2E0E491E093B4022CCF9FEFC916D10449
:100B0000E104F10409F00CF489C068E478EE81E0B6
:100B100090E0A50198010E945C2C69017A0181E0B6
:100B2000C81AD108E108F1089D81992309F428C168
:100B30009FEFC916D104E104F10409F00CF41EC1C1
:100B400062E17AE780E090E0A50194010E945C2CCC
:100B500069017A0181E0C81AD108E108F1089D8194
:100B6000992309F4EBC08FEFC816D104E104F10416
:100B700011F008F0BFC086E048CF64E274EF80E077
:100B800090E0A50194010E945C2C69017A0181E04A
:100B9000C81AD108E108F10885E09FEFC916D10411
:100BA000E104F10409F008F430CF62E17AE780E073
:100BB00090E0A50194010E945C2C69017A0191E00A
:100BC000C91AD108E108F108CECF81E09D819111C9
:100BD0001CCF95B5987F892B85BD2FEF3FEFA901DD
:100BE000411451046104710409F043C09D819130A6
:100BF00009F45EC0923009F46DC091118ECEC7BC6D
:100C00002093C1023093C2024093C3025093C402A6
:100C100080916E00826080936E007FCE82E0D6CF9E
:100C2000B12CA12C60E072E18AE790E0A501980167
:100C30000E945C2C69017A0181E0C81AD108E108A0
:100C4000F108C114D10491E0E906F10404F591E042
:100C50008D81813011F680918100887F892B80936E
:100C600081002FEF3FEFA901411451046104710489
:100C7000F9F0D801AA0FBB1FA30192010E94812C99
:100C800028EE33E040E050E00E943A2CAFCF68E419
:100C900078EE81E090E0A50198010E945C2C69014A
:100CA0007A0181E0C81AD108E108F10893E0D0CFB9
:100CB000D0928900C09288002093BD023093BE027A
:100CC0004093BF025093C00280916F008260809376
:100CD0006F0023CEC092B3002093B9023093BA02C2
:100CE0004093BB025093BC0280917000826080935D
:100CF000700013CEC980DA80EB80FC809AE0F59416
:100D0000E794D794C7949A95D1F791E0C91AD1087E
:100D1000E108F10887E079CEC980DA80EB80FC80B9
:100D20008AE0F594E794D794C7948A95D1F791E037
:100D3000C91AD108E108F10885E04BCF8FEFC8163A
:100D4000D104E104F10409F038F784E042CF68E40B
:100D500078EE81E090E0A50198010E945C2C690189
:100D60007A0191E0C91AD108E108F1088FEFC8169D
:100D7000D104E104F10411F00CF0FFCE84E045CE83
:100D80008FEFC816D104E104F10411F00CF0D8CEB5
:100D900083E01FCF82E039CE3FB7F89480911C02E8
:100DA00090911D02A0911E02B0911F0226B5A89B32
:100DB00005C02F3F19F00196A11DB11D3FBFBA2FED
:100DC000A92F982F8827BC01CD01620F711D811DAD
:100DD000911D42E0660F771F881F991F4A95D1F732
:100DE00008958F929F92AF92BF92CF92DF92EF922F
:100DF000FF924B015C010E94CC066B017C010E94BA
:100E0000CC066C197D098E099F09683E73408105E7
:100E10009105A8F321E0821A9108A108B10888EE93
:100E2000C80E83E0D81EE11CF11C81149104A104BA
:100E3000B10429F7FF90EF90DF90CF90BF90AF9073
:100E40009F908F9008952FB7F89460911802709139
:100E5000190280911A0290911B022FBF089585ED0F
:100E60008093BC008091BC0084FDFCCF10920D03E8
:100E700008952091F401260F3327331F21323105C5
:100E8000ECF420910D03FC0190E080E0243069F047
:100E900082E00895A091F4012191AC014C525E4F83
:100EA000A40FB52FB11D2C930196861798F380914E
:100EB000F401680F6093F40180E0089581E00895E3
:100EC0000895E091C6028091C502E81730F4F0E081
:100ED000E953FD4F808190E008958FEF9FEF0895D3
:100EE0009091C6028091C5022FEF3FEF981748F40A
:100EF000E92FF0E0E953FD4F208130E09F5F9093B0
:100F0000C602C90108958091C5029091C602891B4D
:100F1000990B0895CF92DF92EF92FF920F931F9358
:100F2000CF93DF937C01CB018A01209131032223EF
:100F300089F0EB016B01C40ED51ECC15DD0569F0FF
:100F40006991D701ED91FC910190F081E02DC701ED
:100F50000995F3CF642F0E943907C801DF91CF9123
:100F60001F910F91FF90EF90DF90CF900895CF9356
:100F7000DF931F92CDB7DEB769832091310322231F
:100F8000F9F020912E03203258F021E030E0FC01EE
:100F90003383228390E080E00F90DF91CF9108951A
:100FA00080912F03E82FF0E0E25FFC4F998190835E
:100FB0008F5F80932F0380932E0381E090E0ECCF2E
:100FC00061E0CE0101960E943907F7CF4F925F9200
:100FD0006F927F928F929F92AF92BF92CF92DF9249
:100FE000EF92FF920F931F93CF93DF932B013C015E
:100FF0007A01890120E2C22ED12C3BECA32E37E0EE
:10100000B32EC091DF03D091E003CE01019784217C
:101010009521C81BD90B8091E2039091E3039601BF
:10102000281B390BC9010217130708F4C8018C17D4
:101030009D0708F4EC018091E103A301920104C033
:1010400056954795379527958A95D2F79090DB036B
:10105000922A892D0E946D018091E2039091E30311
:10106000029741F49927872D762D652D8FEC93E01B
:101070000E94B707642D8FEC93E00E94B707AE0182
:10108000B7018FEC93E00E948A070E9477018111DB
:101090001FC084E6882EC5010197F1F7892D0E94B3
:1010A0006D018091E2039091E303029729F460E0DF
:1010B0008FEC93E00E94B70760E08FEC93E00E9412
:1010C000B7070E9477018823A1F08A948110E3CFAB
:1010D000DF91CF911F910F91FF90EF90DF90CF9014
:1010E000BF90AF909F908F907F906F905F904F9048
:1010F00008954C0E5D1E611C711CEC0EFD1E0C1B38
:101100001D0B09F07ECFE4CF8091E4039091E503BD
:10111000A091E603B091E703883C9105A105B105D4
:1011200048F028EC30E049EE53E060E070E0CB019D
:101130000E94E60788EC90E0089590E080E0089532
:10114000CF93DF93CDB7DEB7E2970FB6F894DEBF4B
:101150000FBECDBF10926B0210926A0210926D0208
:1011600010926C0210926F0210926E0281E090E079
:10117000909371028093700283E090E090937302E9
:1011800080937202109279021092780210927B0280
:1011900010927A0210927D0210927C0222E330E0DB
:1011A00030937502209374021092770210927602A7
:1011B00028EB31E030937F0220937E0225E030E07F
:1011C0003093810220938002909383028093820265
:1011D0001092850210928402109287021092860269
:1011E00040E056E960E070E0409388025093890245
:1011F00060938A0270938B0210928D0210928C027F
:1012000020E032E030938F0220938E021092910200
:101210001092900290939302809392021092950202
:10122000109294028AE090E0909397028093960245
:10123000109299021092980282E3EAE6F2E0DE014F
:10124000119601900D928A95E1F7FE013196AE015B
:101250004F5C5F4F90E080E0E417F50731F021919B
:10126000820F911D27FD9A95F7CF90939B02809353
:101270009A02E2960FB6F894DEBF0FBECDBFDF91A3
:10128000CF91089548EE53E060E070E08091440211
:10129000909145020E946E046CED75E080E090E054
:1012A0000E94F1068DE00C940604CF93DF93CAE010
:1012B000D0E048EE53E060E070E080E496E00E9409
:1012C0006E0462E370E080E090E00E94F1068DE041
:1012D0000E940604219769F768EE73E080E090E0D1
:1012E000DF91CF910C94F10649E150E060E070E0AD
:1012F00080914402909145020E946E046CE271E07C
:1013000080E090E00E94F1068DE00C940604CF92FC
:10131000DF92EF92FF920F931F93CF93DF936B01B6
:101320007C0124E6C216D104E104F1040CF446C0A9
:1013300024E630E040E050E00E945C2C890164E645
:10134000629FC001639F900D1124092E000CAA0B0F
:10135000BB0BA7019601281B390B4A0B5B0BCA017B
:10136000B9012AE030E040E050E00E945C2CE90145
:10137000EE24E394F12C1016110644F11C161D0600
:101380007CF401E010E00E94740962E370E080E008
:1013900090E00E94F1060F5F1F4FC017D1079CF726
:1013A00068E873E180E090E0DF91CF911F910F91A9
:1013B000FF90EF90DF90CF900C94F1062AE030E0A0
:1013C00040E050E00E945C2CE901D8CF0E94420925
:1013D00062E370E080E090E00E94F1063FEFE31AE4
:1013E000F30A0E151F0594F7C9CF662319F061E0C3
:1013F0000C94A60360E0FCCF1092D20110929D02E3
:1014000010929C02109261021092600210925F0290
:101410001092A60210926602109267021092680261
:10142000109269021092620210926302109264029A
:101430001092650210923002109231021092320224
:101440001092330208950E94FC0980916A029091E3
:101450006B02892B09F08DC080E090E0A0E8BFE32B
:1014600080930D0190930E01A0930F01B093100192
:101470006091740270917502072E000C880B990B15
:101480000E94AC2920910D0130910E0140910F0175
:10149000509110010E9402290E947429072E000C0D
:1014A000880B990B60933402709335028093360257
:1014B0009093370280917E0290917F029093450233
:1014C000809344028091800290918102092E000C49
:1014D000AA0BBB0B8093000190930101A093020122
:1014E000B09303018FEF9FEF909305018093040168
:1014F00080916E0290916F02039751F01092050156
:10150000109204018BE090E090934B0280934A028A
:101510008091700290917102039791F08091040183
:101520009091050101969093050180930401880F25
:10153000991FFC01E65BFD4F8AE090E09183808378
:101540008091720290917302039791F0809104014F
:101550009091050101969093050180930401880FF5
:10156000991FFC01E65BFD4F80E190E09183808351
:10157000089588E499EFA1E5B0E472CF682F87E77A
:101580000E94D4011092C6028093C5020895CF93A1
:10159000C82F87E70E946D016C2F8FEC93E00E94AB
:1015A000B7070E94770187E70E946D0181E090E014
:1015B0000E94BE0A8FEC93E00E947007C82F0E9421
:1015C00077018C2FCF910895CF93DF93C82F87E7B2
:1015D0000E946D016C2F8FEC93E00E94B7070E9470
:1015E000770187E70E946D0182E090E00E94BE0AC9
:1015F0008FEC93E00E947007D82F80E0C82F8FEC0B
:1016000093E00E947007C82BD92B0E947701CE016E
:10161000DF91CF9108956F927F928F929F92AF92B8
:10162000BF92CF92DF92EF92FF920F931F93CF93CF
:10163000DF934B015C016A018901C091DF03D09106
:10164000E003CE01019788219921C81BD90BC8015D
:101650000132110510F080E290E08C179D0708F42C
:10166000EC018091E103A501940104C056954795D2
:10167000379527958A95D2F7F090DB03F22A8F2DC4
:101680000E946D018091E2039091E303029741F47F
:1016900099278B2D7A2D692D8FEC93E00E94B70747
:1016A000682D8FEC93E00E94B7070E947701682EA7
:1016B000811122C06C2F8F2D0E94D4011092C6027E
:1016C0008093C502712CE72CF12CEC16FD0650F42A
:1016D0008FEC93E00E947007F601EE0DFF1D8083F2
:1016E0007394F1CF8C0E9D1EA11CB11CCC0EDD1E7F
:1016F0000C1B1D0B09F0A1CF862DDF91CF911F91FF
:101700000F91FF90EF90DF90CF90BF90AF909F90A0
:101710008F907F906F9008958091E4039091E503FE
:10172000A091E603B091E703883C9105A105B105BE
:1017300048F028EC30E049EE53E060E070E0CB0187
:101740000E940B0B88EC90E0089587E70E946D01E2
:1017500064EF8FEC93E00E94B7076EE28FEC93E0AA
:101760000E94B7070E9477018FE19EE40197F1F78D
:1017700000C0000086EF0C94E40A8F929F92AF9213
:10178000BF92CF92DF92EF92FF92CF93DF930E94AE
:10179000A50B9C0150E040E0CEEBD4E08D899E8902
:1017A000281B390B41095109AB89BC890E94812C46
:1017B0000E94AC2920E030E040E058E30E94382A43
:1017C0000E9474296B017C016D857E85072E000CBB
:1017D000880B990B0E94AC2920E030E040E055E4F2
:1017E0000E94382A4B015C016F857889072E000C16
:1017F000880B990B6C0D7D1D8E1D9F1D0E94AC29C1
:101800009B01AC01C501B4010E9402290E94742908
:101810006C0D7D1D8E1D9F1D685F7F4F8F4F9F4FED
:101820000E94AC2920E030E040E85DE30E94382AC5
:1018300020E030E040E251E40E940229DF91CF91A4
:10184000FF90EF90DF90CF90BF90AF909F908F90E0
:101850000895FC0101900020E9F73197AF01481B82
:10186000590BBC0182E393E00C942C02CF93DF93DD
:101870000E94290CEC0186E491E00E94290C8C0F57
:101880009D1FDF91CF9108958F929F92AF92BF924B
:10189000CF92DF92EF92FF920F931F93CF93DF933C
:1018A000CDB7DEB7A1970FB6F894DEBF0FBECDBFA0
:1018B0006B017C01F7FE41C06DE282E393E00E9480
:1018C000CC028C0122273327A9012C193D094E098E
:1018D0005F0919A2CE0181967C019AE0892E912C94
:1018E000A12CB12CCA01B901A50194010E943A2C86
:1018F000605DF70162937F012115310541055105B6
:1019000089F790E080E0309719F0CF010E94290C10
:10191000800F911FA1960FB6F894DEBF0FBECDBF0A
:10192000DF91CF911F910F91FF90EF90DF90CF90BB
:10193000BF90AF909F908F900895AC019B0119A22A
:101940008E010F5D1F4F8AE0C82ED12CE12CF12CA7
:10195000CA01B901A70196010E943A2C605DF80105
:1019600062938F01211531054105510589F790E0FA
:1019700080E0309779F2CF010E94290CCBCFCF9332
:10198000DF93BC01990F880B990B0E94440CEC016A
:1019900086E491E00E94290C8C0F9D1FDF91CF916E
:1019A0000895CF93DF93682F82E393E00E94CC02E7
:1019B000EC0186E491E00E94290C8C0F9D1FDF91C1
:1019C000CF910895CF93DF930E941903EC0186E431
:1019D00091E00E94290C8C0F9D1FDF91CF910895FB
:1019E0000F931F93CF93DF930E948C0B08EE13E0AD
:1019F000D0E0C0E0F80181819281A381B481892B7C
:101A00008A2B8B2B59F189E491E00E94290CCE019D
:101A10000E94BF0C86E591E00E94290CF8016181CB
:101A20007281838194810E94440C86E491E00E943B
:101A3000290C8EE591E00E94290CF80165817681E0
:101A4000878190850E94440C86E491E00E94290CD5
:101A50002196085F1F4FC931D10561F6CE01DF9194
:101A6000CF911F910F9108952F923F924F925F92C5
:101A70006F927F928F929F92AF92BF92CF92DF929E
:101A8000EF92FF920F931F93CF93DF93CDB7DEB703
:101A9000C958D1090FB6F894DEBF0FBECDBFFC0107
:101AA00023E0EE0FFF1F2A95E1F7E851FC4F8180FC
:101AB0009280A380B48029EC82169104A104B10421
:101AC00008F408C11C0185819681A781B085412C4D
:101AD000512C32019C01AD012F5F3F4F4F4F5F4FA3
:101AE000CC57DF4F288339834A835B83C458D04067
:101AF000AE014D5F5F4FCE57DF4F59834883C258C9
:101B0000D0408E0107581F4FC8010296C857DF4FBB
:101B100099838883C858D0408AE6E82E81E0F82E61
:101B20009EE6C92E91E0D92ECC57DF4F288139810E
:101B30004A815B81C458D04082169306A406B5063C
:101B400008F0C8C04091E4035091E5036091E603BA
:101B50007091E703D501C4010C96A11DB11D481772
:101B600059076A077B0740F02CE030E041EB54E076
:101B7000C501B4010E940B0B3DE0830E911CA11C1A
:101B8000B11C1A821982CE57DF4FA881B981C25881
:101B9000D040E6E71D92EA95E9F7D8011D921C9224
:101BA000C857DF4FE881F981C858D04027E011922B
:101BB0002A95E9F78091B1049091B204A091B30401
:101BC000B091B404480E591E6A1E7B1E64E671E093
:101BD000CE0101960E94A32C3F922F92FF92EF928A
:101BE0001F930F930E94AE2CB801CE0101960E9464
:101BF000A32C7F926F925F924F92FF92EF921F936E
:101C00000F930E94AE2CB801CE0101960E94A32C26
:101C10008091B8048F938091B7048F938091B6041C
:101C20008F938091B5048F93FF92EF921F930F9340
:101C30000E94AE2CB801CE0101960E94A32C809187
:101C4000BC048F938091BB048F938091BA048F93CF
:101C50008091B9048F93FF92EF921F930F930E948C
:101C6000AE2CB801CE0101960E94A32CFE01319644
:101C70000FB6F894DEBF0FBECDBF90E080E021919B
:101C8000820F911D27FD9A950E171F07C1F79927FF
:101C90009F938F93DF92CF921F930F930E94AE2C4E
:101CA000B801CE0101960E94A32C6CEB71E0CE012D
:101CB00001960E94A32C81E791E00E94290CCE019D
:101CC00001960E94290C0F900F900F900F900F908B
:101CD0000F902ACFC757DF4F0FB6F894DEBF0FBE65
:101CE000CDBFDF91CF911F910F91FF90EF90DF90CB
:101CF000CF90BF90AF909F908F907F906F905F90AC
:101D00004F903F902F9008952F923F924F925F9265
:101D10006F927F928F929F92AF92BF92CF92DF92FB
:101D2000EF92FF920F931F93CF93DF93CDB7DEB760
:101D3000C15AD1090FB6F894DEBF0FBECDBF1A82CB
:101D40001982FE01339624E9DF011D922A95E9F7F5
:101D50008E0109561F4FF8011192119228E0DF0100
:101D60001D922A95E9F72091D301222309F4C8C1D5
:101D70007A01892E982EA72EB62E0E942307409016
:101D8000CE015090CF016090D0017090D101DC0164
:101D9000CB0184199509A609B709A701FF0C660BA9
:101DA000770B481759076A077B0708F0A9C10E94FB
:101DB00023076093CE017093CF018093D00190935D
:101DC000D1016090A602B0919D02CF55DF4FB8833C
:101DD000C15AD0402090A7023090A8024090A9029A
:101DE0005090AA0280919C028111A4C1712CC12C37
:101DF000D12C63E771E0CE0101960E94A32C5F9283
:101E00004F923F922F924AE6E42E41E0F42EFF9249
:101E1000EF921F930F930E94AE2CB801CE01019652
:101E20000E94A32C1F926F92FF92EF921F930F9329
:101E30000E94AE2CB801CE0101960E94A32C1F92E5
:101E4000CF55DF4F8881C15AD0408F93FF92EF92D8
:101E50001F930F930E94AE2CB801CE0101960E94F1
:101E6000A32C809169028F93809168028F93809157
:101E700067028F93809166028F93FF92EF921F9378
:101E80000F930E94AE2CB801CE0101960E94A32CA4
:101E90001F927F92FF92EF921F930F930E94AE2C9E
:101EA0000FB6F894DEBF0FBECDBFB801CE010196CC
:101EB0000E94A32C809165028F93809164028F937E
:101EC000809163028F93809162028F93FF92EF92D1
:101ED0001F930F930E94AE2CB801CE0101960E9471
:101EE000A32CDF92CF92FF92EF921F930F930E9449
:101EF000AE2CB801CE0101960E94A32C8F929F9226
:101F0000AF92BF92FF92EF921F930F930E94AE2C5D
:101F1000B801CE0101960E94A32C0FB6F894DEBF43
:101F20000FBECDBF80916E0290916F0261E871E0AB
:101F3000039749F08BE00E947D036EE771E0892BE7
:101F400011F062E871E0CE0101960E94A32C80910D
:101F500070029091710261E871E0039781F08AE06C
:101F60000E947D037C0164E170E080E090E00E94CB
:101F7000F1066EE771E0EF2811F062E871E0CE0142
:101F800001960E94A32C809172029091730261E8E5
:101F900071E0039749F080E10E947D036EE771E0F4
:101FA000892B11F062E871E0CE0101960E94A32C0A
:101FB00061E871E0CE0101960E94A32C61E871E016
:101FC000CE0101960E94A32C0E94BD0B0E94742991
:101FD0007F936F938AE691E09F938F931F930F9364
:101FE0000E94AE2CB801CE0101960E94A32CE8EE0F
:101FF000F3E00F900F900F900F900F900F9090E0E4
:1020000080E04181528163817481452B462B472BAF
:1020100029F0019638968931910599F723E0880FC8
:10202000991F2A95E1F7FC01E052FC4F658176810A
:10203000878190850E94AC2920E030E040E857E39A
:102040000E94382A20E030E048EC52E40E94382A0E
:102050000E9474297F936F933AE6E32E31E0F32ECA
:10206000FF92EF921F930F930E94AE2CB801CE0106
:1020700001960E94A32C0E94160201969F938F93B3
:10208000FF92EF921F930F930E94AE2CB801CE01E6
:1020900001960E94A32CFE0131960FB6F894DEBF84
:1020A0000FBECDBF90E080E02191820F911D27FDF2
:1020B0009A950E171F07C1F799279F938F938EE666
:1020C00091E09F938F931F930F930E94AE2CB801C2
:1020D000CE0101960E94A32C6CEB71E0CE0101961B
:1020E0000E94A32C81E791E00E94290CCE01019669
:1020F0000E94290C0F900F900F900F900F900F904F
:10210000CF55DF4F0FB6F894DEBF0FBECDBFDF91C6
:10211000CF911F910F91FF90EF90DF90CF90BF90E4
:10212000AF909F908F907F906F905F904F903F9077
:102130002F90089581E0D12CBAE02B163104410490
:1021400051040CF080E0C82E7724739452CE0F9384
:102150001F93CF93DF930AE612E0C0E2D0E0F801CC
:1021600061918F01CE010E9487282196C235D10549
:10217000B1F7DF91CF911F910F910895EF92FF92E8
:102180000F931F93CF93DF93CDB7DEB7E2970FB6D0
:10219000F894DEBF0FBECDBF0E94A0088AE6E82EED
:1021A00082E0F82E00E210E0C8010E947F28F701CB
:1021B00081937F010F5F1F4F02351105A9F74091F1
:1021C0009A0250919B0282E3EAE6F2E0DE01119668
:1021D00001900D928A95E1F7FE013196BE016F5C88
:1021E0007F4F30E020E0E617F70731F08191280FAC
:1021F000311D87FD3A95F7CF81E04217530709F06B
:1022000080E0E2960FB6F894DEBF0FBECDBFDF913F
:10221000CF911F910F91FF90EF9008958F929F9211
:10222000AF92BF92CF92DF92FF920F931F93CF9303
:10223000DF9300D000D01F92CDB7DEB72AE0AE0109
:102240004F5F5F4F6A010E944D28F6010190002008
:10225000E9F73197FE2EFC1868EB7BE080E090E018
:102260000E94F10656018A2D8C198F15F0F468EE44
:1022700073E080E090E00E94F106F50101915F01BA
:10228000005309F40AE010E0912C812C0E9474099B
:10229000FFEF8F1A9F0A801691062CF76AEF70E005
:1022A00080E090E00E94F106F1CF0F900F900F9028
:1022B0000F900F90DF91CF911F910F91FF90DF90C2
:1022C000CF90BF90AF909F908F9008954F925F9264
:1022D0006F927F928F929F92AF92BF92CF92DF9236
:1022E000EF92FF921F93CF93DF9300D000D000D0E6
:1022F000CDB7DEB70E94A50B4C01B12CA12C2091CB
:10230000BE042295220F220F207C2C5C298387E7B4
:102310000E946D0164EF8FEC93E00E94B707698122
:102320008FEC93E00E94B7070E9477018091BE0472
:10233000811109C28FE19EE40197F1F700C000000E
:1023400086EF0E94E40AB0E0A0E0CC24D82EE92E6B
:10235000FA2E88EF0E94C70AC82A1091BE04212FC6
:1023600030E03E832D838091D3049091D404A50165
:102370009401281B390B41095109A091D104B09156
:10238000D2040E94812C0E94AC2920E030E040E081
:1023900058E30E94382A0E9474292B013C01609165
:1023A000CB047091CC04072E000C880B990B0E9473
:1023B000AC2920E030E040E055E40E94382A4B018F
:1023C0005C016091CD047091CE04072E000C880B47
:1023D000990B640D751D861D971D0E94AC299B01EC
:1023E000AC01C501B4010E9402290E947429460E65
:1023F000571E681E791E30EA431A3FE0530A6108EF
:102400007108A3019201C301B2010E942A2C9B0111
:10241000AC01ACE05595479537952795AA95D1F72E
:1024200029833A834B835C83A091C304B091C40495
:10243000A30192010E948C2C4B015C01BDE0B5947C
:10244000A79497948794BA95D1F7A091C504B091B9
:10245000C60429813A814B815C810E948C2C9C01AD
:10246000552737FD5095452F280D391D4A1D5B1DF9
:102470002E5F3F4F4F4F5F4F62E055954795379521
:1024800027956A95D1F730584F4F5F4FA091CF04F1
:10249000B091D0040E94812C4B015C017FE0B69486
:1024A000A794979487947A95D1F788E090E04D812E
:1024B0005E81841B950B04C0F694E794D794C7946F
:1024C0008A95D2F7A091C704B091C80429813A81B6
:1024D0004B815C810E948C2C9B01AC01EBE05595FB
:1024E000479537952795EA95D1F729833A834B830A
:1024F0005C83A091C104B091C204A30192010E9427
:102500008C2CFBE09595879577956795FA95D1F793
:1025100029813A814B815C81620F731F841F951F53
:102520004090BF045090C004052C000C660877084A
:10253000A2E0440C551C661C771CAA95D1F7640DCB
:10254000751D861D971D012E04C0660F771F881FFD
:10255000991F0A94D2F76E5F7F4F8F4F9F4F24E0F1
:1025600030E040E050E00E945C2CD701C601821BA5
:10257000930BA40BB50B9C01AD0160E573EC80E0FF
:1025800090E004C096958795779567951A95D2F750
:102590000E942A2C97FDEDC0660F771F881F991F98
:1025A000A50194010E943A2C69017A019927F7FC50
:1025B0009A958F2D7E2D6D2D9B01AC010E942A2CAA
:1025C0009B01AC01AEEDBBE00E94812C4B015C0194
:1025D000A3E4B3EEA70196010E948F2CBC019927BA
:1025E00077FD9095892F4501BB2497FCB094AB2CC7
:1025F000680D791D8A1D9B1D6153714F8F4F9F4F31
:1026000044E095958795779567954A95D1F76C0D38
:102610007D1D8E1D9F1D0E94AC2920E836EE45ECE5
:1026200057E40E94022921E03EED42E45EE30E946D
:10263000A52A69837A838B839C83409024025090DF
:102640002502609026027090270220912802309186
:10265000290240912A0250912B0260912002709130
:10266000210280912202909123020E9496286B0100
:102670007C0120912C0230912D0240912E0250912C
:102680002F020E9496289B01AC0160E070E080E878
:102690009FE30E940229A70196010E94382A4B015C
:1026A0005C0129813A814B815C8160E070E080E8C7
:1026B0009FE30E94952820E03AE24DE257E40E9411
:1026C000382AA30192010E949528A50194010E9435
:1026D000382AA30192010E9496282B013C014092C6
:1026E0002402509225026092260270922702A501D0
:1026F000940160E070E080E89FE30E949528A701C4
:1027000096010E94382A60932002709321028093E0
:10271000220290932302C301B20126960FB6F894C9
:10272000DEBF0FBECDBFDF91CF911F91FF90EF9025
:10273000DF90CF90BF90AF909F908F907F906F90E1
:102740005F904F900895813029F4AFEFBCE7119767
:10275000F1F7F4CD823029F48FEB9AED0197F1F780
:10276000EDCD9FEFA4E4B1E09150A040B040E1F77F
:10277000E5CDA50194010E943A2C69017A01CC0CA7
:10278000DD1CEE1CFF1C12CF2F923F924F925F92E6
:102790006F927F928F929F92AF92BF92CF92DF9271
:1027A000EF92FF920F931F93CF93DF93CDB7DEB7D6
:1027B000EE970FB6F894DEBF0FBECDBF0E94FC09A6
:1027C000198E1A8E1B8E1C8E18861F82809178029D
:1027D000909179029A83898380917A0290917B0209
:1027E0009C838B8380917C0290917D029E838D835C
:1027F00088E0E2E1F1E0DE01199601900D928A9500
:10280000E1F740916E0250916F025A8749872091FB
:102810007002309171023C872B87809172029091F7
:1028200073029E878D8768E0EAE1F1E0DE01519650
:1028300001900D926A95E1F74330510521F049E08E
:1028400050E05A8B498B2330310521F02CE030E0E9
:102850003C8B2B8B039721F081E190E09E8B8D8B3D
:102860001D8E1E8E1F8E18A21CA619AE1AAE1BAE90
:102870001CAE1DAA1EAA1FAA18AE412C512C320153
:1028800019AA1AAA1BAA1CAA10E01BA61CA21BA20A
:102890008091D20181118EC60E9466116B017C016C
:1028A0006091AB027091AC028091AD029091AE024A
:1028B0000E94AC299B01AC01C701B6010E9495287A
:1028C0000E9474296093A7027093A8028093A902C2
:1028D0009093AA02C0909E02D0909F02E090A00226
:1028E000F090A102C616D706E806F9060CF03FC024
:1028F0008091A60281113BC080919C028111C8CFBA
:1029000081E08093A60248EC50E060E070E0CB01EB
:102910000E94840E0E9423076093A2027093A30278
:102920008093A4029093A502809176029091770201
:10293000019711F401E00CA7809108018823B9F0F8
:10294000E0915D02F0915E0243E0EE0FFF1F4A95B9
:10295000E1F7E851FC4F8091090190910A01A091A3
:102960000B01B0910C0181839283A383B483C12CAA
:10297000D12C76011DA21EA21FA218A633243394C7
:102980009E01235E3F4F3AA329A32090A602222056
:1029900009F47ECF0E9466114B015C016091AB028D
:1029A0007091AC028091AD029091AE020E94AC2970
:1029B0009B01AC01C501B4010E9495280E947429B5
:1029C0006DA77EA78FA798AB6093A7027093A8020C
:1029D0008093A9029093AA020E9423078090A202EA
:1029E0009090A302A090A402B090A5029B01AC011C
:1029F000281939094A095B0949015A0100919C02C9
:102A00000023A9F180915F02811131C03BA53111F2
:102A10002DC06DA57EA56C197D09072E000C880BB5
:102A2000990B0E94AC296B017C01B4014DA15EA100
:102A3000641B750B072E000C880B990B0E94AC29A8
:102A400020E030E04AE754E40E9402299B01AC01F7
:102A5000C701B6010E9402290E947429672B39F42C
:102A60000E9423076DAB7EAB8FAB98AF0BA748ECF2
:102A700050E0C501B4010E94840E111106C00E94ED
:102A8000230769AF7AAF8BAF9CAF80916002811151
:102A9000C5C08E01035E1F4F1AA709A710E000E012
:102AA000A9A5BAA58D91BAA7A9A7811135C00E9481
:102AB0002307AB01BC01C9ACDAACEBACFCAC4C19E4
:102AC0005D096E097F09E1E0F0E0EC0FFD1FE00F0A
:102AD000F11F80819181092E000CAA0BBB0B4817B6
:102AE00059076A077B07C0F0E9E0F0E0EC0FFD1F33
:102AF000E00FF11F80819181059771F461E0E1E1C0
:102B0000F0E0EC0FFD1FE00FF11F80810E94A60393
:102B1000E9A5FAA5319730820E5F1F4F08301105E5
:102B200009F0BECF8E010F5F1F4F1AA709A7D12C46
:102B3000C12C0E942307A9A5BAA52D913D91BAA742
:102B4000A9A7AB01BC01E9ACFAAC0BAD1CAD4E19A9
:102B50005F09600B710BC90188519C4F092E000C55
:102B6000AA0BBB0B481759076A077B0730F139E1FD
:102B7000E32EF12CEC0EFD1EEC0CFD1CD7018C910C
:102B800081111BC0C601880F991FE9E0F0E0EC0F2E
:102B9000FD1FE80FF91F208131812530310569F4CF
:102BA000E1E1F0E0EC0FFD1F8E0F9F1F60E0DC0104
:102BB0008C910E94A603F7013082FFEFCF1ADF0A43
:102BC00004E0C016D10409F0B4CFFE017996DE010D
:102BD0001996822D9191911107C02D913C911197D9
:102BE0002530310509F480E01296C9A0DAA0EC1571
:102BF000FD0581F7809360020E9423070091A202E5
:102C00001091A3022091A4023091A502601B710BC8
:102C1000820B930B48EC50E00E94840E809161027D
:102C20008111B6C08E01035E1F4F1EAF0DAF0C5158
:102C300011091AA709A7680110E000E0ADADBEAD0B
:102C40008D91BEAFADAF81112EC0F6018081918113
:102C5000092E000CAA0BBB0B88169906AA06BB0608
:102C600010F17801EE0CFF1CE9E0F0E0EC0FFD1F25
:102C7000EE0DFF1D808191810297A9F485EF90E010
:102C80000E941903C8010E94BF0CE1E1F0E0EC0FC3
:102C9000FD1FEE0DFF1D61E080810E94A603EDADDA
:102CA000FEAD319730820F5F1F4FF2E0CF0ED11C87
:102CB0000430110519F610E000E0A9A5BAA58D9120
:102CC0009D91BAA7A9A788519C4F092E000CAA0B69
:102CD000BB0B88169906AA06BB0658F189E1C82ED7
:102CE000D12CCC0EDD1EC00ED11EF60180818111CB
:102CF00020C07801EE0CFF1CE9E0F0E0EC0FFD1FB6
:102D0000EE0DFF1D80819181029799F48AEE90E08B
:102D10000E941903C8010E94BF0CE1E1F0E0EC0F32
:102D2000FD1FEE0DFF1D60E080810E94A603D6010D
:102D30003C920F5F1F4F0430110509F0BECFFE011A
:102D40007996DE011996822D9191911107C02D91EE
:102D50003C9111972230310509F480E01296C9A008
:102D6000DAA0EC15FD0581F7809361020E9423072C
:102D70000091A2021091A3022091A4023091A50219
:102D8000601B710B820B930B48EC50E00E94840E89
:102D900080910801882309F458C08091A70290917E
:102DA000A802A091A902B091AA02B501A401EDA0C8
:102DB000FEA00FA118A54E195F09600B710B40937F
:102DC000B1045093B2046093B3047093B40480933D
:102DD000B5049093B604A093B704B093B8040E94CE
:102DE000BD0B0E9474296093B9047093BA04809358
:102DF000BB049093BC046091090170910A01809119
:102E00000B0190910C01653F0FEF70078105910553
:102E10000CF437C1E0915D02F0915E02A3E0EE0F89
:102E2000FF1FAA95E1F7E851FC4F61507109810934
:102E3000910965837683878390871092080162E306
:102E400070E080E090E00E94F1068091760290911F
:102E50007702019741F439EB83163BE09306A10416
:102E6000B10408F01CA6C090A702D090A802E09080
:102E7000A902F090AA028091300290913102A091B3
:102E80003202B0913302C816D906EA06FB060CF0EE
:102E900020C10BA101111DC11CA511111AC18091E6
:102EA000000190910101A0910201B09103010197ED
:102EB000A109B1098093000190930101A09302013F
:102EC000B0930301892B8A2B8B2B09F004C20E943B
:102ED000230769AB7AAB8BAB9CABC0926602D092F6
:102EE0006702E0926802F0926902D0909D02DBA234
:102EF000D1100AC18E01035E1F4F1EA30DA310E067
:102F000000E0ADA1BEA18D91BEA3ADA3811135C0DE
:102F10000E942307AB01BC01C9A8DAA8EBA8FCA852
:102F20004C195D096E097F09E1E0F0E0EC0FFD1F2F
:102F3000E00FF11F80819181092E000CAA0BBB0BC1
:102F4000481759076A077B07C0F0E9E0F0E0EC0F8B
:102F5000FD1FE00FF11F80819181019771F461E005
:102F6000E1E1F0E0EC0FFD1FE00FF11F80810E9416
:102F7000A603EDA1FEA1319730820E5F1F4F0830EE
:102F8000110509F0BECF8E010F5F1F4F1EA30DA3C9
:102F9000D12CC12C0E942307ADA1BEA12D913D9142
:102FA000BEA3ADA3AB01BC01E9A8FAA80BA91CA95B
:102FB0004E195F09600B710BC90188519C4F092E96
:102FC000000CAA0BBB0B481759076A077B0730F1A7
:102FD00079E1E72EF12CEC0EFD1EEC0CFD1CD70167
:102FE0008C9181111BC0C601880F991FE9E0F0E0A8
:102FF000EC0FFD1FE80FF91F2081318121303105D1
:1030000069F4E1E1F0E0EC0FFD1F8E0F9F1F60E01F
:10301000DC018C910E94A603F7013082FFEFCF1AEA
:10302000DF0A04E0C016D10409F0B4CFFE0179969E
:10303000DE011996822D9191911107C02D913C913D
:1030400011972130310509F480E01296C9A0DAA069
:10305000EC15FD0581F780939D020E9423070091E6
:10306000A2021091A3022091A4023091A502601B3C
:10307000710B820B930B48EC50E00E94840E2BA244
:1030800043C06B017C011CE0C10ED11CE11CF11C92
:103090000091E4031091E5032091E6033091E703EA
:1030A0000C151D052E053F0530F02CE030E041EBFE
:1030B00054E00E94E6072FEFC21AD20AE20AF20A8F
:1030C000C0920901D0920A01E0920B01F0920C012A
:1030D000B6CEC0923002D0923102E0923202F0922B
:1030E00033028091800290918102092E000CAA0B7C
:1030F000BB0B8093000190930101A0930201B09358
:103100000301CBA0C110F1CEC090A702D090A802BD
:10311000E090A902F090AA028091340290913502C9
:10312000A0913602B0913702C816D906EA06FB060E
:1031300008F0D4C080919D02882309F4CFC00CA16F
:10314000011110C080919C028111CBC00E94230705
:103150002B013C01C0926202D0926302E0926402B1
:10316000F0926502C0909C02CCA2C110BAC07E0150
:103170000DE1E00EF11C10E000E0D7018D917D0122
:10318000811130C00E942307AB01BC0144195509CD
:1031900066097709E1E0F0E0EC0FFD1FE00FF11F99
:1031A00080819181092E000CAA0BBB0B481759078F
:1031B0006A077B07B8F0E9E0F0E0EC0FFD1FE00FD5
:1031C000F11F80819181892B69F461E0E1E1F0E0F8
:1031D000EC0FFD1FE00FF11F80810E94A603F70195
:1031E000319730820E5F1F4F0830110531F68E0186
:1031F0000F5F1F4FD12CC12C0E942307F801219192
:1032000031918F01AB01BC01441955096609770959
:10321000C90188519C4F092E000CAA0BBB0B481703
:1032200059076A077B0728F159E1E52EF12CEC0ECE
:10323000FD1EEC0CFD1CD7018C9181111AC0C6013A
:10324000880F991FE9E0F0E0EC0FFD1FE80FF91F70
:1032500020813181232B69F4E1E1F0E0EC0FFD1FC7
:103260008E0F9F1F60E0DC018C910E94A603F70186
:103270003082FFEFCF1ADF0A24E0C216D10409F032
:10328000BBCFFE017996DE011996822D91919111A5
:1032900006C02D913C911197232B09F480E01296E2
:1032A000C9A0DAA0CE16DF0689F780939C020E949F
:1032B00023070091A2021091A3022091A402309151
:1032C000A502601B710B820B930B48EC50E00E942F
:1032D000840E2CA206C0DCA4DBA216CF1CA1111107
:1032E00041CFDBA4DD2009F4C9C080915F028111C8
:1032F000C5C08E01035E1F4F1EA30DA310E000E0AA
:10330000ADA1BEA18D91BEA3ADA3811135C00E9418
:103310002307AB01BC01CDA8DEA8EFA8F8AC4C197F
:103320005D096E097F09E1E0F0E0EC0FFD1FE00FA1
:10333000F11F80819181092E000CAA0BBB0B48174D
:1033400059076A077B07C0F0E9E0F0E0EC0FFD1FCA
:10335000E00FF11F80819181049771F461E0E1E158
:10336000F0E0EC0FFD1FE00FF11F80810E94A6032B
:10337000EDA1FEA1319730820E5F1F4F083011057D
:1033800009F0BECF8E010F5F1F4F1EA30DA3D12CDE
:10339000C12C0E942307ADA1BEA12D913D91BEA3DA
:1033A000ADA3AB01BC01EDA8FEA80FA918AD4E1945
:1033B0005F09600B710BC90188519C4F092E000CED
:1033C000AA0BBB0B481759076A077B0730F139E195
:1033D000E32EF12CEC0EFD1EEC0CFD1CD7018C91A4
:1033E00081111BC0C601880F991FE9E0F0E0EC0FC6
:1033F000FD1FE80FF91F208131812430310569F468
:10340000E1E1F0E0EC0FFD1F8E0F9F1F60E0DC019B
:103410008C910E94A603F7013082FFEFCF1ADF0ADA
:1034200004E0C016D10409F0B4CFFE017996DE01A4
:103430001996822D9191911107C02D913C91119770
:103440002430310509F480E01296C9A0DAA0EC1509
:10345000FD0581F780935F020E9423070091A2027D
:103460001091A3022091A4023091A502601B710B60
:10347000820B930B48EC50E00E94840E809108016F
:10348000882391F180919C02882391F18091A70279
:103490009091A802A091A902B091AA020A97A10551
:1034A000B1050CF048C080915F02882309F443C045
:1034B000E0915D02F0915E0283E0EE0FFF1F8A95BE
:1034C000E1F7E851FC4F8091090190910A01A09128
:1034D0000B01B0910C010197A109B1098583968375
:1034E000A783B0870E94840880919C0281112FC01D
:1034F00080915F028823A9F021E02093D2010E94ED
:1035000023070091A2021091A3022091A4023091FE
:10351000A502601B710B820B930B48EC50E00E94DC
:10352000840ECDA4DEA4EFA4F8A88DA29EA2AFA223
:10353000B8A6122D2ACA0E942307641975098609A4
:10354000970961327E448105910508F0B1CF8091E1
:10355000A7029091A802A091A902B091AA020A978D
:10356000A105B105DCF480915F028823B9F01092C7
:10357000A6020E9423070091A2021091A3022091AB
:10358000A4023091A502601B710B820B930B48ECD7
:1035900050E00E94840E1092D301AACF0E9423070C
:1035A000641975098609970961327E448105910580
:1035B000F0F69ECFEE960FB6F894DEBF0FBECDBFED
:1035C000DF91CF911F910F91FF90EF90DF90CF90FF
:1035D000BF90AF909F908F907F906F905F904F9033
:1035E0003F902F900895CF92DF92EF92FF920F932A
:1035F0001F93CF93DF93CDB7DEB7CC5AD1090FB667
:10360000F894DEBF0FBECDBF8C010E94360CD801EE
:103610008C918536A9F582E192E00E94E20CE8EEF9
:10362000F3E01182128213821482158216821782AD
:1036300010863896B4E0E03BFB0799F70E948408B7
:1036400010925E0210925D0289EC90E0A0E0B0E082
:103650008093090190930A01A0930B01B0930C0190
:10366000C455DF4F0FB6F894DEBF0FBECDBFDF915C
:10367000CF911F910F91FF90EF90DF90CF90089521
:10368000823799F584E092E00E94E20CF801818192
:103690000E94D10C87E491E00E94360CD80111966B
:1036A0008C911197898312968C918823B9F08A8323
:1036B0001B82CE0101960E94E22797FD11C085E88A
:1036C00091E00E94360CCE0101960E94C4270E9410
:1036D000340D82E991E00E94360CC2CF1A82E9CF04
:1036E00081EF91E00E94E20CBBCF873739F485EE81
:1036F00091E00E94E20C0E94C413B2CF8E3659F4BE
:1037000082ED91E00E94E20C8FEC91E00E9419039F
:103710000E94F00CA5CF8C3629F480EC91E00E9439
:10372000E20CF6CF833679F480915C02811106C0F9
:1037300081E080935C028FEA91E0D4CF10925C022A
:103740008FE991E0CFCF8136B1F486E991E00E9414
:10375000190310E000E00E9416028017910734F070
:10376000C8010E94340D0F5F1F4FF5CF8FE891E025
:103770000E94190375CF823609F02DC286E891E0C8
:103780000E9419031A821982FE01339686E7DF012F
:103790001D928A95E9F78E0107581F4FF801119283
:1037A000119288E0DF011D928A95E9F70E94BE1010
:1037B000811104C081E091E00E9419036DE971E07C
:1037C000CE0101960E94A32C80916B028F93809171
:1037D0006A028F938AE6E82E81E0F82EFF92EF923C
:1037E0001F930F930E94AE2CB801CE0101960E9448
:1037F000A32C80916D028F9380916C028F93FF9226
:10380000EF921F930F930E94AE2CB801CE01019648
:103810000E94A32C80916F028F9380916E028F93F0
:10382000FF92EF921F930F930E94AE2CB801CE012E
:1038300001960E94A32C809171028F938091700257
:103840008F93FF92EF921F930F930E94AE2CB801BB
:10385000CE0101960E94A32C809173028F938091D8
:1038600072028F93FF92EF921F930F930E94AE2CE0
:10387000B801CE0101960E94A32C809177028F930C
:10388000809176028F93FF92EF921F930F930E9485
:10389000AE2C0FB6F894DEBF0FBECDBFB801CE017F
:1038A00001960E94A32C809175028F9380917402DF
:1038B0008F93FF92EF921F930F930E94AE2CB8014B
:1038C000CE0101960E94A32C69EA71E0CE01019617
:1038D0000E94A32C6FE771E0CE0101960E94A32CF9
:1038E0001F9281E08F93FF92EF921F930F930E949C
:1038F000AE2CB801CE0101960E94A32C1F9287E145
:103900008F93FF92EF921F930F930E94AE2CB801FA
:10391000CE0101960E94A32C809179028F93809111
:1039200078028F93FF92EF921F930F930E94AE2C19
:10393000B801CE0101960E94A32C80917B028F9347
:1039400080917A028F93FF92EF921F930F930E94C0
:10395000AE2CB801CE0101960E94A32C80917D026D
:103960008F9380917C028F93FF92EF921F930F931E
:103970000E94AE2C0FB6F894DEBF0FBECDBFB801CB
:10398000CE0101960E94A32C80917F028F9380919B
:103990007E028F93FF92EF921F930F930E94AE2CA3
:1039A000B801CE0101960E94A32C809181028F93D1
:1039B000809180028F93FF92EF921F930F930E944A
:1039C000AE2CB801CE0101960E94A32C80918302F7
:1039D0008F93809182028F93FF92EF921F930F93A8
:1039E0000E94AE2CB801CE0101960E94A32C8091BA
:1039F00085028F93809184028F93FF92EF921F93A1
:103A00000F930E94AE2CB801CE0101960E94A32C08
:103A1000809187028F93809186028F93FF92EF921D
:103A20001F930F930E94AE2CB801CE0101960E9405
:103A3000A32C80918B028F9380918A028F93809127
:103A400089028F93809188028F9385EB91E09F93F9
:103A50008F931F930F930E94AE2C0FB6F894DEBF86
:103A60000FBECDBFB801CE0101960E94A32C80915C
:103A70008D028F9380918C028F93FF92EF921F9310
:103A80000F930E94AE2CB801CE0101960E94A32C88
:103A900080918F028F9380918E028F93FF92EF928D
:103AA0001F930F930E94AE2CB801CE0101960E9485
:103AB000A32C809191028F93809190028F93FF921B
:103AC000EF921F930F930E94AE2CB801CE01019686
:103AD0000E94A32C809193028F93809192028F93E6
:103AE000FF92EF921F930F930E94AE2CB801CE016C
:103AF00001960E94A32C809195028F93809194024D
:103B00008F93FF92EF921F930F930E94AE2CB801F8
:103B1000CE0101960E94A32C809197028F938091F1
:103B200096028F93FF92EF921F930F930E94AE2CF9
:103B30000FB6F894DEBF0FBECDBFB801CE0101961F
:103B40000E94A32C809199028F93809198028F9369
:103B5000FF92EF921F930F930E94AE2CB801CE01FB
:103B600001960E94A32CCE0101967C010F900F902C
:103B70000F900F900F900F9090E080E0D7012D9163
:103B80007D01820F911D27FD9A95A017B107B1F70E
:103B900099279F938F938AEB91E09F938F93FF9246
:103BA000AF930E94AE2CB701CE0101960E94A32CC8
:103BB00081E791E00E94290CCE0101960E94290C18
:103BC0008FE791E00E9419030F900F900F900F90D4
:103BD0000F900F9045CD833709F03AC1C555DF4F9F
:103BE00019830883CB5AD0401A821982FE0133967A
:103BF00082E6DF011D928A95E9F7D12CC12CF12CC8
:103C0000E12CAE0145555F4F6FE771E0C555DF4FC1
:103C100088819981CB5AD0400E9409288C01009755
:103C200009F4D3C0F7013197E831F10508F027C056
:103C3000E45EF14E0C947B2C341E431E4A1E511E32
:103C4000581E5F1E661E6D1E741E7B1E821E891E00
:103C5000901E971E9E1EA51EB01EB71EBE1EC51E20
:103C6000CC1ED31EDA1EE11E0E94C42790936B0265
:103C700080936A02B801CE0101960E94A32CBFEF87
:103C8000EB1AFB0ABECF0E94C42790936D0280936B
:103C90006C02F0CF0E94C42790936F0280936E0253
:103CA000E9CF0E94C4279093710280937002E2CF03
:103CB0000E94C4279093730280937202DBCF0E940C
:103CC000C4279093750280937402D4CF0E94C427B6
:103CD0009093770280937602CDCF0E94E227709373
:103CE000790260937802C6CF0E94E22770937B022C
:103CF00060937A02BFCF0E94E22770937D026093A7
:103D00007C02B8CF0E94C42790937F0280937E02EA
:103D1000B1CF0E94C4279093810280938002AACFE2
:103D20000E94E2277093830260938202A3CF0E94D5
:103D3000C42790938502809384029CCF0E94C4275D
:103D4000909387028093860295CF0E94E22760932A
:103D500088027093890280938A0290938B028ACFA3
:103D60000E94C42790938D0280938C0283CF0E947F
:103D7000C42790938F0280938E027CCF0E94C42729
:103D8000909391028093900275CF0E94C4279093E4
:103D90009302809392026ECF0E94E2277093950265
:103DA0006093940267CF0E94C427909397028093F8
:103DB000960260CF0E94C427909399028093980244
:103DC00059CF0E94C4276C015ACFE7E1EE16F104E7
:103DD0001CF483E791E0CCCCFE0131969E012B5977
:103DE0003F4F90E080E04191840F911D47FD9A95EF
:103DF000E217F307C1F78C151D0459F782E3EAE6D1
:103E0000F2E0DE01A758BF4F01900D928A95E1F7CD
:103E1000FE01E758FF4FAF01405D5F4F90E080E04B
:103E20004E175F0731F02191820F911D27FD9A9562
:103E3000F7CF90939B0280939A020E94A71089E784
:103E400091E00E9419030E94BE100E94230A08CC30
:103E5000843629F40E94A0080E94A710F6CF843768
:103E600049F40E94A0080E94A7100E94230A83E63A
:103E700091E07ECC863631F481E08093AF028DE50F
:103E800091E076CC873629F41092AF0287E591E075
:103E90006FCC883619F481E591E06ACC893609F453
:103EA000DFCB8B3661F511968C9189831A82CE0116
:103EB00001960E94E22797FDD3CBFF24F394F801EB
:103EC0008281863409F4F12CCE0101960E94C42728
:103ED0008230910561F08330910569F0019709F016
:103EE000BFCB6F2D89E090E00E94F509B9CB6F2D13
:103EF0008CE090E0F9CF6F2D81E190E0F5CF89372C
:103F0000A9F411968C91813351F48EE391E00E94D3
:103F1000190381E08093D30184E291E029CC8AE205
:103F200091E00E9419031092D301F6CF8D3619F457
:103F30008EE191E01DCC803219F488E191E018CC3B
:103F40008EE091E00E941903F80180810E94D10C5B
:103F500087CB1F920F920FB60F9211242F933F938E
:103F60004F935F936F937F938F939F93AF93BF9381
:103F7000EF93FF938091B9029091BA02A091BB0296
:103F8000B091BC02892B8A2B8B2BD1F19091B4027A
:103F9000E091B502F091B6028081892780838091FB
:103FA000B9029091BA02A091BB02B091BC0218165E
:103FB00019061A061B069CF48091B9029091BA0268
:103FC000A091BB02B091BC020197A109B1098093F5
:103FD000B9029093BA02A093BB02B093BC02FF91C6
:103FE000EF91BF91AF919F918F917F916F915F9171
:103FF0004F913F912F910F900FBE0F901F901895EA
:10400000809111010E940604EACF1F920F920FB611
:104010000F9211242F933F934F935F936F937F934E
:104020008F939F93AF93BF93EF93FF9382E393E0BC
:104030000E94AA02FF91EF91BF91AF919F918F9142
:104040007F916F915F914F913F912F910F900FBE94
:104050000F901F9018951F920F920FB60F92112478
:104060002F938F939F93EF93FF93E0914203F091EF
:1040700043038081E0914803F091490382FD1BC016
:10408000908180914B038F5F8F7320914C03821737
:1040900041F0E0914B03F0E0EE5CFC4F958F809394
:1040A0004B03FF91EF919F918F912F910F900FBE36
:1040B0000F901F9018958081F4CF1F920F920FB62A
:1040C0000F9211242F933F938F939F93AF93BF939E
:1040D0008091180290911902A0911A02B0911B02CE
:1040E0003091170223E0230F2D3758F50196A11DBB
:1040F000B11D209317028093180290931902A09388
:104100001A02B0931B0280911C0290911D02A09193
:104110001E02B0911F020196A11DB11D80931C02C9
:1041200090931D02A0931E02B0931F02BF91AF9106
:104130009F918F913F912F910F900FBE0F901F90E5
:10414000189526E8230F0296A11DB11DD2CF1F920C
:104150000F920FB60F9211242F933F934F935F93BB
:104160006F937F938F939F93AF93BF93EF93FF933F
:104170008091B900887F803609F44AC0F0F5883212
:1041800009F4A7C018F5803109F49BC0B8F488235E
:1041900009F4F9C0883009F494C0FF91EF91BF9100
:1041A000AF919F918F917F916F915F914F913F91CF
:1041B0002F910F900FBE0F901F901895883109F422
:1041C00088C0803251F780930B0314C0803409F407
:1041D0009DC040F48033B9F38833F9F680930B0324
:1041E00085ECB0C0803509F485C0883509F496C0E7
:1041F000883499F60E942F07D0CF883909F48CC0F3
:1042000038F5883729F050F4883611F0803729F6D0
:1042100083E080930D031092160257C0883809F48A
:104220007BC0803919F0803809F0B7CF8091160231
:10423000803208F071C0E091160281E08E0F809309
:1042400016028091BB00F0E0EA50FE4F80833DC033
:10425000803B39F0E0F4803A09F479C0883A09F0FB
:104260009CCF84E080930D031092F5011092F4012D
:10427000E091B202F091B30209958091F4018111AD
:104280000FC081E08093F4011092D40109C0803CFA
:1042900009F4A6CF883C09F4A3CF883B09F07DCF71
:1042A000E091F50181E08E0F8093F501F0E0EC5292
:1042B000FE4F80818093BB009091F5018091F401C5
:1042C00029C08091E8028093BB0085EC8093BC00FC
:1042D00064CF90910A0380910903981758F5E091F3
:1042E0000A0381E08E0F80930A03F0E0E751FD4F4F
:1042F0008081E9CFE0910A0381E08E0F80930A0369
:104300008091BB00F0E0E751FD4F808390910A035C
:10431000809109039817C8F285E8D8CFE0910A0385
:1043200081E08E0F80930A038091BB00F0E0E7519B
:10433000FD4F808380910C0381115CCF81E08093DD
:10434000E70284EA8093BC0010920D0326CF85EC2F
:104350008093BC0010920D0380911602803230F4DD
:10436000E0911602F0E0EA50FE4F108260911602D2
:1043700070E0E091B002F091B10286EF91E0099512
:10438000109216020ACF10920B0334CFE2E3F3E04F
:104390001382128288EE93E0A0E0B0E084839583DC
:1043A000A683B78326E231E03183208325EC30E019
:1043B0003587248724EC30E03787268720EC30E0EF
:1043C000318B208B21EC30E0338B228B22EC30E0E0
:1043D000358B248B26EC30E0378B268B118E128E9A
:1043E000138E148EEFECF3E0138212828483958394
:1043F000A683B78388E391E091838083EBEDF3E0BC
:1044000080E092E09283818381E0838380E490E086
:104410009583848380E5808380E090E0A1E0B0E034
:1044200081879287A387B48782E090E09087878313
:1044300080E186830895CF93DF93CDB7DEB7C4566E
:10444000D1090FB6F894DEBF0FBECDBF789484B506
:10445000826084BD84B5816084BD85B5826085BD80
:1044600085B5816085BD80916E00816080936E000E
:104470001092810080918100826080938100809100
:1044800081008160809381008091800081608093B1
:1044900080008091B10084608093B1008091B00071
:1044A00081608093B00080917A00846080937A006C
:1044B00080917A00826080937A0080917A00816096
:1044C00080937A0080917A00806880937A001092BD
:1044D000C1000E94BE10182F811104C00E94A008C4
:1044E0000E94A7108091880290918902A0918A026F
:1044F000B0918B028C3221E09207A105B10509F43D
:1045000052C0803B24E09207A105B10509F44BC0DD
:10451000803629E09207A105B10509F444C0803C2A
:1045200022E19207A105B105F1F1803825E2920759
:10453000A105B105C1F1803428E39207A105B105B9
:1045400091F181152BE49207A105B10561F1803845
:1045500020E79207A105B10531F1811526E99207FF
:10456000A105B10501F1811521EE9207A105B10563
:10457000D1F0811522EC920721E0A207B10599F054
:1045800081159448A340B10571F080E096E9A0E060
:10459000B0E08093880290938902A0938A02B0933E
:1045A0008B020E94A7100E94230A82ED90E0A0E8EF
:1045B000B0E480932C0290932D02A0932E02B0932E
:1045C0002F028CE69FECACE4BEE38093280290932C
:1045D0002902A0932A02B0932B0210922402109277
:1045E00025021092260210922702109220021092A9
:1045F000210210922202109223020E94D403C09042
:104600008802D0908902E0908A02F0908B0260E0EC
:1046100079E08DE390E0A70196010E943A2C2150A9
:104620003109410951095695479537952795E091EC
:104630004203F091430382E08083C11481EED806E7
:10464000E104F10421F0211590E13907A8F0E0918F
:104650004203F0914303108260E874E88EE190E039
:10466000A70196010E943A2C2150310941095109B4
:104670005695479537952795E0913E03F0913F0376
:104680003083E0914003F0914103208310924A036C
:10469000E0914603F091470386E08083E091440374
:1046A000F0914503808180618083E0914403F09123
:1046B0004503808188608083E0914403F091450345
:1046C000808180688083E0914403F091450380817C
:1046D0008F7D808362E080E00E94320480918C02B2
:1046E000843008F083E08093BE040E94D40380ED00
:1046F0000E94C70A853509F04DC08AEA0E94E40A83
:104700009093C0048093BF048CEA0E94E40A9093C3
:10471000C2048093C1048EEA0E94E40A9093C40408
:104720008093C30480EB0E94E40A9093D0048093AA
:10473000CF0482EB0E94E40A9093D2048093D104C8
:1047400084EB0E94E40A9093D4048093D30486EB14
:104750000E94E40A9093C6048093C50488EB0E94EB
:10476000E40A9093C8048093C7048AEB0E94E40A89
:104770009093CA048093C9048CEB0E94E40A90933E
:10478000CC048093CB048EEB0E94E40A9093CE0479
:104790008093CD0481E492E00E94190361E089E0F6
:1047A0000E94320461E08CE00E94320461E081E109
:1047B0000E94320461E08DE00E94320460E088E0F3
:1047C0000E94320460E087E00E94320460E08BE0E7
:1047D0000E94320460E08AE00E94320460E080E1DE
:1047E0000E94320460E089E00E94A60360E08CE051
:1047F0000E94A60360E081E10E94A60360E08DE0D4
:104800000E94A6038091900290919102019709F075
:1048100018C281E080935C020E944209B7E1EB2E4E
:10482000F12C0E947409A1E0EA1AF108D1F71111E4
:1048300025C084E690E0A0E0B0E08093340290933D
:104840003502A0933602B093370288E00E947D03C0
:104850008C0187E00E947D030115110509F0F4C168
:10486000892B61F482E390E0A0E0B0E08093340211
:1048700090933502A0933602B093370202E310E022
:104880000E94661101501109D9F70AE010E0C12C0D
:10489000D12C76010E9466114B015C01C701B60163
:1048A0000E94AC29A50194010E9496280E947429B7
:1048B0006B017C0162E370E080E090E00E94F10611
:1048C0000150110939F7C701B6010E94AC2920E057
:1048D00030E040E251E40E9402290E947429609372
:1048E000AB027093AC028093AD029093AE02109233
:1048F00030021092310210923202109233028091F3
:10490000960290919702092E000CAA0BBB0B809384
:104910009E0290939F02A093A002B093A1020E94D6
:104920008C0B0E94160297FF9BC110925E021092A0
:104930005D0289EC90E0A0E0B0E0809309019093E3
:104940000A01A0930B01B0930C010E941602AC0166
:10495000092E000C660B770B4F3FBFEF5B076B0711
:104960007B07C1F0483151056105710509F496C115
:10497000E3E0880F991FEA95E1F7FC01E851FC4F4D
:1049800085819681A781B0858D3D9F4FA105B10599
:104990000CF084C181E08093080110E000E070E237
:1049A000F72E22242A94322C6CED462E65E0562EEA
:1049B000612C712C8BE3F81609F4CDC28091AF0203
:1049C0008111A3C20E9466114B015C016091AB0290
:1049D0007091AC028091AD029091AE020E94AC2920
:1049E0009B01AC01C501B4010E9495280E94742965
:1049F0006093A7027093A8028093A9029093AA02E1
:104A00008091A602882391F00E9423078090A20241
:104A10009090A302A090A402B090A5026819790911
:104A20008A099B0948EC50E00E94840E4091A7023D
:104A30005091A8026091A9027091AA0280919E02F1
:104A400090919F02A091A002B091A10284179507B6
:104A5000A607B7070CF4C7C180915C02811132C16F
:104A600080919D0281112EC10E94230780905802DF
:104A700090905902A0905A02B0905B02681979098F
:104A80008A099B098090540290905502A09056028A
:104A9000B090570286169706A806B90608F04BC0D4
:104AA0008091060190910701019609F00FC12091B4
:104AB000520230915302F901EE0FFF1FE65BFD4FEA
:104AC000808191812F5F3F4F309353022093520298
:104AD00040910401509105014217530724F41092AC
:104AE00053021092520290930701809306018F3F68
:104AF000980709F4E7C00E947D03892B09F0D5C00F
:104B000040924602509247026092480270924902D7
:104B100040E050E0BA0180914402909145020E9429
:104B20006E040E94230760934002709341028093B9
:104B300042029093430244EF51E060E070E0CB0109
:104B40000E94840E0E9423074B015C0180919D020C
:104B5000882309F4DAC1E0909C02EE2009F4D5C163
:104B600082E393E00E948A02892BA9F082E393E01A
:104B70000E946802F82E9BE3F91609F437C1AAE0F7
:104B8000FA1649F0E1E0F0E0EC0FFD1FE00FF11F35
:104B9000F0820F5F1F4F0E942307681979098A0965
:104BA0009B09613177428105910580F20E94550988
:104BB000609166027091670280916802909169022B
:104BC00080900D0190900E01A0900F01B090100107
:104BD00020916C0230916D02232B09F080C10E945C
:104BE000AC29A50194010E94382A0E9474290E94D0
:104BF00087090E9455096091620270916302809159
:104C000064029091650280900D0190900E01A09039
:104C10000F01B090100120916C0230916D02232B96
:104C200009F068C10E94AC29A50194010E94382AAC
:104C30000E9474290E9487090E9423074B015C018E
:104C4000AACF10925C02E8CD0130110509F016CE12
:104C5000009709F091C186E990E0A0E0B0E006CEAF
:104C6000FC01A3E0EE0FFF1FAA95E1F7E851FC4F0E
:104C700045815681678170854F5F5F4F6F4F7F4FD2
:104C80004093090150930A0160930B0170930C014A
:104C9000019690935E0280935D0257CE10920801B8
:104CA0008FEB91E00E94360C78CE8CE291E0A0E090
:104CB000B0E08093460290934702A0934802B093DD
:104CC000490226CF8DE00E94060435CF0E942307BB
:104CD0008090460290904702A0904802B09049020E
:104CE0002091400230914102409142025091430292
:104CF000621B730B840B950B86169706A806B906E4
:104D000038F5181419041A041B0414F58DE00E94D8
:104D10000604109246021092470210924802109226
:104D2000490284EF91E0A0E0B0E080933C029093D0
:104D30003D02A0933E02B0933F020E94230760937E
:104D400038027093390280933A0290933B02F3CE7B
:104D50000E94230780903C0290903D02A0903E026A
:104D6000B0903F02209138023091390240913A02CE
:104D700050913B02621B730B840B950B86169706B2
:104D8000A806B90608F0D7CE181419041A041B0493
:104D90000CF0D1CE30920701209206018091520290
:104DA00090915302892BB1F480E197E2A0E0B0E04A
:104DB0008093540290935502A0935602B0935702E9
:104DC0000E942307609358027093590280935A02FD
:104DD00090935B0210923C0210923D0210923E02B0
:104DE00010923F02A8CE0E94C413ACCE6801BFEF60
:104DF000CB1ADB0AE1E0F0E0EC0FFD1FE00FF11F42
:104E0000108210929D0210929C02109261021092E8
:104E1000600210925F021092A6020E948C0B0E9408
:104E2000160297FF3EC010925E0210925D0289EC5E
:104E300090E0A0E0B0E08093090190930A01A09374
:104E40000B01B0930C010E941602AC01092E000C5C
:104E5000660B770B4F3FAFEF5A076A077A07C9F027
:104E6000483151056105710599F023E0880F991FBC
:104E70002A95E1F7FC01E851FC4FEE24E39485818B
:104E80009681A781B0858D3D9F4FA105B1050CF09E
:104E9000E12CE0920801CE0101960E94F31A8601EE
:104EA0007ACEFC0133E0EE0FFF1F3A95E1F7E851AF
:104EB000FC4F45815681678170854F5F5F4F6F4F13
:104EC0007F4F4093090150930A0160930B01709347
:104ED0000C01019690935E0280935D02B4CF0E9414
:104EE000AC29A50194010E94382A0E9474290E94CD
:104EF0000E117FCE0E94AC29A50194010E94382A90
:104F00000E9474290E940E1197CE82E393E00E94C2
:104F10008A02892B09F44ECD82E393E00E94680255
:104F2000F82EBBE38B1769F02AE0821771F3E1E0FA
:104F3000F0E0EC0FFD1FE00FF11F80830F5F1F4FAC
:104F4000E4CFE1E0F0E0EC0FFD1FE00FF11F108275
:104F50000F5F1F4F26CDCE0101960E94F31A80E00D
:104F600090E0892B09F419CD0E949602882309F458
:104F700014CD0E94000011CD019709F07FCC88EC80
:104F800090E0A0E0B0E072CCFC0188279927E8947B
:104F900021912032E9F3293010F02E30C8F32B3262
:104FA00041F02D3239F4689404C00E944528820FE4
:104FB000911D219120532A30C0F31EF490958195C4
:104FC0009F4F08951F93FC0199278827BC01E894FF
:104FD00011911032E9F3193010F01E30C8F31B3272
:104FE00051F01D3249F4689406C00E943028610FC8
:104FF000711D811D911D119110531A30B0F33EF4B3
:1050000090958095709561957F4F8F4F9F4F1F9121
:105010000895FA01A191B081009719F41097E1F079
:10502000CD01DC01CD010D90002011F4C00113C0B1
:10503000FB012191222319F02015D9F7F3CFFB01B1
:105040002191201519F41E92119606C02223C1F752
:105050000D900020A1F7D001FA01A193B08308952B
:10506000592F482F372F262F660F771F881F991F1C
:10507000660F771F881F991F620F731F841F951F6C
:10508000660F771F881F991F08957AE0979F902DCC
:10509000879F802D910D11240895BB27FA01A62F1B
:1050A0006217710581059105330B30FB66F0AA2765
:1050B000660F771F881F991FAA1FA21710F0A21B47
:1050C00063953850A9F7A05DAA3308F0A95DA193B4
:1050D00036F7B111B1931082CA010C946F28DC012C
:1050E000FC01672F71917723E1F7329704C07C911F
:1050F0006D9370836291AE17BF07C8F30895F99955
:10510000FECF92BD81BDF89A992780B50895262FCC
:10511000F999FECF1FBA92BD81BD20BD0FB6F8949C
:10512000FA9AF99A0FBE019608955058BB27AA27FC
:105130000E94AD280C94FE290E94F02938F00E94AC
:10514000F72920F039F49F3F19F426F40C94ED2947
:105150000EF4E095E7FB0C94E729E92F0E940F2A53
:1051600058F3BA17620773078407950720F079F49C
:10517000A6F50C94312A0EF4E0950B2EBA2FA02D33
:105180000B01B90190010C01CA01A0011124FF27F4
:10519000591B99F0593F50F4503E68F11A16F040EF
:1051A000A22F232F342F4427585FF3CF46953795EE
:1051B0002795A795F0405395C9F77EF41F16BA0BB3
:1051C000620B730B840BBAF09150A1F0FF0FBB1F61
:1051D000661F771F881FC2F70EC0BA0F621F731FAA
:1051E000841F48F4879577956795B795F7959E3F07
:1051F00008F0B0CF9395880F08F09927EE0F979598
:10520000879508950E9416290C94FE290E94F7297B
:1052100058F00E94F02940F029F45F3F29F00C94E7
:10522000E72951110C94322A0C94ED290E940F2A7F
:1052300068F39923B1F3552391F3951B550BBB27C5
:10524000AA2762177307840738F09F5F5F4F220F0A
:10525000331F441FAA1FA9F335D00E2E3AF0E0E801
:1052600032D091505040E695001CCAF72BD0FE2F4B
:1052700029D0660F771F881FBB1F261737074807DF
:10528000AB07B0E809F0BB0B802DBF01FF27935897
:105290005F4F3AF09E3F510578F00C94E7290C944B
:1052A000322A5F3FE4F3983ED4F38695779567956D
:1052B000B795F7959F5FC9F7880F911D96958795CC
:1052C00097F90895E1E0660F771F881FBB1F6217EB
:1052D00073078407BA0720F0621B730B840BBA0BA9
:1052E000EE1F88F7E09508950E947B296894B1111C
:1052F0000C94322A08950E94172A88F09F5798F03C
:10530000B92F9927B751B0F0E1F0660F771F881FCA
:10531000991F1AF0BA95C9F714C0B13091F00E94E4
:10532000312AB1E008950C94312A672F782F88270D
:10533000B85F39F0B93FCCF3869577956795B3950B
:10534000D9F73EF490958095709561957F4F8F4F7A
:105350009F4F0895E89409C097FB3EF4909580957F
:10536000709561957F4F8F4F9F4F9923A9F0F92F2B
:1053700096E9BB279395F695879577956795B795A9
:10538000F111F8CFFAF4BB0F11F460FF1BC06F5F8F
:105390007F4F8F4F9F4F16C0882311F096E911C0A1
:1053A000772321F09EE8872F762F05C0662371F0C2
:1053B00096E8862F70E060E02AF09A95660F771FD6
:1053C000881FDAF7880F9695879597F9089597F9CA
:1053D0009F6780E870E060E008959FEF80EC08959B
:1053E00000240A94161617061806090608950024C4
:1053F0000A9412161306140605060895092E03943E
:10540000000C11F4882352F0BB0F40F4BF2B11F4B1
:1054100060FF04C06F5F7F4F8F4F9F4F089557FD10
:105420009058440F551F59F05F3F71F04795880F12
:1054300097FB991F61F09F3F79F0879508951216A9
:1054400013061406551FF2CF4695F1DF08C0161655
:1054500017061806991FF1CF869571056105089406
:105460000895E894BB2766277727CB0197F908951D
:105470000E944B2A0C94FE290E94F02938F00E94C9
:10548000F72920F0952311F00C94E7290C94ED29CD
:1054900011240C94322A0E940F2A70F3959FC1F3B5
:1054A000950F50E0551F629FF001729FBB27F00DD2
:1054B000B11D639FAA27F00DB11DAA1F649F662727
:1054C000B00DA11D661F829F2227B00DA11D621F76
:1054D000739FB00DA11D621F839FA00D611D221F30
:1054E000749F3327A00D611D231F849F600D211D14
:1054F000822F762F6A2F11249F5750409AF0F1F097
:1055000088234AF0EE0FFF1FBB1F661F771F881FFF
:1055100091505040A9F79E3F510580F00C94E72927
:105520000C94322A5F3FE4F3983ED4F38695779546
:105530006795B795F795E7959F5FC1F7FE2B880FA5
:10554000911D9695879597F90895FA01EE0FFF1F23
:10555000309621053105A1F16115710561F480389E
:10556000BFE39B0749F168949038810561F080386A
:10557000BFEF9B0741F099234AF5FF3FE105310555
:10558000210519F1E8940894E795D901AA2329F493
:10559000AB2FBE2FF85FD0F310C0FF5F70F4A6955D
:1055A000E0F7F73950F019F0FF3A38F49F779F93FE
:1055B0000DD00F9007FC9058089546F00C94ED29FB
:1055C00060E070E080E89FE308954FE79F775F9386
:1055D0004F933F932F930E94A02B2F913F914F9178
:1055E0005F910E94382A0C94FD2A29F416F00C943D
:1055F000E7290C94312A0C94ED290E94172AA8F36C
:105600009638A0F707F80F92E8942BE33AEA48EBB4
:105610005FE70E944E2A0F920F920F924DB75EB72E
:105620000F920E94E82BE8E6F0E00E942F2B4F91AA
:105630005F91EF91FF91E595EE1FFF1F49F0FE5737
:10564000E0684427EE0F441FFA95E1F74195550BAA
:105650000E94622B0F9007FE0C94562B0895DF9347
:10566000CF931F930F93FF92EF92DF927B018C01F8
:10567000689406C0DA2EEF010E944B2AFE01E894DE
:10568000A5912591359145915591A6F3EF010E9481
:10569000AD28FE019701A801DA9469F7DF90EF9039
:1056A000FF900F911F91CF91DF9108959B01AC0165
:1056B00060E070E080E89FE30C9402290C94E729F5
:1056C0000C941C2C0E94172AD8F39923C9F3940F29
:1056D000511DA3F39150504094F059F0882332F0BB
:1056E000660F771F881F91505040C1F79E3F5105AC
:1056F0002CF7880F911D9695879597F908955F3F30
:10570000ACF0983E9CF0BB27869577956795B7954A
:1057100008F4B1609395C1F7BB0F58F711F460FF1F
:10572000E8CF6F5F7F4F8F4F9F4FE3CF0C94322AAC
:1057300016F00C941C2C0C94ED2968940C94E72919
:105740000E94172AA8F39923C1F3AEF3DF93CF93F6
:105750001F930F93FF92C92FDD2788232AF02197EB
:10576000660F771F881FDAF720E030E040E85FEB34
:105770009FE3883920F0803E38F021968F770E9491
:105780009628E0E9F0E004C00E949628EDEBF0E0F6
:105790000E942F2B8B01BE01EC01FB2E6F5771096C
:1057A0007595771F880B990B0E94AC2928E132E789
:1057B00041E35FE30E944B2AAF2D9801AE01FF90B9
:1057C0000F911F91CF91DF910E94AD280C94FE297B
:1057D000FA01DC01AA0FBB1F9B01AC01BF5728F4E3
:1057E000222733274427507820C0B75190F4AB2F9D
:1057F0000024469537952795011CA395D2F30020E8
:1058000071F0220F331F441FB395DAF30ED00C94BE
:10581000952861307105A0E88A07B94630F49B01EC
:10582000AC016627772788279078309621F020836F
:1058300031834283538308959F3F31F0915020F488
:10584000879577956795B795880F911D969587955C
:1058500097F90895DB018F939F930E94812CBF914C
:10586000AF91A29F800D911DA39F900DB29F900DAF
:1058700011240895A1E21A2EAA1BBB1BFD010DC025
:10588000AA1FBB1FEE1FFF1FA217B307E407F507F0
:1058900020F0A21BB30BE40BF50B661F771F881FCC
:1058A000991F1A9469F760957095809590959B0162
:1058B000AC01BD01CF010895052E97FB1EF40094A5
:1058C0000E94732C57FD07D00E943A2C07FC03D08E
:1058D0004EF40C94732C50954095309521953F4F84
:1058E0004F4F5F4F089590958095709561957F4FCC
:1058F0008F4F9F4F0895EE0FFF1F0590F491E02DFD
:1059000009940E94942CA59F900DB49F900DA49F84
:10591000800D911D11240895B7FF0C94812C0E94D5
:10592000812C821B930B0895A29FB001B39FC001ED
:10593000A39F700D811D1124911DB29F700D811DBB
:105940001124911D0895FB01DC010D900020E9F761
:10595000119701900D920020E1F70895AEE0B0E0BC
:10596000E4EBFCE20C945D2F0D891E8986E08C83AC
:105970001A8309838FEF9FE79E838D83AE01475E75
:105980005F4F6F89788DCE0101960E94D12C2F81B7
:105990003885020F131FF80110822E96E4E00C9454
:1059A000792FABE0B0E0E7EDFCE20C944F2F7C01E7
:1059B0003B018A01FC0117821682838181FFC8C1E5
:1059C000CE0101965C01F7019381F30193FD85916E
:1059D00093FF81913F01882309F453C1853239F443
:1059E00093FD859193FF81913F01853229F4B701A1
:1059F00090E00E94C12EE7CF912C212C312CFFE1A9
:105A0000F31538F08B3211F190F4803209F18332C2
:105A100029F137FC3CC020ED280F2A3050F536FE26
:105A200020C08AE0989E200D1124922E06C08D324F
:105A300091F0803371F7689430F8F30193FD85910C
:105A400093FF81913F018111DACF21C0689431F831
:105A5000689432F8F2CF689433F8EFCF689434F852
:105A6000ECCFEAE02E9E200D1124222E689435F80A
:105A7000E4CF8E3229F436FC04C1689436F8DDCFC9
:105A80008C3619F4689437F8D8CF8836B1F2982F4D
:105A90009F7D95549330E0F08336A1F18337C1F1B7
:105AA000833509F063C02801F2E04F0E511CF80164
:105AB000C080D180692D70E036FC02C06FEF7FEFAF
:105AC000C6010E94AB2E4C01689437F882010AC0CF
:105AD0000C5F1F4FFFE3F98388248394912C6501A9
