:100000000C9437010C945F010C945F010C945F0118
:100010000C945F010C945F010C945F010C941E2002
:100020000C945F010C945F010C945F010C945F01D0
:100030000C945F010C945F010C945F010C945F01C0
:100040000C94D2200C945F010C94A0200C947A2084
:100050000C945F010C945F010C945F010C945F01A0
:100060000C941C210C945F0107634236B79BD8A700
:100070001A39685618AEBAAB558C1D3CB7CC5763CD
:10008000BD6DEDFD753EF6177231BF000000803F7B
:1000900008000000BE922449123EABAAAA2ABECD97
:1000A000CCCC4C3E00000080BEABAAAAAA3E000009
:1000B0000000BF000000803F000000000008417801
:1000C000D3BB4387D1133D190E3CC3BD4282AD2B38
:1000D0003E68EC8276BED98FE1A93E4C80EFFFBE30
:1000E00001C4FF7F3F0000000000696E76616C690B
:1000F0006420636F6E660024554E4B4E4F574E3B47
:1001000000244B303B0A00244F4B3B0A00244F4B4A
:100110003B0A0054656C656D65747279206469737F
:1001200061626C65640A0054656C656D6574727912
:1001300020656E61626C65640A00244F4B3B0A00C7
:10014000244F4B3B0A00244F4B3B0A00636F6E6603
:10015000696720726573657465640A00244B4F3BC0
:100160000A00244F4B3B0A0024656E643B0A0024BE
:1001700073746172743B0A0024656E643B0A002448
:1001800073746172743B0A00436F6E74696E7569B3
:100190007479206F6E200A00436F6E74696E756902
:1001A0007479206F6666200A00466C69676874205F
:1001B0004C6973743A200A006E3B004E756D62659F
:1001C00072206F6620666C69676874200A00526549
:1001D000636F7264696E67200A006E6F742061201D
:1001E00076616C696420666C696768740052656149
:1001F0006420666C696768743A20004572617365B3
:100200000A0000000000240027002A00000000006F
:10021000230026002900000000080002010000035E
:100220000407000000000000000053746172742095
:1002300070726F6772616D0A00010204081020403D
:1002400080010204081020010204081020000000B0
:1002500000250028002B0004040404040404040204
:100260000202020202030303030303023B221124DE
:100270001FBECFEFD8E0DEBFCDBF11E0A0E0B1E000
:10028000E4E0F0E602C005900D92AE3DB107D9F76B
:1002900025E0AEEDB1E001C01D92AF30B207E1F74D
:1002A00011E0C7E3D1E004C02197FE010E94F52CC4
:1002B000C633D107C9F70E9490220C9400300C94E9
:1002C000000091E090936B0380936A03109269039E
:1002D0001092680308952091680381E0213208F0AC
:1002E00044C0809147038111FCCF80916A0392E062
:1002F0009093470391E0909346039FEF90934503BB
:100300001092440320934303A8E4B3E0E3E2F3E054
:1003100090E0291331C01092220390912203880F9C
:10032000892B8093220380912103813049F510921B
:100330002103809122038093BB008091BC0083FD48
:10034000F8CF85EC8093BC00809147038230E1F3C5
:10035000809145038F3FB1F0809145038032A1F039
:1003600080914503803391F084E0109269031092EC
:10037000680310926B0308953D9131939F5FC9CF3D
:1003800085EEE0CF80E0F1CF82E0EFCF83E0EDCFEC
:10039000909147039111FCCF91E090934703909384
:1003A00046032FEF2093450310924403260F20931A
:1003B00043039093220390912203880F892B80930B
:1003C0002203809121038130F9F41092210380915E
:1003D00022038093BB008091BC0083FDF8CF85ECA5
:1003E0008093BC00809147038130E1F38091440306
:1003F000861710F460914403A3E2B3E0E1E0F3E078
:1004000080E0861303C0089585EEEACF9D91919315
:100410008F5FF7CFE2E2F4E090E080E0418152812B
:1004200063817481452B462B472B29F00196389622
:100430008931910599F701970895089508958930B4
:10044000910521F481E08093E90208958D309105B2
:1004500021F481E08093E8020895419719F481E046
:100460008093E7020895AF92BF92CF92DF92EF920E
:10047000FF920F931F93CF93DF936C017B018B014E
:10048000040F151FEB015E01AE18BF08C017D1079E
:1004900059F06991D601ED91FC910190F081E02D28
:1004A000C6010995892B79F7C501DF91CF911F917D
:1004B0000F91FF90EF90DF90CF90BF90AF90089595
:1004C000FC01538D448D252F30E0842F90E0821B5A
:1004D000930B541710F0CF96089501970895FC01DF
:1004E000918D828D981761F0A28DAE0FBF2FB11D37
:1004F0005D968C91928D9F5F9F73928F90E008958F
:100500008FEF9FEF0895FC01918D828D981731F048
:10051000828DE80FF11D858D90E008958FEF9FEF9C
:100520000895FC01918D228D892F90E0805C9F4F72
:10053000821B91098F73992708958CE693E00E949E
:10054000910221E0892B09F420E0822F089580E0B8
:1005500090E0892B29F00E949D0281110C940000EB
:100560000895FC01A48DA80FB92FB11DA35ABF4F48
:100570002C91848D90E001968F739927848FA689A2
:10058000B7892C93A089B1898C91837080648C93F6
:10059000938D848D981306C00288F389E02D8081A5
:1005A0008F7D80830895EF92FF920F931F93CF93D7
:1005B000DF93EC0181E0888F9B8D8C8D98131AC09E
:1005C000E889F989808185FF15C09FB7F894EE8985
:1005D000FF896083E889F9898081837080648083E2
:1005E0009FBF81E090E0DF91CF911F910F91FF902D
:1005F000EF900895F62E0B8D10E00F5F1F4F0F73D5
:100600001127E02E8C8D8E110CC00FB607FCFACF8F
:10061000E889F989808185FFF5CFCE010E94B1027A
:10062000F1CFEB8DEC0FFD2FF11DE35AFF4FF08260
:100630009FB7F8940B8FEA89FB8980818062CFCFC6
:100640000F931F93CF93DF938C01D0E0C0E0F801AC
:10065000EC0FFD1F6491662341F08CE693E00E944D
:10066000D302892B11F02196F2CFCE01DF91CF91E9
:100670001F910F910895CF93DF93EC01888D88230C
:10068000B9F0AA89BB89E889F9898C9185FD03C0F5
:10069000808186FD0DC00FB607FCF7CF8C9185FFDA
:1006A000F2CF808185FFEDCFCE010E94B102E9CF6C
:1006B000DF91CF910895833081F028F4813099F053
:1006C0008230A9F008958730A9F08830C9F08430CD
:1006D000B1F4809180008F7D03C0809180008F777E
:1006E00080938000089584B58F7784BD089584B584
:1006F0008F7DFBCF8091B0008F778093B0000895FD
:100700008091B0008F7DF9CFCF93DF93282F30E019
:10071000F901EA5EFD4F8491F901E75CFD4FD49148
:10072000F901E95AFD4FC491CC23A1F081110E9437
:100730005B03EC2FF0E0EE0FFF1FE45FFD4FA59190
:10074000B491EC91ED2381E090E009F480E0DF9139
:10075000CF91089580E090E0FACF1F93CF93DF937D
:10076000282F30E0F901EA5EFD4F8491F901E75C42
:10077000FD4FD491F901E95AFD4FC491CC23A9F062
:10078000162F81110E945B03EC2FF0E0EE0FFF1F8C
:10079000E35BFD4FA591B4918FB7F894EC911111E3
:1007A00008C0D095DE23DC938FBFDF91CF911F91DE
:1007B0000895DE2BF8CF109200031092FF021092E2
:1007C0006903109268031092470381E08093460307
:1007D0001092210361E082E10E94AD0361E083E1B8
:1007E0000E94AD03E9EBF0E080818E7F8083808101
:1007F0008D7F808388E48093B80085E48093BC007B
:100800008DE192E09093ED028093EC028EE192E014
:100810009093EB028093EA0208959091340189133A
:100820000BC0EBE6F2E0E4919FEF90933401E130EE
:1008300049F028F0E23061F060E00C94AD031092D2
:100840006E00FACF90916F009D7F90936F00F4CF70
:10085000909170009D7F9093700091E09093B00014
:100860009091B100987F94609093B1001092B30082
:10087000E3CFCF93DF9390E0FC01E75CFD4F249141
:10088000895A9D4FFC0184918823C9F090E0880F1C
:10089000991FFC01EE5FFD4FA591B491FC01E35B54
:1008A000FD4FC591D49161110DC09FB7F8948C9103
:1008B000209582238C938881282328839FBFDF91F2
:1008C000CF910895623051F49FB7F8943C91822FF4
:1008D000809583238C93E8812E2BEFCF8FB7F894EC
:1008E000EC912E2B2C938FBFEACF4F925F926F9299
:1008F0007F928F929F92AF92BF92CF92DF92EF92B0
:10090000FF920F931F93CF93DF9300D000D01F92DD
:10091000CDB7DEB78C012A013B01809134018C30C8
:10092000C9F08F3F09F47FC00F900F900F900F9088
:100930000F90DF91CF911F910F91FF90EF90DF907B
:10094000CF90BF90AF909F908F907F906F905F906F
:100950004F900895EBE6F2E084918D8387FDE4CF1C
:1009600061E08CE00E9439048D81882321F09D8113
:10097000923009F05CC14801B12CA12C60E072E119
:100980008AE790E0A50198010E94D62C29833A833A
:100990004B835C8369017A0181E0C81AD108E108C0
:1009A000F1089FEFC916D104E104F10409F00CF439
:1009B00013C160E472E48FE090E0A50198010E9409
:1009C000D62C69017A0181E0C81AD108E108F10842
:1009D0009D81923009F098C08FEFC816D104E104D0
:1009E000F10409F00CF4DDC160E970ED83E090E002
:1009F000A50198010E94D62C69017A0191E0C91ADB
:100A0000D108E108F1088FEFC816D104E104F10420
:100A100011F00CF0A3C183E09091B100987F892B75
:100A20008093B100E1C08CE080933401EBE6F2E00A
:100A300094919D839F3F09F477CF913029F158F02D
:100A4000923009F43FC08D8187FD6ECF61E08CE06C
:100A50000E9439048CCF14BC15BC84B5826084BD5F
:100A600085B5816085BDE3E6F2E0E491F0E0EE0F4C
:100A7000FF1FE35BFD4F85919491E5E4F2E0E49183
:100A8000E093F2021D826CCF1092800010928100E0
:100A900080918100886080938100809181008160D5
:100AA00080938100E3E6F2E0E491F0E0EE0FFF1FB7
:100AB000E35BFD4F85919491E5E4F2E0E491E093EE
:100AC000F1024ECF1092B0001092B1008091B000B0
:100AD00082608093B0008091B10081608093B1000A
:100AE000E3E6F2E0E491F0E0EE0FFF1FE35BFD4F81
:100AF000859194919093F0028093EF02E5E4F2E007
:100B0000E491E093EE022CCF9FEFC916D104E104EB
:100B1000F10409F00CF489C068E478EE81E090E01B
:100B2000A50198010E94D62C69017A0181E0C81ABA
:100B3000D108E108F1089D81992309F428C19FEFAC
:100B4000C916D104E104F10409F00CF41EC162E1FC
:100B50007AE780E090E0A50194010E94D62C69011B
:100B60007A0181E0C81AD108E108F1089D81992332
:100B700009F4EBC08FEFC816D104E104F10411F0C1
:100B800008F0BFC086E048CF64E274EF80E090E0F8
:100B9000A50194010E94D62C69017A0181E0C81A4E
:100BA000D108E108F10885E09FEFC916D104E104FE
:100BB000F10409F008F430CF62E17AE780E090E0D8
:100BC000A50194010E94D62C69017A0191E0C91A0D
:100BD000D108E108F108CECF81E09D8191111CCFB1
:100BE00095B5987F892B85BD2FEF3FEFA901411463
:100BF00051046104710409F043C09D81913009F4EE
:100C00005EC0923009F46DC091118ECEC7BC2093A6
:100C1000FB023093FC024093FD025093FE02809150
:100C20006E00826080936E007FCE82E0D6CFB12CC2
:100C3000A12C60E072E18AE790E0A50198010E9492
:100C4000D62C69017A0181E0C81AD108E108F108BF
:100C5000C114D10491E0E906F10404F591E08D811D
:100C6000813011F680918100887F892B80938100EB
:100C70002FEF3FEFA9014114510461047104F9F011
:100C8000D801AA0FBB1FA30192010E94FB2C28EEE2
:100C900033E040E050E00E94B42CAFCF68E478EE3F
:100CA00081E090E0A50198010E94D62C69017A01AB
:100CB00081E0C81AD108E108F10893E0D0CFD092C2
:100CC0008900C09288002093F7023093F802409385
:100CD000F9025093FA0280916F00826080936F0056
:100CE00023CEC092B3002093F3023093F4024093DA
:100CF000F5025093F602809170008260809370003C
:100D000013CEC980DA80EB80FC809AE0F594E794FA
:100D1000D794C7949A95D1F791E0C91AD108E10800
:100D2000F10887E079CEC980DA80EB80FC808AE028
:100D3000F594E794D794C7948A95D1F791E0C91AAE
:100D4000D108E108F10885E04BCF8FEFC816D10438
:100D5000E104F10409F038F784E042CF68E478EE6A
:100D600081E090E0A50198010E94D62C69017A01EA
:100D700091E0C91AD108E108F1088FEFC816D10433
:100D8000E104F10411F00CF0FFCE84E045CE8FEFCA
:100D9000C816D104E104F10411F00CF0D8CE83E0C0
:100DA0001FCF82E039CE3FB7F894809155029091E1
:100DB0005602A0915702B091580226B5A89B05C0D3
:100DC0002F3F19F00196A11DB11D3FBFBA2FA92FCA
:100DD000982F8827BC01CD01620F711D811D911DC7
:100DE00042E0660F771F881F991F4A95D1F7089533
:100DF0008F929F92AF92BF92CF92DF92EF92FF922B
:100E00004B015C010E94D3066B017C010E94D3065A
:100E10006C197D098E099F09683E73408105910513
:100E2000A8F321E0821A9108A108B10888EEC80E43
:100E300083E0D81EE11CF11C81149104A104B104CB
:100E400029F7FF90EF90DF90CF90BF90AF909F90E9
:100E50008F9008952FB7F8946091510270915202CB
:100E600080915302909154022FBF089585ED809395
:100E7000BC008091BC0084FDFCCF10924703089514
:100E800020912D02260F3327331F21323105ECF438
:100E900020914703FC0190E080E0243069F082E07B
:100EA0000895A0912D022191AC01435F5D4FA40FE5
:100EB000B52FB11D2C930196861798F380912D02C2
:100EC000680F60932D0280E0089581E008950895F1
:100ED000E09100038091FF02E81730F4F0E0EF5F4B
:100EE000FC4F808190E008958FEF9FEF08959091DF
:100EF00000038091FF022FEF3FEF981748F4E92F8E
:100F0000F0E0EF5FFC4F208130E09F5F90930003A3
:100F1000C90108958091FF0290910003891B990BEC
:100F20000895CF92DF92EF92FF920F931F93CF938A
:100F3000DF937C01CB018A0120916B03222389F08E
:100F4000EB016B01C40ED51ECC15DD0569F069916E
:100F5000D701ED91FC910190F081E02DC701099539
:100F6000F3CF642F0E944007C801DF91CF911F91FA
:100F70000F91FF90EF90DF90CF900895CF93DF9384
:100F80001F92CDB7DEB7698320916B032223F9F05E
:100F900020916803203258F021E030E0FC013383D7
:100FA000228390E080E00F90DF91CF9108958091AF
:100FB0006903E82FF0E0E85BFC4F998190838F5F35
:100FC000809369038093680381E090E0ECCF61E057
:100FD000CE0101960E944007F7CF4F925F926F9229
:100FE0007F928F929F92AF92BF92CF92DF92EF92B9
:100FF000FF920F931F93CF93DF932B013C017A0154
:10100000890120E2C22ED12C3BECA32E37E0B32E77
:10101000C0911904D0911A04CE0101978421952121
:10102000C81BD90B80911C0490911D049601281BAC
:10103000390BC9010217130708F4C8018C179D0763
:1010400008F4EC0180911B04A301920104C05695A1
:101050004795379527958A95D2F790901504922A4F
:10106000892D0E94610180911C0490911D040297BA
:1010700041F49927872D762D652D89E094E00E9413
:10108000BE07642D89E094E00E94BE07AE01B7015F
:1010900089E094E00E9491070E946B0181111FC0BA
:1010A00084E6882EC5010197F1F7892D0E94610120
:1010B00080911C0490911D04029729F460E089E05E
:1010C00094E00E94BE0760E089E094E00E94BE07C1
:1010D0000E946B018823A1F08A948110E3CFDF91F5
:1010E000CF911F910F91FF90EF90DF90CF90BF9025
:1010F000AF909F908F907F906F905F904F900895EA
:101100004C0E5D1E611C711CEC0EFD1E0C1B1D0B9C
:1011100009F07ECFE4CF80911E0490911F04A0912E
:101120002004B0912104883C9105A105B10548F047
:1011300028EC30E043E254E060E070E0CB010E9434
:10114000ED0788EC90E0089590E080E00895CF935B
:10115000DF93CDB7DEB7E2970FB6F894DEBF0FBED0
:10116000CDBF1092A2021092A1021092A40210927E
:10117000A3021092A6021092A50281E090E0909343
:10118000A8028093A70283E090E09093AA02809344
:10119000A9021092B0021092AF021092B202109205
:1011A000B1021092B4021092B30222E330E0309305
:1011B000AC022093AB021092AE021092AD0228EB6B
:1011C00031E03093B6022093B50225E030E0309351
:1011D000B8022093B7029093BA028093B90210929A
:1011E000BC021092BB021092BE021092BD0240E0FF
:1011F00056E960E070E04093BF025093C0026093F4
:10120000C1027093C2021092C4021092C30220E085
:1012100032E03093C6022093C5021092C8021092A9
:10122000C7029093CA028093C9021092CC02109216
:10123000CB028AE090E09093CE028093CD02109290
:10124000D0021092CF0282E3E1EAF2E0DE011196D1
:1012500001900D928A95E1F7FE013196AE014F5C47
:101260005F4F90E080E0E417F50731F02191820FA5
:10127000911D27FD9A95F7CF9093D2028093D102CA
:10128000E2960FB6F894DEBF0FBECDBFDF91CF91CF
:10129000089548EE53E060E070E080917E02909106
:1012A0007F020E9475046CED75E080E090E00E9482
:1012B000F8068CE00C940D04CF93DF93CAE0D0E0E5
:1012C00048EE53E060E070E080E496E00E94750430
:1012D00062E370E080E090E00E94F8068CE00E94FB
:1012E0000D04219769F768EE73E080E090E0DF91EC
:1012F000CF910C94F80649E150E060E070E08091F5
:101300007E0290917F020E9475046CE271E080E0A1
:1013100090E00E94F8068CE00C940D04CF92DF92CE
:10132000EF92FF920F931F93CF93DF936B017C019A
:1013300024E6C216D104E104F1040CF446C024E60C
:1013400030E040E050E00E94D62C890164E6629FC4
:10135000C001639F900D1124092E000CAA0BBB0B3A
:10136000A7019601281B390B4A0B5B0BCA01B90177
:101370002AE030E040E050E00E94D62CE901EE2463
:10138000E394F12C1016110644F11C161D067CF492
:1013900001E010E00E947B0962E370E080E090E0F1
:1013A0000E94F8060F5F1F4FC017D1079CF768E82F
:1013B00073E180E090E0DF91CF911F910F91FF905A
:1013C000EF90DF90CF900C94F8062AE030E040E0F8
:1013D00050E00E94D62CE901D8CF0E94490962E36F
:1013E00070E080E090E00E94F8063FEFE31AF30A15
:1013F0000E151F0594F7C9CF662319F061E00C9410
:10140000AD0360E0FCCFCF93DF9310920B021092FC
:101410000A0210920902109208021092070210921A
:10142000030210920402109205021092060210921A
:10143000FF0110920002109201021092020210921B
:10144000FB011092FC011092FD011092FE0110921E
:10145000F7011092F8011092F9011092FA0110921E
:10146000F6011092F5011092F4011092F30110921E
:10147000F2011092F1011092F0011092EF0110921E
:10148000EE011092ED011092D4021092D30210924C
:10149000DD0210929D0210929E0210929F02109205
:1014A000A0021092990210929A0210929B0210923E
:1014B0009C021092E9021092E8021092E702109248
:1014C000690210926A0210926B0210926C0281E023
:1014D0008093260180932501809324018091A102AD
:1014E0009091A202892B09F076C080E090E0A0E8FC
:1014F000BFE38093300190933101A0933201B09308
:1015000033016091AB027091AC02072E000C880B86
:10151000990B0E94262A209130013091310140918F
:101520003201509133010E947C290E94EE29072E3E
:10153000000C880B990B60936D0270936E02809380
:101540006F02909370028091B5029091B6029093D1
:101550007F0280937E021092EA011092E9011092BC
:10156000E8011092E3011092E2011092EC01109256
:10157000EB011092E7011092E6011092E501109242
:10158000E401E0E0F1E028E031E0C0E1D1E06CE12D
:1015900071E08FEF9FEF81939193D9018D939D938C
:1015A0009D0189939993DB018D939D93BD01B1E0DA
:1015B000E830FB0781F78091A5029091A602823066
:1015C000910509F450C064F40097F9F00197E1F136
:1015D0001092260128C088E499EFA1E5B0E489CFF4
:1015E0008430910509F443C0059791F78091AF02CB
:1015F0009091B0029093EC018093EB0189E090E030
:1016000090931D0180931C010EC08091AF029091B8
:10161000B0029093E5018093E40189E090E090931B
:101620000901809308018091A7029091A80282305D
:10163000910509F46EC054F50097E9F1019709F49A
:1016400059C01092250145C08091AF029091B0021F
:101650009093E7018093E60189E090E09093110177
:1016600080931001E0CF81E08093EA01DCCF80918C
:10167000AF029091B0029093E3018093E20189E080
:1016800090E09093010180930001CDCF84309105CB
:1016900009F443C00597A9F68091B1029091B20276
:1016A0009093EC018093EB018DE090E090931F010B
:1016B00080931E010EC08DE090E090930B0180930B
:1016C0000A018091B1029091B2029093E50180935A
:1016D000E4018091A9029091AA028230910509F457
:1016E000B0C054F50097E9F1019709F49BC010923E
:1016F000240145C08DE090E0909313018093120186
:101700008091B1029091B2029093E7018093E6013B
:10171000E0CF81E08093E901DCCF8091B10290912C
:10172000B2029093E3018093E2018DE090E0909308
:10173000030180930201CDCF8430910509F485C067
:101740000597A9F68091B3029091B4029093EC01B1
:101750008093EB0181E190E090932101809320013F
:101760000EC08091B3029091B4029093E5018093F2
:10177000E40181E190E090930D0180930C01809150
:10178000B7029091B802092E000CAA0BBB0B8093F4
:10179000180190931901A0931A01B0931B018FEFC8
:1017A0009FEF909328018093270180912601882341
:1017B00051F010922801109227018AE090E0909356
:1017C00085028093840280912501882391F0809185
:1017D0002701909128010196909328018093270179
:1017E000880F991FFC01EC57FD4F8BE090E091832F
:1017F000808380912401882391F08091270190912A
:10180000280101969093280180932701880F991F42
:10181000FC01EC57FD4F80E190E091838083DF91E4
:10182000CF9108958091B3029091B4029093E70113
:101830008093E60181E190E090931501809314017B
:101840009ECF81E08093E8019ACF8091B30290917E
:10185000B4029093E3018093E20181E190E09093E0
:101860000501809304018BCF682F87E70E94C80190
:10187000109200038093FF020895CF93C82F87E74B
:101880000E9461016C2F89E094E00E94BE070E94D3
:101890006B0187E70E94610181E090E00E94340CB7
:1018A00089E094E00E947707C82F0E946B018C2F7B
:1018B000CF910895CF93DF93C82F87E70E946101EE
:1018C0006C2F89E094E00E94BE070E946B0187E7BD
:1018D0000E94610182E090E00E94340C89E094E073
:1018E0000E947707D82F80E0C82F89E094E00E94FB
:1018F0007707C82BD92B0E946B01CE01DF91CF91C6
:1019000008956F927F928F929F92AF92BF92CF92E3
:10191000DF92EF92FF920F931F93CF93DF934B01D0
:101920005C016A018901C0911904D0911A04CE01A9
:10193000019788219921C81BD90BC80101321105D3
:1019400010F080E290E08C179D0708F4EC01809184
:101950001B04A501940104C056954795379527951A
:101960008A95D2F7F0901504F22A8F2D0E9461011A
:1019700080911C0490911D04029741F499278B2DAE
:101980007A2D692D89E094E00E94BE07682D89E0D8
:1019900094E00E94BE070E946B01682E811122C054
:1019A0006C2F8F2D0E94C801109200038093FF02BC
:1019B000712CE72CF12CEC16FD0650F489E094E034
:1019C0000E947707F601EE0DFF1D80837394F1CF1F
:1019D0008C0E9D1EA11CB11CCC0EDD1E0C1B1D0B04
:1019E00009F0A1CF862DDF91CF911F910F91FF902C
:1019F000EF90DF90CF90BF90AF909F908F907F90AF
:101A00006F90089580911E0490911F04A09120046E
:101A1000B0912104883C9105A105B10548F028EC5E
:101A200030E043E254E060E070E0CB010E94810CC2
:101A300088EC90E0089587E70E94610164EF89E0F7
:101A400094E00E94BE076EE289E094E00E94BE0727
:101A50000E946B018FE19EE40197F1F700C0000046
:101A600086EF0C945A0C8F929F92AF92BF92CF92B6
:101A7000DF92EF92FF92CF93DF930E941B0D9C01A8
:101A800050E040E0C8EFD4E08D899E89281B390BD7
:101A900041095109AB89BC890E94FB2C0E94262A6E
:101AA00020E030E040E058E30E94B22A0E94EE2994
:101AB0006B017C016D857E85072E000C880B990BD0
:101AC0000E94262A20E030E040E055E40E94B22A3D
:101AD0004B015C016F857889072E000C880B990BF0
:101AE0006C0D7D1D8E1D9F1D0E94262A9B01AC0141
:101AF000C501B4010E947C290E94EE296C0D7D1D58
:101B00008E1D9F1D685F7F4F8F4F9F4F0E94262A1B
:101B100020E030E040E85DE30E94B22A20E030E0BF
:101B200040E251E40E947C29DF91CF91FF90EF9039
:101B3000DF90CF90BF90AF909F908F900895FC0161
:101B400001900020E9F73197AF01481B590BBC0108
:101B50008CE693E00C943302CF93DF930E949F0DA9
:101B6000EC0189E591E00E949F0D8C0F9D1FDF9194
:101B7000CF910895CF93DF93682F8CE693E00E9476
:101B8000D302EC0189E591E00E949F0D8C0F9D1F0F
:101B9000DF91CF910895CF93DF930E942003EC0152
:101BA00089E591E00E949F0D8C0F9D1FDF91CF91E1
:101BB00008958F929F92AF92BF92CF92DF92EF9251
:101BC000FF920F931F93CF93DF93CDB7DEB7A1970B
:101BD0000FB6F894DEBF0FBECDBF6B017C01F7FEE0
:101BE00041C06DE28CE693E00E94D3028C01222773
:101BF0003327A9012C193D094E095F0919A2CE010D
:101C000081967C019AE0892E912CA12CB12CCA01DD
:101C1000B901A50194010E94B42C605DF7016293A3
:101C20007F01211531054105510589F790E080E0DC
:101C3000309719F0CF010E949F0D800F911FA19640
:101C40000FB6F894DEBF0FBECDBFDF91CF911F91CD
:101C50000F91FF90EF90DF90CF90BF90AF909F904B
:101C60008F900895AC019B0119A28E010F5D1F4F4B
:101C70008AE0C82ED12CE12CF12CCA01B901A701B0
:101C800096010E94B42C605DF80162938F012115CA
:101C900031054105510589F790E080E0309779F2F0
:101CA000CF010E949F0DCBCFCF92DF92EF92FF9298
:101CB000CF93DF930E94020DC2E2D4E0C12CD12C5D
:101CC0007601C60149815A816B817C81452B462B67
:101CD000472BB1F18CE591E00E949F0DC701B60141
:101CE0000E94D90D89E591E00E949F0D89E691E05F
:101CF0000E949F0D69817A818B819C810E94D90D00
:101D000089E591E00E949F0D81E791E00E949F0D7F
:101D10006D817E818F8198850E94D90D89E591E042
:101D20000E949F0D28968FEFC81AD80AE80AF80A71
:101D300089E1C816D104E104F10419F689E190E0C3
:101D4000DF91CF91FF90EF90DF90CF9008952F9289
:101D50003F924F925F926F927F928F929F92AF923B
:101D6000BF92CF92DF92EF92FF920F931F93CF9388
:101D7000DF93CDB7DEB7C958D1090FB6F894DEBFEF
:101D80000FBECDBFFC0123E0EE0FFF1F2A95E1F748
:101D9000EE5DFB4F81809280A380B48029EC821697
:101DA0009104A104B10408F408C11C018581968145
:101DB000A781B085412C512C32019C01AD012F5FD0
:101DC0003F4F4F4F5F4FCC57DF4F288339834A83B4
:101DD0005B83C458D040AE014D5F5F4FCE57DF4F9D
:101DE00059834883C258D0408E0107581F4FC801FD
:101DF0000296C857DF4F99838883C858D0408DE733
:101E0000E82E81E0F82E91E8C92E91E0D92ECC572A
:101E1000DF4F288139814A815B81C458D0408216C6
:101E20009306A406B50608F0C8C040911E04509160
:101E30001F046091200470912104D501C4010C9607
:101E4000A11DB11D481759076A077B0740F02CE018
:101E500030E04BEE54E0C501B4010E94810C3DE03E
:101E6000830E911CA11CB11C1A821982CE57DF4F20
:101E7000A881B981C258D040E6E71D92EA95E9F7FA
:101E8000D8011D921C92C857DF4FE881F981C858CC
:101E9000D04027E011922A95E9F78091EB049091C8
:101EA000EC04A091ED04B091EE04480E591E6A1E98
:101EB0007B1E67E771E0CE0101960E941D2D3F92C7
:101EC0002F92FF92EF921F930F930E94282DB8013B
:101ED000CE0101960E941D2D7F926F925F924F92CC
:101EE000FF92EF921F930F930E94282DB801CE010D
:101EF00001960E941D2D8091F2048F938091F10430
:101F00008F938091F0048F938091EF048F93FF92D1
:101F1000EF921F930F930E94282DB801CE010196D6
:101F20000E941D2D8091F6048F938091F5048F936C
:101F30008091F4048F938091F3048F93FF92EF923A
:101F40001F930F930E94282DB801CE0101960E9485
:101F50001D2DFE0131960FB6F894DEBF0FBECDBF2A
:101F600090E080E02191820F911D27FD9A950E1738
:101F70001F07C1F799279F938F93DF92CF921F93EB
:101F80000F930E94282DB801CE0101960E941D2DAD
:101F90006DEC71E0CE0101960E941D2D84E891E068
:101FA0000E949F0DCE0101960E949F0D0F900F90F1
:101FB0000F900F900F900F902ACFC757DF4F0FB69B
:101FC000F894DEBF0FBECDBFDF91CF911F910F916F
:101FD000FF90EF90DF90CF90BF90AF909F908F9049
:101FE0007F906F905F904F903F902F9008952F9229
:101FF0003F924F925F926F927F928F929F92AF9299
:10200000BF92CF92DF92EF92FF920F931F93CF93E5
:10201000DF93CDB7DEB7C15AD1090FB6F894DEBF52
:102020000FBECDBF1A821982FE01339624E9DF016B
:102030001D922A95E9F78E0109561F4FF80111925A
:10204000119228E0DF011D922A95E9F720910C02F8
:10205000222309F4C2C17A01892E982EA72EB62E0A
:102060000E942A074090DE015090DF016090E0015D
:102070007090E101DC01CB0184199509A609B7092B
:10208000A701FF0C660B770B481759076A077B07F8
:1020900008F0A3C10E942A076093DE017093DF015C
:1020A0008093E0019093E1016090DD02B091D40251
:1020B000CF55DF4FB883C15AD0402090DE02309018
:1020C000DF024090E0025090E1028091D302811142
:1020D0009EC1712CC12CD12C66E871E0CE01019615
:1020E0000E941D2D5F924F923F922F924DE7E42E5A
:1020F00041E0F42EFF92EF921F930F930E94282D40
:10210000B801CE0101960E941D2D1F926F92FF9281
:10211000EF921F930F930E94282DB801CE010196D4
:102120000E941D2D1F92CF55DF4F8881C15AD0408C
:102130008F93FF92EF921F930F930E94282DB80167
:10214000CE0101960E941D2D8091A0028F93809157
:102150009F028F9380919E028F9380919D028F9317
:10216000FF92EF921F930F930E94282DB801CE018A
:1021700001960E941D2D1F927F92FF92EF921F9356
:102180000F930E94282D0FB6F894DEBF0FBECDBF6F
:10219000B801CE0101960E941D2D80919C028F9363
:1021A00080919B028F9380919A028F9380919902E4
:1021B0008F93FF92EF921F930F930E94282DB801E7
:1021C000CE0101960E941D2DDF92CF92FF92EF92D9
:1021D0001F930F930E94282DB801CE0101960E94F3
:1021E0001D2D8F929F92AF92BF92FF92EF921F93FD
:1021F0000F930E94282DB801CE0101960E941D2D3B
:102200000FB6F894DEBF0FBECDBF8091260164E902
:1022100071E0882349F08AE00E94840361E971E05B
:10222000892B11F065E971E0CE0101960E941D2D08
:102230008091250164E971E0882381F08BE00E94A0
:1022400084037C0164E170E080E090E00E94F80685
:1022500061E971E0EF2811F065E971E0CE010196C6
:102260000E941D2D8091240164E971E0882349F0CA
:1022700080E10E94840361E971E0892B11F065E936
:1022800071E0CE0101960E941D2D64E971E0CE013E
:1022900001960E941D2D64E971E0CE0101960E9415
:1022A0001D2D0E94330D0E94EE297F936F938DE7C1
:1022B00091E09F938F931F930F930E94282DB80155
:1022C000CE0101960E941D2DE2E2F4E00F900F90E6
:1022D0000F900F900F900F9090E080E0418152811D
:1022E00063817481452B462B472B29F00196389644
:1022F0008931910599F723E0880F991F2A95E1F715
:10230000FC01E65EFB4F65817681878190850E94A6
:10231000262A20E030E040E857E30E94B22A20E07D
:1023200030E048EC52E40E94B22A0E94EE297F93EA
:102330006F933DE7E32E31E0F32EFF92EF921F9370
:102340000F930E94282DB801CE0101960E941D2DE9
:102350000E940A0201969F938F93FF92EF921F9320
:102360000F930E94282DB801CE0101960E941D2DC9
:10237000FE0131960FB6F894DEBF0FBECDBF90E0E0
:1023800080E02191820F911D27FD9A950E171F075E
:10239000C1F799279F938F9381E891E09F938F9343
:1023A0001F930F930E94282DB801CE0101960E9421
:1023B0001D2D6DEC71E0CE0101960E941D2D84E86B
:1023C00091E00E949F0DCE0101960E949F0D0F90FB
:1023D0000F900F900F900F900F90CF55DF4F0FB6CB
:1023E000F894DEBF0FBECDBFDF91CF911F910F914B
:1023F000FF90EF90DF90CF90BF90AF909F908F9025
:102400007F906F905F904F903F902F90089581E064
:10241000D12CBAE02B163104410451040CF080E0B9
:10242000C82E7724739458CE0F931F93CF93DF93C6
:1024300001EA12E0C0E2D0E0F80161918F01CE0123
:102440000E9401292196C235D105B1F7DF91CF91C4
:102450001F910F910895EF92FF920F931F93CF93C7
:10246000DF93CDB7DEB7E2970FB6F894DEBF0FBEAD
:10247000CDBF0E94A70881EAE82E82E0F82E00E294
:1024800010E0C8010E94F928F70181937F010F5FD6
:102490001F4F02351105A9F74091D1025091D20288
:1024A00082E3E1EAF2E0DE01119601900D928A9555
:1024B000E1F7FE013196BE016F5C7F4F30E020E016
:1024C000E617F70731F08191280F311D87FD3A9506
:1024D000F7CF81E04217530709F080E0E2960FB68C
:1024E000F894DEBF0FBECDBFDF91CF911F910F914A
:1024F000FF90EF9008958F929F92AF92BF92CF92EC
:10250000DF92FF920F931F93CF93DF9300D000D001
:102510001F92CDB7DEB72AE0AE014F5F5F4F6A0171
:102520000E94C728F60101900020E9F73197FE2E9E
:10253000FC1868EB7BE080E090E00E94F806560112
:102540008A2D8C198F15F0F468EE73E080E090E02E
:102550000E94F806F50101915F01005309F40AE0B9
:1025600010E0912C812C0E947B09FFEF8F1A9F0AAB
:10257000801691062CF76AEF70E080E090E00E94F0
:10258000F806F1CF0F900F900F900F900F90DF9102
:10259000CF911F910F91FF90DF90CF90BF90AF90A0
:1025A0009F908F9008954F925F926F927F928F923B
:1025B0009F92AF92BF92CF92DF92EF92FF921F93C2
:1025C000CF93DF9300D000D000D0CDB7DEB70E940C
:1025D0001B0D4C01B12CA12C2091F8042295220F47
:1025E000220F207C2C5C298387E70E94610164EF25
:1025F00089E094E00E94BE07698189E094E00E942E
:10260000BE070E946B018091F804811109C28FE11D
:102610009EE40197F1F700C0000086EF0E945A0C7B
:10262000B0E0A0E0CC24D82EE92EFA2E88EF0E944C
:102630003D0CC82A1091F804212F30E03E832D83F1
:1026400080910D0590910E05A5019401281B390B71
:1026500041095109A0910B05B0910C050E94FB2C7A
:102660000E94262A20E030E040E058E30E94B22A8F
:102670000E94EE292B013C01609105057091060531
:10268000072E000C880B990B0E94262A20E030E0D0
:1026900040E055E40E94B22A4B015C0160910705BD
:1026A00070910805072E000C880B990B640D751DA1
:1026B000861D971D0E94262A9B01AC01C501B4010D
:1026C0000E947C290E94EE29460E571E681E791E24
:1026D00030EA431A3FE0530A61087108A3019201EE
:1026E000C301B2010E94A42C9B01AC01ACE0559542
:1026F000479537952795AA95D1F729833A834B8338
:102700005C83A091FD04B091FE04A30192010E949C
:10271000062D4B015C01BDE0B594A7949794879476
:10272000BA95D1F7A091FF04B091000529813A81B3
:102730004B815C810E94062D9C01552737FD5095E9
:10274000452F280D391D4A1D5B1D2E5F3F4F4F4FF2
:102750005F4F62E055954795379527956A95D1F774
:1027600030584F4F5F4FA0910905B0910A050E9464
:10277000FB2C4B015C017FE0B694A794979487945F
:102780007A95D1F788E090E04D815E81841B950BAE
:1027900004C0F694E794D794C7948A95D2F7A09191
:1027A0000105B091020529813A814B815C810E942B
:1027B000062D9B01AC01EBE0559547953795279584
:1027C000EA95D1F729833A834B835C83A091FB047C
:1027D000B091FC04A30192010E94062DFBE09595A7
:1027E000879577956795FA95D1F729813A814B813D
:1027F0005C81620F731F841F951F4090F9045090F5
:10280000FA04052C000C66087708A2E0440C551C5D
:10281000661C771CAA95D1F7640D751D861D971D42
:10282000012E04C0660F771F881F991F0A94D2F7E4
:102830006E5F7F4F8F4F9F4F24E030E040E050E0CD
:102840000E94D62CD701C601821B930BA40BB50B9B
:102850009C01AD0160E573EC80E090E004C09695CA
:102860008795779567951A95D2F70E94A42C97FDC6
:10287000EDC0660F771F881F991FA50194010E9464
:10288000B42C69017A019927F7FC9A958F2D7E2D3A
:102890006D2D9B01AC010E94A42C9B01AC01AEEDFF
:1028A000BBE00E94FB2C4B015C01A3E4B3EEA7014B
:1028B00096010E94092DBC01992777FD9095892FDB
:1028C0004501BB2497FCB094AB2C680D791D8A1D83
:1028D0009B1D6153714F8F4F9F4F44E09595879596
:1028E000779567954A95D1F76C0D7D1D8E1D9F1DBF
:1028F0000E94262A20E836EE45EC57E40E947C2907
:1029000021E03EED42E45EE30E941F2B69837A835F
:102910008B839C8340905D0250905E0260905F02CA
:1029200070906002209161023091620240916302D6
:10293000509164026091590270915A0280915B0239
:1029400090915C020E9410296B017C01209165022C
:102950003091660240916702509168020E941029EE
:102960009B01AC0160E070E080E89FE30E947C295D
:10297000A70196010E94B22A4B015C0129813A818C
:102980004B815C8160E070E080E89FE30E940F294A
:1029900020E03AE24DE257E40E94B22AA3019201FC
:1029A0000E940F29A50194010E94B22AA30192015D
:1029B0000E9410292B013C0140925D0250925E0260
:1029C00060925F0270926002A501940160E070E085
:1029D00080E89FE30E940F29A70196010E94B22A76
:1029E0006093590270935A0280935B0290935C0249
:1029F000C301B20126960FB6F894DEBF0FBECDBF5D
:102A0000DF91CF911F91FF90EF90DF90CF90BF901B
:102A1000AF909F908F907F906F905F904F900895B0
:102A2000813029F4AFEFBCE71197F1F7F4CD823094
:102A300029F48FEB9AED0197F1F7EDCD9FEFA4E428
:102A4000B1E09150A040B040E1F7E5CDA50194017F
:102A50000E94B42C69017A01CC0CDD1CEE1CFF1C19
:102A600012CF2F923F924F925F926F927F928F92EE
:102A70009F92AF92BF92CF92DF92EF92FF920F930D
:102A80001F93CF93DF9300D000D0CDB7DEB7109265
:102A90000B0210920A021092090210920802109280
:102AA0000702109203021092040210920502109283
:102AB00006021092FF011092000210920102109281
:102AC00002021092FB011092FC011092FD01109283
:102AD000FE011092F7011092F8011092F901109284
:102AE000FA011092F6011092F5011092F401109281
:102AF000F3011092F2011092F1011092F001109284
:102B0000EF011092EE011092ED011092D40210929A
:102B1000D30280912601811103C081E08093E902F4
:102B200080912501811103C081E08093E8028091AA
:102B30002401811103C081E08093E70240E1242E4B
:102B400041E0342E80910B028111ABC50E94D3125B
:102B50006B017C016091E2027091E3028091E402DA
:102B60009091E5020E94262A9B01AC01C701B601A3
:102B70000E940F290E94EE296093DE027093DF020B
:102B80008093E0029093E1020091D5021091D60269
:102B90002091D7023091D802061717072807390766
:102BA0000CF03FC08091DD0281113BC08091D302C7
:102BB0008111C8CF01E00093DD0248EC50E060E0F5
:102BC00070E0CB010E94F70F0E942A076093D902A0
:102BD0007093DA028093DB029093DC028091AD0265
:102BE0009091AE02019711F40093F60180912B01B0
:102BF0008823B9F0E0919702F091980233E0EE0F4C
:102C0000FF1F3A95E1F7EE5DFB4F80912C0190910B
:102C10002D01A0912E01B0912F0181839283A38376
:102C2000B483412C512C320119821A821B821C82DE
:102C30008091DD02882309F485CF0E94D3126B01B5
:102C40007C016091E2027091E3028091E402909134
:102C5000E5020E94262A9B01AC01C701B6010E9431
:102C60000F290E94EE294B015C018092DE029092B6
:102C7000DF02A092E002B092E1020E942A070091D6
:102C8000D9021091DA022091DB023091DC026B0153
:102C90007C01C01AD10AE20AF30A8091D302882388
:102CA000D9F18091EE01811137C080910802811124
:102CB00033C0B40164197509072E000C880B990BF9
:102CC0000E94262A2B013C01B60129813A81621B10
:102CD000730B072E000C880B990B0E94262A20E00C
:102CE00030E04AE754E40E947C299B01AC01C30117
:102CF000B2010E947C290E94EE29672B69F431E021
:102D0000309308020E942A076093FB017093FC0134
:102D10008093FD019093FE0148EC50E0C701B6019D
:102D20000E94F70F8091ED01811111C0809107027F
:102D300081110DC041E0409307020E942A07609371
:102D4000F7017093F8018093F9019093FA01809153
:102D50000702882309F442C00E942A070091F70164
:102D60001091F8012091F9013091FA01AB01BC01F9
:102D7000401B510B620B730B8091EB019091EC01A6
:102D8000092E000CAA0BBB0B481759076A077B07D3
:102D900028F10CE111E0F80180810E5F1F4F61E026
:102DA0000E94AD0324E231E020173107A1F7109211
:102DB000070231E03093ED010E942A070091D90209
:102DC0001091DA022091DB023091DC02601B710B62
:102DD000820B930B48EC50E00E94F70F8091ED01BD
:102DE0008823E1F10E942A07AB01BC018091EB012D
:102DF0009091EC01092E000CAA0BBB0B0091F7017E
:102E00001091F8012091F9013091FA01800F911F82
:102E1000A21FB31F481B590B6A0B7B0B483E534044
:102E200061057105D8F08091EF01811117C00CE1A7
:102E300011E0F801708061800E5F1F4F60E0872D08
:102E40000E94AD03872D962D0E941F0224E231E0DF
:102E50002017310771F731E03093EF018091EA01DB
:102E60008823E1F18091F501811114C08091AF02B6
:102E70009091B002092E000CAA0BBB0BC816D90604
:102E8000EA06FB0638F061E089E00E94AD0341E00C
:102E90004093F5018091F501882301F18091AF0203
:102EA0009091B002092E000CAA0BBB0B9701860172
:102EB000081B190B2A0B3B0BD901C801883E934014
:102EC000A105B10558F08091E902811107C060E0C9
:102ED00089E00E94AD0321E02093E9028091E9019D
:102EE0008823E1F18091F401811114C08091B10235
:102EF0009091B202092E000CAA0BBB0BC816D90682
:102F0000EA06FB0638F061E08DE00E94AD0331E097
:102F10003093F4018091F401882301F18091B10292
:102F20009091B202092E000CAA0BBB0B97018601EF
:102F3000081B190B2A0B3B0BD901C801883E934093
:102F4000A105B10558F08091E802811107C060E049
:102F50008DE00E94AD0321E02093E8028091E8011A
:102F60008823E1F18091F301811114C08091B302B3
:102F70009091B402092E000CAA0BBB0BC816D906FF
:102F8000EA06FB0638F061E081E10E94AD0331E022
:102F90003093F3018091F301882301F18091B30212
:102FA0009091B402092E000CAA0BBB0B970186016D
:102FB000081B190B2A0B3B0BD901C801883E934013
:102FC000A105B10558F08091E702811107C060E0CA
:102FD00081E10E94AD0321E02093E70280912B0163
:102FE000882309F458C08091DE029091DF02A091FD
:102FF000E002B091E102B701A60109811A812B819B
:103000003C81401B510B620B730B4093EB045093BC
:10301000EC046093ED047093EE048093EF049093BE
:10302000F004A093F104B093F2040E94330D0E94C7
:10303000EE296093F3047093F4048093F504909365
:10304000F60460912C0170912D0180912E019091D8
:103050002F01653F1FEF7107810591050CF491C2A7
:10306000E0919702F091980223E0EE0FFF1F2A955E
:10307000E1F7EE5DFB4F61507109810991096583AC
:1030800076838783908710922B0162E370E080E063
:1030900090E00E94F8068091AD029091AE020197F7
:1030A00049F449EBC4164BE0D406E104F10410F0F6
:1030B0001092F6014090DE025090DF026090E00234
:1030C0007090E1028091690290916A02A0916B0276
:1030D000B0916C02481659066A067B060CF079C25C
:1030E0008091D402811175C28091F601811171C263
:1030F0008091180190911901A0911A01B0911B01C2
:103100000197A109B1098093180190931901A09327
:103110001A01B0931B01892B8A2B8B2BA9F451E048
:1031200050930A020E942A076093030270930402DC
:10313000809305029093060240929D0250929E0257
:1031400060929F027092A00280910A02882309F483
:1031500041C00E942A0700910302109104022091AD
:10316000050230910602AB01BC01401B510B620B02
:10317000730B8091E6019091E701092E000CAA0BD8
:10318000BB0B481759076A077B0720F100E111E0E4
:10319000F80180810E5F1F4F61E00E94AD03F1E0F6
:1031A00008311F07A9F710920A0201E00093D40228
:1031B0000E942A070091D9021091DA022091DB02C5
:1031C0003091DC02601B710B820B930B48EC50E0DA
:1031D0000E94F70F1091D40219831123D9F10E9494
:1031E0002A07AB01BC018091E6019091E701092E0D
:1031F000000CAA0BBB0B009103021091040220915A
:10320000050230910602800F911FA21FB31F481BB9
:10321000590B6A0B7B0B483E534061057105D0F09A
:103220008091F201811116C000E111E0F801708077
:1032300061800E5F1F4F60E0872D0E94AD03872DD8
:10324000962D0E941F02F1E008311F0779F701E077
:103250000093F2014090DE025090DF026090E002A5
:103260007090E10280916D0290916E02A0916F02C8
:10327000B0917002481659066A067B06E0F419817F
:103280001123C9F08091D302811115C021E0209350
:1032900009020E942A076093FF0170930002809345
:1032A0000102909302024092990250929A02609217
:1032B0009B0270929C0280910902882309F440C00D
:1032C0000E942A070091FF01109100022091010243
:1032D00030910202AB01BC01401B510B620B730B1E
:1032E0008091E4019091E501092E000CAA0BBB0B23
:1032F000481759076A077B0718F108E011E0F80141
:1033000080810E5F1F4F61E00E94AD0320163106E1
:10331000B1F710920902F1E0F093D3020E942A075C
:103320000091D9021091DA022091DB023091DC0287
:10333000601B710B820B930B48EC50E00E94F70F5F
:103340008091D3028823E1F10E942A07AB01BC01DE
:103350008091E4019091E501092E000CAA0BBB0BB2
:103360000091FF01109100022091010230910202B0
:10337000800F911FA21FB31F481B590B6A0B7B0BB9
:10338000483E534061057105D8F08091F1018111EB
:1033900017C008E011E0F801F081F983F8017180AD
:1033A0000E5F1F4F60E089810E94AD038981972DD8
:1033B0000E941F022016310671F7F1E0F093F1012F
:1033C00080910802882309F441C00E942A070091D5
:1033D000FB011091FC012091FD013091FE01AB0138
:1033E000BC01401B510B620B730B8091E201909169
:1033F000E301092E000CAA0BBB0B481759076A07FB
:103400007B0720F100E011E0F80180810E5F1F4F83
:1034100061E00E94AD03F1E008301F07A9F71092A8
:10342000080201E00093EE010E942A070091D902F0
:103430001091DA022091DB023091DC02601B710BEB
:10344000820B930B48EC50E00E94F70F8091EE0145
:103450008823F1F10E942A07AB01BC018091E201AF
:103460009091E301092E000CAA0BBB0B0091FB010C
:103470001091FC012091FD013091FE01800F911F00
:10348000A21FB31F481B590B6A0B7B0B483E5340CE
:1034900061057105E8F08091F001811119C000E02B
:1034A00011E0F801F081F983F80171800E5F1F4F80
:1034B00060E089810E94AD038981972D0E941F02DF
:1034C00028E031E02017310761F731E03093F00157
:1034D00080912B01882391F18091F101882391F152
:1034E0008091DE029091DF02A091E002B091E102B2
:1034F0000A97A105B1050CF085C08091F0018823E1
:1035000009F480C0E0919702F091980283E0EE0FF9
:10351000FF1F8A95E1F7EE5DFB4F80912C019091A2
:103520002D01A0912E01B0912F010197A109B109A0
:1035300085839683A783B0870E948B088091F101D1
:10354000811174C08091F0018823A9F081E08093FB
:103550000B020E942A070091D9021091DA022091F1
:10356000DB023091DC02601B710B820B930B48EC89
:1035700050E00E94F70F2401C982DA82EB82FC82BC
:1035800057CB2B013C012CE0420E511C611C711CDD
:1035900000911E0410911F042091200430912104F9
:1035A000041515052605370530F02CE030E04BEE0C
:1035B00054E00E94ED073FEF431A530A630A730A6F
:1035C00040922C0150922D0160922E0170922F0199
:1035D0005CCD4092690250926A0260926B027092D6
:1035E0006C028091B7029091B802092E000CAA0BD0
:1035F000BB0B8093180190931901A0931A01B0930B
:103600001B01A2CD0E942A070091FF011091000228
:103610002091010230910202601B710B820B930B0F
:1036200061327E448105910508F06CCF8091DE0205
:103630009091DF02A091E002B091E1020A97A1050A
:10364000B105DCF48091F0018823B9F01092DD021D
:103650000E942A070091D9021091DA022091DB0220
:103660003091DC02601B710B820B930B48EC50E035
:103670000E94F70F10920C0265CF0E942A0700915A
:10368000FF01109100022091010230910202601BA3
:10369000710B820B930B61327E4481059105B0F66C
:1036A00051CF0F900F900F900F90DF91CF911F91FE
:1036B0000F91FF90EF90DF90CF90BF90AF909F90D1
:1036C0008F907F906F905F904F903F902F900895D4
:1036D000CF92DF92EF92FF920F931F93CF93DF93DE
:1036E000CDB7DEB7CC5AD1090FB6F894DEBF0FBE06
:1036F000CDBF8C010E94AC0DD8018C918536A9F507
:103700008BEF91E00E94CB0DE2E2F4E01182128295
:103710001382148215821682178210863896B4E0BE
:10372000EA3EFB0799F70E948B08109298021092CC
:10373000970289EC90E0A0E0B0E080932C01909398
:103740002D01A0932E01B0932F01C455DF4F0FB66A
:10375000F894DEBF0FBECDBFDF91CF911F910F91C7
:10376000FF90EF90DF90CF900895823799F58DEE1E
:1037700091E00E94CB0DF80181810E94BA0D8AE58B
:1037800091E00E94AC0DD80111968C91119789831C
:1037900012968C918823B9F08A831B82CE01019600
:1037A0000E945C2897FD11C088E991E00E94AC0D51
:1037B000CE0101960E943E280E94A70E85EA91E064
:1037C0000E94AC0DC2CF1A82E9CF8AED91E00E942F
:1037D000CB0DBBCF873739F48EEC91E00E94CB0D37
:1037E0000E943115B2CF8E3659F48BEB91E00E94D6
:1037F000CB0D88EB91E00E9420030E94540EA5CFD0
:103800008C3629F489EA91E00E94CB0DF6CF8336FD
:1038100079F480919602811106C081E0809396022E
:1038200088E991E0D4CF1092960288E891E0CFCF5A
:103830008136B1F48FE791E00E94200310E000E0B0
:103840000E940A028017910734F0C8010E94A70E57
:103850000F5F1F4FF5CF88E791E00E94200375CFDF
:10386000823609F02DC28FE691E00E9420031A8271
:103870001982FE01339686E7DF011D928A95E9F7EA
:103880008E0107581F4FF8011192119288E0DF0155
:103890001D928A95E9F70E942B12811104C08AEECD
:1038A00090E00E94200360EB71E0CE0101960E943F
:1038B0001D2D8091A2028F938091A1028F938DE79D
:1038C000E82E81E0F82EFF92EF921F930F930E9453
:1038D000282DB801CE0101960E941D2D8091A402D1
:1038E0008F938091A3028F93FF92EF921F930F9378
:1038F0000E94282DB801CE0101960E941D2D8091B5
:10390000A6028F938091A5028F93FF92EF921F934F
:103910000F930E94282DB801CE0101960E941D2D03
:103920008091A8028F938091A7028F93FF92EF92CC
:103930001F930F930E94282DB801CE0101960E947B
:103940001D2D8091AA028F938091A9028F93FF92DF
:10395000EF921F930F930E94282DB801CE0101967C
:103960000E941D2D8091AE028F938091AD028F93A6
:10397000FF92EF921F930F930E94282D0FB6F89499
:10398000DEBF0FBECDBFB801CE0101960E941D2D36
:103990008091AC028F938091AB028F93FF92EF9254
:1039A0001F930F930E94282DB801CE0101960E940B
:1039B0001D2D6CEB71E0CE0101960E941D2D62E978
:1039C00071E0CE0101960E941D2D1F9281E08F9320
:1039D000FF92EF921F930F930E94282DB801CE0102
:1039E00001960E941D2D1F9286E18F93FF92EF9208
:1039F0001F930F930E94282DB801CE0101960E94BB
:103A00001D2D8091B0028F938091AF028F93FF9212
:103A1000EF921F930F930E94282DB801CE010196BB
:103A20000E941D2D8091B2028F938091B1028F93DD
:103A3000FF92EF921F930F930E94282DB801CE01A1
:103A400001960E941D2D8091B4028F938091B30244
:103A50008F93FF92EF921F930F930E94282D0FB622
:103A6000F894DEBF0FBECDBFB801CE0101960E9413
:103A70001D2D8091B6028F938091B5028F93FF9296
:103A8000EF921F930F930E94282DB801CE0101964B
:103A90000E941D2D8091B8028F938091B7028F9361
:103AA000FF92EF921F930F930E94282DB801CE0131
:103AB00001960E941D2D8091BA028F938091B902C8
:103AC0008F93FF92EF921F930F930E94282DB801BE
:103AD000CE0101960E941D2D8091BC028F93809192
:103AE000BB028F93FF92EF921F930F930E94282D9A
:103AF000B801CE0101960E941D2D8091BE028F93C8
:103B00008091BD028F93FF92EF921F930F930E94BB
:103B1000282DB801CE0101960E941D2D8091C20270
:103B20008F938091C1028F938091C0028F93809177
:103B3000BF028F9386EC91E09F938F931F930F9317
:103B40000E94282D0FB6F894DEBF0FBECDBFB8017E
:103B5000CE0101960E941D2D8091C4028F93809109
:103B6000C3028F93FF92EF921F930F930E94282D11
:103B7000B801CE0101960E941D2D8091C6028F933F
:103B80008091C5028F93FF92EF921F930F930E9433
:103B9000282DB801CE0101960E941D2D8091C802EA
:103BA0008F938091C7028F93FF92EF921F930F9391
:103BB0000E94282DB801CE0101960E941D2D8091F2
:103BC000CA028F938091C9028F93FF92EF921F9345
:103BD0000F930E94282DB801CE0101960E941D2D41
:103BE0008091CC028F938091CB028F93FF92EF92C2
:103BF0001F930F930E94282DB801CE0101960E94B9
:103C00001D2D8091CE028F938091CD028F93FF92D4
:103C1000EF921F930F930E94282D0FB6F894DEBFEA
:103C20000FBECDBFB801CE0101960E941D2D80911F
:103C3000D0028F938091CF028F93FF92EF921F93C8
:103C40000F930E94282DB801CE0101960E941D2DD0
:103C5000CE0101967C010F900F900F900F900F9066
:103C60000F9090E080E0D7012D917D01820F911D92
:103C700027FD9A95A017B107B1F799279F938F93C6
:103C80008BEC91E09F938F93FF92AF930E94282D2E
:103C9000B701CE0101960E941D2D84E891E00E949B
:103CA0009F0DCE0101960E949F0D88E691E00E9433
:103CB00020030F900F900F900F900F900F9045CD15
:103CC000833709F03AC1C555DF4F19830883CB5AB2
:103CD000D0401A821982FE01339682E6DF011D92DE
:103CE0008A95E9F7D12CC12CF12CE12CAE01455578
:103CF0005F4F62E971E0C555DF4F88819981CB5AEA
:103D0000D0400E9483288C01009709F4D3C0F701AA
:103D10003197E831F10508F027C0EF56F14E0C94C9
:103D2000F52CA91EB81EBF1EC61ECD1ED41EDB1E3E
:103D3000E21EE91EF01EF71EFE1E051F0C1F131FBC
:103D40001A1F251F2C1F331F3A1F411F481F4F1FCB
:103D5000561F0E943E289093A2028093A102B801B0
:103D6000CE0101960E941D2DBFEFEB1AFB0ABECFBC
:103D70000E943E289093A4028093A302F0CF0E9459
:103D80003E289093A6028093A502E9CF0E943E2888
:103D90009093A8028093A702E2CF0E943E289093BE
:103DA000AA028093A902DBCF0E943E289093AC0226
:103DB0008093AB02D4CF0E943E289093AE028093B2
:103DC000AD02CDCF0E945C287093B0026093AF0229
:103DD000C6CF0E945C287093B2026093B102BFCF3D
:103DE0000E945C287093B4026093B302B8CF0E9423
:103DF0003E289093B6028093B502B1CF0E943E2830
:103E00009093B8028093B702AACF0E945C28709367
:103E1000BA026093B902A3CF0E943E289093BC02DD
:103E20008093BB029CCF0E943E289093BE02809359
:103E3000BD0295CF0E945C286093BF027093C002C0
:103E40008093C1029093C2028ACF0E943E28909331
:103E5000C4028093C30283CF0E943E289093C6027F
:103E60008093C5027CCF0E943E289093C802809325
:103E7000C70275CF0E943E289093CA028093C90260
:103E80006ECF0E945C287093CC026093CB0267CF08
:103E90000E943E289093CE028093CD0260CF0E9474
:103EA0003E289093D0028093CF0259CF0E943E28A3
:103EB0006C015ACFE7E1EE16F1044CF48CE591E089
:103EC0000E9420030E942B120E94030A3ECCFE0196
:103ED00031969E012B593F4F90E080E04191840F35
:103EE000911D47FD9A95E217F307C1F78C151D0444
:103EF00029F782E3E1EAF2E0DE01A758BF4F019023
:103F00000D928A95E1F7FE01E758FF4FAF01405D42
:103F10005F4F90E080E04E175F0731F02191820FF4
:103F2000911D27FD9A95F7CF9093D2028093D102ED
:103F30000E94141282E691E0C3CF843629F40E94D5
:103F4000A7080E941412C0CF843749F40E94A70822
:103F50000E9414120E94030A8CE491E07ECC863603
:103F600031F481E08093E60286E491E076CC8736F6
:103F700029F41092E60280E491E06FCC883619F4BF
:103F80008AE391E06ACC893609F4DFCB8B3661F5A0
:103F900011968C9189831A82CE0101960E945C2829
:103FA00097FDD3CBFF24F394F8018281863409F482
:103FB000F12CCE0101960E943E288230910561F0DD
:103FC0008330910569F0019709F0BFCB6F2D89E02F
:103FD00090E00E94FC09B9CB6F2D8DE090E0F9CF05
:103FE0006F2D81E190E0F5CF8937A9F411968C917E
:103FF000813351F487E291E00E94200381E08093B5
:104000000C028DE091E029CC83E191E00E94200335
:1040100010920C02F6CF8D3619F487E091E01DCC9A
:10402000803219F481E091E018CC87EF90E00E9493
:104030002003F80180810E94BA0D87CB1F920F9256
:104040000FB60F9211242F933F934F935F936F936B
:104050007F938F939F93AF93BF93EF93FF93809141
:10406000F3029091F402A091F502B091F602892B2F
:104070008A2B8B2BD1F19091EE02E091EF02F0911F
:10408000F0028081892780838091F3029091F4026D
:10409000A091F502B091F602181619061A061B0631
:1040A0009CF48091F3029091F402A091F502B091FA
:1040B000F6020197A109B1098093F3029093F402EB
:1040C000A093F502B093F602FF91EF91BF91AF91EB
:1040D0009F918F917F916F915F914F913F912F9120
:1040E0000F900FBE0F901F901895809134010E9481
:1040F0000D04EACF1F920F920FB60F9211242F9347
:104100003F934F935F936F937F938F939F93AF935F
:10411000BF93EF93FF938CE693E00E94B102FF916F
:10412000EF91BF91AF919F918F917F916F915F912F
:104130004F913F912F910F900FBE0F901F901895A8
:104140001F920F920FB60F9211242F938F939F936C
:10415000EF93FF93E0917C03F0917D038081E091E8
:104160008203F091830382FD1BC0908180918503BF
:104170008F5F8F7320918603821741F0E091850352
:10418000F0E0E459FC4F958F80938503FF91EF9108
:104190009F918F912F910F900FBE0F901F901895A8
:1041A0008081F4CF1F920F920FB60F9211242F939C
:1041B0003F938F939F93AF93BF93809151029091C0
:1041C0005202A0915302B09154023091500223E068
:1041D000230F2D3758F50196A11DB11D20935002D4
:1041E0008093510290935202A0935302B0935402D1
:1041F0008091550290915602A0915702B0915802B9
:104200000196A11DB11D8093550290935602A09373
:104210005702B0935802BF91AF919F918F913F91F8
:104220002F910F900FBE0F901F90189526E8230F27
:104230000296A11DB11DD2CF1F920F920FB60F9201
:1042400011242F933F934F935F936F937F938F939B
:104250009F93AF93BF93EF93FF938091B900887FB3
:10426000803609F44AC0F0F5883209F4A7C018F581
:10427000803109F49BC0B8F4882309F4F9C0883070
:1042800009F494C0FF91EF91BF91AF919F918F91ED
:104290007F916F915F914F913F912F910F900FBE42
:1042A0000F901F901895883109F488C0803251F71B
:1042B0008093450314C0803409F49DC040F48033DA
:1042C000B9F38833F9F68093450385ECB0C08035A7
:1042D00009F485C0883509F496C0883499F60E949F
:1042E0003607D0CF883909F48CC038F5883729F0E3
:1042F00050F4883611F0803729F683E08093470325
:1043000010924F0257C0883809F47BC0803919F0E9
:10431000803809F0B7CF80914F02803208F071C029
:10432000E0914F0281E08E0F80934F028091BB009D
:10433000F0E0E15DFD4F80833DC0803B39F0E0F46B
:10434000803A09F479C0883A09F09CCF84E08093E0
:10435000470310922E0210922D02E091EC02F09190
:10436000ED02099580912D0281110FC081E08093AB
:104370002D0210920D0209C0803C09F4A6CF883CA2
:1043800009F4A3CF883B09F07DCFE0912E0281E0B4
:104390008E0F80932E02F0E0E35FFD4F80818093CB
:1043A000BB0090912E0280912D0229C080912203A2
:1043B0008093BB0085EC8093BC0064CF9091440354
:1043C00080914303981758F5E091440381E08E0FE4
:1043D00080934403F0E0ED5DFC4F8081E9CFE091F4
:1043E000440381E08E0F809344038091BB00F0E092
:1043F000ED5DFC4F808390914403809143039817B7
:10440000C8F285E8D8CFE091440381E08E0F809315
:1044100044038091BB00F0E0ED5DFC4F8083809110
:10442000460381115CCF81E08093210384EA80936D
:10443000BC001092470326CF85EC8093BC001092FD
:10444000470380914F02803230F4E0914F02F0E058
:10445000E15DFD4F108260914F0270E0E091EA0251
:10446000F091EB028FE292E0099510924F020ACF91
:104470001092450334CFECE6F3E01382128288EE0B
:1044800093E0A0E0B0E084839583A683B78329E31B
:1044900031E03183208325EC30E03587248724EC1C
:1044A00030E03787268720EC30E0318B208B21EC01
:1044B00030E0338B228B22EC30E0358B248B26ECE2
:1044C00030E0378B268B118E128E138E148EE9E01E
:1044D000F4E01382128284839583A683B7838BE4EE
:1044E00091E091838083E5E1F4E080E092E09283C3
:1044F000818381E0838380E490E09583848380E5F9
:10450000808380E090E0A1E0B0E081879287A3877C
:10451000B48782E090E09087878380E18683089566
:10452000CF93DF93CDB7DEB7C85CD1090FB6F8944F
:10453000DEBF0FBECDBF789484B5826084BD84B5E4
:10454000816084BD85B5826085BD85B5816085BD8E
:1045500080916E00816080936E0010928100809146
:1045600081008260809381008091810081608093CE
:104570008100809180008160809380008091B100F3
:1045800084608093B1008091B00081608093B0001E
:1045900080917A00846080937A0080917A008260B2
:1045A00080937A0080917A00816080937A00809174
:1045B0007A00806880937A001092C1000E942B12CA
:1045C00080937102811104C00E94A7080E941412F6
:1045D0008091BF029091C002A091C102B091C2022D
:1045E0008C3221E09207A105B10509F452C0803B4D
:1045F00024E09207A105B10509F44BC0803629E0FB
:104600009207A105B10509F444C0803C22E192075C
:10461000A105B105F1F1803825E29207A105B105A8
:10462000C1F1803428E39207A105B10591F181150C
:104630002BE49207A105B10561F1803820E79207CC
:10464000A105B10531F1811526E99207A105B10552
:1046500001F1811521EE9207A105B105D1F0811577
:1046600022EC920721E0A207B10599F08115944848
:10467000A340B10571F080E096E9A0E0B0E080933E
:10468000BF029093C002A093C102B093C2020E94E5
:1046900014120E94030A82ED90E0A0E8B0E4809337
:1046A000650290936602A0936702B09368028CE65D
:1046B0009FECACE4BEE38093610290936202A0930E
:1046C0006302B093640210925D0210925E02109237
:1046D0005F02109260021092590210925A021092D8
:1046E0005B0210925C020E94DB03C090BF02D0907C
:1046F000C002E090C102F090C20260E079E08DE378
:1047000090E0A70196010E94B42C21503109410983
:1047100051095695479537952795E0917C03F0917F
:104720007D0382E08083C11481EED806E104F104A8
:1047300021F0211590E13907A8F0E0917C03F09178
:104740007D03108260E874E88EE190E0A701960195
:104750000E94B42C215031094109510956954795C1
:1047600037952795E0917803F09179033083E091B4
:104770007A03F0917B03208310928403E0918003FD
:10478000F091810386E08083E0917E03F0917F03C6
:10479000808180618083E0917E03F0917F0380813E
:1047A00088608083E0917E03F0917F038081806840
:1047B0008083E0917E03F0917F0380818F7D8083F1
:1047C00062E080E00E9439048091C302843008F0E6
:1047D00083E08093F8040E94DB0380ED0E943D0C8F
:1047E000853509F04DC08AEA0E945A0C9093FA046C
:1047F0008093F9048CEA0E945A0C9093FC048093F5
:10480000FB048EEA0E945A0C9093FE048093FD04F0
:1048100080EB0E945A0C90930A058093090582EB65
:104820000E945A0C90930C0580930B0584EB0E9418
:104830005A0C90930E0580930D0586EB0E945A0C3E
:10484000909300058093FF0488EB0E945A0C90938C
:104850000205809301058AEB0E945A0C909304058F
:10486000809303058CEB0E945A0C9093060580936D
:1048700005058EEB0E945A0C90930805809307055E
:104880001092D4021092D3028AE292E00E94200396
:1048900061E089E00E94390461E08DE00E94390402
:1048A00061E081E10E94390461E08CE00E943904FA
:1048B00060E088E00E94390460E087E00E943904EB
:1048C00060E08AE00E94390460E08BE00E943904D5
:1048D00060E080E10E94390460E089E00E94AD035D
:1048E00060E08DE00E94AD0360E081E10E94AD03D5
:1048F00060E08CE00E94AD038091C7029091C802F5
:10490000019709F018C281E0809396020E9449093C
:1049100006E110E00E947B0901501109D9F780914E
:104920007102811125C084E690E0A0E0B0E08093A0
:104930006D0290936E02A0936F02B093700288E0B4
:104940000E9484038C0187E00E94840301151105F5
:1049500009F0F4C1892B61F482E390E0A0E0B0E0BB
:1049600080936D0290936E02A0936F02B0937002D9
:1049700002E310E00E94D31201501109D9F70AE0B6
:1049800010E0C12CD12C76010E94D3124B015C01A6
:10499000C701B6010E94262AA50194010E94102990
:1049A0000E94EE296B017C0162E370E080E090E000
:1049B0000E94F8060150110939F7C701B6010E949B
:1049C000262A20E030E040E251E40E947C290E9447
:1049D000EE296093E2027093E3028093E4029093E5
:1049E000E5021092690210926A0210926B02109214
:1049F0006C028091CD029091CE02092E000CAA0B80
:104A0000BB0B8093D5029093D602A093D702B093AC
:104A1000D8020E94020D0E940A0297FF9BC11092C9
:104A200098021092970289EC90E0A0E0B0E08093A9
:104A30002C0190932D01A0932E01B0932F010E9481
:104A40000A02AC01092E000C660B770B4F3FAFEF4B
:104A50005A076A077A07C1F04831510561057105A7
:104A600009F496C1E3E0880F991FEA95E1F7FC018C
:104A7000EE5DFB4F85819681A781B0858D3D9F4F6F
:104A8000A105B1050CF084C181E080932B0110E0F9
:104A900000E070E2F72E22242A94322C6CED462E90
:104AA00065E0562E612C712C8BE3F81609F4CDC20B
:104AB0008091E6028111A3C20E94D3124B015C01D6
:104AC0006091E2027091E3028091E4029091E5022C
:104AD0000E94262A9B01AC01C501B4010E940F2946
:104AE0000E94EE296093DE027093DF028093E00261
:104AF0009093E1028091DD02882391F00E942A07C1
:104B00008090D9029090DA02A090DB02B090DC0293
:104B1000681979098A099B0948EC50E00E94F70F4F
:104B20004091DE025091DF026091E0027091E1025B
:104B30008091D5029091D602A091D702B091D8026F
:104B400084179507A607B7070CF4C7C18091960292
:104B5000811132C18091D40281112EC10E942A0795
:104B60008090920290909302A0909402B09095024F
:104B7000681979098A099B0980908E0290908F02AA
:104B8000A0909002B090910286169706A806B906EA
:104B900008F04BC08091290190912A01019609F0FB
:104BA0000FC120918C0230918D02F901EE0FFF1F91
:104BB000EC57FD4F808191812F5F3F4F30938D02E5
:104BC00020938C02409127015091280142175307EE
:104BD00024F410928D0210928C0290932A018093FB
:104BE00029018F3F980709F4E7C00E948403892BAD
:104BF00009F0D5C0409280025092810260928202F8
:104C00007092830240E050E0BA0180917E02909160
:104C10007F020E9475040E942A0760937A027093B3
:104C20007B0280937C0290937D0244EF51E060E030
:104C300070E0CB010E94F70F0E942A074B015C0134
:104C40008091D402882309F4DAC1E090D302EE20E7
:104C500009F4D5C18CE693E00E949102892BA9F05A
:104C60008CE693E00E946F02F82E9BE3F91609F49C
:104C700037C1AAE0FA1649F0E1E0F0E0EC0FFD1FC1
:104C8000E00FF11FF0820F5F1F4F0E942A07681983
:104C900079098A099B09613177428105910580F282
:104CA0000E945C0960919D0270919E0280919F021A
:104CB0009091A0028090300190903101A09032013B
:104CC000B09033012091A3023091A402232B09F06C
:104CD00080C10E94262AA50194010E94B22A0E9446
:104CE000EE290E948E090E945C09609199027091E0
:104CF0009A0280919B0290919C028090300190904A
:104D00003101A0903201B09033012091A302309183
:104D1000A402232B09F068C10E94262AA501940150
:104D20000E94B22A0E94EE290E948E090E942A0740
:104D30004B015C01AACF10929602E8CD013011051B
:104D400009F016CE009709F091C186E990E0A0E045
:104D5000B0E006CEFC01A3E0EE0FFF1FAA95E1F73D
:104D6000EE5DFB4F45815681678170854F5F5F4FD8
:104D70006F4F7F4F40932C0150932D0160932E0174
:104D800070932F010196909398028093970257CECB
:104D900010922B0180ED91E00E94AC0D78CE8CE258
:104DA00091E0A0E0B0E08093800290938102A09314
:104DB0008202B093830226CF8CE00E940D0435CF8F
:104DC0000E942A078090800290908102A090820227
:104DD000B090830220917A0230917B0240917C0254
:104DE00050917D02621B730B840B950B8616970600
:104DF000A806B90638F5181419041A041B0414F58A
:104E00008CE00E940D041092800210928102109298
:104E100082021092830284EF91E0A0E0B0E08093E0
:104E2000760290937702A0937802B09379020E9461
:104E30002A076093720270937302809374029093B6
:104E40007502F3CE0E942A07809076029090770236
:104E5000A0907802B0907902209172023091730292
:104E60004091740250917502621B730B840B950B79
:104E700086169706A806B90608F0D7CE18141904A6
:104E80001A041B040CF0D1CE30922A012092290181
:104E900080918C0290918D02892BB1F480E197E290
:104EA000A0E0B0E080938E0290938F02A0939002D6
:104EB000B09391020E942A0760939202709393022A
:104EC000809394029093950210927602109277024A
:104ED0001092780210927902A8CE0E943115ACCEC1
:104EE0006801BFEFCB1ADB0AE1E0F0E0EC0FFD1F39
:104EF000E00FF11F10821092D4021092D302109290
:104F0000DD021092E9021092E8021092E7020E947C
:104F1000020D0E940A0297FF3EC010929802109262
:104F2000970289EC90E0A0E0B0E080932C01909390
:104F30002D01A0932E01B0932F010E940A02AC0113
:104F4000092E000C660B770B4F3FAFEF5A076A072D
:104F50007A07C9F0483151056105710599F023E0E0
:104F6000880F991F2A95E1F7FC01EE5DFB4FEE24B7
:104F7000E39485819681A781B0858D3D9F4FA105E2
:104F8000B1050CF0E12CE0922B01CE0101960E94BC
:104F9000681B86017ACEFC0133E0EE0FFF1F3A95C5
:104FA000E1F7EE5DFB4F45815681678170854F5F6C
:104FB0005F4F6F4F7F4F40932C0150932D016093B3
:104FC0002E0170932F01019690939802809397027F
:104FD000B4CF0E94262AA50194010E94B22A0E9401
:104FE000EE290E947B127FCE0E94262AA501940101
:104FF0000E94B22A0E94EE290E947B1297CE8CE674
:1050000093E00E949102892B09F44ECD8CE693E047
:105010000E946F02F82EBBE38B1769F02AE082171B
:1050200071F3E1E0F0E0EC0FFD1FE00FF11F808372
:105030000F5F1F4FE4CFE1E0F0E0EC0FFD1FE00F4A
:10504000F11F10820F5F1F4F26CDCE0101960E94E7
:10505000681B80E090E0892B09F419CD0E949D0225
:10506000882309F414CD0E94000011CD019709F0A6
:105070007FCC88EC90E0A0E0B0E072CCFC01882707
:105080009927E89421912032E9F3293010F02E304D
:10509000C8F32B3241F02D3239F4689404C00E94D9
:1050A000BF28820F911D219120532A30C0F31EF496
:1050B000909581959F4F08951F93FC01992788270C
:1050C000BC01E89411911032E9F3193010F01E3050
:1050D000C8F31B3251F01D3249F4689406C00E9497
:1050E000AA28610F711D811D911D119110531A3055
:1050F000B0F33EF490958095709561957F4F8F4FFA
:105100009F4F1F910895FA01A191B081009719F462
:105110001097E1F0CD01DC01CD010D90002011F4DC
:10512000C00113C0FB012191222319F02015D9F7EA
:10513000F3CFFB012191201519F41E92119606C0A0
:105140002223C1F70D900020A1F7D001FA01A1930D
:10515000B0830895592F482F372F262F660F771FBA
:10516000881F991F660F771F881F991F620F731F73
:10517000841F951F660F771F881F991F08957AE077
:10518000979F902D879F802D910D11240895BB2707
:10519000FA01A62F6217710581059105330B30FBCB
:1051A00066F0AA27660F771F881F991FAA1FA217EC
:1051B00010F0A21B63953850A9F7A05DAA3308F040
:1051C000A95DA19336F7B111B1931082CA010C9475
:1051D000E928DC01FC01672F71917723E1F7329711
:1051E00004C07C916D9370836291AE17BF07C8F3C2
:1051F0000895F999FECF92BD81BDF89A992780B59F
:105200000895262FF999FECF1FBA92BD81BD20BD0A
:105210000FB6F894FA9AF99A0FBE0196089550586D
:10522000BB27AA270E9427290C94782A0E946A2A61
:1052300038F00E94712A20F039F49F3F19F426F4C7
:105240000C94672A0EF4E095E7FB0C94612AE92F91
:105250000E94892A58F3BA176207730784079507D3
:1052600020F079F4A6F50C94AB2A0EF4E0950B2E01
:10527000BA2FA02D0B01B90190010C01CA01A001A8
:105280001124FF27591B99F0593F50F4503E68F103
:105290001A16F040A22F232F342F4427585FF3CF44
:1052A000469537952795A795F0405395C9F77EF415
:1052B0001F16BA0B620B730B840BBAF09150A1F05E
:1052C000FF0FBB1F661F771F881FC2F70EC0BA0FE4
:1052D000621F731F841F48F4879577956795B7956C
:1052E000F7959E3F08F0B0CF9395880F08F0992767
:1052F000EE0F9795879508950E9490290C94782A2F
:105300000E94712A58F00E946A2A40F029F45F3FF7
:1053100029F00C94612A51110C94AC2A0C94672A40
:105320000E94892A68F39923B1F3552391F3951BC1
:10533000550BBB27AA2762177307840738F09F5FB6
:105340005F4F220F331F441FAA1FA9F335D00E2E23
:105350003AF0E0E832D091505040E695001CCAF790
:105360002BD0FE2F29D0660F771F881FBB1F261753
:1053700037074807AB07B0E809F0BB0B802DBF012A
:10538000FF2793585F4F3AF09E3F510578F00C94F9
:10539000612A0C94AC2A5F3FE4F3983ED4F38695DF
:1053A00077956795B795F7959F5FC9F7880F911D1A
:1053B0009695879597F90895E1E0660F771F881F06
:1053C000BB1F621773078407BA0720F0621B730BB9
:1053D000840BBA0BEE1F88F7E09508950E94F5291B
:1053E0006894B1110C94AC2A08950E94912A88F017
:1053F0009F5798F0B92F9927B751B0F0E1F0660F99
:10540000771F881F991F1AF0BA95C9F714C0B130D9
:1054100091F00E94AB2AB1E008950C94AB2A672F5B
:10542000782F8827B85F39F0B93FCCF38695779508
:105430006795B395D9F73EF49095809570956195F1
:105440007F4F8F4F9F4F0895E89409C097FB3EF41C
:1054500090958095709561957F4F8F4F9F4F9923C1
:10546000A9F0F92F96E9BB279395F695879577953F
:105470006795B795F111F8CFFAF4BB0F11F460FFFF
:105480001BC06F5F7F4F8F4F9F4F16C0882311F057
:1054900096E911C0772321F09EE8872F762F05C06B
:1054A000662371F096E8862F70E060E02AF09A9506
:1054B000660F771F881FDAF7880F9695879597F9FB
:1054C000089597F99F6780E870E060E008959FEF86
:1054D00080EC089500240A9416161706180609068B
:1054E000089500240A94121613061406050608955A
:1054F000092E0394000C11F4882352F0BB0F40F4E2
:10550000BF2B11F460FF04C06F5F7F4F8F4F9F4F21
:10551000089557FD9058440F551F59F05F3F71F0A3
:105520004795880F97FB991F61F09F3F79F087950A
:105530000895121613061406551FF2CF4695F1DF93
:1055400008C0161617061806991FF1CF8695710523
:10555000610508940895E894BB2766277727CB0157
:1055600097F908950E94C52A0C94782A0E946A2A05
:1055700038F00E94712A20F0952311F00C94612AD2
:105580000C94672A11240C94AC2A0E94892A70F387
:10559000959FC1F3950F50E0551F629FF001729FD8
:1055A000BB27F00DB11D639FAA27F00DB11DAA1FE7
:1055B000649F6627B00DA11D661F829F2227B00D34
:1055C000A11D621F739FB00DA11D621F839FA00DBF
:1055D000611D221F749F3327A00D611D231F849F0F
:1055E000600D211D822F762F6A2F11249F57504066
:1055F0009AF0F1F088234AF0EE0FFF1FBB1F661FE1
:10560000771F881F91505040A9F79E3F510580F0A9
:105610000C94612A0C94AC2A5F3FE4F3983ED4F3D7
:10562000869577956795B795F795E7959F5FC1F74D
:10563000FE2B880F911D9695879597F90895FA018D
:10564000EE0FFF1F309621053105A1F1611571059F
:1056500061F48038BFE39B0749F168949038810575
:1056600061F08038BFEF9B0741F099234AF5FF3F77
:10567000E1053105210519F1E8940894E795D90170
:10568000AA2329F4AB2FBE2FF85FD0F310C0FF5F21
:1056900070F4A695E0F7F73950F019F0FF3A38F4B6
:1056A0009F779F930DD00F9007FC9058089546F078
:1056B0000C94672A60E070E080E89FE308954FE76C
:1056C0009F775F934F933F932F930E941A2C2F91B4
:1056D0003F914F915F910E94B22A0C94772B29F44D
:1056E00016F00C94612A0C94AB2A0C94672A0E9441
:1056F000912AA8F39638A0F707F80F92E8942BE3C5
:105700003AEA48EB5FE70E94C82A0F920F920F9285
:105710004DB75EB70F920E94622CE8E6F0E00E945F
:10572000A92B4F915F91EF91FF91E595EE1FFF1F20
:1057300049F0FE57E0684427EE0F441FFA95E1F761
:105740004195550B0E94DC2B0F9007FE0C94D02B3B
:105750000895DF93CF931F930F93FF92EF92DF9201
:105760007B018C01689406C0DA2EEF010E94C52AE5
:10577000FE01E894A5912591359145915591A6F3A7
:10578000EF010E942729FE019701A801DA9469F729
:10579000DF90EF90FF900F911F91CF91DF910895CF
:1057A0009B01AC0160E070E080E89FE30C947C29F1
:1057B0000C94612A0C94962C0E94912AD8F3992378
:1057C000C9F3940F511DA3F39150504094F059F038
:1057D000882332F0660F771F881F91505040C1F721
:1057E0009E3F51052CF7880F911D9695879597F947
:1057F00008955F3FACF0983E9CF0BB278695779567
:105800006795B79508F4B1609395C1F7BB0F58F74A
:1058100011F460FFE8CF6F5F7F4F8F4F9F4FE3CF53
:105820000C94AC2A16F00C94962C0C94672A68946D
:105830000C94612A0E94912AA8F39923C1F3AEF334
:10584000DF93CF931F930F93FF92C92FDD278823F8
:105850002AF02197660F771F881FDAF720E030E0E3
:1058600040E85FEB9FE3883920F0803E38F02196D6
:105870008F770E941029E0E9F0E004C00E9410290F
:10588000EDEBF0E00E94A92B8B01BE01EC01FB2E99
:105890006F5771097595771F880B990B0E94262AFF
:1058A00028E132E741E35FE30E94C52AAF2D98016A
:1058B000AE01FF900F911F91CF91DF910E94272998
:1058C0000C94782AFA01DC01AA0FBB1F9B01AC01E2
:1058D000BF5728F4222733274427507820C0B751D8
:1058E00090F4AB2F0024469537952795011CA3957E
:1058F000D2F3002071F0220F331F441FB395DAF367
:105900000ED00C940F2961307105A0E88A07B946C2
:1059100030F49B01AC016627772788279078309672
:1059200021F0208331834283538308959F3F31F0D8
:10593000915020F4879577956795B795880F911DBD
:105940009695879597F90895DB018F939F930E9411
:10595000FB2CBF91AF91A29F800D911DA39F900D35
:10596000B29F900D11240895A1E21A2EAA1BBB1B11
:10597000FD010DC0AA1FBB1FEE1FFF1FA217B3071B
:10598000E407F50720F0A21BB30BE40BF50B661F31
:10599000771F881F991F1A9469F7609570958095F5
:1059A00090959B01AC01BD01CF010895052E97FB99
:1059B0001EF400940E94ED2C57FD07D00E94B42CD9
:1059C00007FC03D04EF40C94ED2C50954095309587
:1059D00021953F4F4F4F5F4F08959095809570955B
:1059E00061957F4F8F4F9F4F0895EE0FFF1F0590DA
:1059F000F491E02D09940E940E2DA59F900DB49F67
:105A0000900DA49F800D911D11240895B7FF0C9453
:105A1000FB2C0E94FB2C821B930B0895A29FB001CC
:105A2000B39FC001A39F700D811D1124911DB29FD2
:105A3000700D811D1124911D0895FB01DC010D9055
:105A40000020E9F7119701900D920020E1F70895E9
:105A5000AEE0B0E0EEE2FDE20C94D72F0D891E8996
:105A600086E08C831A8309838FEF9FE79E838D8363
:105A7000AE01475E5F4F6F89788DCE0101960E941F
:105A80004B2D2F813885020F131FF80110822E969F
:105A9000E4E00C94F32FABE0B0E0E1E5FDE20C9420
:105AA000C92F7C013B018A01FC0117821682838188
:105AB00081FFC8C1CE0101965C01F7019381F3011A
:105AC00093FD859193FF81913F01882309F453C190
:105AD000853239F493FD859193FF81913F018532A1
