:100000000C9431010C9459010C9459010C94590130
:100010000C9459010C9459010C9459010C94B2158B
:100020000C9459010C9459010C9459010C94CF175C
:100030000C9459010C9459010C9459010C945901D8
:100040000C9466160C9459010C9434160C940E16EC
:100050000C9459010C9459010C9459010C945901B8
:100060000C94B0160C94590107634236B79BD8A77D
:100070001A39685618AEBAAB558C1D3CB7CC5763CD
:10008000BD6DEDFD753EF6177231BF000000803F7B
:1000900008000000BE922449123EABAAAA2ABECD97
:1000A000CCCC4C3E00000080BEABAAAAAA3E000009
:1000B0000000BF000000803F000000000008417801
:1000C000D3BB4387D1133D190E3CC3BD4282AD2B38
:1000D0003E68EC8276BED98FE1A93E4C80EFFFBE30
:1000E00001C4FF7F3F0000000000696E76616C690B
:1000F0006420636F6E660024554E4B4E4F574E3B47
:1001000000244B303B0A00636F6E6669672072659E
:1001100073657465640A00244F4B3B0A00244F4BFF
:100120003B0A00244F4B3B0A0054656C656D6574B7
:1001300072792064697361626C65640A0054656C4D
:10014000656D6574727920656E61626C65640A0024
:10015000244F4B3B0A00244F4B3B0A00244B4F3BA0
:100160000A00244F4B3B0A0024656E643B0A0024BE
:1001700073746172743B0A004E6F7420696D706C09
:10018000656D656E746564200A004E6F7420696D3C
:10019000706C656D656E746564200A004E6F742026
:1001A000696D706C656D656E746564200A004E6FD4
:1001B0007420696D706C656D656E746564200A00ED
:1001C0004E6F7420696D706C656D656E746564202A
:1001D0000A004E6F7420696D706C656D656E746594
:1001E00064200A004E6F7420696D706C656D656ED9
:1001F000746564200A0000000000240027002A0023
:100200000000000023002600290000000008000272
:100210000100000304070000000000000000537408
:100220006172742070726F6772616D0A000102045E
:100230000810204080010204081020010204081068
:100240002000000000250028002B00040404040402
:100250000404040202020202020303030303030272
:10026000A61811241FBECFEFD8E0DEBFCDBF11E02E
:10027000A0E0B1E0E2E7F9E502C005900D92A037F9
:10028000B107D9F723E0A0E7B1E001C01D92A93C76
:10029000B207E1F711E0C1E3D1E004C02197FE010C
:1002A0000E94CE29C033D107C9F70E94FF180C94D1
:1002B000B72C0C9400002FB7F8946091E101709175
:1002C000E2018091E3019091E4012FBF0895209114
:1002D000E70281E0213208F044C08091C30281111D
:1002E000FCCF8091E60292E09093C30291E090935C
:1002F000C2029FEF9093C1021092C0022093BF02EE
:10030000A6ECB2E0EFE9F2E090E0291331C01092E0
:100310009E0290919E02880F892B80939E0280916D
:100320009D02813049F510929D0280919E0280933A
:10033000BB008091BC0083FDF8CF85EC8093BC00AE
:100340008091C3028230E1F38091C1028F3FB1F00E
:100350008091C1028032A1F08091C102803391F07E
:1003600084E01092C5021092E7021092C402089530
:100370003D9131939F5FC9CF85EEE0CF80E0F1CF13
:1003800082E0EFCF83E0EDCF089508950895AF9216
:10039000BF92CF92DF92EF92FF920F931F93CF9372
:1003A000DF936C017B018B01040F151FEB015E01D4
:1003B000AE18BF08C017D10759F06991D601ED9169
:1003C000FC910190F081E02DC6010995892B79F708
:1003D000C501DF91CF911F910F91FF90EF90DF90BA
:1003E000CF90BF90AF900895FC01538D448D252F81
:1003F00030E0842F90E0821B930B541710F0CF96BF
:10040000089501970895FC01918D828D981761F0F0
:10041000A28DAE0FBF2FB11D5D968C91928D9F5F07
:100420009F73928F90E008958FEF9FEF0895FC01E6
:10043000918D828D981731F0828DE80FF11D858D99
:1004400090E008958FEF9FEF0895FC01918D228D2C
:10045000892F90E0805C9F4F821B91098F739927B1
:10046000089588EE92E00E94250221E0892B09F48C
:1004700020E0822F089580E090E0892B29F00E94EF
:10048000310281110C9400000895FC01A48DA80F85
:10049000B92FB11DA35ABF4F2C91848D90E00196C6
:1004A0008F739927848FA689B7892C93A089B189E6
:1004B0008C91837080648C93938D848D981306C087
:1004C0000288F389E02D80818F7D80830895EF92EB
:1004D000FF920F931F93CF93DF93EC0181E0888FFE
:1004E0009B8D8C8D98131AC0E889F989808185FFCE
:1004F00015C09FB7F894EE89FF896083E889F98970
:1005000080818370806480839FBF81E090E0DF9171
:10051000CF911F910F91FF90EF900895F62E0B8DC4
:1005200010E00F5F1F4F0F731127E02E8C8D8E117F
:100530000CC00FB607FCFACFE889F989808185FFE6
:10054000F5CFCE010E944502F1CFEB8DEC0FFD2FD0
:10055000F11DE35AFF4FF0829FB7F8940B8FEA89A1
:10056000FB8980818062CFCF0F931F93CF93DF935E
:100570008C01D0E0C0E0F801EC0FFD1F6491662310
:1005800041F088EE92E00E946702892B11F02196DB
:10059000F2CFCE01DF91CF911F910F910895CF93AC
:1005A000DF93EC01888D8823B9F0AA89BB89E8899B
:1005B000F9898C9185FD03C0808186FD0DC00FB641
:1005C00007FCF7CF8C9185FFF2CF808185FFEDCFBF
:1005D000CE010E944502E9CFDF91CF91089583308B
:1005E00081F028F4813099F08230A9F008958730A5
:1005F000A9F08830C9F08430B1F4809180008F7DFB
:1006000003C0809180008F7780938000089584B527
:100610008F7784BD089584B58F7DFBCF8091B00026
:100620008F778093B00008958091B0008F7DF9CFCF
:10063000CF93DF93282F30E0F901E65FFD4F8491DF
:10064000F901E35DFD4FD491F901E55BFD4FC491E4
:10065000CC23A1F081110E94EF02EC2FF0E0EE0F0D
:10066000FF1FE050FE4FA591B491EC91ED2381E086
:1006700090E009F480E0DF91CF91089580E090E070
:10068000FACF1F93CF93DF93282F30E0F901E65F75
:10069000FD4F8491F901E35DFD4FD491F901E55BD4
:1006A000FD4FC491CC23A9F0162F81110E94EF02B7
:1006B000EC2FF0E0EE0FFF1FEF5BFD4FA591B49123
:1006C0008FB7F894EC91111108C0D095DE23DC931C
:1006D0008FBFDF91CF911F910895DE2BF8CF10923D
:1006E0007C0210927B021092C5021092E7021092D7
:1006F000C30281E08093C20210929D0261E082E118
:100700000E94410361E083E10E944103E9EBF0E0D4
:1007100080818E7F808380818D7F808388E4809339
:10072000B80085E48093BC0085EC91E09093690269
:100730008093680286EC91E0909367028093660252
:1007400008959091080189130BC0EFE5F2E0E49160
:100750009FEF90930801E13049F028F0E23061F01A
:1007600060E00C94410310926E00FACF90916F00FC
:100770009D7F90936F00F4CF909170009D7F909338
:10078000700091E09093B0009091B100987F9460D8
:100790009093B1001092B300E3CFCF93DF9390E03A
:1007A000FC01E35DFD4F2491855B9D4FFC0184912D
:1007B0008823C9F090E0880F991FFC01EA50FE4F92
:1007C000A591B491FC01EF5BFD4FC591D4916111EE
:1007D0000DC09FB7F8948C91209582238C938881CB
:1007E000282328839FBFDF91CF910895623051F471
:1007F0009FB7F8943C91822F809583238C93E88156
:100800002E2BEFCF8FB7F894EC912E2B2C938FBF1C
:10081000EACF4F925F926F927F928F929F92AF92A8
:10082000BF92CF92DF92EF92FF920F931F93CF93DD
:10083000DF9300D000D01F92CDB7DEB78C01498383
:100840005A836B837C83809108018D30C9F08F3F80
:1008500009F47DC00F900F900F900F900F90DF91D3
:10086000CF911F910F91FF90EF90DF90CF90BF90AD
:10087000AF909F908F907F906F905F904F90089572
:10088000EFE5F2E084918D8387FDE4CF61E08DE0B8
:100890000E94CD038D81882321F09D81923009F043
:1008A00044C14801B12CA12C60E072E18AE790E0DC
:1008B000A50198010E94BA2529013A017A0169012E
:1008C00081E0C81AD108E108F1089FEFC916D104E8
:1008D000E104F10409F00CF4F7C060E472E48FE085
:1008E00090E0A50198010E94BA2569017A0181E092
:1008F000C81AD108E108F1089D81923009F098C02A
:100900008FEFC816D104E104F10409F00CF4CAC158
:1009100060E970ED83E090E0A50198010E94BA259E
:1009200069017A0191E0C91AD108E108F1088FEF55
:10093000C816D104E104F10411F00CF065C183E0A4
:100940009091B100987F892B8093B100C5C08DE054
:1009500080930801EFE5F2E094919D839F3F09F4B5
:1009600079CF913029F158F0923009F43FC09D8140
:1009700097FD70CF61E08DE00E94CD038ECF14BC57
:1009800015BC84B5826084BD85B5816085BDE8E510
:10099000F2E0E491F0E0EE0FFF1FEF5BFD4F859179
:1009A0009491EAE3F2E0E491E0936E021D826ECF4F
:1009B0001092800010928100809181008860809365
:1009C000810080918100816080938100E8E5F2E000
:1009D000E491F0E0EE0FFF1FEF5BFD4F85919491E6
:1009E000EAE3F2E0E491E0936D0250CF1092B000A0
:1009F0001092B1008091B00082608093B00080912D
:100A0000B10081608093B100E8E5F2E0E491F0E0AC
:100A1000EE0FFF1FEF5BFD4F8591949190936C0259
:100A200080936B02EAE3F2E0E491E0936A022ECF56
:100A30009FEFC916D104E104F10409F00CF473C06E
:100A400068E478EE81E090E0A50198010E94BA2563
:100A500069017A0181E0C81AD108E108F1089D8195
:100A6000992309F4EAC09FEFC916D104E104F10407
:100A700009F00CF4E0C0EAC064E274EF80E090E0BA
:100A8000A50194010E94BA2569017A0181E0C81A82
:100A9000D108E108F10885E09FEFC916D104E1040F
:100AA000F10409F008F44CCF62E17AE780E090E0CD
:100AB000A50194010E94BA2569017A0181E0C81A52
:100AC000D108E108F108D5C081E09D81911138CFAE
:100AD00095B5987F892B85BDD801AA0FBB1F2981A9
:100AE0003A814B815C810E94D92528EE33E040E0B9
:100AF00050E00E94EC258D81813009F44AC082309B
:100B000009F459C08111A6CEC7BC20937702309357
:100B100078024093790250937A0280916E0082604D
:100B200080936E0097CE82E0D0CFB12CA12C60E0F4
:100B300072E18AE790E0A50198010E94BA25690157
:100B40007A0181E0C81AD108E108F108C114D10482
:100B500091E0E906F10464F491E08D81813009F0BF
:100B6000BBCF80918100887F892B80938100B4CF97
:100B700068E478EE81E090E0A50198010E94BA2532
:100B800069017A0181E0C81AD108E108F10893E00F
:100B9000E4CFD0928900C0928800209373023093F2
:100BA0007402409375025093760280916F008260C8
:100BB00080936F004FCEC092B30020936F023093AA
:100BC00070024093710250937202809170008260B3
:100BD000809370003FCE84E09FEFC916D104E104FA
:100BE000F10409F008F474CF730162019AE0F594FE
:100BF000E794D794C7949A95D1F781E0C81AD108A1
:100C0000E108F10885E064CF68E478EE81E090E0E7
:100C1000A50198010E94BA2569017A0191E0C91ADB
:100C2000D108E108F1088FEFC816D104E104F104FE
:100C300011F00CF021CF84E083CE83E09FEFC91642
:100C4000D104E104F10409F00CF442CF62E17AE747
:100C500080E090E0A50194010E94BA2569017A0123
:100C600081E0C81AD108E108F1089D81992309F4AF
:100C7000B2CF86E09FEFC916D104E104F10409F078
:100C800008F45ECE730162012AE0F594E794D794EC
:100C9000C7942A95D1F781E0C81AD108E108F10874
:100CA00087E04ECE82E04CCE3FB7F8948091E501CC
:100CB0009091E601A091E701B091E80126B5A89BCB
:100CC00005C02F3F19F00196A11DB11D3FBFBA2FDE
:100CD000A92F982F8827BC01CD01620F711D811D9E
:100CE000911D42E0660F771F881F991F4A95D1F723
:100CF00008958F929F92AF92BF92CF92DF92EF9220
:100D0000FF924B015C010E9454066B017C010E9422
:100D100054066C197D098E099F09683E7340810550
:100D20009105A8F321E0821A9108A108B10888EE84
:100D3000C80E83E0D81EE11CF11C81149104A104AB
:100D4000B10429F7FF90EF90DF90CF90BF90AF9064
:100D50009F908F90089585ED8093BC008091BC009A
:100D600084FDFCCF1092C30208952091BD01260F8F
:100D70003327331F21323105ECF42091C302FC01EB
:100D800090E080E0243069F082E00895A091BD01F8
:100D90002191AC0143565E4FA40FB52FB11D2C938A
:100DA0000196861798F38091BD01680F6093BD018D
:100DB00080E0089581E008950895E0917C0280919B
:100DC0007B02E81730F4F0E0E358FD4F808190E0BB
:100DD00008958FEF9FEF089590917C0280917B02A0
:100DE0002FEF3FEF981748F4E92FF0E0E358FD4F5D
:100DF000208130E09F5F90937C02C901089580912B
:100E00007B0290917C02891B990B0895CF92DF920F
:100E1000EF92FF920F931F93CF93DF937C01CB014F
:100E20008A012091C402222389F0EB016B01C40ED8
:100E3000D51ECC15DD0569F06991D701ED91FC91C6
:100E40000190F081E02DC7010995F3CF642F0E9436
:100E5000B506C801DF91CF911F910F91FF90EF90E0
:100E6000DF90CF900895CF93DF931F92CDB7DEB779
:100E700069832091C4022223F9F02091E7022032F5
:100E800058F021E030E0FC013383228390E080E0E1
:100E90000F90DF91CF9108958091C502E82FF0E087
:100EA000EA53FD4F998190838F5F8093C5028093B1
:100EB000E70281E090E0ECCF61E0CE0101960E9474
:100EC000B506F7CFCF93C82F81E08093C40287E7A0
:100ED0008093E6021092C5021092E70264EF85E863
:100EE00093E00E9433076C2F85E893E00E9433075C
:100EF000CF910C94670190E080E00895CF92DF924B
:100F0000EF92FF92CF93DF93EC01603282E078079B
:100F1000CCF5653B710514F064EB70E0898128E83D
:100F200030E0281B310987FD3395220F331F220F34
:100F3000331F6901330FEE08FF088A8128E532E08C
:100F4000281B310987FD3395220F331F220F331FD2
:100F5000032E000C440B550B2C193D094E095F095B
:100F6000DB0177FF02C0B0E0A0E00E94E42524EBA3
:100F700030E040E050E00E94BA25C20ED31EE41ECD
:100F8000F51EB601E881EC3070F5298188E890E023
:100F9000821B910927FD9395880F991F880F991F30
:100FA000681779077CF02A8188E592E0821B910915
:100FB00027FD9395880F991F880F991F6817790748
:100FC0000CF4CB010297880F991F4FB7F8942E2F7E
:100FD00030E0F901EE0FFF1FE20FF31FE758FE4F5D
:100FE000928381834FBFDF91CF91FF90EF90DF908D
:100FF000CF9008951F93CF93DF93EC01162F888134
:101000008C3008F04EC061E0812F0E94CD038881B2
:10101000282F30E0F901EE0FFF1FE20FF31FE75812
:10102000FE4F1F736081607C612B608319821A827E
:101030002CE0622F0E94C229829FB001112430E06F
:1010400020E0AB01420F531FFA01EE0FFF1FE40F28
:10105000F51FE758FE4F908196FD16C02F5F3F4F5A
:101060002C30310571F781110FC01092800082E0A1
:10107000809381001092850010928400B19A809133
:101080006F00826080936F00E8818E2F90E0FC01FA
:10109000EE0FFF1FE80FF91FE758FE4F80818064B5
:1010A00080838881DF91CF911F910895CF93DF9343
:1010B000CDB7DEB7C454D1090FB6F894DEBF0FBE6A
:1010C000CDBF10920F0210920E02109211021092D8
:1010D0001002109213021092120221E030E03093BD
:1010E00015022093140283E090E0909317028093FE
:1010F000160210921D0210921C0210921F021092F2
:101100001E02109221021092200242E350E05093FE
:1011100019024093180210921B0210921A0248EB17
:1011200051E0509323024093220245E050E0509357
:101130002502409324029093270280932602109266
:1011400029021092280210922B0210922A0240E0EB
:1011500056E960E070E040932C0250932D026093BA
:101160002E0270932F02109231021092300240E052
:1011700052E05093330240933202109235021092A3
:10118000340290933702809336028AE090E0909385
:101190003B0280933A0210923D0210923C02109260
:1011A0003902109238028CE390E090933F028093D2
:1011B0003E029093410280934002909343028093B9
:1011C0004202909345028093440284E190E0909320
:1011D000470280934602909349028093480290937D
:1011E0004B0280934A0290934D0280934C023093BD
:1011F0004F0220934E0284E4EEE0F2E0DE0111960D
:1012000001900D928A95E1F7FE013196AE014D5B9A
:101210005F4F90E080E0E417F50731F02191820FF5
:10122000911D27FD9A95F7CF90935102809350021C
:10123000CC5BDF4F0FB6F894DEBF0FBECDBFDF91A2
:10124000CF91089548EE53E060E070E08091750121
:10125000909176010E9409046CED75E080E090E0C9
:101260000E9479068DE00C94A103CF93DF93CAE02E
:10127000D0E048EE53E060E070E080E496E00E9449
:10128000090462E370E080E090E00E9479068DE05E
:101290000E94A103219769F768EE73E080E090E077
:1012A000DF91CF910C94790649E150E060E070E065
:1012B00080917501909176010E9409046CE271E0C1
:1012C00080E090E00E9479068DE00C94A103CF921B
:1012D000DF92EF92FF920F931F93CF93DF936B01F7
:1012E0007C0124E6C216D104E104F1040CF446C0EA
:1012F00024E630E040E050E00E94BA25890164E62F
:10130000629FC001639F900D1124092E000CAA0B4F
:10131000BB0BA7019601281B390B4A0B5B0BCA01BB
:10132000B9012AE030E040E050E00E94BA25E9012E
:10133000EE24E394F12C1016110644F11C161D0640
:101340007CF401E010E00E94540962E370E080E068
:1013500090E00E9479060F5F1F4FC017D1079CF7DE
:1013600068E873E180E090E0DF91CF911F910F91E9
:10137000FF90EF90DF90CF900C9479062AE030E058
:1013800040E050E00E94BA25E901D8CF0E9422092E
:1013900062E370E080E090E00E9479063FEFE31A9C
:1013A000F30A0E151F0594F7C9CF8930910579F41A
:1013B000662341F060913E0270913F028FEA93E014
:1013C0000C947E076091460270914702F7CF8A30F5
:1013D000910571F4662339F06091400270914102E9
:1013E0008CEA93E0EDCF6091480270914902F8CF0A
:1013F0008530910571F4662339F060914202709155
:10140000430289EA93E0DCCF60914A0270914B027B
:10141000F8CF069771F4662339F060914402709119
:10142000450286EA93E0CCCF60914C0270914D0268
:10143000F8CF089580910E0290910F02892B09F048
:1014400089C080E090E0A0E8BFE38093040190931E
:101450000501A0930601B0930701609118027091F5
:101460001902072E000C880B990B0E94342720913B
:1014700004013091050140910601509107010E943D
:101480008A260E94FC26072E000C880B990B60937D
:10149000FA017093FB018093FC019093FD01809110
:1014A000220290912302909376018093750110920D
:1014B00053021092520210920502109204021092EE
:1014C00003021092020210925C0210920A02109221
:1014D0000B0210920C0210920D0210920602109252
:1014E0000702109208021092090269E070E08FEA88
:1014F00093E00E94FA076AE070E08CEA93E00E94B1
:10150000FA0765E070E089EA93E00E94FA0766E076
:1015100070E086EA93E00E94FA0760E089E090E0DC
:101520000E94D50960E08AE090E00E94D50960E061
:1015300085E090E00E94D50960E086E090E00E949E
:10154000D5091092FE011092FF0110920002109234
:101550000102089588E499EFA1E5B0E476CF909177
:10156000C3029111FCCF282F91E09093C302909376
:10157000C2023FEF3093C1021092C002380F309385
:10158000BF0290939E0290919E029E6E90939E0247
:1015900090919D02913019F510929D0290919E02BA
:1015A0009093BB009091BC0093FDF8CF95EC909385
:1015B000BC009091C3029130E1F39091C002981762
:1015C00010F42091C002AFE9B2E0EDE7F2E080E074
:1015D000821307C010927C0280937B02089595EEDF
:1015E000E6CF9D9191938F5FF3CFCF93C1E0C093EE
:1015F000C40297E79093E6021092C5021092E702A8
:10160000682F85E893E00E9433070E946701C0932A
:10161000C4021092C5021092E70281E090E00E949D
:10162000AF0A85E893E00E94EC06C82F0E9467018C
:101630008C2FCF910895CF93DF93C1E0C093C40264
:1016400097E79093E6021092C5021092E702682F86
:1016500085E893E00E9433070E946701C093C402AB
:101660001092C5021092E70282E090E00E94AF0A59
:1016700085E893E00E94EC06D82F80E0C82F85E82B
:1016800093E00E94EC06C82BD92B0E946701CE0183
:10169000DF91CF910895FC0101900020E9F7319787
:1016A000AF01481B590BBC0188EE92E00C94C701B6
:1016B000CF93DF930E94B402EC0185E391E00E9496
:1016C0004B0B8C0F9D1FDF91CF9108950F931F93AC
:1016D000CF93DF930EE012E0C0E2D0E0F801619119
:1016E0008F01CE010E94AC252196C436D105B1F7F9
:1016F000DF91CF911F910F910895EF92FF920F9379
:101700001F93CF93DF93CDB7DEB7C454D1090FB683
:10171000F894DEBF0FBECDBF0E9456088EE0E82EC3
:1017200082E0F82E00E210E0C8010E94A425F70133
:1017300081937F010F5F1F4F04361105A9F7409178
:1017400050025091510284E4EEE0F2E0DE01119685
:1017500001900D928A95E1F7FE013196BE016D5B15
:101760007F4F30E020E0E617F70731F08191280F36
:10177000311D87FD3A95F7CF81E04217530709F0F5
:1017800080E0CC5BDF4F0FB6F894DEBF0FBECDBF5D
:10179000DF91CF911F910F91FF90EF9008958F925D
:1017A0009F92AF92BF92CF92DF92FF920F931F93BF
:1017B000CF93DF9300D000D01F92CDB7DEB72AE0E1
:1017C000AE014F5F5F4F6A010E947225F6010190E2
:1017D0000020E9F73197FE2EFC1868EB7BE080E0F3
:1017E00090E00E94790656018A2D8C198F15F0F42D
:1017F00068EE73E080E090E00E947906F5010191C7
:101800005F01005309F40AE010E0912C812C0E9442
:101810005409FFEF8F1A9F0A801691062CF76AEF82
:1018200070E080E090E00E947906F1CF0F900F9079
:101830000F900F900F90DF91CF911F910F91FF901C
:10184000DF90CF90BF90AF909F908F900895CF92F0
:10185000DF92EF92FF920F931F93CF93DF93CDB759
:10186000DEB7CC5DD1090FB6F894DEBF0FBECDBF99
:101870008C010E944B0B85E391E00E944B0BD80139
:101880008C918536A1F484EE91E00E94580BC452ED
:10189000DF4F0FB6F894DEBF0FBECDBFDF91CF9103
:1018A0001F910F91FF90EF90DF90CF9008958237B6
:1018B00019F482ED91E0E9CF873719F480EC91E0DB
:1018C000E4CF8E3619F48EEA91E0DFCF8C3619F42E
:1018D0008CE991E0DACF833619F48AE891E0D5CF2C
:1018E000813619F488E791E0D0CF823609F0C7C27B
:1018F0008FE691E00E94B4021A821982FE013396AB
:1019000084E9DF011D928A95E9F78E0109561F4F80
:10191000F8011192119288E0DF011D928A95E9F792
:101920000E947D0B811104C08AEE90E00E94B402F7
:1019300068E371E0CE0101960E94D42980910F02E4
:101940008F9380910E028F9384E4E82E81E0F82E2D
:10195000FF92EF921F930F930E94DF29B801CE01EF
:1019600001960E94D429809111028F9380911002D8
:101970008F93FF92EF921F930F930E94DF29B8017C
:10198000CE0101960E94D429809113028F938091F9
:1019900012028F93FF92EF921F930F930E94DF2901
:1019A000B801CE0101960E94D429809115028F932F
:1019B000809114028F93FF92EF921F930F930E94D6
:1019C000DF29B801CE0101960E94D4298091170227
:1019D0008F93809116028F93FF92EF921F930F9334
:1019E0000E94DF29B801CE0101960E94D42980917E
:1019F0001B028F9380911A028F93FF92EF921F9395
:101A00000F930E94DF290FB6F894DEBF0FBECDBF43
:101A1000B801CE0101960E94D429809119028F93BA
:101A2000809118028F93FF92EF921F930F930E9461
:101A3000DF29B801CE0101960E94D42968E471E043
:101A4000CE0101960E94D4296BE671E0CE01019689
:101A50000E94D4291F9281E08F93FF92EF921F93EF
:101A60000F930E94DF29B801CE0101960E94D4296C
:101A70001F9283E08F93FF92EF921F930F930E9428
:101A8000DF29B801CE0101960E94D42980911D0260
:101A90008F9380911C028F93FF92EF921F930F936D
:101AA0000E94DF29B801CE0101960E94D4298091BD
:101AB0001F028F9380911E028F93FF92EF921F93CC
:101AC0000F930E94DF29B801CE0101960E94D4290C
:101AD000809121028F93809120028F93FF92EF9249
:101AE0001F930F930E94DF290FB6F894DEBF0FBE3D
:101AF000CDBFB801CE0101960E94D4298091230266
:101B00008F93809122028F93FF92EF921F930F93F6
:101B10000E94DF29B801CE0101960E94D42980914C
:101B200025028F93809124028F93FF92EF921F934F
:101B30000F930E94DF29B801CE0101960E94D4299B
:101B4000809127028F93809126028F93FF92EF92CC
:101B50001F930F930E94DF29B801CE0101960E94C6
:101B6000D429809129028F93809128028F93FF922C
:101B7000EF921F930F930E94DF29B801CE010196C7
:101B80000E94D42980912B028F9380912A028F93F7
:101B9000FF92EF921F930F930E94DF29B801CE01AD
:101BA00001960E94D42980912F028F9380912E025A
:101BB0008F9380912D028F9380912C028F9382E5D9
:101BC00091E09F938F931F930F930E94DF290FB68D
:101BD000F894DEBF0FBECDBFB801CE0101960E94C2
:101BE000D429809131028F93809130028F93FF929C
:101BF000EF921F930F930E94DF29B801CE01019647
:101C00000E94D429809133028F93809132028F9366
:101C1000FF92EF921F930F930E94DF29B801CE012C
:101C200001960E94D429809135028F9380913402CD
:101C30008F93FF92EF921F930F930E94DF29B801B9
:101C4000CE0101960E94D429809137028F93809112
:101C500036028F93FF92EF921F930F930E94DF291A
:101C6000B801CE0101960E94D429809139028F9348
:101C7000809138028F93FF92EF921F930F930E94EF
:101C8000DF29B801CE0101960E94D42980913B0240
:101C90008F9380913A028F93FF92EF921F930F934D
:101CA0000E94DF290FB6F894DEBF0FBECDBFB8018A
:101CB000CE0101960E94D42980913D028F9380919C
:101CC0003C028F93FF92EF921F930F930E94DF29A4
:101CD000B801CE0101960E94D42980913F028F93D2
:101CE00080913E028F93FF92EF921F930F930E9479
:101CF000DF29B801CE0101960E94D42980914102CA
:101D00008F93809140028F93FF92EF921F930F93D6
:101D10000E94DF29B801CE0101960E94D42980914A
:101D200043028F93809142028F93FF92EF921F9311
:101D30000F930E94DF29B801CE0101960E94D42999
:101D4000809145028F93809144028F93FF92EF928E
:101D50001F930F930E94DF29B801CE0101960E94C4
:101D6000D429809147028F93809146028F93FF92EE
:101D7000EF921F930F930E94DF290FB6F894DEBFF6
:101D80000FBECDBFB801CE0101960E94D42980912B
:101D900049028F93809148028F93FF92EF921F9395
:101DA0000F930E94DF29B801CE0101960E94D42929
:101DB00080914B028F9380914A028F93FF92EF9212
:101DC0001F930F930E94DF29B801CE0101960E9454
:101DD000D42980914D028F9380914C028F93FF9272
:101DE000EF921F930F930E94DF29B801CE01019655
:101DF0000E94D42980914F028F9380914E028F933D
:101E0000FF92EF921F930F930E94DF29B801CE013A
:101E100001960E94D429FE0131960FB6F894DEBFD8
:101E20000FBECDBF90E080E02191820F911D27FD74
:101E30009A950E171F07C1F799279F938F9387E5F0
:101E400091E09F938F931F930F930E94DF29B80116
:101E5000CE0101960E94D4298CE591E00E944B0BA3
:101E6000CE0101960E944B0B88E691E00E94B402DD
:101E70000F900F900F900F900F900F9008CD833719
:101E800009F082C1C552DF4F19830883CB5DD04072
:101E90001A821982FE01339682E6DF011D928A952D
:101EA000E9F7D12CC12CF12CE12CAE0145525F4F4A
:101EB0006BE671E0C552DF4F88819981CB5DD040E0
:101EC0000E942E258C01009709F41BC1F701319760
:101ED000E132F10508F030C0E059F04F0C94CE2902
:101EE000910FA00FA70FAE0FB50FBC0FC30FCA0FF6
:101EF000D10FD80FDF0FE60FED0FF40FFB0F02101D
:101F00000D1014101B1022102910301037103E1025
:101F100045104C1053105A10611068106F10761055
:101F20007D100E94E92490930F0280930E02B80165
:101F3000CE0101960E94D429BFEFEB1AFB0AB5CF60
:101F40000E94E9249093110280931002F0CF0E9426
:101F5000E9249093130280931202E9CF0E94E924AE
:101F60009093150280931402E2CF0E94E92490938B
:101F7000170280931602DBCF0E94E9249093190286
:101F800080931802D4CF0E94E92490931B0280937F
:101F90001A02CDCF0E94072570931D0260931C0288
:101FA000C6CF0E94072570931F0260931E02BFCF09
:101FB0000E9407257093210260932002B8CF0E94EF
:101FC000E9249093230280932202B1CF0E94E92456
:101FD0009093250280932402AACF0E940725709334
:101FE000270260932602A3CF0E94E924909329023E
:101FF000809328029CCF0E94E92490932B02809327
:102000002A0295CF0E94072560932C0270932D021F
:1020100080932E0290932F028ACF0E94E9249093FE
:1020200031028093300283CF0E94E92490933302DF
:10203000809332027CCF0E94E924909335028093F2
:10204000340275CF0E94E9249093370280933602C0
:102050006ECF0E940725709339026093380267CFD4
:102060000E94E92490933B0280933A0260CF0E9441
:10207000E92490933D0280933C0259CF0E94E924C9
:1020800090933F0280933E0252CF0E94E9249093A6
:102090004102809340024BCF0E94E9249093430277
:1020A0008093420244CF0E94E9249093450280939A
:1020B00044023DCF0E94E924909347028093460258
:1020C00036CF0E94E92490934902809348022FCF93
:1020D0000E94E92490934B0280934A0228CF0E94E9
:1020E000E92490934D0280934C0221CF0E94E92471
:1020F00090934F0280934E021ACF0E94E9246C0104
:102100001BCFE0E2EE16F1042CF48CE591E00E9486
:10211000B402BDCBFE0131969E012B593F4F90E09A
:1021200080E04191840F911D47FD9A952E173F073E
:10213000C1F78C151D0449F784E4EEE0F2E0DE01FE
:10214000A956BF4F01900D928A95E1F7FE01E9561D
:10215000FF4FAE0147525F4F90E080E04E175F07A0
:1021600031F02191820F911D27FD9A95F7CF909321
:102170005102809350020E94660B0E947D0B0E94C8
:102180001A0A82E691E0C3CF843649F40E945608C9
:102190000E94660B0E947D0B0E941A0A78CB88363B
:1021A00019F486E591E0B3CF863631F481E080936F
:1021B000650280E591E0ABCF8B36A1F511968C914D
:1021C00089831A82CE0101960E94072597FD5FCB75
:1021D000FF24F394F8018281863409F4F12CCE01B6
:1021E00001960E94E92482309105A1F04CF40197F8
:1021F00009F04DCB6F2D89E090E00E94D50947CBC7
:102200008330910559F0049709F041CB6F2D86E09A
:1022100090E0F3CF6F2D8AE090E0EFCF6F2D85E057
:1022200090E0EBCF8937A9F411968C91813351F46A
:102230008DE391E00E94B40281E08093740183E217
:1022400091E065CF89E291E00E94B402109274019E
:10225000F6CF8D3669F4F8018181813329F410922B
:1022600065028DE191E053CF81E080936502F9CF63
:10227000873629F41092650287E191E048CF8437D0
:1022800039F40E9456080E94660B87E091E03FCF28
:10229000893609F4FCCA803219F481E091E037CF25
:1022A00087EF90E00E94B402D8016C9188EE92E032
:1022B0000E94670285E391E00E944B0BE8CA2F92CF
:1022C0003F924F925F926F927F928F929F92AF92C6
:1022D000BF92CF92DF92EF92FF920F931F93CF9313
:1022E000DF93CDB7DEB7C35DD1090FB6F894DEBF7B
:1022F0000FBECDBF1A821982FE01339626ECDF0194
:102300001D922A95E9F78E0107531F4FF80111928C
:10231000119228E0DF011D922A95E9F720917401BE
:10232000222309F49EC17A01892E982EA72EB62E5B
:102330000E945B01409070015090710160907201A9
:1023400070907301DC01CB0184199509A609B709C6
:10235000A701FF0C660B770B481759076A077B0725
:1023600008F07FC10E945B0160937001709371015E
:10237000809372019093730160905C02B09153025C
:10238000CD52DF4FB883C35DD04020905D023090C6
:102390005E0240905F025090600280915202811173
:1023A0007AC1712CC12CD12C6EE571E0CE01019661
:1023B0000E94D4295F924F923F922F9284E4E82E9C
:1023C00081E0F82EFF92EF921F930F930E94DF2976
:1023D000B801CE0101960E94D4291F926F92FF92FC
:1023E000EF921F930F930E94DF29B801CE0101964F
:1023F0000E94D4291F92CD52DF4F8881C35DD04007
:102400008F93FF92EF921F930F930E94DF29B801E1
:10241000CE0101960E94D42980910D028F93809164
:102420000C028F9380910B028F9380910A028F93FD
:10243000FF92EF921F930F930E94DF29B801CE0104
:1024400001960E94D4291F927F92FF92EF921F93D0
:102450000F930E94DF290FB6F894DEBF0FBECDBFE9
:10246000B801CE0101960E94D429809109028F9370
:10247000809108028F93809107028F9380910602CA
:102480008F93FF92EF921F930F930E94DF29B80161
:10249000CE0101960E94D429DF92CF92FF92EF9253
:1024A0001F930F930E94DF29B801CE0101960E946D
:1024B000D4298F929F92AF92BF92FF92EF921F9377
:1024C0000F930E94DF29B801CE0101960E94D42902
:1024D00069E671E0CE0101960E94D42969E671E0B7
:1024E000CE0101960E94D42969E671E0CE010196E1
:1024F0000E94D42969E671E0CE0101960E94D42998
:1025000069E671E0CE0101960E94D4298EE20E9414
:1025100062078FE19EE40197F1F700C0000086EFAB
:102520000E941B0B9C0150E040E08091C7039091FA
:10253000C803281B390B41095109A091C503B0916B
:10254000C6030E94D9250E94342720E030E040E0F5
:1025500058E30E94C0270E94FC264B015C01609159
:10256000BF037091C003072E000C880B990B0E94CB
:10257000342720E030E040E055E40E94C0272B01E2
:102580003C016091C1037091C203072E000C880BBF
:10259000990B680D791D8A1D9B1D0E9434279B0194
:1025A000AC01C301B2010E948A260E94FC26680D7C
:1025B000791D8A1D9B1D685F7F4F8F4F9F4F0E9423
:1025C000342720E030E040E85DE30E94C02720E0AF
:1025D00030E040E251E40E948A260E94FC267F936C
:1025E0006F93FF92EF921F930F930E94DF29B80120
:1025F000CE0101960E94D429FE0131960FB6F894BF
:10260000DEBF0FBECDBF90E080E02191820F911D13
:1026100027FD9A950E171F07C1F799279F938F9350
:102620008DE691E09F938F931F930F930E94DF2974
:10263000B801CE0101960E94D42969E571E0CE016E
:1026400001960E94D4298CE591E00E944B0BCE01AB
:1026500001960E944B0B0F900F900F900F900F90D0
:102660000F90CD52DF4F0FB6F894DEBF0FBECDBF37
:10267000DF91CF911F910F91FF90EF90DF90CF905E
:10268000BF90AF909F908F907F906F905F904F9092
:102690003F902F90089581E0D12CBAE02B163104A1
:1026A000410451040CF080E0C82E772473947CCE52
:1026B0004F925F926F927F928F929F92AF92BF9252
:1026C000CF92DF92EF92FF921F93CF93DF9300D0D0
:1026D00000D000D0CDB7DEB78EE20E9462078FE156
:1026E0009EE40197F1F700C0000086EF0E941B0BEB
:1026F0004C01B12CA12C8091B2038295880F880FD8
:10270000807C8C5C0E9462078091B203811109C2B7
:10271000AFE1BEE41197F1F700C0000086EF0E9420
:102720001B0BB0E0A0E0CC24D82EE92EFA2E88EFC7
:102730000E94F50AC82A1091B203412F50E05E832F
:102740004D838091C7039091C803A5019401281B74
:10275000390B41095109A091C503B091C6030E94EC
:10276000D9250E94342720E030E040E058E30E9461
:10277000C0270E94FC262B013C016091BF03709191
:10278000C003072E000C880B990B0E94342720E011
:1027900030E040E055E40E94C0274B015C016091AD
:1027A000C1037091C203072E000C880B990B640DB6
:1027B000751D861D971D0E9434279B01AC01C50124
:1027C000B4010E948A260E94FC26460E571E681EEF
:1027D000791E50EA451A5FE0550A61087108A301A5
:1027E0009201C301B2010E94B2299B01AC01ACE08D
:1027F0005595479537952795AA95D1F729833A831B
:102800004B835C83A091B703B091B803A3019201FD
:102810000E94E4254B015C01BDE0B594A794979418
:102820008794BA95D1F7A091B903B091BA032981E1
:102830003A814B815C810E94E4259C01552737FD3C
:102840005095452F280D391D4A1D5B1D2E5F3F4FAA
:102850004F4F5F4F62E055954795379527956A959D
:10286000D1F730584F4F5F4FA091C303B091C403CD
:102870000E94D9254B015C017FE0B694A794979400
:1028800087947A95D1F788E090E04D815E81841B32
:10289000950B04C0F694E794D794C7948A95D2F721
:1028A000A091BB03B091BC0329813A814B815C812B
:1028B0000E94E4259B01AC01EBE0559547953795C7
:1028C0002795EA95D1F729833A834B835C83A091BE
:1028D000B503B091B603A30192010E94E425FBE089
:1028E0009595879577956795FA95D1F729813A81DE
:1028F0004B815C81620F731F841F951F4090B3034F
:102900005090B403052C000C66087708A2E0440C34
:10291000551C661C771CAA95D1F7640D751D861D84
:10292000971D012E04C0660F771F881F991F0A94F8
:10293000D2F76E5F7F4F8F4F9F4F24E030E040E033
:1029400050E00E94BA25D701C601821B930BA40B4D
:10295000B50B9C01AD0160E573EC80E090E004C034
:1029600096958795779567951A95D2F70E94B22923
:1029700097FDEDC0660F771F881F991FA501940171
:102980000E94EC2569017A019927F7FC9A958F2D11
:102990007E2D6D2D9B01AC010E94B2299B01AC01E3
:1029A000AEEDBBE00E94D9254B015C01A3E4B3EE80
:1029B000A70196010E94E725BC01992777FD909514
:1029C000892F4501BB2497FCB094AB2C680D791D71
:1029D0008A1D9B1D6153714F8F4F9F4F44E095950A
:1029E0008795779567954A95D1F76C0D7D1D8E1D5E
:1029F0009F1D0E94342720E836EE45EC57E40E94E4
:102A00008A2621E03EED42E45EE30E942D286983A0
:102A10007A838B839C834090ED015090EE0160900F
:102A2000EF017090F0012091F1013091F20140919D
:102A3000F3015091F4016091E9017091EA018091F4
:102A4000EB019091EC010E941E266B017C0120910C
:102A5000F5013091F6014091F7015091F8010E9483
:102A60001E269B01AC0160E070E080E89FE30E94BD
:102A70008A26A70196010E94C0274B015C0129818B
:102A80003A814B815C8160E070E080E89FE30E94C6
:102A90001D2620E03AE24DE257E40E94C027A30140
:102AA00092010E941D26A50194010E94C027A30146
:102AB00092010E941E262B013C014092ED01509292
:102AC000EE016092EF017092F001A501940160E0C7
:102AD00070E080E89FE30E941D26A70196010E94F6
:102AE000C0276093E9017093EA018093EB01909312
:102AF000EC01C301B20126960FB6F894DEBF0FBEFB
:102B0000CDBFDF91CF911F91FF90EF90DF90CF90DD
:102B1000BF90AF909F908F907F906F905F904F90FD
:102B20000895813029F48FEF9CE70197F1F7F4CDF8
:102B3000823029F4AFEBBAED1197F1F7EDCDBFEF8D
:102B400024E431E0B15020403040E1F7E5CDA5016B
:102B500094010E94EC2569017A01CC0CDD1CEE1C6D
:102B6000FF1C12CF1F920F920FB60F9211242F93BA
:102B70003F934F935F936F937F938F939F93AF9305
:102B8000BF93EF93FF9380916F0290917002A09199
:102B90007102B0917202892B8A2B8B2BD1F190910B
:102BA0006A02E0916B02F0916C0280818927808338
:102BB00080916F0290917002A0917102B0917202A7
:102BC000181619061A061B069CF480916F02909144
:102BD0007002A0917102B09172020197A109B1092E
:102BE00080936F0290937002A0937102B09372026F
:102BF000FF91EF91BF91AF919F918F917F916F91D5
:102C00005F914F913F912F910F900FBE0F901F90AA
:102C10001895809108010E94A103EACF1F920F929C
:102C20000FB60F9211242F933F934F935F936F939F
:102C30007F938F939F93AF93BF93EF93FF9388EE10
:102C400092E00E944502FF91EF91BF91AF919F9159
:102C50008F917F916F915F914F913F912F910F9045
:102C60000FBE0F901F9018951F920F920FB60F92E4
:102C700011242F938F939F93EF93FF93E091F8028A
:102C8000F091F9028081E091FE02F091FF0282FD55
:102C90001BC09081809101038F5F8F73209102038D
:102CA000821741F0E0910103F0E0E851FD4F958F6C
:102CB00080930103FF91EF919F918F912F910F903E
:102CC0000FBE0F901F9018958081F4CF1F920F9226
:102CD0000FB60F9211242F933F938F939F93AF932F
:102CE000BF938091E1019091E201A091E301B09145
:102CF000E4013091E00123E0230F2D3758F50196D0
:102D0000A11DB11D2093E0018093E1019093E201A8
:102D1000A093E301B093E4018091E5019091E60175
:102D2000A091E701B091E8010196A11DB11D80932A
:102D3000E5019093E601A093E701B093E801BF910C
:102D4000AF919F918F913F912F910F900FBE0F9058
:102D50001F90189526E8230F0296A11DB11DD2CF12
:102D60001F920F920FB60F9211242F933F934F9300
:102D70005F936F937F938F939F93AF93BF93EF93E3
:102D8000FF938091B900887F803609F44AC0F0F53E
:102D9000883209F4A7C018F5803109F49BC0B8F453
:102DA000882309F4F9C0883009F494C0FF91EF91A9
:102DB000BF91AF919F918F917F916F915F914F9153
:102DC0003F912F910F900FBE0F901F901895883153
:102DD00009F488C0803251F78093C10214C0803456
:102DE00009F49DC040F48033B9F38833F9F6809339
:102DF000C10285ECB0C0803509F485C0883509F47E
:102E000096C0883499F60E94AB06D0CF883909F471
:102E10008CC038F5883729F050F4883611F08037A7
:102E200029F683E08093C3021092DF0157C08838EF
:102E300009F47BC0803919F0803809F0B7CF809150
:102E4000DF01803208F071C0E091DF0181E08E0F78
:102E50008093DF018091BB00F0E0E154FE4F80835E
:102E60003DC0803B39F0E0F4803A09F479C0883AFB
:102E700009F09CCF84E08093C3021092BE011092AF
:102E8000BD01E0916802F091690209958091BD0150
:102E900081110FC081E08093BD0110929D0109C096
:102EA000803C09F4A6CF883C09F4A3CF883B09F005
:102EB0007DCFE091BE0181E08E0F8093BE01F0E0F6
:102EC000E356FE4F80818093BB009091BE018091BC
:102ED000BD0129C080919E028093BB0085EC809348
:102EE000BC0064CF9091C0028091BF02981758F542
:102EF000E091C00281E08E0F8093C002F0E0E156C5
:102F0000FD4F8081E9CFE091C00281E08E0F809378
:102F1000C0028091BB00F0E0E156FD4F80839091AC
:102F2000C0028091BF029817C8F285E8D8CFE0911F
:102F3000C00281E08E0F8093C0028091BB00F0E060
:102F4000E156FD4F80838091C20281115CCF81E008
:102F500080939D0284EA8093BC001092C30226CF26
:102F600085EC8093BC001092C3028091DF01803217
:102F700030F4E091DF01F0E0E154FE4F1082609107
:102F8000DF0170E0E0916602F09167028FEB91E063
:102F900009951092DF010ACF1092C10234CF1F921F
:102FA0000F920FB60F9211242F933F934F935F937D
:102FB0006F937F938F939F93AF93BF93CF93DF9341
:102FC000EF93FF9380917701C0917801D0E087FF64
:102FD00024C01092850010928400809177018F5F49
:102FE0008093770180917701082E000C990B8C1744
:102FF0009D0724F4809177018C30C4F18091840086
:1030000090918500049680349C4908F47AC08091A0
:10301000840090918500049676C080917701082EF7
:10302000000C990B8C179D07C4F6E09177018E2F49
:10303000EE0F990BFC01EE0FFF1FE80FF91FE75889
:10304000FE4F808186FFC9CFE09177018E2FEE0F72
:10305000990BFC01EE0FFF1FE80FF91FE758FE4F19
:10306000808160E08F730E944103B7CF209184007C
:1030700030918500E09177018E2FEE0F990BFC01C6
:10308000EE0FFF1FE80FF91FE758FE4F8181928175
:10309000820F931F9093890080938800E0917701BD
:1030A0008E2FEE0F990BFC01EE0FFF1FE80FF91F9B
:1030B000E758FE4F808186FF11C0E09177018E2F87
:1030C000EE0F990BFC01EE0FFF1FE80FF91FE758F9
:1030D000FE4F808161E08F730E944103FF91EF9169
:1030E000DF91CF91BF91AF919F918F917F916F9120
:1030F0005F914F913F912F910F900FBE0F901F90B6
:10310000189580E49CE990938900809388008FEF64
:1031100080937701E3CFFC01909178019C3098F483
:1031200081E0890F809378019083892F90E0FC01E2
:10313000EE0FFF1FE80FF91FE758FE4F88EB9BE0EB
:103140009283818308958FEF80830895E8EEF2E003
:103150001382128288EE93E0A0E0B0E0848395832E
:10316000A683B78325E131E03183208325EC30E06D
:103170003587248724EC30E03787268720EC30E041
:10318000318B208B21EC30E0338B228B22EC30E032
:10319000358B248B26EC30E0378B268B118E128EEC
:1031A000138E148EE5E8F3E01382128284839583F4
:1031B000A683B78387E291E091838083EFE9F3E010
:1031C00010828BE591E096838583E8E9F3E0108235
:1031D00096838583E1E9F3E01082968385838FEA05
:1031E00093E00E948B188CEA93E00E948B1889EA86
:1031F00093E00E948B1886EA93E00C948B18CF938F
:10320000DF93CDB7DEB7C651D1400FB6F894DEBF1D
:103210000FBECDBF789484B5826084BD84B58160D3
:1032200084BD85B5826085BD85B5816085BD809191
:103230006E00816080936E00109281008091810009
:103240008260809381008091810081608093810001
:10325000809180008160809380008091B1008460C3
:103260008093B1008091B00081608093B000809124
:103270007A00846080937A0080917A0082608093E3
:103280007A0080917A00816080937A0080917A0040
:10329000806880937A001092C1000E947D0B809319
:1032A000F901811104C00E9456080E94660B8091AA
:1032B0002C0290912D02A0912E02B0912F028C32FF
:1032C00021E09207A105B10509F452C0803B34E02A
:1032D0009307A105B10509F44BC0803649E0940776
:1032E000A105B10509F444C0803C52E19507A10550
:1032F000B105F1F18038E5E29E07A105B105C1F104
:103300008034F8E39F07A105B10591F181152BE405
:103310009207A105B10561F1803830E79307A10557
:10332000B10531F1811546E99407A105B10501F117
:10333000811551EE9507A105B105D1F08115E2EC9B
:103340009E07E1E0AE07B10599F081159448A340CE
:10335000B10571F080E096E9A0E0B0E080932C0226
:1033600090932D02A0932E02B0932F020E94660B21
:103370008EE192E00E94B4020E941A0A82ED90E06F
:10338000A0E8B0E48093F5019093F601A093F701D3
:10339000B093F8018CE69FECACE4BEE38093F101BE
:1033A0009093F201A093F301B093F4011092ED0118
:1033B0001092EE011092EF011092F0011092E901CB
:1033C0001092EA011092EB011092EC010E946F033F
:1033D00080E096E9A0E0B0E080932C0290932D026B
:1033E000A0932E02B0932F02E091F802F091F9021F
:1033F00082E08083E091F402F091F5021082E09186
:10340000F602F091F70283E3808310920003E091CB
:10341000FC02F091FD0286E08083E091FA02F091D7
:10342000FB02808180618083E091FA02F091FB02CF
:10343000808188608083E091FA02F091FB028081B4
:1034400080688083E091FA02F091FB0280818F7D99
:10345000808362E080E00E94CD038091300284305E
:1034600008F083E08093B2030E946F0380ED0E9416
:10347000F50A853509F04DC08AEA0E941B0B90932E
:10348000B4038093B3038CEA0E941B0B9093B603A2
:103490008093B5038EEA0E941B0B9093B803809330
:1034A000B70380EB0E941B0B9093C4038093C3036C
:1034B00082EB0E941B0B9093C6038093C50384EBA1
:1034C0000E941B0B9093C8038093C70386EB0E9456
:1034D0001B0B9093BA038093B90388EB0E941B0BDC
:1034E0009093BC038093BB038AEB0E941B0B9093C9
:1034F000BE038093BD038CEB0E941B0B9093C00313
:103500008093BF038EEB0E941B0B9093C2038093AA
:10351000C10361E08DE00E94CD0360E088E00E947D
:10352000CD0360E087E00E94CD0360E08DE00E9463
:1035300041030E9422090E9454090E9454090E94DA
:1035400054098091240290912502092E000CAA0BA7
:10355000BB0B8093000190930101A0930201B093F3
:1035600003018091F901811125C084E690E0A0E07B
:10357000B0E08093FA019093FB01A093FC01B0931B
:10358000FD0188E00E9418038C0187E00E94180367
:103590000115110509F057C1892B61F482E390E010
:1035A000A0E0B0E08093FA019093FB01A093FC01AE
:1035B000B093FD0102E310E00E945813015011097D
:1035C000D9F70AE010E0C12CD12C76010E945813E3
:1035D0004B015C01C701B6010E943427A50194018B
:1035E0000E941E260E94FC266B017C0162E370E0B3
:1035F00080E090E00E9479060150110939F7C70177
:10360000B6010E94342720E030E040E251E40E94FD
:103610008A260E94FC266093610270936202809366
:103620006302909364021092FE011092FF011092C7
:1036300000021092010280913A0290913B02092E01
:10364000000CAA0BBB0B8093540290935502A093DD
:103650005602B0935702C450DF4F19821882CC5FD4
:10366000D04000E29E0127533F4FC750DF4F3983C0
:103670002883C95FD0400B3311F40C94C32480918C
:10368000650281110C9482240E9458136B017C0105
:103690006091610270916202809163029091640274
:1036A0000E9434279B01AC01C701B6010E941D2670
:1036B0000E94FC2660935D0270935E0280935F021D
:1036C0009093600280915C02882391F00E945B01DC
:1036D000C0905802D0905902E0905A02F0905B02DC
:1036E0006C197D098E099F0948EC50E00E945F111A
:1036F00040915D0250915E0260915F0270916002A4
:103700008091540290915502A0915602B0915702B7
:1037100084179507A607B7070CF4A2C044EF51E041
:1037200060E070E0CB010E945F110E945B014B01E1
:103730005C0180915302882311F40C9482248091BF
:103740005202882311F40C94822488EE92E00E94A5
:103750002502892B01F188EE92E00E940302082FD6
:103760008B3311F40C943C248A30A9F0E1E0F0E0B2
:10377000EC0FFD1FC450DF4F48815981CC5FD04012
:10378000E40FF51F80834F5F5F4FC450DF4F5983B5
:103790004883CC5FD0400E945B01681979098A098F
:1037A0009B09613177428105910518F20E94350924
:1037B00060910A0270910B0280910C0290910D02AF
:1037C000C0900401D0900501E0900601F09007013F
:1037D0002091100230911102232B11F00C946A24D5
:1037E0000E943427A70196010E94C0270E94FC2650
:1037F0000E9467090E9435096091060270910702D4
:103800008091080290910902C0900401D0900501B6
:10381000E0900601F0900701209110023091110212
:10382000232B11F00C9476240E943427A7019601D3
:103830000E94C0270E94FC260E9467090E945B012B
:103840004B015C01A8CF0130110509F0B3CE009700
:1038500011F00C94D72486E990E0A0E0B0E0A2CE6D
:1038600080E1C750DF4FA881B981C95FD0401D9268
:103870008A95E9F7CB50DF4F188219821A821B8292
:10388000C55FD040CF50DF4F188219821A821B8249
:10389000C15FD04080911C0290911D02C751DF4F43
:1038A00099838883C95ED04080911E0290911F0247
:1038B000C551DF4F99838883CB5ED0408091200231
:1038C00090912102C351DF4F99838883CD5ED04010
:1038D0008091380290913902C151DF4F99838883DA
:1038E000CF5ED0406091120270911302CF51DF4F32
:1038F00079836883C15ED0404091140250911502D3
:10390000CD51DF4F59834883C35ED04020911602CA
:1039100030911702CB51DF4F39832883C55ED040E9
:103920008091360290913702C951DF4F9983888385
:10393000C75ED04018E0E9E0F1E0DE01A752BF4FDA
:1039400001900D921A95E1F76330710541F069E03D
:1039500070E0C752DF4F79836883C95DD040433040
:10396000510541F04AE050E0C552DF4F598348838A
:10397000CB5DD0402330310541F025E030E0C3522B
:10398000DF4F39832883CD5DD040039741F086E037
:1039900090E0C152DF4F99838883CF5DD040CB5EEA
:1039A000DE4F1882C551D140C150DF4F1882CF5F22
:1039B000D040C250DF4F1882CE5FD040212CC05083
:1039C000DF4F1882C050D140CB5FDE4F1882198282
:1039D0001A821B82C550D140C35FDE4F1882198204
:1039E0001A821B82CD50D140C75FDE4F18821982E8
:1039F0001A821B82C950D140CF5EDE4F18821982D5
:103A00001A821B82C151D14011E00E9458134B0110
:103A10005C016091610270916202809163029091F9
:103A200064020E9434279B01AC01C501B4010E94CD
:103A30001D260E94FC2660935D0270935E028093B7
:103A40005F029093600280915C02882391F00E9453
:103A50005B018090580290905902A0905A02B09059
:103A60005B02681979098A099B0948EC50E00E94B9
:103A70005F1140915D0250915E0260915F02709112
:103A800060028091540290915502A0915602B0912B
:103A9000570284179507A607B7073CF580915C028B
:103AA000811123C08091520281111FC010935C02CA
:103AB00048EC50E060E070E0CB010E945F110E9492
:103AC0005B01609358027093590280935A0290935D
:103AD0005B0280911A0290911B02019731F421E060
:103AE000C050DF4F2883C050D14080915C028823B2
:103AF00009F48BCFC12CD12C7601812C912C54014F
:103B0000CA5EDE4F1882C651D14011E072C2CA5E51
:103B1000DE4F8880C651D140811007CE75CFC55089
:103B2000DF4F9880CB5FD040C150DF4F9882CF5F8E
:103B3000D040EEC2C092FE01D092FF01E09200029E
:103B4000F09201028091240290912502092E000C2E
:103B5000AA0BBB0B8093000190930101A09302017B
:103B6000B09303012110B0C5C0905D02D0905E02F9
:103B7000E0905F02F09060028091FA019091FB0169
:103B8000A091FC01B091FD01C816D906EA06FB061A
:103B900008F001C180915302882309F4FCC0C2508F
:103BA000DF4F8880CE5FD040811016C080915202D6
:103BB000811107C70E945B01C75FDE4F688379836D
:103BC0008A839B83C950D140C0920602D0920702DB
:103BD000E0920802F0920902A0905202C250DF4F18
:103BE000A882CE5FD040A110ECC66E0125EFC20EB8
:103BF000D11CF12CE12CD6018D916D01811139C0C0
:103C00000E945B01AB01BC01C75FDE4F88809980D9
:103C1000AA80BB80C950D140481959096A097B095B
:103C2000E9EEF0E0EC0FFD1FEE0DFF1D80819181AC
:103C3000092E000CAA0BBB0B481759076A077B0714
:103C4000C0F0E1EEF0E0EC0FFD1FEE0DFF1D8081F6
:103C50009181892B71F461E0E9EDF0E0EC0FFD1F3B
:103C6000EE0DFF1D808191810E94D509F6013197EB
:103C7000108322E0E20EF11C38E0E316F10409F0B3
:103C8000BACF6E0149EEC40ED11CF12CE12C0E947A
:103C90005B01D6012D913D916D01AB01BC01C75F68
:103CA000DE4F88809980AA80BB80C950D1404819D6
:103CB00059096A097B09C90188519C4F092E000CDA
:103CC000AA0BBB0B481759076A077B0760F151EF36
:103CD000A52EB12CAC0EBD1EAE0CBF1CD5018C9117
:103CE000811121C0C701880F991FE1EEF0E0EC0FB0
:103CF000FD1FE80FF91F20813181232BA1F42091B2
:103D00004E0230914F02232B61F4E9EDF0E0EC0F0D
:103D1000FD1F8E0F9F1F60E0DC018D919C910E9422
:103D2000D509F5011083FFEFEF1AFF0A24E0E21630
:103D3000F10409F0ACCFFE01EF50FF4FDE01AF51AF
:103D4000BF4FCF010496432D2191211106C02D9123
:103D50003C911197232B09F440E012968E179F0790
:103D600099F7409352020E945B01C0905802D09094
:103D70005902E0905A02F0905B026C197D098E099D
:103D80009F0948EC50E00E945F11C250DF4F38821B
:103D9000CE5FD04007C0C250DF4F9880CE5FD0408A
:103DA00091101ACFC150DF4F8880CF5FD04088205C
:103DB00009F4D6C0809103028111D2C06E0125EFB3
:103DC000C20ED11CF12CE12CD6018D916D01811117
:103DD00039C00E945B01AB01BC01C35FDE4F88802C
:103DE0009980AA80BB80CD50D140481959096A09F1
:103DF0007B09E9EEF0E0EC0FFD1FEE0DFF1D808169
:103E00009181092E000CAA0BBB0B481759076A07B2
:103E10007B07C0F0E1EEF0E0EC0FFD1FEE0DFF1DA3
:103E200080819181049771F461E0E9EDF0E0EC0F9D
:103E3000FD1FEE0DFF1D808191810E94D509F601C5
:103E40003197108322E0E20EF11C38E0E316F10412
:103E500009F0BACF6E0149EEC40ED11CF12CE12C51
:103E60000E945B01D6012D913D916D01AB01BC011A
:103E7000C35FDE4F88809980AA80BB80CD50D1403F
:103E8000481959096A097B09C90188519C4F092EB3
:103E9000000CAA0BBB0B481759076A077B0768F190
:103EA00031EFA32EB12CAC0EBD1EAE0CBF1CD50144
:103EB0008C91811122C0C701880F991FE1EEF0E0BB
:103EC000EC0FFD1FE80FF91F2081318124303105EF
:103ED000A1F420914E0230914F02232B61F4E9EDC1
:103EE000F0E0EC0FFD1F8E0F9F1F60E0DC018D9155
:103EF0009C910E94D509F5011083FFEFEF1AFF0A8C
:103F000024E0E216F10409F0ABCFFE01EF50FF4FC1
:103F1000DE01AF51BF4FCF010496432D21912111F6
:103F200007C02D913C9111972430310509F440E0F0
:103F300012968E179F0791F7409303020E945B0130
:103F4000C0905802D0905902E0905A02F0905B0263
:103F50006C197D098E099F0948EC50E00E945F11A1
:103F6000809152028823C1F0809103028823A1F03E
:103F700010925C020E945B01C0905802D0905902DE
:103F8000E0905A02F0905B026C197D098E099F093E
:103F900044EF51E00E945F11809152028823D9F0D2
:103FA000F0900302FF20B9F00E945B01809058025C
:103FB00090905902A0905A02B0905B02681979095A
:103FC0008A099B0944EF51E00E945F11CA5EDE4FEF
:103FD000F882C651D140CF5FDE4FC880D980EA80D9
:103FE000FB80C150D1404201CB5EDE4F3882C551CB
:103FF000D14030905C02332009F489CD0E945813DF
:104000002B013C0160916102709162028091630218
:10401000909164020E9434279B01AC01C301B2015C
:104020000E941D260E94FC26CF5FDE4F68837983A5
:104030008A839B83C150D14060935D0270935E027E
:1040400080935F02909360020E945B01409058024F
:104050005090590260905A0270905B029B01AC0133
:10406000241935094609570929013A0130915202AC
:10407000C550DF4F3883CB5FD040332309F448C0AD
:1040800080910302811144C0C150DF4F4881CF5F4E
:10409000D040411144CDCF5FDE4F68817981C1505E
:1040A000D1406C197D09072E000C880B990B0E94DA
:1040B00034276B017C01B20168197909072E000CC5
:1040C000880B990B0E94342720E030E04AE754E443
:1040D0000E948A269B01AC01C701B6010E948A2674
:1040E0000E94FC26672BA1F40E945B01C35FDE4F98
:1040F000688379838A839B83CD50D140C550DF4F3D
:104100008880CB5FD040C150DF4F8882CF5FD040E6
:1041100048EC50E0C301B2010E945F11CB5EDE4F5C
:10412000A880C551D140A1100AC00E945B01CB5F9D
:10413000DE4F688379838A839B83C550D140809109
:1041400004028111D2C06E0125EFC20ED11CF12CE8
:10415000E12CD6018D916D01811139C00E945B0166
:10416000AB01BC01CB5FDE4F88809980AA80BB8009
:10417000C550D140481959096A097B09E9EEF0E0B8
:10418000EC0FFD1FEE0DFF1D80819181092E000CAB
:10419000AA0BBB0B481759076A077B07C0F0E1EE73
:1041A000F0E0EC0FFD1FEE0DFF1D80819181059762
:1041B00071F461E0E9EDF0E0EC0FFD1FEE0DFF1D85
:1041C000808191810E94D509F6013197108322E008
:1041D000E20EF11C38E0E316F10409F0BACF6E01EB
:1041E00049EEC40ED11CF12CE12C0E945B01D601DA
:1041F0002D913D916D01AB01BC01CB5FDE4F8880FD
:104200009980AA80BB80C550D140481959096A09D4
:104210007B09C90188519C4F092E000CAA0BBB0BCE
:10422000481759076A077B0768F151EFA52EB12C93
:10423000AC0EBD1EAE0CBF1CD5018C91811122C0ED
:10424000C701880F991FE1EEF0E0EC0FFD1FE80FAA
:10425000F91F2081318125303105A1F420914E02D2
:1042600030914F02232B61F4E9EDF0E0EC0FFD1FDC
:104270008E0F9F1F60E0DC018D919C910E94D509FB
:10428000F5011083FFEFEF1AFF0A24E0E216F104B4
:1042900009F0ABCFFE01EF50FF4FDE01AF51BF4F32
:1042A000CF010496432D2191211107C02D913C91FE
:1042B00011972530310509F440E01296E817F90707
:1042C00091F7409304020E945B01C0905802D09085
:1042D0005902E0905A02F0905B026C197D098E0938
:1042E0009F0948EC50E00E945F1180910202811109
:1042F000D6C06E0135EFC30ED11CF12CE12CD601D6
:104300008D916D01811141C0E9EEF0E0EC0FFD1FD0
:10431000EE0DFF1D80819181092E000CAA0BBB0BB5
:1043200040915D0250915E0260915F027091600267
:10433000481759076A077B0744F1E1EEF0E0EC0FFC
:10434000FD1FEE0DFF1D808191810697F1F461E064
:10435000E9EDF0E0EC0FFD1FEE0DFF1D8081918176
:104360000E94D509F601319710830E945B01F70185
:10437000EE0FFF1F39EC832E912C8C0E9D1EE80D45
:10438000F91D608371838283938322E0E20EF11C26
:1043900038E0E316F10409F0B2CF6E0149ECC40E27
:1043A000D11CF12CE12C0E945B01AB01BC01F60198
:1043B00081919191A191B1916F0188519C4FAF4F23
:1043C000BF4F481759076A077B07B0F181EFA82E46
:1043D000B12CAC0EBD1EAE0CBF1CD5018C91811151
:1043E0002BC0C701880F991FE1EEF0E0EC0FFD1F15
:1043F000E80FF91F2081318126303105E9F4E5EF1E
:10440000F0E0EC0FFD1FEE0DFF1D20812223A1F037
:1044100020914E0230914F02232B61F4E9EDF0E040
:10442000EC0FFD1F8E0F9F1F60E0DC018D919C91B2
:104430000E94D509F5011083FFEFEF1AFF0A24E06F
:10444000E216F10409F0AFCFFE01EF50FF4FDE019D
:10445000AF51BF4FCF010496432D2191211107C0C9
:104460002D913C9111972630310509F440E01296C8
:10447000E817F90791F7409302020E945B01C09090
:104480005802D0905902E0905A02F0905B026C19E9
:104490007D098E099F0948EC50E00E945F118091D0
:1044A00005028111B1C06E0135EFC30ED11CF12C94
:1044B000E12CD6018D916D01811129C0E9EEF0E06A
:1044C000EC0FFD1FEE0DFF1D80819181092E000C68
:1044D000AA0BBB0B481659066A067B06C0F0E1EE34
:1044E000F0E0EC0FFD1FEE0DFF1D80819181029722
:1044F00071F461E0E9EDF0E0EC0FFD1FEE0DFF1D42
:10450000808191810E94D509F60131971083B2E034
:10451000EB0EF11CE8E0EE16F10459F66E01F9EE2F
:10452000CF0ED11CF12CE12CD6018D919D916D0106
:1045300088519C4F092E000CAA0BBB0B481659063C
:104540006A067B0670F1A1EFAA2EB12CAC0EBD1E3F
:10455000AE0CBF1CF5018081811123C0C701880FFB
:10456000991FE1EEF0E0EC0FFD1FE80FF91F20812D
:10457000318122303105A9F420914E0230914F0251
:10458000232B69F4E9ED8E2E912C8C0E9D1E880D47
:10459000991D60E0DC018D919C910E94D509F50187
:1045A0001083FFEFEF1AFF0A24E0E216F10409F08E
:1045B000BBCFFE01EF50FF4FDE01AF51BF4FCF0128
:1045C0000496432D2191211107C02D913C91119703
:1045D0002230310509F440E012968E179F0791F7BB
:1045E000409305020E945B01C0905802D09059028E
:1045F000E0905A02F0905B026C197D098E099F09C8
:1046000048EC50E00E945F1180911A0290911B02C9
:10461000019761F439EB43163BE0530661047104E2
:1046200028F0C050DF4F1882C050D140C0905D02CA
:10463000D0905E02E0905F02F09060028091FE01F7
:104640009091FF01A0910002B0910102C816D90615
:10465000EA06FB060CF06ECA21106CCAC050DF4F90
:104660008880C050D140811065CA8091000190912E
:104670000101A0910201B09103010197A109B109C3
:104680008093000190930101A0930201B093030174
:10469000C050DF4F2880C050D140892B8A2B8B2BF4
:1046A00009F062CA0E945B01CF5EDE4F68837983A6
:1046B0008A839B83C151D140C0920A02D0920B02DF
:1046C000E0920C02F0920D022090530221104CCA8D
:1046D0006E0125EFC20ED11CF12CE12CD6018D917B
:1046E0006D01811139C00E945B01AB01BC01CF5E3D
:1046F000DE4F88809980AA80BB80C151D140481983
:1047000059096A097B09E9EEF0E0EC0FFD1FEE0D97
:10471000FF1D80819181092E000CAA0BBB0B48174D
:1047200059076A077B07C0F0E1EEF0E0EC0FFD1FD0
:10473000EE0DFF1D80819181019771F461E0E9ED3B
:10474000F0E0EC0FFD1FEE0DFF1D808191810E94B6
:10475000D509F6013197108322E0E20EF11C38E012
:10476000E316F10409F0BACF6E0149EEC40ED11C74
:10477000F12CE12C0E945B01D6012D913D916D0140
:10478000AB01BC01CF5EDE4F88809980AA80BB80E0
:10479000C151D140481959096A097B09C901885199
:1047A0009C4F092E000CAA0BBB0B481759076A0730
:1047B0007B0768F171EFA72EB12CAC0EBD1EAE0CBD
:1047C000BF1CD5018C91811122C0C701880F991F90
:1047D000E1EEF0E0EC0FFD1FE80FF91F20813181C1
:1047E00021303105A1F420914E0230914F02232B4C
:1047F00061F4E9EDF0E0EC0FFD1F8E0F9F1F60E00C
:10480000DC018D919C910E94D509F5011083FFEF89
:10481000EF1AFF0A24E0E216F10409F0ABCFFE0123
:10482000EF50FF4FDE01AF51BF4FCF010496432D34
:104830002191211107C02D913C9111972130310513
:1048400009F440E012968E179F0791F740935302A8
:104850000E945B01C0905802D0905902E0905A0229
:10486000F0905B026C197D098E099F0948EC50E0BD
:104870000E945F11232C78C9C450DF4FE880F98073
:10488000CC5FD0405FEFE51AF50AE1E0F0E0EC0F15
:10489000FD1FC450DF4F88819981CC5FD040E80F65
:1048A000F91F1082109253021092520210920502C8
:1048B000109204021092030210925C02CE01019643
:1048C0000E94270CC450DF4FF982E882CC5FD040B1
:1048D0000C94CB1B0E943427A70196010E94C0278D
:1048E0000E94FC260E94CF0B0C94FA1B0E943427D6
:1048F000A70196010E94C0270E94FC260E94CF0BB0
:104900000C941E1C88EE92E00E942502892B11F463
:104910000C943B1B88EE92E00E940302082F8B331D
:10492000C9F08A3079F3E1E0F0E0EC0FFD1FC450EC
:10493000DF4F88809980CC5FD040E80DF91D8083DF
:1049400094012F5F3F4FC450DF4F39832883CC5FE2
:10495000D040D8CFC450DF4FE881F981CC5FD04040
:10496000EC0FFD1F1182C450DF4F48815981CC5F8D
:10497000D0404F5F5F4FC450DF4F59834883CC5FB7
:10498000D0400C94321BCE0101960E94270C80E08F
:1049900090E0892B11F40C942B1B0E943102882388
:1049A00011F40C942B1B0E9400000C942B1B0197FC
:1049B00011F00C94DA1A88EC90E0A0E0B0E00C94CE
:1049C000D21AC150DF4F8880CF5FD0408110F2C92A
:1049D000CBCAFC0188279927E89421912032E9F37A
:1049E000293010F02E30C8F32B3241F02D3239F43B
:1049F000689404C00E946A25820F911D2191205362
:104A00002A30C0F31EF4909581959F4F08951F930F
:104A1000FC0199278827BC01E89411911032E9F331
:104A2000193010F01E30C8F31B3251F01D3249F41A
:104A3000689406C00E945525610F711D811D911D4E
:104A4000119110531A30B0F33EF490958095709503
:104A500061957F4F8F4F9F4F1F910895FA01A1914C
:104A6000B081009719F41097E1F0CD01DC01CD0180
:104A70000D90002011F4C00113C0FB0121912223ED
:104A800019F02015D9F7F3CFFB012191201519F466
:104A90001E92119606C02223C1F70D900020A1F7A7
:104AA000D001FA01A193B0830895592F482F372FD1
:104AB000262F660F771F881F991F660F771F881F85
:104AC000991F620F731F841F951F660F771F881F22
:104AD000991F08957AE0979F902D879F802D910DC3
:104AE00011240895BB27FA01A62F621771058105CD
:104AF0009105330B30FB66F0AA27660F771F881FDE
:104B0000991FAA1FA21710F0A21B63953850A9F78E
:104B1000A05DAA3308F0A95DA19336F7B111B19356
:104B20001082CA010C949425DC01FC01672F71915D
:104B30007723E1F7329704C07C916D937083629183
:104B4000AE17BF07C8F30895F999FECF92BD81BD96
:104B5000F89A992780B50895262FF999FECF1FBAA4
:104B600092BD81BD20BD0FB6F894FA9AF99A0FBE96
:104B700001960895052E97FB1EF400940E94D125FE
:104B800057FD07D00E94EC2507FC03D04EF40C948F
:104B9000D12550954095309521953F4F4F4F5F4F10
:104BA000089590958095709561957F4F8F4F9F4F99
:104BB00008950E940E26A59F900DB49F900DA49F6E
:104BC000800D911D11240895B7FF0C94D9250E94E2
:104BD000D925821B930B0895A1E21A2EAA1BBB1B99
:104BE000FD010DC0AA1FBB1FEE1FFF1FA217B307B9
:104BF000E407F50720F0A21BB30BE40BF50B661FCF
:104C0000771F881F991F1A9469F760957095809592
:104C100090959B01AC01BD01CF010895A29FB00109
:104C2000B39FC001A39F700D811D1124911DB29FE0
:104C3000700D811D1124911D08955058BB27AA277E
:104C40000E9435260C9486270E94782738F00E940F
:104C50007F2720F039F49F3F19F426F40C94752730
:104C60000EF4E095E7FB0C946F27E92F0E9497273D
:104C700058F3BA17620773078407950720F079F491
:104C8000A6F50C94B9270EF4E0950B2EBA2FA02DA3
:104C90000B01B90190010C01CA01A0011124FF27E9
:104CA000591B99F0593F50F4503E68F11A16F040E4
:104CB000A22F232F342F4427585FF3CF46953795E3
:104CC0002795A795F0405395C9F77EF41F16BA0BA8
:104CD000620B730B840BBAF09150A1F0FF0FBB1F56
:104CE000661F771F881FC2F70EC0BA0F621F731F9F
:104CF000841F48F4879577956795B795F7959E3FFC
:104D000008F0B0CF9395880F08F09927EE0F97958C
:104D1000879508950E949E260C9486270E947F27DF
:104D200058F00E94782740F029F45F3F29F00C9456
:104D30006F2751110C94BA270C9475270E9497275E
:104D400068F39923B1F3552391F3951B550BBB27BA
:104D5000AA2762177307840738F09F5F5F4F220FFF
:104D6000331F441FAA1FA9F335D00E2E3AF0E0E8F6
:104D700032D091505040E695001CCAF72BD0FE2F40
:104D800029D0660F771F881FBB1F261737074807D4
:104D9000AB07B0E809F0BB0B802DBF01FF2793588C
:104DA0005F4F3AF09E3F510578F00C946F270C94BA
:104DB000BA275F3FE4F3983ED4F3869577956795DD
:104DC000B795F7959F5FC9F7880F911D96958795C1
:104DD00097F90895E1E0660F771F881FBB1F6217E0
:104DE00073078407BA0720F0621B730B840BBA0B9E
:104DF000EE1F88F7E09508950E9403276894B1118B
:104E00000C94BA2708950E949F2788F09F5798F026
:104E1000B92F9927B751B0F0E1F0660F771F881FBF
:104E2000991F1AF0BA95C9F714C0B13091F00E94D9
:104E3000B927B1E008950C94B927672F782F8827F8
:104E4000B85F39F0B93FCCF3869577956795B39500
:104E5000D9F73EF490958095709561957F4F8F4F6F
:104E60009F4F0895E89409C097FB3EF49095809574
:104E7000709561957F4F8F4F9F4F9923A9F0F92F20
:104E800096E9BB279395F695879577956795B7959E
:104E9000F111F8CFFAF4BB0F11F460FF1BC06F5F84
:104EA0007F4F8F4F9F4F16C0882311F096E911C096
:104EB000772321F09EE8872F762F05C0662371F0B7
:104EC00096E8862F70E060E02AF09A95660F771FCB
:104ED000881FDAF7880F9695879597F9089597F9BF
:104EE0009F6780E870E060E008959FEF80EC089590
:104EF00000240A94161617061806090608950024B9
:104F00000A9412161306140605060895092E039432
:104F1000000C11F4882352F0BB0F40F4BF2B11F4A6
:104F200060FF04C06F5F7F4F8F4F9F4F089557FD05
:104F30009058440F551F59F05F3F71F04795880F07
:104F400097FB991F61F09F3F79F08795089512169E
:104F500013061406551FF2CF4695F1DF08C016164A
:104F600017061806991FF1CF8695710561050894FB
:104F70000895E894BB2766277727CB0197F9089512
:104F80000E94D3270C9486270E94782738F00E942D
:104F90007F2720F0952311F00C946F270C94752730
:104FA00011240C94BA270E94972770F3959FC1F3A0
:104FB000950F50E0551F629FF001729FBB27F00DC7
:104FC000B11D639FAA27F00DB11DAA1F649F66271C
:104FD000B00DA11D661F829F2227B00DA11D621F6B
:104FE000739FB00DA11D621F839FA00D611D221F25
:104FF000749F3327A00D611D231F849F600D211D09
:10500000822F762F6A2F11249F5750409AF0F1F08B
:1050100088234AF0EE0FFF1FBB1F661F771F881FF4
:1050200091505040A9F79E3F510580F00C946F2796
:105030000C94BA275F3FE4F3983ED4F386957795B6
:105040006795B795F795E7959F5FC1F7FE2B880F9A
:10505000911D9695879597F90895FA01EE0FFF1F18
:10506000309621053105A1F16115710561F4803893
:10507000BFE39B0749F168949038810561F080385F
:10508000BFEF9B0741F099234AF5FF3FE10531054A
:10509000210519F1E8940894E795D901AA2329F488
:1050A000AB2FBE2FF85FD0F310C0FF5F70F4A69552
:1050B000E0F7F73950F019F0FF3A38F49F779F93F3
:1050C0000DD00F9007FC9058089546F00C9475276A
:1050D00060E070E080E89FE308954FE79F775F937B
:1050E0004F933F932F930E9428292F913F914F91E7
:1050F0005F910E94C0270C94852829F416F00C9427
:105100006F270C94B9270C9475270E949F27A8F34A
:105110009638A0F707F80F92E8942BE33AEA48EBA9
:105120005FE70E94D6270F920F920F924DB75EB79E
:105130000F920E947029E8E6F0E00E94B7284F9194
:105140005F91EF91FF91E595EE1FFF1F49F0FE572C
:10515000E0684427EE0F441FFA95E1F74195550B9F
:105160000E94EA280F9007FE0C94DE280895DF9332
:10517000CF931F930F93FF92EF92DF927B018C01ED
:10518000689406C0DA2EEF010E94D327FE01E8944E
:10519000A5912591359145915591A6F3EF010E9476
:1051A0003526FE019701A801DA9469F7DF90EF90A8
:1051B000FF900F911F91CF91DF9108959B01AC015A
:1051C00060E070E080E89FE30C948A260C946F27DF
:1051D0000C94A4290E949F27D8F39923C9F3940F14
:1051E000511DA3F39150504094F059F0882332F0B0
:1051F000660F771F881F91505040C1F79E3F5105A1
:105200002CF7880F911D9695879597F908955F3F24
:10521000ACF0983E9CF0BB27869577956795B7953F
:1052200008F4B1609395C1F7BB0F58F711F460FF14
:10523000E8CF6F5F7F4F8F4F9F4FE3CF0C94BA271C
:1052400016F00C94A4290C94752768940C946F277D
:105250000E949F27A8F39923C1F3AEF3DF93CF9366
:105260001F930F93FF92C92FDD2788232AF02197E0
:10527000660F771F881FDAF720E030E040E85FEB29
:105280009FE3883920F0803E38F021968F770E9486
:105290001E26E0E9F0E004C00E941E26EDEBF0E0DF
:1052A0000E94B7288B01BE01EC01FB2E6F577109DC
:1052B0007595771F880B990B0E94342728E132E7F8
:1052C00041E35FE30E94D327AF2D9801AE01FF9029
:1052D0000F911F91CF91DF910E9435260C94862764
:1052E000FA01DC01AA0FBB1F9B01AC01BF5728F4D8
:1052F000222733274427507820C0B75190F4AB2F92
:105300000024469537952795011CA395D2F30020DC
:1053100071F0220F331F441FB395DAF30ED00C94B3
:105320001D2661307105A0E88A07B94630F49B015B
:10533000AC016627772788279078309621F0208364
:1053400031834283538308959F3F31F0915020F47D
:10535000879577956795B795880F911D9695879551
:1053600097F90895DB018F939F930E94D925BF91F0
:10537000AF91A29F800D911DA39F900DB29F900DA4
:1053800011240895991B79E004C0991F961708F01D
:10539000961B881F7A95C9F780950895EE0FFF1F19
:1053A0000590F491E02D0994FB01DC010D900020A3
:1053B000E9F7119701900D920020E1F70895AEE012
:1053C000B0E0E5EEF9E20C948E2C0D891E8986E0A2
:1053D0008C831A8309838FEF9FE79E838D83AE01B1
:1053E000475E5F4F6F89788DCE0101960E94022A39
:1053F0002F813885020F131FF80110822E96E4E0EA
:105400000C94AA2CABE0B0E0E8E0FAE20C94802C1B
:105410007C013B018A01FC0117821682838181FF96
:10542000C8C1CE0101965C01F7019381F30193FDA0
:10543000859193FF81913F01882309F453C18532FF
:1054400039F493FD859193FF81913F01853229F4D1
:10545000B70190E00E94F22BE7CF912C212C312C48
:10546000FFE1F31538F08B3211F190F4803209F13D
:10547000833229F137FC3CC020ED280F2A3050F54B
:1054800036FE20C08AE0989E200D1124922E06C080
:105490008D3291F0803371F7689430F8F30193FD09
:1054A000859193FF81913F018111DACF21C06894EA
:1054B00031F8689432F8F2CF689433F8EFCF6894FB
:1054C00034F8ECCFEAE02E9E200D1124222E6894B1
:1054D00035F8E4CF8E3229F436FC04C1689436F8EE
:1054E000DDCF8C3619F4689437F8D8CF8836B1F20E
:1054F000982F9F7D95549330E0F08336A1F1833748
:10550000C1F1833509F063C02801F2E04F0E511C50
:10551000F801C080D180692D70E036FC02C06FEFC9
:105520007FEFC6010E94DC2B4C01689437F88201A2
:105530000AC00C5F1F4FFFE3F98388248394912CEA
:105540006501E89437F833FE2DC0522C8114910484
:1055500071F5552009F468CFB70180E290E00E9410
:10556000F22B5A94F6CFF801808189830E5F1F4F8A
:10557000E4CF2801F2E04F0E511CF801C080D18029
:10558000692D70E036FC02C06FEF7FEFC6010E940C
:10559000E72B4C018201D5CFB70180E290E00E9459
:1055A000F22B2A942814190409F0B0F7CECFF60193
:1055B00037FC859137FE81916F01B70190E00E9421
:1055C000F22B51105A94F1E08F1A9108BFCF843614
:1055D00019F0893609F077C0F80137FE6BC0608199
:1055E0007181828193810C5F1F4FF32DFF763F2ED7
:1055F00097FF09C090958095709561957F4F8F4F6B
:105600009F4F689437F82AE030E0A5010E94222CD1
:10561000C82ECA188C2C432C36FE0CC0E89440F8D7
:10562000C91440F434FE05C032FC03C0F32DFE7EE5
:105630004F2E892C44FE95C0FE01EC0DF11D80819A
:10564000803309F087C0242D297E422E842D887056
:10565000582E43FC95C040FE8FC09C2C821418F439
:105660002C0C922C981844FE91C0B70180E390E076
:105670000E94F22B42FE09C088E790E041FE02C082
:1056800088E590E0B7010E94F22BC91408F48AC0A3
:10569000CA94D12C9FEFC91AD90ACA0CDB1CF60197
:1056A00082916F01B70190E00E94F22BAC14BD040F
:1056B000B1F74FCF60817181072E000C880B990BD9
:1056C0000E5F1F4F92CFD32CE894D4F82AE030E03D
:1056D000853739F1232D297FD22E8F3601F148F4F9
:1056E0008835A9F0F701868197812B96E2E10C9429
:1056F0009C2C803749F08837A9F7D4FE02C0689403
:10570000D2F820E130E00DC06894D4F8F6CF34FE32
:1057100003C0822F8660D82E20E132E002C028E04C
:1057200030E0F801D7FE0FC06081718182819381E2
:105730000C5F1F4FA5010E94222CC82ECA183D2CB9
:10574000E89437F867CF6081718190E080E00E5F68
:105750001F4FF0CF42FC02C0839478CF8394839490
:1057600075CF842D867809F471CFF6CFB70180E22A
:1057700090E00E94F22B83948214C0F3512C73CFDB
:10578000522C5818821408F46ECFF8CF842D8678E6
:1057900009F47BCF8BE241FE80E247FC8DE2B7014A
:1057A00090E071CFB70180E390E00E94F22B9A94D1
:1057B0006CCF8FEF9FEF99CFFC0105906150704047
:1057C0000110D8F7809590958E0F9F1F0895FC01CA
:1057D0006150704001900110D8F7809590958E0F20
:1057E0009F1F08950F931F93CF93DF93182F092FB7
:1057F000EB018B8181FD09C01FEF0FEF812F902FEF
:10580000DF91CF911F910F91089582FF14C02E81D7
:105810003F818C819D81281739073CF4E881F9810B
:10582000CF0101969983888310838E819F81019691
:105830009F838E83E3CFE885F985812F0995892B96
:10584000A1F3DACFFA01AA27283051F1203181F1F2
:10585000E8946F936E7F6E5F7F4F8F4F9F4FAF4F78
:10586000B1E03ED0B4E03CD0670F781F891F9A1F8B
:10587000A11D680F791F8A1F911DA11D6A0F711D3F
:10588000811D911DA11D20D009F468943F912AE04B
:10589000269F11243019305D3193DEF6CF01089533
:1058A000462F4770405D4193B3E00FD0C9F7F6CF64
:1058B000462F4F70405D4A3318F0495D31FD40522C
:1058C000419302D0A9F7EACFB4E0A69597958795C2
:1058D00077956795BA95C9F70097610571050895A1
:1058E0009B01AC010A2E069457954795379527954D
:1058F000BA95C9F7620F731F841F951FA01D0895E5
:105900002F923F924F925F926F927F928F929F92CF
:10591000AF92BF92CF92DF92EF92FF920F931F93BD
:10592000CF93DF93CDB7DEB7CA1BDB0B0FB6F8946E
:10593000DEBF0FBECDBF09942A88398848885F84AE
:105940006E847D848C849B84AA84B984C884DF801F
:10595000EE80FD800C811B81AA81B981CE0FD11D03
:105960000FB6F894DEBF0FBECDBFED010895F894D9
:02597000FFCF67
:10597200050000000000803FFFFFFFFFFFFFFFFF69
:10598200FF000000006702C701F401CF02250203F5
:1059920002170200000000330706077B07DC06FF40
:1059A20006EC06DD060D0A00616C7469636F6E66B3
:1059B20069672C0025692C00416C74695365727605
:1059C2006F00256C642C0025693B0A002400746575
:1059D2006C656D657472792C002D312C002569007F
:00000001FF
