:100000000C9431010C9459010C9459010C94590130
:100010000C9459010C9459010C9459010C94C41678
:100020000C9459010C9459010C9459010C94E11849
:100030000C9459010C9459010C9459010C945901D8
:100040000C9478170C9459010C9446170C942017B3
:100050000C9459010C9459010C9459010C945901B8
:100060000C94C2170C94590107634236B79BD8A76A
:100070001A39685618AEBAAB558C1D3CB7CC5763CD
:10008000BD6DEDFD753EF6177231BF000000803F7B
:1000900008000000BE922449123EABAAAA2ABECD97
:1000A000CCCC4C3E00000080BEABAAAAAA3E000009
:1000B0000000BF000000803F000000000008417801
:1000C000D3BB4387D1133D190E3CC3BD4282AD2B38
:1000D0003E68EC8276BED98FE1A93E4C80EFFFBE30
:1000E00001C4FF7F3F0000000000696E76616C690B
:1000F0006420636F6E660024554E4B4E4F574E3B47
:1001000000244B303B0A00636F6E6669672072659E
:1001100073657465640A00244F4B3B0A00244F4BFF
:100120003B0A00244F4B3B0A0054656C656D6574B7
:1001300072792064697361626C65640A0054656C4D
:10014000656D6574727920656E61626C65640A0024
:10015000244F4B3B0A00244F4B3B0A00244B4F3BA0
:100160000A00244F4B3B0A0024656E643B0A0024BE
:1001700073746172743B0A004E6F7420696D706C09
:10018000656D656E746564200A004E6F7420696D3C
:10019000706C656D656E746564200A004E6F742026
:1001A000696D706C656D656E746564200A004E6FD4
:1001B0007420696D706C656D656E746564200A00ED
:1001C0004E6F7420696D706C656D656E746564202A
:1001D0000A004E6F7420696D706C656D656E746594
:1001E00064200A004E6F7420696D706C656D656ED9
:1001F000746564200A0000000000240027002A0023
:100200000000000023002600290000000008000272
:100210000100000304070000000000000000537408
:100220006172742070726F6772616D0A000102045E
:100230000810204080010204081020010204081068
:100240002000000000250028002B00040404040402
:100250000404040202020202020303030303030272
:10026000B81911241FBECFEFD8E0DEBFCDBF11E01B
:10027000A0E0B1E0E8EDF7E502C005900D92AC38E2
:10028000B107D9F724E0ACE8B1E001C01D92AF306E
:10029000B207E1F711E0C1E3D1E004C02197FE010C
:1002A0000E940129C033D107C9F70E94111A0C948A
:1002B000EA2B0C9400002FB7F8946091FB01709129
:1002C000FC018091FD019091FE012FBF08952091C6
:1002D0002D0381E0213208F044C08091090381118F
:1002E000FCCF80912C0392E09093090391E09093CE
:1002F00008039FEF909307031092060320930503D2
:10030000ACE0B3E0E5EEF2E090E0291331C01092EA
:10031000E4029091E402880F892B8093E40280919B
:10032000E302813049F51092E3028091E402809368
:10033000BB008091BC0083FDF8CF85EC8093BC00AE
:10034000809109038230E1F3809107038F3FB1F080
:10035000809107038032A1F080910703803391F0F0
:1003600084E010920B0310922D0310920A0308955B
:100370003D9131939F5FC9CF85EEE0CF80E0F1CF13
:1003800082E0EFCF83E0EDCF8930910521F481E069
:100390008093C00208958A30910521F481E0809312
:1003A000BF0208958530910521F481E08093BE025B
:1003B0000895069719F481E08093BD020895089589
:1003C0000895AF92BF92CF92DF92EF92FF920F9378
:1003D0001F93CF93DF936C017B018B01040F151FDB
:1003E000EB015E01AE18BF08C017D10759F0699143
:1003F000D601ED91FC910190F081E02DC6010995A7
:10040000892B79F7C501DF91CF911F910F91FF9053
:10041000EF90DF90CF90BF90AF900895FC01538D87
:10042000448D252F30E0842F90E0821B930B5417CE
:1004300010F0CF96089501970895FC01918D828D5B
:10044000981761F0A28DAE0FBF2FB11D5D968C91F4
:10045000928D9F5F9F73928F90E008958FEF9FEF33
:100460000895FC01918D828D981731F0828DE80FEF
:10047000F11D858D90E008958FEF9FEF0895FC01A9
:10048000918D228D892F90E0805C9F4F821B910976
:100490008F73992708958EE293E00E943F0221E036
:1004A000892B09F420E0822F089580E090E0892BC9
:1004B00029F00E944B0281110C9400000895FC0168
:1004C000A48DA80FB92FB11DA35ABF4F2C91848DB5
:1004D00090E001968F739927848FA689B7892C9312
:1004E000A089B1898C91837080648C93938D848D65
:1004F000981306C00288F389E02D80818F7D808368
:100500000895EF92FF920F931F93CF93DF93EC0127
:1005100081E0888F9B8D8C8D98131AC0E889F989AA
:10052000808185FF15C09FB7F894EE89FF896083AD
:10053000E889F98980818370806480839FBF81E02E
:1005400090E0DF91CF911F910F91FF90EF90089570
:10055000F62E0B8D10E00F5F1F4F0F731127E02E4B
:100560008C8D8E110CC00FB607FCFACFE889F98983
:10057000808185FFF5CFCE010E945F02F1CFEB8D28
:10058000EC0FFD2FF11DE35AFF4FF0829FB7F89457
:100590000B8FEA89FB8980818062CFCF0F931F93F5
:1005A000CF93DF938C01D0E0C0E0F801EC0FFD1F8A
:1005B0006491662341F08EE293E00E948102892BD0
:1005C00011F02196F2CFCE01DF91CF911F910F91C3
:1005D0000895CF93DF93EC01888D8823B9F0AA8921
:1005E000BB89E889F9898C9185FD03C0808186FDEE
:1005F0000DC00FB607FCF7CF8C9185FFF2CF80813D
:1006000085FFEDCFCE010E945F02E9CFDF91CF9150
:100610000895833081F028F4813099F08230A9F078
:1006200008958730A9F08830C9F08430B1F4809102
:1006300080008F7D03C0809180008F778093800041
:10064000089584B58F7784BD089584B58F7DFBCFE1
:100650008091B0008F778093B00008958091B000B2
:100660008F7DF9CFCF93DF93282F30E0F901E65F3C
:10067000FD4F8491F901E35DFD4FD491F901E55BF4
:10068000FD4FC491CC23A1F081110E940903EC2FEE
:10069000F0E0EE0FFF1FE050FE4FA591B491EC91FA
:1006A000ED2381E090E009F480E0DF91CF9108959F
:1006B00080E090E0FACF1F93CF93DF93282F30E0B4
:1006C000F901E65FFD4F8491F901E35DFD4FD4919F
:1006D000F901E55BFD4FC491CC23A9F0162F8111E0
:1006E0000E940903EC2FF0E0EE0FFF1FEF5BFD4FC0
:1006F000A591B4918FB7F894EC91111108C0D095E1
:10070000DE23DC938FBFDF91CF911F910895DE2B05
:10071000F8CF1092C2021092C10210920B031092F5
:100720002D031092090381E0809308031092E302E5
:1007300061E082E10E945B0361E083E10E945B0370
:10074000E9EBF0E080818E7F808380818D7F8083E4
:1007500088E48093B80085E48093BC008FED91E03D
:100760009093AB028093AA0280EE91E09093A9024D
:100770008093A802089590912C0189130BC0EFE596
:10078000F2E0E4919FEF90932C01E13049F028F0E2
:10079000E23061F060E00C945B0310926E00FACFDF
:1007A00090916F009D7F90936F00F4CF90917000B7
:1007B0009D7F9093700091E09093B0009091B10074
:1007C000987F94609093B1001092B300E3CFCF93E1
:1007D000DF9390E0FC01E35DFD4F2491855B9D4F2D
:1007E000FC0184918823C9F090E0880F991FFC01D7
:1007F000EA50FE4FA591B491FC01EF5BFD4FC5910E
:10080000D49161110DC09FB7F8948C9120958223EB
:100810008C938881282328839FBFDF91CF910895EF
:10082000623051F49FB7F8943C91822F80958323D6
:100830008C93E8812E2BEFCF8FB7F894EC912E2B71
:100840002C938FBFEACF4F925F926F927F928F92DD
:100850009F92AF92BF92CF92DF92EF92FF920F934F
:100860001F93CF93DF9300D000D01F92CDB7DEB798
:100870008C0149835A836B837C8380912C018D305A
:10088000C9F08F3F09F47DC00F900F900F900F902B
:100890000F90DF91CF911F910F91FF90EF90DF901C
:1008A000CF90BF90AF909F908F907F906F905F9010
:1008B0004F900895EFE5F2E084918D8387FDE4CFBA
:1008C00061E08DE00E94E7038D81882321F09D8106
:1008D000923009F044C14801B12CA12C60E072E1D2
:1008E0008AE790E0A50198010E94ED2429013A01D0
:1008F0007A01690181E0C81AD108E108F1089FEF87
:10090000C916D104E104F10409F00CF4F7C060E465
:1009100072E48FE090E0A50198010E94ED24690146
:100920007A0181E0C81AD108E108F1089D8192306E
:1009300009F098C08FEFC816D104E104F10409F062
:100940000CF4CAC160E970ED83E090E0A501980164
:100950000E94ED2469017A0191E0C91AD108E108E9
:10096000F1088FEFC816D104E104F10411F00CF086
:1009700065C183E09091B100987F892B8093B1008D
:10098000C5C08DE080932C01EFE5F2E094919D834A
:100990009F3F09F479CF913029F158F0923009F452
:1009A0003FC09D8197FD70CF61E08DE00E94E7031D
:1009B0008ECF14BC15BC84B5826084BD85B58160C2
:1009C00085BDE8E5F2E0E491F0E0EE0FFF1FEF5B9C
:1009D000FD4F85919491EAE3F2E0E491E093B00257
:1009E0001D826ECF10928000109281008091810054
:1009F0008860809381008091810081608093810074
:100A0000E8E5F2E0E491F0E0EE0FFF1FEF5BFD4F51
:100A100085919491EAE3F2E0E491E093AF0250CF44
:100A20001092B0001092B1008091B000826080936B
:100A3000B0008091B10081608093B100E8E5F2E000
:100A4000E491F0E0EE0FFF1FEF5BFD4F8591949175
:100A50009093AE028093AD02EAE3F2E0E491E0937A
:100A6000AC022ECF9FEFC916D104E104F10409F0C6
:100A70000CF473C068E478EE81E090E0A501980181
:100A80000E94ED2469017A0181E0C81AD108E108C9
:100A9000F1089D81992309F4EAC09FEFC916D1049A
:100AA000E104F10409F00CF4E0C0EAC064E274EF80
:100AB00080E090E0A50194010E94ED2469017A0193
:100AC00081E0C81AD108E108F10885E09FEFC91656
:100AD000D104E104F10409F008F44CCF62E17AE7B3
:100AE00080E090E0A50194010E94ED2469017A0163
:100AF00081E0C81AD108E108F108D5C081E09D81E4
:100B0000911138CF95B5987F892B85BDD801AA0F53
:100B1000BB1F29813A814B815C810E940C2528EE04
:100B200033E040E050E00E941F258D81813009F4C0
:100B30004AC0823009F459C08111A6CEC7BC2093A7
:100B4000B9023093BA024093BB025093BC02809129
:100B50006E00826080936E0097CE82E0D0CFB12C81
:100B6000A12C60E072E18AE790E0A50198010E9463
:100B7000ED2469017A0181E0C81AD108E108F10881
:100B8000C114D10491E0E906F10464F491E08D818F
:100B9000813009F0BBCF80918100887F892B8093C1
:100BA0008100B4CF68E478EE81E090E0A50198017F
:100BB0000E94ED2469017A0181E0C81AD108E10898
:100BC000F10893E0E4CFD0928900C092880020938E
:100BD000B5023093B6024093B7025093B8028091A9
:100BE0006F00826080936F004FCEC092B30020935D
:100BF000B1023093B2024093B3025093B402809199
:100C000070008260809370003FCE84E09FEFC91631
:100C1000D104E104F10409F008F474CF7301620116
:100C20009AE0F594E794D794C7949A95D1F781E028
:100C3000C81AD108E108F10885E064CF68E478EECD
:100C400081E090E0A50198010E94ED2469017A01FC
:100C500091E0C91AD108E108F1088FEFC816D10454
:100C6000E104F10411F00CF021CF84E083CE83E0A5
:100C70009FEFC916D104E104F10409F00CF442CF4E
:100C800062E17AE780E090E0A50194010E94ED2402
:100C900069017A0181E0C81AD108E108F1089D8153
:100CA000992309F4B2CF86E09FEFC916D104E1047D
:100CB000F10409F008F45ECE730162012AE0F594B4
:100CC000E794D794C7942A95D1F781E0C81AD10840
:100CD000E108F10887E04ECE82E04CCE3FB7F894B1
:100CE0008091FF0190910002A0910102B091020257
:100CF00026B5A89B05C02F3F19F00196A11DB11D77
:100D00003FBFBA2FA92F982F8827BC01CD01620FB2
:100D1000711D811D911D42E0660F771F881F991F6D
:100D20004A95D1F708958F929F92AF92BF92CF923A
:100D3000DF92EF92FF924B015C010E946E066B0105
:100D40007C010E946E066C197D098E099F09683E20
:100D5000734081059105A8F321E0821A9108A1084A
:100D6000B10888EEC80E83E0D81EE11CF11C811486
:100D70009104A104B10429F7FF90EF90DF90CF9088
:100D8000BF90AF909F908F90089585ED8093BC00A9
:100D90008091BC0084FDFCCF10920903089520913E
:100DA000D701260F3327331F21323105ECF4209170
:100DB0000903FC0190E080E0243069F082E00895AE
:100DC000A091D7012191AC0149545E4FA40FB52FDA
:100DD000B11D2C930196861798F38091D701680F67
:100DE0006093D70180E0089581E008950895E0912F
:100DF000C2028091C102E81730F4F0E0ED53FD4FDC
:100E0000808190E008958FEF9FEF08959091C20246
:100E10008091C1022FEF3FEF981748F4E92FF0E0DF
:100E2000ED53FD4F208130E09F5F9093C202C901D6
:100E300008958091C1029091C202891B990B089577
:100E4000CF92DF92EF92FF920F931F93CF93DF9396
:100E50007C01CB018A0120910A03222389F0EB0156
:100E60006B01C40ED51ECC15DD0569F06991D70163
:100E7000ED91FC910190F081E02DC7010995F3CF30
:100E8000642F0E94CF06C801DF91CF911F910F916F
:100E9000FF90EF90DF90CF900895CF93DF931F9254
:100EA000CDB7DEB7698320910A032223F9F02091A0
:100EB0002D03203258F021E030E0FC0133832283FF
:100EC00090E080E00F90DF91CF91089580910B0327
:100ED000E82FF0E0E45FFC4F998190838F5F80936F
:100EE0000B0380932D0381E090E0ECCF61E0CE0115
:100EF00001960E94CF06F7CFCF93C82F81E0809351
:100F00000A0387E780932C0310920B0310922D03A2
:100F100064EF8BEC93E00E944D076C2F8BEC93E019
:100F20000E944D07CF910C94670190E080E00895F6
:100F3000CF92DF92EF92FF92CF93DF93EC0160327A
:100F400082E07807CCF5653B710514F064EB70E046
:100F5000898128E830E0281B310987FD3395220F6D
:100F6000331F220F331F6901330FEE08FF088A81F8
:100F700028E532E0281B310987FD3395220F331F06
:100F8000220F331F032E000C440B550B2C193D0967
:100F90004E095F09DB0177FF02C0B0E0A0E00E94CC
:100FA000172524EB30E040E050E00E94ED24C20E13
:100FB000D31EE41EF51EB601E881EC3070F52981E0
:100FC00088E890E0821B910927FD9395880F991F6F
:100FD000880F991F681779077CF02A8188E592E0CD
:100FE000821B910927FD9395880F991F880F991FE0
:100FF000681779070CF4CB010297880F991F4FB738
:10100000F8942E2F30E0F901EE0FFF1FE20FF31FCF
:10101000ED56FE4F928381834FBFDF91CF91FF90BA
:10102000EF90DF90CF9008951F93CF93DF93EC0163
:10103000162F88818C3008F04EC061E0812F0E940D
:10104000E7038881282F30E0F901EE0FFF1FE20F40
:10105000F31FED56FE4F1F736081607C612B608330
:1010600019821A822CE0622F0E94F528829FB0011B
:10107000112430E020E0AB01420F531FFA01EE0FC4
:10108000FF1FE40FF51FED56FE4F908196FD16C031
:101090002F5F3F4F2C30310571F781110FC0109237
:1010A000800082E08093810010928500109284007D
:1010B000B19A80916F00826080936F00E8818E2FDB
:1010C00090E0FC01EE0FFF1FE80FF91FED56FE4FF9
:1010D0008081806480838881DF91CF911F91089502
:1010E000CF93DF93CDB7DEB7C454D1090FB6F894D0
:1010F000DEBF0FBECDBF109251021092500210926F
:10110000530210925202109255021092540221E0A2
:1011100030E0309357022093560283E090E09093A2
:1011200059028093580210925F0210925E02109250
:10113000610210926002109263021092620242E316
:1011400050E050935B0240935A0210925D0210925D
:101150005C0248EB51E0509365024093640245E025
:1011600050E0509367024093660290936902809327
:10117000680210926B0210926A0210926D02109235
:101180006C0240E056E960E070E040936E025093DC
:101190006F0260937002709371021092730210924A
:1011A000720240E052E05093750240937402109234
:1011B00077021092760290937902809378028AE007
:1011C00090E090937D0280937C0210927F021092B7
:1011D0007E0210927B0210927A028CE390E0909350
:1011E0008102809380029093830280938202909385
:1011F000850280938402909387028093860284E123
:1012000090E0909389028093880290938B02809360
:101210008A0290938D0280938C0290938F02809328
:101220008E02309391022093900284E4E0E5F2E094
:10123000DE01119601900D928A95E1F7FE0131963B
:10124000AE014D5B5F4F90E080E0E417F50731F0B1
:101250002191820F911D27FD9A95F7CF90939302CC
:1012600080939202CC5BDF4F0FB6F894DEBF0FBEC7
:10127000CDBFDF91CF91089548EE53E060E070E07C
:1012800080910302909104020E9423046CED75E0AA
:1012900080E090E00E9493068DE00C94BB03CF9316
:1012A000DF93CAE0D0E048EE53E060E070E080E415
:1012B00096E00E94230462E370E080E090E00E94E8
:1012C00093068DE00E94BB03219769F768EE73E0F7
:1012D00080E090E0DF91CF910C94930649E150E0DB
:1012E00060E070E080910302909104020E94230468
:1012F0006CE271E080E090E00E9493068DE00C9437
:10130000BB03CF92DF92EF92FF920F931F93CF9385
:10131000DF936B017C0124E6C216D104E104F104E1
:101320000CF446C024E630E040E050E00E94ED249A
:10133000890164E6629FC001639F900D1124092E0C
:10134000000CAA0BBB0BA7019601281B390B4A0BFB
:101350005B0BCA01B9012AE030E040E050E00E9496
:10136000ED24E901EE24E394F12C1016110644F16A
:101370001C161D067CF401E010E00E946E0962E379
:1013800070E080E090E00E9493060F5F1F4FC0174F
:10139000D1079CF768E873E180E090E0DF91CF919E
:1013A0001F910F91FF90EF90DF90CF900C949306D8
:1013B0002AE030E040E050E00E94ED24E901D8CF7F
:1013C0000E943C0962E370E080E090E00E94930696
:1013D0003FEFE31AF30A0E151F0594F7C9CF8930C2
:1013E000910579F4662341F0609180027091810249
:1013F00085EF93E00C9498076091880270918902C0
:10140000F7CF8A30910571F4662339F0609182023A
:101410007091830282EF93E0EDCF60918A02709128
:101420008B02F8CF8530910571F4662339F0609115
:101430008402709185028FEE93E0DCCF60918C0284
:1014400070918D02F8CF069771F4662339F06091A0
:101450008602709187028CEE93E0CCCF60918E0271
:1014600070918F02F8CF0895CF93DF9310922702E7
:101470001092260210922502109224021092170256
:1014800010921602109229021092280210921F0246
:1014900010921E021092190210921802E8E0F1E078
:1014A00020E131E0C0E0D1E06CE171E040E151E0E9
:1014B0008FEF9FEF81939193D9018D939D939D0120
:1014C00089939993DB018D939D93BD014E175F071F
:1014D00089F780915402909155028230910509F468
:1014E0004BC03CF40097D1F00197B9F1109227015D
:1014F00023C08430910509F443C00597B9F7809162
:101500005E0290915F02909329028093280289E005
:1015100090E090931D0180931C010EC080915E02AB
:1015200090915F02909319028093180289E090E0F5
:10153000909309018093080180915602909157027F
:101540008230910509F46EC054F50097E9F10197D6
:1015500009F459C01092260145C080915E02909115
:101560005F0290931F0280931E0289E090E09093A7
:10157000110180931001E0CF81E080932702DCCF3E
:1015800080915E0290915F02909317028093160201
:1015900089E090E09093010180930001CDCF8430E9
:1015A000910509F443C00597A9F6809160029091D6
:1015B000610290932902809328028AE090E0909340
:1015C0001F0180931E010EC08AE090E090930B01F2
:1015D00080930A01809160029091610290931902B8
:1015E000809318028091580290915902823091059F
:1015F00009F46DC054F50097E1F1019709F458C062
:101600001092250144C08AE090E0909313018093EA
:101610001201809160029091610290931F02809369
:101620001E02E0CF81E080932602DCCF8091600231
:101630009091610290931702809316028AE090E0E5
:101640009093030180930201CDCF8430910509F47A
:1016500042C085309105A1F620916202309163026B
:101660003093290220932802909321018093200136
:101670000EC0809162029091630290931902809350
:10168000180285E090E090930D0180930C01809109
:101690007802909179028230910509F45FC054F587
:1016A0000097E1F1019709F44AC01092240144C067
:1016B000809162029091630290931F0280931E02B8
:1016C00085E090E09093150180931401E0CF81E0D4
:1016D00080932502DCCF8091620290916302909307
:1016E00017028093160285E090E0909305018093A5
:1016F0000401CDCF84309105A9F10597B1F6809111
:101700007A0290917B02909329028093280286E0CE
:1017100090E090932301809322010EC080917A0281
:1017200090917B02909319028093180286E090E0DA
:1017300090930F0180930E01DF91CF9108958091D6
:101740007A0290917B0290931F0280931E0286E0A2
:1017500090E09093170180931601EECF81E0809383
:101760002402EACF80917A0290917B029093170233
:101770008093160286E090E0909307018093060123
:10178000DBCF909109039111FCCF282F91E090932A
:101790000903909308033FEF309307031092060369
:1017A000380F309305039093E4029091E4029E6E0B
:1017B0009093E4029091E302913019F51092E302C4
:1017C0009091E4029093BB009091BC0093FDF8CF00
:1017D00095EC9093BC00909109039130E1F39091C6
:1017E0000603981710F420910603A5EEB2E0E3EC8F
:1017F000F2E080E0821307C01092C2028093C1021F
:10180000089595EEE6CF9D9191938F5FF3CFCF939F
:10181000C1E0C0930A0397E790932C0310920B0347
:1018200010922D03682F8BEC93E00E944D070E94CD
:101830006701C0930A0310920B0310922D0381E0FD
:1018400090E00E94C10B8BEC93E00E940607C82F2A
:101850000E9467018C2FCF910895CF93DF93C1E051
:10186000C0930A0397E790932C0310920B031092F6
:101870002D03682F8BEC93E00E944D070E946701B7
:10188000C0930A0310920B0310922D0382E090E0A4
:101890000E94C10B8BEC93E00E940607D82F80E0DA
:1018A000C82F8BEC93E00E940607C82BD92B0E940F
:1018B0006701CE01DF91CF910895FC0101900020D6
:1018C000E9F73197AF01481B590BBC018EE293E059
:1018D0000C94E101CF93DF930E94CE02EC0181E5ED
:1018E00091E00E945D0C8C0F9D1FDF91CF910895B8
:1018F0000F931F93CF93DF9300E512E0C0E2D0E097
:10190000F80161918F01CE010E94DF242196C43637
:10191000D105B1F7DF91CF911F910F910895EF920B
:10192000FF920F931F93CF93DF93CDB7DEB7C454CD
:10193000D1090FB6F894DEBF0FBECDBF0E9470086C
:1019400080E5E82E82E0F82E00E210E0C8010E9457
:10195000D724F70181937F010F5F1F4F04361105D4
:10196000A9F7409192025091930284E4E0E5F2E0FD
:10197000DE01119601900D928A95E1F7FE013196F4
:10198000BE016D5B7F4F30E020E0E617F70731F0D6
:101990008191280F311D87FD3A95F7CF81E04217DD
:1019A000530709F080E0CC5BDF4F0FB6F894DEBF41
:1019B0000FBECDBFDF91CF911F910F91FF90EF90A0
:1019C00008958F929F92AF92BF92CF92DF92FF9233
:1019D0000F931F93CF93DF9300D000D01F92CDB70A
:1019E000DEB72AE0AE014F5F5F4F6A010E94A52477
:1019F000F60101900020E9F73197FE2EFC1868EB04
:101A00007BE080E090E00E94930656018A2D8C19BD
:101A10008F15F0F468EE73E080E090E00E9493068A
:101A2000F50101915F01005309F40AE010E0912CE7
:101A3000812C0E946E09FFEF8F1A9F0A8016910673
:101A40002CF76AEF70E080E090E00E949306F1CFFF
:101A50000F900F900F900F900F90DF91CF911F91EB
:101A60000F91FF90DF90CF90BF90AF909F908F909D
:101A70000895CF92DF92EF92FF920F931F93CF932F
:101A8000DF93CDB7DEB7CC5DD1090FB6F894DEBFDA
:101A90000FBECDBF8C010E945D0C81E591E00E94DC
:101AA0005D0CD8018C918536A1F484EE91E00E9402
:101AB0006A0CC452DF4F0FB6F894DEBF0FBECDBF25
:101AC000DF91CF911F910F91FF90EF90DF90CF901A
:101AD0000895823719F482ED91E0E9CF873719F440
:101AE00080EC91E0E4CF8E3619F48EEA91E0DFCFFE
:101AF0008C3619F48CE991E0DACF833619F48AE850
:101B000091E0D5CF813619F488E791E0D0CF8236C5
:101B100009F0C7C28FE691E00E94CE021A821982B4
:101B2000FE01339684E9DF011D928A95E9F78E0163
:101B300009561F4FF8011192119288E0DF011D92A2
:101B40008A95E9F70E948F0C811104C08AEE90E01B
:101B50000E94CE0264E571E0CE0101960E94072941
:101B6000809151028F93809150028F9380E6E82EEE
:101B700081E0F82EFF92EF921F930F930E9412299B
:101B8000B801CE0101960E940729809153028F93DC
:101B9000809152028F93FF92EF921F930F930E94B6
:101BA0001229B801CE0101960E94072980915502A1
:101BB0008F93809154028F93FF92EF921F930F9314
:101BC0000E941229B801CE0101960E940729809136
:101BD00057028F93809156028F93FF92EF921F933B
:101BE0000F930E941229B801CE0101960E94072985
:101BF000809159028F93809158028F93FF92EF92B8
:101C00001F930F930E941229B801CE0101960E94E2
:101C1000072980915D028F9380915C028F93FF92E0
:101C2000EF921F930F930E9412290FB6F894DEBF14
:101C30000FBECDBFB801CE0101960E940729809149
:101C40005B028F9380915A028F93FF92EF921F93C2
:101C50000F930E941229B801CE0101960E94072914
:101C600064E671E0CE0101960E94072967E871E001
:101C7000CE0101960E9407291F9281E08F93FF9267
:101C8000EF921F930F930E941229B801CE01019683
:101C90000E9407291F9282E08F93FF92EF921F9379
:101CA0000F930E941229B801CE0101960E940729C4
:101CB00080915F028F9380915E028F93FF92EF92EB
:101CC0001F930F930E941229B801CE0101960E9422
:101CD0000729809161028F93809160028F93FF9218
:101CE000EF921F930F930E941229B801CE01019623
:101CF0000E940729809163028F93809162028F93E3
:101D0000FF92EF921F930F930E9412290FB6F8943F
:101D1000DEBF0FBECDBFB801CE0101960E940729DC
:101D2000809165028F93809164028F93FF92EF926E
:101D30001F930F930E941229B801CE0101960E94B1
:101D40000729809167028F93809166028F93FF929B
:101D5000EF921F930F930E941229B801CE010196B2
:101D60000E940729809169028F93809168028F9366
:101D7000FF92EF921F930F930E941229B801CE0198
:101D800001960E94072980916B028F9380916A02CD
:101D90008F93FF92EF921F930F930E941229B80125
:101DA000CE0101960E94072980916D028F93809148
:101DB0006C028F93FF92EF921F930F930E94122950
:101DC000B801CE0101960E940729809171028F937C
:101DD000809170028F9380916F028F9380916E0239
:101DE0008F938EE691E09F938F931F930F930E94A2
:101DF00012290FB6F894DEBF0FBECDBFB801CE01D9
:101E000001960E940729809173028F93809172023C
:101E10008F93FF92EF921F930F930E941229B801A4
:101E2000CE0101960E940729809175028F938091BF
:101E300074028F93FF92EF921F930F930E941229C7
:101E4000B801CE0101960E940729809177028F93F5
:101E5000809176028F93FF92EF921F930F930E94CF
:101E60001229B801CE0101960E94072980917902BA
:101E70008F93809178028F93FF92EF921F930F932D
:101E80000E941229B801CE0101960E940729809173
:101E90007B028F9380917A028F93FF92EF921F9330
:101EA0000F930E941229B801CE0101960E940729C2
:101EB00080917D028F9380917C028F93FF92EF92AD
:101EC0001F930F930E9412290FB6F894DEBF0FBE26
:101ED000CDBFB801CE0101960E94072980917F02F3
:101EE0008F9380917E028F93FF92EF921F930F93B7
:101EF0000E941229B801CE0101960E940729809103
:101F000081028F93809180028F93FF92EF921F93B3
:101F10000F930E941229B801CE0101960E94072951
:101F2000809183028F93809182028F93FF92EF9230
:101F30001F930F930E941229B801CE0101960E94AF
:101F40000729809185028F93809184028F93FF925D
:101F5000EF921F930F930E941229B801CE010196B0
:101F60000E940729809187028F93809186028F9328
:101F7000FF92EF921F930F930E941229B801CE0196
:101F800001960E940729809189028F93809188028F
:101F90008F93FF92EF921F930F930E9412290FB617
:101FA000F894DEBF0FBECDBFB801CE0101960E94EE
:101FB000072980918B028F9380918A028F93FF92E1
:101FC000EF921F930F930E941229B801CE01019640
:101FD0000E94072980918D028F9380918C028F93AC
:101FE000FF92EF921F930F930E941229B801CE0126
:101FF00001960E94072980918F028F9380918E0213
:102000008F93FF92EF921F930F930E941229B801B2
:10201000CE0101960E940729809191028F938091B1
:1020200090028F93FF92EF921F930F930E941229B9
:10203000B801CE0101960E940729FE0131960FB624
:10204000F894DEBF0FBECDBF90E080E02191820FFB
:10205000911D27FD9A950E171F07C1F799279F938A
:102060008F9383E791E09F938F931F930F930E9429
:102070001229B801CE0101960E94072988E791E054
:102080000E945D0CCE0101960E945D0C88E691E0F5
:102090000E94CE020F900F900F900F900F900F9014
:1020A00008CD833709F082C1C552DF4F19830883F9
:1020B000CB5DD0401A821982FE01339682E6DF01A1
:1020C0001D928A95E9F7D12CC12CF12CE12CAE019F
:1020D00045525F4F67E871E0C552DF4F88819981B3
:1020E000CB5DD0400E9461248C01009709F41BC194
:1020F000F7013197E132F10508F030C0EE57FF4E9D
:102100000C940129A310B210B910C010C710CE1042
:10211000D510DC10E310EA10F110F810FF100611D2
:102120000D1114111F1126112D1134113B114211E3
:102130004911501157115E1165116C1173117A110B
:10214000811188118F110E941C2490935102809359
:102150005002B801CE0101960E940729BFEFEB1A89
:10216000FB0AB5CF0E941C24909353028093520225
:10217000F0CF0E941C249093550280935402E9CF23
:102180000E941C249093570280935602E2CF0E9433
:102190001C249093590280935802DBCF0E941C2488
:1021A00090935B0280935A02D4CF0E941C24909398
:1021B0005D0280935C02CDCF0E943A2470935F024F
:1021C00060935E02C6CF0E943A24709361026093CE
:1021D0006002BFCF0E943A24709363026093620250
:1021E000B8CF0E941C249093650280936402B1CF03
:1021F0000E941C249093670280936602AACF0E94DB
:102200003A247093690260936802A3CF0E941C2451
:1022100090936B0280936A029CCF0E941C2490933F
:102220006D0280936C0295CF0E943A2460936E02F7
:1022300070936F0280937002909371028ACF0E9414
:102240001C24909373028093720283CF0E941C24FB
:1022500090937502809374027CCF0E941C2490930B
:1022600077028093760275CF0E941C2490937902A6
:10227000809378026ECF0E943A2470937B02609321
:102280007A0267CF0E941C2490937D0280937C0287
:1022900060CF0E941C2490937F0280937E0259CFCE
:1022A0000E941C24909381028093800252CF0E944E
:1022B0001C2490938302809382024BCF0E941C24A3
:1022C000909385028093840244CF0E941C249093B3
:1022D0008702809386023DCF0E941C24909389023E
:1022E0008093880236CF0E941C2490938B028093A7
:1022F0008A022FCF0E941C2490938D0280938C021F
:1023000028CF0E941C2490938F0280938E0221CFAD
:102310000E941C2490939102809390021ACF0E94F5
:102320001C246C011BCFE0E2EE16F1042CF48CE5CA
:1023300091E00E94CE02BDCBFE0131969E012B5949
:102340003F4F90E080E04191840F911D47FD9A95A9
:102350002E173F07C1F78C151D0449F784E4E0E50B
:10236000F2E0DE01A956BF4F01900D928A95E1F788
:10237000FE01E956FF4FAE0147525F4F90E080E00B
:102380004E175F0731F02191820F911D27FD9A951D
:10239000F7CF90939302809392020E94780C0E9450
:1023A0008F0C0E94340A82E691E0C3CF843649F450
:1023B0000E9470080E94780C0E948F0C0E94340AC0
:1023C00078CB883619F486E591E0B3CF863631F4C0
:1023D00081E08093A70280E591E0ABCF8B36A1F539
:1023E00011968C9189831A82CE0101960E943A241B
:1023F00097FD5FCBFF24F394F8018281863409F4C2
:10240000F12CCE0101960E941C2482309105A1F08E
:102410004CF4019709F04DCB6F2D89E090E00E94BC
:10242000EF0947CB8330910559F0049709F041CB70
:102430006F2D86E090E0F3CF6F2D8AE090E0EFCF34
:102440006F2D85E090E0EBCF8937A9F411968C9140
:10245000813351F48DE391E00E94CE0281E08093BC
:10246000900183E291E065CF89E291E00E94CE0283
:1024700010929001F6CF8D3669F4F8018181813395
:1024800029F41092A7028DE191E053CF81E080936F
:10249000A702F9CF873629F41092A70287E191E0CD
:1024A00048CF843739F40E9470080E94780C87E086
:1024B00091E03FCF893609F4FCCA803219F481E0FB
:1024C00091E037CF87EF90E00E94CE02D8016C9167
:1024D0008EE293E00E94810281E591E00E945D0C12
:1024E000E8CA2F923F924F925F926F927F928F92A3
:1024F0009F92AF92BF92CF92DF92EF92FF920F9393
:102500001F93CF93DF93CDB7DEB7C35DD1090FB66D
:10251000F894DEBF0FBECDBF1A821982FE0133963A
:1025200026ECDF011D922A95E9F78E0107531F4F14
:10253000F8011192119228E0DF011D922A95E9F726
:1025400020919001222309F49EC17A01892E982EB0
:10255000A72EB62E0E945B0140908C0150908D01F9
:1025600060908E0170908F01DC01CB018419950978
:10257000A609B709A701FF0C660B770B4817590787
:102580006A077B0708F07FC10E945B0160938C01A2
:1025900070938D0180938E0190938F0160909E02C5
:1025A000B0919502CD52DF4FB883C35DD0402090EB
:1025B0009F023090A0024090A1025090A202809110
:1025C000940281117AC1712CC12CD12C6AE771E07F
:1025D000CE0101960E9407295F924F923F922F925F
:1025E00080E6E82E81E0F82EFF92EF921F930F9382
:1025F0000E941229B801CE0101960E9407291F925C
:102600006F92FF92EF921F930F930E941229B801CD
:10261000CE0101960E9407291F92CD52DF4F88817B
:10262000C35DD0408F93FF92EF921F930F930E9450
:102630001229B801CE0101960E94072980914F020C
:102640008F9380914E028F9380914D028F93809152
:102650004C028F93FF92EF921F930F930E941229C7
:10266000B801CE0101960E9407291F927F92FF9226
:10267000EF921F930F930E9412290FB6F894DEBFBA
:102680000FBECDBFB801CE0101960E9407298091EF
:102690004B028F9380914A028F93809149028F93CE
:1026A000809148028F93FF92EF921F930F930E94A5
:1026B0001229B801CE0101960E940729DF92CF921C
:1026C000FF92EF921F930F930E941229B801CE013F
:1026D00001960E9407298F929F92AF92BF92FF921C
:1026E000EF921F930F930E941229B801CE01019619
:1026F0000E94072965E871E0CE0101960E94072932
:1027000065E871E0CE0101960E94072965E871E055
:10271000CE0101960E94072965E871E0CE0101967D
:102720000E94072965E871E0CE0101960E94072901
:102730008EE20E947C078FE19EE40197F1F700C0D2
:10274000000086EF0E942D0C9C0150E040E080913B
:102750000D0490910E04281B390B41095109A091D9
:102760000B04B0910C040E940C250E94672620E007
:1027700030E040E058E30E94F3260E942F264B01F0
:102780005C016091050470910604072E000C880B13
:10279000990B0E94672620E030E040E055E40E945B
:1027A000F3262B013C016091070470910804072E69
:1027B000000C880B990B680D791D8A1D9B1D0E94CA
:1027C00067269B01AC01C301B2010E94BD250E9496
:1027D0002F26680D791D8A1D9B1D685F7F4F8F4FC7
:1027E0009F4F0E94672620E030E040E85DE30E94B2
:1027F000F32620E030E040E251E40E94BD250E9433
:102800002F267F936F93FF92EF921F930F930E9457
:102810001229B801CE0101960E940729FE013196C6
:102820000FB6F894DEBF0FBECDBF90E080E02191DF
:10283000820F911D27FD9A950E171F07C1F7992743
:102840009F938F9389E891E09F938F931F930F93AA
:102850000E941229B801CE0101960E94072965E75E
:1028600071E0CE0101960E94072988E791E00E945D
:102870005D0CCE0101960E945D0C0F900F900F90A1
:102880000F900F900F90CD52DF4F0FB6F894DEBF30
:102890000FBECDBFDF91CF911F910F91FF90EF90B1
:1028A000DF90CF90BF90AF909F908F907F906F9070
:1028B0005F904F903F902F90089581E0D12CBAE027
:1028C0002B163104410451040CF080E0C82E77240B
:1028D00073947CCE4F925F926F927F928F929F9271
:1028E000AF92BF92CF92DF92EF92FF921F93CF935E
:1028F000DF9300D000D000D0CDB7DEB78EE20E94CB
:102900007C078FE19EE40197F1F700C0000086EF9D
:102910000E942D0C4C01B12CA12C8091F8038295C2
:10292000880F880F807C8C5C0E947C078091F80364
:10293000811109C2AFE1BEE41197F1F700C00000B8
:1029400086EF0E942D0CB0E0A0E0CC24D82EE92E1A
:10295000FA2E88EF0E94070CC82A1091F803412F25
:1029600050E05E834D8380910D0490910E04A5018B
:102970009401281B390B41095109A0910B04B09116
:102980000C040E940C250E94672620E030E040E005
:1029900058E30E94F3260E942F262B013C016091F0
:1029A000050470910604072E000C880B990B0E94F9
:1029B000672620E030E040E055E40E94F3264B011A
:1029C0005C016091070470910804072E000C880BCD
:1029D000990B640D751D861D971D0E9467269B012E
:1029E000AC01C501B4010E94BD250E942F26460EF0
:1029F000571E681E791E50EA451A5FE0550A6108A5
:102A00007108A3019201C301B2010E94E5289B0154
:102A1000AC01ACE05595479537952795AA95D1F728
:102A200029833A834B835C83A091FD03B091FE031D
:102A3000A30192010E9417254B015C01BDE0B594F2
:102A4000A79497948794BA95D1F7A091FF03B0917A
:102A5000000429813A814B815C810E9417259C01E9
:102A6000552737FD5095452F280D391D4A1D5B1DF3
:102A70002E5F3F4F4F4F5F4F62E05595479537951B
:102A800027956A95D1F730584F4F5F4FA0910904B1
:102A9000B0910A040E940C254B015C017FE0B694C2
:102AA000A794979487947A95D1F788E090E04D8128
:102AB0005E81841B950B04C0F694E794D794C79469
:102AC0008A95D2F7A0910104B091020429813A813C
:102AD0004B815C810E9417259B01AC01EBE0559571
:102AE000479537952795EA95D1F729833A834B8304
:102AF0005C83A091FB03B091FC03A30192010E94AF
:102B00001725FBE09595879577956795FA95D1F709
:102B100029813A814B815C81620F731F841F951F4D
:102B20004090F9035090FA03052C000C66087708D2
:102B3000A2E0440C551C661C771CAA95D1F7640DC5
:102B4000751D861D971D012E04C0660F771F881FF7
:102B5000991F0A94D2F76E5F7F4F8F4F9F4F24E0EB
:102B600030E040E050E00E94ED24D701C601821B16
:102B7000930BA40BB50B9C01AD0160E573EC80E0F9
:102B800090E004C096958795779567951A95D2F74A
:102B90000E94E52897FDEDC0660F771F881F991FDB
:102BA000A50194010E941F2569017A019927F7FC6C
:102BB0009A958F2D7E2D6D2D9B01AC010E94E528ED
:102BC0009B01AC01AEEDBBE00E940C254B015C010A
:102BD000A3E4B3EEA70196010E941A25BC01992730
:102BE00077FD9095892F4501BB2497FCB094AB2CC1
:102BF000680D791D8A1D9B1D6153714F8F4F9F4F2B
:102C000044E095958795779567954A95D1F76C0D32
:102C10007D1D8E1D9F1D0E94672620E836EE45EC27
:102C200057E40E94BD2521E03EED42E45EE30E94B0
:102C3000602769837A838B839C834090090250903C
:102C40000A0260900B0270900C0220910D023091EC
:102C50000E0240910F025091100260910502709196
:102C6000060280910702909108020E9451256B0193
:102C70007C01209111023091120240911302509177
:102C800014020E9451259B01AC0160E070E080E8D5
:102C90009FE30E94BD25A70196010E94F3264B01E8
:102CA0005C0129813A814B815C8160E070E080E8C1
:102CB0009FE30E94502520E03AE24DE257E40E9453
:102CC000F326A30192010E945025A50194010E94C0
:102CD000F326A30192010E9451252B013C01409251
:102CE000090250920A0260920B0270920C02A50136
:102CF000940160E070E080E89FE30E945025A70106
:102D000096010E94F3266093050270930602809359
:102D1000070290930802C301B20126960FB6F894F9
:102D2000DEBF0FBECDBFDF91CF911F91FF90EF901F
:102D3000DF90CF90BF90AF909F908F907F906F90DB
:102D40005F904F900895813029F48FEF9CE70197B1
:102D5000F1F7F4CD823029F4AFEBBAED1197F1F72A
:102D6000EDCDBFEF24E431E0B15020403040E1F739
:102D7000E5CDA50194010E941F2569017A01CC0CC3
:102D8000DD1CEE1CFF1C12CF1F920F920FB60F928C
:102D900011242F933F934F935F936F937F938F9360
:102DA0009F93AF93BF93EF93FF938091B102909164
:102DB000B202A091B302B091B402892B8A2B8B2B63
:102DC000D1F19091AC02E091AD02F091AE02808120
:102DD000892780838091B1029091B202A091B302C1
:102DE000B091B402181619061A061B069CF48091BD
:102DF000B1029091B202A091B302B091B4020197D6
:102E0000A109B1098093B1029093B202A093B302D9
:102E1000B093B402FF91EF91BF91AF919F918F91C9
:102E20007F916F915F914F913F912F910F900FBEC6
:102E30000F901F90189580912C010E94BB03EACF40
:102E40001F920F920FB60F9211242F933F934F931F
:102E50005F936F937F938F939F93AF93BF93EF9302
:102E6000FF938EE293E00E945F02FF91EF91BF918A
:102E7000AF919F918F917F916F915F914F913F9112
:102E80002F910F900FBE0F901F9018951F920F92C9
:102E90000FB60F9211242F938F939F93EF93FF936D
:102EA000E0913E03F0913F038081E0914403F09173
:102EB000450382FD1BC09081809147038F5F8F7314
:102EC00020914803821741F0E0914703F0E0E25D72
:102ED000FC4F958F80934703FF91EF919F918F91C6
:102EE0002F910F900FBE0F901F9018958081F4CFF7
:102EF0001F920F920FB60F9211242F933F938F932F
:102F00009F93AF93BF938091FB019091FC01A0919F
:102F1000FD01B091FE013091FA0123E0230F2D371E
:102F200058F50196A11DB11D2093FA018093FB0174
:102F30009093FC01A093FD01B093FE018091FF01ED
:102F400090910002A0910102B09102020196A11D90
:102F5000B11D8093FF0190930002A0930102B093F2
:102F60000202BF91AF919F918F913F912F910F904E
:102F70000FBE0F901F90189526E8230F0296A11DF3
:102F8000B11DD2CF1F920F920FB60F9211242F9323
:102F90003F934F935F936F937F938F939F93AF93E1
:102FA000BF93EF93FF938091B900887F803609F437
:102FB0004AC0F0F5883209F4A7C018F5803109F449
:102FC0009BC0B8F4882309F4F9C0883009F494C090
:102FD000FF91EF91BF91AF919F918F917F916F91F1
:102FE0005F914F913F912F910F900FBE0F901F90C7
:102FF0001895883109F488C0803251F7809307030F
:1030000014C0803409F49DC040F48033B9F3883390
:10301000F9F68093070385ECB0C0803509F485C0CC
:10302000883509F496C0883499F60E94C506D0CF39
:10303000883909F48CC038F5883729F050F488367F
:1030400011F0803729F683E0809309031092F9018B
:1030500057C0883809F47BC0803919F0803809F0EE
:10306000B7CF8091F901803208F071C0E091F90189
:1030700081E08E0F8093F9018091BB00F0E0E75270
:10308000FE4F80833DC0803B39F0E0F4803A09F484
:1030900079C0883A09F09CCF84E0809309031092AC
:1030A000D8011092D701E091AA02F091AB020995E4
:1030B0008091D70181110FC081E08093D7011092D8
:1030C000B70109C0803C09F4A6CF883C09F4A3CF1E
:1030D000883B09F07DCFE091D80181E08E0F80938D
:1030E000D801F0E0E954FE4F80818093BB009091BD
:1030F000D8018091D70129C08091E4028093BB0060
:1031000085EC8093BC0064CF909106038091050309
:10311000981758F5E091060381E08E0F809306031F
:10312000F0E0EB51FD4F8081E9CFE091060381E0B3
:103130008E0F809306038091BB00F0E0EB51FD4FB2
:10314000808390910603809105039817C8F285E863
:10315000D8CFE091060381E08E0F80930603809123
:10316000BB00F0E0EB51FD4F80838091080381119B
:103170005CCF81E08093E30284EA8093BC001092EC
:10318000090326CF85EC8093BC001092090380913F
:10319000F901803230F4E091F901F0E0E752FE4F9E
:1031A00010826091F90170E0E091A802F091A9020B
:1031B00089ED91E009951092F9010ACF1092070369
:1031C00034CF1F920F920FB60F9211242F933F937B
:1031D0004F935F936F937F938F939F93AF93BF931F
:1031E000CF93DF93EF93FF9380919101C091920170
:1031F000D0E087FF24C01092850010928400809157
:1032000091018F5F8093910180919101082E000CB4
:10321000990B8C179D0724F4809191018C30C4F197
:103220008091840090918500049680349C4908F434
:103230007AC08091840090918500049676C0809138
:103240009101082E000C990B8C179D07C4F6E09194
:1032500091018E2FEE0F990BFC01EE0FFF1FE80F6F
:10326000F91FED56FE4F808186FFC9CFE091910195
:103270008E2FEE0F990BFC01EE0FFF1FE80FF91FC9
:10328000ED56FE4F808160E08F730E945B03B7CFE5
:103290002091840030918500E09191018E2FEE0FF6
:1032A000990BFC01EE0FFF1FE80FF91FED56FE4FC3
:1032B00081819281820F931F90938900809388006F
:1032C000E09191018E2FEE0F990BFC01EE0FFF1F85
:1032D000E80FF91FED56FE4F808186FF11C0E09187
:1032E00091018E2FEE0F990BFC01EE0FFF1FE80FDF
:1032F000F91FED56FE4F808161E08F730E945B03E2
:10330000FF91EF91DF91CF91BF91AF919F918F91FD
:103310007F916F915F914F913F912F910F900FBED1
:103320000F901F90189580E49CE9909389008093FA
:1033300088008FEF80939101E3CFFC01909192017F
:103340009C3098F481E0890F809392019083892FBB
:1033500090E0FC01EE0FFF1FE80FF91FED56FE4F46
:1033600088EB9BE09283818308958FEF808308959B
:10337000EEE2F3E01382128288EE93E0A0E0B0E088
:1033800084839583A683B78321E331E0318320834F
:1033900025EC30E03587248724EC30E0378726871A
:1033A00020EC30E0318B208B21EC30E0338B228B12
:1033B00022EC30E0358B248B26EC30E0378B268BEB
:1033C000118E128E138E148EEBECF3E013821282A8
:1033D00084839583A683B78383E491E0918380837C
:1033E000E5EEF3E010828BE591E096838583EEEDC8
:1033F000F3E0108296838583E7EDF3E010829683F5
:10340000858385EF93E00E949D1982EF93E00E94EF
:103410009D198FEE93E00E949D198CEE93E00C9421
:103420009D19CF93DF93CDB7DEB7CD5CD1090FB631
:10343000F894DEBF0FBECDBF789484B5826084BDA2
:1034400084B5816084BD85B5826085BD85B58160A8
:1034500085BD80916E00816080936E001092810026
:1034600080918100826080938100809181008160E1
:1034700080938100809180008160809380008091A2
:10348000B10084608093B1008091B000816080932E
:10349000B00080917A00846080937A0080917A00F5
:1034A000826080937A0080917A00816080937A00B4
:1034B00080917A00806880937A001092C1000E9407
:1034C0008F0C80931502811104C00E9470080E9425
:1034D000780C80916E0290916F02A0917002B09171
:1034E00071028C3221E09207A105B10509F452C0A6
:1034F000803B34E09307A105B10509F44BC0803649
:1035000049E09407A105B10509F444C0803C52E1AB
:103510009507A105B105F1F18038E5E29E07A10507
:10352000B105C1F18034F8E39F07A105B10591F120
:1035300081152BE49207A105B10561F1803830E7D0
:103540009307A105B10531F1811546E99407A1055D
:10355000B10501F1811551EE9507A105B105D1F035
:103560008115E2EC9E07E1E0AE07B10599F0811507
:103570009448A340B10571F080E096E9A0E0B0E086
:1035800080936E0290936F02A0937002B0937102C9
:103590000E94780C8EE192E00E94CE02809150024F
:1035A00090915102892B09F02FC380E090E0A0E8B0
:1035B000BFE38093280190932901A0932A01B0933F
:1035C0002B0160915A0270915B02072E000C880B50
:1035D000990B0E9467262091280130912901409182
:1035E0002A0150912B010E94BD250E942F26072EF3
:1035F000000C880B990B60931A0270931B02809346
:103600001C0290931D028091640290916502909338
:103610000402809303021092470210924602109215
:103620004502109244021092400210924102109200
:1036300042021092430210923C0210923D021092FC
:103640003E0210923F0210923802109239021092FC
:103650003A0210923B0210923402109235021092FC
:1036600036021092370210923302109232021092F8
:1036700031021092300210922F0210922E021092FC
:103680002D0210922C0210922B0210922A021092FC
:103690009502109294020E94340A69E070E085EF6E
:1036A00093E00E9414086AE070E082EF93E00E94C9
:1036B000140865E070E08FEE93E00E94140866E065
:1036C00070E08CEE93E00E94140860E089E090E0E6
:1036D0000E94EF0960E08AE090E00E94EF0960E05C
:1036E00085E090E00E94EF0960E086E090E00E94B3
:1036F000EF0980912701811103C081E08093C0020E
:1037000080912601811103C081E08093BF028091E6
:103710002501811103C081E08093BE0280912401C4
:10372000811103C081E08093BD0282ED90E0A0E8AA
:10373000B0E48093110290931202A0931302B0930D
:1037400014028CE69FECACE4BEE380930D029093F0
:103750000E02A0930F02B093100210920902109271
:103760000A0210920B0210920C02109205021092A3
:10377000060210920702109208020E948903C0906C
:103780006E02D0906F02E0907002F090710260E0E3
:1037900079E08DE390E0A70196010E941F2521505A
:1037A0003109410951095695479537952795E0917B
:1037B0003E03F0913F0382E08083C11441EED406C2
:1037C000E104F10421F0211550E13507A8F0E09162
:1037D0003E03F0913F03108260E874E88EE190E0D0
:1037E000A70196010E941F25215031094109510965
:1037F0005695479537952795E0913A03F0913B030D
:103800003083E0913C03F0913D0320831092460306
:10381000E0914203F091430386E08083E09140030E
:10382000F0914103808180618083E0914003F091B9
:103830004103808188608083E0914003F0914103DF
:10384000808180688083E0914003F0914103808112
:103850008F7D808362E080E00E94E70380917202A6
:10386000843008F083E08093F8030E94890380EDA0
:103870000E94070C853509F04DC08AEA0E942D0C84
:103880009093FA038093F9038CEA0E942D0C909395
:10389000FC038093FB038EEA0E942D0C9093FE03A1
:1038A0008093FD0380EB0E942D0C90930A0480937B
:1038B000090482EB0E942D0C90930C0480930B045E
:1038C00084EB0E942D0C90930E0480930D0486EBE4
:1038D0000E942D0C909300048093FF0388EB0E94BC
:1038E0002D0C90930204809301048AEB0E942D0C0E
:1038F00090930404809303048CEB0E942D0C90930E
:103900000604809305048EEB0E942D0C909308040E
:103910008093070461E08DE00E94E70360E088E0A7
:103920000E94E70360E087E00E94E70360E08DE02B
:103930000E945B030E943C090E946E090E946E096E
:103940008091660290916702092E000CAA0BBB0BB6
:103950008093180190931901A0931A01B0931B0151
:1039600080911502811125C084E690E0A0E0B0E0CE
:1039700080931A0290931B02A0931C02B0931D0225
:1039800088E00E9432038C0187E00E943203011517
:10399000110509F03EC1892B61F482E390E0A0E0BB
:1039A000B0E080931A0290931B02A0931C02B09384
:1039B0001D0202E310E00E946A1401501109D9F7B8
:1039C0000AE010E0C12CD12C76010E946A144B0150
:1039D0005C01C701B6010E946726A50194010E94FF
:1039E00051250E942F266B017C0162E370E080E08C
:1039F00090E00E9493060150110939F7C701B60102
:103A00000E94672620E030E040E251E40E94BD259C
:103A10000E942F266093A3027093A4028093A502B4
:103A20009093A6021092200210922102109222027C
:103A30001092230280917C0290917D02092E000C4D
:103A4000AA0BBB0B8093960290939702A0939802C7
:103A5000B0939902312C212C00E20B3309F4D3C628
:103A60008091A7028111ADC60E946A146B017C018E
:103A70006091A3027091A4028091A5029091A60288
:103A80000E9467269B01AC01C701B6010E94502528
:103A90000E942F2660939F027093A0028093A10240
:103AA0009093A20280919E02882391F00E945B0174
:103AB000C0909A02D0909B02E0909C02F0909D02F0
:103AC0006C197D098E099F0948EC50E00E94711223
:103AD00040919F025091A0026091A1027091A202B8
:103AE0008091960290919702A0919802B0919902CC
:103AF00084179507A607B7070CF497C044EF51E069
:103B000060E070E0CB010E9471120E945B014B01EA
:103B10005C0180919502882309F453C68091940238
:103B2000882309F44EC68EE293E00E943F02892B5F
:103B3000A9F08EE293E00E941D02082F8B3309F456
:103B40000BC68A3059F0E1E0F0E0EC0FFD1FE20D0A
:103B5000F31D808391012F5F3F4F19010E945B018C
:103B6000681979098A099B096131774281059105B4
:103B700080F20E944F0960914C0270914D02809139
:103B80004E0290914F02C0902801D0902901E09000
:103B90002A01F0902B012091520230915302232BE5
:103BA00009F0F9C50E946726A70196010E94F32635
:103BB0000E942F260E9481090E944F0960914802AD
:103BC0007091490280914A0290914B02C090280165
:103BD000D0902901E0902A01F0902B01209152020F
:103BE00030915302232B09F0E1C50E946726A701FB
:103BF00096010E94F3260E942F260E9481090E94AE
:103C00005B014B015C01AACF88E499EFA1E5B0E428
:103C1000D0CC0130110509F0CCCE009709F004C6D4
:103C200086E990E0A0E0B0E0BCCE1092470210928E
:103C300046021092450210924402109240021092E5
:103C40004102109242021092430210923C021092E2
:103C50003D0210923E0210923F02109238021092E2
:103C6000390210923A0210923B02109234021092E2
:103C700035021092360210923702109233021092DF
:103C80003202109231021092300210922F021092E2
:103C90002E0210922D0210922C0210922B021092E2
:103CA0002A021092940210929502809127018111AC
:103CB00003C081E08093C00280912601811103C07E
:103CC00081E08093BF0280912501811103C081E0D2
:103CD0008093BE0280912401811103C081E0809312
:103CE000BD0211E00E946A146B017C016091A30285
:103CF0007091A4028091A5029091A6020E9467266D
:103D00009B01AC01C701B6010E9450250E942F26DD
:103D100060939F027093A0028093A1029093A202ED
:103D200080919E02882391F00E945B01C0909A02CC
:103D3000D0909B02E0909C02F0909D026C197D094E
:103D40008E099F0948EC50E00E94711240919F0239
:103D50005091A0026091A1027091A20280919602FE
:103D600090919702A0919802B091990284179507BB
:103D7000A607B7071CF580919E0281111FC0809194
:103D800094028111AFCF10939E0248EC50E060E0A6
:103D900070E0CB010E9471120E945B0160939A0255
:103DA00070939B0280939C0290939D0280915C0291
:103DB00090915D02019711F41093330280919E025D
:103DC000882309F48FCF412C512C3201812C912C66
:103DD0005401C353DF4F1882CD5CD0408BC2C35314
:103DE000DF4F8881CD5CD04081118FCE7BCF809119
:103DF0007A0290917B02092E000CAA0BBB0BA70143
:103E00009601281B390B4A0B5B0BDA01C901883E6E
:103E10009340A105B10588F08091BD0281110DC0CC
:103E20008091900290919102892B29F460E086E0C4
:103E300090E00E94EF091093BD0280915C02909186
:103E40005D02019749F449EBC4164BE0D406E10446
:103E5000F10410F01092330280909F029090A00223
:103E6000A090A102B090A202809120029091210224
:103E7000A0912202B091230288169906AA06BB06D9
:103E80000CF051C48091950281114DC48091330290
:103E9000811149C48091180190911901A0911A01D2
:103EA000B0911B010197A109B1098093180190936A
:103EB0001901A0931A01B0931B01892B8A2B8B2B1C
:103EC000A1F4109347020E945B016093400270933B
:103ED0004102809342029093430280924C0290925E
:103EE0004D02A0924E02B0924F0280914702882369
:103EF00009F447C00E945B0180904002909041020B
:103F0000A0904202B0904302AB01BC01481959098C
:103F10006A097B0980911E0290911F02092E000CF4
:103F2000AA0BBB0B481759076A077B0750F150E1F2
:103F3000A52E51E0B52ED5018D909D905D0161E0DB
:103F4000C4010E94EF09C4010E94C401E8E1F1E04C
:103F5000EA15FB0581F710924702109395020E9423
:103F60005B0180909A0290909B02A0909C02B0907E
:103F70009D02681979098A099B0948EC50E00E9462
:103F8000711240909F025090A0026090A102709028
:103F9000A20280911A0290911B02A0911C02B09182
:103FA0001D02481659066A067B06A0F58091950207
:103FB000882381F18091940281112CC040E1A42ECC
:103FC00041E0B42E8091900290919102892B31F4BE
:103FD00060E0D5018D919C910E94EF09B2E0AB0E9B
:103FE000B11CE8E1AE16E1E0BE0661F710934602AF
:103FF0000E945B0160933C0270933D0280933E02FD
:1040000090933F02409248025092490260924A02C5
:1040100070924B0280914602882309F443C00E94AB
:104020005B0180903C0290903D02A0903E02B090D7
:104030003F02AB01BC01481959096A097B0980910B
:10404000180290911902092E000CAA0BBB0B4817FD
:1040500059076A077B0730F138E0A32E31E0B32E11
:1040600061E0D5018D919D915D010E94EF09E0E134
:10407000F1E0EA15FB05A1F71092460210939402B5
:104080000E945B0180909A0290909B02A0909C02FB
:10409000B0909D02681979098A099B0948EC50E0A3
:1040A0000E94711280919402882309F441C00E94F9
:1040B0005B01AB01BC018091180290911902092E9D
:1040C000000CAA0BBB0B80903C0290903D02A0908C
:1040D0003E02B0903F02880D991DAA1DBB1D481BD2
:1040E000590B6A0B7B0B483E53406105710500F18B
:1040F00080912E0281111CC028E0A22E21E0B22E58
:10410000D5018D909D905D018091900290919102DA
:10411000892B21F460E0C4010E94EF09C4010E94D0
:10412000C401E0E1F1E0EA15FB0551F710932E021E
:1041300080914502882309F443C00E945B0180906E
:10414000380290903902A0903A02B0903B02AB0145
:10415000BC01481959096A097B098091160290919E
:104160001702092E000CAA0BBB0B481759076A0748
:104170007B0730F190E0A92E91E0B92E61E0D501E6
:104180008D919D915D010E94EF09E8E0F1E0EA1553
:10419000FB05A1F71092450210932B020E945B01D0
:1041A00080909A0290909B02A0909C02B0909D02F9
:1041B000681979098A099B0948EC50E00E9471123C
:1041C00080912B02882309F441C00E945B01AB015E
:1041D000BC018091160290911702092E000CAA0BC7
:1041E000BB0B8090380290903902A0903A02B090B8
:1041F0003B02880D991DAA1DBB1D481B590B6A0B5C
:104200007B0B483E53406105710500F180912D0202
:1042100081111CC080E0A82E81E0B82ED5018D90C0
:104220009D905D018091900290919102892B21F4E3
:1042300060E0C4010E94EF09C4010E94C401E8E0EB
:10424000F1E0EA15FB0551F710932D0280912E0243
:104250008823C1F080912D028823A1F010929E0244
:104260000E945B0180909A0290909B02A0909C0219
:10427000B0909D02681979098A099B0944EF51E0C1
:104280000E9471128091C002882359F18091BF026F
:10429000882339F18091BE02882319F18091BD02F3
:1042A0008823F9F080912E028823D9F0B0902D0256
:1042B000BB20B9F00E945B0140909A0250909B0293
:1042C00060909C0270909D02641975098609970997
:1042D00044EF51E00E947112C353DF4FB882CD5CAE
:1042E000D040C753DF4F488059806A807B80C95CCB
:1042F000D040460180919E02882309F470CD0E942F
:104300006A146B017C016091A3027091A4028091F8
:10431000A5029091A6020E9467269B01AC01C701ED
:10432000B6010E9450250E942F26C753DF4F688395
:1043300079838A839B83C95CD04060939F0270938A
:10434000A0028093A1029093A2020E945B01C09000
:104350009A02D0909B02E0909C02F0909D029B01FB
:10436000AC012C193D094E095F0969017A01809160
:1043700094028823E9F180912B02811139C0809148
:104380004502811135C0C753DF4F68817981C95C0F
:10439000D04064197509072E000C880B990B0E94F8
:1043A00067262B013C01B60168197909072E000C1C
:1043B000880B990B0E94672620E030E04AE754E41E
:1043C0000E94BD259B01AC01C301B2010E94BD2525
:1043D0000E942F26672B61F4109345020E945B0117
:1043E000609338027093390280933A0290933B02B3
:1043F00048EC50E0C701B6010E94711280912A0278
:1044000081110CC0109344020E945B01609334023E
:104410007093350280933602909337028091440264
:10442000882309F443C00E945B018090340290907D
:104430003502A0903602B0903702AB01BC0148199A
:1044400059096A097B098091280290912902092E55
:10445000000CAA0BBB0B481759076A077B0730F102
:104460007CE1A72E71E0B72E61E0D5018D919D9181
:104470005D010E94EF09B4E2AB16B1E0BB06A1F703
:104480001092440210932A020E945B0180909A02CB
:1044900090909B02A0909C02B0909D0268197909AF
:1044A0008A099B0948EC50E00E94711280912A020F
:1044B000882309F441C00E945B01AB01BC018091DB
:1044C000280290912902092E000CAA0BBB0B8090A8
:1044D000340290903502A0903602B0903702880DD9
:1044E000991DAA1DBB1D481B590B6A0B7B0B483E2F
:1044F00053406105710500F180912C0281111CC0AF
:104500006CE1A62E61E0B62ED5018D909D905D01E7
:104510008091900290919102892B21F460E0C40176
:104520000E94EF09C4010E94C401E4E2F1E0EA152F
:10453000FB0551F710932C0280912702882309F480
:1045400042C080913202811114C080915E0290912C
:104550005F02092E000CAA0BBB0BC816D906EA068F
:10456000FB0638F061E089E090E00E94EF091093CB
:10457000320280913202882331F180915E02909163
:104580005F02092E000CAA0BBB0BA7019601281B8A
:10459000390B4A0B5B0BDA01C901883E9340A10538
:1045A000B10588F08091C00281110DC08091900208
:1045B00090919102892B29F460E089E090E00E94BB
:1045C000EF091093C00280912602882309F442C0AB
:1045D00080913102811114C080916002909161023A
:1045E000092E000CAA0BBB0BC816D906EA06FB065F
:1045F00038F061E08AE090E00E94EF091093310208
:1046000080913102882331F18091600290916102A2
:10461000092E000CAA0BBB0BA7019601281B390B16
:104620004A0B5B0BDA01C901883E9340A105B10535
:1046300088F08091BF0281110DC08091900290910D
:104640009102892B29F460E08AE090E00E94EF0952
:104650001093BF0280912502882309F442C0809103
:104660003002811114C08091620290916302092E80
:10467000000CAA0BBB0BC816D906EA06FB0638F0DD
:1046800061E085E090E00E94EF0910933002809194
:104690003002882331F18091620290916302092EE9
:1046A000000CAA0BBB0BA7019601281B390B4A0B68
:1046B0005B0BDA01C901883E9340A105B10588F082
:1046C0008091BE0281110DC0809190029091910263
:1046D000892B29F460E085E090E00E94EF091093B7
:1046E000BE0280912402882309F4A7CB80912F0277
:1046F000811114C080917A0290917B02092E000CE6
:10470000AA0BBB0BC816D906EA06FB0638F061E017
:1047100086E090E00E94EF0910932F0280912F0213
:10472000811165CB8ACB8092200290922102A092C7
:104730002202B09223028091660290916702092EB4
:10474000000CAA0BBB0B8093180190931901A09346
:104750001A01B0931B01C9CB71013FEFE31AF30AB1
:10476000E1E0F0E0EC0FFD1FE20DF31D108210926E
:1047700095021092940210929E021092C002109222
:10478000BF021092BE021092BD02CE0101960E949D
:10479000390D1701E3C90E946726A70196010E94FF
:1047A000F3260E942F260E94E10C06CA0E9467266B
:1047B000A70196010E94F3260E942F260E94E10C79
:1047C0001ECA8EE293E00E943F02892B09F445C97C
:1047D0008EE293E00E941D02082F8B3369F08A302D
:1047E00081F3E1E0F0E0EC0FFD1FE20DF31D8083AB
:1047F000C10101961C01E5CFE1E0F0E0EC0FFD1FE7
:10480000E20DF31D1082CE0101960E94390D80E069
:1048100090E0892B09F41EC90E944B02882309F4F9
:1048200019C90E94000016C9019709F0C2C888EC96
:1048300090E0A0E0B0E0B5C8FC0188279927E89493
:1048400021912032E9F3293010F02E30C8F32B32B9
:1048500041F02D3239F4689404C00E949D24820FE7
:10486000911D219120532A30C0F31EF4909581951B
:104870009F4F08951F93FC0199278827BC01E89456
:1048800011911032E9F3193010F01E30C8F31B32C9
:1048900051F01D3249F4689406C00E948824610FCB
:1048A000711D811D911D119110531A30B0F33EF40A
:1048B00090958095709561957F4F8F4F9F4F1F9179
:1048C0000895FA01A191B081009719F41097E1F0D1
:1048D000CD01DC01CD010D90002011F4C00113C009
:1048E000FB012191222319F02015D9F7F3CFFB0109
:1048F0002191201519F41E92119606C02223C1F7AA
:104900000D900020A1F7D001FA01A193B083089582
:10491000592F482F372F262F660F771F881F991F73
:10492000660F771F881F991F620F731F841F951FC3
:10493000660F771F881F991F08957AE0979F902D23
:10494000879F802D910D11240895BB27FA01A62F72
:104950006217710581059105330B30FB66F0AA27BC
:10496000660F771F881F991FAA1FA21710F0A21B9E
:1049700063953850A9F7A05DAA3308F0A95DA1930B
:1049800036F7B111B1931082CA010C94C724DC012F
:10499000FC01672F71917723E1F7329704C07C9176
:1049A0006D9370836291AE17BF07C8F30895F999AC
:1049B000FECF92BD81BDF89A992780B50895262F24
:1049C000F999FECF1FBA92BD81BD20BD0FB6F894F4
:1049D000FA9AF99A0FBE01960895052E97FB1EF4D8
:1049E00000940E94042557FD07D00E941F2507FC54
:1049F00003D04EF40C9404255095409530952195A4
:104A00003F4F4F4F5F4F08959095809570956195FA
:104A10007F4F8F4F9F4F08950E944125A59F900D76
:104A2000B49F900DA49F800D911D11240895B7FF90
:104A30000C940C250E940C25821B930B0895A1E277
:104A40001A2EAA1BBB1BFD010DC0AA1FBB1FEE1F08
:104A5000FF1FA217B307E407F50720F0A21BB30B53
:104A6000E40BF50B661F771F881F991F1A9469F7CF
:104A700060957095809590959B01AC01BD01CF012B
:104A80000895A29FB001B39FC001A39F700D811D27
:104A90001124911DB29F700D811D1124911D089547
:104AA0005058BB27AA270E9468250C94B9260E945B
:104AB000AB2638F00E94B22620F039F49F3F19F45B
:104AC00026F40C94A8260EF4E095E7FB0C94A2269D
:104AD000E92F0E94CA2658F3BA17620773078407A2
:104AE000950720F079F4A6F50C94EC260EF4E095E9
:104AF0000B2EBA2FA02D0B01B90190010C01CA0198
:104B0000A0011124FF27591B99F0593F50F4503E42
:104B100068F11A16F040A22F232F342F4427585F34
:104B2000F3CF469537952795A795F0405395C9F74C
:104B30007EF41F16BA0B620B730B840BBAF0915004
:104B4000A1F0FF0FBB1F661F771F881FC2F70EC0A3
:104B5000BA0F621F731F841F48F487957795679576
:104B6000B795F7959E3F08F0B0CF9395880F08F062
:104B70009927EE0F9795879508950E94D1250C945B
:104B8000B9260E94B22658F00E94AB2640F029F4C4
:104B90005F3F29F00C94A22651110C94ED260C9441
:104BA000A8260E94CA2668F39923B1F3552391F3EE
:104BB000951B550BBB27AA2762177307840738F08C
:104BC0009F5F5F4F220F331F441FAA1FA9F335D0E9
:104BD0000E2E3AF0E0E832D091505040E695001C9D
:104BE000CAF72BD0FE2F29D0660F771F881FBB1F57
:104BF000261737074807AB07B0E809F0BB0B802D35
:104C0000BF01FF2793585F4F3AF09E3F510578F060
:104C10000C94A2260C94ED265F3FE4F3983ED4F367
:104C2000869577956795B795F7959F5FC9F7880F34
:104C3000911D9695879597F90895E1E0660F771F86
:104C4000881FBB1F621773078407BA0720F0621B17
:104C5000730B840BBA0BEE1F88F7E09508950E9442
:104C600036266894B1110C94ED2608950E94D22640
:104C700088F09F5798F0B92F9927B751B0F0E1F01D
:104C8000660F771F881F991F1AF0BA95C9F714C0CD
:104C9000B13091F00E94EC26B1E008950C94EC261E
:104CA000672F782F8827B85F39F0B93FCCF3869506
:104CB00077956795B395D9F73EF490958095709563
:104CC00061957F4F8F4F9F4F0895E89409C097FBE0
:104CD0003EF490958095709561957F4F8F4F9F4FD3
:104CE0009923A9F0F92F96E9BB279395F695879517
:104CF00077956795B795F111F8CFFAF4BB0F11F4DA
:104D000060FF1BC06F5F7F4F8F4F9F4F16C0882380
:104D100011F096E911C0772321F09EE8872F762FB6
:104D200005C0662371F096E8862F70E060E02AF0F7
:104D30009A95660F771F881FDAF7880F96958795E3
:104D400097F9089597F99F6780E870E060E008950B
:104D50009FEF80EC089500240A9416161706180693
:104D60000906089500240A9412161306140605066F
:104D70000895092E0394000C11F4882352F0BB0F00
:104D800040F4BF2B11F460FF04C06F5F7F4F8F4F63
:104D90009F4F089557FD9058440F551F59F05F3F9E
:104DA00071F04795880F97FB991F61F09F3F79F04D
:104DB00087950895121613061406551FF2CF4695CF
:104DC000F1DF08C0161617061806991FF1CF869551
:104DD0007105610508940895E894BB276627772735
:104DE000CB0197F908950E9406270C94B9260E94DA
:104DF000AB2638F00E94B22620F0952311F00C94D7
:104E0000A2260C94A82611240C94ED260E94CA26F2
:104E100070F3959FC1F3950F50E0551F629FF0010D
:104E2000729FBB27F00DB11D639FAA27F00DB11D26
:104E3000AA1F649F6627B00DA11D661F829F2227AF
:104E4000B00DA11D621F739FB00DA11D621F839F36
:104E5000A00D611D221F749F3327A00D611D231F0C
:104E6000849F600D211D822F762F6A2F11249F575A
:104E700050409AF0F1F088234AF0EE0FFF1FBB1F5D
:104E8000661F771F881F91505040A9F79E3F51051C
:104E900080F00C94A2260C94ED265F3FE4F3983E3C
:104EA000D4F3869577956795B795F795E7959F5FC6
:104EB000C1F7FE2B880F911D9695879597F9089558
:104EC000FA01EE0FFF1F309621053105A1F16115A2
:104ED000710561F48038BFE39B0749F1689490380D
:104EE000810561F08038BFEF9B0741F099234AF5B7
:104EF000FF3FE1053105210519F1E8940894E79594
:104F0000D901AA2329F4AB2FBE2FF85FD0F310C02C
:104F1000FF5F70F4A695E0F7F73950F019F0FF3A0B
:104F200038F49F779F930DD00F9007FC9058089509
:104F300046F00C94A82660E070E080E89FE30895B6
:104F40004FE79F775F934F933F932F930E945B2888
:104F50002F913F914F915F910E94F3260C94B827B7
:104F600029F416F00C94A2260C94EC260C94A82696
:104F70000E94D226A8F39638A0F707F80F92E8947B
:104F80002BE33AEA48EB5FE70E9409270F920F9262
:104F90000F924DB75EB70F920E94A328E8E6F0E0AB
:104FA0000E94EA274F915F91EF91FF91E595EE1FE7
:104FB000FF1F49F0FE57E0684427EE0F441FFA95A3
:104FC000E1F74195550B0E941D280F9007FE0C94A8
:104FD00011280895DF93CF931F930F93FF92EF92C1
:104FE000DF927B018C01689406C0DA2EEF010E94EB
:104FF0000627FE01E894A59125913591459155919B
:10500000A6F3EF010E946825FE019701A801DA943A
:1050100069F7DF90EF90FF900F911F91CF91DF9193
:1050200008959B01AC0160E070E080E89FE30C9480
:10503000BD250C94A2260C94D7280E94D226D8F322
:105040009923C9F3940F511DA3F39150504094F04C
:1050500059F0882332F0660F771F881F9150504017
:10506000C1F79E3F51052CF7880F911D96958795A6
:1050700097F908955F3FACF0983E9CF0BB2786956A
:1050800077956795B79508F4B1609395C1F7BB0F15
:1050900058F711F460FFE8CF6F5F7F4F8F4F9F4F3E
:1050A000E3CF0C94ED2616F00C94D7280C94A82688
:1050B00068940C94A2260E94D226A8F39923C1F3E7
:1050C000AEF3DF93CF931F930F93FF92C92FDD278A
:1050D00088232AF02197660F771F881FDAF720E0D0
:1050E00030E040E85FEB9FE3883920F0803E38F005
:1050F00021968F770E945125E0E9F0E004C00E94DC
:105100005125EDEBF0E00E94EA278B01BE01EC0196
:10511000FB2E6F5771097595771F880B990B0E94AD
:10512000672628E132E741E35FE30E940627AF2DBF
:105130009801AE01FF900F911F91CF91DF910E94D6
:1051400068250C94B926FA01DC01AA0FBB1F9B014C
:10515000AC01BF5728F4222733274427507820C0BA
:10516000B75190F4AB2F0024469537952795011C35
:10517000A395D2F3002071F0220F331F441FB39583
:10518000DAF30ED00C94502561307105A0E88A073F
:10519000B94630F49B01AC016627772788279078C1
:1051A000309621F0208331834283538308959F3FBB
:1051B00031F0915020F4879577956795B795880FD2
:1051C000911D9695879597F90895DB018F939F938D
:1051D0000E940C25BF91AF91A29F800D911DA39FAE
:1051E000900DB29F900D11240895991B79E004C091
:1051F000991F961708F0961B881F7A95C9F7809516
:105200000895EE0FFF1F0590F491E02D0994FB0126
:10521000DC010D900020E9F7119701900D9200201C
:10522000E1F70895AEE0B0E0E8E1F9E20C94C12BBB
:105230000D891E8986E08C831A8309838FEF9FE78F
:105240009E838D83AE01475E5F4F6F89788DCE015F
:1052500001960E9435292F813885020F131FF8010E
:1052600010822E96E4E00C94DD2BABE0B0E0EBE393
:10527000F9E20C94B32B7C013B018A01FC011782FB
:105280001682838181FFC8C1CE0101965C01F701BE
:105290009381F30193FD859193FF81913F018823D1
:1052A00009F453C1853239F493FD859193FF8191BF
:1052B0003F01853229F4B70190E00E94252BE7CF0A
:1052C000912C212C312CFFE1F31538F08B3211F1A8
:1052D00090F4803209F1833229F137FC3CC020ED93
:1052E000280F2A3050F536FE20C08AE0989E200D07
:1052F0001124922E06C08D3291F0803371F768949C
:1053000030F8F30193FD859193FF81913F01811165
:10531000DACF21C0689431F8689432F8F2CF6894FB
:1053200033F8EFCF689434F8ECCFEAE02E9E200DEE
:105330001124222E689435F8E4CF8E3229F436FCFD
:1053400004C1689436F8DDCF8C3619F4689437F8C8
:10535000D8CF8836B1F2982F9F7D95549330E0F0E6
:105360008336A1F18337C1F1833509F063C0280189
:10537000F2E04F0E511CF801C080D180692D70E021
:1053800036FC02C06FEF7FEFC6010E940F2B4C016D
:10539000689437F882010AC00C5F1F4FFFE3F9835E
:1053A00088248394912C6501E89437F833FE2DC04E
:1053B000522C8114910471F5552009F468CFB7017E
:1053C00080E290E00E94252B5A94F6CFF80180816C
:1053D00089830E5F1F4FE4CF2801F2E04F0E511C6E
:1053E000F801C080D180692D70E036FC02C06FEFFB
:1053F0007FEFC6010E941A2B4C018201D5CFB70165
:1054000080E290E00E94252B2A942814190409F0C8
:10541000B0F7CECFF60137FC859137FE81916F0151
:10542000B70190E00E94252B51105A94F1E08F1A99
:105430009108BFCF843619F0893609F077C0F8019A
:1054400037FE6BC060817181828193810C5F1F4F39
:10545000F32DFF763F2E97FF09C0909580957095AC
:1054600061957F4F8F4F9F4F689437F82AE030E067
:10547000A5010E94552BC82ECA188C2C432C36FE31
:105480000CC0E89440F8C91440F434FE05C032FC66
:1054900003C0F32DFE7E4F2E892C44FE95C0FE01E5
:1054A000EC0DF11D8081803309F087C0242D297E09
:1054B000422E842D8870582E43FC95C040FE8FC02C
:1054C0009C2C821418F42C0C922C981844FE91C039
:1054D000B70180E390E00E94252B42FE09C088E7D7
:1054E00090E041FE02C088E590E0B7010E94252BC4
:1054F000C91408F48AC0CA94D12C9FEFC91AD90ADA
:10550000CA0CDB1CF60182916F01B70190E00E948A
:10551000252BAC14BD04B1F74FCF60817181072EEC
:10552000000C880B990B0E5F1F4F92CFD32CE89481
:10553000D4F82AE030E0853739F1232D297FD22EA7
:105540008F3601F148F48835A9F0F70186819781FB
:105550002B96E2E10C94CF2B803749F08837A9F7DE
:10556000D4FE02C06894D2F820E130E00DC0689407
:10557000D4F8F6CF34FE03C0822F8660D82E20E107
:1055800032E002C028E030E0F801D7FE0FC06081B1
:105590007181828193810C5F1F4FA5010E94552B61
:1055A000C82ECA183D2CE89437F867CF6081718106
:1055B00090E080E00E5F1F4FF0CF42FC02C083946A
:1055C00078CF8394839475CF842D867809F471CF36
:1055D000F6CFB70180E290E00E94252B83948214DD
:1055E000C0F3512C73CF522C5818821408F46ECF8C
:1055F000F8CF842D867809F47BCF8BE241FE80E2E0
:1056000047FC8DE2B70190E071CFB70180E390E0F5
:105610000E94252B9A946CCF8FEF9FEF99CFFC01BE
:105620000590615070400110D8F7809590958E0FCD
:105630009F1F0895FC016150704001900110D8F740
:10564000809590958E0F9F1F08950F931F93CF9372
:10565000DF93182F092FEB018B8181FD09C01FEF0C
:105660000FEF812F902FDF91CF911F910F91089510
:1056700082FF14C02E813F818C819D8128173907BC
:105680003CF4E881F981CF010196998388831083E6
:105690008E819F8101969F838E83E3CFE885F98574
:1056A000812F0995892BA1F3DACFFA01AA27283097
:1056B00051F1203181F1E8946F936E7F6E5F7F4FDF
:1056C0008F4F9F4FAF4FB1E03ED0B4E03CD0670F5B
:1056D000781F891F9A1FA11D680F791F8A1F911DAE
:1056E000A11D6A0F711D811D911DA11D20D009F4FE
:1056F00068943F912AE0269F11243019305D319340
:10570000DEF6CF010895462F4770405D4193B3E028
:105710000FD0C9F7F6CF462F4F70405D4A3318F0CF
:10572000495D31FD4052419302D0A9F7EACFB4E080
:10573000A6959795879577956795BA95C9F7009738
:105740006105710508959B01AC010A2E06945795D9
:10575000479537952795BA95C9F7620F731F841F30
:10576000951FA01D08952F923F924F925F926F92C6
:105770007F928F929F92AF92BF92CF92DF92EF92E1
:10578000FF920F931F93CF93DF93CDB7DEB7CA1B62
:10579000DB0B0FB6F894DEBF0FBECDBF09942A888D
:1057A000398848885F846E847D848C849B84AA8435
:1057B000B984C884DF80EE80FD800C811B81AA81C2
:1057C000B981CE0FD11D0FB6F894DEBF0FBECDBF8D
:0857D000ED010895F894FFCFEC
:1057D800FFFFFFFFFFFFFFFFFFFFFFFFFFFFFFFFD1
:1057E800FFFFFFFFFFFFFFFF05000000FFFFFFFFB8
:1057F800FFFFFFFF010101010000803FFF000000E3
:10580800008102E1010E02E9023F021D023102009D
:105818000000004D0720079507F60619070607F749
:10582800060D0A00616C7469636F6E6669672C0007
:1058380025692C00416C7469536572766F00256C7C
:10584800642C0025693B0A00240074656C656D654D
:0C5858007472792C002D312C00256900A1
:00000001FF
