:100000000C9437010C945F010C945F010C945F0118
:100010000C945F010C945F010C945F010C947C1EA6
:100020000C945F010C945F010C945F010C945F01D0
:100030000C945F010C945F010C945F010C945F01C0
:100040000C94301F0C945F010C94FE1E0C94D81E6F
:100050000C945F010C945F010C945F010C945F01A0
:100060000C947A1F0C945F0107634236B79BD8A7A4
:100070001A39685618AEBAAB558C1D3CB7CC5763CD
:10008000BD6DEDFD753EF6177231BF000000803F7B
:1000900008000000BE922449123EABAAAA2ABECD97
:1000A000CCCC4C3E00000080BEABAAAAAA3E000009
:1000B0000000BF000000803F000000000008417801
:1000C000D3BB4387D1133D190E3CC3BD4282AD2B38
:1000D0003E68EC8276BED98FE1A93E4C80EFFFBE30
:1000E00001C4FF7F3F0000000000696E76616C690B
:1000F0006420636F6E660024554E4B4E4F574E3B47
:1001000000244B303B0A00244F4B3B0A00244F4B4A
:100110003B0A0054656C656D65747279206469737F
:1001200061626C65640A0054656C656D6574727912
:1001300020656E61626C65640A00244F4B3B0A00C7
:10014000244F4B3B0A00244F4B3B0A00636F6E6603
:10015000696720726573657465640A00244B4F3BC0
:100160000A00244F4B3B0A0024656E643B0A0024BE
:1001700073746172743B0A0024656E643B0A002448
:1001800073746172743B0A00436F6E74696E7569B3
:100190007479206F6E200A00436F6E74696E756902
:1001A0007479206F6666200A00466C69676874205F
:1001B0004C6973743A200A006E3B004E756D62659F
:1001C00072206F6620666C69676874200A00526549
:1001D000636F7264696E67200A006E6F742061201D
:1001E00076616C696420666C696768740052656149
:1001F0006420666C696768743A20004572617365B3
:100200000A0000000000240027002A00000000006F
:10021000230026002900000000080002010000035E
:100220000407000000000000000053746172742095
:1002300070726F6772616D0A00010204081020403D
:1002400080010204081020010204081020000000B0
:1002500000250028002B0004040404040404040204
:100260000202020202030303030303029920112482
:100270001FBECFEFD8E0DEBFCDBF11E0A0E0B1E000
:10028000E8EEFCE502C005900D92A43CB107D9F759
:1002900024E0A4ECB1E001C01D92A83DB207E1F753
:1002A00011E0C7E3D1E004C02197FE010E94672B53
:1002B000C633D107C9F70E94EE200C94722E0C941D
:1002C000000091E090933403809333031092320343
:1002D000109231030895EBEEF3E090E080E041816D
:1002E000528163817481452B462B472B29F001965F
:1002F00038968931910599F7019708958C309105C9
:1003000021F481E08093B10208958930910521F4B0
:1003100081E08093B0020895419719F481E08093C1
:10032000AF02089508950895AF92BF92CF92DF92E1
:10033000EF92FF920F931F93CF93DF936C017B019A
:100340008B01040F151FEB015E01AE18BF08C0172B
:10035000D10759F06991D601ED91FC910190F0819E
:10036000E02DC6010995892B79F7C501DF91CF9161
:100370001F910F91FF90EF90DF90CF90BF90AF90C3
:100380000895FC01538D448D252F30E0842F90E09B
:10039000821B930B541710F0CF9608950197089580
:1003A000FC01918D828D981761F0A28DAE0FBF2F49
:1003B000B11D5D968C91928D9F5F9F73928F90E09F
:1003C00008958FEF9FEF0895FC01918D828D98170E
:1003D00031F0828DE80FF11D858D90E008958FEF4B
:1003E0009FEF0895FC01918D228D892F90E0805C14
:1003F0009F4F821B91098F739927089585E393E09E
:100400000E94F20121E0892B09F420E0822F089557
:1004100080E090E0892B29F00E94FE0181110C946C
:1004200000000895FC01A48DA80FB92FB11DA35A97
:10043000BF4F2C91848D90E001968F739927848F04
:10044000A689B7892C93A089B1898C918370806427
:100450008C93938D848D981306C00288F389E02DC8
:1004600080818F7D80830895EF92FF920F931F9379
:10047000CF93DF93EC0181E0888F9B8D8C8D981357
:100480001AC0E889F989808185FF15C09FB7F89463
:10049000EE89FF896083E889F989808183708064AF
:1004A00080839FBF81E090E0DF91CF911F910F91FA
:1004B000FF90EF900895F62E0B8D10E00F5F1F4F09
:1004C0000F731127E02E8C8D8E110CC00FB607FC18
:1004D000FACFE889F989808185FFF5CFCE010E94A6
:1004E0001202F1CFEB8DEC0FFD2FF11DE35AFF4F00
:1004F000F0829FB7F8940B8FEA89FB898081806234
:10050000CFCF0F931F93CF93DF938C01D0E0C0E048
:10051000F801EC0FFD1F6491662341F085E393E041
:100520000E943402892B11F02196F2CFCE01DF9187
:10053000CF911F910F910895CF93DF93EC01888D98
:100540008823B9F0AA89BB89E889F9898C9185FD4E
:1005500003C0808186FD0DC00FB607FCF7CF8C91DC
:1005600085FFF2CF808185FFEDCFCE010E94120280
:10057000E9CFDF91CF910895833081F028F4813065
:1005800099F08230A9F008958730A9F08830C9F039
:100590008430B1F4809180008F7D03C08091800011
:1005A0008F7780938000089584B58F7784BD0895F8
:1005B00084B58F7DFBCF8091B0008F778093B000A2
:1005C00008958091B0008F7DF9CFCF93DF93282FCE
:1005D00030E0F901EA5EFD4F8491F901E75CFD4FDF
:1005E000D491F901E95AFD4FC491CC23A1F08111B6
:1005F0000E94BC02EC2FF0E0EE0FFF1FE45FFD4F06
:10060000A591B491EC91ED2381E090E009F480E0B4
:10061000DF91CF91089580E090E0FACF1F93CF93C0
:10062000DF93282F30E0F901EA5EFD4F8491F90154
:10063000E75CFD4FD491F901E95AFD4FC491CC23F9
:10064000A9F0162F81110E94BC02EC2FF0E0EE0FF2
:10065000FF1FE35BFD4FA591B4918FB7F894EC9128
:10066000111108C0D095DE23DC938FBFDF91CF91AD
:100670001F910895DE2BF8CF9091180189130BC0BC
:10068000EBE6F2E0E4919FEF90931801E13049F03E
:1006900028F0E23061F060E00C940E0310926E00DE
:1006A000FACF90916F009D7F90936F00F4CF90915F
:1006B00070009D7F9093700091E09093B0009091B6
:1006C000B100987F94609093B1001092B300E3CF93
:1006D000CF93DF9390E0FC01E75CFD4F2491895AB2
:1006E0009D4FFC0184918823C9F090E0880F991FE9
:1006F000FC01EE5FFD4FA591B491FC01E35BFD4F62
:10070000C591D49161110DC09FB7F8948C9120953B
:1007100082238C938881282328839FBFDF91CF91E8
:100720000895623051F49FB7F8943C91822F8095E0
:1007300083238C93E8812E2BEFCF8FB7F894EC9125
:100740002E2B2C938FBFEACF4F925F926F927F92A6
:100750008F929F92AF92BF92CF92DF92EF92FF92D1
:100760000F931F93CF93DF9300D000D01F92CDB78C
:10077000DEB78C012A013B01809118018D30C9F050
:100780008F3F09F47FC00F900F900F900F900F9044
:10079000DF91CF911F910F91FF90EF90DF90CF905D
:1007A000BF90AF909F908F907F906F905F904F9091
:1007B0000895EBE6F2E084918D8387FDE4CF61E05C
:1007C0008DE00E9468038D81882321F09D81923005
:1007D00009F05CC14801B12CA12C60E072E18AE70C
:1007E00090E0A50198010E94482B29833A834B830E
:1007F0005C8369017A0181E0C81AD108E108F10837
:100800009FEFC916D104E104F10409F00CF413C1FF
:1008100060E472E48FE090E0A50198010E94482B0B
:1008200069017A0181E0C81AD108E108F1089D81C7
:10083000923009F098C08FEFC816D104E104F1049A
:1008400009F00CF4DDC160E970ED83E090E0A501F2
:1008500098010E94482B69017A0191E0C91AD108D8
:10086000E108F1088FEFC816D104E104F10411F09A
:100870000CF0A3C183E09091B100987F892B809305
:10088000B100E1C08DE080931801EBE6F2E09491B5
:100890009D839F3F09F477CF913029F158F0923032
:1008A00009F43FC08D8187FD6ECF61E08DE00E942D
:1008B00068038CCF14BC15BC84B5826084BD85B53B
:1008C000816085BDE4E6F2E0E491F0E0EE0FFF1F09
:1008D000E35BFD4F85919491E6E4F2E0E491E093CF
:1008E000B6021D826CCF1092800010928100809120
:1008F0008100886080938100809181008160809375
:100900008100E4E6F2E0E491F0E0EE0FFF1FE35B2C
:10091000FD4F85919491E6E4F2E0E491E093B50215
:100920004ECF1092B0001092B1008091B000826062
:100930008093B0008091B10081608093B100E4E6C3
:10094000F2E0E491F0E0EE0FFF1FE35BFD4F8591D5
:1009500094919093B4028093B302E6E4F2E0E491C0
:10096000E093B2022CCF9FEFC916D104E104F10449
:1009700009F00CF489C068E478EE81E090E0A5010C
:1009800098010E94482B69017A0181E0C81AD108B8
:10099000E108F1089D81992309F428C19FEFC91648
:1009A000D104E104F10409F00CF41EC162E17AE71C
:1009B00080E090E0A50194010E94482B69017A0132
:1009C00081E0C81AD108E108F1089D81992309F452
:1009D000EBC08FEFC816D104E104F10411F008F068
:1009E000BFC086E048CF64E274EF80E090E0A501EC
:1009F00094010E94482B69017A0181E0C81AD1084C
:100A0000E108F10885E09FEFC916D104E104F10483
:100A100009F008F430CF62E17AE780E090E0A501C8
:100A200094010E94482B69017A0191E0C91AD1080A
:100A3000E108F108CECF81E09D8191111CCF95B5E1
:100A4000987F892B85BD2FEF3FEFA90141145104F9
:100A50006104710409F043C09D81913009F45EC0C6
:100A6000923009F46DC091118ECEC7BC2093BF02A5
:100A70003093C0024093C1025093C20280916E0035
:100A8000826080936E007FCE82E0D6CFB12CA12C05
:100A900060E072E18AE790E0A50198010E94482B8E
:100AA00069017A0181E0C81AD108E108F108C1148E
:100AB000D10491E0E906F10404F591E08D818130E3
:100AC00011F680918100887F892B809381002FEF20
:100AD0003FEFA9014114510461047104F9F0D801F8
:100AE000AA0FBB1FA30192010E946D2B28EE33E0D9
:100AF00040E050E00E94262BAFCF68E478EE81E022
:100B000090E0A50198010E94482B69017A0181E0DB
:100B1000C81AD108E108F10893E0D0CFD09289003B
:100B2000C09288002093BB023093BC024093BD0268
:100B30005093BE0280916F00826080936F0023CE3D
:100B4000C092B3002093B7023093B8024093B90229
:100B50005093BA028091700082608093700013CE2F
:100B6000C980DA80EB80FC809AE0F594E794D79412
:100B7000C7949A95D1F791E0C91AD108E108F10814
:100B800087E079CEC980DA80EB80FC808AE0F5943A
:100B9000E794D794C7948A95D1F791E0C91AD10800
:100BA000E108F10885E04BCF8FEFC816D104E104CE
:100BB000F10409F038F784E042CF68E478EE81E090
:100BC00090E0A50198010E94482B69017A0191E00B
:100BD000C91AD108E108F1088FEFC816D104E10461
:100BE000F10411F00CF0FFCE84E045CE8FEFC81673
:100BF000D104E104F10411F00CF0D8CE83E01FCF52
:100C000082E039CE3FB7F8948091190290911A0290
:100C1000A0911B02B0911C0226B5A89B05C02F3FD6
:100C200019F00196A11DB11D3FBFBA2FA92F982F12
:100C30008827BC01CD01620F711D811D911D42E00D
:100C4000660F771F881F991F4A95D1F708958F92D5
:100C50009F92AF92BF92CF92DF92EF92FF924B01A1
:100C60005C010E9402066B017C010E9402066C1965
:100C70007D098E099F09683E734081059105A8F39F
:100C800021E0821A9108A108B10888EEC80E83E01D
:100C9000D81EE11CF11C81149104A104B10429F7B0
:100CA000FF90EF90DF90CF90BF90AF909F908F908C
:100CB00008952FB7F89460911502709116028091F3
:100CC0001702909118022FBF08952091F101260F6D
:100CD0003327331F21323105ECF420910B03FC0143
:100CE00090E080E0243069F082E00895A091F10165
:100CF0002191AC014F525E4FA40FB52FB11D2C9323
:100D00000196861798F38091F101680F6093F101C5
:100D100080E0089581E0089510920B0381E08093B4
:100D20000A031092E50261E082E10E940E0361E095
:100D300083E10E940E03E9EBF0E080818E7F8083E7
:100D400080818D7F808388E48093B80085E48093E0
:100D5000BC000895CF93DF9391E09093D001882356
:100D6000B9F0C091B800D091BA008091BC008A7BE4
:100D70008093BC0060E082E10E940E0360E083E1AA
:100D80000E940E030E948C06D093BA00C093B80054
:100D9000DF91CF910895CF92DF92EF92FF920F9360
:100DA0001F93CF93DF93D091310381E0D13208F0CC
:100DB0009CC0C09133030E9402066B017C018091AC
:100DC0000B0381116CC082E080930B0381E0809360
:100DD0000A038FEF8093090310920803D09307034F
:100DE000A1E1B3E0E7EEF2E080E0D8138DC010920D
:100DF000E6028091E602CC0FC82BC093E6028091F8
:100E0000E502813009F084C01092E5020E940206DA
:100E10006B017C018091E6028093BB0080910D0301
:100E200090910E03A0910F03B0911003892B8A2B90
:100E30008B2BA1F00E94020600910D0310910E036E
:100E400020910F03309110036C197D098E099F09C1
:100E5000061717072807390708F442C08091BC001D
:100E600083FDD8CF85EC8093BC000E9402066B0105
:100E70007C0180910B03823009F44CC080910903FE
:100E80008F3F09F469C080910903803209F466C07C
:100E900080910903803309F463C084E026C0809107
:100EA0000D0390910E03A0910F03B0911003892BB5
:100EB0008A2B8B2B09F483CF0E94020600910D032D
:100EC00010910E0320910F03309110036C197D09CE
:100ED0008E099F09061717072807390708F06FCFF3
:100EE00080910C030E94AA0685E0109232031092B2
:100EF000310310923403DF91CF911F910F91FF9036
:100F0000EF90DF90CF9008959D9191938F5F6DCF7B
:100F100085EEA9CF80910D0390910E03A0910F0350
:100F2000B0911003892B8A2B8B2B09F4A2CF0E943E
:100F3000020600910D0310910E0320910F033091D2
:100F400010036C197D098E099F09061717072807DA
:100F5000390708F08ECFC4CF80E0C7CF82E0C5CF7D
:100F600083E0C3CFCF92DF92EF92FF920F931F9354
:100F7000CF93DF93D82FC62F613208F098C00E941C
:100F800002066B017C0180910B0381116BC081E033
:100F900080930B0380930A039FEF909309031092B1
:100FA00008039C0F909307038093E6028091E6026A
:100FB000DD0FD82BD093E6028091E502813009F055
:100FC00078C01092E5020E9402066B017C018091BC
:100FD000E6028093BB0080910D0390910E03A091D7
:100FE0000F03B0911003892B8A2B8B2BA1F00E9449
:100FF000020600910D0310910E0320910F03309112
:1010000010036C197D098E099F0906171707280719
:10101000390708F448C08091BC0083FDD8CF85EC27
:101020008093BC000E9402066B017C0180910B033F
:10103000813009F440C0809108038C1710F4C091EE
:101040000803E7EEF2E0A5ECB2E080E08C1355C0B7
:101050008C2FDF91CF911F910F91FF90EF90DF9038
:10106000CF90089580910D0390910E03A0910F03EE
:10107000B0911003892B8A2B8B2B09F484CF0E940B
:10108000020600910D0310910E0320910F03309181
:1010900010036C197D098E099F0906171707280789
:1010A000390708F070CF80910C030E94AA06C0E0B7
:1010B000CFCF85EEB5CF80910D0390910E03A09117
:1010C0000F03B0911003892B8A2B8B2B09F4AECF21
:1010D0000E94020600910D0310910E0320910F0350
:1010E000309110036C197D098E099F0906171707A7
:1010F0002807390708F09ACFD6CF91919D938F5F3B
:10110000A5CF0895E091C4028091C302E81730F49E
:10111000F0E0EB53FD4F808190E008958FEF9FEF5B
:1011200008959091C4028091C3022FEF3FEF98176A
:1011300048F4E92FF0E0EB53FD4F208130E09F5F52
:101140009093C402C90108958091C3029091C40292
:10115000891B990B0895CF92DF92EF92FF920F9324
:101160001F93CF93DF937C01CB018A01209134033D
:10117000222389F0EB016B01C40ED51ECC15DD05D1
:1011800069F06991D701ED91FC910190F081E02D1A
:10119000C7010995F3CF642F0E946506C801DF914E
:1011A000CF911F910F91FF90EF90DF90CF90089516
:1011B000CF93DF931F92CDB7DEB7698320913403BD
:1011C0002223F9F020913103203258F021E030E061
:1011D000FC013383228390E080E00F90DF91CF9178
:1011E000089580913203E82FF0E0EF5EFC4F998183
:1011F00090838F5F809332038093310381E090E08E
:10120000ECCF61E0CE0101960E946506F7CF4F92C8
:101210005F926F927F928F929F92AF92BF92CF9286
:10122000DF92EF92FF920F931F93CF93DF932B01E7
:101230003C017A01890120E2C22ED12C3BECA32E85
:1012400037E0B32EC091E203D091E303CE010197C2
:1012500084219521C81BD90B8091E5039091E60369
:101260009601281B390BC9010217130708F4C8019E
:101270008C179D0708F4EC018091E403A30192010F
:1012800004C056954795379527958A95D2F7909043
:10129000DE03922A892D0E9461018091E5039091DD
:1012A000E603029741F49927872D762D652D82ED6F
:1012B00093E00E94D808642D82ED93E00E94D80844
:1012C000AE01B70182ED93E00E94AB080E94CB060D
:1012D00081111FC084E6882EC5010197F1F7892D81
:1012E0000E9461018091E5039091E603029729F441
:1012F00060E082ED93E00E94D80860E082ED93E028
:101300000E94D8080E94CB068823A1F08A948110FD
:10131000E3CFDF91CF911F910F91FF90EF90DF907E
:10132000CF90BF90AF909F908F907F906F905F9085
:101330004F9008954C0E5D1E611C711CEC0EFD1E3D
:101340000C1B1D0B09F07ECFE4CF8091E703909139
:10135000E803A091E903B091EA03883C9105A10557
:10136000B10548F028EC30E04CEE53E060E070E06E
:10137000CB010E94070988EC90E0089590E080E09E
:101380000895CF93DF93CDB7DEB7E2970FB6F89409
:10139000DEBF0FBECDBF10926A021092690210929A
:1013A0006C0210926B0210926E0210926D0281E03C
:1013B00090E09093700280936F0283E090E09093AE
:1013C000720280937102109278021092770210924A
:1013D0007A021092790210927C0210927B0222E330
:1013E00030E03093740220937302109276021092D0
:1013F000750228EB31E030937E0220937D0225E0D8
:1014000030E03093800220937F0290938202809399
:10141000810210928402109283021092860210922E
:10142000850240E056E960E070E040938702509307
:1014300088026093890270938A0210928C02109243
:101440008B0220E032E030938E0220938D021092C6
:10145000900210928F0290939202809391021092C8
:101460009402109293028AE090E090939602809307
:101470009502109298021092970282E3E9E6F2E058
:10148000DE01119601900D928A95E1F7FE013196E9
:10149000AE014F5C5F4F90E080E0E417F50731F05C
:1014A0002191820F911D27FD9A95F7CF90939A0273
:1014B00080939902E2960FB6F894DEBF0FBECDBFBF
:1014C000DF91CF91089548EE53E060E070E08091A5
:1014D0004602909147020E94A4036CED75E080E003
:1014E00090E00E9427068DE00C943C03CF93DF939D
:1014F000CAE0D0E048EE53E060E070E080E496E0BF
:101500000E94A40362E370E080E090E00E9427065E
:101510008DE00E943C03219769F768EE73E080E05C
:1015200090E0DF91CF910C94270649E150E060E014
:1015300070E080914602909147020E94A4036CE201
:1015400071E080E090E00E9427068DE00C943C035F
:10155000CF92DF92EF92FF920F931F93CF93DF937F
:101560006B017C0124E6C216D104E104F1040CF401
:1015700046C024E630E040E050E00E94482B89015C
:1015800064E6629FC001639F900D1124092E000C38
:10159000AA0BBB0BA7019601281B390B4A0B5B0B4F
:1015A000CA01B9012AE030E040E050E00E94482B37
:1015B000E901EE24E394F12C1016110644F11C16F7
:1015C0001D067CF401E010E00E94950A62E370E0E1
:1015D00080E090E00E9427060F5F1F4FC017D107E1
:1015E0009CF768E873E180E090E0DF91CF911F9174
:1015F0000F91FF90EF90DF90CF900C9427062AE098
:1016000030E040E050E00E94482BE901D8CF0E9432
:10161000630A62E370E080E090E00E9427063FEFFB
:10162000E31AF30A0E151F0594F7C9CF662319F0C4
:1016300061E00C940E0360E0FCCF81E080930A012E
:1016400080930901809308018091690290916A0258
:10165000892B09F0E8C080E090E0A0E8BFE3809328
:10166000140190931501A0931601B0931701609196
:10167000730270917402072E000C880B990B0E9464
:101680009828209114013091150140911601509134
:1016900017010E94EE270E946028072E000C880B7D
:1016A000990B6093350270933602809337029093C2
:1016B000380280917D0290917E0290934702809340
:1016C00046028FEF9FEF909301018093000190936A
:1016D00003018093020180916D0290916E0281302E
:1016E000910509F4A5C08230910509F4B0C0892B99
:1016F00009F0B1C080917702909178029093C9016E
:101700008093C8018CE090E09093010180930001E8
:1017100080916F02909170028130910509F49EC012
:101720008230910509F4A9C0892B09F0AAC089E08B
:1017300090E0909301018093000180917902909153
:101740007A029093C9018093C801809171029091AF
:1017500072028130910509F497C08230910509F435
:10176000A2C0892B09F0A3C080917B0290917C02DA
:101770009093C9018093C80181E190E090930101A9
:101780008093000180917F0290918002092E000CCD
:10179000AA0BBB0B8093040190930501A093060153
:1017A000B09307018FEF9FEF90930C0180930B0193
:1017B00080910A01882351F010920C0110920B01C4
:1017C0008AE090E090934D0280934C028091090151
:1017D000882391F080910B0190910C0101969093D8
:1017E0000C0180930B01880F991FFC01E45BFD4FF6
:1017F0008BE090E09183808380910801882391F0B1
:1018000080910B0190910C01019690930C018093B3
:101810000B01880F991FFC01E45BFD4F80E190E014
:1018200091838083089588E499EFA1E5B0E417CF10
:1018300080917702909178029093CB018093CA01B6
:101840008CE090E0909303018093020161CF81E0EE
:101850008093CE015DCF10920A015ACF89E090E0CB
:1018600090930301809302018091790290917A0212
:101870009093CB018093CA0168CF81E08093CD0122
:1018800064CF1092090161CF80917B0290917C021C
:101890009093CB018093CA0181E190E09093030182
:1018A000809302016FCF81E08093CC016BCF1092C7
:1018B000080168CFCF93DF93C82F87E70E946101AB
:1018C0006C2F82ED93E00E94D8080E94CB0687E738
:1018D0000E94610162E087E70E94B2071092C40291
:1018E0008093C30282ED93E00E949108D82F80E09C
:1018F000C82F82ED93E00E949108C82BD92B0E943B
:10190000CB06CE01DF91CF9108956F927F928F9297
:101910009F92AF92BF92CF92DF92EF92FF920F937E
:101920001F93CF93DF934B015C016A018901C09142
:10193000E203D091E303CE01019788219921C81BCE
:10194000D90BC8010132110510F080E290E08C172C
:101950009D0708F4EC018091E403A501940104C003
:1019600056954795379527958A95D2F7F090DE03DF
:10197000F22A8F2D0E9461018091E5039091E60388
:10198000029741F499278B2D7A2D692D82ED93E0F2
:101990000E94D808682D82ED93E00E94D8080E942A
:1019A000CB06682E811122C06C2F8F2D0E94B207AA
:1019B0001092C4028093C302712CE72CF12CEC1618
:1019C000FD0650F482ED93E00E949108F601EE0DC1
:1019D000FF1D80837394F1CF8C0E9D1EA11CB11C42
:1019E000CC0EDD1E0C1B1D0B09F0A1CF862DDF9147
:1019F000CF911F910F91FF90EF90DF90CF90BF900C
:101A0000AF909F908F907F906F9008958091E703A3
:101A10009091E803A091E903B091EA03883C910515
:101A2000A105B10548F028EC30E04CEE53E060E051
:101A300070E0CB010E94850C88EC90E00895CF9374
:101A4000C82F87E70E9461016C2F82ED93E00E940E
:101A5000D8080E94CB0687E70E94610161E087E712
:101A60000E94B2071092C4028093C30282ED93E0F9
:101A70000E949108C82F0E94CB068C2FCF91089509
:101A800087E70E94610164EF82ED93E00E94D8082D
:101A90006EE282ED93E00E94D8080E94CB068FE1AF
:101AA0009EE40197F1F700C0000086EF0C945A0CF9
:101AB0008F929F92AF92BF92CF92DF92EF92FF925E
:101AC000CF93DF930E94400D9C0150E040E0C1ECB9
:101AD000D4E08D899E89281B390B41095109AB89B6
:101AE000BC890E946D2B0E94982820E030E040E0E5
:101AF00058E30E9424290E9460286B017C016D85B7
:101B00007E85072E000C880B990B0E94982820E0F8
:101B100030E040E055E40E9424294B015C016F85D0
:101B20007889072E000C880B990B6C0D7D1D8E1D7E
:101B30009F1D0E9498289B01AC01C501B4010E9421
:101B4000EE270E9460286C0D7D1D8E1D9F1D685F15
:101B50007F4F8F4F9F4F0E94982820E030E040E851
:101B60005DE30E94242920E030E040E251E40E943D
:101B7000EE27DF91CF91FF90EF90DF90CF90BF9055
:101B8000AF909F908F90089585ED8093BC008091D9
:101B90000D0390910E03A0910F03B09110030796CF
:101BA000A11DB11D23E0B695A795979587952A9518
:101BB000D1F72091BC0024FD03C010920B030895BF
:101BC00040910D0350910E0360910F03709110032B
:101BD000452B462B472B69F30097A105B10541F032
:101BE00025E32A95F1F700000197A109B109E1CF9A
:101BF00080910C030C94AA06FC0101900020E9F7E7
:101C00003197AF01481B590BBC0185E393E00C945D
:101C10009401CF93DF930E94FC0DEC018DE391E0E2
:101C20000E94FC0D8C0F9D1FDF91CF910895CF93E3
:101C3000DF93682F85E393E00E943402EC018DE38B
:101C400091E00E94FC0D8C0F9D1FDF91CF910895B4
:101C5000CF93DF930E948102EC018DE391E00E941B
:101C6000FC0D8C0F9D1FDF91CF9108958F929F9255
:101C7000AF92BF92CF92DF92EF92FF920F931F939A
:101C8000CF93DF93CDB7DEB7A1970FB6F894DEBF41
:101C90000FBECDBF6B017C01F7FE41C06DE285E355
:101CA00093E00E9434028C0122273327A9012C19CA
:101CB0003D094E095F0919A2CE0181967C019AE087
:101CC000892E912CA12CB12CCA01B901A501940136
:101CD0000E94262B605DF70162937F01211531057B
:101CE0004105510589F790E080E0309719F0CF0168
:101CF0000E94FC0D800F911FA1960FB6F894DEBFD5
:101D00000FBECDBFDF91CF911F910F91FF90EF904C
:101D1000DF90CF90BF90AF909F908F900895AC01CF
:101D20009B0119A28E010F5D1F4F8AE0C82ED12C96
:101D3000E12CF12CCA01B901A70196010E94262BC2
:101D4000605DF80162938F01211531054105510550
:101D500089F790E080E0309779F2CF010E94FC0D86
:101D6000CBCFCF92DF92EF92FF92CF93DF930E947F
:101D7000060DCBEED3E0C12CD12C7601C6014981F2
:101D80005A816B817C81452B462B472BB1F180E436
:101D900091E00E94FC0DC701B6010E94360E8DE352
:101DA00091E00E94FC0D8DE491E00E94FC0D6981A0
:101DB0007A818B819C810E94360E8DE391E00E9496
:101DC000FC0D85E591E00E94FC0D6D817E818F8187
:101DD00098850E94360E8DE391E00E94FC0D2896B6
:101DE0008FEFC81AD80AE80AF80A89E1C816D104A0
:101DF000E104F10419F689E190E0DF91CF91FF90C1
:101E0000EF90DF90CF9008952F923F924F925F9284
:101E10006F927F928F929F92AF92BF92CF92DF92FA
:101E2000EF92FF920F931F93CF93DF93CDB7DEB75F
:101E3000C159D1090FB6F894DEBF0FBECDBFFC016A
:101E400023E0EE0FFF1F2A95E1F7E551FC4F41809B
:101E5000528063807480C257DF4F488259826A8201
:101E60007B82CE58D0409201293C31050CF419C137
:101E70001C014580568067807084CC57DF4F4882B4
:101E800059826A827B82C458D040D12CC12C812CCB
:101E9000912C54019E012D5F3F4FCE57DF4F398368
:101EA0002883C258D0408E0107581F4FA8014E5FAB
:101EB0005F4FC457DF4F59834883CC58D04091E6D9
:101EC000E92E91E0F92EC257DF4F68817981CE5813
:101ED000D0406C0D7D1DCC57DF4F88819981C4584F
:101EE000D040861797070CF4DCC0072E000C880B37
:101EF000990B9B01AC01245F3F4F4F4F5F4FC85779
:101F0000DF4F288339834A835B83C858D0402091B0
:101F1000E7033091E8034091E9035091EA03C85781
:101F2000DF4F488059806A807B80C858D040241594
:101F300035054605570530F02CE030E044EB54E021
:101F40000E94850C1A821982CE57DF4FA881B98171
:101F5000C258D040E6E71D92EA95E9F7D8011D92F4
:101F60001C92C457DF4FE881F981CC58D04087E0FC
:101F7000482E11924A94E9F78091B4049091B504E7
:101F8000A091B604B091B704880E991EAA1EBB1E7C
:101F90006BE571E0CE0101960E948F2B3F922F924C
:101FA000FF92EF921F930F930E949A2BB801CE01DC
:101FB00001960E948F2BBF92AF929F928F92FF92B9
:101FC000EF921F930F930E949A2BB801CE010196B6
:101FD0000E948F2B8091BB048F938091BA048F93C2
:101FE0008091B9048F938091B8048F93FF92EF9200
:101FF0001F930F930E949A2BB801CE0101960E9465
:102000008F2B8091BF048F938091BE048F9380911A
:10201000BD048F938091BC048F93FF92EF921F9326
:102020000F930E949A2BB801CE0101960E948F2B2C
:10203000FE0131960FB6F894DEBF0FBECDBF90E023
:1020400080E02191820F911D27FD9A950E171F07A1
:10205000C1F799279F938F9345E651E05F934F9384
:102060001F930F930E949A2BB801CE0101960E94F4
:102070008F2B63EB71E0CE0101960E948F2B88E6D7
:1020800091E00E94FC0DCE0101960E94FC0D9DE0A6
:10209000C90ED11C0F900F900F900F900F900F90C2
:1020A00012CFCF56DF4F0FB6F894DEBF0FBECDBFB5
:1020B000DF91CF911F910F91FF90EF90DF90CF9024
:1020C000BF90AF909F908F907F906F905F904F9058
:1020D0003F902F9008952F923F924F925F926F9270
:1020E0007F928F929F92AF92BF92CF92DF92EF92A8
:1020F000FF920F931F93CF93DF93CDB7DEB7C15AF3
:10210000D1090FB6F894DEBF0FBECDBF1A82198277
:10211000FE01339624E9DF011D922A95E9F78E012D
:1021200009561F4FF8011192119228E0DF011D920C
:102130002A95E9F72091CF01222309F4C2C17A013F
:10214000892E982EA72EB62E0E9459064090C401C3
:102150005090C5016090C6017090C701DC01CB01B1
:1021600084199509A609B709A701FF0C660B770B1F
:10217000481759076A077B0708F0A3C10E94590650
:102180006093C4017093C5018093C6019093C70109
:102190006090A502B0919C02CF55DF4FB883C15A21
:1021A000D0402090A6023090A7024090A802509004
:1021B000A90280919B0281119EC1712CC12CD12C4E
:1021C0006AE671E0CE0101960E948F2B5F924F92DA
:1021D0003F922F9241E6E42E41E0F42EFF92EF92DF
:1021E0001F930F930E949A2BB801CE0101960E9473
:1021F0008F2B1F926F92FF92EF921F930F930E946B
:102200009A2BB801CE0101960E948F2B1F92CF55B9
:10221000DF4F8881C15AD0408F93FF92EF921F9376
:102220000F930E949A2BB801CE0101960E948F2B2A
:10223000809168028F93809167028F9380916602EC
:102240008F93809165028F93FF92EF921F930F936C
:102250000E949A2BB801CE0101960E948F2B1F92EB
:102260007F92FF92EF921F930F930E949A2B0FB6CB
:10227000F894DEBF0FBECDBFB801CE0101960E941B
:102280008F2B809164028F93809163028F93809152
:1022900062028F93809161028F93FF92EF921F935E
:1022A0000F930E949A2BB801CE0101960E948F2BAA
:1022B000DF92CF92FF92EF921F930F930E949A2B7F
:1022C000B801CE0101960E948F2B8F929F92AF9200
:1022D000BF92FF92EF921F930F930E949A2BB80127
:1022E000CE0101960E948F2B0FB6F894DEBF0FBE71
:1022F000CDBF80910A0168E771E0882349F08AE048
:102300000E94E50265E771E0892B11F069E771E051
:10231000CE0101960E948F2B8091090168E771E040
:10232000882381F08BE00E94E5027C0164E170E08B
:1023300080E090E00E94270665E771E0EF2811F049
:1023400069E771E0CE0101960E948F2B8091080110
:1023500068E771E0882349F080E10E94E50265E7C3
:1023600071E0892B11F069E771E0CE0101960E94BE
:102370008F2B68E771E0CE0101960E948F2B68E7F2
:1023800071E0CE0101960E948F2B0E94580D0E9491
:1023900060287F936F9381E691E09F938F931F93C3
:1023A0000F930E949A2BB801CE0101960E948F2BA9
:1023B000EBEEF3E00F900F900F900F900F900F90B7
:1023C00090E080E04181528163817481452B462BEE
:1023D000472B29F0019638968931910599F723E02A
:1023E000880F991F2A95E1F7FC01ED51FC4F65819B
:1023F0007681878190850E94982820E030E040E82F
:1024000057E30E94242920E030E048EC52E40E9487
:1024100024290E9460287F936F9331E6E32E31E0F8
:10242000F32EFF92EF921F930F930E949A2BB80105
:10243000CE0101960E948F2B0E946B0101969F9303
:102440008F93FF92EF921F930F930E949A2BB801E4
:10245000CE0101960E948F2BFE0131960FB6F894A3
:10246000DEBF0FBECDBF90E080E02191820F911DB5
:1024700027FD9A950E171F07C1F799279F938F93F2
:1024800085E691E09F938F931F930F930E949A2B61
:10249000B801CE0101960E948F2B63EB71E0CE0153
:1024A00001960E948F2B88E691E00E94FC0DCE01E0
:1024B00001960E94FC0D0F900F900F900F900F90BF
:1024C0000F90CF55DF4F0FB6F894DEBF0FBECDBFD4
:1024D000DF91CF911F910F91FF90EF90DF90CF9000
:1024E000BF90AF909F908F907F906F905F904F9034
:1024F0003F902F90089581E0D12CBAE02B16310443
:10250000410451040CF080E0C82E7724739458CE17
:102510000F931F93CF93DF9309E612E0C0E2D0E060
:10252000F80161918F01CE010E9473272196C23577
:10253000D105B1F7DF91CF911F910F910895EF92DF
:10254000FF920F931F93CF93DF93CDB7DEB7E29740
:102550000FB6F894DEBF0FBECDBF0E94C10989E659
:10256000E82E82E0F82E00E210E0C8010E946B27FE
:10257000F70181937F010F5F1F4F02351105A9F706
:102580004091990250919A0282E3E9E6F2E0DE017D
:10259000119601900D928A95E1F7FE013196BE01E8
:1025A0006F5C7F4F30E020E0E617F70731F0819154
:1025B000280F311D87FD3A95F7CF81E04217530769
:1025C00009F080E0E2960FB6F894DEBF0FBECDBFF3
:1025D000DF91CF911F910F91FF90EF9008958F920F
:1025E0009F92AF92BF92CF92DF92FF920F931F9371
:1025F000CF93DF9300D000D01F92CDB7DEB72AE093
:10260000AE014F5F5F4F6A010E943927F6010190CA
:102610000020E9F73197FE2EFC1868EB7BE080E0A4
:1026200090E00E94270656018A2D8C198F15F0F430
:1026300068EE73E080E090E00E942706F5010191CA
:102640005F01005309F40AE010E0912C812C0E94F4
:10265000950AFFEF8F1A9F0A801691062CF76AEFF2
:1026600070E080E090E00E942706F1CF0F900F907D
:102670000F900F900F90DF91CF911F910F91FF90CE
:10268000DF90CF90BF90AF909F908F9008954F9222
:102690005F926F927F928F929F92AF92BF92CF92F2
:1026A000DF92EF92FF921F93CF93DF9300D000D081
:1026B00000D0CDB7DEB70E94400D4C01B12CA12C4B
:1026C0002091C1042295220F220F207C2C5C2983AB
:1026D00087E70E94610164EF82ED93E00E94D808D1
:1026E000698182ED93E00E94D8080E94CB06809118
:1026F000C104811109C28FE19EE40197F1F700C086
:10270000000086EF0E945A0CB0E0A0E0CC24D82E46
:10271000E92EFA2E88EF0E941F0DC82A1091C104DD
:10272000212F30E03E832D838091D6049091D704F1
:10273000A5019401281B390B41095109A091D4042A
:10274000B091D5040E946D2B0E94982820E030E0C3
:1027500040E058E30E9424290E9460282B013C019C
:102760006091CE047091CF04072E000C880B990B5A
:102770000E94982820E030E040E055E40E9424299F
:102780004B015C016091D0047091D104072E000CC4
:10279000880B990B640D751D861D971D0E94982846
:1027A0009B01AC01C501B4010E94EE270E94602884
:1027B000460E571E681E791E30EA431A3FE0530A40
:1027C00061087108A3019201C301B2010E94162B96
:1027D0009B01AC01ACE05595479537952795AA9597
:1027E000D1F729833A834B835C83A091C604B091CF
:1027F000C704A30192010E94782B4B015C01BDE04C
:10280000B594A79497948794BA95D1F7A091C804EA
:10281000B091C90429813A814B815C810E94782B57
:102820009C01552737FD5095452F280D391D4A1D10
:102830005B1D2E5F3F4F4F4F5F4F62E055954795B1
:10284000379527956A95D1F730584F4F5F4FA09134
:10285000D204B091D3040E946D2B4B015C017FE048
:10286000B694A794979487947A95D1F788E090E0EE
:102870004D815E81841B950B04C0F694E794D79438
:10288000C7948A95D2F7A091CA04B091CB0429814C
:102890003A814B815C810E94782B9B01AC01EBE07B
:1028A0005595479537952795EA95D1F729833A832A
:1028B0004B835C83A091C404B091C504A301920131
:1028C0000E94782BFBE09595879577956795FA950B
:1028D000D1F729813A814B815C81620F731F841F7C
:1028E000951F4090C2045090C304052C000C66084C
:1028F0007708A2E0440C551C661C771CAA95D1F7FA
:10290000640D751D861D971D012E04C0660F771F6F
:10291000881F991F0A94D2F76E5F7F4F8F4F9F4F8A
:1029200024E030E040E050E00E94482BD701C6018F
:10293000821B930BA40BB50B9C01AD0160E573ECFE
:1029400080E090E004C096958795779567951A95F5
:10295000D2F70E94162B97FDEDC0660F771F881FD8
:10296000991FA50194010E94262B69017A019927DC
:10297000F7FC9A958F2D7E2D6D2D9B01AC010E9449
:10298000162B9B01AC01AEEDBBE00E946D2B4B0101
:102990005C01A3E4B3EEA70196010E947B2BBC016E
:1029A000992777FD9095892F4501BB2497FCB0941A
:1029B000AB2C680D791D8A1D9B1D6153714F8F4F84
:1029C0009F4F44E095958795779567954A95D1F700
:1029D0006C0D7D1D8E1D9F1D0E94982820E836EEEF
:1029E00045EC57E40E94EE2721E03EED42E45EE331
:1029F0000E94912969837A838B839C834090210272
:102A000050902202609023027090240220912502AF
:102A100030912602409127025091280260911D02B8
:102A200070911E0280911F02909120020E948227C5
:102A30006B017C012091290230912A0240912B02E6
:102A400050912C020E9482279B01AC0160E070E053
:102A500080E89FE30E94EE27A70196010E942429A7
:102A60004B015C0129813A814B815C8160E070E01F
:102A700080E89FE30E94812720E03AE24DE257E49C
:102A80000E942429A30192010E948127A50194019B
:102A90000E942429A30192010E9482272B013C015C
:102AA00040922102509222026092230270922402EC
:102AB000A501940160E070E080E89FE30E94812717
:102AC000A70196010E94242960931D0270931E02A3
:102AD00080931F0290932002C301B20126960FB685
:102AE000F894DEBF0FBECDBFDF91CF911F91FF9055
:102AF000EF90DF90CF90BF90AF909F908F907F909E
:102B00006F905F904F900895813029F4AFEFBCE74C
:102B10001197F1F7F4CD823029F48FEB9AED0197FC
:102B2000F1F7EDCD9FEFA4E4B1E09150A040B040AB
:102B3000E1F7E5CDA50194010E94262B69017A01F8
:102B4000CC0CDD1CEE1CFF1C12CF2F923F924F923B
:102B50005F926F927F928F929F92AF92BF92CF922D
:102B6000DF92EF92FF920F931F93CF93DF93CDB736
:102B7000DEB767970FB6F894DEBF0FBECDBF80916A
:102B80000A01811103C081E08093B10280910901A3
:102B9000811103C081E08093B0028091080181110E
:102BA00003C081E08093AF021A82212C312C1F8652
:102BB0001D82812C912C54011F82188619861A8639
:102BC0001B821C820E9447136B017C016091AA0248
:102BD0007091AB028091AC029091AD020E94982856
:102BE0009B01AC01C701B6010E9481270E946028A9
:102BF0006093A6027093A7028093A8029093A90203
:102C000000919D0210919E0220919F023091A0029E
:102C100006171707280739070CF040C08091A50256
:102C200081113CC080919B028111CCCF44244394FC
:102C30004092A50248EC50E060E070E0CB010E94B9
:102C40006B100E9459066093A1027093A2028093B8
:102C5000A3029093A402809175029091760201974D
:102C600011F401E00D8380910F018823B9F0E09108
:102C70005F02F091600223E0EE0FFF1F2A95E1F75B
:102C8000E551FC4F8091100190911101A09112012A
:102C9000B091130181839283A383B483412C512C7F
:102CA00032011E821091A502198311111DC04E80A0
:102CB000442009F487CF67960FB6F894DEBF0FBEA5
:102CC000CDBFDF91CF911F910F91FF90EF90DF90DB
:102CD000CF90BF90AF909F908F907F906F905F90BC
:102CE0004F903F902F9008950E9447136B017C01F5
:102CF0006091AA027091AB028091AC029091AD02FA
:102D00000E9498289B01AC01C701B6010E9481274F
:102D10000E9460286093A6027093A7028093A80285
:102D20009093A9020E9459060091A1021091A2025B
:102D30002091A3023091A4026B017C01C01AD10A38
:102D4000E20AF30A48EC50E0C701B6010E946B109A
:102D50001091CE011123B1F10F85011111C08091A5
:102D6000770290917802092E000CAA0BBB0BC816B3
:102D7000D906EA06FB0630F161E08CE00E940E0302
:102D80008091770290917802092E000CAA0BBB0B60
:102D9000A7019601281B390B4A0B5B0BDA01C9010D
:102DA000883E9340A105B10560F00091B1020F8704
:102DB000011108C060E08CE00E940E0321E0209326
:102DC000B1021F871091CD011123A1F1311011C063
:102DD0008091790290917A02092E000CAA0BBB0B0C
:102DE000C816D906EA06FB0628F161E089E00E94D0
:102DF0000E038091790290917A02092E000CAA0BA1
:102E0000BB0BA7019601281B390B4A0B5B0BDA01A0
:102E1000C901883E9340A105B10558F03090B00239
:102E2000311008C060E089E00E940E0331E0309369
:102E3000B002312E1091CC011123A1F1211011C04B
:102E400080917B0290917C02092E000CAA0BBB0B97
:102E5000C816D906EA06FB0628F161E081E10E9466
:102E60000E0380917B0290917C02092E000CAA0B2C
:102E7000BB0BA7019601281B390B4A0B5B0BDA0130
:102E8000C901883E9340A105B10558F02090AF02DA
:102E9000211008C060E081E10E940E0341E04093F0
:102EA000AF02212E80910F01882309F45AC080912E
:102EB000A6029091A702A091A802B091A902B70121
:102EC000A60144195509660977094093B404509343
:102ED000B5046093B6047093B7048093B8049093DC
:102EE000B904A093BA04B093BB040E94580D0E9489
:102EF00060286093BC047093BD048093BE049093DB
:102F0000BF04409010015090110160901201709028
:102F100013014C8A5D8A6E8A7F8A05EF40160FEF97
:102F20005006610471040CF4ABC0E0915F02F091B3
:102F3000600293E0EE0FFF1F9A95E1F7E551FC4F19
:102F400011E0411A51086108710845825682678272
:102F5000708610920F0162E370E080E090E00E94C2
:102F600027068091750290917602019741F409EB52
:102F7000C0160BE0D006E104F10408F01D82409079
:102F8000A6025090A7026090A8027090A9028091BA
:102F9000310290913202A0913302B091340248166E
:102FA00059066A067B060CF0A5C080919C0281112F
:102FB000A1C01D8111119EC0809104019091050155
:102FC000A0910601B09107010197A109B109809371
:102FD000040190930501A0930601B0930701892B8A
:102FE0008A2B8B2B09F09EC00E9459066F8378872D
:102FF00089879A87409265025092660260926702C2
:10300000709268020E945906AB01BC014F8058843F
:1030100069847A8444195509660977098091CA013F
:103020009091CB01092E000CAA0BBB0B4817590736
:103030006A077B0708F4DBC01091020100910301CD
:1030400061E0812F0E940E03812F902F0E947E014C
:103050005524539450929C020E9459060091A1025B
:103060001091A2022091A3023091A402601B710B67
:10307000820B930B48EC50E00E946B101C8255C0F1
:103080002C893D89B901330F880B990B8B019C0169
:10309000045F1F4F2F4F3F4F088B198B2A8B3B8BA1
:1030A0002091E7033091E8034091E9035091EA034E
:1030B000488859886A887B88241535054605570550
:1030C00030F02CE030E044EB54E00E9407098C899A
:1030D0009D890C96092E000CAA0BBB0B0196A11D15
:1030E000B11D8093100190931101A0931201B09330
:1030F000130131CF4092310250923202609233027A
:103100007092340280917F0290918002092E000C0F
:10311000AA0BBB0B8093040190930501A0930601B9
:10312000B09307014C8041106DCF4090A6025090A3
:10313000A7026090A8027090A90280913502909138
:103140003602A0913702B0913802481659066A0635
:103150007B0608F04FC080919C02882309F44AC086
:1031600080919B0281110FC160E0809102010E9459
:103170000E030E9459064B015C014092610250927D
:10318000620260926302709264020E945906AB016F
:10319000BC01481959096A097B098091C8019091BD
:1031A000C901092E000CAA0BBB0B481759076A0767
:1031B0007B0708F4A5C061E0809100010E940E0326
:1031C00001E000939B020E9459060091A102109118
:1031D000A2022091A3023091A402601B710B820B0A
:1031E000930B48EC50E00E946B101B8206C0698074
:1031F0006C829BCF7B807110C8CF80919B0288230B
:1032000051F10E9459062091C8013091C9018901EC
:10321000330F220B330BAB01BC01401B510B620B74
:10322000730B481959096A097B09483E53406105E7
:10323000710588F04A80411066C01091000100912C
:10324000010160E0812F0E940E03812F902F0E94C8
:103250007E0159805A8280910F01882309F46EC043
:103260007A80772009F46DC08091A6029091A70220
:10327000A091A802B091A9020A97A105B1050CF08E
:1032800045C0E0915F02F091600283E0EE0FFF1F06
:103290008A95E1F7E551FC4F809110019091110161
:1032A000A0911201B09113010197A109B109858381
:1032B0009683A783B0870E94A5098091A60290916A
:1032C000A702A091A802B091A9020A97A105B10591
:1032D0004CF51092A5020E9459060091A10210918E
:1032E000A2022091A3023091A402601B710B820BF9
:1032F000930B48EC50E00E946B101092CF0121C05C
:1033000019811B837ACF69806A82A5CF0E945906F2
:10331000681979098A099B0961327E448105910502
:1033200008F0AFCF0E945906681979098A099B09EC
:1033300061327E448105910560F603C01A81111146
:10334000BCCF8091B1028823D9F08091B00288234C
:10335000B9F01091AF02112399F00E9459064090E4
:10336000A1025090A2026090A3027090A40264197E
:1033700075098609970948EC50E00E946B101E837E
:10338000260137018FCC4B80442009F43ACFFDCE83
:10339000CF92DF92EF92FF920F931F93CF93DF9321
:1033A000CDB7DEB7CC5AD1090FB6F894DEBF0FBE49
:1033B000CDBF8C010E94090ED8018C918536A9F5EC
:1033C0008BEF91E00E94280EEBEEF3E01182128267
:1033D0001382148215821682178210863896B4E002
:1033E000E33BFB0799F70E94A50910926002109237
:1033F0005F0289EC90E0A0E0B0E080931001909330
:103400001101A0931201B0931301C455DF4F0FB601
:10341000F894DEBF0FBECDBFDF91CF911F910F910A
:10342000FF90EF90DF90CF900895823799F58DEE61
:1034300091E00E94280EF80181810E94170E8EE310
:1034400091E00E94090ED80111968C911197898301
:1034500012968C918823B9F08A831B82CE01019643
:103460000E94CE2697FD11C08CE791E00E94090EC4
:10347000CE0101960E94B0260E94040F89E891E0D7
:103480000E94090EC2CF1A82E9CF8AED91E00E9414
:10349000280EBBCF873739F48EEC91E00E94280EBE
:1034A0000E94A515B2CF8E3659F48BEB91E00E94A5
:1034B000280E88EB91E00E9481020E94B10EA5CFF8
:1034C0008C3629F489EA91E00E94280EF6CF8336E3
:1034D00079F480915E02811106C081E080935E02E2
:1034E00088E991E0D4CF10925E0288E891E0CFCFD6
:1034F0008136B1F48FE791E00E94810210E000E094
:103500000E946B018017910734F0C8010E94040FDC
:103510000F5F1F4FF5CF88E791E00E94810275CFC2
:10352000823609F02DC28FE691E00E9481021A8254
:103530001982FE01339686E7DF011D928A95E9F72D
:103540008E0107581F4FF8011192119288E0DF0198
:103550001D928A95E9F70E949F12811104C08AEE9C
:1035600090E00E94810264E971E0CE0101960E9420
:103570008F2B80916A028F93809169028F9381E6ED
:10358000E82E81E0F82EFF92EF921F930F930E9496
:103590009A2BB801CE0101960E948F2B80916C026C
:1035A0008F9380916B028F93FF92EF921F930F93F3
:1035B0000E949A2BB801CE0101960E948F2B809118
:1035C0006E028F9380916D028F93FF92EF921F9303
:1035D0000F930E949A2BB801CE0101960E948F2B67
:1035E000809170028F9380916F028F93FF92EF9280
:1035F0001F930F930E949A2BB801CE0101960E944F
:103600008F2B809172028F93809171028F93FF9222
:10361000EF921F930F930E949A2BB801CE0101964F
:103620000E948F2B809176028F93809175028F93E9
:10363000FF92EF921F930F930E949A2B0FB6F8946C
:10364000DEBF0FBECDBFB801CE0101960E948F2B09
:10365000809174028F93809173028F93FF92EF9207
:103660001F930F930E949A2BB801CE0101960E94DE
:103670008F2B60EA71E0CE0101960E948F2B66E7E6
:1036800071E0CE0101960E948F2B1F9281E08F93F3
:10369000FF92EF921F930F930E949A2BB801CE01D5
:1036A00001960E948F2B1F9285E18F93FF92EF92DC
:1036B0001F930F930E949A2BB801CE0101960E948E
:1036C0008F2B809178028F93809177028F93FF9256
:1036D000EF921F930F930E949A2BB801CE0101968F
:1036E0000E948F2B80917A028F93809179028F9321
:1036F000FF92EF921F930F930E949A2BB801CE0175
:1037000001960E948F2B80917C028F9380917B0287
:103710008F93FF92EF921F930F930E949A2B0FB6F5
:10372000F894DEBF0FBECDBFB801CE0101960E9456
:103730008F2B80917E028F9380917D028F93FF92D9
:10374000EF921F930F930E949A2BB801CE0101961E
:103750000E948F2B809180028F9380917F028F93A4
:10376000FF92EF921F930F930E949A2BB801CE0104
:1037700001960E948F2B809182028F93809181020B
:103780008F93FF92EF921F930F930E949A2BB80191
:10379000CE0101960E948F2B809184028F9380919D
:1037A00083028F93FF92EF921F930F930E949A2BA5
:1037B000B801CE0101960E948F2B809186028F93D3
:1037C000809185028F93FF92EF921F930F930E9437
:1037D0009A2BB801CE0101960E948F2B80918A020C
:1037E0008F93809189028F93809188028F9380912B
:1037F00087028F938CEA91E09F938F931F930F938F
:103800000E949A2B0FB6F894DEBF0FBECDBFB80151
:10381000CE0101960E948F2B80918C028F93809114
:103820008B028F93FF92EF921F930F930E949A2B1C
:10383000B801CE0101960E948F2B80918E028F934A
:1038400080918D028F93FF92EF921F930F930E94AE
:103850009A2BB801CE0101960E948F2B8091900285
:103860008F9380918F028F93FF92EF921F930F930C
:103870000E949A2BB801CE0101960E948F2B809155
:1038800092028F93809191028F93FF92EF921F93F8
:103890000F930E949A2BB801CE0101960E948F2BA4
:1038A000809194028F93809193028F93FF92EF9275
:1038B0001F930F930E949A2BB801CE0101960E948C
:1038C0008F2B809196028F93809195028F93FF9218
:1038D000EF921F930F930E949A2B0FB6F894DEBFBE
:1038E0000FBECDBFB801CE0101960E948F2B8091F3
:1038F00098028F93809197028F93FF92EF921F937C
:103900000F930E949A2BB801CE0101960E948F2B33
:10391000CE0101967C010F900F900F900F900F90A9
:103920000F9090E080E0D7012D917D01820F911DD5
:1039300027FD9A95A017B107B1F799279F938F9309
:1039400081EB91E09F938F93FF92AF930E949A2B0C
:10395000B701CE0101960E948F2B88E691E00E946C
:10396000FC0DCE0101960E94FC0D88E691E00E94BC
:1039700081020F900F900F900F900F900F9045CDF8
:10398000833709F038C1C555DF4F19830883CB5AF7
:10399000D0401A821982FE01339682E6DF011D9221
:1039A0008A95E9F7D12CC12CF12CE12CAE014555BB
:1039B0005F4F66E771E0C555DF4F88819981CB5A2B
:1039C000D0400E94F5268C01009709F4D3C0F7017E
:1039D0003197E831F10508F027C0EF50F34E0C9411
:1039E000672B091D181D1F1D261D2D1D341D3B1D78
:1039F000421D491D501D571D5E1D651D6C1D731D0B
:103A00007A1D851D8C1D931D9A1DA11DA81DAF1D1E
:103A1000B61D0E94B02690936A0280936902B80195
:103A2000CE0101960E948F2BBFEFEB1AFB0ABECF8F
:103A30000E94B02690936C0280936B02F0CF0E949C
:103A4000B02690936E0280936D02E9CF0E94B0265B
:103A50009093700280936F02E2CF0E94B026909301
:103A6000720280937102DBCF0E94B02690937402A1
:103A700080937302D4CF0E94B026909376028093F5
:103A80007502CDCF0E94CE267093780260937702A4
:103A9000C6CF0E94CE2670937A0260937902BFCF80
:103AA0000E94CE2670937C0260937B02B8CF0E9466
:103AB000B02690937E0280937D02B1CF0E94B02603
:103AC0009093800280937F02AACF0E94CE267093AB
:103AD000820260938102A3CF0E94B0269093840259
:103AE000809383029CCF0E94B0269093860280939D
:103AF000850295CF0E94CE2660938702709388023C
:103B00008093890290938A028ACF0E94B026909374
:103B10008C0280938B0283CF0E94B02690938E02FA
:103B200080938D027CCF0E94B02690939002809368
:103B30008F0275CF0E94B0269093920280939102DB
:103B40006ECF0E94CE26709394026093930267CF4B
:103B50000E94B026909396028093950260CF0E94B7
:103B6000B026909398028093970259CF0E94B02676
:103B70006C015ACFE7E1EE16F1041CF48CE591E0FC
:103B8000CCCCFE0131969E012B593F4F90E080E056
:103B90004191840F911D47FD9A95E217F307C1F7F4
:103BA0008C151D0459F782E3E9E6F2E0DE01A7581F
:103BB000BF4F01900D928A95E1F7FE01E758FF4F44
:103BC000AF01405D5F4F90E080E04E175F0731F03E
:103BD0002191820F911D27FD9A95F7CF90939A021C
:103BE000809399020E94881282E691E00E948102ED
:103BF0000E941D0B0ACC843629F40E94C1090E9440
:103C00008812F6CF843749F40E94C1090E948812B5
:103C10000E941D0B8CE491E080CC863631F481E06B
:103C20008093AE0286E491E078CC873629F4109236
:103C3000AE0280E491E071CC883619F48AE391E019
:103C40006CCC893609F4E1CB8B3661F511968C91F9
:103C500089831A82CE0101960E94CE2697FDD5CB8C
:103C6000FF24F394F8018281863409F4F12CCE010B
:103C700001960E94B0268230910561F08330910553
:103C800069F0019709F0C1CB6F2D8CE090E00E94A4
:103C9000160BBBCB6F2D89E090E0F9CF6F2D81E142
:103CA00090E0F5CF8937A9F411968C91813351F4C6
:103CB00087E291E00E94810281E08093CF018DE054
:103CC00091E02BCC83E191E00E9481021092CF0120
:103CD000F6CF8D3619F487E091E01FCC803219F4CD
:103CE00081E091E01ACC87EF90E00E948102F80118
:103CF00080810E94170E89CB1F920F920FB60F92F0
:103D000011242F933F934F935F936F937F938F93E0
:103D10009F93AF93BF93EF93FF938091B7029091DE
:103D2000B802A091B902B091BA02892B8A2B8B2BD1
:103D3000D1F19091B202E091B302F091B40280818E
:103D4000892780838091B7029091B802A091B9022F
:103D5000B091BA02181619061A061B069CF4809137
:103D6000B7029091B802A091B902B091BA0201973E
:103D7000A109B1098093B7029093B802A093B90248
:103D8000B093BA02FF91EF91BF91AF919F918F9144
:103D90007F916F915F914F913F912F910F900FBE47
:103DA0000F901F901895809118010E943C03EACF54
:103DB0001F920F920FB60F9211242F933F934F93A0
:103DC0005F936F937F938F939F93AF93BF93EF9383
:103DD000FF9385E393E00E941202FF91EF91BF9160
:103DE000AF919F918F917F916F915F914F913F9193
:103DF0002F910F900FBE0F901F9018951F920F924A
:103E00000FB60F9211242F938F939F93EF93FF93ED
:103E1000E0914503F09146038081E0914B03F091DE
:103E20004C0382FD1BC0908180914E038F5F8F7386
:103E300020914F03821741F0E0914E03F0E0EB5CDC
:103E4000FC4F958F80934E03FF91EF919F918F913F
:103E50002F910F900FBE0F901F9018958081F4CF77
:103E60001F920F920FB60F9211242F933F938F93AF
:103E70009F93AF93BF938091150290911602A091EA
:103E80001702B09118023091140223E0230F2D374E
:103E900058F50196A11DB11D2093140280931502BF
:103EA00090931602A0931702B09318028091190202
:103EB00090911A02A0911B02B0911C020196A11DC3
:103EC000B11D8093190290931A02A0931B02B09324
:103ED0001C02BF91AF919F918F913F912F910F90B5
:103EE0000FBE0F901F90189526E8230F0296A11D74
:103EF000B11DD2CF1F920F920FB60F9211242F93A4
:103F00003F934F935F936F937F938F939F93AF9361
:103F1000BF93EF93FF938091B900887F803609F4B7
:103F20004AC0F0F5883209F4A7C018F5803109F4C9
:103F30009BC0B8F4882309F4F9C0883009F494C010
:103F4000FF91EF91BF91AF919F918F917F916F9171
:103F50005F914F913F912F910F900FBE0F901F9047
:103F60001895883109F488C0803251F7809309038D
:103F700014C0803409F49DC040F48033B9F3883311
:103F8000F9F68093090385ECB0C0803509F485C04B
:103F9000883509F496C0883499F60E94C40DD0CFB4
:103FA000883909F48CC038F5883729F050F4883600
:103FB00011F0803729F683E080930B0310921302EF
:103FC00057C0883809F47BC0803919F0803809F06F
:103FD000B7CF80911302803208F071C0E0911302D4
:103FE00081E08E0F809313028091BB00F0E0ED50D2
:103FF000FE4F80833DC0803B39F0E0F4803A09F405
:1040000079C0883A09F09CCF84E080930B0310922A
:10401000F2011092F101E0912D02F0912E0209952A
:104020008091F10181110FC081E08093F101109224
:10403000D10109C0803C09F4A6CF883C09F4A3CF84
:10404000883B09F07DCFE091F20181E08E0F8093F3
:10405000F201F0E0EF52FE4F80818093BB0090911F
:10406000F2018091F10129C08091E6028093BB00AA
:1040700085EC8093BC0064CF909108038091070386
:10408000981758F5E091080381E08E0F809308039C
:10409000F0E0E951FD4F8081E9CFE091080381E034
:1040A0008E0F809308038091BB00F0E0E951FD4F33
:1040B000808390910803809107039817C8F285E8E0
:1040C000D8CFE091080381E08E0F809308038091A0
:1040D000BB00F0E0E951FD4F808380910A0381111C
:1040E0005CCF81E08093E50284EA8093BC0010926B
:1040F0000B0326CF85EC8093BC0010920B038091BC
:104100001302803230F4E0911302F0E0ED50FE4FE4
:1041100010826091130270E0E0912F02F091300262
:1041200083EF91E00995109213020ACF10920903D0
:1041300034CFE5E3F3E01382128288EE93E0A0E04F
:10414000B0E084839583A683B7832DE131E031838A
:10415000208325EC30E03587248724EC30E0378756
:10416000268720EC30E0318B208B21EC30E0338B44
:10417000228B22EC30E0358B248B26EC30E0378B21
:10418000268B118E128E138E148EE2EDF3E01382C5
:10419000128284839583A683B7838FE291E0918313
:1041A0008083EEEDF3E080E092E09283818381E012
:1041B000838380E490E09583848380E5808380E03E
:1041C00090E0A1E0B0E081879287A387B48782E086
:1041D00090E09087878380E186830895CF93DF9373
:1041E000CDB7DEB7C85CD1090FB6F894DEBF0FBEFD
:1041F000CDBF789484B5826084BD84B5816084BD70
:1042000085B5826085BD85B5816085BD80916E0074
:10421000816080936E0010928100809181008260A5
:1042200080938100809181008160809381008091E2
:1042300080008160809380008091B10084608093D1
:10424000B1008091B00081608093B00080917A00CD
:10425000846080937A0080917A00826080937A00F3
:1042600080917A00816080937A0080917A008068E2
:1042700080937A001092C1000E949F1280933902AD
:10428000811104C00E94C1090E9488128091870296
:1042900090918802A0918902B0918A028C3221E02B
:1042A0009207A105B10509F452C0803B24E09207B2
:1042B000A105B10509F44BC0803629E09207A1059C
:1042C000B10509F444C0803C22E19207A105B10583
:1042D000F1F1803825E29207A105B105C1F18034E2
:1042E00028E39207A105B10591F181152BE492070E
:1042F000A105B10561F1803820E79207A105B1055C
:1043000031F1811526E99207A105B10501F1811569
:1043100021EE9207A105B105D1F0811522EC92079B
:1043200021E0A207B10599F081159448A340B10599
:1043300071F080E096E9A0E0B0E08093870290936E
:104340008802A0938902B0938A020E9488120E9478
:104350001D0B82ED90E0A0E8B0E4809329029093D9
:104360002A02A0932B02B0932C028CE69FECACE4C3
:10437000BEE38093250290932602A0932702B09378
:10438000280210922102109222021092230210920F
:10439000240210921D0210921E0210921F0210920F
:1043A00020021092C4021092C302109232031092A3
:1043B00031030E948C0682E991E090932E02809353
:1043C0002D0283E991E09093300280932F02C090F8
:1043D0008702D0908802E0908902F0908A0260E023
:1043E00079E08DE390E0A70196010E94262B2150F1
:1043F0003109410951095695479537952795E0911F
:104400004503F091460382E08083C11481EED80613
:10441000E104F10421F0211590E13907A8F0E091C1
:104420004503F0914603108260E874E88EE190E065
:10443000A70196010E94262B2150310941095109FB
:104440005695479537952795E0914103F0914203A2
:104450003083E0914303F0914403208310924D0395
:10446000E0914903F0914A0386E08083E09147039D
:10447000F0914803808180618083E0914703F0914F
:104480004803808188608083E0914703F09148036E
:10449000808180688083E0914703F09148038081A8
:1044A0008F7D808362E080E00E94680380918B02B0
:1044B000843008F083E08093C1040E948C0680ED74
:1044C0000E941F0D853509F04DC08AEA0E945A0CE2
:1044D0009093C3048093C2048CEA0E945A0C909378
:1044E000C5048093C4048EEA0E945A0C9093C704BA
:1044F0008093C60480EB0E945A0C9093D30480935F
:10450000D20482EB0E945A0C9093D5048093D40479
:1045100084EB0E945A0C9093D7048093D60486EBC8
:104520000E945A0C9093C9048093C80488EB0E949F
:104530005A0C9093CB048093CA048AEB0E945A0CC5
:104540009093CD048093CC048CEB0E945A0C9093F2
:10455000CF048093CE048EEB0E945A0C9093D1042A
:104560008093D00410929C0210929B028AE292E007
:104570000E94810261E08CE00E94680361E089E0B2
:104580000E94680361E081E10E94680361E08DE0C0
:104590000E94680360E088E00E94680360E087E0B2
:1045A0000E94680360E08AE00E94680360E08BE09C
:1045B0000E94680360E080E10E94680360E08CE094
:1045C0000E940E0360E089E00E940E0360E081E13A
:1045D0000E940E0360E08DE00E940E0380918F0226
:1045E00090919002019709F018C281E080935E02D9
:1045F0000E94630A05E110E00E94950A015011092A
:10460000D9F780913902811125C084E690E0A0E0BD
:10461000B0E08093350290933602A0933702B093B6
:10462000380288E00E94E5028C0187E00E94E502E2
:104630000115110509F0F4C1892B61F482E390E0C2
:10464000A0E0B0E08093350290933602A093370249
:10465000B093380202E310E00E94471301501109A1
:10466000D9F70AE010E0C12CD12C76010E94471343
:104670004B015C01C701B6010E949828A501940175
:104680000E9482270E9460286B017C0162E370E037
:1046900080E090E00E9427060150110939F7C70118
:1046A000B6010E94982820E030E040E251E40E94E8
:1046B000EE270E9460286093AA027093AB02809359
:1046C000AC029093AD02109231021092320210921D
:1046D0003302109234028091950290919602092E35
:1046E000000CAA0BBB0B80939D0290939E02A0939B
:1046F0009F02B093A0020E94060D0E946B0197FFDB
:104700009BC11092600210925F0289EC90E0A0E0E1
:10471000B0E08093100190931101A0931201B09327
:1047200013010E946B01AC01092E000C660B770B84
:104730004F3FAFEF5A076A077A07C1F0483151057A
:104740006105710509F496C1E3E0880F991FEA95A8
:10475000E1F7FC01E551FC4F85819681A781B08589
:104760008D3D9F4FA105B1050CF084C181E0809380
:104770000F0110E000E070E2F72E22242A94322C80
:104780006CED462E65E0562E612C712C8BE3F816ED
:1047900009F4CDC28091AE028111A3C20E944713D9
:1047A0004B015C016091AA027091AB028091AC0256
:1047B0009091AD020E9498289B01AC01C501B40103
:1047C0000E9481270E9460286093A6027093A7022E
:1047D0008093A8029093A9028091A502882391F06A
:1047E0000E9459068090A1029090A202A090A3027C
:1047F000B090A402681979098A099B0948EC50E035
:104800000E946B104091A6025091A7026091A802ED
:104810007091A90280919D0290919E02A0919F02A9
:10482000B091A00284179507A607B7070CF4C7C17B
:1048300080915E02811132C180919C0281112EC152
:104840000E94590680905A0290905B02A0905C02F0
:10485000B0905D02681979098A099B098090560217
:1048600090905702A0905802B09059028616970671
:10487000A806B90608F04BC080910D0190910E0179
:10488000019609F00FC12091540230915502F901AF
:10489000EE0FFF1FE45BFD4F808191812F5F3F4F43
:1048A000309355022093540240910B0150910C011A
:1048B0004217530724F41092550210925402909319
:1048C0000E0180930D018F3F980709F4E7C00E9405
:1048D000E502892B09F0D5C0409248025092490266
:1048E00060924A0270924B0240E050E0BA0180911F
:1048F0004602909147020E94A4030E9459066093C9
:10490000420270934302809344029093450244EF25
:1049100051E060E070E0CB010E946B100E945906EC
:104920004B015C0180919C02882309F4DAC1E0907C
:104930009B02EE2009F4D5C185E393E00E94F201C9
:10494000892BA9F085E393E00E94D001F82E9BE328
:10495000F91609F437C1AAE0FA1649F0E1E0F0E0EF
:10496000EC0FFD1FE00FF11FF0820F5F1F4F0E9441
:104970005906681979098A099B09613177428105CD
:10498000910580F20E94760A60916502709166023C
:1049900080916702909168028090140190901501B7
:1049A000A0901601B090170120916B0230916C021B
:1049B000232B09F080C10E949828A50194010E9430
:1049C00024290E9460280E94A80A0E94760A609109
:1049D0006102709162028091630290916402809002
:1049E000140190901501A0901601B090170120912C
:1049F0006B0230916C02232B09F068C10E94982849
:104A0000A50194010E9424290E9460280E94A80AFE
:104A10000E9459064B015C01AACF10925E02E8CDBC
:104A20000130110509F016CE009709F091C186E911
:104A300090E0A0E0B0E006CEFC01A3E0EE0FFF1F87
:104A4000AA95E1F7E551FC4F458156816781708554
:104A50004F5F5F4F6F4F7F4F409310015093110195
:104A600060931201709313010196909360028093FA
:104A70005F0257CE10920F0186EB91E00E94090E63
:104A800078CE8CE291E0A0E0B0E080934802909371
:104A90004902A0934A02B0934B0226CF8DE00E94B8
:104AA0003C0335CF0E9459068090480290904902FD
:104AB000A0904A02B0904B022091420230914302F2
:104AC0004091440250914502621B730B840B950B7D
:104AD00086169706A806B90638F5181419041A049C
:104AE0001B0414F58DE00E943C03109248021092C2
:104AF000490210924A0210924B0284EF91E0A0E02A
:104B0000B0E080933E0290933F02A0934002B093A6
:104B100041020E94590660933A0270933B028093CF
:104B20003C0290933D02F3CE0E94590680903E02D3
:104B300090903F02A0904002B090410220913A0232
:104B400030913B0240913C0250913D02621B730B3D
:104B5000840B950B86169706A806B90608F0D7CEE3
:104B6000181419041A041B040CF0D1CE30920E0153
:104B700020920D018091540290915502892BB1F43D
:104B800080E197E2A0E0B0E0809356029093570254
:104B9000A0935802B09359020E94590660935A029A
:104BA00070935B0280935C0290935D0210923E02D0
:104BB00010923F021092400210924102A8CE0E9431
:104BC000A515ACCE6801BFEFCB1ADB0AE1E0F0E03F
:104BD000EC0FFD1FE00FF11F108210929C0210924B
:104BE0009B021092A5021092B1021092B002109294
:104BF000AF020E94060D0E946B0197FF3EC010920B
:104C0000600210925F0289EC90E0A0E0B0E0809337
:104C1000100190931101A0931201B09313010E940F
:104C20006B01AC01092E000C660B770B4F3FAFEF09
:104C30005A076A077A07C9F04831510561057105BD
:104C400099F023E0880F991F2A95E1F7FC01E551BF
:104C5000FC4FEE24E39485819681A781B0858D3D3C
:104C60009F4FA105B1050CF0E12CE0920F01CE01A0
:104C700001960E94C81986017ACEFC0133E0EE0F3E
:104C8000FF1F3A95E1F7E551FC4F45815681678159
:104C900070854F5F5F4F6F4F7F4F40931001509370
:104CA00011016093120170931301019690936002B9
:104CB00080935F02B4CF0E949828A50194010E94BE
:104CC00024290E9460280E94EF127FCE0E9498281B
:104CD000A50194010E9424290E9460280E94EF12DD
:104CE00097CE85E393E00E94F201892B09F44ECD23
:104CF00085E393E00E94D001F82EBBE38B1769F0A7
:104D00002AE0821771F3E1E0F0E0EC0FFD1FE00F05
:104D1000F11F80830F5F1F4FE4CFE1E0F0E0EC0F65
:104D2000FD1FE00FF11F10820F5F1F4F26CDCE0138
:104D300001960E94C81980E090E0892B09F419CDF2
:104D40000E94FE01882309F414CD0E94000011CDB9
:104D5000019709F07FCC88EC90E0A0E0B0E072CC45
:104D6000FC0188279927E89421912032E9F3293022
:104D700010F02E30C8F32B3241F02D3239F4689404
:104D800004C00E943127820F911D219120532A30A7
:104D9000C0F31EF4909581959F4F08951F93FC01D9
:104DA00099278827BC01E89411911032E9F3193052
:104DB00010F01E30C8F31B3251F01D3249F46894D4
:104DC00006C00E941C27610F711D811D911D11914C
:104DD00010531A30B0F33EF490958095709561951C
:104DE0007F4F8F4F9F4F1F910895FA01A191B0817E
:104DF000009719F41097E1F0CD01DC01CD010D9081
:104E0000002011F4C00113C0FB012191222319F0ED
:104E10002015D9F7F3CFFB012191201519F41E922B
:104E2000119606C02223C1F70D900020A1F7D001F2
:104E3000FA01A193B0830895592F482F372F262FB9
:104E4000660F771F881F991F660F771F881F991F8E
:104E5000620F731F841F951F660F771F881F991F8E
:104E600008957AE0979F902D879F802D910D1124B2
:104E70000895BB27FA01A62F6217710581059105D8
:104E8000330B30FB66F0AA27660F771F881F991F28
:104E9000AA1FA21710F0A21B63953850A9F7A05DB6
:104EA000AA3308F0A95DA19336F7B111B19310822E
:104EB000CA010C945B27DC01FC01672F71917723F9
:104EC000E1F7329704C07C916D9370836291AE17C5
:104ED000BF07C8F30895F999FECF92BD81BDF89A36
:104EE000992780B50895262FF999FECF1FBA92BD54
:104EF00081BD20BD0FB6F894FA9AF99A0FBE0196BB
:104F000008955058BB27AA270E9499270C94EA2895
:104F10000E94DC2838F00E94E32820F039F49F3FFB
:104F200019F426F40C94D9280EF4E095E7FB0C94C0
:104F3000D328E92F0E94FB2858F3BA17620773079A
:104F40008407950720F079F4A6F50C941D290EF43A
:104F5000E0950B2EBA2FA02D0B01B90190010C0189
:104F6000CA01A0011124FF27591B99F0593F50F4A1
:104F7000503E68F11A16F040A22F232F342F4427F9
:104F8000585FF3CF469537952795A795F0405395F1
:104F9000C9F77EF41F16BA0B620B730B840BBAF0C1
:104FA0009150A1F0FF0FBB1F661F771F881FC2F72C
:104FB0000EC0BA0F621F731F841F48F48795779540
:104FC0006795B795F7959E3F08F0B0CF9395880FFA
:104FD00008F09927EE0F9795879508950E9402286B
:104FE0000C94EA280E94E32858F00E94DC2840F044
:104FF00029F45F3F29F00C94D32851110C941E29F9
:105000000C94D9280E94FB2868F39923B1F3552307
:1050100091F3951B550BBB27AA27621773078407CB
:1050200038F09F5F5F4F220F331F441FAA1FA9F361
:1050300035D00E2E3AF0E0E832D091505040E6954F
:10504000001CCAF72BD0FE2F29D0660F771F881FB0
:10505000BB1F261737074807AB07B0E809F0BB0BA3
:10506000802DBF01FF2793585F4F3AF09E3F5105B7
:1050700078F00C94D3280C941E295F3FE4F3983EFB
:10508000D4F3869577956795B795F7959F5FC9F7A0
:10509000880F911D9695879597F90895E1E0660F21
:1050A000771F881FBB1F621773078407BA0720F09A
:1050B000621B730B840BBA0BEE1F88F7E095089503
:1050C0000E9467286894B1110C941E2908950E94CB
:1050D000032988F09F5798F0B92F9927B751B0F05E
:1050E000E1F0660F771F881F991F1AF0BA95C9F76C
:1050F00014C0B13091F00E941D29B1E008950C94C4
:105100001D29672F782F8827B85F39F0B93FCCF376
:10511000869577956795B395D9F73EF490958095E8
:10512000709561957F4F8F4F9F4F0895E89409C008
:1051300097FB3EF490958095709561957F4F8F4FCA
:105140009F4F9923A9F0F92F96E9BB279395F695E0
:10515000879577956795B795F111F8CFFAF4BB0F5E
:1051600011F460FF1BC06F5F7F4F8F4F9F4F16C0C2
:10517000882311F096E911C0772321F09EE8872F4C
:10518000762F05C0662371F096E8862F70E060E008
:105190002AF09A95660F771F881FDAF7880F969581
:1051A000879597F9089597F99F6780E870E060E028
:1051B00008959FEF80EC089500240A9416161706B0
:1051C00018060906089500240A94121613061406F8
:1051D00005060895092E0394000C11F4882352F05B
:1051E000BB0F40F4BF2B11F460FF04C06F5F7F4F13
:1051F0008F4F9F4F089557FD9058440F551F59F0FA
:105200005F3F71F04795880F97FB991F61F09F3FB3
:1052100079F087950895121613061406551FF2CFDC
:105220004695F1DF08C0161617061806991FF1CF2C
:1052300086957105610508940895E894BB27662753
:105240007727CB0197F908950E9437290C94EA2813
:105250000E94DC2838F00E94E32820F0952311F00A
:105260000C94D3280C94D92811240C941E290E9444
:10527000FB2870F3959FC1F3950F50E0551F629F77
:10528000F001729FBB27F00DB11D639FAA27F00D9F
:10529000B11DAA1F649F6627B00DA11D661F829FC6
:1052A0002227B00DA11D621F739FB00DA11D621FAB
:1052B000839FA00D611D221F749F3327A00D611DC8
:1052C000231F849F600D211D822F762F6A2F1124AA
:1052D0009F5750409AF0F1F088234AF0EE0FFF1FDD
:1052E000BB1F661F771F881F91505040A9F79E3F34
:1052F000510580F00C94D3280C941E295F3FE4F3F1
:10530000983ED4F3869577956795B795F795E79589
:105310009F5FC1F7FE2B880F911D9695879597F992
:105320000895FA01EE0FFF1F309621053105A1F116
:105330006115710561F48038BFE39B0749F16894FA
:105340009038810561F08038BFEF9B0741F09923C9
:105350004AF5FF3FE1053105210519F1E89408946C
:10536000E795D901AA2329F4AB2FBE2FF85FD0F31C
:1053700010C0FF5F70F4A695E0F7F73950F019F010
:10538000FF3A38F49F779F930DD00F9007FC905809
:10539000089546F00C94D92860E070E080E89FE31F
:1053A00008954FE79F775F934F933F932F930E940A
:1053B0008C2A2F913F914F915F910E9424290C9448
:1053C000E92929F416F00C94D3280C941D290C9487
:1053D000D9280E940329A8F39638A0F707F80F925E
:1053E000E8942BE33AEA48EB5FE70E943A290F92F0
:1053F0000F920F924DB75EB70F920E94D42AE8E643
:10540000F0E00E941B2A4F915F91EF91FF91E5958B
:10541000EE1FFF1F49F0FE57E0684427EE0F441FC0
:10542000FA95E1F74195550B0E944E2A0F9007FE21
:105430000C94422A0895DF93CF931F930F93FF920A
:10544000EF92DF927B018C01689406C0DA2EEF01A7
:105450000E943729FE01E894A59125913591459147
:105460005591A6F3EF010E949927FE019701A8012B
:10547000DA9469F7DF90EF90FF900F911F91CF9131
:10548000DF9108959B01AC0160E070E080E89FE34C
:105490000C94EE270C94D3280C94082B0E9403291B
:1054A000D8F39923C9F3940F511DA3F391505040A1
:1054B00094F059F0882332F0660F771F881F9150BF
:1054C0005040C1F79E3F51052CF7880F911D9695CE
:1054D000879597F908955F3FACF0983E9CF0BB2705
:1054E000869577956795B79508F4B1609395C1F760
:1054F000BB0F58F711F460FFE8CF6F5F7F4F8F4FFE
:105500009F4FE3CF0C941E2916F00C94082B0C949B
:10551000D92868940C94D3280E940329A8F39923CE
:10552000C1F3AEF3DF93CF931F930F93FF92C92F75
:10553000DD2788232AF02197660F771F881FDAF767
:1055400020E030E040E85FEB9FE3883920F0803EC8
:1055500038F021968F770E948227E0E9F0E004C0BE
:105560000E948227EDEBF0E00E941B2A8B01BE0116
:10557000EC01FB2E6F5771097595771F880B990BFE
:105580000E94982828E132E741E35FE30E9437292F
:10559000AF2D9801AE01FF900F911F91CF91DF9138
:1055A0000E9499270C94EA28FA01DC01AA0FBB1F7C
:1055B0009B01AC01BF5728F422273327442750789A
:1055C00020C0B75190F4AB2F00244695379527950E
:1055D000011CA395D2F3002071F0220F331F441F4A
:1055E000B395DAF30ED00C94812761307105A0E8F1
:1055F0008A07B94630F49B01AC01662777278827D4
:105600009078309621F0208331834283538308952C
:105610009F3F31F0915020F4879577956795B79526
:10562000880F911D9695879597F90895DB018F93C3
:105630009F930E946D2BBF91AF91A29F800D911DF2
:10564000A39F900DB29F900D11240895A1E21A2EF0
:10565000AA1BBB1BFD010DC0AA1FBB1FEE1FFF1F16
:10566000A217B307E407F50720F0A21BB30BE40B66
:10567000F50B661F771F881F991F1A9469F76095AD
:105680007095809590959B01AC01BD01CF01089567
:10569000052E97FB1EF400940E945F2B57FD07D048
:1056A0000E94262B07FC03D04EF40C945F2B5095E0
:1056B0004095309521953F4F4F4F5F4F08959095FE
:1056C0008095709561957F4F8F4F9F4F0895EE0F96
:1056D000FF1F0590F491E02D09940E94802BA59F57
:1056E000900DB49F900DA49F800D911D11240895DD
:1056F000B7FF0C946D2B0E946D2B821B930B0895AA
:10570000A29FB001B39FC001A39F700D811D112402
:10571000911DB29F700D811D1124911D0895FB01F3
:10572000DC010D900020E9F7119701900D92002007
:10573000E1F70895AEE0B0E0E0EAFBE20C94492E18
:105740000D891E8986E08C831A8309838FEF9FE77A
:105750009E838D83AE01475E5F4F6F89788DCE014A
:1057600001960E94BD2B2F813885020F131FF8016F
:1057700010822E96E4E00C94652EABE0B0E0E3ECF2
:10578000FBE20C943B2E7C013B018A01FC01178259
:105790001682838181FFC8C1CE0101965C01F701A9
:1057A0009381F30193FD859193FF81913F018823BC
:1057B00009F453C1853239F493FD859193FF8191AA
:1057C0003F01853229F4B70190E00E94AD2DE7CF6B
:1057D000912C212C312CFFE1F31538F08B3211F193
:1057E00090F4803209F1833229F137FC3CC020ED7E
:1057F000280F2A3050F536FE20C08AE0989E200DF2
:105800001124922E06C08D3291F0803371F7689486
:1058100030F8F30193FD859193FF81913F01811150
:10582000DACF21C0689431F8689432F8F2CF6894E6
:1058300033F8EFCF689434F8ECCFEAE02E9E200DD9
:105840001124222E689435F8E4CF8E3229F436FCE8
:1058500004C1689436F8DDCF8C3619F4689437F8B3
:10586000D8CF8836B1F2982F9F7D95549330E0F0D1
:105870008336A1F18337C1F1833509F063C0280174
:10588000F2E04F0E511CF801C080D180692D70E00C
:1058900036FC02C06FEF7FEFC6010E94972D4C01CE
:1058A000689437F882010AC00C5F1F4FFFE3F98349
:1058B00088248394912C6501E89437F833FE2DC039
:1058C000522C8114910471F5552009F468CFB70169
:1058D00080E290E00E94AD2D5A94F6CFF8018081CD
:1058E00089830E5F1F4FE4CF2801F2E04F0E511C59
:1058F000F801C080D180692D70E036FC02C06FEFE6
:105900007FEFC6010E94A22D4C018201D5CFB701C5
:1059100080E290E00E94AD2D2A942814190409F029
:10592000B0F7CECFF60137FC859137FE81916F013C
:10593000B70190E00E94AD2D51105A94F1E08F1AFA
:105940009108BFCF843619F0893609F077C0F80185
:1059500037FE6BC060817181828193810C5F1F4F24
:10596000F32DFF763F2E97FF09C090958095709597
:1059700061957F4F8F4F9F4F689437F82AE030E052
:10598000A5010E94DD2DC82ECA188C2C432C36FE92
:105990000CC0E89440F8C91440F434FE05C032FC51
:1059A00003C0F32DFE7E4F2E892C44FE95C0FE01D0
:1059B000EC0DF11D8081803309F087C0242D297EF4
:1059C000422E842D8870582E43FC95C040FE8FC017
:1059D0009C2C821418F42C0C922C981844FE91C024
:1059E000B70180E390E00E94AD2D42FE09C088E738
:1059F00090E041FE02C088E590E0B7010E94AD2D25
:105A0000C91408F48AC0CA94D12C9FEFC91AD90AC4
:105A1000CA0CDB1CF60182916F01B70190E00E9475
:105A2000AD2DAC14BD04B1F74FCF60817181072E4D
:105A3000000C880B990B0E5F1F4F92CFD32CE8946C
:105A4000D4F82AE030E0853739F1232D297FD22E92
:105A50008F3601F148F48835A9F0F70186819781E6
:105A60002B96E2E10C94572E803749F08837A9F73E
:105A7000D4FE02C06894D2F820E130E00DC06894F2
:105A8000D4F8F6CF34FE03C0822F8660D82E20E1F2
:105A900032E002C028E030E0F801D7FE0FC060819C
:105AA0007181828193810C5F1F4FA5010E94DD2DC2
:105AB000C82ECA183D2CE89437F867CF60817181F1
:105AC00090E080E00E5F1F4FF0CF42FC02C0839455
:105AD00078CF8394839475CF842D867809F471CF21
