:100000000C9431010C9459010C9459010C94590130
:100010000C9459010C9459010C9459010C945916E3
:100020000C9459010C9459010C9459010C947618B4
:100030000C9459010C9459010C9459010C945901D8
:100040000C940D170C9459010C94DB160C94B516F6
:100050000C9459010C9459010C9459010C945901B8
:100060000C9457170C94590107634236B79BD8A7D5
:100070001A39685618AEBAAB558C1D3CB7CC5763CD
:10008000BD6DEDFD753EF6177231BF000000803F7B
:1000900008000000BE922449123EABAAAA2ABECD97
:1000A000CCCC4C3E00000080BEABAAAAAA3E000009
:1000B0000000BF000000803F000000000008417801
:1000C000D3BB4387D1133D190E3CC3BD4282AD2B38
:1000D0003E68EC8276BED98FE1A93E4C80EFFFBE30
:1000E00001C4FF7F3F0000000000696E76616C690B
:1000F0006420636F6E660024554E4B4E4F574E3B47
:1001000000244B303B0A00636F6E6669672072659E
:1001100073657465640A00244F4B3B0A00244F4BFF
:100120003B0A00244F4B3B0A0054656C656D6574B7
:1001300072792064697361626C65640A0054656C4D
:10014000656D6574727920656E61626C65640A0024
:10015000244F4B3B0A00244F4B3B0A00244B4F3BA0
:100160000A00244F4B3B0A0024656E643B0A0024BE
:1001700073746172743B0A004E6F7420696D706C09
:10018000656D656E746564200A004E6F7420696D3C
:10019000706C656D656E746564200A004E6F742026
:1001A000696D706C656D656E746564200A004E6FD4
:1001B0007420696D706C656D656E746564200A00ED
:1001C0004E6F7420696D706C656D656E746564202A
:1001D0000A004E6F7420696D706C656D656E746594
:1001E00064200A004E6F7420696D706C656D656ED9
:1001F000746564200A0000000000240027002A0023
:100200000000000023002600290000000008000272
:100210000100000304070000000000000000537408
:100220006172742070726F6772616D0A000102045E
:100230000810204080010204081020010204081068
:100240002000000000250028002B00040404040402
:100250000404040202020202020303030303030272
:100260004D1911241FBECFEFD8E0DEBFCDBF11E086
:10027000A0E0B1E0ECE7F6E502C005900D92A039F0
:10028000B107D9F723E0A0E9B1E001C01D92A43F76
:10029000B207E1F711E0C1E3D1E004C02197FE010C
:1002A0000E945328C033D107C9F70E94A6190C94A5
:1002B0003C2B0C9400002FB7F8946091FF017091D3
:1002C000000280910102909102022FBF08952091B7
:1002D000120381E0213208F044C08091EE028111C6
:1002E000FCCF8091110392E09093EE0291E0909305
:1002F000ED029FEF9093EC021092EB022093EA0242
:10030000A1EFB2E0EAECF2E090E0291331C01092E4
:10031000C9029091C902880F892B8093C9028091EC
:10032000C802813049F51092C8028091C9028093B9
:10033000BB008091BC0083FDF8CF85EC8093BC00AE
:100340008091EE028230E1F38091EC028F3FB1F0B8
:100350008091EC028032A1F08091EC02803391F028
:1003600084E01092F002109212031092EF020895AE
:100370003D9131939F5FC9CF85EEE0CF80E0F1CF13
:1003800082E0EFCF83E0EDCF8930910521F481E069
:100390008093A50208958A30910521F481E080932D
:1003A000A40208958530910521F481E08093A30291
:1003B0000895069719F481E08093A20208950895A4
:1003C0000895AF92BF92CF92DF92EF92FF920F9378
:1003D0001F93CF93DF936C017B018B01040F151FDB
:1003E000EB015E01AE18BF08C017D10759F0699143
:1003F000D601ED91FC910190F081E02DC6010995A7
:10040000892B79F7C501DF91CF911F910F91FF9053
:10041000EF90DF90CF90BF90AF900895FC01538D87
:10042000448D252F30E0842F90E0821B930B5417CE
:1004300010F0CF96089501970895FC01918D828D5B
:10044000981761F0A28DAE0FBF2FB11D5D968C91F4
:10045000928D9F5F9F73928F90E008958FEF9FEF33
:100460000895FC01918D828D981731F0828DE80FEF
:10047000F11D858D90E008958FEF9FEF0895FC01A9
:10048000918D228D892F90E0805C9F4F821B910976
:100490008F739927089583E193E00E943F0221E042
:1004A000892B09F420E0822F089580E090E0892BC9
:1004B00029F00E944B0281110C9400000895FC0168
:1004C000A48DA80FB92FB11DA35ABF4F2C91848DB5
:1004D00090E001968F739927848FA689B7892C9312
:1004E000A089B1898C91837080648C93938D848D65
:1004F000981306C00288F389E02D80818F7D808368
:100500000895EF92FF920F931F93CF93DF93EC0127
:1005100081E0888F9B8D8C8D98131AC0E889F989AA
:10052000808185FF15C09FB7F894EE89FF896083AD
:10053000E889F98980818370806480839FBF81E02E
:1005400090E0DF91CF911F910F91FF90EF90089570
:10055000F62E0B8D10E00F5F1F4F0F731127E02E4B
:100560008C8D8E110CC00FB607FCFACFE889F98983
:10057000808185FFF5CFCE010E945F02F1CFEB8D28
:10058000EC0FFD2FF11DE35AFF4FF0829FB7F89457
:100590000B8FEA89FB8980818062CFCF0F931F93F5
:1005A000CF93DF938C01D0E0C0E0F801EC0FFD1F8A
:1005B0006491662341F083E193E00E948102892BDC
:1005C00011F02196F2CFCE01DF91CF911F910F91C3
:1005D0000895CF93DF93EC01888D8823B9F0AA8921
:1005E000BB89E889F9898C9185FD03C0808186FDEE
:1005F0000DC00FB607FCF7CF8C9185FFF2CF80813D
:1006000085FFEDCFCE010E945F02E9CFDF91CF9150
:100610000895833081F028F4813099F08230A9F078
:1006200008958730A9F08830C9F08430B1F4809102
:1006300080008F7D03C0809180008F778093800041
:10064000089584B58F7784BD089584B58F7DFBCFE1
:100650008091B0008F778093B00008958091B000B2
:100660008F7DF9CFCF93DF93282F30E0F901E65F3C
:10067000FD4F8491F901E35DFD4FD491F901E55BF4
:10068000FD4FC491CC23A1F081110E940903EC2FEE
:10069000F0E0EE0FFF1FE050FE4FA591B491EC91FA
:1006A000ED2381E090E009F480E0DF91CF9108959F
:1006B00080E090E0FACF1F93CF93DF93282F30E0B4
:1006C000F901E65FFD4F8491F901E35DFD4FD4919F
:1006D000F901E55BFD4FC491CC23A9F0162F8111E0
:1006E0000E940903EC2FF0E0EE0FFF1FEF5BFD4FC0
:1006F000A591B4918FB7F894EC91111108C0D095E1
:10070000DE23DC938FBFDF91CF911F910895DE2B05
:10071000F8CF1092A7021092A6021092F002109247
:1007200012031092EE0281E08093ED021092C80253
:1007300061E082E10E945B0361E083E10E945B0370
:10074000E9EBF0E080818E7F808380818D7F8083E4
:1007500088E48093B80085E48093BC008FED91E03D
:100760009093900280938F0280EE91E090938E029E
:1007700080938D0208959091240189130BC0EFE5B9
:10078000F2E0E4919FEF90932401E13049F028F0EA
:10079000E23061F060E00C945B0310926E00FACFDF
:1007A00090916F009D7F90936F00F4CF90917000B7
:1007B0009D7F9093700091E09093B0009091B10074
:1007C000987F94609093B1001092B300E3CFCF93E1
:1007D000DF9390E0FC01E35DFD4F2491855B9D4F2D
:1007E000FC0184918823C9F090E0880F991FFC01D7
:1007F000EA50FE4FA591B491FC01EF5BFD4FC5910E
:10080000D49161110DC09FB7F8948C9120958223EB
:100810008C938881282328839FBFDF91CF910895EF
:10082000623051F49FB7F8943C91822F80958323D6
:100830008C93E8812E2BEFCF8FB7F894EC912E2B71
:100840002C938FBFEACF4F925F926F927F928F92DD
:100850009F92AF92BF92CF92DF92EF92FF920F934F
:100860001F93CF93DF9300D000D01F92CDB7DEB798
:100870008C0149835A836B837C83809124018D3062
:10088000C9F08F3F09F47DC00F900F900F900F902B
:100890000F90DF91CF911F910F91FF90EF90DF901C
:1008A000CF90BF90AF909F908F907F906F905F9010
:1008B0004F900895EFE5F2E084918D8387FDE4CFBA
:1008C00061E08DE00E94E7038D81882321F09D8106
:1008D000923009F044C14801B12CA12C60E072E1D2
:1008E0008AE790E0A50198010E943F2429013A017E
:1008F0007A01690181E0C81AD108E108F1089FEF87
:10090000C916D104E104F10409F00CF4F7C060E465
:1009100072E48FE090E0A50198010E943F246901F4
:100920007A0181E0C81AD108E108F1089D8192306E
:1009300009F098C08FEFC816D104E104F10409F062
:100940000CF4CAC160E970ED83E090E0A501980164
:100950000E943F2469017A0191E0C91AD108E10897
:10096000F1088FEFC816D104E104F10411F00CF086
:1009700065C183E09091B100987F892B8093B1008D
:10098000C5C08DE080932401EFE5F2E094919D8352
:100990009F3F09F479CF913029F158F0923009F452
:1009A0003FC09D8197FD70CF61E08DE00E94E7031D
:1009B0008ECF14BC15BC84B5826084BD85B58160C2
:1009C00085BDE8E5F2E0E491F0E0EE0FFF1FEF5B9C
:1009D000FD4F85919491EAE3F2E0E491E093950272
:1009E0001D826ECF10928000109281008091810054
:1009F0008860809381008091810081608093810074
:100A0000E8E5F2E0E491F0E0EE0FFF1FEF5BFD4F51
:100A100085919491EAE3F2E0E491E093940250CF5F
:100A20001092B0001092B1008091B000826080936B
:100A3000B0008091B10081608093B100E8E5F2E000
:100A4000E491F0E0EE0FFF1FEF5BFD4F8591949175
:100A50009093930280939202EAE3F2E0E491E093B0
:100A600091022ECF9FEFC916D104E104F10409F0E1
:100A70000CF473C068E478EE81E090E0A501980181
:100A80000E943F2469017A0181E0C81AD108E10877
:100A9000F1089D81992309F4EAC09FEFC916D1049A
:100AA000E104F10409F00CF4E0C0EAC064E274EF80
:100AB00080E090E0A50194010E943F2469017A0141
:100AC00081E0C81AD108E108F10885E09FEFC91656
:100AD000D104E104F10409F008F44CCF62E17AE7B3
:100AE00080E090E0A50194010E943F2469017A0111
:100AF00081E0C81AD108E108F108D5C081E09D81E4
:100B0000911138CF95B5987F892B85BDD801AA0F53
:100B1000BB1F29813A814B815C810E945E2428EEB3
:100B200033E040E050E00E9471248D81813009F46F
:100B30004AC0823009F459C08111A6CEC7BC2093A7
:100B40009E0230939F024093A0025093A102809195
:100B50006E00826080936E0097CE82E0D0CFB12C81
:100B6000A12C60E072E18AE790E0A50198010E9463
:100B70003F2469017A0181E0C81AD108E108F1082F
:100B8000C114D10491E0E906F10464F491E08D818F
:100B9000813009F0BBCF80918100887F892B8093C1
:100BA0008100B4CF68E478EE81E090E0A50198017F
:100BB0000E943F2469017A0181E0C81AD108E10846
:100BC000F10893E0E4CFD0928900C092880020938E
:100BD0009A0230939B0240939C0250939D02809115
:100BE0006F00826080936F004FCEC092B30020935D
:100BF0009602309397024093980250939902809105
:100C000070008260809370003FCE84E09FEFC91631
:100C1000D104E104F10409F008F474CF7301620116
:100C20009AE0F594E794D794C7949A95D1F781E028
:100C3000C81AD108E108F10885E064CF68E478EECD
:100C400081E090E0A50198010E943F2469017A01AA
:100C500091E0C91AD108E108F1088FEFC816D10454
:100C6000E104F10411F00CF021CF84E083CE83E0A5
:100C70009FEFC916D104E104F10409F00CF442CF4E
:100C800062E17AE780E090E0A50194010E943F24B0
:100C900069017A0181E0C81AD108E108F1089D8153
:100CA000992309F4B2CF86E09FEFC916D104E1047D
:100CB000F10409F008F45ECE730162012AE0F594B4
:100CC000E794D794C7942A95D1F781E0C81AD10840
:100CD000E108F10887E04ECE82E04CCE3FB7F894B1
:100CE0008091030290910402A0910502B091060246
:100CF00026B5A89B05C02F3F19F00196A11DB11D77
:100D00003FBFBA2FA92F982F8827BC01CD01620FB2
:100D1000711D811D911D42E0660F771F881F991F6D
:100D20004A95D1F708958F929F92AF92BF92CF923A
:100D3000DF92EF92FF924B015C010E946E066B0105
:100D40007C010E946E066C197D098E099F09683E20
:100D5000734081059105A8F321E0821A9108A1084A
:100D6000B10888EEC80E83E0D81EE11CF11C811486
:100D70009104A104B10429F7FF90EF90DF90CF9088
:100D8000BF90AF909F908F90089585ED8093BC00A9
:100D90008091BC0084FDFCCF1092EE02089520915A
:100DA000DB01260F3327331F21323105ECF420916C
:100DB000EE02FC0190E080E0243069F082E00895CA
:100DC000A091DB012191AC0145545E4FA40FB52FDA
:100DD000B11D2C930196861798F38091DB01680F63
:100DE0006093DB0180E0089581E008950895E0912B
:100DF000A7028091A602E81730F4F0E0E855FD4F15
:100E0000808190E008958FEF9FEF08959091A70261
:100E10008091A6022FEF3FEF981748F4E92FF0E0FA
:100E2000E855FD4F208130E09F5F9093A702C901F4
:100E300008958091A6029091A702891B990B0895AD
:100E4000CF92DF92EF92FF920F931F93CF93DF9396
:100E50007C01CB018A012091EF02222389F0EB0172
:100E60006B01C40ED51ECC15DD0569F06991D70163
:100E7000ED91FC910190F081E02DC7010995F3CF30
:100E8000642F0E94CF06C801DF91CF911F910F916F
:100E9000FF90EF90DF90CF900895CF93DF931F9254
:100EA000CDB7DEB769832091EF022223F9F02091BC
:100EB0001203203258F021E030E0FC01338322831A
:100EC00090E080E00F90DF91CF9108958091F00243
:100ED000E82FF0E0EF50FD4F998190838F5F809372
:100EE000F0028093120381E090E0ECCF61E0CE014C
:100EF00001960E94CF06F7CFCF93C82F81E0809351
:100F0000EF0287E7809311031092F0021092120310
:100F100064EF80EB93E00E944D076C2F80EB93E031
:100F20000E944D07CF910C94670190E080E00895F6
:100F3000CF92DF92EF92FF92CF93DF93EC0160327A
:100F400082E07807CCF5653B710514F064EB70E046
:100F5000898128E830E0281B310987FD3395220F6D
:100F6000331F220F331F6901330FEE08FF088A81F8
:100F700028E532E0281B310987FD3395220F331F06
:100F8000220F331F032E000C440B550B2C193D0967
:100F90004E095F09DB0177FF02C0B0E0A0E00E94CC
:100FA000692424EB30E040E050E00E943F24C20E70
:100FB000D31EE41EF51EB601E881EC3070F52981E0
:100FC00088E890E0821B910927FD9395880F991F6F
:100FD000880F991F681779077CF02A8188E592E0CD
:100FE000821B910927FD9395880F991F880F991FE0
:100FF000681779070CF4CB010297880F991F4FB738
:10100000F8942E2F30E0F901EE0FFF1FE20FF31FCF
:10101000E956FE4F928381834FBFDF91CF91FF90BE
:10102000EF90DF90CF9008951F93CF93DF93EC0163
:10103000162F88818C3008F04EC061E0812F0E940D
:10104000E7038881282F30E0F901EE0FFF1FE20F40
:10105000F31FE956FE4F1F736081607C612B608334
:1010600019821A822CE0622F0E944728829FB001C9
:10107000112430E020E0AB01420F531FFA01EE0FC4
:10108000FF1FE40FF51FE956FE4F908196FD16C035
:101090002F5F3F4F2C30310571F781110FC0109237
:1010A000800082E08093810010928500109284007D
:1010B000B19A80916F00826080936F00E8818E2FDB
:1010C00090E0FC01EE0FFF1FE80FF91FE956FE4FFD
:1010D0008081806480838881DF91CF911F91089502
:1010E000CF93DF93CDB7DEB7C454D1090FB6F894D0
:1010F000DEBF0FBECDBF10923602109235021092A5
:1011000038021092370210923A021092390221E00E
:1011100030E030933C0220933B0283E090E09093D8
:101120003E0280933D0210924402109243021092BC
:10113000460210924502109248021092470242E382
:1011400050E05093400240933F02109242021092AE
:10115000410248EB51E050934A024093490245E076
:1011600050E050934C0240934B0290934E02809378
:101170004D021092500210924F02109252021092A1
:10118000510240E056E960E070E040935302509312
:1011900054026093550270935602109258021092B6
:1011A000570240E052E050935A0240935902109285
:1011B0005C0210925B0290935E0280935D028AE073
:1011C00090E0909362028093610210926402109208
:1011D00063021092600210925F028CE390E09093A1
:1011E00066028093650290936802809367029093F1
:1011F0006A028093690290936C0280936B0284E18F
:1012000090E090936E0280936D02909370028093B1
:101210006F02909372028093710290937402809394
:101220007302309376022093750284E4E5E3F2E0E2
:10123000DE01119601900D928A95E1F7FE0131963B
:10124000AE014D5B5F4F90E080E0E417F50731F0B1
:101250002191820F911D27FD9A95F7CF90937802E7
:1012600080937702CC5BDF4F0FB6F894DEBF0FBEE2
:10127000CDBFDF91CF91089548EE53E060E070E07C
:1012800080911702909118020E9423046CED75E082
:1012900080E090E00E9493068DE00C94BB03CF9316
:1012A000DF93CAE0D0E048EE53E060E070E080E415
:1012B00096E00E94230462E370E080E090E00E94E8
:1012C00093068DE00E94BB03219769F768EE73E0F7
:1012D00080E090E0DF91CF910C94930649E150E0DB
:1012E00060E070E080911702909118020E94230440
:1012F0006CE271E080E090E00E9493068DE00C9437
:10130000BB03CF92DF92EF92FF920F931F93CF9385
:10131000DF936B017C0124E6C216D104E104F104E1
:101320000CF446C024E630E040E050E00E943F2448
:10133000890164E6629FC001639F900D1124092E0C
:10134000000CAA0BBB0BA7019601281B390B4A0BFB
:101350005B0BCA01B9012AE030E040E050E00E9496
:101360003F24E901EE24E394F12C1016110644F118
:101370001C161D067CF401E010E00E946E0962E379
:1013800070E080E090E00E9493060F5F1F4FC0174F
:10139000D1079CF768E873E180E090E0DF91CF919E
:1013A0001F910F91FF90EF90DF90CF900C949306D8
:1013B0002AE030E040E050E00E943F24E901D8CF2D
:1013C0000E943C0962E370E080E090E00E94930696
:1013D0003FEFE31AF30A0E151F0594F7C9CF8930C2
:1013E000910579F4662341F060916502709166027F
:1013F0008AED93E00C94980760916D0270916E02F3
:10140000F7CF8A30910571F4662339F06091670255
:101410007091680287ED93E0EDCF60916F0270915B
:101420007002F8CF8530910571F4662339F0609130
:10143000690270916A0284ED93E0DCCF60917102E1
:1014400070917202F8CF069771F4662339F06091BB
:101450006B0270916C0281ED93E0CCCF60917302CE
:1014600070917402F8CF0895CF93DF93E8E0F1E034
:10147000C0E1D1E0A0E0B1E020E131E08FEF9FEFEB
:1014800081939193899399938D939D932E173F0701
:10149000B9F78091390290913A0281309105B1F10A
:1014A0002CF4892BB9F010921F0122C082309105D3
:1014B000E1F10497C1F78091430290914402909327
:1014C0001B0280931A0289E090E0909301018093BF
:1014D00000010EC0809143029091440290931D023E
:1014E00080931C0289E090E09093090180930801A9
:1014F00080913B0290913C028130910509F449C0F2
:10150000C4F4892B51F110921E0135C08091430221
:1015100090914402909323028093220289E090E00C
:101520009093110180931001E3CF81E080932B020F
:10153000DFCF82309105E1F1049729F780914502D0
:101540009091460290931B0280931A028AE090E0E9
:1015500090930301809302010EC08AE090E0909383
:101560000B0180930A01809145029091460290936D
:101570001D0280931C0280913D0290913E028130B9
:10158000910509F448C0C4F4892B51F110921D0152
:1015900035C08AE090E0909313018093120180910E
:1015A0004502909146029093230280932202E3CF5A
:1015B00081E080932A02DFCF82309105D9F1049730
:1015C00029F7809147029091480290931B028093E3
:1015D0001A0285E090E090930501809304010EC00B
:1015E000809147029091480290931D0280931C02C3
:1015F00085E090E090930D0180930C0180915D0255
:1016000090915E0281309105F1F1C4F4892B51F182
:1016100010921C0135C0809147029091480290932E
:1016200023028093220285E090E09093150180933D
:101630001401E4CF81E080932902E0CF823091054C
:1016400089F1049729F780915F029091600290934D
:101650001B0280931A0286E090E09093070180932A
:1016600006010EC080915F029091600290931D026E
:1016700080931C0286E090E090930F0180930E010E
:10168000DF91CF91089580915F02909160029093D5
:1016900023028093220286E090E0909317018093CA
:1016A0001601EECF81E080932802EACF9091EE02FE
:1016B0009111FCCF282F91E09093EE029093ED02D0
:1016C0003FEF3093EC021092EB02380F3093EA02B6
:1016D0009093C9029091C9029E6E9093C902909115
:1016E000C802913019F51092C8029091C9029093E6
:1016F000BB009091BC0093FDF8CF95EC9093BC009B
:101700009091EE029130E1F39091EB02981710F472
:101710002091EB02AAECB2E0E8EAF2E080E082136A
:1017200007C01092A7028093A602089595EEE6CF17
:101730009D9191938F5FF3CFCF93C1E0C093EF0260
:1017400097E7909311031092F00210921203682F02
:1017500080EB93E00E944D070E946701C093EF0267
:101760001092F0021092120381E090E00E94560B5A
:1017700080EB93E00E940607C82F0E9467018C2F20
:10178000CF910895CF93DF93C1E0C093EF0297E725
:10179000909311031092F00210921203682F80EBC5
:1017A00093E00E944D070E946701C093EF021092E0
:1017B000F0021092120382E090E00E94560B80EB40
:1017C00093E00E940607D82F80E0C82F80EB93E0BB
:1017D0000E940607C82BD92B0E946701CE01DF911A
:1017E000CF910895FC0101900020E9F73197AF01F6
:1017F000481B590BBC0183E193E00C94E101CF93AA
:10180000DF930E94CE02EC0189E491E00E94F20B8A
:101810008C0F9D1FDF91CF9108950F931F93CF934E
:10182000DF9305E312E0C0E2D0E0F80161918F019F
:10183000CE010E9431242196C436D105B1F7DF9143
:10184000CF911F910F910895EF92FF920F931F93E5
:10185000CF93DF93CDB7DEB7C454D1090FB6F89458
:10186000DEBF0FBECDBF0E94700885E3E82E82E088
:10187000F82E00E210E0C8010E942924F7018193AC
:101880007F010F5F1F4F04361105A9F740917702C2
:101890005091780284E4E5E3F2E0DE0111960190D4
:1018A0000D928A95E1F7FE013196BE016D5B7F4F87
:1018B00030E020E0E617F70731F08191280F311D65
:1018C00087FD3A95F7CF81E04217530709F080E092
:1018D000CC5BDF4F0FB6F894DEBF0FBECDBFDF91FC
:1018E000CF911F910F91FF90EF9008958F929F924B
:1018F000AF92BF92CF92DF92FF920F931F93CF933D
:10190000DF9300D000D01F92CDB7DEB72AE0AE0142
:101910004F5F5F4F6A010E94F723F601019000209C
:10192000E9F73197FE2EFC1868EB7BE080E090E051
:101930000E94930656018A2D8C198F15F0F468EEDB
:1019400073E080E090E00E949306F50101915F0151
:10195000005309F40AE010E0912C812C0E946E09DA
:10196000FFEF8F1A9F0A801691062CF76AEF70E03E
:1019700080E090E00E949306F1CF0F900F900F90BF
:101980000F900F90DF91CF911F910F91FF90DF90FB
:10199000CF90BF90AF909F908F900895CF92DF929D
:1019A000EF92FF920F931F93CF93DF93CDB7DEB7E4
:1019B000CC5DD1090FB6F894DEBF0FBECDBF8C0150
:1019C0000E94F20B89E491E00E94F20BD8018C9105
:1019D0008536A1F484EE91E00E94FF0BC452DF4FE4
:1019E0000FB6F894DEBF0FBECDBFDF91CF911F9130
:1019F0000F91FF90EF90DF90CF900895823719F408
:101A000082ED91E0E9CF873719F480EC91E0E4CFE3
:101A10008E3619F48EEA91E0DFCF8C3619F48CE91A
:101A200091E0DACF833619F48AE891E0D5CF813698
:101A300019F488E791E0D0CF823609F0C7C28FE66B
:101A400091E00E94CE021A821982FE01339684E947
:101A5000DF011D928A95E9F78E0109561F4FF801A3
:101A60001192119288E0DF011D928A95E9F70E9498
:101A7000240C811104C08AEE90E00E94CE026CE436
:101A800071E0CE0101960E945928809136028F9311
:101A9000809135028F9388E5E82E81E0F82EFF9241
:101AA000EF921F930F930E946428B801CE01019614
:101AB0000E945928809138028F93809137028F932A
:101AC000FF92EF921F930F930E946428B801CE01FA
:101AD00001960E94592880913A028F938091390291
:101AE0008F93FF92EF921F930F930E946428B80187
:101AF000CE0101960E94592880913C028F938091DB
:101B00003B028F93FF92EF921F930F930E946428E2
:101B1000B801CE0101960E94592880913E028F9310
:101B200080913D028F93FF92EF921F930F930E943B
:101B30006428B801CE0101960E9459288091420282
:101B40008F93809141028F93FF92EF921F930F9397
:101B50000E9464280FB6F894DEBF0FBECDBFB80157
:101B6000CE0101960E945928809140028F93809166
:101B70003F028F93FF92EF921F930F930E9464286E
:101B8000B801CE0101960E9459286CE571E0CE01A2
:101B900001960E9459286FE771E0CE0101960E94DC
:101BA00059281F9281E08F93FF92EF921F930F931A
:101BB0000E946428B801CE0101960E9459281F9204
:101BC00082E08F93FF92EF921F930F930E946428FD
:101BD000B801CE0101960E945928809144028F934A
:101BE000809143028F93FF92EF921F930F930E9475
:101BF0006428B801CE0101960E94592880914602BE
:101C00008F93809145028F93FF92EF921F930F93D2
:101C10000E946428B801CE0101960E945928809143
:101C200048028F93809147028F93FF92EF921F9308
:101C30000F930E9464280FB6F894DEBF0FBECDBF8D
:101C4000B801CE0101960E94592880914A028F93D3
:101C5000809149028F93FF92EF921F930F930E94FE
:101C60006428B801CE0101960E94592880914C0247
:101C70008F9380914B028F93FF92EF921F930F935C
:101C80000E946428B801CE0101960E9459288091D3
:101C90004E028F9380914D028F93FF92EF921F938C
:101CA0000F930E946428B801CE0101960E94592822
:101CB000809150028F9380914F028F93FF92EF9209
:101CC0001F930F930E946428B801CE0101960E94D1
:101CD0005928809152028F93809151028F93FF92E5
:101CE000EF921F930F930E946428B801CE010196D2
:101CF0000E945928809156028F93809155028F93AC
:101D0000809154028F93809153028F9386E691E0E5
:101D10009F938F931F930F930E9464280FB6F8949C
:101D2000DEBF0FBECDBFB801CE0101960E9459287B
:101D3000809158028F93809157028F93FF92EF9278
:101D40001F930F930E946428B801CE0101960E9450
:101D5000592880915A028F93809159028F93FF9254
:101D6000EF921F930F930E946428B801CE01019651
:101D70000E94592880915C028F9380915B028F931F
:101D8000FF92EF921F930F930E946428B801CE0137
:101D900001960E94592880915E028F9380915D0286
:101DA0008F93FF92EF921F930F930E946428B801C4
:101DB000CE0101960E945928809160028F938091F4
:101DC0005F028F93FF92EF921F930F930E946428FC
:101DD000B801CE0101960E945928809162028F932A
:101DE000809161028F93FF92EF921F930F930E9455
:101DF00064280FB6F894DEBF0FBECDBFB801CE0188
:101E000001960E945928809164028F938091630209
:101E10008F93FF92EF921F930F930E946428B80153
:101E2000CE0101960E945928809166028F9380917D
:101E300065028F93FF92EF921F930F930E94642885
:101E4000B801CE0101960E945928809168028F93B3
:101E5000809167028F93FF92EF921F930F930E94DE
:101E60006428B801CE0101960E94592880916A0227
:101E70008F93809169028F93FF92EF921F930F933C
:101E80000E946428B801CE0101960E9459288091D1
:101E90006C028F9380916B028F93FF92EF921F934E
:101EA0000F930E946428B801CE0101960E94592820
:101EB00080916E028F9380916D028F93FF92EF92CB
:101EC0001F930F930E9464280FB6F894DEBF0FBED5
:101ED000CDBFB801CE0101960E94592880917002B1
:101EE0008F9380916F028F93FF92EF921F930F93C6
:101EF0000E946428B801CE0101960E945928809161
:101F000072028F93809171028F93FF92EF921F93D1
:101F10000F930E946428B801CE0101960E945928AF
:101F2000809174028F93809173028F93FF92EF924E
:101F30001F930F930E946428B801CE0101960E945E
:101F40005928809176028F93809175028F93FF922A
:101F5000EF921F930F930E946428B801CE0101965F
:101F60000E945928FE0131960FB6F894DEBF0FBECD
:101F7000CDBF90E080E02191820F911D27FD9A95C1
:101F80000E171F07C1F799279F938F938BE691E058
:101F90009F938F931F930F930E946428B801CE01E3
:101FA00001960E94592880E791E00E94F20BCE0131
:101FB00001960E94F20B88E691E00E94CE020F90FB
:101FC0000F900F900F900F900F9008CD833709F06E
:101FD00082C1C552DF4F19830883CB5DD0401A827E
:101FE0001982FE01339682E6DF011D928A95E9F798
:101FF000D12CC12CF12CE12CAE0145525F4F6FE783
:1020000071E0C552DF4F88819981CB5DD0400E943D
:10201000B3238C01009709F41BC1F7013197E1321A
:10202000F10508F030C0E95EFF4E0C9453283810DB
:1020300047104E1055105C1063106A107110781024
:102040007F1086108D1094109B10A210A910B41050
:10205000BB10C210C910D010D710DE10E510EC1064
:10206000F310FA10011108110F1116111D1124118E
:102070000E946E239093360280933502B801CE0100
:1020800001960E945928BFEFEB1AFB0AB5CF0E94B8
:102090006E239093380280933702F0CF0E946E2314
:1020A00090933A0280933902E9CF0E946E23909375
:1020B0003C0280933B02E2CF0E946E2390933E024B
:1020C00080933D02DBCF0E946E2390934002809369
:1020D0003F02D4CF0E946E2390934202809341022C
:1020E000CDCF0E948C237093440260934302C6CFED
:1020F0000E948C237093460260934502BFCF0E94DA
:102100008C237093480260934702B8CF0E946E23DD
:1021100090934A0280934902B1CF0E946E2390931C
:102120004C0280934B02AACF0E948C2370934E02E4
:1021300060934D02A3CF0E946E2390935002809330
:102140004F029CCF0E946E239093520280935102C3
:1021500095CF0E948C236093530270935402809316
:102160005502909356028ACF0E946E239093580294
:102170008093570283CF0E946E2390935A028093DC
:1021800059027CCF0E946E2390935C0280935B0285
:1021900075CF0E946E2390935E0280935D026ECF96
:1021A0000E948C237093600260935F0267CF0E944D
:1021B0006E23909362028093610260CF0E946E232F
:1021C000909364028093630259CF0E946E23909390
:1021D00066028093650252CF0E946E23909368023C
:1021E000809367024BCF0E946E2390936A02809384
:1021F000690244CF0E946E2390936C0280936B021D
:102200003DCF0E946E2390936E0280936D0236CF75
:102210000E946E239093700280936F022FCF0E94D2
:102220006E23909372028093710228CF0E946E23D6
:10223000909374028093730221CF0E946E23909337
:102240007602809375021ACF0E946E236C011BCF19
:10225000E0E2EE16F1042CF48CE591E00E94CE024F
:10226000BDCBFE0131969E012B593F4F90E080E09F
:102270004191840F911D47FD9A952E173F07C1F795
:102280008C151D0449F784E4E5E3F2E0DE01A9566C
:10229000BF4F01900D928A95E1F7FE01E956FF4F7D
:1022A000AE0147525F4F90E080E04E175F0731F07C
:1022B0002191820F911D27FD9A95F7CF9093780277
:1022C000809377020E940D0C0E94240C0E94340A15
:1022D00082E691E0C3CF843649F40E9470080E94E0
:1022E0000D0C0E94240C0E94340A78CB883619F415
:1022F00086E591E0B3CF863631F481E080938C029D
:1023000080E591E0ABCF8B36A1F511968C91898356
:102310001A82CE0101960E948C2397FD5FCBFF2489
:10232000F394F8018281863409F4F12CCE010196F0
:102330000E946E2382309105A1F04CF4019709F0C0
:102340004DCB6F2D89E090E00E94EF0947CB8330A1
:10235000910559F0049709F041CB6F2D86E090E08C
:10236000F3CF6F2D8AE090E0EFCF6F2D85E090E006
:10237000EBCF8937A9F411968C91813351F48DE319
:1023800091E00E94CE0281E08093940183E291E08B
:1023900065CF89E291E00E94CE0210929401F6CFBF
:1023A0008D3669F4F8018181813329F410928C0211
:1023B0008DE191E053CF81E080938C02F9CF873695
:1023C00029F410928C0287E191E048CF843739F4E8
:1023D0000E9470080E940D0C87E091E03FCF893683
:1023E00009F4FCCA803219F481E091E037CF87EF1D
:1023F00090E00E94CE02D8016C9183E193E00E94AC
:10240000810289E491E00E94F20BE8CA2F923F9288
:102410004F925F926F927F928F929F92AF92BF92F4
:10242000CF92DF92EF92FF920F931F93CF93DF93A0
:10243000CDB7DEB7C35DD1090FB6F894DEBF0FBECE
:10244000CDBF1A821982FE01339626ECDF011D9260
:102450002A95E9F78E0107531F4FF8011192119247
:1024600028E0DF011D922A95E9F7209194012223AB
:1024700009F49EC17A01892E982EA72EB62E0E94AD
:102480005B0140909001509091016090920170909A
:102490009301DC01CB0184199509A609B709A701AD
:1024A000FF0C660B770B481759076A077B0708F084
:1024B0007FC10E945B0160939001709391018093B2
:1024C00092019093930160908302B0917A02CD5271
:1024D000DF4FB883C35DD0402090840230908502E6
:1024E00040908602509087028091790281117AC1D2
:1024F000712CC12CD12C62E771E0CE0101960E94B3
:1025000059285F924F923F922F9288E5E82E81E002
:10251000F82EFF92EF921F930F930E946428B80148
:10252000CE0101960E9459281F926F92FF92EF925E
:102530001F930F930E946428B801CE0101960E9458
:1025400059281F92CD52DF4F8881C35DD0408F93B1
:10255000FF92EF921F930F930E946428B801CE015F
:1025600001960E945928809134028F938091330202
:102570008F93809132028F93809131028F93FF92DB
:10258000EF921F930F930E946428B801CE01019629
:102590000E9459281F927F92FF92EF921F930F93F0
:1025A0000E9464280FB6F894DEBF0FBECDBFB801FD
:1025B000CE0101960E945928809130028F9380911C
:1025C0002F028F9380912E028F9380912D028F93F3
:1025D000FF92EF921F930F930E946428B801CE01DF
:1025E00001960E945928DF92CF92FF92EF921F939B
:1025F0000F930E946428B801CE0101960E945928C9
:102600008F929F92AF92BF92FF92EF921F930F9380
:102610000E946428B801CE0101960E9459286DE7F6
:1026200071E0CE0101960E9459286DE771E0CE015C
:1026300001960E9459286DE771E0CE0101960E9433
:1026400059286DE771E0CE0101960E9459286DE787
:1026500071E0CE0101960E9459288EE20E947C070B
:102660008FE19EE40197F1F700C0000086EF0E9421
:10267000C20B9C0150E040E08091F2039091F30383
:10268000281B390B41095109A091F003B091F103C6
:102690000E945E240E94B92520E030E040E058E32B
:1026A0000E9445260E9481254B015C016091EA034E
:1026B0007091EB03072E000C880B990B0E94B92533
:1026C00020E030E040E055E40E9445262B013C012B
:1026D0006091EC037091ED03072E000C880B990BB1
:1026E000680D791D8A1D9B1D0E94B9259B01AC01B7
:1026F000C301B2010E940F250E948125680D791D3A
:102700008A1D9B1D685F7F4F8F4F9F4F0E94B92589
:1027100020E030E040E85DE30E94452620E030E024
:1027200040E251E40E940F250E9481257F936F9320
:10273000FF92EF921F930F930E946428B801CE017D
:1027400001960E945928FE0131960FB6F894DEBF1B
:102750000FBECDBF90E080E02191820F911D27FD3B
:102760009A950E171F07C1F799279F938F9381E8BA
:1027700091E09F938F931F930F930E946428B80159
:10278000CE0101960E9459286DE671E0CE010196B6
:102790000E94592880E791E00E94F20BCE01019639
:1027A0000E94F20B0F900F900F900F900F900F90D0
:1027B000CD52DF4F0FB6F894DEBF0FBECDBFDF9115
:1027C000CF911F910F91FF90EF90DF90CF90BF902E
:1027D000AF909F908F907F906F905F904F903F90C1
:1027E0002F90089581E0D12CBAE02B1631044104DA
:1027F00051040CF080E0C82E772473947CCE4F9265
:102800005F926F927F928F929F92AF92BF92CF9280
:10281000DF92EF92FF921F93CF93DF9300D000D00F
:1028200000D0CDB7DEB78EE20E947C078FE19EE438
:102830000197F1F700C0000086EF0E94C20B4C0127
:10284000B12CA12C8091DD038295880F880F807CAC
:102850008C5C0E947C078091DD03811109C2AFE18D
:10286000BEE41197F1F700C0000086EF0E94C20B92
:10287000B0E0A0E0CC24D82EE92EFA2E88EF0E94FA
:102880009C0BC82A1091DD03412F50E05E834D83DD
:102890008091F2039091F303A5019401281B390B59
:1028A00041095109A091F003B091F1030E945E2407
:1028B0000E94B92520E030E040E058E30E94452620
:1028C0000E9481252B013C016091EA037091EB038A
:1028D000072E000C880B990B0E94B92520E030E0F0
:1028E00040E055E40E9445264B015C016091EC03F9
:1028F0007091ED03072E000C880B990B640D751D6C
:10290000861D971D0E94B9259B01AC01C501B4012C
:102910000E940F250E948125460E571E681E791EB3
:1029200050EA451A5FE0550A61087108A301920157
:10293000C301B2010E9437289B01AC01ACE0559560
:10294000479537952795AA95D1F729833A834B83E5
:102950005C83A091E203B091E303A30192010E9482
:1029600069244B015C01BDE0B594A79497948794CA
:10297000BA95D1F7A091E403B091E50329813A819A
:102980004B815C810E9469249C01552737FD50953D
:10299000452F280D391D4A1D5B1D2E5F3F4F4F4FA0
:1029A0005F4F62E055954795379527956A95D1F722
:1029B00030584F4F5F4FA091EE03B091EF030E944C
:1029C0005E244B015C017FE0B694A79497948794B2
:1029D0007A95D1F788E090E04D815E81841B950B5C
:1029E00004C0F694E794D794C7948A95D2F7A0913F
:1029F000E603B091E70329813A814B815C810E9413
:102A000069249B01AC01EBE05595479537952795D7
:102A1000EA95D1F729833A834B835C83A091E00345
:102A2000B091E103A30192010E946924FBE0959516
:102A3000879577956795FA95D1F729813A814B81EA
:102A40005C81620F731F841F951F4090DE035090BE
:102A5000DF03052C000C66087708A2E0440C551C27
:102A6000661C771CAA95D1F7640D751D861D971DF0
:102A7000012E04C0660F771F881F991F0A94D2F792
:102A80006E5F7F4F8F4F9F4F24E030E040E050E07B
:102A90000E943F24D701C601821B930BA40BB50BE8
:102AA0009C01AD0160E573EC80E090E004C0969578
:102AB0008795779567951A95D2F70E94372897FDE5
:102AC000EDC0660F771F881F991FA50194010E9412
:102AD000712469017A019927F7FC9A958F2D7E2D33
:102AE0006D2D9B01AC010E9437289B01AC01AEED1E
:102AF000BBE00E945E244B015C01A3E4B3EEA7019E
:102B000096010E946C24BC01992777FD9095892F2E
:102B10004501BB2497FCB094AB2C680D791D8A1D30
:102B20009B1D6153714F8F4F9F4F44E09595879543
:102B3000779567954A95D1F76C0D7D1D8E1D9F1D6C
:102B40000E94B92520E836EE45EC57E40E940F2597
:102B500021E03EED42E45EE30E94B22669837A837F
:102B60008B839C8340900B0250900C0260900D026E
:102B700070900E0220910F023091100240911102CC
:102B8000509112026091070270910802809109022F
:102B900090910A020E94A3246B017C0120911302F0
:102BA0003091140240911502509116020E94A32404
:102BB0009B01AC0160E070E080E89FE30E940F257C
:102BC000A70196010E9445264B015C0129813A81AB
:102BD0004B815C8160E070E080E89FE30E94A2246A
:102BE00020E03AE24DE257E40E944526A30192011B
:102BF0000E94A224A50194010E944526A3019201EE
:102C00000E94A3242B013C0140920B0250920C0223
:102C100060920D0270920E02A501940160E070E0D6
:102C200080E89FE30E94A224A70196010E94452606
:102C300060930702709308028093090290930A023E
:102C4000C301B20126960FB6F894DEBF0FBECDBF0A
:102C5000DF91CF911F91FF90EF90DF90CF90BF90C9
:102C6000AF909F908F907F906F905F904F9008955E
:102C7000813029F48FEF9CE70197F1F7F4CD823092
:102C800029F4AFEBBAED1197F1F7EDCDBFEF24E4E6
:102C900031E0B15020403040E1F7E5CDA50194018D
:102CA0000E94712469017A01CC0CDD1CEE1CFF1C12
:102CB00012CF1F920F920FB60F9211242F933F93B2
:102CC0004F935F936F937F938F939F93AF93BF9334
:102CD000EF93FF938091960290919702A0919802B2
:102CE000B0919902892B8A2B8B2BD1F19091910273
:102CF000E0919202F09193028081892780838091F4
:102D0000960290919702A0919802B091990218169C
:102D100019061A061B069CF4809196029091970260
:102D2000A0919802B09199020197A109B1098093ED
:102D3000960290939702A0939802B0939902FF9104
:102D4000EF91BF91AF919F918F917F916F915F9123
:102D50004F913F912F910F900FBE0F901F9018959C
:102D6000809124010E94BB03EACF1F920F920FB6FD
:102D70000F9211242F933F934F935F936F937F9301
:102D80008F939F93AF93BF93EF93FF9383E193E070
:102D90000E945F02FF91EF91BF91AF919F918F9140
:102DA0007F916F915F914F913F912F910F900FBE47
:102DB0000F901F9018951F920F920FB60F9211242B
:102DC0002F938F939F93EF93FF93E0912303F091C1
:102DD00024038081E0912903F0912A0382FD1BC026
:102DE000908180912C038F5F8F7320912D03821728
:102DF00041F0E0912C03F0E0ED5EFC4F958F809365
:102E00002C03FF91EF919F918F912F910F900FBE07
:102E10000F901F9018958081F4CF1F920F920FB6DC
:102E20000F9211242F933F938F939F93AF93BF9350
:102E30008091FF0190910002A0910102B0910202E5
:102E40003091FE0123E0230F2D3758F50196A11D87
:102E5000B11D2093FE018093FF0190930002A09387
:102E60000102B09302028091030290910402A091AA
:102E70000502B09106020196A11DB11D80930302C7
:102E800090930402A0930502B0930602BF91AF9104
:102E90009F918F913F912F910F900FBE0F901F9098
:102EA000189526E8230F0296A11DB11DD2CF1F92BF
:102EB0000F920FB60F9211242F933F934F935F936E
:102EC0006F937F938F939F93AF93BF93EF93FF93F2
:102ED0008091B900887F803609F44AC0F0F58832C5
:102EE00009F4A7C018F5803109F49BC0B8F4882311
:102EF00009F4F9C0883009F494C0FF91EF91BF91B3
:102F0000AF919F918F917F916F915F914F913F9181
:102F10002F910F900FBE0F901F901895883109F4D4
:102F200088C0803251F78093EC0214C0803409F4D9
:102F30009DC040F48033B9F38833F9F68093EC02F6
:102F400085ECB0C0803509F485C0883509F496C099
:102F5000883499F60E94C506D0CF883909F48CC010
:102F600038F5883729F050F4883611F0803729F683
:102F700083E08093EE021092FD0157C0883809F477
:102F80007BC0803919F0803809F0B7CF8091FD01FE
:102F9000803208F071C0E091FD0181E08E0F8093D6
:102FA000FD018091BB00F0E0E352FE4F80833DC005
:102FB000803B39F0E0F4803A09F479C0883A09F0AE
:102FC0009CCF84E08093EE021092DC011092DB0132
:102FD000E0918F02F091900209958091DB018111BF
:102FE0000FC081E08093DB011092BB0109C0803CDF
:102FF00009F4A6CF883C09F4A3CF883B09F07DCF24
:10300000E091DC0181E08E0F8093DC01F0E0E5547B
:10301000FE4F80818093BB009091DC018091DB01A9
:1030200029C08091C9028093BB0085EC8093BC00CD
:1030300064CF9091EB028091EA02981758F5E091E5
:10304000EB0281E08E0F8093EB02F0E0E653FD4F40
:103050008081E9CFE091EB0281E08E0F8093EB025B
:103060008091BB00F0E0E653FD4F80839091EB022E
:103070008091EA029817C8F285E8D8CFE091EB0278
:1030800081E08E0F8093EB028091BB00F0E0E6536D
:10309000FD4F80838091ED0281115CCF81E08093B0
:1030A000C80284EA8093BC001092EE0226CF85EC21
:1030B0008093BC001092EE028091FD01803230F4CA
:1030C000E091FD01F0E0E352FE4F10826091FD01BE
:1030D00070E0E0918D02F0918E028DED91E0099506
:1030E0001092FD010ACF1092EC0234CF1F920F9282
:1030F0000FB60F9211242F933F934F935F936F93CB
:103100007F938F939F93AF93BF93CF93DF93EF936F
:10311000FF9380919501C0919601D0E087FF24C074
:103120001092850010928400809195018F5F8093AA
:10313000950180919501082E000C990B8C179D0725
:1031400024F4809195018C30C4F180918400909199
:103150008500049680349C4908F47AC080918400EC
:1031600090918500049676C080919501082E000C00
:10317000990B8C179D07C4F6E09195018E2FEE0FE9
:10318000990BFC01EE0FFF1FE80FF91FE956FE4FE8
:10319000808186FFC9CFE09195018E2FEE0F990BAC
:1031A000FC01EE0FFF1FE80FF91FE956FE4F80816B
:1031B00060E08F730E945B03B7CF20918400309151
:1031C0008500E09195018E2FEE0F990BFC01EE0F1B
:1031D000FF1FE80FF91FE956FE4F81819281820F90
:1031E000931F9093890080938800E09195018E2F22
:1031F000EE0F990BFC01EE0FFF1FE80FF91FE956C8
:10320000FE4F808186FF11C0E09195018E2FEE0F59
:10321000990BFC01EE0FFF1FE80FF91FE956FE4F57
:10322000808161E08F730E945B03FF91EF91DF91DA
:10323000CF91BF91AF919F918F917F916F915F914E
:103240004F913F912F910F900FBE0F901F901895A7
:1032500080E49CE990938900809388008FEF8093AD
:103260009501E3CFFC01909196019C3098F481E0A8
:10327000890F809396019083892F90E0FC01EE0FD7
:10328000FF1FE80FF91FE956FE4F88EB9BE0928382
:10329000818308958FEF80830895E3E1F3E0138243
:1032A000128288EE93E0A0E0B0E084839583A68349
:1032B000B78329E231E03183208325EC30E0358784
:1032C000248724EC30E03787268720EC30E0318BF0
:1032D000208B21EC30E0338B228B22EC30E0358BDD
:1032E000248B26EC30E0378B268B118E128E138EBA
:1032F000148EE0EBF3E01382128284839583A6831D
:10330000B7838BE391E091838083EAECF3E0108252
:103310008BE591E096838583E3ECF3E0108296835E
:103320008583ECEBF3E01082968385838AED93E04E
:103330000E94321987ED93E00E94321984ED93E0E8
:103340000E94321981ED93E00C943219CF93DF93F0
:10335000CDB7DEB7C15ED1090FB6F894DEBF0FBEA0
:10336000CDBF789484B5826084BD84B5816084BD0E
:1033700085B5826085BD85B5816085BD80916E0013
:10338000816080936E001092810080918100826044
:103390008093810080918100816080938100809181
:1033A00080008160809380008091B1008460809370
:1033B000B1008091B00081608093B00080917A006C
:1033C000846080937A0080917A00826080937A0092
:1033D00080917A00816080937A0080917A00806881
:1033E00080937A001092C1000E94240C80931902ED
:1033F000811104C00E9470080E940D0C809153023C
:1034000090915402A0915502B09156028C3221E065
:103410009207A105B10509F452C0803B34E093073F
:10342000A105B10509F44BC0803649E09407A10518
:10343000B10509F444C0803C52E19507A105B105EE
:10344000F1F18038E5E29E07A105B105C1F18034B4
:10345000F8E39F07A105B10591F181152BE49207CF
:10346000A105B10561F1803830E79307A105B105E9
:1034700031F1811546E99407A105B10501F18115E6
:1034800051EE9507A105B105D1F08115E2EC9E073B
:10349000E1E0AE07B10599F081159448A340B1056C
:1034A00071F080E096E9A0E0B0E080935302909341
:1034B0005402A0935502B09356020E940D0C8091C5
:1034C000350290913602892B09F0DCC280E090E051
:1034D000A0E8BFE38093200190932101A0932201F3
:1034E000B093230160913F0270914002072E000CBF
:1034F000880B990B0E94B925209120013091210160
:1035000040912201509123010E940F250E948125A4
:10351000072E000C880B990B60931E0270931F02FC
:1035200080932002909321028091490290914A0257
:10353000909318028093170282ED90E0A0E8B0E427
:103540008093130290931402A0931502B093160275
:103550008CE69FECACE4BEE380930F0290931002E4
:10356000A0931102B093120210920B0210920C025F
:1035700010920D0210920E02109207021092080291
:103580001092090210920A020E948903C09053020D
:10359000D0905402E0905502F090560260E079E03D
:1035A0008DE390E0A70196010E947124215031091A
:1035B000410951095695479537952795E091230381
:1035C000F091240382E08083C11441EED406E1042B
:1035D000F10421F0211550E13507A8F0E091230313
:1035E000F0912403108260E874E88EE190E0A70176
:1035F00096010E94712421503109410951095695C3
:10360000479537952795E0911F03F091200330836C
:10361000E0912103F0912203208310922B03E0918B
:103620002703F091280386E08083E0912503F09141
:103630002603808180618083E0912503F091260339
:10364000808188608083E0912503F091260380814A
:1036500080688083E0912503F091260380818F7D2F
:10366000808362E080E00E94E7038091570284300B
:1036700008F083E08093DD030E94890380ED0E94BF
:103680009C0B853509F04DC08AEA0E94C20B9093CD
:10369000DF038093DE038CEA0E94C20B9093E10368
:1036A0008093E0038EEA0E94C20B9093E303809321
:1036B000E20380EB0E94C20B9093EF038093EE0332
:1036C00082EB0E94C20B9093F1038093F00384EB92
:1036D0000E94C20B9093F3038093F20386EB0E9447
:1036E000C20B9093E5038093E40388EB0E94C20B26
:1036F0009093E7038093E6038AEB0E94C20B9093BA
:10370000E9038093E8038CEB0E94C20B9093EB03D8
:103710008093EA038EEB0E94C20B9093ED0380939B
:10372000EC0310927A02109279028EE192E00E94EC
:10373000CE020E94340A69E070E08AED93E00E94B4
:1037400014086AE070E087ED93E00E94140865E0D9
:1037500070E084ED93E00E94140866E070E081ED73
:1037600093E00E94140860E089E090E00E94EF0975
:1037700060E08AE090E00E94EF0960E085E090E080
:103780000E94EF0960E086E090E00E94EF0961E0AE
:103790008DE00E94E70360E088E00E94E70360E0BC
:1037A00087E00E94E70360E08DE00E945B030E94D7
:1037B0003C090E946E090E946E0980914B02909113
:1037C0004C02092E000CAA0BBB0B8093180190939E
:1037D0001901A0931A01B0931B0180911902811164
:1037E00025C084E690E0A0E0B0E080931E029093B4
:1037F0001F02A0932002B093210288E00E943203AE
:103800008C0187E00E9432030115110509F03FC1C8
:10381000892B61F482E390E0A0E0B0E080931E0287
:1038200090931F02A0932002B093210202E310E0C4
:103830000E94FF1301501109D9F70AE010E0C12CD2
:10384000D12C76010E94FF134B015C01C701B60128
:103850000E94B925A50194010E94A3240E948125FC
:103860006B017C0162E370E080E090E00E949306CF
:103870000150110939F7C701B6010E94B92520E0AE
:1038800030E040E251E40E940F250E9481256093C0
:1038900088027093890280938A0290938B0210921F
:1038A0002402109225021092260210922702809183
:1038B000610290916202092E000CAA0BBB0B80934F
:1038C0007B0290937C02A0937D02B0937E02312C08
:1038D000212C10E201E01B3309F4DFC680918C0239
:1038E0008111B5C60E94FF136B017C0160918802B3
:1038F0007091890280918A0290918B020E94B92571
:103900009B01AC01C701B6010E94A2240E9481253F
:10391000609384027093850280938602909387025D
:1039200080918302882391F00E945B01C0907F0206
:10393000D0908002E0908102F09082026C197D09A3
:103940008E099F0948EC50E00E94061240918402C3
:1039500050918502609186027091870280917B026E
:1039600090917C02A0917D02B0917E028417950710
:10397000A607B7070CF497C044EF51E060E070E091
:10398000CB010E9406120E945B014B015C018091F9
:103990007A02882309F45BC680917902882309F4AE
:1039A00056C683E193E00E943F02892BA9F083E190
:1039B00093E00E941D02182F8B3309F413C68A303E
:1039C00059F0E1E0F0E0EC0FFD1FE20DF31D808304
:1039D00091012F5F3F4F19010E945B01681979091E
:1039E0008A099B09613177428105910580F20E9425
:1039F0004F096091310270913202809133029091AF
:103A00003402C0902001D0902101E0902201F0907A
:103A100023012091370230913802232B09F001C68F
:103A20000E94B925A70196010E9445260E94812582
:103A30000E9481090E944F0960912D0270912E020F
:103A400080912F0290913002C0902001D0902101EE
:103A5000E0902201F090230120913702309138024A
:103A6000232B09F0E9C50E94B925A70196010E9400
:103A700045260E9481250E9481090E945B014B011D
:103A80005C01AACF88E499EFA1E5B0E423CD013031
:103A9000110509F0CBCE009709F010C686E990E039
:103AA000A0E0B0E0BBCE80911F01811102C0009365
:103AB000A50280911E01811102C00093A402809191
:103AC0001D01811102C00093A30280911C0181118C
:103AD00002C00093A202C653DF4F1882CA5CD040D6
:103AE000C753DF4F1882C95CD040C153DF4F1882E3
:103AF000CF5CD040C253DF4F1882CE5CD040C3535E
:103B0000DF4F1882CD5CD040C453DF4F1882CC5CAD
:103B1000D040CB52DF4F1882C55DD040C053DF4F3D
:103B20001882C05DD040C952DF4F1882C75DD040B7
:103B3000CA52DF4F1882C65DD040CF52DF4F188285
:103B400019821A821B82C15DD040C252DF4F188297
:103B500019821A821B82CE5DD0400E94FF136B0136
:103B60007C01609188027091890280918A02909113
:103B70008B020E94B9259B01AC01C701B6010E94CE
:103B8000A2240E9481256093840270938502809311
:103B900086029093870280918302882391F00E948D
:103BA0005B01C0907F02D0908002E0908102F09093
:103BB00082026C197D098E099F0948EC50E00E9431
:103BC00006124091840250918502609186027091A4
:103BD000870280917B0290917C02A0917D02B0913E
:103BE0007E0284179507A607B7073CF580918302EC
:103BF000811123C08091790281111FC0009383023B
:103C000048EC50E060E070E0CB010E9406120E9498
:103C10005B0160937F027093800280938102909396
:103C200082028091410290914202019731F421E099
:103C3000CA52DF4F2883C65DD0408091830288231B
:103C400009F48BCFC752DF4F188219821A821B8268
:103C5000C95DD040412C512C3201C352DF4F188234
:103C6000CD5DD0400EC0C352DF4F8880CD5DD040C7
:103C7000811089CE72CFC753DF4FB882C95CD04064
:103C8000260180908302C553DF4F8882CB5CD040F1
:103C9000882049F30E94FF136B017C016091880228
:103CA0007091890280918A0290918B020E94B925BD
:103CB0009B01AC01C701B6010E94A2240E9481258C
:103CC0004B015C018092840290928502A092860250
:103CD000B09287020E945B01C0907F02D090800268
:103CE000E0908102F09082029B01AC012C193D0909
:103CF0004E095F0969017A0130917902C852DF4F9C
:103D00003883C85DD040332309F43FC080912C0232
:103D100081113BC0C752DF4F48815981C95DD040F6
:103D2000841A950AB401990C880B990B0E94B92545
:103D30004B015C01B60164197509072E000C880B54
:103D4000990B0E94B92520E030E04AE754E40E9434
:103D50000F259B01AC01C501B4010E940F250E94F3
:103D60008125672B91F484E891E00E94F20B89E4AD
:103D700091E00E94F20BC852DF4F8880C85DD040AE
:103D8000CB52DF4F8882C55DD040809084029090F6
:103D90008502A0908602B0908702C752DF4F8882CA
:103DA0009982AA82BB82C95DD04048EC50E0C7012D
:103DB000B6010E940612B0902B02BB2009F449C044
:103DC000C453DF4F9880CC5CD040911012C08091DA
:103DD000430290914402092E000CAA0BBB0BC8169B
:103DE000D906EA06FB06A8F161E089E090E00E94AE
:103DF000EF098091430290914402092E000CAA0B16
:103E0000BB0BA7019601281B390B4A0B5B0BDA0190
:103E1000C901883E9340A105B105B0F0A090A5026C
:103E2000C453DF4FA882CC5CD040A11012C0809157
:103E3000750290917602892B29F460E089E090E088
:103E40000E94EF090093A502C453DF4FB882CC5CF7
:103E5000D040B0902A02BB2009F449C0C353DF4FC1
:103E60008880CD5CD040811012C080914502909135
:103E70004602092E000CAA0BBB0BC816D906EA068F
:103E8000FB06A8F161E08AE090E00E94EF098091D2
:103E9000450290914602092E000CAA0BBB0BA7010C
:103EA0009601281B390B4A0B5B0BDA01C901883ECE
:103EB0009340A105B105B0F09090A402C353DF4F29
:103EC0009882CD5CD040911012C080917502909183
:103ED0007602892B29F460E08AE090E00E94EF09E5
:103EE0000093A402C353DF4FB882CD5CD040B090A2
:103EF0002902BB2009F449C0C253DF4FA880CE5C21
:103F0000D040A11012C08091470290914802092E22
:103F1000000CAA0BBB0BC816D906EA06FB06A8F1D3
:103F200061E085E090E00E94EF0980914702909166
:103F30004802092E000CAA0BBB0BA7019601281BF7
:103F4000390B4A0B5B0BDA01C901883E9340A1058E
:103F5000B105B0F08090A302C253DF4F8882CE5CDF
:103F6000D040811012C08091750290917602892B09
:103F700029F460E085E090E00E94EF090093A3023D
:103F8000C253DF4FB882CE5CD040B0902802BB2035
:103F900009F449C0C153DF4F9880CF5CD0409110E5
:103FA00012C080915F0290916002092E000CAA0B52
:103FB000BB0BC816D906EA06FB06A8F161E086E04D
:103FC00090E00E94EF0980915F0290916002092EBB
:103FD000000CAA0BBB0BA7019601281B390B4A0B3F
:103FE0005B0BDA01C901883E9340A105B105B0F031
:103FF000A090A202C153DF4FA882CF5CD040A11095
:1040000012C08091750290917602892B29F460E0AC
:1040100086E090E00E94EF090093A202C153DF4FB7
:10402000B882CF5CD04080914102909142020197CA
:1040300061F429EBC2162BE0D206E104F10428F06A
:10404000CA52DF4F1882C65DD040809084029090A3
:104050008502A0908602B090870280912402909100
:104060002502A0912602B091270288169906AA0679
:10407000BB060CF081C080917A0281117DC0CA52CA
:10408000DF4F3881C65DD040311176C08091180174
:1040900090911901A0911A01B0911B010197A109FA
:1040A000B1098093180190931901A0931A01B0935C
:1040B0001B01892B8A2B8B2B09F076C00E945B0198
:1040C000C252DF4F688379838A839B83CE5DD04061
:1040D0008092310290923202A0923302B092340266
:1040E0000E945B01AB01BC01C252DF4F8880998006
:1040F000AA80BB80CE5DD040481959096A097B0966
:104100008091220290912302092E000CAA0BBB0B76
:10411000481759076A077B0708F4DEC050E1A52E4F
:1041200051E0B52ED5018D909D905D0161E0C401F7
:104130000E94EF09C4010E94C401B8E1AB16B1E0CE
:10414000BB0681F700937A020E945B0180907F0298
:1041500090908002A0908102B09082026819790943
:104160008A099B0948EC50E00E940612C952DF4FB1
:104170001882C75DD0401FC0809224029092250211
:10418000A0922602B092270280914B0290914C029D
:10419000092E000CAA0BBB0B8093180190931901F8
:1041A000A0931A01B0931B01C952DF4F8880C75DED
:1041B000D040811095CF409084025090850260904D
:1041C00086027090870280911E0290911F02A0913A
:1041D0002002B0912102481659066A067B0608F0B3
:1041E00086C080917A02882309F481C08091790287
:1041F00081116CC240E1A42E41E0B42E8091750281
:1042000090917602892B31F460E0D5018D919C91DB
:104210000E94EF09B2E0AB0EB11CE8E1F1E0EA1553
:10422000FB0561F70E945B01CF52DF4F6883798302
:104230008A839B83C15DD04040922D0250922E0212
:1042400060922F02709230020E945B01AB01BC01B0
:10425000CF52DF4F88809980AA80BB80C15DD0405B
:10426000481959096A097B0980911C0290911D0225
:10427000092E000CAA0BBB0B481759076A077B07CE
:1042800008F421C138E0A32E31E0B32E61E0D5015E
:104290008D919D915D010E94EF09B0E1AB16B1E0F7
:1042A000BB06A1F7009379020E945B0180907F0218
:1042B00090908002A0908102B090820268197909E2
:1042C0008A099B0948EC50E00E940612C053DF4F58
:1042D0001882C05DD04012C0C553DF4F8880CB5CD0
:1042E000D040C952DF4F8882C75DD04064CFC053F1
:1042F000DF4F8880C05DD0408110A6CF80917902C9
:10430000882309F44AC00E945B0180901C029090AF
:104310001D02092C000CAA08BB08681979098A0932
:104320009B09CF52DF4F88809980AA80BB80C15DF6
:10433000D040681979098A099B09683E7340810554
:10434000910558F1C753DF4F8880C95CD040811078
:10435000C5C028E0A22E21E0B22ED5018D909D90FF
:104360005D018091750290917602892B21F460E0C5
:10437000C4010E94EF09C4010E94C401B0E1AB1660
:10438000B1E0BB0651F7C553DF4F8880CB5CD0400E
:10439000C753DF4F8882C95CD040CB52DF4FA88023
:1043A000C55DD040AA2009F447C00E945B01AB0163
:1043B000BC01CF52DF4F88809980AA80BB80C15D4D
:1043C000D040481959096A097B0980911C029091D3
:1043D0001D02092E000CAA0BBB0B481759076A07D0
:1043E0007B0708F486C090E0A92E91E0B92E61E029
:1043F000D5018D919D915D010E94EF09E8E0F1E00A
:10440000EA15FB05A1F700932C020E945B01809046
:104410007F0290908002A0908102B0908202681981
:1044200079098A099B0948EC50E00E940612CB5298
:10443000DF4F1882C55DD04070902C02772009F4C0
:1044400063C00E945B0180901A0290901B02092CAD
:10445000000CAA08BB08681979098A099B09683EFB
:1044600073408105910508F44FC0C653DF4F888023
:10447000CA5CD04081101AC080E0A82E81E0B82E1E
:10448000D5018D909D905D0180917502909176028D
:10449000892B21F460E0C4010E94EF09C4010E944D
:1044A000C401B8E0AB16B1E0BB0651F7C753DF4F0C
:1044B0008880C95CD040811035C0C653DF4F7882F8
:1044C000CA5CD04049C0C553DF4F8880CB5CD04028
:1044D000C053DF4F8882C05DD04010CFC553DF4F3F
:1044E0009880CB5CD040C753DF4F9882C95CD040E6
:1044F00054CFC553DF4F8880CB5CD040CB52DF4FC9
:104500008882C55DD04098CFC753DF4F8880C95C93
:10451000D040882009F1C653DF4F9880CA5CD04054
:104520009920D1F0109283020E945B0180907F025B
:1045300090908002A0908102B0908202681979095F
:104540008A099B0944EF51E00E94061221E0C653FC
:10455000DF4F2883CA5CD0408091A502882309F4EC
:104560008FCB8091A402882309F48ACB8091A30287
:10457000882309F485CBB090A202BB2009F480CB3C
:10458000C753DF4F8880C95CD040882009F478CBBE
:10459000C653DF4F9880CA5CD040992009F46BCB9A
:1045A0000E945B0140907F025090800260908102E7
:1045B00070908202641975098609970944EF51E0E9
:1045C0000E940612C653DF4FB882CA5CD040C75360
:1045D000DF4FB882C95CD040C352DF4FB882CD5D97
:1045E000D0404ECB71013FEFE31AF30AE1E0F0E077
:1045F000EC0FFD1FE20DF31D108210927A02109253
:104600007902109283021092A5021092A4021092D5
:10461000A3021092A202CE0101960E94CE0C1701B5
:10462000DBC90E94B925A70196010E9445260E9478
:1046300081250E94760CFEC90E94B925A70196012A
:104640000E9445260E9481250E94760C16CA83E1AD
:1046500093E00E943F02892B09F43DC983E193E076
:104660000E941D02182F8B3369F08A3081F3E1E03C
:10467000F0E0EC0FFD1FE20DF31D8083C1010196F8
:104680001C01E5CFE1E0F0E0EC0FFD1FE20DF31DB2
:104690001082D10111961D011EC9CE0101960E9402
:1046A000CE0C80E090E0892B09F411C90E944B02E6
:1046B000882309F40CC90E94000009C9019709F078
:1046C000B5C888EC90E0A0E0B0E0A8C8C053DF4FC8
:1046D0009880C05DD0409110B7CD15CEFC018827E1
:1046E0009927E89421912032E9F3293010F02E30F7
:1046F000C8F32B3241F02D3239F4689404C00E9483
:10470000EF23820F911D219120532A30C0F31EF414
:10471000909581959F4F08951F93FC0199278827B5
:10472000BC01E89411911032E9F3193010F01E30F9
:10473000C8F31B3251F01D3249F4689406C00E9440
:10474000DA23610F711D811D911D119110531A30D3
:10475000B0F33EF490958095709561957F4F8F4FA3
:104760009F4F1F910895FA01A191B081009719F40C
:104770001097E1F0CD01DC01CD010D90002011F486
:10478000C00113C0FB012191222319F02015D9F794
:10479000F3CFFB012191201519F41E92119606C04A
:1047A0002223C1F70D900020A1F7D001FA01A193B7
:1047B000B0830895592F482F372F262F660F771F64
:1047C000881F991F660F771F881F991F620F731F1D
:1047D000841F951F660F771F881F991F08957AE021
:1047E000979F902D879F802D910D11240895BB27B1
:1047F000FA01A62F6217710581059105330B30FB75
:1048000066F0AA27660F771F881F991FAA1FA21795
:1048100010F0A21B63953850A9F7A05DAA3308F0E9
:10482000A95DA19336F7B111B1931082CA010C941E
:104830001924DC01FC01672F71917723E1F732978E
:1048400004C07C916D9370836291AE17BF07C8F36B
:104850000895F999FECF92BD81BDF89A992780B548
:104860000895262FF999FECF1FBA92BD81BD20BDB4
:104870000FB6F894FA9AF99A0FBE01960895052E8C
:1048800097FB1EF400940E94562457FD07D00E9407
:10489000712407FC03D04EF40C9456245095409597
:1048A000309521953F4F4F4F5F4F089590958095DC
:1048B000709561957F4F8F4F9F4F08950E9493246D
:1048C000A59F900DB49F900DA49F800D911D112464
:1048D0000895B7FF0C945E240E945E24821B930B04
:1048E0000895A1E21A2EAA1BBB1BFD010DC0AA1F31
:1048F000BB1FEE1FFF1FA217B307E407F50720F049
:10490000A21BB30BE40BF50B661F771F881F991FC3
:104910001A9469F760957095809590959B01AC010C
:10492000BD01CF010895A29FB001B39FC001A39F15
:10493000700D811D1124911DB29F700D811D1124D8
:10494000911D08955058BB27AA270E94BA240C94A1
:104950000B260E94FD2538F00E94042620F039F431
:104960009F3F19F426F40C94FA250EF4E095E7FB2A
:104970000C94F425E92F0E941C2658F3BA176207FD
:1049800073078407950720F079F4A6F50C943E266A
:104990000EF4E0950B2EBA2FA02D0B01B90190015A
:1049A0000C01CA01A0011124FF27591B99F0593F9E
:1049B00050F4503E68F11A16F040A22F232F342FE6
:1049C0004427585FF3CF469537952795A795F04034
:1049D0005395C9F77EF41F16BA0B620B730B840B49
:1049E000BAF09150A1F0FF0FBB1F661F771F881F01
:1049F000C2F70EC0BA0F621F731F841F48F4879559
:104A000077956795B795F7959E3F08F0B0CF93954A
:104A1000880F08F09927EE0F9795879508950E94C3
:104A200023250C940B260E94042658F00E94FD2595
:104A300040F029F45F3F29F00C94F42551110C94B7
:104A40003F260C94FA250E941C2668F39923B1F3A3
:104A5000552391F3951B550BBB27AA2762177307A4
:104A6000840738F09F5F5F4F220F331F441FAA1F38
:104A7000A9F335D00E2E3AF0E0E832D091505040F4
:104A8000E695001CCAF72BD0FE2F29D0660F771FA2
:104A9000881FBB1F261737074807AB07B0E809F088
:104AA000BB0B802DBF01FF2793585F4F3AF09E3F0D
:104AB000510578F00C94F4250C943F265F3FE4F305
:104AC000983ED4F3869577956795B795F7959F5F50
:104AD000C9F7880F911D9695879597F90895E1E09C
:104AE000660F771F881FBB1F621773078407BA07FB
:104AF00020F0621B730B840BBA0BEE1F88F7E09556
:104B000008950E9488256894B1110C943F26089559
:104B10000E94242688F09F5798F0B92F9927B75103
:104B2000B0F0E1F0660F771F881F991F1AF0BA9551
:104B3000C9F714C0B13091F00E943E26B1E008954B
:104B40000C943E26672F782F8827B85F39F0B93F3D
:104B5000CCF3869577956795B395D9F73EF4909504
:104B60008095709561957F4F8F4F9F4F0895E89482
:104B700009C097FB3EF490958095709561957F4FA5
:104B80008F4F9F4F9923A9F0F92F96E9BB27939553
:104B9000F695879577956795B795F111F8CFFAF463
:104BA000BB0F11F460FF1BC06F5F7F4F8F4F9F4F94
:104BB00016C0882311F096E911C0772321F09EE8F2
:104BC000872F762F05C0662371F096E8862F70E058
:104BD00060E02AF09A95660F771F881FDAF7880F32
:104BE0009695879597F9089597F99F6780E870E003
:104BF00060E008959FEF80EC089500240A94161653
:104C0000170618060906089500240A9412161306BA
:104C1000140605060895092E0394000C11F4882348
:104C200052F0BB0F40F4BF2B11F460FF04C06F5F64
:104C30007F4F8F4F9F4F089557FD9058440F551F3A
:104C400059F05F3F71F04795880F97FB991F61F00E
:104C50009F3F79F087950895121613061406551F85
:104C6000F2CF4695F1DF08C0161617061806991FF1
:104C7000F1CF86957105610508940895E894BB27E6
:104C800066277727CB0197F908950E9458260C9440
:104C90000B260E94FD2538F00E94042620F0952363
:104CA00011F00C94F4250C94FA2511240C943F2651
:104CB0000E941C2670F3959FC1F3950F50E0551F7D
:104CC000629FF001729FBB27F00DB11D639FAA2761
:104CD000F00DB11DAA1F649F6627B00DA11D661FB0
:104CE000829F2227B00DA11D621F739FB00DA11DD1
:104CF000621F839FA00D611D221F749F3327A00D8B
:104D0000611D231F849F600D211D822F762F6A2F26
:104D100011249F5750409AF0F1F088234AF0EE0F8B
:104D2000FF1FBB1F661F771F881F91505040A9F7B8
:104D30009E3F510580F00C94F4250C943F265F3F74
:104D4000E4F3983ED4F3869577956795B795F795F4
:104D5000E7959F5FC1F7FE2B880F911D969587956C
:104D600097F90895FA01EE0FFF1F309621053105DE
:104D7000A1F16115710561F48038BFE39B0749F12A
:104D800068949038810561F08038BFEF9B0741F04F
:104D900099234AF5FF3FE1053105210519F1E89412
:104DA0000894E795D901AA2329F4AB2FBE2FF85F09
:104DB000D0F310C0FF5F70F4A695E0F7F73950F01C
:104DC00019F0FF3A38F49F779F930DD00F9007FCAE
:104DD0009058089546F00C94FA2560E070E080E861
:104DE0009FE308954FE79F775F934F933F932F93F0
:104DF0000E94AD272F913F914F915F910E944526D0
:104E00000C940A2729F416F00C94F4250C943E26F1
:104E10000C94FA250E942426A8F39638A0F707F8E8
:104E20000F92E8942BE33AEA48EB5FE70E945B2697
:104E30000F920F920F924DB75EB70F920E94F52717
:104E4000E8E6F0E00E943C274F915F91EF91FF91DF
:104E5000E595EE1FFF1F49F0FE57E0684427EE0F6F
:104E6000441FFA95E1F74195550B0E946F270F906B
:104E700007FE0C9463270895DF93CF931F930F933E
:104E8000FF92EF92DF927B018C01689406C0DA2ECC
:104E9000EF010E945826FE01E894A59125913591D5
:104EA00045915591A6F3EF010E94BA24FE019701A6
:104EB000A801DA9469F7DF90EF90FF900F911F91AE
:104EC000CF91DF9108959B01AC0160E070E080E834
:104ED0009FE30C940F250C94F4250C9429280E9430
:104EE0002426D8F39923C9F3940F511DA3F39150AD
:104EF000504094F059F0882332F0660F771F881FD6
:104F000091505040C1F79E3F51052CF7880F911DDD
:104F10009695879597F908955F3FACF0983E9CF081
:104F2000BB27869577956795B79508F4B1609395FB
:104F3000C1F7BB0F58F711F460FFE8CF6F5F7F4FE9
:104F40008F4F9F4FE3CF0C943F2616F00C942928E7
:104F50000C94FA2568940C94F4250E942426A8F356
:104F60009923C1F3AEF3DF93CF931F930F93FF9277
:104F7000C92FDD2788232AF02197660F771F881F06
:104F8000DAF720E030E040E85FEB9FE3883920F07B
:104F9000803E38F021968F770E94A324E0E9F0E06C
:104FA00004C00E94A324EDEBF0E00E943C278B019B
:104FB000BE01EC01FB2E6F5771097595771F880BA9
:104FC000990B0E94B92528E132E741E35FE30E9493
:104FD0005826AF2D9801AE01FF900F911F91CF91F0
:104FE000DF910E94BA240C940B26FA01DC01AA0F6F
:104FF000BB1F9B01AC01BF5728F42227332744274E
:10500000507820C0B75190F4AB2F002446953795C7
:105010002795011CA395D2F3002071F0220F331FB6
:10502000441FB395DAF30ED00C94A22461307105BD
:10503000A0E88A07B94630F49B01AC0166277727C0
:1050400088279078309621F02083318342835383E0
:1050500008959F3F31F0915020F48795779567959B
:10506000B795880F911D9695879597F90895DB015F
:105070008F939F930E945E24BF91AF91A29F800D5A
:10508000911DA39F900DB29F900D11240895991B1F
:1050900079E004C0991F961708F0961B881F7A952F
:1050A000C9F780950895EE0FFF1F0590F491E02D4C
:1050B0000994FB01DC010D900020E9F711970190A4
:1050C0000D920020E1F70895AEE0B0E0EAE6F8E2E4
:1050D0000C94132B0D891E8986E08C831A83098317
:1050E0008FEF9FE79E838D83AE01475E5F4F6F8991
:1050F000788DCE0101960E9487282F813885020F76
:10510000131FF80110822E96E4E00C942F2BABE0D5
:10511000B0E0EDE8F8E20C94052B7C013B018A013C
:10512000FC0117821682838181FFC8C1CE010196DE
:105130005C01F7019381F30193FD859193FF8191C8
:105140003F01882309F453C1853239F493FD8591D9
:1051500093FF81913F01853229F4B70190E00E94CD
:10516000772AE7CF912C212C312CFFE1F31538F071
:105170008B3211F190F4803209F1833229F137FC3E
:105180003CC020ED280F2A3050F536FE20C08AE0C2
:10519000989E200D1124922E06C08D3291F08033FE
:1051A00071F7689430F8F30193FD859193FF819135
:1051B0003F018111DACF21C0689431F8689432F848
:1051C000F2CF689433F8EFCF689434F8ECCFEAE08C
:1051D0002E9E200D1124222E689435F8E4CF8E32B5
:1051E00029F436FC04C1689436F8DDCF8C3619F406
:1051F000689437F8D8CF8836B1F2982F9F7D9554B0
:105200009330E0F08336A1F18337C1F1833509F0A3
:1052100063C02801F2E04F0E511CF801C080D1801C
:10522000692D70E036FC02C06FEF7FEFC6010E946F
:10523000612A4C01689437F882010AC00C5F1F4F45
:10524000FFE3F98388248394912C6501E89437F86F
:1052500033FE2DC0522C8114910471F5552009F4B0
:1052600068CFB70180E290E00E94772A5A94F6CF87
:10527000F801808189830E5F1F4FE4CF2801F2E09F
:105280004F0E511CF801C080D180692D70E036FCB2
:1052900002C06FEF7FEFC6010E946C2A4C018201B1
:1052A000D5CFB70180E290E00E94772A2A94281493
:1052B000190409F0B0F7CECFF60137FC859137FE1F
:1052C00081916F01B70190E00E94772A51105A94A2
:1052D000F1E08F1A9108BFCF843619F0893609F0B2
:1052E00077C0F80137FE6BC0608171818281938144
:1052F0000C5F1F4FF32DFF763F2E97FF09C090954F
:105300008095709561957F4F8F4F9F4F689437F8C8
:105310002AE030E0A5010E94A72AC82ECA188C2CCA
:10532000432C36FE0CC0E89440F8C91440F434FE17
:1053300005C032FC03C0F32DFE7E4F2E892C44FEA7
:1053400095C0FE01EC0DF11D8081803309F087C00E
:10535000242D297E422E842D8870582E43FC95C022
:1053600040FE8FC09C2C821418F42C0C922C9818A0
:1053700044FE91C0B70180E390E00E94772A42FE8C
:1053800009C088E790E041FE02C088E590E0B701DF
:105390000E94772AC91408F48AC0CA94D12C9FEFBE
:1053A000C91AD90ACA0CDB1CF60182916F01B70138
:1053B00090E00E94772AAC14BD04B1F74FCF608112
:1053C0007181072E000C880B990B0E5F1F4F92CF37
:1053D000D32CE894D4F82AE030E0853739F1232D36
:1053E000297FD22E8F3601F148F48835A9F0F701D4
:1053F000868197812B96E2E10C94212B803749F02E
:105400008837A9F7D4FE02C06894D2F820E130E0D2
:105410000DC06894D4F8F6CF34FE03C0822F8660A6
:10542000D82E20E132E002C028E030E0F801D7FEBB
:105430000FC060817181828193810C5F1F4FA50134
:105440000E94A72AC82ECA183D2CE89437F867CFC7
:105450006081718190E080E00E5F1F4FF0CF42FCD1
:1054600002C0839478CF8394839475CF842D8678FB
:1054700009F471CFF6CFB70180E290E00E94772A5D
:1054800083948214C0F3512C73CF522C5818821479
:1054900008F46ECFF8CF842D867809F47BCF8BE2A9
:1054A00041FE80E247FC8DE2B70190E071CFB70189
:1054B00080E390E00E94772A9A946CCF8FEF9FEF61
:1054C00099CFFC010590615070400110D8F780958C
:1054D00090958E0F9F1F0895FC01615070400190C0
:1054E0000110D8F7809590958E0F9F1F08950F9308
:1054F0001F93CF93DF93182F092FEB018B8181FD31
:1055000009C01FEF0FEF812F902FDF91CF911F91D7
:105510000F91089582FF14C02E813F818C819D815F
:10552000281739073CF4E881F981CF010196998366
:10553000888310838E819F8101969F838E83E3CF22
:10554000E885F985812F0995892BA1F3DACFFA0136
:10555000AA27283051F1203181F1E8946F936E7FB2
:105560006E5F7F4F8F4F9F4FAF4FB1E03ED0B4E0A3
:105570003CD0670F781F891F9A1FA11D680F791FE4
:105580008A1F911DA11D6A0F711D811D911DA11DF5
:1055900020D009F468943F912AE0269F1124301905
:1055A000305D3193DEF6CF010895462F4770405DA0
:1055B0004193B3E00FD0C9F7F6CF462F4F70405D4F
:1055C0004A3318F0495D31FD4052419302D0A9F7AA
:1055D000EACFB4E0A6959795879577956795BA95A4
:1055E000C9F700976105710508959B01AC010A2E6A
:1055F00006945795479537952795BA95C9F7620F41
:10560000731F841F951FA01D08952F923F924F92E4
:105610005F926F927F928F929F92AF92BF92CF9242
:10562000DF92EF92FF920F931F93CF93DF93CDB74B
:10563000DEB7CA1BDB0B0FB6F894DEBF0FBECDBFC3
:1056400009942A88398848885F846E847D848C8494
:105650009B84AA84B984C884DF80EE80FD800C819D
:105660001B81AA81B981CE0FD11D0FB6F894DEBF80
:0C5670000FBECDBFED010895F894FFCFF0
:10567C00FFFFFFFFFFFFFFFFFFFFFFFFFFFFFFFF2E
:10568C00FFFFFFFFFFFFFFFF05000000010101010D
:10569C000000803FFF000000008102E1010E02E9E2
:1056AC00023F021D023102000000004D0720079549
:1056BC0007F60619070607F7060D0A00616C7469F0
:1056CC00636F6E6669672C0025692C00416C7469E8
:1056DC00536572766F00256C642C0025693B0A00BB
:1056EC00240074656C656D657472792C002D312CF9
:1056FC00002569004C616E64696E672021212100D0
:00000001FF
