:100000000C945E010C9486010C9486010C9486017C
:100010000C9486010C9486010C9486010C94541463
:100020000C9486010C9486010C9486010C94860134
:100030000C9486010C9486010C9486010C94860124
:100040000C9408150C9486010C94D6140C94B014DE
:100050000C9486010C9486010C9486010C94860104
:100060000C9452150C94860107634236B79BD8A7AF
:100070001A39685618AEBAAB558C1D3CB7CC5763CD
:10008000BD6DEDFD753EF6177231BF000000803F7B
:1000900008000000BE922449123EABAAAA2ABECD97
:1000A000CCCC4C3E00000080BEABAAAAAA3E000009
:1000B0000000BF000000803F000000000008417801
:1000C000D3BB4387D1133D190E3CC3BD4282AD2B38
:1000D0003E68EC8276BED98FE1A93E4C80EFFFBE30
:1000E00001C4FF7F3F0000000000696E76616C690B
:1000F0006420636F6E660024554E4B4E4F574E3B47
:1001000000244B303B0A00244F4B3B0A0054656CE3
:10011000656D657472792064697361626C65640AE7
:100120000054656C656D6574727920656E61626CF2
:1001300065640A00244F4B3B0A004E6F7420696DC2
:10014000706C656D656E746564200A00636F6E6621
:10015000696720726573657465640A00244F4B3BC0
:100160000A004E6F7420696D706C656D656E746504
:100170006400244F4B3B0A004E6F7420696D706C15
:10018000656D656E74656400244F4B3B0A00244B1B
:100190004F3B0A00244F4B3B0A0024656E643B0A28
:1001A000002473746172743B0A00244F4B3B0A00B5
:1001B0004E6F7420696D706C656D656E7465640A50
:1001C00000244F4B3B0A00244F4B3B0A004E6F74F8
:1001D00020696D706C656D656E7465640A00244FEE
:1001E0004B3B0A00244F4B3B0A00244F4B3B0A0079
:1001F000244F4B3B0A004E6F7420696D706C656D27
:10020000656E74656400436F6E74696E75697479A8
:10021000206F6E200A00436F6E74696E7569747981
:10022000206F6666200A0024656E643B0A00247312
:10023000746172743B0A00244F4B3B0A004E6F748A
:1002400020696D706C656D656E7465640A000000F0
:100250000000240027002A000000000023002600E0
:10026000290000000008000201000003040700004C
:1002700000000000000053746172742070726F6798
:1002800072616D0A002C00010204081020408001F8
:1002900002040810200102040810200000000025BC
:1002A0000028002B000404040404040404020202D5
:1002B00002020203030303030302711611241FBE8B
:1002C000CFEFD8E0DEBFCDBF11E0A0E0B1E0E6E7C0
:1002D000F6E502C005900D92AE39B107D9F723E0DB
:1002E000AEE9B1E001C01D92A43CB207E1F711E014
:1002F000CEE5D1E004C02197FE010E941A28CD3539
:10030000D107C9F70E94AA160C94392B0C9400004F
:100310002091030381E0213208F044C08091DF0284
:100320008111FCCF8091020392E09093DF0291E073
:100330009093DE029FEF9093DD021092DC022093F7
:10034000DB02A2EEB2E0EBEBF2E090E0291331C069
:100350001092BA029091BA02880F892B8093BA0248
:100360008091B902813049F51092B9028091BA02A8
:100370008093BB008091BC0083FDF8CF85EC809317
:10038000BC008091DF028230E1F38091DD028F3F7B
:10039000B1F08091DD028032A1F08091DD028033E6
:1003A00091F084E01092E102109203031092E002B7
:1003B00008953D9131939F5FC9CF85EEE0CF80E0F6
:1003C000F1CF82E0EFCF83E0EDCF0895089589303B
:1003D000910521F481E08093810208950D9719F42D
:1003E00081E0809380020895AF92BF92CF92DF9216
:1003F000EF92FF920F931F93CF93DF936C017B01DA
:100400008B01040F151FEB015E01AE18BF08C0176A
:10041000D10759F06991D601ED91FC910190F081DD
:10042000E02DC6010995892B79F7C501DF91CF91A0
:100430001F910F91FF90EF90DF90CF90BF90AF9002
:100440000895FC01538D448D252F30E0842F90E0DA
:10045000821B930B541710F0CF96089501970895BF
:10046000FC01918D828D981761F0A28DAE0FBF2F88
:10047000B11D5D968C91928D9F5F9F73928F90E0DE
:1004800008958FEF9FEF0895FC01918D828D98174D
:1004900031F0828DE80FF11D858D90E008958FEF8A
:1004A0009FEF0895FC01918D228D892F90E0805C53
:1004B0009F4F821B91098F739927089584E093E0E1
:1004C0000E94520221E0892B09F420E0822F089536
:1004D00080E090E0892B29F00E945E0281110C944B
:1004E00000000895FC01A48DA80FB92FB11DA35AD7
:1004F000BF4F2C91848D90E001968F739927848F44
:10050000A689B7892C93A089B1898C918370806466
:100510008C93938D848D981306C00288F389E02D07
:1005200080818F7D80830895EF92FF920F931F93B8
:10053000CF93DF93EC0181E0888F9B8D8C8D981396
:100540001AC0E889F989808185FF15C09FB7F894A2
:10055000EE89FF896083E889F989808183708064EE
:1005600080839FBF81E090E0DF91CF911F910F9139
:10057000FF90EF900895F62E0B8D10E00F5F1F4F48
:100580000F731127E02E8C8D8E110CC00FB607FC57
:10059000FACFE889F989808185FFF5CFCE010E94E5
:1005A0007202F1CFEB8DEC0FFD2FF11DE35AFF4FDF
:1005B000F0829FB7F8940B8FEA89FB898081806273
:1005C000CFCF0F931F93CF93DF938C01D0E0C0E088
:1005D000F801EC0FFD1F6491662341F084E093E085
:1005E0000E949402892B11F02196F2CFCE01DF9167
:1005F000CF911F910F910895CF93DF93EC01888DD8
:100600008823B9F0AA89BB89E889F9898C9185FD8D
:1006100003C0808186FD0DC00FB607FCF7CF8C911B
:1006200085FFF2CF808185FFEDCFCE010E9472025F
:10063000E9CFDF91CF910895833081F028F48130A4
:1006400099F08230A9F008958730A9F08830C9F078
:100650008430B1F4809180008F7D03C08091800050
:100660008F7780938000089584B58F7784BD089537
:1006700084B58F7DFBCF8091B0008F778093B000E1
:1006800008958091B0008F7DF9CFCF93DF93282F0D
:1006900030E0F901EE59FD4F8491F901E957FD4F22
:1006A000D491F901EB55FD4FC491CC23A1F08111F8
:1006B0000E941C03EC2FF0E0EE0FFF1FE85AFD4FE5
:1006C000A591B491EC91ED2381E090E009F480E0F4
:1006D000DF91CF91089580E090E0FACF1F93CF9300
:1006E000DF93282F30E0F901EE59FD4F8491F90195
:1006F000E957FD4FD491F901EB55FD4FC491CC233F
:10070000A9F0162F81110E941C03EC2FF0E0EE0FD0
:10071000FF1FE556FD4FA591B4918FB7F894EC916A
:10072000111108C0D095DE23DC938FBFDF91CF91EC
:100730001F910895DE2BF8CF109298021092970225
:100740001092E102109203031092DF0281E0809385
:10075000DE021092B90261E082E10E946E0361E064
:1007600083E10E946E03E9EBF0E080818E7F80835D
:1007700080818D7F808388E48093B80085E48093B6
:10078000BC0085EE91E0909385028093840286EE12
:1007900091E09093830280938202089590910C01DE
:1007A00089130BC0E9EBF2E0E4919FEF90930C0109
:1007B000E13049F028F0E23061F060E00C946E0323
:1007C00010926E00FACF90916F009D7F90936F0012
:1007D000F4CF909170009D7F9093700091E0909382
:1007E000B0009091B100987F94609093B100109206
:1007F000B300E3CFCF93DF9390E0FC01E957FD4FC7
:1008000024918B559D4FFC0184918823C9F090E081
:10081000880F991FFC01E25BFD4FA591B491FC018B
:10082000E556FD4FC591D49161110DC09FB7F89465
:100830008C91209582238C938881282328839FBFC5
:10084000DF91CF910895623051F49FB7F8943C91B5
:10085000822F809583238C93E8812E2BEFCF8FB747
:10086000F894EC912E2B2C938FBFEACF4F925F928E
:100870006F927F928F929F92AF92BF92CF92DF92B0
:10088000EF92FF920F931F93CF93DF9300D000D08E
:100890001F92CDB7DEB78C012A013B0180910C017C
:1008A0008C30C9F08F3F09F47FC00F900F900F90EC
:1008B0000F900F90DF91CF911F910F91FF90EF90CC
:1008C000DF90CF90BF90AF909F908F907F906F9070
:1008D0005F904F900895E9EBF2E084918D8387FD5E
:1008E000E4CF61E08CE00E94FA038D81882321F03F
:1008F0009D81923009F05CC14801B12CA12C60E0CF
:1009000072E18AE790E0A50198010E94FB27298304
:100910003A834B835C8369017A0181E0C81AD1086C
:10092000E108F1089FEFC916D104E104F10409F0D0
:100930000CF413C160E472E48FE090E0A50198012B
:100940000E94FB2769017A0181E0C81AD108E108F9
:10095000F1089D81923009F098C08FEFC816D1043C
:10096000E104F10409F00CF4DDC160E970ED83E00D
:1009700090E0A50198010E94FB2769017A0191E0AE
:10098000C91AD108E108F1088FEFC816D104E104B3
:10099000F10411F00CF0A3C183E09091B100987FB5
:1009A000892B8093B100E1C08CE080930C01E9EBCE
:1009B000F2E094919D839F3F09F477CF913029F124
:1009C00058F0923009F43FC08D8187FD6ECF61E011
:1009D0008CE00E94FA038CCF14BC15BC84B58260F5
:1009E00084BD85B5816085BDE1EBF2E0E491F0E086
:1009F000EE0FFF1FE556FD4F85919491E3E9F2E07C
:100A0000E491E0938A021D826CCF109280001092D4
:100A100081008091810088608093810080918100B5
:100A2000816080938100E1EBF2E0E491F0E0EE0F71
:100A3000FF1FE556FD4F85919491E3E9F2E0E491C3
:100A4000E09389024ECF1092B0001092B1008091D5
:100A5000B00082608093B0008091B100816080938B
:100A6000B100E1EBF2E0E491F0E0EE0FFF1FE5569C
:100A7000FD4F859194919093880280938702E3E9DA
:100A8000F2E0E491E09386022CCF9FEFC916D104E7
:100A9000E104F10409F00CF489C068E478EE81E027
:100AA00090E0A50198010E94FB2769017A0181E08D
:100AB000C81AD108E108F1089D81992309F428C1D9
:100AC0009FEFC916D104E104F10409F00CF41EC132
:100AD00062E17AE780E090E0A50194010E94FB27A3
:100AE00069017A0181E0C81AD108E108F1089D8105
:100AF000992309F4EBC08FEFC816D104E104F10487
:100B000011F008F0BFC086E048CF64E274EF80E0E7
:100B100090E0A50194010E94FB2769017A0181E020
:100B2000C81AD108E108F10885E09FEFC916D10481
:100B3000E104F10409F008F430CF62E17AE780E0E3
:100B400090E0A50194010E94FB2769017A0191E0E0
:100B5000C91AD108E108F108CECF81E09D81911139
:100B60001CCF95B5987F892B85BD2FEF3FEFA9014D
:100B7000411451046104710409F043C09D81913016
:100B800009F45EC0923009F46DC091118ECEC7BCDD
:100B900020939302309394024093950250939602CF
:100BA00080916E00826080936E007FCE82E0D6CF0F
:100BB000B12CA12C60E072E18AE790E0A5019801D8
:100BC0000E94FB2769017A0181E0C81AD108E10877
:100BD000F108C114D10491E0E906F10404F591E0B3
:100BE0008D81813011F680918100887F892B8093DF
:100BF00081002FEF3FEFA9014114510461047104FA
:100C0000F9F0D801AA0FBB1FA30192010E9420286E
:100C100028EE33E040E050E00E94D927AFCF68E4EF
:100C200078EE81E090E0A50198010E94FB27690120
:100C30007A0181E0C81AD108E108F10893E0D0CF29
:100C4000D0928900C092880020938F023093900246
:100C5000409391025093920280916F008260809342
:100C60006F0023CEC092B30020938B0230938C028E
:100C700040938D0250938E02809170008260809329
:100C8000700013CEC980DA80EB80FC809AE0F59486
:100C9000E794D794C7949A95D1F791E0C91AD108EF
:100CA000E108F10887E079CEC980DA80EB80FC802A
:100CB0008AE0F594E794D794C7948A95D1F791E0A8
:100CC000C91AD108E108F10885E04BCF8FEFC816AB
:100CD000D104E104F10409F038F784E042CF68E47C
:100CE00078EE81E090E0A50198010E94FB27690160
:100CF0007A0191E0C91AD108E108F1088FEFC8160E
:100D0000D104E104F10411F00CF0FFCE84E045CEF3
:100D10008FEFC816D104E104F10411F00CF0D8CE25
:100D200083E01FCF82E039CE3FB7F8948091E6018F
:100D30009091E701A091E801B091E90126B5A89B47
:100D400005C02F3F19F00196A11DB11D3FBFBA2F5D
:100D5000A92F982F8827BC01CD01620F711D811D1D
:100D6000911D42E0660F771F881F991F4A95D1F7A2
:100D700008958F929F92AF92BF92CF92DF92EF929F
:100D8000FF924B015C010E9494066B017C010E9462
:100D900094066C197D098E099F09683E7340810590
:100DA0009105A8F321E0821A9108A108B10888EE04
:100DB000C80E83E0D81EE11CF11C81149104A1042B
:100DC000B10429F7FF90EF90DF90CF90BF90AF90E4
:100DD0009F908F9008952FB7F8946091E2017091E1
:100DE000E3018091E4019091E5012FBF089585ED25
:100DF0008093BC008091BC0084FDFCCF1092DF0288
:100E000008952091BE01260F3327331F213231056B
:100E1000ECF42091DF02FC0190E080E0243069F0E6
:100E200082E00895A091BE012191AC0142565E4F2F
:100E3000A40FB52FB11D2C930196861798F38091BE
:100E4000BE01680F6093BE0180E0089581E00895BF
:100E50000895E091980280919702E81730F4F0E04D
:100E6000E756FD4F808190E008958FEF9FEF089542
:100E700090919802809197022FEF3FEF981748F4D6
:100E8000E92FF0E0E756FD4F208130E09F5F90931F
:100E90009802C90108958091970290919802891B48
:100EA000990B0895CF92DF92EF92FF920F931F93C9
:100EB000CF93DF937C01CB018A012091E0022223B2
:100EC00089F0EB016B01C40ED51ECC15DD0569F070
:100ED0006991D701ED91FC910190F081E02DC7015E
:100EE0000995F3CF642F0E940107C801DF91CF91CC
:100EF0001F910F91FF90EF90DF90CF900895CF93C7
:100F0000DF931F92CDB7DEB769832091E0022223E1
:100F1000F9F020910303203258F021E030E0FC0189
:100F20003383228390E080E00F90DF91CF9108958A
:100F30008091E102E82FF0E0EE51FD4F998190831E
:100F40008F5F8093E1028093030381E090E0ECCF18
:100F500061E0CE0101960E940107F7CFCF93C82F21
:100F600081E08093E00287E7809302031092E10220
:100F70001092030364EF81EA93E00E947F076C2FD5
:100F800081EA93E00E947F07CF910C94880190E062
:100F900080E00895CF93DF93CDB7DEB7E2970FB629
:100FA000F894DEBF0FBECDBF10923B0210923A0202
:100FB00010923D0210923C0210923F0210923E02AB
:100FC00081E090E0909341028093400283E090E0C2
:100FD0009093430280934202109249021092480279
:100FE00010924B0210924A0210924D0210924C0243
:100FF00022E330E0309345022093440210924702EE
:101000001092460228EB31E030934F0220934E02BB
:1010100025E030E030935102209350029093530228
:10102000809352021092550210925402109257026D
:101030001092560240E056E960E070E0409358029A
:101040005093590260935A0270935B0210925D02B2
:1010500010925C0220E032E030935F0220935E0247
:101060001092610210926002909363028093620278
:1010700010926502109264028AE090E090936702F9
:1010800080936602109269021092680282E3EAE39A
:10109000F2E0DE01119601900D928A95E1F7FE01D2
:1010A0003196AE014F5C5F4F90E080E0E417F507AA
:1010B00031F02191820F911D27FD9A95F7CF9093E2
:1010C0006B0280936A02E2960FB6F894DEBF0FBE01
:1010D000CDBFDF91CF91089548EE53E060E070E01E
:1010E00080910702909108020E9436046CED75E031
:1010F00080E090E00E94B9068CE00C94CE03CF9380
:10110000DF93CAE0D0E048EE53E060E070E080E4B6
:1011100096E00E94360462E370E080E090E00E9476
:10112000B9068CE00E94CE03219769F768EE73E060
:1011300080E090E0DF91CF910C94B90649E150E056
:1011400060E070E080910702909108020E943604EE
:101150006CE271E080E090E00E94B9068CE00C94B3
:10116000CE03CF92DF92EF92FF920F931F93CF9314
:10117000DF936B017C0124E6C216D104E104F10483
:101180000CF446C024E630E040E050E00E94FB272B
:10119000890164E6629FC001639F900D1124092EAE
:1011A000000CAA0BBB0BA7019601281B390B4A0B9D
:1011B0005B0BCA01B9012AE030E040E050E00E9438
:1011C000FB27E901EE24E394F12C1016110644F1FB
:1011D0001C161D067CF401E010E00E949E0862E3EC
:1011E00070E080E090E00E94B9060F5F1F4FC017CB
:1011F000D1079CF768E873E180E090E0DF91CF9140
:101200001F910F91FF90EF90DF90CF900C94B90653
:101210002AE030E040E050E00E94FB27E901D8CF0F
:101220000E946C0862E370E080E090E00E94B906E2
:101230003FEFE31AF30A0E151F0594F7C9CF10927A
:101240002902109279021092780210922C021092C8
:101250002B0210922A021092280210927A02109207
:101260007002109271021092720210927302109228
:101270006C0210926D0210926E0210926F02109228
:101280008102109280021092240210922502109284
:1012900026021092270208959091DF029111FCCF4F
:1012A000282F91E09093DF029093DE023FEF30937E
:1012B000DD021092DC02380F3093DB029093BA0209
:1012C0009091BA029E6E9093BA029091B9029130B9
:1012D00019F51092B9029091BA029093BB009091C7
:1012E000BC0093FDF8CF95EC9093BC009091DF0289
:1012F0009130E1F39091DC02981710F42091DC0218
:10130000ABEBB2E0E9E9F2E080E0821307C01092B3
:10131000980280939702089595EEE6CF9D91919360
:101320008F5FF3CFCF93C1E0C093E00297E7909334
:1013300002031092E10210920303682F81EA93E006
:101340000E947F070E948801C093E0021092E10290
:101350001092030381E090E00E944C0981EA93E03F
:101360000E943807C82F0E9488018C2FCF910895C2
:10137000CF93DF93C1E0C093E00297E7909302031D
:101380001092E10210920303682F81EA93E00E9419
:101390007F070E948801C093E0021092E102109240
:1013A000030382E090E00E944C0981EA93E00E94EE
:1013B0003807D82F80E0C82F81EA93E00E943807D1
:1013C000C82BD92B0E948801CE01DF91CF910895BF
:1013D000FC0101900020E9F73197AF01481B590B40
:1013E000BC0184E093E00C94F401CF93DF930E945E
:1013F000E102EC0185E391E00E94E8098C0F9D1F5A
:10140000DF91CF9108952F923F924F925F926F920A
:101410007F928F929F92AF92BF92CF92DF92EF9284
:10142000FF920F931F93CF93DF93CDB7DEB7C15ACF
:10143000D1090FB6F894DEBF0FBECDBF1A82198254
:10144000FE01339624E9DF011D922A95E9F78E010A
:1014500009561F4FF8011192119228E0DF011D92E9
:101460002A95E9F720917F02222309F438C1892EB9
:10147000982EA72EB62E0E94EB06C0907B02D0902D
:101480007C02E0907D02F0907E026C197D098E094D
:101490009F09693C71058105910508F420C10E94EE
:1014A000EB0660937B0270937C0280937D029093A5
:1014B0007E0260907A02B0917902CF55DF4FB883F7
:1014C000C15AD0402090740230907502409076024C
:1014D000509077028091780281111BC1712CC12C30
:1014E000D12C68E371E0CE0101960E9456285F92EC
:1014F0004F923F922F9283E4E82E81E0F82EFF92E4
:10150000EF921F930F930E946128B801CE010196BC
:101510000E9456281F926F92FF92EF921F930F9393
:101520000E946128B801CE0101960E9456281F92A0
:10153000CF55DF4F8881C15AD0408F93FF92EF92F1
:101540001F930F930E946128B801CE0101960E945B
:101550005628809173028F93809172028F938091AD
:1015600071028F93809170028F93FF92EF921F937D
:101570000F930E946128B801CE0101960E9456285F
:101580001F927F92FF92EF921F930F930E94612808
:101590000FB6F894DEBF0FBECDBFB801CE010196E5
:1015A0000E94562880916F028F9380916E028F93D4
:1015B00080916D028F9380916C028F93FF92EF92D6
:1015C0001F930F930E946128B801CE0101960E94DB
:1015D0005628DF92CF92FF92EF921F930F930E94B3
:1015E0006128B801CE0101960E9456288F929F92E1
:1015F000AF92BF92FF92EF921F930F930E946128C8
:10160000B801CE0101960E9456280FB6F894DEBFAD
:101610000FBECDBF80913E0290913F026AE471E01F
:10162000039749F08AE00E94450367E471E0892B43
:1016300011F06BE471E0CE0101960E94562885E816
:1016400092E00E94E10280913E0290913F026AE4A2
:1016500071E0039781F08BE00E9445037C0164E117
:1016600070E080E090E00E94B90667E471E0EF2846
:1016700011F06BE471E0CE0101960E945628FE0144
:10168000319690E080E02191820F911D27FD9A957F
:101690000E171F07C1F799279F938F938EE491E050
:1016A0009F938F931F930F930E946128B801CE01DF
:1016B00001960E9456286EE671E0CE0101960E94C6
:1016C000562881E591E00E94E809CE0101960E942A
:1016D000E8090F900F900F900F900F900F90CF553B
:1016E000DF4F0FB6F894DEBF0FBECDBFDF91CF91B5
:1016F0001F910F91FF90EF90DF90CF90BF90AF9030
:101700009F908F907F906F905F904F903F902F9021
:10171000089581E0D12C9AE0291631044104510446
:101720000CF080E0C82E77247394DBCE0F931F93C8
:10173000CF93DF930AE312E0C0E2D0E0F8016191B9
:101740008F01CE010E9412242196C235D105B1F736
:10175000DF91CF911F910F9108950E941F098091F1
:10176000580290915902A0915A02B0915B028C32BA
:1017700021E09207A105B10509F452C0803B24E0A5
:101780009207A105B10509F44BC0803629E0920704
:10179000A105B10509F444C0803C22E19207A105EE
:1017A000B105F1F1803825E29207A105B105C1F13B
:1017B000803428E39207A105B10591F181152BE44E
:1017C0009207A105B10561F1803820E79207A105D4
:1017D000B10531F1811526E99207A105B10501F1A5
:1017E000811521EE9207A105B105D1F0811522ECFA
:1017F000920721E0A207B10599F081159448A34012
:10180000B10571F080E096E9A0E0B0E08093580265
:1018100090935902A0935A02B0935B020E94960BD8
:1018200080913A0290913B02892B09F075C080E0CB
:1018300090E0A0E8BFE38093080190930901A09392
:101840000A01B0930B016091440270914502072E8A
:10185000000C880B990B0E943725209108013091CC
:10186000090140910A0150910B010E948D240E94B0
:10187000FF24072E000C880B990B609320027093B5
:101880002102809322029093230280914E02909134
:101890004F0290930802809307028091500290912A
:1018A0005102092E000CAA0BBB0B809304019093EC
:1018B0000501A0930601B09307018FEF9FEF90936E
:1018C00001018093000180913E0290913F020397B5
:1018D00051F010920101109200018AE090E0909383
:1018E0000E0280930D028091400290914102039775
:1018F00091F0809100019091010101969093010176
:1019000080930001880F991FFC01E35FFD4F8BE07E
:1019100090E091838083089588E499EFA1E5B0E495
:101920008ACFEF92FF920F931F93CF93DF93CDB7A0
:10193000DEB7E2970FB6F894DEBF0FBECDBF0E94B0
:10194000CA078AE3E82E82E0F82E00E210E0C80120
:101950000E940A24F70181937F010F5F1F4F023518
:101960001105A9F740916A0250916B0282E3EAE304
:10197000F2E0DE01119601900D928A95E1F7FE01E9
:101980003196BE016F5C7F4F30E020E0E617F7072D
:1019900031F08191280F311D87FD3A95F7CF81E015
:1019A0004217530709F080E0E2960FB6F894DEBFC5
:1019B0000FBECDBFDF91CF911F910F91FF90EF90A0
:1019C00008958F929F92AF92BF92CF92DF92FF9233
:1019D0000F931F93CF93DF9300D000D01F92CDB70A
:1019E000DEB72AE0AE014F5F5F4F6A010E94D82345
:1019F000F60101900020E9F73197FE2EFC1868EB04
:101A00007BE080E090E00E94B90656018A2D8C1997
:101A10008F15F0F468EE73E080E090E00E94B90664
:101A2000F50101915F01005309F40AE010E0912CE7
:101A3000812C0E949E08FFEF8F1A9F0A8016910644
:101A40002CF76AEF70E080E090E00E94B906F1CFD9
:101A50000F900F900F900F900F90DF91CF911F91EB
:101A60000F91FF90DF90CF90BF90AF909F908F909D
:101A700008954F925F926F927F92AF92BF92CF92F2
:101A8000DF92EF92FF920F931F93CF93DF93CDB727
:101A9000DEB7CC5AD1090FB6F894DEBF0FBECDBF6A
:101AA0008C010E94E80985E391E00E94E809D801D1
:101AB0008C91813649F48DE392E00E94E10287E344
:101AC00092E00E94E1023AC2823609F02AC28EE216
:101AD00092E00E94E1021A821982FE01339686E7A3
:101AE000DF011D928A95E9F78E0107581F4FF80113
:101AF0001192119288E0DF011D928A95E9F70E9408
:101B0000910C811104C08AEE90E00E94E10263E52D
:101B100071E0CE0101960E94562880913B028F937E
:101B200080913A028F9383E4E82E81E0F82EFF92B1
:101B3000EF921F930F930E946128B801CE01019686
:101B40000E94562880913D028F9380913C028F9392
:101B5000FF92EF921F930F930E946128B801CE016C
:101B600001960E94562880913F028F9380913E02F9
:101B70008F93FF92EF921F930F930E946128B801F9
:101B8000CE0101960E945628809141028F93809148
:101B900040028F93FF92EF921F930F930E94612850
:101BA000B801CE0101960E945628809143028F937E
:101BB000809142028F93FF92EF921F930F930E94A6
:101BC0006128B801CE0101960E94562880914702F3
:101BD0008F93809146028F93FF92EF921F930F9302
:101BE0000E9461280FB6F894DEBF0FBECDBFB801CA
:101BF000CE0101960E945628809145028F938091D4
:101C000044028F93FF92EF921F930F930E946128DB
:101C1000B801CE0101960E9456286FE571E0CE0111
:101C200001960E9456286CE971E0CE0101960E944F
:101C300056281F9281E08F93FF92EF921F930F938C
:101C40000E946128B801CE0101960E9456281F9279
:101C500087E08F93FF92EF921F930F930E9461286A
:101C6000B801CE0101960E945628809149028F93B7
:101C7000809148028F93FF92EF921F930F930E94DF
:101C80006128B801CE0101960E94562880914B022E
:101C90008F9380914A028F93FF92EF921F930F933D
:101CA0000E946128B801CE0101960E9456288091B9
:101CB0004D028F9380914C028F93FF92EF921F936E
:101CC0000F930E9461280FB6F894DEBF0FBECDBF00
:101CD000B801CE0101960E94562880914F028F9341
:101CE00080914E028F93FF92EF921F930F930E9469
:101CF0006128B801CE0101960E94562880915102B8
:101D00008F93809150028F93FF92EF921F930F93C6
:101D10000E946128B801CE0101960E945628809148
:101D200053028F93809152028F93FF92EF921F93F1
:101D30000F930E946128B801CE0101960E94562897
:101D4000809155028F93809154028F93FF92EF926E
:101D50001F930F930E946128B801CE0101960E9443
:101D60005628809157028F93809156028F93FF924D
:101D7000EF921F930F930E946128B801CE01019644
:101D80000E94562880915B028F9380915A028F9314
:101D9000809159028F93809158028F9387E691E04A
:101DA0009F938F931F930F930E9461280FB6F8940F
:101DB000DEBF0FBECDBFB801CE0101960E945628EE
:101DC00080915D028F9380915C028F93FF92EF92DE
:101DD0001F930F930E946128B801CE0101960E94C3
:101DE000562880915F028F9380915E028F93FF92BD
:101DF000EF921F930F930E946128B801CE010196C4
:101E00000E945628809161028F93809160028F9387
:101E1000FF92EF921F930F930E946128B801CE01A9
:101E200001960E945628809163028F9380916202EE
:101E30008F93FF92EF921F930F930E946128B80136
:101E4000CE0101960E945628809165028F93809161
:101E500064028F93FF92EF921F930F930E94612869
:101E6000B801CE0101960E945628809167028F9397
:101E7000809166028F93FF92EF921F930F930E94BF
:101E800061280FB6F894DEBF0FBECDBFB801CE01FA
:101E900001960E945628809169028F938091680272
:101EA0008F93FF92EF921F930F930E946128B801C6
:101EB000CE0101960E945628FE0131960F900F9098
:101EC0000F900F900F900F9090E080E02191820F83
:101ED000911D27FD9A950E171F07C1F799279F930C
:101EE0008F938CE691E09F938F931F930F930E94A3
:101EF0006128B801CE0101960E94562881E591E043
:101F00000E94E809CE0101960E94E80987E292E06A
:101F10000E94E1020F900F900F900F900F900F9082
:101F20000DC0833631F580911F0281111DC081E003
:101F300080931F0286E192E00E94F509C455DF4FAD
:101F40000FB6F894DEBF0FBECDBFDF91CF911F91CA
:101F50000F91FF90EF90DF90CF90BF90AF907F9068
:101F60006F905F904F90089510921F0286E092E06C
:101F7000E3CF843639F40E94CA070E94960B0E9470
:101F8000AD0BDCCF853639F486EF91E00E94F50980
:101F900080EF91E096CD863631F481E0809339026E
:101FA0008AEE91E08ECD873629F41092390284EEC4
:101FB00091E087CD883619F48EED91E082CD893697
:101FC00009F4BCCF8B3621F511968C9189831A8246
:101FD000CE0101960E946D2397FDB0CFF8011281CA
:101FE000CE0101960E944F238130910549F002975E
:101FF00009F0A4CF61E0163409F460E08DE005C07B
:1020000061E0163409F460E089E00E946E0396CF27
:102010008C3639F48DEC91E00E94F50987EC91E063
:1020200050CD8D3669F411968C91813329F410923C
:10203000390281EC91E045CD81E080933902F9CFFE
:102040008E3639F480EB91E00E94F5098AEA91E03E
:1020500038CD8F3609F054C081EA91E00E94E10248
:102060001A821982FE01339682E6DF011D928A955B
:10207000E9F78E0107581F4FF8011192119288E07D
:10208000DF011D928A95E9F761E771E0CE010196C3
:102090000E9456286CE771E0CE0101960E945628F6
:1020A000FE0131969E012B593F4F90E080E0419117
:1020B000840F911D47FD9A95E217F307C1F7992701
:1020C0009F938F938EE491E09F938F931F930F9331
:1020D0000E946128B801CE0101960E9456286EE642
:1020E00071E0CE0101960E94562881E591E00E94A0
:1020F000E809CE0101960E94E8098AE991E008CF3B
:10210000803709F01BC1C555DF4F19830883CB5AAF
:10211000D0401A821982FE01339682E6DF011D92B9
:102120008A95E9F7B12CA12C412C512C320110E0F9
:1021300000E0F12CE12CAE0145555F4F6CE971E0F8
:10214000C555DF4F88819981CB5AD0400E94942396
:102150006C01009709F1B1E0EB16F10461F40E9403
:102160004F238C01B601CE0101960E9456288FEFB5
:10217000E81AF80AE0CFE2E0EE16F10429F40E9432
:102180006D232B013C01EECFF3E0EF16F10479F75C
:102190000E944F235C01EBCF94E0E916F1041CF49C
:1021A0008EE891E08ECCFE0131969E012B593F4F77
:1021B00090E080E04191840F911D47FD9A95E217D0
:1021C000F307C1F78A151B0459F7F8013197E73176
:1021D000F105F8F4E251FF4E0C941A28051125116F
:1021E0002A112F11341139113E11431148114D118B
:1021F000521157115C11611166116B117411791133
:102200007E11831188118D11921150923B024092E0
:102210003A0282E3EAE3F2E0DE01A758BF4F019001
:102220000D928A95E1F7FE01E758FF4FAF01405D3F
:102230005F4F90E080E0E417F50709F478C0219142
:10224000820F911D27FD9A95F6CF50923D02409244
:102250003C02DFCF50923F0240923E02DACF5092D2
:10226000410240924002D5CF509243024092420236
:10227000D0CF5092450240924402CBCF50924702B9
:1022800040924602C6CF5092490240924802C1CFC6
:1022900050924B0240924A02BCCF50924D02409263
:1022A0004C02B7CF50924F0240924E02B2CF5092A2
:1022B000510240925002ADCF5092530240925202CE
:1022C000A8CF5092550240925402A3CF5092570289
:1022D000409256029ECF409258025092590260920C
:1022E0005A0270925B0295CF50925D0240925C025E
:1022F00090CF50925F0240925E028BCF509261026B
:102300004092600286CF509263024092620281CF77
:1023100050926502409264027CCF509267024092D4
:10232000660277CF509269024092680272CF909312
:102330006B0280936A0284E991E0C3CB813749F450
:102340000E94960B0E94910C0E94AD0B88E891E0D0
:10235000B8CB823739F488E791E00E94F50982E72B
:1023600091E0AFCB833739F482E691E00E94F50922
:102370008CE591E0A6CB843749F40E94CA070E94FD
:10238000960B0E94AD0B8CE491E09BCB873739F420
:102390008AE391E00E94F50984E391E092CB8937CA
:1023A000A9F411968C91813351F481E291E00E945D
:1023B000E10281E080937F0287E091E082CB8DE0B3
:1023C00091E00E94E10210927F02F6CF803219F470
:1023D00081E091E076CB87EF90E00E94E102F80186
:1023E000608184E093E00E94940285E391E00E9482
:1023F000E809A4CD4F925F926F927F928F929F9245
:10240000AF92BF92CF92DF92EF92FF921F93CF9342
:10241000DF9300D000D000D0CDB7DEB78EE20E94AF
:10242000AE078FE19EE40197F1F700C0000086EF50
:102430000E94B8094C01B12CA12C8091AD0382956A
:10244000880F880F807C8C5C0E94AE078091AD0362
:10245000811109C2AFE1BEE41197F1F700C000009D
:1024600086EF0E94B809B0E0A0E0CC24D82EE92E77
:10247000FA2E88EF0E949209C82A1091AD03412FCD
:1024800050E05E834D838091C2039091C303A50108
:102490009401281B390B41095109A091C003B09147
:1024A000C1030E9420280E94372520E030E040E050
:1024B00058E30E94C3250E94FF242B013C01609138
:1024C000BA037091BB03072E000C880B990B0E9476
:1024D000372520E030E040E055E40E94C3254B0161
:1024E0005C016091BC037091BD03072E000C880B4A
:1024F000990B640D751D861D971D0E9437259B0144
:10250000AC01C501B4010E948D240E94FF24460E37
:10251000571E681E791E50EA451A5FE0550A610889
:102520007108A3019201C301B2010E94B5279B016A
:10253000AC01ACE05595479537952795AA95D1F70D
:1025400029833A834B835C83A091B203B091B30398
:10255000A30192010E942B284B015C01BDE0B594C0
:10256000A79497948794BA95D1F7A091B403B091AA
:10257000B50329813A814B815C810E942B289C0103
:10258000552737FD5095452F280D391D4A1D5B1DD8
:102590002E5F3F4F4F4F5F4F62E055954795379500
:1025A00027956A95D1F730584F4F5F4FA091BE03E2
:1025B000B091BF030E9420284B015C017FE0B694DC
:1025C000A794979487947A95D1F788E090E04D810D
:1025D0005E81841B950B04C0F694E794D794C7944E
:1025E0008A95D2F7A091B603B091B70329813A81B9
:1025F0004B815C810E942B289B01AC01EBE055953F
:10260000479537952795EA95D1F729833A834B83E8
:102610005C83A091B003B091B103A30192010E9429
:102620002B28FBE09595879577956795FA95D1F7D7
:1026300029813A814B815C81620F731F841F951F32
:102640004090AE035090AF03052C000C660877084D
:10265000A2E0440C551C661C771CAA95D1F7640DAA
:10266000751D861D971D012E04C0660F771F881FDC
:10267000991F0A94D2F76E5F7F4F8F4F9F4F24E0D0
:1026800030E040E050E00E94FB27D701C601821BEA
:10269000930BA40BB50B9C01AD0160E573EC80E0DE
:1026A00090E004C096958795779567951A95D2F72F
:1026B0000E94B52797FDEDC0660F771F881F991FF1
:1026C000A50194010E94D92769017A019927F7FC95
:1026D0009A958F2D7E2D6D2D9B01AC010E94B52703
:1026E0009B01AC01AEEDBBE00E9420284B015C01D8
:1026F000A3E4B3EEA70196010E942E28BC019927FE
:1027000077FD9095892F4501BB2497FCB094AB2CA5
:10271000680D791D8A1D9B1D6153714F8F4F9F4F0F
:1027200044E095958795779567954A95D1F76C0D17
:102730007D1D8E1D9F1D0E94372520E836EE45EC3D
:1027400057E40E948D2421E03EED42E45EE30E94C6
:10275000302669837A838B839C834090EE0150906E
:10276000EF016090F0017090F1012091F201309141
:10277000F3014091F4015091F5016091EA017091EB
:10278000EB018091EC019091ED010E9421246B01FD
:102790007C012091F6013091F7014091F8015091B0
:1027A000F9010E9421249B01AC0160E070E080E807
:1027B0009FE30E948D24A70196010E94C3254B012F
:1027C0005C0129813A814B815C8160E070E080E8A6
:1027D0009FE30E94202420E03AE24DE257E40E9469
:1027E000C325A30192010E942024A50194010E9407
:1027F000C325A30192010E9421242B013C01409298
:10280000EE015092EF016092F0017092F101A5018A
:10281000940160E070E080E89FE30E942024A7011B
:1028200096010E94C3256093EA017093EB018093A7
:10283000EC019093ED01C301B20126960FB6F89416
:10284000DEBF0FBECDBFDF91CF911F91FF90EF9004
:10285000DF90CF90BF90AF909F908F907F906F90C0
:102860005F904F900895813029F48FEF9CE7019796
:10287000F1F7F4CD823029F4AFEBBAED1197F1F70F
:10288000EDCDBFEF24E431E0B15020403040E1F71E
:10289000E5CDA50194010E94D92769017A01CC0CEC
:1028A000DD1CEE1CFF1C12CF1F920F920FB60F9271
:1028B00011242F933F934F935F936F937F938F9345
:1028C0009F93AF93BF93EF93FF9380918B0290916F
:1028D0008C02A0918D02B0918E02892B8A2B8B2BBA
:1028E000D1F190918602E0918702F0918802808177
:1028F0008927808380918B0290918C02A0918D0218
:10290000B0918E02181619061A061B069CF48091C7
:102910008B0290918C02A0918D02B0918E02019752
:10292000A109B10980938B0290938C02A0938D0230
:10293000B0938E02FF91EF91BF91AF919F918F91D4
:102940007F916F915F914F913F912F910F900FBEAB
:102950000F901F90189580910C010E94CE03EACF32
:102960001F920F920FB60F9211242F933F934F9304
:102970005F936F937F938F939F93AF93BF93EF93E7
:10298000FF9384E093E00E947202FF91EF91BF9168
:10299000AF919F918F917F916F915F914F913F91F7
:1029A0002F910F900FBE0F901F9018951F920F92AE
:1029B0000FB60F9211242F938F939F93EF93FF9352
:1029C000E0911403F09115038081E0911A03F091D6
:1029D0001B0382FD1BC0908180911D038F5F8F734D
:1029E00020911E03821741F0E0911D03F0E0EC5F9F
:1029F000FC4F958F80931D03FF91EF919F918F91D5
:102A00002F910F900FBE0F901F9018958081F4CFDB
:102A10001F920F920FB60F9211242F933F938F9313
:102A20009F93AF93BF938091E2019091E301A091B6
:102A3000E401B091E5013091E10123E0230F2D374E
:102A400058F50196A11DB11D2093E1018093E2018B
:102A50009093E301A093E401B093E5018091E60136
:102A60009091E701A091E801B091E9010196A11DC3
:102A7000B11D8093E6019093E701A093E801B09324
:102A8000E901BF91AF919F918F913F912F910F904D
:102A90000FBE0F901F90189526E8230F0296A11DD8
:102AA000B11DD2CF1F920F920FB60F9211242F9308
:102AB0003F934F935F936F937F938F939F93AF93C6
:102AC000BF93EF93FF938091B900887F803609F41C
:102AD0004AC0F0F5883209F4A7C018F5803109F42E
:102AE0009BC0B8F4882309F4F9C0883009F494C075
:102AF000FF91EF91BF91AF919F918F917F916F91D6
:102B00005F914F913F912F910F900FBE0F901F90AB
:102B10001895883109F488C0803251F78093DD021E
:102B200014C0803409F49DC040F48033B9F3883375
:102B3000F9F68093DD0285ECB0C0803509F485C0DC
:102B4000883509F496C0883499F60E94F706D0CFEC
:102B5000883909F48CC038F5883729F050F4883664
:102B600011F0803729F683E08093DF021092E001B4
:102B700057C0883809F47BC0803919F0803809F0D3
:102B8000B7CF8091E001803208F071C0E091E001A0
:102B900081E08E0F8093E0018091BB00F0E0E05473
:102BA000FE4F80833DC0803B39F0E0F4803A09F469
:102BB00079C0883A09F09CCF84E08093DF021092BC
:102BC000BF011092BE01E0918402F0918502099547
:102BD0008091BE0181110FC081E08093BE011092EF
:102BE0009E0109C0803C09F4A6CF883C09F4A3CF1C
:102BF000883B09F07DCFE091BF0181E08E0F80938B
:102C0000BF01F0E0E256FE4F80818093BB009091BF
:102C1000BF018091BE0129C08091BA028093BB00A0
:102C200085EC8093BC0064CF9091DC028091DB0244
:102C3000981758F5E091DC0281E08E0F8093DC025A
:102C4000F0E0E554FD4F8081E9CFE091DC0281E0C6
:102C50008E0F8093DC028091BB00F0E0E554FD4FC5
:102C600080839091DC028091DB029817C8F285E89E
:102C7000D8CFE091DC0281E08E0F8093DC0280915E
:102C8000BB00F0E0E554FD4F80838091DE028111AE
:102C90005CCF81E08093B90284EA8093BC001092FB
:102CA000DF0226CF85EC8093BC001092DF0280917A
:102CB000E001803230F4E091E001F0E0E054FE4FBA
:102CC00010826091E00170E0E0918202F091830255
:102CD00080EC91E009951092E0010ACF1092DD029C
:102CE00034CFE4E0F3E01382128288EE93E0A0E0B8
:102CF000B0E084839583A683B78325E131E03183F7
:102D0000208325EC30E03587248724EC30E03787BA
:102D1000268720EC30E0318B208B21EC30E0338BA8
:102D2000228B22EC30E0358B248B26EC30E0378B85
:102D3000268B118E128E138E148EE1EAF3E013822D
:102D4000128284839583A683B78387E291E091837F
:102D500080830895CF93DF93CDB7DEB7C850D140BD
:102D60000FB6F894DEBF0FBECDBF789484B58260F5
:102D700084BD84B5816084BD85B5826085BD85B51F
:102D8000816085BD80916E00816080936E0010929D
:102D90008100809181008260809381008091810018
:102DA00081608093810080918000816080938000A9
:102DB0008091B10084608093B1008091B000816007
:102DC0008093B00080917A00846080937A00809133
:102DD0007A00826080937A0080917A00816080938B
:102DE0007A0080917A00806880937A001092C10006
:102DF0000E94910C8093FA01811104C00E94CA07BD
:102E00000E94960B0E94AD0B82ED90E0A0E8B0E42A
:102E10008093F6019093F701A093F801B093F90124
:102E20008CE69FECACE4BEE38093F2019093F30157
:102E3000A093F401B093F5011092EE011092EF010E
:102E40001092F0011092F1011092EA011092EB0140
:102E50001092EC011092ED010E949C03C090580268
:102E6000D0905902E0905A02F0905B0260E079E065
:102E70008DE390E0A70196010E94D92721503109E6
:102E8000410951095695479537952795E0911403C7
:102E9000F091150382E08083C11441EED406E10471
:102EA000F10421F0211550E13507A8F0E091140359
:102EB000F0911503108260E874E88EE190E0A701BC
:102EC00096010E94D927215031094109510956958F
:102ED000479537952795E0911003F09111033083C2
:102EE000E0911203F0911303208310921C03E091F0
:102EF0001803F091190386E08083E0911603F091A6
:102F00001703808180618083E0911603F09117039D
:102F1000808188608083E0911603F091170380819F
:102F200080688083E0911603F091170380818F7D84
:102F3000808362E080E00E94FA0380915C0284302A
:102F400008F083E08093AD030E949C0380ED0E9413
:102F50009209853509F04DC08AEA0E94B80990931C
:102F6000AF038093AE038CEA0E94B8099093B1033B
:102F70008093B0038EEA0E94B8099093B3038093C4
:102F8000B20380EB0E94B8099093BF038093BE0305
:102F900082EB0E94B8099093C1038093C00384EB35
:102FA0000E94B8099093C3038093C20386EB0E94EA
:102FB000B8099093B5038093B40388EB0E94B809D5
:102FC0009093B7038093B6038AEB0E94B80990935D
:102FD000B9038093B8038CEB0E94B8099093BB03AC
:102FE0008093BA038EEB0E94B8099093BD0380933F
:102FF000BC0386E792E00E94E10261E089E00E9462
:10300000FA0361E08DE00E94FA0361E08CE00E9427
:10301000FA0360E088E00E94FA0360E087E00E9423
:10302000FA0360E08AE00E94FA0360E08BE00E940D
:10303000FA0360E089E00E946E0360E08DE00E9488
:103040006E0360E08CE00E946E03809160029091BC
:103050006102019709F0F2C181E080931F020E9492
:103060006C080E949E080E949E080E949E080E9472
:103070009E080E949E080E949E080E949E088091C1
:10308000FA01811125C084E690E0A0E0B0E08093D1
:10309000200290932102A0932202B093230288E0A1
:1030A0000E9445038C0187E00E944503011511052C
:1030B00009F0C7C1892B61F482E390E0A0E0B0E0A1
:1030C0008093200290932102A0932202B0932302C6
:1030D00002E310E00E94FA1101501109D9F70AE049
:1030E00010E0C12CD12C76010E94FA114B015C0139
:1030F000C701B6010E943725A50194010E94212431
:103100000E94FF246B017C0162E370E080E090E0AC
:103110000E94B9060150110939F7C701B6010E9492
:10312000372520E030E040E251E40E948D240E94E7
:10313000FF24609335027093360280933702909398
:103140003802109224021092250210922602109248
:1031500027028091660290916702092E000CAA0B4B
:10316000BB0B80932D0290932E02A0932F02B0935D
:10317000300280900D0190900E01A0900F01B09050
:103180001001CD5FDE4F88829982AA82BB82C35034
:10319000D140712C612C10E21B3311F40C942823C4
:1031A00090903902C251DF4F9882CE5ED04091108C
:1031B0000C9402230E94FA116B017C01609135028C
:1031C0007091360280913702909138020E94372523
:1031D0009B01AC01C701B6010E9420240E94FF247C
:1031E00060937402709375028093760290937702D5
:1031F00080917A02882381F00E94EB06C090310210
:10320000D0903202E0903302F09034026C197D09C4
:103210008E099F090E94030A409174025091750221
:10322000609176027091770280912D0290912E022A
:10323000A0912F02B091300284179507A607B70717
:103240000CF4A4C180911F0281110DC180917902FB
:10325000811109C10E94EB06C0901B02D0901C0294
:10326000E0901D02F0901E026C197D098E099F09E5
:10327000C0901702D0901802E0901902F0901A0244
:10328000C616D706E806F90608F04FC0809102017D
:1032900090910301019609F0EAC020911502309146
:1032A0001602F901EE0FFF1FE35FFD4F8081918150
:1032B0002F5F3F4F3093160220931502409100017B
:1032C000509101014217530724F4109216021092F4
:1032D000150290930301809302018F3F980709F430
:1032E000C2C00E944503892B09F0B8C08CED95E05F
:1032F000A0E0B0E08093090290930A02A0930B0231
:10330000B0930C0240E050E0BA0180910702909126
:1033100008020E9436040E94EB0660930302709339
:103320000402809305029093060260E070E0CB01F6
:103330000E94030A0E94EB064B015C018091790216
:10334000882311F40C94022380917802882311F4CD
:103350000C94022384E093E00E945202892BB1F086
:1033600084E093E00E943002182F8B3311F40C9408
:10337000C8228A3059F0E1E0F0E0EC0FFD1FE60DC5
:10338000F71D808393012F5F3F4F39010E94EB06A9
:10339000681979098A099B0961317742810591058C
:1033A00068F20E947F0860917002709171028091B2
:1033B000720290917302C0900801D0900901E090D0
:1033C0000A01F0900B0120913C0230913D02232B29
:1033D00011F00C94EA220E943725A70196010E9461
:1033E000C3250E94FF240E94B1080E947F086091BB
:1033F0006C0270916D0280916E0290916F02C0908C
:103400000801D0900901E0900A01F0900B01209191
:103410003C0230913D02232B11F00C94F6220E94C5
:103420003725A70196010E94C3250E94FF240E9410
:10343000B1080E94EB064B015C01A8CF10921F025D
:103440000ECE0130110509F043CE009711F00C9417
:103450003C2386E990E0A0E0B0E032CE8CE291E03F
:10346000A0E0B0E047CF8CE00E94CE035ECF0E9488
:10347000EB06C0900902D0900A02E0900B02F09097
:103480000C028090030290900402A0900502B0907C
:103490000602681979098A099B09C616D706E80643
:1034A000F90638F51C141D041E041F0414F58CE0E5
:1034B0000E94CE031092090210920A0210920B028F
:1034C00010920C0284EF91E0A0E0B0E08093FF0145
:1034D00090930002A0930102B09302020E94EB06B7
:1034E0006093FB017093FC018093FD019093FE01BA
:1034F0001CCF0E94EB06C090FF01D0900002E0902C
:103500000102F09002028090FB019090FC01A090DB
:10351000FD01B090FE01681979098A099B09C61658
:10352000D706E806F90608F000CF1C141D041E0497
:103530001F040CF0FACE8FEF9FEF9093030180935E
:1035400002018091150290911602892BB1F480E15D
:1035500097E2A0E0B0E08093170290931802A09346
:103560001902B0931A020E94EB0660931B0270933B
:103570001C0280931D0290931E021092FF01109274
:1035800000021092010210920202CFCE0E941F0987
:10359000C951DF4F1882C75ED040C851DF4F188233
:1035A000C85ED0408091480290914902CF51DF4FD0
:1035B00099838883C15ED04080914A0290914B02EA
:1035C000CD51DF4F99838883C35ED04020913E0266
:1035D00030913F02C352DF4F39832883CD5DD04005
:1035E0008091400290914102C152DF4F99838883BC
:1035F000CF5DD040CD5FDE4F88809980AA80BB80B0
:10360000C350D140C752DF4F88829982AA82BB82C1
:10361000C95DD0402330310541F049E050E0C75248
:10362000DF4F59834883C95DD0408330910541F015
:103630004DE050E0C552DF4F59834883CB5DD04009
:10364000FE01E753FF4F40E1DF011D924A95E9F784
:10365000CB51DF4F1882C55ED040CA51DF4F188270
:10366000C65ED0402330310519F421E02093810259
:10367000039719F481E080938002C751DF4F1882CD
:10368000C95ED040C351DF4F1882CD5ED040C551D6
:10369000DF4F1882CB5ED040C651DF4F1882CA5E22
:1036A000D040C150DF4F188219821A821B82CF5F2F
:1036B000D040CD50DF4F188219821A821B82C35F1F
:1036C000D040C550DF4F188219821A821B82CB5F0F
:1036D000D040C950DF4F188219821A821B82C75FFF
:1036E000D04001E080912902811124CE0E94FA117C
:1036F0004B015C0160913502709136028091370276
:10370000909138020E9437259B01AC01C501B4019C
:103710000E9420240E94FF2460937402709375021B
:10372000809376029093770280917A02882381F0C9
:103730000E94EB068090310290903202A0903302FA
:10374000B0903402681979098A099B090E94030A1A
:1037500040917402509175026091760270917702E7
:1037600080912D0290912E02A0912F02B0913002F3
:1037700084179507A607B7072CF580917A02811167
:1037800021C08091780281111DC000937A0260E00F
:1037900070E0CB010E94030A0E94EB0660933102A5
:1037A00070933202809333029093340280914602E8
:1037B00090914702019731F4B1E0C251DF4FB883D5
:1037C000CE5ED04080917A02882309F48BCFC12C41
:1037D000D12C7601812C912C54019EC2EE24E394CD
:1037E000F12C73C38093240290932502A0932602A8
:1037F000B09327028091500290915102092E000C43
:10380000AA0BBB0B8093040190930501A0930601C2
:10381000B0930701C651DF4FA880CA5ED040A11007
:10382000C8C5C0907402D0907502E0907602F09006
:1038300077028091200290912102A0912202B09102
:103840002302C816D906EA06FB0608F02BC18091B0
:103850007902882309F426C1C551DF4FA880CB5EC9
:10386000D040A11016C08091780281110FC70E942C
:10387000EB06C550DF4F688379838A839B83CB5FD8
:10388000D040C0926C02D0926D02E0926E02F09233
:103890006F0280907802C551DF4F8882CB5ED040A6
:1038A0008110F4C66E0125EEC20ED11CF12CE12C64
:1038B000D6018D916D01811139C00E94EB06AB01DB
:1038C000BC01C550DF4F88809980AA80BB80CB5F48
:1038D000D040481959096A097B09E1EEF0E0EC0F84
:1038E000FD1FEE0DFF1D80819181092E000CAA0B9A
:1038F000BB0B481759076A077B07C0F0EDEDF0E0F6
:10390000EC0FFD1FEE0DFF1D80819181892B71F45D
:1039100061E0E9EDF0E0EC0FFD1FEE0DFF1D808191
:103920000E946E0381E0F6013197808322E0E20E6F
:10393000F11C34E0E316F10409F0BACFAE014F51A7
:103940005F4FC95FDE4F59834883C750D1407E0126
:1039500057EEE50EF11CD12CC12C01E00E94EB06C4
:10396000C95FDE4FA881B981C750D1402D913D91EB
:10397000C95FDE4FB983A883C750D140AB01BC01FA
:10398000C550DF4F88809980AA80BB80CB5FD04034
:10399000481959096A097B09C90188519C4F092EA8
:1039A000000CAA0BBB0B481759076A077B0720F1CD
:1039B000D7018C91811120C0F601EE0FFF1FADEDF4
:1039C000B0E0AC0FBD1FAE0FBF1F8D919C91892B36
:1039D00099F439ED832E912C8C0E9D1EE80DF91D66
:1039E0009080818060E0892D0E946E03892D982D42
:1039F0000E94E701D7010C93BFEFEB1AFB0ACA94B0
:103A0000CD2809F0C1C581E080937802C951DF4F0C
:103A10008881C75ED04081110AC0C352DF4F8881C0
:103A20009981CD5DD040892B11F410927802C85154
:103A3000DF4F8881C85ED04081110AC0C152DF4F7C
:103A400088819981CF5DD040892B11F41092780242
:103A50000E94EB06C0903102D0903202E090330217
:103A6000F09034026C197D098E099F090E94030AA7
:103A7000C451DF4F8880CC5ED040C551DF4F888273
:103A8000CB5ED04016C0EE24E394F12CEEC4C251BC
:103A9000DF4F9880CE5ED040C651DF4F9882CA5E1D
:103AA000D040BFCEC551DF4FB880CB5ED040B11003
:103AB000F0CEC351DF4F9880CD5ED040992009F4FD
:103AC000D7C080912A028111D3C06E0125EEC20EAB
:103AD000D11CF12CE12CD6018D916D01811139C0E1
:103AE0000E94EB06AB01BC01CD50DF4F888099806E
:103AF000AA80BB80C35FD040481959096A097B0975
:103B0000E1EEF0E0EC0FFD1FEE0DFF1D80819181D5
:103B1000092E000CAA0BBB0B481759076A077B0735
:103B2000C0F0EDEDF0E0EC0FFD1FEE0DFF1D80810C
:103B30009181049771F461E0E9EDF0E0EC0FFD1F75
:103B4000EE0DFF1D80810E946E0381E0F60131972A
:103B5000808322E0E20EF11C38E0E316F10409F064
:103B6000BACF6E0141EEC40ED11CF12CE12C01E064
:103B70000E94EB06D6012D913D916D01AB01BC0178
:103B8000CD50DF4F88809980AA80BB80C35FD04032
:103B9000481959096A097B09C90188519C4F092EA6
:103BA000000CAA0BBB0B481759076A077B0758F193
:103BB00027EEA22EB12CAC0EBD1EAE0CBF1CD50143
:103BC0008C91811120C0F701EE0FFF1FADEDB0E029
:103BD000AC0FBD1FAE0FBF1F8D919C91049799F440
:103BE00089ED882E912C8C0E9D1EE80DF91D90807C
:103BF000818060E0892D0E946E03892D982D0E949E
:103C0000E701D5010C93BFEFEB1AFB0AE4E0EE16D7
:103C1000F10409F0ADCFFE01E951FF4FDE01A352DF
:103C2000BF4FCF010496C451DF4F4881CC5ED040D6
:103C30002191211107C02D913C911197243031051C
:103C400009F440E012968E179F0791F740932A02DD
:103C50000E94EB06C0903102D0903202E090330215
:103C6000F09034026C197D098E099F090E94030AA5
:103C700080917802882311F18091740290917502ED
:103C8000A0917602B09177020A97A105B105B4F42C
:103C900080912A02882391F010927A020E94EB060A
:103CA000C0903102D0903202E0903302F0903402A2
:103CB0006C197D098E099F090E94030A8091810277
:103CC0008823B9F080918002882399F081E0809365
:103CD00029020E94EB06C0903102D0903202E0909F
:103CE0003302F09034026C197D098E099F090E94FD
:103CF000030AC151DF4FC880D980EA80FB80CF5EC4
:103D0000D0404101C451DF4FE881CC5ED040C75163
:103D1000DF4FE883C95ED040F0917A02C451DF4F93
:103D2000F883CC5ED040FF2309F4DBCC0E94FA116B
:103D30001B012C016091350270913602809137028F
:103D4000909138020E9437259B01AC01C201B1015C
:103D50000E9420240E94FF24C151DF4F6883798391
:103D60008A839B83CF5ED040609374027093750208
:103D700080937602909377020E94EB0620913102A5
:103D80003091320240913302509134021B012C01D8
:103D9000221A330A440A550A00917802002349F195
:103DA00080912A02811125C0C351DF4F2881CD5E49
:103DB000D040211119C0C151DF4F88819981CF5E58
:103DC000D0408C199D09B101681979090E94C52755
:103DD000672B79F40E94EB06CD50DF4F688379831F
:103DE0008A839B83C35FD040C351DF4F0883CD5E7E
:103DF000D040C201B1010E94030AC751DF4F888041
:103E0000C95ED04081100AC00E94EB06C150DF4F4E
:103E1000688379838A839B83CF5FD04080912B0214
:103E20008111D7C06E0125EEC20ED11CF12CE12C00
:103E3000D6018D916D01811139C00E94EB06AB0155
:103E4000BC01C150DF4F88809980AA80BB80CF5FC2
:103E5000D040481959096A097B09E1EEF0E0EC0FFE
:103E6000FD1FEE0DFF1D80819181092E000CAA0B14
:103E7000BB0B481759076A077B07C0F0EDEDF0E070
:103E8000EC0FFD1FEE0DFF1D80819181059771F4F0
:103E900061E0E9EDF0E0EC0FFD1FEE0DFF1D80810C
:103EA0000E946E0381E0F6013197808322E0E20EEA
:103EB000F11C34E0E316F10409F0BACF6E0141EED3
:103EC000C40ED11CF12CE12C01E00E94EB06D601BE
:103ED0002D913D916D01AB01BC01C150DF4F888038
:103EE0009980AA80BB80CF5FD040481959096A09E0
:103EF0007B09C90188519C4F092E000CAA0BBB0BF2
:103F0000481759076A077B0758F1E7EEAE2EB12C28
:103F1000AC0EBD1EAE0CBF1CD5018C91811120C012
:103F2000F701EE0FFF1FADEDB0E0AC0FBD1FAE0F00
:103F3000BF1F8D919C91059799F469ED862E912C68
:103F40008C0E9D1EE80DF91D9080818060E0892D0A
:103F50000E946E03892D982D0E94E701D5010C93D4
:103F6000EA94EF2809F03ACC81E080932B02C95102
:103F7000DF4F8881C75ED04081110AC0C352DF4F36
:103F800088819981CD5DD040059711F410922B0264
:103F9000C851DF4F8881C85ED04081110AC0C1522C
:103FA000DF4F88819981CF5DD040059711F4109241
:103FB0002B020E94EB06C0903102D0903202E090BA
:103FC0003302F09034026C197D098E099F090E941A
:103FD000030A809128028111D7C06E01E5EECE0E52
:103FE000D11CF12CE12CD6018D916D01811141C0C4
:103FF000E1EEF0E0EC0FFD1FEE0DFF1D80819181E1
:10400000092E000CAA0BBB0B409174025091750253
:104010006091760270917702481759076A077B070B
:1040200044F1EDEDF0E0EC0FFD1FEE0DFF1D808182
:1040300091810697F1F461E0E9EDF0E0EC0FFD1FEE
:10404000EE0DFF1D80810E946E0381E0F601319725
:1040500080830E94EB06F701EE0FFF1F59EC852EBF
:10406000912C8C0E9D1EE80DF91D60837183828357
:10407000938322E0E20EF11C38E0E316F10409F02C
:10408000B2CF6E0149ECC40ED11CF12CE12C01E041
:104090000E94EB06AB01BC01F60181919191A191C7
:1040A000B1916F0188519C4FAF4FBF4F48175907CF
:1040B0006A077B07A0F137EEA32EB12CAC0EBD1E14
:1040C000AE0CBF1CD5018C91811129C0F701EE0FF8
:1040D000FF1FADEDB0E0AC0FBD1FAE0FBF1F8D9148
:1040E0009C910697E1F4A5EEB0E0AC0FBD1FAE0DBC
:1040F000BF1D8C91882399F099ED892E912C8C0EFF
:104100009D1EE80DF91D9080818060E0892D0E9440
:104110006E03892D982D0E94E701D5010C93BFEF06
:10412000EB1AFB0AE4E0EE16F10409F0B1CFFE0150
:10413000E951FF4FDE01A352BF4FCF010496C45196
:10414000DF4F4881CC5ED0402191211107C02D91D5
:104150003C9111972630310509F440E01296E8179A
:10416000F90791F7409328020E94EB06C0903102B4
:10417000D0903202E0903302F09034026C197D0945
:104180008E099F090E94030A80912C028111B1C0FF
:104190006E01F5EECF0ED11CF12CE12CD6018D91E4
:1041A0006D01811129C0E1EEF0E0EC0FFD1FEE0D75
:1041B000FF1D80819181092E000CAA0BBB0B2816D4
:1041C00039064A065B06C0F0EDEDF0E0EC0FFD1F8E
:1041D000EE0DFF1D80819181029771F461E0E9EDA0
:1041E000F0E0EC0FFD1FEE0DFF1D80810E946E03BD
:1041F00081E0F60131978083B2E0EB0EF11CE8E03C
:10420000EE16F10459F66E01F1EECF0ED11CF12C31
:10421000E12C01E0D6018D919D916D0188519C4F5B
:10422000092E000CAA0BBB0B281639064A065B06A2
:1042300058F187EEA82EB12CAC0EBD1EAE0CBF1CE3
:10424000F5018081811120C0F701EE0FFF1FADED58
:10425000B0E0AC0FBD1FAE0FBF1F8D919C910297B8
:1042600099F4A9ED8A2E912C8C0E9D1EE80DF91D56
:104270009080818060E0892D0E946E03892D982DA9
:104280000E94E701D5010C93BFEFEB1AFB0AE4E0B3
:10429000EE16F10409F0BECFFE01E951FF4FDE0139
:1042A000A352BF4FCF010496C451DF4F4881CC5E6B
:1042B000D0402191211107C02D913C9111972230BE
:1042C000310509F440E012968E179F0791F740934D
:1042D0002C020E94EB06C0903102D0903202E09096
:1042E0003302F09034026C197D098E099F090E94F7
:1042F000030A8091460290914702019761F4F9EB1D
:104300002F16FBE03F064104510428F0C251DF4F55
:104310001882CE5ED0408091740290917502A09177
:104320007602B0917702C0902402D0902502E090EE
:104330002602F09027028C159D05AE05BF050CF0F6
:1043400051CAC651DF4F8880CA5ED04081104ACA28
:10435000C251DF4F9880CE5ED040911043CA809109
:10436000040190910501A0910601B0910701019708
:10437000A109B1098093040190930501A09306015E
:10438000B0930701892B8A2B8B2B09F080CB0E94DD
:10439000EB06C950DF4F688379838A839B83C75FAD
:1043A000D040C0927002D0927102E0927202F092FC
:1043B0007302B0907902C651DF4FB882CA5ED04016
:1043C000B1102FCA6E0125EEC20ED11CF12CE12CCA
:1043D000D6018D916D01811139C00E94EB06AB01B0
:1043E000BC01C950DF4F88809980AA80BB80C75F1D
:1043F000D040481959096A097B09E1EEF0E0EC0F59
:10440000FD1FEE0DFF1D80819181092E000CAA0B6E
:10441000BB0B481759076A077B07C0F0EDEDF0E0CA
:10442000EC0FFD1FEE0DFF1D80819181019771F44E
:1044300061E0E9EDF0E0EC0FFD1FEE0DFF1D808166
:104440000E946E0381E0F6013197808322E0E20E44
:10445000F11C34E0E316F10409F0BACF6E0141EE2D
:10446000C40ED11CF12CE12C01E00E94EB06D60118
:104470002D913D916D01AB01BC01C950DF4F88808A
:104480009980AA80BB80C75FD040481959096A0942
:104490007B09C90188519C4F092E000CAA0BBB0B4C
:1044A000481759076A077B0758F1E7EEAE2EB12C83
:1044B000AC0EBD1EAE0CBF1CD5018C91811120C06D
:1044C000F701EE0FFF1FADEDB0E0AC0FBD1FAE0F5B
:1044D000BF1F8D919C91019799F469ED862E912CC7
:1044E0008C0E9D1EE80DF91D9080818060E0892D65
:1044F0000E946E03892D982D0E94E701D5010C932F
:10450000EA94EF2809F0BFCA81E080937902C9518B
:10451000DF4F8881C75ED04081110AC0C352DF4F90
:1045200088819981CD5DD040019711F41092790274
:10453000C851DF4F8881C85ED04081110AC0C15286
:10454000DF4F88819981CF5DD040019711F410929F
:1045500079020E94EB06C0903102D0903202E090C6
:104560003302F09034026C197D098E099F090E9474
:10457000030AC451DF4F8880CC5ED040C651DF4F64
:104580008882CA5ED0404DC9CC24C394D12CE6C9E0
:1045900073013FEFE31AF30AE1E0F0E0EC0FFD1FD7
:1045A000E60DF71D10821092790210927802109297
:1045B0002C0210922B0210922A0210927A02109270
:1045C000810210928002CE0101960E94390D3701BE
:1045D0000C94C6190E943725A70196010E94C32595
:1045E0000E94FF240E94E10C0C94F5190E943725CB
:1045F000A70196010E94C3250E94FF240E94E10C9E
:104600000C94191A84E093E00E945202892B11F451
:104610000C94CC1884E093E00E943002182F8B3366
:1046200071F08A3079F3E1E0F0E0EC0FFD1FE60D68
:10463000F71D8083B3016F5F7F4F3B01E3CFFE0126
:10464000E60DF71D1182C30101963C010C94CC18B4
:10465000CE0101960E94390D80E090E0892B11F483
:104660000C94C9180E945E02882311F40C94C91896
:104670000E9400000C94C918019711F00C9468185E
:1046800088EC90E0A0E0B0E00C946018C351DF4FDC
:104690008880CD5ED040882009F4EECA12CAFC01A1
:1046A00088279927E89421912032E9F3293010F0E6
:1046B0002E30C8F32B3241F02D3239F4689404C007
:1046C0000E94D023820F911D219120532A30C0F3E4
:1046D0001EF4909581959F4F08951F93FC01992793
:1046E0008827BC01E89411911032E9F3193010F0D9
:1046F0001E30C8F31B3251F01D3249F4689406C0D5
:104700000E94BB23610F711D811D911D11911053DA
:104710001A30B0F33EF490958095709561957F4F77
:104720008F4F9F4F1F910895FA01A191B08100977B
:1047300019F41097E1F0CD01DC01CD010D900020BE
:1047400011F4C00113C0FB012191222319F020159F
:10475000D9F7F3CFFB012191201519F41E92119680
:1047600006C02223C1F70D900020A1F7D001FA0165
:10477000A193B0830895592F482F372F262F660F06
:10478000771F881F991F660F771F881F991F620F59
:10479000731F841F951F660F771F881F991F089529
:1047A0007AE0979F902D879F802D910D1124089579
:1047B000BB27FA01A62F6217710581059105330BFE
:1047C00030FB66F0AA27660F771F881F991FAA1F64
:1047D000A21710F0A21B63953850A9F7A05DAA3369
:1047E00008F0A95DA19336F7B111B1931082CA0107
:1047F0000C94FA23DC01FC01672F71917723E1F718
:10480000329704C07C916D9370836291AE17BF079D
:10481000C8F30895F999FECF92BD81BDF89A992702
:1048200080B50895262FF999FECF1FBA92BD81BD9C
:1048300020BD0FB6F894FA9AF99A0FBE0196089522
:104840005058BB27AA270E9438240C9489250E941F
:104850007B2538F00E94822520F039F49F3F19F41F
:1048600026F40C9478250EF4E095E7FB0C94722561
:10487000E92F0E949A2558F3BA1762077307840735
:10488000950720F079F4A6F50C94BC250EF4E0957C
:104890000B2EBA2FA02D0B01B90190010C01CA01FA
:1048A000A0011124FF27591B99F0593F50F4503EA5
:1048B00068F11A16F040A22F232F342F4427585F97
:1048C000F3CF469537952795A795F0405395C9F7AF
:1048D0007EF41F16BA0B620B730B840BBAF0915067
:1048E000A1F0FF0FBB1F661F771F881FC2F70EC006
:1048F000BA0F621F731F841F48F4879577956795D9
:10490000B795F7959E3F08F0B0CF9395880F08F0C4
:104910009927EE0F9795879508950E94A1240C94EE
:1049200089250E94822558F00E947B2540F029F4B9
:104930005F3F29F00C94722551110C94BD250C9405
:1049400078250E949A2568F39923B1F3552391F3B2
:10495000951B550BBB27AA2762177307840738F0EE
:104960009F5F5F4F220F331F441FAA1FA9F335D04B
:104970000E2E3AF0E0E832D091505040E695001CFF
:10498000CAF72BD0FE2F29D0660F771F881FBB1FB9
:10499000261737074807AB07B0E809F0BB0B802D97
:1049A000BF01FF2793585F4F3AF09E3F510578F0C3
:1049B0000C9472250C94BD255F3FE4F3983ED4F32C
:1049C000869577956795B795F7959F5FC9F7880F97
:1049D000911D9695879597F90895E1E0660F771FE9
:1049E000881FBB1F621773078407BA0720F0621B7A
:1049F000730B840BBA0BEE1F88F7E09508950E94A5
:104A000006256894B1110C94BD2508950E94A22535
:104A100088F09F5798F0B92F9927B751B0F0E1F07F
:104A2000660F771F881F991F1AF0BA95C9F714C02F
:104A3000B13091F00E94BC25B1E008950C94BC25E2
:104A4000672F782F8827B85F39F0B93FCCF3869568
:104A500077956795B395D9F73EF4909580957095C5
:104A600061957F4F8F4F9F4F0895E89409C097FB42
:104A70003EF490958095709561957F4F8F4F9F4F35
:104A80009923A9F0F92F96E9BB279395F695879579
:104A900077956795B795F111F8CFFAF4BB0F11F43C
:104AA00060FF1BC06F5F7F4F8F4F9F4F16C08823E3
:104AB00011F096E911C0772321F09EE8872F762F19
:104AC00005C0662371F096E8862F70E060E02AF05A
:104AD0009A95660F771F881FDAF7880F9695879546
:104AE00097F9089597F99F6780E870E060E008956E
:104AF0009FEF80EC089500240A94161617061806F6
:104B00000906089500240A941216130614060506D1
:104B10000895092E0394000C11F4882352F0BB0F62
:104B200040F4BF2B11F460FF04C06F5F7F4F8F4FC5
:104B30009F4F089557FD9058440F551F59F05F3F00
:104B400071F04795880F97FB991F61F09F3F79F0AF
:104B500087950895121613061406551FF2CF469531
:104B6000F1DF08C0161617061806991FF1CF8695B3
:104B70007105610508940895E894BB276627772797
:104B8000CB0197F908950E94D6250C9489250E949F
:104B90007B2538F00E94822520F0952311F00C949B
:104BA00072250C94782511240C94BD250E949A2519
:104BB00070F3959FC1F3950F50E0551F629FF00170
:104BC000729FBB27F00DB11D639FAA27F00DB11D89
:104BD000AA1F649F6627B00DA11D661F829F222712
:104BE000B00DA11D621F739FB00DA11D621F839F99
:104BF000A00D611D221F749F3327A00D611D231F6F
:104C0000849F600D211D822F762F6A2F11249F57BC
:104C100050409AF0F1F088234AF0EE0FFF1FBB1FBF
:104C2000661F771F881F91505040A9F79E3F51057E
:104C300080F00C9472250C94BD255F3FE4F3983E00
:104C4000D4F3869577956795B795F795E7959F5F28
:104C5000C1F7FE2B880F911D9695879597F90895BA
:104C6000FA01EE0FFF1F309621053105A1F1611504
:104C7000710561F48038BFE39B0749F1689490386F
:104C8000810561F08038BFEF9B0741F099234AF519
:104C9000FF3FE1053105210519F1E8940894E795F6
:104CA000D901AA2329F4AB2FBE2FF85FD0F310C08F
:104CB000FF5F70F4A695E0F7F73950F019F0FF3A6E
:104CC00038F49F779F930DD00F9007FC905808956C
:104CD00046F00C94782560E070E080E89FE308954A
:104CE0004FE79F775F934F933F932F930E942B271C
:104CF0002F913F914F915F910E94C3250C9488267C
:104D000029F416F00C9472250C94BC250C9478258B
:104D10000E94A225A8F39638A0F707F80F92E8940E
:104D20002BE33AEA48EB5FE70E94D9250F920F92F6
:104D30000F924DB75EB70F920E947327E8E6F0E03E
:104D40000E94BA264F915F91EF91FF91E595EE1F7A
:104D5000FF1F49F0FE57E0684427EE0F441FFA9505
:104D6000E1F74195550B0E94ED260F9007FE0C943C
:104D7000E1260895DF93CF931F930F93FF92EF9255
:104D8000DF927B018C01689406C0DA2EEF010E944D
:104D9000D625FE01E894A59125913591459155912F
:104DA000A6F3EF010E943824FE019701A801DA94CE
:104DB00069F7DF90EF90FF900F911F91CF91DF91F6
:104DC00008959B01AC0160E070E080E89FE30C94E3
:104DD0008D240C9472250C94A7270E94A225D8F349
:104DE0009923C9F3940F511DA3F39150504094F0AF
:104DF00059F0882332F0660F771F881F915050407A
:104E0000C1F79E3F51052CF7880F911D9695879508
:104E100097F908955F3FACF0983E9CF0BB278695CC
:104E200077956795B79508F4B1609395C1F7BB0F77
:104E300058F711F460FFE8CF6F5F7F4F8F4F9F4FA0
:104E4000E3CF0C94BD2516F00C94A7270C9478257D
:104E500068940C9472250E94A225A8F39923C1F3AB
:104E6000AEF3DF93CF931F930F93FF92C92FDD27EC
:104E700088232AF02197660F771F881FDAF720E032
:104E800030E040E85FEB9FE3883920F0803E38F067
:104E900021968F770E942124E0E9F0E004C00E946F
:104EA0002124EDEBF0E00E94BA268B01BE01EC015B
:104EB000FB2E6F5771097595771F880B990B0E9410
:104EC000372528E132E741E35FE30E94D625AF2D85
:104ED0009801AE01FF900F911F91CF91DF910E9439
:104EE00038240C948925FA01DC01AA0FBB1F9B0111
:104EF000AC01BF5728F4222733274427507820C01D
:104F0000B75190F4AB2F0024469537952795011C97
:104F1000A395D2F3002071F0220F331F441FB395E5
:104F2000DAF30ED00C94202461307105A0E88A07D2
:104F3000B94630F49B01AC01662777278827907823
:104F4000309621F0208331834283538308959F3F1D
:104F500031F0915020F4879577956795B795880F34
:104F6000911D9695879597F90895DB018F939F93EF
:104F70000E942028BF91AF91A29F800D911DA39FF9
:104F8000900DB29F900D1124089597FB072E16F4F3
:104F9000009407D077FD09D00E94332807FC05D084
:104FA0003EF4909581959F4F0895709561957F4F40
:104FB0000895A1E21A2EAA1BBB1BFD010DC0AA1F5A
:104FC000BB1FEE1FFF1FA217B307E407F50720F072
:104FD000A21BB30BE40BF50B661F771F881F991FED
:104FE0001A9469F760957095809590959B01AC0136
:104FF000BD01CF010895052E97FB1EF400940E9479
:10500000122857FD07D00E94D92707FC03D04EF481
:105010000C94122850954095309521953F4F4F4F55
:105020005F4F089590958095709561957F4F8F4F54
:105030009F4F0895EE0FFF1F0590F491E02D099406
:105040000E944728A59F900DB49F900DA49F800DAE
:10505000911D11240895B7FF0C9420280E94202848
:10506000821B930B0895AA1BBB1B51E107C0AA1F0B
:10507000BB1FA617B70710F0A61BB70B881F991FF9
:105080005A95A9F780959095BC01CD010895A29FEE
:10509000B001B39FC001A39F700D811D1124911D0C
:1050A000B29F700D811D1124911D0895FB01DC013B
:1050B0000D900020E9F7119701900D920020E1F783
:1050C0000895AEE0B0E0E7E6F8E20C94102B0D890D
:1050D0001E8986E08C831A8309838FEF9FE79E8366
:1050E0008D83AE01475E5F4F6F89788DCE0101964B
:1050F0000E9484282F813885020F131FF801108227
:105100002E96E4E00C942C2BABE0B0E0EAE8F8E259
:105110000C94022B7C013B018A01FC011782168250
:10512000838181FFC8C1CE0101965C01F7019381A3
:10513000F30193FD859193FF81913F01882309F449
:1051400053C1853239F493FD859193FF81913F01DD
:10515000853229F4B70190E00E94742AE7CF912CA0
:10516000212C312CFFE1F31538F08B3211F190F442
:10517000803209F1833229F137FC3CC020ED280F41
:105180002A3050F536FE20C08AE0989E200D11246A
:10519000922E06C08D3291F0803371F7689430F80A
:1051A000F30193FD859193FF81913F018111DACF46
:1051B00021C0689431F8689432F8F2CF689433F8DB
:1051C000EFCF689434F8ECCFEAE02E9E200D112446
:1051D000222E689435F8E4CF8E3229F436FC04C1CF
:1051E000689436F8DDCF8C3619F4689437F8D8CF48
:1051F0008836B1F2982F9F7D95549330E0F0833636
:10520000A1F18337C1F1833509F063C02801F2E0D1
:105210004F0E511CF801C080D180692D70E036FC22
:1052200002C06FEF7FEFC6010E945E2A4C016894B6
:1052300037F882010AC00C5F1F4FFFE3F98388240F
:105240008394912C6501E89437F833FE2DC0522CDD
:105250008114910471F5552009F468CFB70180E2FB
:1052600090E00E94742A5A94F6CFF80180818983D5
:105270000E5F1F4FE4CF2801F2E04F0E511CF801E2
:10528000C080D180692D70E036FC02C06FEF7FEFE7
:10529000C6010E94692A4C018201D5CFB70180E284
:1052A00090E00E94742A2A942814190409F0B0F797
:1052B000CECFF60137FC859137FE81916F01B701A2
:1052C00090E00E94742A51105A94F1E08F1A9108CC
:1052D000BFCF843619F0893609F077C0F80137FE60
:1052E0006BC060817181828193810C5F1F4FF32DB0
:1052F000FF763F2E97FF09C0909580957095619538
:105300007F4F8F4F9F4F689437F82AE030E0A50118
:105310000E94A42AC82ECA188C2C432C36FE0CC01E
:10532000E89440F8C91440F434FE05C032FC03C0D0
:10533000F32DFE7E4F2E892C44FE95C0FE01EC0D10
:10534000F11D8081803309F087C0242D297E422EF3
:10535000842D8870582E43FC95C040FE8FC09C2C35
:10536000821418F42C0C922C981844FE91C0B701AA
:1053700080E390E00E94742A42FE09C088E790E032
:1053800041FE02C088E590E0B7010E94742AC9146A
:1053900008F48AC0CA94D12C9FEFC91AD90ACA0C42
:1053A000DB1CF60182916F01B70190E00E94742A24
:1053B000AC14BD04B1F74FCF60817181072E000C92
:1053C000880B990B0E5F1F4F92CFD32CE894D4F823
:1053D0002AE030E0853739F1232D297FD22E8F3610
:1053E00001F148F48835A9F0F701868197812B9661
:1053F000E2E10C941E2B803749F08837A9F7D4FEE0
:1054000002C06894D2F820E130E00DC06894D4F86E
:10541000F6CF34FE03C0822F8660D82E20E132E022
:1054200002C028E030E0F801D7FE0FC06081718132
:10543000828193810C5F1F4FA5010E94A42AC82E70
:10544000CA183D2CE89437F867CF6081718190E0ED
:1054500080E00E5F1F4FF0CF42FC02C0839478CFF4
:105460008394839475CF842D867809F471CFF6CF19
:10547000B70180E290E00E94742A83948214C0F302
:10548000512C73CF522C5818821408F46ECFF8CFD9
:10549000842D867809F47BCF8BE241FE80E247FCC5
:1054A0008DE2B70190E071CFB70180E390E00E94F8
:1054B000742A9A946CCF8FEF9FEF99CFFC010590DF
:1054C000615070400110D8F7809590958E0F9F1F06
:1054D0000895FC016150704001900110D8F780954B
:1054E00090958E0F9F1F08950F931F93CF93DF9377
:1054F000182F092FEB018B8181FD09C01FEF0FEFE2
:10550000812F902FDF91CF911F910F91089582FFEE
:1055100014C02E813F818C819D81281739073CF46E
:10552000E881F981CF0101969983888310838E8168
:105530009F8101969F838E83E3CFE885F985812F34
:105540000995892BA1F3DACFFA01AA27283051F166
:10555000203181F1E8946F936E7F6E5F7F4F8F4FA4
:105560009F4FAF4FB1E03ED0B4E03CD0670F781F03
:10557000891F9A1FA11D680F791F8A1F911DA11DE8
:105580006A0F711D811D911DA11D20D009F4689421
:105590003F912AE0269F11243019305D3193DEF6C9
:1055A000CF010895462F4770405D4193B3E00FD07F
:1055B000C9F7F6CF462F4F70405D4A3318F0495D6A
:1055C00031FD4052419302D0A9F7EACFB4E0A6954D
:1055D0009795879577956795BA95C9F7009761056F
:1055E000710508959B01AC010A2E069457954795C5
:1055F00037952795BA95C9F7620F731F841F951FBA
:10560000A01D08952F923F924F925F926F927F92CA
:105610008F929F92AF92BF92CF92DF92EF92FF92C2
:105620000F931F93CF93DF93CDB7DEB7CA1BDB0B6E
:105630000FB6F894DEBF0FBECDBF09942A88398813
:1056400048885F846E847D848C849B84AA84B9841A
:10565000C884DF80EE80FD800C811B81AA81B98126
:10566000CE0FD11D0FB6F894DEBF0FBECDBFED013A
:065670000895F894FFCF3D
:10567600FFFFFFFF050000000000803FFFFFFFFF68
:10568600FF000000009402F4012102FC02520230E5
:10569600024402000000007F075207C70728074B95
:1056A60007380729070D0A0074656C656D65747205
:1056B600792C0025692C00302C002D312C00256911
:1056C600002400616C7469636F6E6669672C004123
:1056D6006C746944756F00256C752C0025693B0A4E
:1056E60000746573745472616D652C004265617255
:1056F60020616C74696D65746572732061726520D2
:0E5706007468652062657374212121212C00D6
:00000001FF
