:100000000C945E010C9486010C9486010C9486017C
:100010000C9486010C9486010C9486010C94471470
:100020000C9486010C9486010C9486010C94860134
:100030000C9486010C9486010C9486010C94860124
:100040000C94FB140C9486010C94C9140C94A31406
:100050000C9486010C9486010C9486010C94860104
:100060000C9445150C94860107634236B79BD8A7BC
:100070001A39685618AEBAAB558C1D3CB7CC5763CD
:10008000BD6DEDFD753EF6177231BF000000803F7B
:1000900008000000BE922449123EABAAAA2ABECD97
:1000A000CCCC4C3E00000080BEABAAAAAA3E000009
:1000B0000000BF000000803F000000000008417801
:1000C000D3BB4387D1133D190E3CC3BD4282AD2B38
:1000D0003E68EC8276BED98FE1A93E4C80EFFFBE30
:1000E00001C4FF7F3F0000000000696E76616C690B
:1000F0006420636F6E660024554E4B4E4F574E3B47
:1001000000244B303B0A00244F4B3B0A0054656CE3
:10011000656D657472792064697361626C65640AE7
:100120000054656C656D6574727920656E61626CF2
:1001300065640A00244F4B3B0A004E6F7420696DC2
:10014000706C656D656E746564200A00636F6E6621
:10015000696720726573657465640A00244F4B3BC0
:100160000A004E6F7420696D706C656D656E746504
:100170006400244F4B3B0A004E6F7420696D706C15
:10018000656D656E74656400244F4B3B0A00244B1B
:100190004F3B0A00244F4B3B0A0024656E643B0A28
:1001A000002473746172743B0A00244F4B3B0A00B5
:1001B0004E6F7420696D706C656D656E7465640A50
:1001C00000244F4B3B0A00244F4B3B0A004E6F74F8
:1001D00020696D706C656D656E7465640A00244FEE
:1001E0004B3B0A00244F4B3B0A00244F4B3B0A0079
:1001F000244F4B3B0A004E6F7420696D706C656D27
:10020000656E74656400436F6E74696E75697479A8
:10021000206F6E200A00436F6E74696E7569747981
:10022000206F6666200A0024656E643B0A00247312
:10023000746172743B0A00244F4B3B0A004E6F748A
:1002400020696D706C656D656E7465640A000000F0
:100250000000240027002A000000000023002600E0
:10026000290000000008000201000003040700004C
:1002700000000000000053746172742070726F6798
:1002800072616D0A002C00010204081020408001F8
:1002900002040810200102040810200000000025BC
:1002A0000028002B000404040404040404020202D5
:1002B00002020203030303030302641611241FBE98
:1002C000CFEFD8E0DEBFCDBF11E0A0E0B1E0EEE4BB
:1002D000F6E502C005900D92AE39B107D9F723E0DB
:1002E000AEE9B1E001C01D92AA3CB207E1F711E00E
:1002F000CEE5D1E004C02197FE010E940628CD354D
:10030000D107C9F70E949D160C94252B0C94000070
:10031000982F2091090381E0213208F043C0809199
:10032000E5028111FCCF8091080332E03093E502B1
:100330009093E4029FEF9093E3021092E2022093E5
:10034000E102A8EEB2E0E1ECF2E090E0291331C066
:100350001092C0029091C002880F892B8093C00236
:100360008091BF02813049F51092BF028091C00296
:100370008093BB008091BC0083FDF8CF85EC809317
:10038000BC008091E5028230E1F38091E3028F3F6F
:10039000B1F08091E3028032A1F08091E3028033DA
:1003A00091F084E01092E702109209031092E602A5
:1003B00008953D9131939F5FC9CF85EEE0CF80E0F6
:1003C000F1CF82E0EFCF83E0EDCF0895089589303B
:1003D000910521F481E08093870208950D9719F427
:1003E00081E0809386020895AF92BF92CF92DF9210
:1003F000EF92FF920F931F93CF93DF936C017B01DA
:100400008B01040F151FEB015E01AE18BF08C0176A
:10041000D10759F06991D601ED91FC910190F081DD
:10042000E02DC6010995892B79F7C501DF91CF91A0
:100430001F910F91FF90EF90DF90CF90BF90AF9002
:100440000895FC01538D448D252F30E0842F90E0DA
:10045000821B930B541710F0CF96089501970895BF
:10046000FC01918D828D981761F0A28DAE0FBF2F88
:10047000B11D5D968C91928D9F5F9F73928F90E0DE
:1004800008958FEF9FEF0895FC01918D828D98174D
:1004900031F0828DE80FF11D858D90E008958FEF8A
:1004A0009FEF0895FC01918D228D892F90E0805C53
:1004B0009F4F821B91098F73992708958AE093E0DB
:1004C0000E94520221E0892B09F420E0822F089536
:1004D00080E090E0892B29F00E945E0281110C944B
:1004E00000000895FC01A48DA80FB92FB11DA35AD7
:1004F000BF4F2C91848D90E001968F739927848F44
:10050000A689B7892C93A089B1898C918370806466
:100510008C93938D848D981306C00288F389E02D07
:1005200080818F7D80830895EF92FF920F931F93B8
:10053000CF93DF93EC0181E0888F9B8D8C8D981396
:100540001AC0E889F989808185FF15C09FB7F894A2
:10055000EE89FF896083E889F989808183708064EE
:1005600080839FBF81E090E0DF91CF911F910F9139
:10057000FF90EF900895F62E0B8D10E00F5F1F4F48
:100580000F731127E02E8C8D8E110CC00FB607FC57
:10059000FACFE889F989808185FFF5CFCE010E94E5
:1005A0007202F1CFEB8DEC0FFD2FF11DE35AFF4FDF
:1005B000F0829FB7F8940B8FEA89FB898081806273
:1005C000CFCF0F931F93CF93DF938C01D0E0C0E088
:1005D000F801EC0FFD1F6491662341F08AE093E07F
:1005E0000E949402892B11F02196F2CFCE01DF9167
:1005F000CF911F910F910895CF93DF93EC01888DD8
:100600008823B9F0AA89BB89E889F9898C9185FD8D
:1006100003C0808186FD0DC00FB607FCF7CF8C911B
:1006200085FFF2CF808185FFEDCFCE010E9472025F
:10063000E9CFDF91CF910895833081F028F48130A4
:1006400099F08230A9F008958730A9F08830C9F078
:100650008430B1F4809180008F7D03C08091800050
:100660008F7780938000089584B58F7784BD089537
:1006700084B58F7DFBCF8091B0008F778093B000E1
:1006800008958091B0008F7DF9CFCF93DF93282F0D
:1006900030E0F901EE59FD4F8491F901E957FD4F22
:1006A000D491F901EB55FD4FC491CC23A1F08111F8
:1006B0000E941C03EC2FF0E0EE0FFF1FE85AFD4FE5
:1006C000A591B491EC91ED2381E090E009F480E0F4
:1006D000DF91CF91089580E090E0FACF1F93CF9300
:1006E000DF93282F30E0F901EE59FD4F8491F90195
:1006F000E957FD4FD491F901EB55FD4FC491CC233F
:10070000A9F0162F81110E941C03EC2FF0E0EE0FD0
:10071000FF1FE556FD4FA591B4918FB7F894EC916A
:10072000111108C0D095DE23DC938FBFDF91CF91EC
:100730001F910895DE2BF8CF10929E0210929D0219
:100740001092E702109209031092E50281E0809373
:10075000E4021092BF0261E082E10E946E0361E058
:1007600083E10E946E03E9EBF0E080818E7F80835D
:1007700080818D7F808388E48093B80085E48093B6
:10078000BC0085EE91E090938B0280938A0286EE06
:1007900091E09093890280938802089590910C01D2
:1007A00089130BC0E9EBF2E0E4919FEF90930C0109
:1007B000E13049F028F0E23061F060E00C946E0323
:1007C00010926E00FACF90916F009D7F90936F0012
:1007D000F4CF909170009D7F9093700091E0909382
:1007E000B0009091B100987F94609093B100109206
:1007F000B300E3CFCF93DF9390E0FC01E957FD4FC7
:1008000024918B559D4FFC0184918823C9F090E081
:10081000880F991FFC01E25BFD4FA591B491FC018B
:10082000E556FD4FC591D49161110DC09FB7F89465
:100830008C91209582238C938881282328839FBFC5
:10084000DF91CF910895623051F49FB7F8943C91B5
:10085000822F809583238C93E8812E2BEFCF8FB747
:10086000F894EC912E2B2C938FBFEACF4F925F928E
:100870006F927F928F929F92AF92BF92CF92DF92B0
:10088000EF92FF920F931F93CF93DF9300D000D08E
:100890001F92CDB7DEB78C012A013B0180910C017C
:1008A0008C30C9F08F3F09F47FC00F900F900F90EC
:1008B0000F900F90DF91CF911F910F91FF90EF90CC
:1008C000DF90CF90BF90AF909F908F907F906F9070
:1008D0005F904F900895E9EBF2E084918D8387FD5E
:1008E000E4CF61E08CE00E94FA038D81882321F03F
:1008F0009D81923009F05CC14801B12CA12C60E0CF
:1009000072E18AE790E0A50198010E94E727298318
:100910003A834B835C8369017A0181E0C81AD1086C
:10092000E108F1089FEFC916D104E104F10409F0D0
:100930000CF413C160E472E48FE090E0A50198012B
:100940000E94E72769017A0181E0C81AD108E1080D
:10095000F1089D81923009F098C08FEFC816D1043C
:10096000E104F10409F00CF4DDC160E970ED83E00D
:1009700090E0A50198010E94E72769017A0191E0C2
:10098000C91AD108E108F1088FEFC816D104E104B3
:10099000F10411F00CF0A3C183E09091B100987FB5
:1009A000892B8093B100E1C08CE080930C01E9EBCE
:1009B000F2E094919D839F3F09F477CF913029F124
:1009C00058F0923009F43FC08D8187FD6ECF61E011
:1009D0008CE00E94FA038CCF14BC15BC84B58260F5
:1009E00084BD85B5816085BDE1EBF2E0E491F0E086
:1009F000EE0FFF1FE556FD4F85919491E3E9F2E07C
:100A0000E491E09390021D826CCF109280001092CE
:100A100081008091810088608093810080918100B5
:100A2000816080938100E1EBF2E0E491F0E0EE0F71
:100A3000FF1FE556FD4F85919491E3E9F2E0E491C3
:100A4000E0938F024ECF1092B0001092B1008091CF
:100A5000B00082608093B0008091B100816080938B
:100A6000B100E1EBF2E0E491F0E0EE0FFF1FE5569C
:100A7000FD4F8591949190938E0280938D02E3E9CE
:100A8000F2E0E491E0938C022CCF9FEFC916D104E1
:100A9000E104F10409F00CF489C068E478EE81E027
:100AA00090E0A50198010E94E72769017A0181E0A1
:100AB000C81AD108E108F1089D81992309F428C1D9
:100AC0009FEFC916D104E104F10409F00CF41EC132
:100AD00062E17AE780E090E0A50194010E94E727B7
:100AE00069017A0181E0C81AD108E108F1089D8105
:100AF000992309F4EBC08FEFC816D104E104F10487
:100B000011F008F0BFC086E048CF64E274EF80E0E7
:100B100090E0A50194010E94E72769017A0181E034
:100B2000C81AD108E108F10885E09FEFC916D10481
:100B3000E104F10409F008F430CF62E17AE780E0E3
:100B400090E0A50194010E94E72769017A0191E0F4
:100B5000C91AD108E108F108CECF81E09D81911139
:100B60001CCF95B5987F892B85BD2FEF3FEFA9014D
:100B7000411451046104710409F043C09D81913016
:100B800009F45EC0923009F46DC091118ECEC7BCDD
:100B90002093990230939A0240939B0250939C02B7
:100BA00080916E00826080936E007FCE82E0D6CF0F
:100BB000B12CA12C60E072E18AE790E0A5019801D8
:100BC0000E94E72769017A0181E0C81AD108E1088B
:100BD000F108C114D10491E0E906F10404F591E0B3
:100BE0008D81813011F680918100887F892B8093DF
:100BF00081002FEF3FEFA9014114510461047104FA
:100C0000F9F0D801AA0FBB1FA30192010E940C2882
:100C100028EE33E040E050E00E94C527AFCF68E403
:100C200078EE81E090E0A50198010E94E727690134
:100C30007A0181E0C81AD108E108F10893E0D0CF29
:100C4000D0928900C092880020939502309396023A
:100C5000409397025093980280916F008260809336
:100C60006F0023CEC092B300209391023093920282
:100C7000409393025093940280917000826080931D
:100C8000700013CEC980DA80EB80FC809AE0F59486
:100C9000E794D794C7949A95D1F791E0C91AD108EF
:100CA000E108F10887E079CEC980DA80EB80FC802A
:100CB0008AE0F594E794D794C7948A95D1F791E0A8
:100CC000C91AD108E108F10885E04BCF8FEFC816AB
:100CD000D104E104F10409F038F784E042CF68E47C
:100CE00078EE81E090E0A50198010E94E727690174
:100CF0007A0191E0C91AD108E108F1088FEFC8160E
:100D0000D104E104F10411F00CF0FFCE84E045CEF3
:100D10008FEFC816D104E104F10411F00CF0D8CE25
:100D200083E01FCF82E039CE3FB7F8948091E6018F
:100D30009091E701A091E801B091E90126B5A89B47
:100D400005C02F3F19F00196A11DB11D3FBFBA2F5D
:100D5000A92F982F8827BC01CD01620F711D811D1D
:100D6000911D42E0660F771F881F991F4A95D1F7A2
:100D700008958F929F92AF92BF92CF92DF92EF929F
:100D8000FF924B015C010E9494066B017C010E9462
:100D900094066C197D098E099F09683E7340810590
:100DA0009105A8F321E0821A9108A108B10888EE04
:100DB000C80E83E0D81EE11CF11C81149104A1042B
:100DC000B10429F7FF90EF90DF90CF90BF90AF90E4
:100DD0009F908F9008952FB7F8946091E2017091E1
:100DE000E3018091E4019091E5012FBF089585ED25
:100DF0008093BC008091BC0084FDFCCF1092E50282
:100E000008952091BE01260F3327331F213231056B
:100E1000ECF42091E502FC0190E080E0243069F0E0
:100E200082E00895A091BE012191AC0142565E4F2F
:100E3000A40FB52FB11D2C930196861798F38091BE
:100E4000BE01680F6093BE0180E0089581E00895BF
:100E50000895E0919E0280919D02E81730F4F0E041
:100E6000E156FD4F808190E008958FEF9FEF089548
:100E700090919E0280919D022FEF3FEF981748F4CA
:100E8000E92FF0E0E156FD4F208130E09F5F909325
:100E90009E02C901089580919D0290919E02891B36
:100EA000990B0895CF92DF92EF92FF920F931F93C9
:100EB000CF93DF937C01CB018A012091E6022223AC
:100EC00089F0EB016B01C40ED51ECC15DD0569F070
:100ED0006991D701ED91FC910190F081E02DC7015E
:100EE0000995F3CF642F0E940107C801DF91CF91CC
:100EF0001F910F91FF90EF90DF90CF900895CF93C7
:100F0000DF931F92CDB7DEB769832091E6022223DB
:100F1000F9F020910903203258F021E030E0FC0183
:100F20003383228390E080E00F90DF91CF9108958A
:100F30008091E702E82FF0E0E851FD4F998190831E
:100F40008F5F8093E7028093090381E090E0ECCF0C
:100F500061E0CE0101960E940107F7CFCF93C82F21
:100F600081E08093E60287E7809308031092E7020E
:100F70001092090364EF87EA93E00E947F076C2FC9
:100F800087EA93E00E947F0781E0CF910C9488016B
:100F900090E080E00895CF93DF93CDB7DEB7E89778
:100FA0000FB6F894DEBF0FBECDBF10923B02109279
:100FB0003A0210923D0210923C0210923F021092AF
:100FC0003E0281E090E0909341028093400283E0F2
:100FD00090E0909343028093420210924902109253
:100FE000480210924B0210924A0210924D02109247
:100FF0004C0222E330E030934502209344021092E9
:1010000047021092460228EB31E030934F022093C2
:101010004E0225E030E0309351022093500290932D
:101020005302809352021092550210925402109271
:1010300057021092560240E056E960E070E040939B
:1010400058025093590260935A0270935B021092B7
:101050005D0210925C0220E032E030935F02209348
:101060005E0210926102109260029093630280937C
:10107000620210926502109264028AE090E09093FE
:10108000670280936602109269021092680288E7F4
:1010900090E090936B0280936A0210926D0210921E
:1010A0006C0210926F0210926E0288E3EAE3F2E0A3
:1010B000DE01119601900D928A95E1F7FE013196BD
:1010C000AE01495C5F4F90E080E0E417F50731F036
:1010D0002191820F911D27FD9A95F7CF9093710270
:1010E00080937002E8960FB6F894DEBF0FBECDBFB6
:1010F000DF91CF91089548EE53E060E070E0809179
:101100000702909108020E9436046CED75E080E0C1
:1011100090E00E94B9068CE00C94CE03CF93DF934D
:10112000CAE0D0E048EE53E060E070E080E496E092
:101130000E94360462E370E080E090E00E94B9060D
:101140008CE00E94CE03219769F768EE73E080E09F
:1011500090E0DF91CF910C94B90649E150E060E056
:1011600070E080910702909108020E9436046CE2C0
:1011700071E080E090E00E94B9068CE00C94CE0310
:10118000CF92DF92EF92FF920F931F93CF93DF9353
:101190006B017C0124E6C216D104E104F1040CF4D5
:1011A00046C024E630E040E050E00E94E727890195
:1011B00064E6629FC001639F900D1124092E000C0C
:1011C000AA0BBB0BA7019601281B390B4A0B5B0B23
:1011D000CA01B9012AE030E040E050E00E94E72770
:1011E000E901EE24E394F12C1016110644F11C16CB
:1011F0001D067CF401E010E00E94AD0862E370E09F
:1012000080E090E00E94B9060F5F1F4FC017D10722
:101210009CF768E873E180E090E0DF91CF911F9147
:101220000F91FF90EF90DF90CF900C94B9062AE0D9
:1012300030E040E050E00E94E727E901D8CF0E946B
:101240007B0862E370E080E090E00E94B9063FEF27
:10125000E31AF30A0E151F0594F7C9CF109229025D
:1012600010927F0210927E0210922C0210922B029A
:1012700010922A0210922802109280021092760296
:1012800010927702109278021092790210927202F4
:1012900010927302109274021092750210928702DB
:1012A00010928602109224021092250210922602B9
:1012B0001092270208959091E5029111FCCF282FFA
:1012C00091E09093E5029093E4023FEF3093E302C4
:1012D0001092E202380F3093E1029093C002909195
:1012E000C0029E6E9093C0029091BF02913019F59A
:1012F0001092BF029091C0029093BB009091BC00ED
:1013000093FDF8CF95EC9093BC009091E50291305D
:10131000E1F39091E202981710F42091E202A1EC1F
:10132000B2E0EFE9F2E080E0821307C010929E0283
:1013300080939D02089595EEE6CF9D9191938F5FE6
:10134000F3CF91E09093E60297E790930803109211
:10135000E70210920903682F87EA93E00E947F0753
:1013600081E00E94880181E090E00E945B0987EAA9
:1013700093E00E9438070895CF93DF9391E0909314
:10138000E60297E7909308031092E7021092090390
:10139000682F87EA93E00E947F0781E00E9488011E
:1013A00082E090E00E945B0987EA93E00E943807A0
:1013B000D82F80E0C82F87EA93E00E9438078C2B53
:1013C0009D2BDF91CF910895FC0101900020E9F75A
:1013D0003197AF01481B590BBC018AE093E00C9494
:1013E000F401CF93DF930E94E102EC0185E391E0E9
:1013F0000E94E4098C0F9D1FDF91CF9108952F92D9
:101400003F924F925F926F927F928F929F92AF9294
:10141000BF92CF92DF92EF92FF920F931F93CF93E1
:10142000DF93CDB7DEB7C15AD1090FB6F894DEBF4E
:101430000FBECDBF1A821982FE01339624E9DF0167
:101440001D922A95E9F78E0109561F4FF801119256
:10145000119228E0DF011D922A95E9F7209185027B
:10146000222309F438C1892E982EA72EB62E0E9469
:10147000EB06C0908102D0908202E0908302F0904F
:1014800084026C197D098E099F09693C71058105EB
:10149000910508F420C10E94EB06609381027093CD
:1014A0008202809383029093840260908002B091C4
:1014B0007F02CF55DF4FB883C15AD04020907A02C7
:1014C00030907B0240907C0250907D0280917E02A1
:1014D00081111BC1712CC12CD12C68E371E0CE01AC
:1014E00001960E9442285F924F923F922F9283E48E
:1014F000E82E81E0F82EFF92EF921F930F930E9447
:101500004D28B801CE0101960E9442281F926F9289
:10151000FF92EF921F930F930E944D28B801CE01C6
:1015200001960E9442281F92CF55DF4F8881C15AF1
:10153000D0408F93FF92EF921F930F930E944D28FC
:10154000B801CE0101960E944228809179028F93C2
:10155000809178028F93809177028F9380917602A9
:101560008F93FF92EF921F930F930E944D28B80123
:10157000CE0101960E9442281F927F92FF92EF9225
:101580001F930F930E944D280FB6F894DEBF0FBE35
:10159000CDBFB801CE0101960E944228809175020C
:1015A0008F93809174028F93809173028F938091B7
:1015B00072028F93FF92EF921F930F930E944D2818
:1015C000B801CE0101960E944228DF92CF92FF928D
:1015D000EF921F930F930E944D28B801CE01019600
:1015E0000E9442288F929F92AF92BF92FF92EF92F9
:1015F0001F930F930E944D28B801CE0101960E94BF
:1016000042280FB6F894DEBF0FBECDBF80913E02D8
:1016100090913F026AE471E0039749F08AE00E94EA
:10162000450367E471E0892B11F06BE471E0CE01B2
:1016300001960E94422885E892E00E94E102809192
:101640003E0290913F026AE471E0039781F08BE0E3
:101650000E9445037C0164E170E080E090E00E941C
:10166000B90667E471E0EF2811F06BE471E0CE0198
:1016700001960E944228FE01319690E080E021917F
:10168000820F911D27FD9A950E171F07C1F7992705
:101690009F938F938EE491E09F938F931F930F936B
:1016A0000E944D28B801CE0101960E9442286EE6A4
:1016B00071E0CE0101960E94422881E591E00E94EE
:1016C000E409CE0101960E94E4090F900F900F905B
:1016D0000F900F900F90CF55DF4F0FB6F894DEBFED
:1016E0000FBECDBFDF91CF911F910F91FF90EF9073
:1016F000DF90CF90BF90AF909F908F907F906F9032
:101700005F904F903F902F90089581E0D12C9AE008
:1017100029163104410451040CF080E0C82E7724CE
:101720007394DBCE0F931F93CF93DF930AE312E002
:10173000C0E2D0E0F80161918F01CE010E94FE234A
:101740002196C835D105B1F7DF91CF911F910F9147
:1017500008950E942E098091580290915902A091FB
:101760005A02B0915B028C3221E09207A105B105CB
:1017700009F452C0803B24E09207A105B10509F4A9
:101780004BC0803629E09207A105B10509F444C099
:10179000803C22E19207A105B105F1F1803825E2F4
:1017A0009207A105B105C1F1803428E39207A10594
:1017B000B10591F181152BE49207A105B10561F105
:1017C000803820E79207A105B10531F1811526E99E
:1017D0009207A105B10501F1811521EE9207A1053E
:1017E000B105D1F0811522EC920721E0A207B105E5
:1017F00099F081159448A340B10571F080E096E915
:10180000A0E0B0E08093580290935902A0935A024E
:10181000B0935B020E94920B80913A0290913B023E
:10182000892B09F075C080E090E0A0E8BFE38093C9
:10183000080190930901A0930A01B0930B016091F4
:10184000440270914502072E000C880B990B0E94F0
:101850002325209108013091090140910A015091FE
:101860000B010E9479240E94EB24072E000C880BA8
:10187000990B60932002709321028093220290932F
:10188000230280914E0290914F0290930802809320
:1018900007028091500290915102092E000CAA0B70
:1018A000BB0B8093040190930501A0930601B093B4
:1018B00007018FEF9FEF90930101809300018091CA
:1018C0003E0290913F02039751F010920101109255
:1018D00000018AE090E090930E0280930D028091C7
:1018E000400290914102039791F080910001909104
:1018F000010101969093010180930001880F991FC7
:10190000FC01E35FFD4F8BE090E0918380830895BD
:1019100088E499EFA1E5B0E48ACFEF92FF920F93AC
:101920001F93CF93DF93CDB7DEB7E8970FB6F89448
:10193000DEBF0FBECDBF0E94CB078AE3E82E82E058
:10194000F82E00E210E0C8010E94F623F70181930F
:101950007F010F5F1F4F08351105A9F740917002F5
:101960005091710288E3EAE3F2E0DE011196019002
:101970000D928A95E1F7FE013196BE01695C7F4FB9
:1019800030E020E0E617F70731F08191280F311D94
:1019900087FD3A95F7CF81E04217530709F080E0C1
:1019A000E8960FB6F894DEBF0FBECDBFDF91CF91A2
:1019B0001F910F91FF90EF9008958F929F92AF9299
:1019C000BF92CF92DF92FF920F931F93CF93DF933B
:1019D00000D000D01F92CDB7DEB72AE0AE014F5F36
:1019E0005F4F6A010E94C423F60101900020E9F7CD
:1019F0003197FE2EFC1868EB7BE080E090E00E94BF
:101A0000B90656018A2D8C198F15F0F468EE73E033
:101A100080E090E00E94B906F50101915F0100535A
:101A200009F40AE010E0912C812C0E94AD08FFEF30
:101A30008F1A9F0A801691062CF76AEF70E080E0FB
:101A400090E00E94B906F1CF0F900F900F900F9089
:101A50000F90DF91CF911F910F91FF90DF90CF906A
:101A6000BF90AF909F908F9008954F925F926F922A
:101A70007F92AF92BF92CF92DF92EF92FF920F933D
:101A80001F93CF93DF93CDB7DEB7C25BD1090FB6FB
:101A9000F894DEBF0FBECDBF8C010E94E40985E340
:101AA00091E00E94E409D8018C91813649F48DE3DC
:101AB00092E00E94E10287E392E00E94E1023AC2D2
:101AC000823609F02AC28EE292E00E94E1021A8276
:101AD0001982FE01339686E7DF011D928A95E9F7A8
:101AE0008E0107581F4FF8011192119288E0DF0113
:101AF0001D928A95E9F70E948D0C811104C08AEE2F
:101B000090E00E94E10263E571E0CE0101960E943F
:101B1000422880913B028F9380913A028F9383E415
:101B2000E82E81E0F82EFF92EF921F930F930E9410
:101B30004D28B801CE0101960E94422880913D02B5
:101B40008F9380913C028F93FF92EF921F930F939C
:101B50000E944D28B801CE0101960E944228809132
:101B60003F028F9380913E028F93FF92EF921F93DB
:101B70000F930E944D28B801CE0101960E94422881
:101B8000809141028F93809140028F93FF92EF9258
:101B90001F930F930E944D28B801CE0101960E9419
:101BA0004228809143028F93809142028F93FF924B
:101BB000EF921F930F930E944D28B801CE0101961A
:101BC0000E944228809147028F93809146028F9312
:101BD000FF92EF921F930F930E944D280FB6F89437
:101BE000DEBF0FBECDBFB801CE0101960E944228D4
:101BF000809145028F93809144028F93FF92EF92E0
:101C00001F930F930E944D28B801CE0101960E94A8
:101C100042286FE571E0CE0101960E9442286CE9EE
:101C200071E0CE0101960E9442281F9281E08F93BD
:101C3000FF92EF921F930F930E944D28B801CE019F
:101C400001960E9442281F9289E08F93FF92EF92A3
:101C50001F930F930E944D28B801CE0101960E9458
:101C60004228809149028F93809148028F93FF927E
:101C7000EF921F930F930E944D28B801CE01019659
:101C80000E94422880914B028F9380914A028F9349
:101C9000FF92EF921F930F930E944D28B801CE013F
:101CA00001960E94422880914D028F9380914C02B0
:101CB0008F93FF92EF921F930F930E944D280FB6C0
:101CC000F894DEBF0FBECDBFB801CE0101960E94D1
:101CD000422880914F028F9380914E028F93FF9202
:101CE000EF921F930F930E944D28B801CE010196E9
:101CF0000E944228809151028F93809150028F93CD
:101D0000FF92EF921F930F930E944D28B801CE01CE
:101D100001960E944228809153028F938091520233
:101D20008F93FF92EF921F930F930E944D28B8015B
:101D3000CE0101960E944228809155028F93809196
:101D400054028F93FF92EF921F930F930E944D289E
:101D5000B801CE0101960E944228809157028F93CC
:101D6000809156028F93FF92EF921F930F930E94E0
:101D70004D28B801CE0101960E94422880915B0255
:101D80008F9380915A028F93809159028F93809103
:101D900058028F9387E691E09F938F931F930F9341
:101DA0000E944D280FB6F894DEBF0FBECDBFB8011C
:101DB000CE0101960E94422880915D028F9380910E
:101DC0005C028F93FF92EF921F930F930E944D2816
:101DD000B801CE0101960E94422880915F028F9344
:101DE00080915E028F93FF92EF921F930F930E9458
:101DF0004D28B801CE0101960E94422880916102CF
:101E00008F93809160028F93FF92EF921F930F93B5
:101E10000E944D28B801CE0101960E94422880916F
:101E200063028F93809162028F93FF92EF921F93D0
:101E30000F930E944D28B801CE0101960E944228BE
:101E4000809165028F93809164028F93FF92EF924D
:101E50001F930F930E944D28B801CE0101960E9456
:101E60004228809167028F93809166028F93FF9240
:101E7000EF921F930F930E944D280FB6F894DEBF88
:101E80000FBECDBFB801CE0101960E9442288091BD
:101E900069028F93809168028F93FF92EF921F9354
:101EA0000F930E944D28B801CE0101960E9442284E
:101EB000FE0131960F900F900F900F900F900F90A2
:101EC00090E080E02191820F911D27FD9A950E17D9
:101ED0001F07C1F799279F938F938CE691E09F93FB
:101EE0008F931F930F930E944D28B801CE01019646
:101EF0000E94422881E591E00E94E409CE0101960A
:101F00000E94E40987E292E00E94E1020F900F90A4
:101F10000F900F900F900F900DC0833631F5809188
:101F20001F0281111DC081E080931F0286E192E0B3
:101F30000E94F109CE54DF4F0FB6F894DEBF0FBEFA
:101F4000CDBFDF91CF911F910F91FF90EF90DF9068
:101F5000CF90BF90AF907F906F905F904F9008951B
:101F600010921F0286E092E0E3CF843639F40E949B
:101F7000CB070E94920B0E94A90BDCCF853639F467
:101F800086EF91E00E94F10980EF91E096CD8636D0
:101F900031F481E0809339028AEE91E08ECD87366C
:101FA00029F41092390284EE91E087CD883619F435
:101FB0008EED91E082CD893609F4BCCF8B3621F5C8
:101FC00011968C9189831A82CE0101960E94592321
:101FD00097FDB0CFF8011281CE0101960E943B23FC
:101FE0008130910549F0029709F0A4CF61E01634E1
:101FF00009F460E08DE005C061E0163409F460E0AA
:1020000089E00E946E0396CF8C3639F48DEC91E016
:102010000E94F10987EC91E050CD8D3669F411965C
:102020008C91813329F41092390281EC91E045CDF5
:1020300081E080933902F9CF8E3639F480EB91E05C
:102040000E94F1098AEA91E038CD8F3609F054C038
:1020500081EA91E00E94E1021A821982FE01339620
:1020600082E6DF011D928A95E9F78E0107581F4F1E
:10207000F8011192119288E0DF011D928A95E9F72B
:1020800061E771E0CE0101960E9442286CE771E0A1
:10209000CE0101960E944228FE0131969E012B59E5
:1020A0003F4F90E080E04191840F911D47FD9A954C
:1020B000E217F307C1F799279F938F938EE491E07E
:1020C0009F938F931F930F930E944D28B801CE01C9
:1020D00001960E9442286EE671E0CE0101960E94B0
:1020E000422881E591E00E94E409CE0101960E9418
:1020F000E4098AE991E008CF803709F02DC1CF5477
:10210000DF4F19830883C15BD0401A821982FE0118
:10211000339682E6DF011D928A95E9F7B12CA12C56
:10212000412C512C320110E000E0F12CE12CAE01E9
:102130004F545F4F6CE971E0CF54DF4F8881998134
:10214000C15BD0400E9480236C01009709F1B1E08F
:10215000EB16F10461F40E943B238C01B601CE0121
:1021600001960E9442288FEFE81AF80AE0CFE2E0D9
:10217000EE16F10429F40E9459232B013C01EECF05
:10218000F3E0EF16F10479F70E943B235C01EBCFFB
:1021900094E0E916F1041CF48EE891E08ECCFE0187
:1021A00031969E012B593F4F90E080E04191840F82
:1021B000911D47FD9A95E217F307C1F78A151B0495
:1021C00059F7F8013197EA31F10510F5E651FF4E64
:1021D0000C9406280411241129112E1133113811E1
:1021E0003D11421147114C11511156115B116011F3
:1021F00065116A11731178117D11821187118C118B
:10220000911196119B11A01150923B0240923A02FB
:1022100088E3EAE3F2E0DE01A758BF4F01900D9298
:102220008A95E1F7FE01E758FF4FAF014A5C5F4F27
:1022300090E080E0E417F50709F487C02191820F50
:10224000911D27FD9A95F6CF50923D0240923C0297
:10225000DFCF50923F0240923E02DACF50924102CD
:1022600040924002D5CF5092430240924202D0CFDA
:102270005092450240924402CBCF50924702409286
:102280004602C6CF5092490240924802C1CF5092B6
:102290004B0240924A02BCCF50924D0240924C02F7
:1022A000B7CF50924F0240924E02B2CF509251029D
:1022B00040925002ADCF5092530240925202A8CFAA
:1022C0005092550240925402A3CF5092570240922E
:1022D00056029ECF409258025092590260925A0282
:1022E00070925B0295CF50925D0240925C0290CF5B
:1022F00050925F0240925E028BCF509261024092F8
:10230000600286CF509263024092620281CF509267
:102310006502409264027CCF50926702409266024E
:1023200077CF509269024092680272CF50926B024E
:1023300040926A026DCF50926D0240926C0268CF5B
:1023400050926F0240926E0263CF9093710280931D
:10235000700284E991E0B1CB813749F40E94920B7D
:102360000E948D0C0E94A90B88E891E0A6CB8237D1
:1023700039F488E791E00E94F10982E791E09DCB72
:10238000833739F482E691E00E94F1098CE591E00F
:1023900094CB843749F40E94CB070E94920B0E9491
:1023A000A90B8CE491E089CB873739F48AE391E07B
:1023B0000E94F10984E391E080CB8937A9F411965A
:1023C0008C91813351F481E291E00E94E10281E03D
:1023D0008093850287E091E070CB8DE091E00E94D0
:1023E000E10210928502F6CF803219F481E091E08B
:1023F00064CB87EF90E00E94E102F80160818AE0FF
:1024000093E00E94940285E391E00E94E40992CD5A
:102410004F925F926F927F928F929F92AF92BF92F4
:10242000CF92DF92EF92FF921F93CF93DF9300D072
:1024300000D000D0CDB7DEB78EE20E94AE0765E0D7
:1024400070E080E090E00E94B90686EF0E94BC092F
:102450005C018091B3038295880F880F807C8C5C2F
:102460000E94AE0765E070E080E090E00E94B9064F
:1024700086EF0E94BC09B0E0A0E0CC24D82EE92E63
:10248000FA2E88EF0E94A109C82A1091B303212FC8
:1024900030E03E832D83950150E040E08091C803F9
:1024A0009091C903281B390B41095109A091C6031A
:1024B000B091C7030E940C280E94232520E030E041
:1024C00040E058E30E94AF250E94EB242B013C0121
:1024D0006091C0037091C103072E000C880B990B0B
:1024E0000E94232520E030E040E055E40E94AF2523
:1024F0004B015C016091C2037091C303072E000C75
:10250000880B990B640D751D861D971D0E94232550
:102510009B01AC01C501B4010E9479240E94EB2407
:10252000460E571E681E791E30EA431A3FE0530AD2
:1025300061087108A3019201C301B2010E94A127A1
:102540009B01AC01ACE05595479537952795AA9529
:10255000D1F729833A834B835C83A091B803B09170
:10256000B903A30192010E9417284B015C01BDE051
:10257000B594A79497948794BA95D1F7A091BA038C
:10258000B091BB0329813A814B815C810E9417285D
:102590009C01552737FD5095452F280D391D4A1DA3
:1025A0005B1D2E5F3F4F4F4F5F4F62E05595479544
:1025B000379527956A95D1F730584F4F5F4FA091C7
:1025C000C403B091C5030E940C284B015C017FE05D
:1025D000B694A794979487947A95D1F788E090E081
:1025E0004D815E81841B950B04C0F694E794D794CB
:1025F000C7948A95D2F7A091BC03B091BD032981FD
:102600003A814B815C810E9417289B01AC01EBE071
:102610005595479537952795EA95D1F729833A83BC
:102620004B835C83A091B603B091B703A3019201E1
:102630000E941728FBE09595879577956795FA9501
:10264000D1F729813A814B815C81620F731F841F0E
:10265000951F4090B4035090B503052C000C6608FC
:102660007708A2E0440C551C661C771CAA95D1F78C
:10267000640D751D861D971D012E04C0660F771F02
:10268000881F991F0A94D2F76E5F7F4F8F4F9F4F1D
:1026900024E030E040E050E00E94E727D701C60187
:1026A000821B930BA40BB50B9C01AD0160E573EC91
:1026B00080E090E004C096958795779567951A9588
:1026C000D2F70E94A12797FDD7C0660F771F881FFA
:1026D000991FA50194010E94C52769017A019927D4
:1026E000F7FC9A958F2D7E2D6D2D9B01AC010E94DC
:1026F000A1279B01AC01AEEDBBE00E940C284B0171
:102700005C01A3E4B3EEA70196010E941A28BC0164
:10271000992777FD9095892F4501BB2497FCB094AC
:10272000AB2C680D791D8A1D9B1D6153714F8F4F16
:102730009F4F44E095958795779567954A95D1F792
:102740006C0D7D1D8E1D9F1D0E94232520E836EEF9
:1027500045EC57E40E94792421E03EED42E45EE33B
:102760000E941C2669837A838B839C834090EE01B0
:102770005090EF016090F0017090F1012091F20112
:102780003091F3014091F4015091F5016091EA011B
:102790007091EB018091EC019091ED010E940D246C
:1027A0006B017C012091F6013091F7014091F80115
:1027B0005091F9010E940D249B01AC0160E070E092
:1027C00080E89FE30E947924A70196010E94AF252B
:1027D0004B015C0129813A814B815C8160E070E0B2
:1027E00080E89FE30E940C2420E03AE24DE257E4A7
:1027F0000E94AF25A30192010E940C24A50194011F
:102800000E94AF25A30192010E940D242B013C01DF
:102810004092EE015092EF016092F0017092F1014E
:10282000A501940160E070E080E89FE30E940C2421
:10283000A70196010E94AF256093EA017093EB0116
:102840008093EC019093ED01C301B20126960FB67F
:10285000F894DEBF0FBECDBFDF91CF911F91FF90E7
:10286000EF90DF90CF90BF90AF909F908F907F9030
:102870006F905F904F900895A50194010E94C52725
:1028800069017A01CC0CDD1CEE1CFF1C28CF1F92C5
:102890000F920FB60F9211242F933F934F935F9394
:1028A0006F937F938F939F93AF93BF93EF93FF9318
:1028B0008091910290919202A0919302B091940222
:1028C000892B8A2B8B2BD1F190918C02E0918D0278
:1028D000F0918E028081892780838091910290916E
:1028E0009202A0919302B0919402181619061A064A
:1028F0001B069CF48091910290919202A091930208
:10290000B09194020197A109B1098093910290932B
:102910009202A0939302B0939402FF91EF91BF9122
:10292000AF919F918F917F916F915F914F913F9167
:102930002F910F900FBE0F901F90189580910C0152
:102940000E94CE03EACF1F920F920FB60F9211246E
:102950002F933F934F935F936F937F938F939F93A7
:10296000AF93BF93EF93FF938AE093E00E947202CC
:10297000FF91EF91BF91AF919F918F917F916F9157
:102980005F914F913F912F910F900FBE0F901F902D
:1029900018951F920F920FB60F9211242F938F93B9
:1029A0009F93EF93FF93E0911A03F0911B038081B3
:1029B000E0912003F091210382FD1BC09081809162
:1029C00023038F5F8F7320912403821741F0E091DE
:1029D0002303F0E0E65FFC4F958F80932303FF9184
:1029E000EF919F918F912F910F900FBE0F901F909D
:1029F00018958081F4CF1F920F920FB60F92112479
:102A00002F933F938F939F93AF93BF938091E20156
:102A10009091E301A091E401B091E5013091E101D1
:102A200023E0230F2D3758F50196A11DB11D2093EA
:102A3000E1018093E2019093E301A093E401B0935C
:102A4000E5018091E6019091E701A091E801B09144
:102A5000E9010196A11DB11D8093E6019093E70164
:102A6000A093E801B093E901BF91AF919F918F913D
:102A70003F912F910F900FBE0F901F90189526E851
:102A8000230F0296A11DB11DD2CF1F920F920FB638
:102A90000F9211242F933F934F935F936F937F93E4
:102AA0008F939F93AF93BF93EF93FF938091B90060
:102AB000887F803609F44AC0F0F5883209F4A7C04F
:102AC00018F5803109F49BC0B8F4882309F4F9C0E3
:102AD000883009F494C0FF91EF91BF91AF919F911D
:102AE0008F917F916F915F914F913F912F910F90B7
:102AF0000FBE0F901F901895883109F488C080325E
:102B000051F78093E30214C0803409F49DC040F46F
:102B10008033B9F38833F9F68093E30285ECB0C0D3
:102B2000803509F485C0883509F496C0883499F653
:102B30000E94F706D0CF883909F48CC038F5883761
:102B400029F050F4883611F0803729F683E080931D
:102B5000E5021092E00157C0883809F47BC0803943
:102B600019F0803809F0B7CF8091E001803208F089
:102B700071C0E091E00181E08E0F8093E0018091CF
:102B8000BB00F0E0E054FE4F80833DC0803B39F055
:102B9000E0F4803A09F479C0883A09F09CCF84E0E7
:102BA0008093E5021092BF011092BE01E0918A026B
:102BB000F0918B0209958091BE0181110FC081E0D7
:102BC0008093BE0110929E0109C0803C09F4A6CFFB
:102BD000883C09F4A3CF883B09F07DCFE091BF0189
:102BE00081E08E0F8093BF01F0E0E256FE4F8081BE
:102BF0008093BB009091BF018091BE0129C080915C
:102C0000C0028093BB0085EC8093BC0064CF9091A0
:102C1000E2028091E102981758F5E091E20281E02A
:102C20008E0F8093E202F0E0EF53FD4F8081E9CFF9
:102C3000E091E20281E08E0F8093E2028091BB007E
:102C4000F0E0EF53FD4F80839091E2028091E1022A
:102C50009817C8F285E8D8CFE091E20281E08E0FA4
:102C60008093E2028091BB00F0E0EF53FD4F808340
:102C70008091E40281115CCF81E08093BF0284EAFD
:102C80008093BC001092E50226CF85EC8093BC00B7
:102C90001092E5028091E001803230F4E091E00191
:102CA000F0E0E054FE4F10826091E00170E0E091AE
:102CB0008802F091890280EC91E009951092E00180
:102CC0000ACF1092E30234CFEAE0F3E013821282DB
:102CD00088EE93E0A0E0B0E084839583A683B78379
:102CE00025E131E03183208325EC30E035872487EE
:102CF00024EC30E03787268720EC30E0318B208BC6
:102D000021EC30E0338B228B22EC30E0358B248BAE
:102D100026EC30E0378B268B118E128E138E148E9C
:102D2000E7EAF3E01382128284839583A683B78354
:102D300087E291E0918380830895CF93DF93CDB7AD
:102D4000DEB7C850D1400FB6F894DEBF0FBECDBF7E
:102D5000789484B5826084BD84B5816084BD85B576
:102D6000826085BD85B5816085BD80916E00816082
:102D700080936E0010928100809181008260809328
:102D8000810080918100816080938100809180002A
:102D90008160809380008091B10084608093B10055
:102DA0008091B00081608093B00080917A0084604F
:102DB00080937A0080917A00826080937A0080917B
:102DC0007A00816080937A0080917A008068809395
:102DD0007A001092C1000E948D0C8093FA0181113B
:102DE00004C00E94CB070E94920B0E94A90B82EDA7
:102DF00090E0A0E8B0E48093F6019093F701A093EF
:102E0000F801B093F9018CE69FECACE4BEE380934B
:102E1000F2019093F301A093F401B093F5011092A5
:102E2000EE011092EF011092F0011092F101109258
:102E3000EA011092EB011092EC011092ED010E9458
:102E40009C03C0905802D0905902E0905A02F09032
:102E50005B0260E079E08DE390E0A70196010E94BB
:102E6000C527215031094109510956954795379594
:102E70002795E0911A03F0911B0382E08083C1142F
:102E800041EED406E104F10421F0211550E13507AB
:102E9000A8F0E0911A03F0911B03108260E874E837
:102EA0008EE190E0A70196010E94C52721503109CB
:102EB000410951095695479537952795E091160395
:102EC000F09117033083E0911803F09119032083E8
:102ED00010922203E0911E03F0911F0386E080838D
:102EE000E0911C03F0911D03808180618083E0915B
:102EF0001C03F0911D03808188608083E0911C0396
:102F0000F0911D03808180688083E0911C03F09123
:102F10001D0380818F7D808362E080E00E94FA0340
:102F200080915C02843008F083E08093B3030E94B8
:102F30009C0380ED0E94A109853509F04DC08AEA05
:102F40000E94BC099093B5038093B4038CEA0E945D
:102F5000BC099093B7038093B6038EEA0E94BC0924
:102F60009093B9038093B80380EB0E94BC099093BF
:102F7000C5038093C40382EB0E94BC099093C703EE
:102F80008093C60384EB0E94BC099093C90380938D
:102F9000C80386EB0E94BC099093BB038093BA03DD
:102FA00088EB0E94BC099093BD038093BC038AEB1D
:102FB0000E94BC099093BF038093BE038CEB0E94D8
:102FC000BC099093C1038093C0038EEB0E94BC099F
:102FD0009093C3038093C20386E792E00E94E102CC
:102FE00061E089E00E94FA0361E08DE00E94FA034B
:102FF00061E08CE00E94FA0360E088E00E94FA033E
:1030000060E087E00E94FA0360E08AE00E94FA0331
:1030100060E08BE00E94FA0360E089E00E946E03AA
:1030200060E08DE00E946E0360E08CE00E946E0321
:103030008091600290916102019709F0EBC181E0FB
:1030400080931F020E947B0809E010E00E94AD08F7
:1030500001501109D9F78091FA01811125C084E648
:1030600090E0A0E0B0E08093200290932102A09332
:103070002202B093230288E00E9445038C0187E07E
:103080000E9445030115110509F0C7C1892B61F4A0
:1030900082E390E0A0E0B0E08093200290932102D0
:1030A000A0932202B093230202E310E00E940812D0
:1030B00001501109D9F70AE010E0C12CD12C76019A
:1030C0000E9408124B015C01C701B6010E94232532
:1030D000A50194010E940D240E94EB246B017C0148
:1030E00062E370E080E090E00E94B90601501109AF
:1030F00039F7C701B6010E94232520E030E040E205
:1031000051E40E9479240E94EB246093350270936D
:103110003602809337029093380210922402109264
:103120002502109226021092270280916602909149
:103130006702092E000CAA0BBB0B80932D02909303
:103140002E02A0932F02B093300280900D01909038
:103150000E01A0900F01B0901001CD5FDE4F88826C
:103160009982AA82BB82C350D140712C612C10E29B
:103170001B3311F40C94142390903902C251DF4F89
:103180009882CE5ED04091100C94EE220E940812DC
:103190006B017C016091350270913602809137029B
:1031A000909138020E9423259B01AC01C701B60112
:1031B0000E940C240E94EB2460937A0270937B029D
:1031C00080937C0290937D0280918002882381F01D
:1031D0000E94EB06C0903102D0903202E0903302A0
:1031E000F09034026C197D098E099F090E94FF0935
:1031F00040917A0250917B0260917C0270917D0235
:1032000080912D0290912E02A0912F02B091300258
:1032100084179507A607B7070CF4A4C180911F0275
:1032200081110DC180917F02811109C10E94EB06BD
:10323000C0901B02D0901C02E0901D02F0901E0274
:103240006C197D098E099F09C0901702D090180251
:10325000E0901902F0901A02C616D706E806F906A1
:1032600008F04FC08091020190910301019609F08E
:10327000EAC02091150230911602F901EE0FFF1FEE
:10328000E35FFD4F808191812F5F3F4F30931602A6
:1032900020931502409100015091010142175307FC
:1032A00024F4109216021092150290930301809359
:1032B00002018F3F980709F4C2C00E944503892B81
:1032C00009F0B8C08CED95E0A0E0B0E08093090271
:1032D00090930A02A0930B02B0930C0240E050E0DE
:1032E000BA0180910702909108020E9436040E9460
:1032F000EB0660930302709304028093050290939F
:10330000060260E070E0CB010E94FF090E94EB061C
:103310004B015C0180917F02882311F40C94EE2212
:1033200080917E02882311F40C94EE228AE093E0CF
:103330000E945202892BB1F08AE093E00E94300291
:10334000182F8B3311F40C94B4228A3059F0E1E039
:10335000F0E0EC0FFD1FE60DF71D808393012F5F5A
:103360003F4F39010E94EB06681979098A099B09C8
:10337000613177428105910568F20E948E08609163
:103380007602709177028091780290917902C090D4
:103390000801D0900901E0900A01F0900B01209102
:1033A0003C0230913D02232B11F00C94D6220E9456
:1033B0002325A70196010E94AF250E94EB240E94BD
:1033C000C0080E948E086091720270917302809111
:1033D000740290917502C0900801D0900901E090AC
:1033E0000A01F0900B0120913C0230913D02232B09
:1033F00011F00C94E2220E942325A70196010E945D
:10340000AF250E94EB240E94C0080E94EB064B01EE
:103410005C01A8CF10921F0215CE0130110509F0F2
:1034200043CE009711F00C94282386E990E0A0E0A9
:10343000B0E032CE8CE291E0A0E0B0E047CF8CE08B
:103440000E94CE035ECF0E94EB06C0900902D0908E
:103450000A02E0900B02F0900C0280900302909020
:103460000402A0900502B0900602681979098A0941
:103470009B09C616D706E806F90638F51C141D0484
:103480001E041F0414F58CE00E94CE031092090262
:1034900010920A0210920B0210920C0284EF91E03B
:1034A000A0E0B0E08093FF0190930002A09301029E
:1034B000B09302020E94EB066093FB017093FC0143
:1034C0008093FD019093FE011CCF0E94EB06C090FB
:1034D000FF01D0900002E0900102F0900202809083
:1034E000FB019090FC01A090FD01B090FE016819D5
:1034F00079098A099B09C616D706E806F90608F075
:1035000000CF1C141D041E041F040CF0FACE8FEF14
:103510009FEF909303018093020180911502909197
:103520001602892BB1F480E197E2A0E0B0E080932D
:10353000170290931802A0931902B0931A020E94E6
:10354000EB0660931B0270931C0280931D02909304
:103550001E021092FF0110920002109201021092BE
:103560000202CFCE0E942E09C951DF4F1882C75EDA
:10357000D040C851DF4F1882C85ED04080914802C9
:1035800090914902CF51DF4F99838883C15ED0402B
:1035900080914A0290914B02CD51DF4F99838883ED
:1035A000C35ED04020913E0230913F02C352DF4FB4
:1035B00039832883CD5DD0408091400290914102B3
:1035C000C152DF4F99838883CF5DD040CD5FDE4FFE
:1035D00088809980AA80BB80C350D140C752DF4FFA
:1035E00088829982AA82BB82C95DD040233031058E
:1035F00041F049E050E0C752DF4F59834883C95D2D
:10360000D0408330910541F04DE050E0C552DF4F8E
:1036100059834883CB5DD040FE01E753FF4F40E123
:10362000DF011D924A95E9F7CB51DF4F1882C55E45
:10363000D040CA51DF4F1882C65ED04023303105DA
:1036400019F421E020938702039719F481E0809315
:103650008602C751DF4F1882C95ED040C351DF4F89
:103660001882CD5ED040C551DF4F1882CB5ED0406E
:10367000C651DF4F1882CA5ED040C150DF4F18825A
:1036800019821A821B82CF5FD040CD50DF4F188243
:1036900019821A821B82C35FD040C550DF4F188247
:1036A00019821A821B82CB5FD040C950DF4F18822B
:1036B00019821A821B82C75FD04001E080912902E3
:1036C000811124CE0E9408124B015C0160913502E9
:1036D0007091360280913702909138020E94232522
:1036E0009B01AC01C501B4010E940C240E94EB2493
:1036F00060937A0270937B0280937C0290937D02A8
:1037000080918002882381F00E94EB068090310234
:1037100090903202A0903302B09034026819790977
:103720008A099B090E94FF0940917A0250917B020D
:1037300060917C0270917D0280912D0290912E0209
:10374000A0912F02B091300284179507A607B70702
:103750002CF580918002811121C080917E0281111F
:103760001DC00093800260E070E0CB010E94FF0961
:103770000E94EB0660933102709332028093330211
:10378000909334028091460290914702019731F460
:10379000B1E0C251DF4FB883CE5ED040809180024D
:1037A000882309F48BCFC12CD12C7601812C912C4C
:1037B00054019EC2EE24E394F12C73C3809324023F
:1037C00090932502A0932602B09327028091500285
:1037D00090915102092E000CAA0BBB0B809304019F
:1037E00090930501A0930601B0930701C651DF4FE6
:1037F000A880CA5ED040A110C8C5C0907A02D090FF
:103800007B02E0907C02F0907D02809120029091FA
:103810002102A0912202B0912302C816D906EA061D
:10382000FB0608F02BC180917F02882309F426C192
:10383000C551DF4FA880CB5ED040A11016C080914B
:103840007E0281110FC70E94EB06C550DF4F6883CF
:1038500079838A839B83CB5FD040C0927202D092DF
:103860007302E0927402F092750280907E02C5515C
:10387000DF4F8882CB5ED0408110F4C66E0125EE0A
:10388000C20ED11CF12CE12CD6018D916D0181115C
:1038900039C00E94EB06AB01BC01C550DF4F8880E8
:1038A0009980AA80BB80CB5FD040481959096A092A
:1038B0007B09E1EEF0E0EC0FFD1FEE0DFF1D8081B6
:1038C0009181092E000CAA0BBB0B481759076A07F8
:1038D0007B07C0F0EDEDF0E0EC0FFD1FEE0DFF1DDE
:1038E00080819181892B71F461E0E9EDF0E0EC0FCA
:1038F000FD1FEE0DFF1D80810E946E0381E0F60129
:103900003197808322E0E20EF11C34E0E316F104EB
:1039100009F0BACFAE014F515F4FC95FDE4F5983F7
:103920004883C750D1407E0157EEE50EF11CD12CE3
:10393000C12C01E00E94EB06C95FDE4FA881B9816E
:10394000C750D1402D913D91C95FDE4FB983A88307
:10395000C750D140AB01BC01C550DF4F8880998072
:10396000AA80BB80CB5FD040481959096A097B09FE
:10397000C90188519C4F092E000CAA0BBB0B48179C
:1039800059076A077B0720F1D7018C91811120C06C
:10399000F601EE0FFF1FADEDB0E0AC0FBD1FAE0F97
:1039A000BF1F8D919C91892B99F439ED832E912C19
:1039B0008C0E9D1EE80DF91D9080818060E0892DA0
:1039C0000E946E03892D982D0E94E701D7010C9368
:1039D000BFEFEB1AFB0ACA94CD2809F0C1C581E0FC
:1039E00080937E02C951DF4F8881C75ED04081112C
:1039F0000AC0C352DF4F88819981CD5DD040892BA9
:103A000011F410927E02C851DF4F8881C85ED04009
:103A100081110AC0C152DF4F88819981CF5DD040AA
:103A2000892B11F410927E020E94EB06C0903102A5
:103A3000D0903202E0903302F09034026C197D098C
:103A40008E099F090E94FF09C451DF4F8880CC5E18
:103A5000D040C551DF4F8882CB5ED04016C0EE24E7
:103A6000E394F12CEEC4C251DF4F9880CE5ED0407B
:103A7000C651DF4F9882CA5ED040BFCEC551DF4FDE
:103A8000B880CB5ED040B110F0CEC351DF4F9880EC
:103A9000CD5ED040992009F4D7C080912A028111CF
:103AA000D3C06E0125EEC20ED11CF12CE12CD60143
:103AB0008D916D01811139C00E94EB06AB01BC01F3
:103AC000CD50DF4F88809980AA80BB80C35FD040F3
:103AD000481959096A097B09E1EEF0E0EC0FFD1F76
:103AE000EE0DFF1D80819181092E000CAA0BBB0BEE
:103AF000481759076A077B07C0F0EDEDF0E0EC0FBF
:103B0000FD1FEE0DFF1D80819181049771F461E02E
:103B1000E9EDF0E0EC0FFD1FEE0DFF1D80810E942E
:103B20006E0381E0F6013197808322E0E20EF11C02
:103B300038E0E316F10409F0BACF6E0141EEC40E8D
:103B4000D11CF12CE12C01E00E94EB06D6012D9155
:103B50003D916D01AB01BC01CD50DF4F8880998054
:103B6000AA80BB80C35FD040481959096A097B0904
:103B7000C90188519C4F092E000CAA0BBB0B48179A
:103B800059076A077B0758F127EEA22EB12CAC0E1D
:103B9000BD1EAE0CBF1CD5018C91811120C0F70158
:103BA000EE0FFF1FADEDB0E0AC0FBD1FAE0FBF1F9E
:103BB0008D919C91049799F489ED882E912C8C0E0F
:103BC0009D1EE80DF91D9080818060E0892D0E9486
:103BD0006E03892D982D0E94E701D5010C93BFEF4C
:103BE000EB1AFB0AE4E0EE16F10409F0ADCFFE019A
:103BF000E951FF4FDE01A352BF4FCF010496C451DC
:103C0000DF4F4881CC5ED0402191211107C02D911A
:103C10003C9111972430310509F440E01296E817E1
:103C2000F90791F740932A020E94EB06C0903102F7
:103C3000D0903202E0903302F09034026C197D098A
:103C40008E099F090E94FF0980917E02882311F14D
:103C500080917A0290917B02A0917C02B0917D02CA
:103C60000A97A105B105B4F480912A02882391F046
:103C7000109280020E94EB06C0903102D090320276
:103C8000E0903302F09034026C197D098E099F098F
:103C90000E94FF09809187028823B9F080918602F3
:103CA000882399F081E0809329020E94EB06C0905E
:103CB0003102D0903202E0903302F09034026C195D
:103CC0007D098E099F090E94FF09C151DF4FC880FD
:103CD000D980EA80FB80CF5ED0404101C451DF4FE4
:103CE000E881CC5ED040C751DF4FE883C95ED04049
:103CF000F0918002C451DF4FF883CC5ED040FF23A7
:103D000009F4DBCC0E9408121B012C0160913502E2
:103D10007091360280913702909138020E942325DB
:103D20009B01AC01C201B1010E940C240E94EB2452
:103D3000C151DF4F688379838A839B83CF5ED040F4
:103D400060937A0270937B0280937C0290937D0251
:103D50000E94EB06209131023091320240913302F1
:103D6000509134021B012C01221A330A440A550ACD
:103D700000917E02002349F180912A02811125C021
:103D8000C351DF4F2881CD5ED040211119C0C151F0
:103D9000DF4F88819981CF5ED0408C199D09B10198
:103DA000681979090E94B127672B79F40E94EB0604
:103DB000CD50DF4F688379838A839B83C35FD04074
:103DC000C351DF4F0883CD5ED040C201B1010E94D4
:103DD000FF09C751DF4F8880C95ED04081100AC0FB
:103DE0000E94EB06C150DF4F688379838A839B83EF
:103DF000CF5FD04080912B028111D7C06E0125EE9C
:103E0000C20ED11CF12CE12CD6018D916D018111D6
:103E100039C00E94EB06AB01BC01C150DF4F888066
:103E20009980AA80BB80CF5FD040481959096A09A0
:103E30007B09E1EEF0E0EC0FFD1FEE0DFF1D808130
:103E40009181092E000CAA0BBB0B481759076A0772
:103E50007B07C0F0EDEDF0E0EC0FFD1FEE0DFF1D58
:103E600080819181059771F461E0E9EDF0E0EC0F5C
:103E7000FD1FEE0DFF1D80810E946E0381E0F601A3
:103E80003197808322E0E20EF11C34E0E316F10466
:103E900009F0BACF6E0141EEC40ED11CF12CE12C19
:103EA00001E00E94EB06D6012D913D916D01AB0121
:103EB000BC01C150DF4F88809980AA80BB80CF5F52
:103EC000D040481959096A097B09C90188519C4F9A
:103ED000092E000CAA0BBB0B481759076A077B0772
:103EE00058F1E7EEAE2EB12CAC0EBD1EAE0CBF1CD1
:103EF000D5018C91811120C0F701EE0FFF1FADEDB0
:103F0000B0E0AC0FBD1FAE0FBF1F8D919C91059708
:103F100099F469ED862E912C8C0E9D1EE80DF91DED
:103F20009080818060E0892D0E946E03892D982DFC
:103F30000E94E701D5010C93EA94EF2809F03ACCEE
:103F400081E080932B02C951DF4F8881C75ED0404A
:103F500081110AC0C352DF4F88819981CD5DD04065
:103F6000059711F410922B02C851DF4F8881C85E6B
:103F7000D04081110AC0C152DF4F88819981CF5D45
:103F8000D040059711F410922B020E94EB06C090CE
:103F90003102D0903202E0903302F09034026C197A
:103FA0007D098E099F090E94FF09809128028111D5
:103FB000D7C06E01E5EECE0ED11CF12CE12CD6015E
:103FC0008D916D01811141C0E1EEF0E0EC0FFD1F1C
:103FD000EE0DFF1D80819181092E000CAA0BBB0BF9
:103FE00040917A0250917B0260917C0270917D0237
:103FF000481759076A077B0744F1EDEDF0E0EC0F35
:10400000FD1FEE0DFF1D808191810697F1F461E0A7
:10401000E9EDF0E0EC0FFD1FEE0DFF1D80810E9429
:104020006E0381E0F601319780830E94EB06F70171
:10403000EE0FFF1F59EC852E912C8C0E9D1EE80D66
:10404000F91D608371838283938322E0E20EF11C69
:1040500038E0E316F10409F0B2CF6E0149ECC40E6A
:10406000D11CF12CE12C01E00E94EB06AB01BC015C
:10407000F60181919191A191B1916F0188519C4F6D
:10408000AF4FBF4F481759076A077B07A0F137EEBC
:10409000A32EB12CAC0EBD1EAE0CBF1CD5018C9155
:1040A000811129C0F701EE0FFF1FADEDB0E0AC0F9D
:1040B000BD1FAE0FBF1F8D919C910697E1F4A5EE39
:1040C000B0E0AC0FBD1FAE0DBF1D8C91882399F0E1
:1040D00099ED892E912C8C0E9D1EE80DF91D908076
:1040E000818060E0892D0E946E03892D982D0E94A9
:1040F000E701D5010C93BFEFEB1AFB0AE4E0EE16E3
:10410000F10409F0B1CFFE01E951FF4FDE01A352E6
:10411000BF4FCF010496C451DF4F4881CC5ED040E1
:104120002191211107C02D913C9111972630310525
:1041300009F440E012968E179F0791F740932802EA
:104140000E94EB06C0903102D0903202E090330220
:10415000F09034026C197D098E099F090E94FF09B5
:1041600080912C028111B1C06E01F5EECF0ED11CF1
:10417000F12CE12CD6018D916D01811129C0E1EE68
:10418000F0E0EC0FFD1FEE0DFF1D80819181092EE7
:10419000000CAA0BBB0B281639064A065B06C0F0BA
:1041A000EDEDF0E0EC0FFD1FEE0DFF1D8081918124
:1041B000029771F461E0E9EDF0E0EC0FFD1FEE0D08
:1041C000FF1D80810E946E0381E0F601319780839C
:1041D000B2E0EB0EF11CE8E0EE16F10459F66E01C8
:1041E000F1EECF0ED11CF12CE12C01E0D6018D9126
:1041F0009D916D0188519C4F092E000CAA0BBB0BA1
:10420000281639064A065B0658F187EEA82EB12C0F
:10421000AC0EBD1EAE0CBF1CF5018081811120C00B
:10422000F701EE0FFF1FADEDB0E0AC0FBD1FAE0FFD
:10423000BF1F8D919C91029799F4A9ED8A2E912C24
:104240008C0E9D1EE80DF91D9080818060E0892D07
:104250000E946E03892D982D0E94E701D5010C93D1
:10426000BFEFEB1AFB0AE4E0EE16F10409F0BECF53
:10427000FE01E951FF4FDE01A352BF4FCF0104966B
:10428000C451DF4F4881CC5ED0402191211107C03D
:104290002D913C9111972230310509F440E012969E
:1042A000E817F90791F740932C020E94EB06C090A3
:1042B0003102D0903202E0903302F09034026C1957
:1042C0007D098E099F090E94FF0980914602909105
:1042D0004702019761F4F9EB2F16FBE03F0641041A
:1042E000510428F0C251DF4F1882CE5ED040809139
:1042F0007A0290917B02A0917C02B0917D02C090E5
:104300002402D0902502E0902602F09027028C151E
:104310009D05AE05BF050CF051CAC651DF4F888020
:10432000CA5ED04081104ACAC251DF4F9880CE5E2B
:10433000D040911043CA8091040190910501A09151
:104340000601B09107010197A109B1098093040109
:1043500090930501A0930601B0930701892B8A2B46
:104360008B2B09F080CB0E94EB06C950DF4F68838E
:1043700079838A839B83C75FD040C0927602D092B4
:104380007702E0927802F0927902B0907F02C651F3
:10439000DF4FB882CA5ED040B1102FCA6E0125EE41
:1043A000C20ED11CF12CE12CD6018D916D01811131
:1043B00039C00E94EB06AB01BC01C950DF4F8880B9
:1043C0009980AA80BB80C75FD040481959096A0903
:1043D0007B09E1EEF0E0EC0FFD1FEE0DFF1D80818B
:1043E0009181092E000CAA0BBB0B481759076A07CD
:1043F0007B07C0F0EDEDF0E0EC0FFD1FEE0DFF1DB3
:1044000080819181019771F461E0E9EDF0E0EC0FBA
:10441000FD1FEE0DFF1D80810E946E0381E0F601FD
:104420003197808322E0E20EF11C34E0E316F104C0
:1044300009F0BACF6E0141EEC40ED11CF12CE12C73
:1044400001E00E94EB06D6012D913D916D01AB017B
:10445000BC01C950DF4F88809980AA80BB80C75FAC
:10446000D040481959096A097B09C90188519C4FF4
:10447000092E000CAA0BBB0B481759076A077B07CC
:1044800058F1E7EEAE2EB12CAC0EBD1EAE0CBF1C2B
:10449000D5018C91811120C0F701EE0FFF1FADED0A
:1044A000B0E0AC0FBD1FAE0FBF1F8D919C91019767
:1044B00099F469ED862E912C8C0E9D1EE80DF91D48
:1044C0009080818060E0892D0E946E03892D982D57
:1044D0000E94E701D5010C93EA94EF2809F0BFCAC6
:1044E00081E080937F02C951DF4F8881C75ED04051
:1044F00081110AC0C352DF4F88819981CD5DD040C0
:10450000019711F410927F02C851DF4F8881C85E75
:10451000D04081110AC0C152DF4F88819981CF5D9F
:10452000D040019711F410927F020E94EB06C090D8
:104530003102D0903202E0903302F09034026C19D4
:104540007D098E099F090E94FF09C451DF4F8880B1
:10455000CC5ED040C651DF4F8882CA5ED0404DC984
:10456000CC24C394D12CE6C973013FEFE31AF30ABC
:10457000E1E0F0E0EC0FFD1FE60DF71D1082109258
:104580007F0210927E0210922C0210922B02109247
:104590002A02109280021092870210928602CE01A7
:1045A00001960E94350D37010C94B2190E94232503
:1045B000A70196010E94AF250E94EB240E94DD0C0A
:1045C0000C94E1190E942325A70196010E94AF25B2
:1045D0000E94EB240E94DD0C0C94051A8AE093E003
:1045E0000E945202892B11F40C94B8188AE093E0CF
:1045F0000E943002182F8B3371F08A3079F3E1E09A
:10460000F0E0EC0FFD1FE60DF71D8083B3016F5F37
:104610007F4F3B01E3CFFE01E60DF71D1182C30181
:1046200001963C010C94B818CE0101960E94350DFC
:1046300080E090E0892B11F40C94B5180E945E0282
:10464000882311F40C94B5180E9400000C94B5183E
:10465000019711F00C94541888EC90E0A0E0B0E0C1
:104660000C944C18C351DF4F8880CD5ED040882019
:1046700009F4EECA12CAFC0188279927E89421910F
:104680002032E9F3293010F02E30C8F32B3241F0FC
:104690002D3239F4689404C00E94BC23820F911D0E
:1046A000219120532A30C0F31EF4909581959F4F9D
:1046B00008951F93FC0199278827BC01E894119164
:1046C0001032E9F3193010F01E30C8F31B3251F0EC
:1046D0001D3249F4689406C00E94A723610F711D22
:1046E000811D911D119110531A30B0F33EF4909535
:1046F0008095709561957F4F8F4F9F4F1F910895C3
:10470000FA01A191B081009719F41097E1F0CD0161
:10471000DC01CD010D90002011F4C00113C0FB019C
:104720002191222319F02015D9F7F3CFFB01219114
:10473000201519F41E92119606C02223C1F70D9080
:104740000020A1F7D001FA01A193B0830895592F59
:10475000482F372F262F660F771F881F991F660F48
:10476000771F881F991F620F731F841F951F660F85
:10477000771F881F991F08957AE0979F902D879F34
:10478000802D910D11240895BB27FA01A62F6217E1
:10479000710581059105330B30FB66F0AA27660F82
:1047A000771F881F991FAA1FA21710F0A21B6395DD
:1047B0003850A9F7A05DAA3308F0A95DA19336F798
:1047C000B111B1931082CA010C94E623DC01FC0103
:1047D000672F71917723E1F7329704C07C916D9335
:1047E00070836291AE17BF07C8F30895F999FECFA1
:1047F00092BD81BDF89A992780B50895262FF99921
:10480000FECF1FBA92BD81BD20BD0FB6F894FA9AB3
:10481000F99A0FBE019608955058BB27AA270E9407
:1048200024240C9475250E94672538F00E946E257B
:1048300020F039F49F3F19F426F40C9464250EF40B
:10484000E095E7FB0C945E25E92F0E94862558F33E
:10485000BA17620773078407950720F079F4A6F565
:104860000C94A8250EF4E0950B2EBA2FA02D0B0169
:10487000B90190010C01CA01A0011124FF27591BA5
:1048800099F0593F50F4503E68F11A16F040A22FAB
:10489000232F342F4427585FF3CF4695379527951C
:1048A000A795F0405395C9F77EF41F16BA0B620B1B
:1048B000730B840BBAF09150A1F0FF0FBB1F661F62
:1048C000771F881FC2F70EC0BA0F621F731F841FA5
:1048D00048F4879577956795B795F7959E3F08F0CB
:1048E000B0CF9395880F08F09927EE0F979587958D
:1048F00008950E948D240C9475250E946E2558F011
:104900000E94672540F029F45F3F29F00C945E2552
:1049100051110C94A9250C9464250E94862568F3F6
:104920009923B1F3552391F3951B550BBB27AA2768
:1049300062177307840738F09F5F5F4F220F331FA2
:10494000441FAA1FA9F335D00E2E3AF0E0E832D06A
:1049500091505040E695001CCAF72BD0FE2F29D06D
:10496000660F771F881FBB1F261737074807AB073F
:10497000B0E809F0BB0B802DBF01FF2793585F4FB4
:104980003AF09E3F510578F00C945E250C94A925D1
:104990005F3FE4F3983ED4F3869577956795B79596
:1049A000F7959F5FC9F7880F911D9695879597F9A1
:1049B0000895E1E0660F771F881FBB1F621773071A
:1049C0008407BA0720F0621B730B840BBA0BEE1F2F
:1049D00088F7E09508950E94F2246894B1110C9430
:1049E000A92508950E948E2588F09F5798F0B92F29
:1049F0009927B751B0F0E1F0660F771F881F991F14
:104A00001AF0BA95C9F714C0B13091F00E94A825E8
:104A1000B1E008950C94A825672F782F8827B85FF8
:104A200039F0B93FCCF3869577956795B395D9F76B
:104A30003EF490958095709561957F4F8F4F9F4F75
:104A40000895E89409C097FB3EF490958095709581
:104A500061957F4F8F4F9F4F9923A9F0F92F96E9CA
:104A6000BB279395F695879577956795B795F1113F
:104A7000F8CFFAF4BB0F11F460FF1BC06F5F7F4FDC
:104A80008F4F9F4F16C0882311F096E911C07723EE
:104A900021F09EE8872F762F05C0662371F096E8F7
:104AA000862F70E060E02AF09A95660F771F881FC6
:104AB000DAF7880F9695879597F9089597F99F6784
:104AC00080E870E060E008959FEF80EC0895002496
:104AD0000A941616170618060906089500240A9463
:104AE00012161306140605060895092E0394000CE9
:104AF00011F4882352F0BB0F40F4BF2B11F460FF78
:104B000004C06F5F7F4F8F4F9F4F089557FD9058A0
:104B1000440F551F59F05F3F71F04795880F97FB81
:104B2000991F61F09F3F79F087950895121613063B
:104B30001406551FF2CF4695F1DF08C0161617066A
:104B40001806991FF1CF869571056105089408959F
:104B5000E894BB2766277727CB0197F908950E9431
:104B6000C2250C9475250E94672538F00E946E2599
:104B700020F0952311F00C945E250C9464251124EB
:104B80000C94A9250E94862570F3959FC1F3950F7B
:104B900050E0551F629FF001729FBB27F00DB11DC1
:104BA000639FAA27F00DB11DAA1F649F6627B00D51
:104BB000A11D661F829F2227B00DA11D621F739F3A
:104BC000B00DA11D621F839FA00D611D221F749F48
:104BD0003327A00D611D231F849F600D211D822F8F
:104BE000762F6A2F11249F5750409AF0F1F08823B6
:104BF0004AF0EE0FFF1FBB1F661F771F881F9150E3
:104C00005040A9F79E3F510580F00C945E250C940E
:104C1000A9255F3FE4F3983ED4F386957795679591
:104C2000B795F795E7959F5FC1F7FE2B880F911D0C
:104C30009695879597F90895FA01EE0FFF1F309624
:104C400021053105A1F16115710561F48038BFE3DB
:104C50009B0749F168949038810561F08038BFEF77
:104C60009B0741F099234AF5FF3FE10531052105F6
:104C700019F1E8940894E795D901AA2329F4AB2FF8
:104C8000BE2FF85FD0F310C0FF5F70F4A695E0F779
:104C9000F73950F019F0FF3A38F49F779F930DD011
:104CA0000F9007FC9058089546F00C94642560E03E
:104CB00070E080E89FE308954FE79F775F934F93FD
:104CC0003F932F930E9417272F913F914F915F9110
:104CD0000E94AF250C94742629F416F00C945E25DE
:104CE0000C94A8250C9464250E948E25A8F3963870
:104CF000A0F707F80F92E8942BE33AEA48EB5FE756
:104D00000E94C5250F920F920F924DB75EB70F927A
:104D10000E945F27E8E6F0E00E94A6264F915F918F
:104D2000EF91FF91E595EE1FFF1F49F0FE57E068F8
:104D30004427EE0F441FFA95E1F74195550B0E9469
:104D4000D9260F9007FE0C94CD260895DF93CF93BC
:104D50001F930F93FF92EF92DF927B018C01689477
:104D600006C0DA2EEF010E94C225FE01E894A5914B
:104D70002591359145915591A6F3EF010E94242488
:104D8000FE019701A801DA9469F7DF90EF90FF9098
:104D90000F911F91CF91DF9108959B01AC0160E0CD
:104DA00070E080E89FE30C9479240C945E250C94C9
:104DB00093270E948E25D8F39923C9F3940F511D90
:104DC000A3F39150504094F059F0882332F0660FCD
:104DD000771F881F91505040C1F79E3F51052CF717
:104DE000880F911D9695879597F908955F3FACF0D0
:104DF000983E9CF0BB27869577956795B79508F404
:104E0000B1609395C1F7BB0F58F711F460FFE8CF7D
:104E10006F5F7F4F8F4F9F4FE3CF0C94A92516F004
:104E20000C9493270C94642568940C945E250E943E
:104E30008E25A8F39923C1F3AEF3DF93CF931F938D
:104E40000F93FF92C92FDD2788232AF02197660F41
:104E5000771F881FDAF720E030E040E85FEB9FE340
:104E6000883920F0803E38F021968F770E940D24FB
:104E7000E0E9F0E004C00E940D24EDEBF0E00E94B8
:104E8000A6268B01BE01EC01FB2E6F5771097595AB
:104E9000771F880B990B0E94232528E132E741E315
:104EA0005FE30E94C225AF2D9801AE01FF900F91E4
:104EB0001F91CF91DF910E9424240C947525FA0153
:104EC000DC01AA0FBB1F9B01AC01BF5728F42227AE
:104ED00033274427507820C0B75190F4AB2F0024DB
:104EE000469537952795011CA395D2F3002071F0C4
:104EF000220F331F441FB395DAF30ED00C940C2409
:104F000061307105A0E88A07B94630F49B01AC0115
:104F10006627772788279078309621F02083318381
:104F20004283538308959F3F31F0915020F4879539
:104F300077956795B795880F911D9695879597F901
:104F40000895DB018F939F930E940C28BF91AF912E
:104F5000A29F800D911DA39F900DB29F900D1124D3
:104F6000089597FB072E16F4009407D077FD09D01B
:104F70000E941F2807FC05D03EF4909581959F4F15
:104F80000895709561957F4F0895A1E21A2EAA1B8E
:104F9000BB1BFD010DC0AA1FBB1FEE1FFF1FA217E9
:104FA000B307E407F50720F0A21BB30BE40BF50BE6
:104FB000661F771F881F991F1A9469F7609570956F
:104FC000809590959B01AC01BD01CF010895052E00
:104FD00097FB1EF400940E94FE2757FD07D00E9405
:104FE000C52707FC03D04EF40C94FE27509540953E
:104FF000309521953F4F4F4F5F4F08959095809585
:10500000709561957F4F8F4F9F4F0895EE0FFF1F53
:105010000590F491E02D09940E943328A59F900DEE
:10502000B49F900DA49F800D911D11240895B7FF8A
:105030000C940C280E940C28821B930B0895AA1B29
:10504000BB1B51E107C0AA1FBB1FA617B70710F073
:10505000A61BB70B881F991F5A95A9F780959095A5
:10506000BC01CD010895A29FB001B39FC001A39FD1
:10507000700D811D1124911DB29F700D811D112491
:10508000911D0895FB01DC010D900020E9F71197B7
:1050900001900D920020E1F70895AEE0B0E0E3E565
:1050A000F8E20C94FC2A0D891E8986E08C831A8311
:1050B00009838FEF9FE79E838D83AE01475E5F4F2D
:1050C0006F89788DCE0101960E9470282F813885D6
:1050D000020F131FF80110822E96E4E00C94182B97
:1050E000ABE0B0E0E6E7F8E20C94EE2A7C013B018D
:1050F0008A01FC0117821682838181FFC8C1CE011B
:1051000001965C01F7019381F30193FD859193FF73
:1051100081913F01882309F453C1853239F493FD0D
:10512000859193FF81913F01853229F4B70190E089
:105130000E94602AE7CF912C212C312CFFE1F3153E
:1051400038F08B3211F190F4803209F1833229F179
:1051500037FC3CC020ED280F2A3050F536FE20C029
:105160008AE0989E200D1124922E06C08D3291F077
:10517000803371F7689430F8F30193FD859193FFC4
:1051800081913F018111DACF21C0689431F8689490
:1051900032F8F2CF689433F8EFCF689434F8ECCF5C
:1051A000EAE02E9E200D1124222E689435F8E4CFDB
:1051B0008E3229F436FC04C1689436F8DDCF8C3683
:1051C00019F4689437F8D8CF8836B1F2982F9F7DBC
:1051D00095549330E0F08336A1F18337C1F18335E4
:1051E00009F063C02801F2E04F0E511CF801C080A5
:1051F000D180692D70E036FC02C06FEF7FEFC601F1
:105200000E944A2A4C01689437F882010AC00C5F58
:105210001F4FFFE3F98388248394912C6501E89460
:1052200037F833FE2DC0522C8114910471F55520AE
:1052300009F468CFB70180E290E00E94602A5A9496
:10524000F6CFF801808189830E5F1F4FE4CF2801DC
:10525000F2E04F0E511CF801C080D180692D70E042
:1052600036FC02C06FEF7FEFC6010E94552A4C0149
:105270008201D5CFB70180E290E00E94602A2A9493
:105280002814190409F0B0F7CECFF60137FC859148
:1052900037FE81916F01B70190E00E94602A5110A2
:1052A0005A94F1E08F1A9108BFCF843619F08936ED
:1052B00009F077C0F80137FE6BC06081718182818F
:1052C00093810C5F1F4FF32DFF763F2E97FF09C090
:1052D00090958095709561957F4F8F4F9F4F689403
:1052E00037F82AE030E0A5010E94902AC82ECA189B
:1052F0008C2C432C36FE0CC0E89440F8C91440F4C2
:1053000034FE05C032FC03C0F32DFE7E4F2E892CE7
:1053100044FE95C0FE01EC0DF11D8081803309F043
:1053200087C0242D297E422E842D8870582E43FC60
:1053300095C040FE8FC09C2C821418F42C0C922C2B
:10534000981844FE91C0B70180E390E00E94602A63
:1053500042FE09C088E790E041FE02C088E590E087
:10536000B7010E94602AC91408F48AC0CA94D12CDB
:105370009FEFC91AD90ACA0CDB1CF60182916F0192
:10538000B70190E00E94602AAC14BD04B1F74FCF82
:1053900060817181072E000C880B990B0E5F1F4FE7
:1053A00092CFD32CE894D4F82AE030E0853739F155
:1053B000232D297FD22E8F3601F148F48835A9F0AC
:1053C000F701868197812B96E2E10C940A2B8037B6
:1053D00049F08837A9F7D4FE02C06894D2F820E1DA
:1053E00030E00DC06894D4F8F6CF34FE03C0822FAD
:1053F0008660D82E20E132E002C028E030E0F801DB
:10540000D7FE0FC060817181828193810C5F1F4F35
:10541000A5010E94902AC82ECA183D2CE89437F89E
:1054200067CF6081718190E080E00E5F1F4FF0CF09
:1054300042FC02C0839478CF8394839475CF842DEB
:10544000867809F471CFF6CFB70180E290E00E9430
:10545000602A83948214C0F3512C73CF522C5818B5
:10546000821408F46ECFF8CF842D867809F47BCFB0
:105470008BE241FE80E247FC8DE2B70190E071CF04
:10548000B70180E390E00E94602A9A946CCF8FEF7E
:105490009FEF99CFFC010590615070400110D8F743
:1054A000809590958E0F9F1F0895FC01615070406C
:1054B00001900110D8F7809590958E0F9F1F089549
:1054C0000F931F93CF93DF93182F092FEB018B813D
:1054D00081FD09C01FEF0FEF812F902FDF91CF913A
:1054E0001F910F91089582FF14C02E813F818C81FE
:1054F0009D81281739073CF4E881F981CF01019695
:105500009983888310838E819F8101969F838E83E8
:10551000E3CFE885F985812F0995892BA1F3DACFAF
:10552000FA01AA27283051F1203181F1E8946F93D4
:105530006E7F6E5F7F4F8F4F9F4FAF4FB1E03ED07A
:10554000B4E03CD0670F781F891F9A1FA11D680F18
:10555000791F8A1F911DA11D6A0F711D811D911D4B
:10556000A11D20D009F468943F912AE0269F1124C0
:105570003019305D3193DEF6CF010895462F477024
:10558000405D4193B3E00FD0C9F7F6CF462F4F707F
:10559000405D4A3318F0495D31FD4052419302D0DD
:1055A000A9F7EACFB4E0A695979587957795679583
:1055B000BA95C9F700976105710508959B01AC0183
:1055C0000A2E06945795479537952795BA95C9F7AA
:1055D000620F731F841F951FA01D08952F923F9285
:1055E0004F925F926F927F928F929F92AF92BF92F3
:1055F000CF92DF92EF92FF920F931F93CF93DF939F
:10560000CDB7DEB7CA1BDB0B0FB6F894DEBF0FBEFB
:10561000CDBF09942A88398848885F846E847D8448
:105620008C849B84AA84B984C884DF80EE80FD804A
:105630000C811B81AA81B981CE0FD11D0FB6F894C0
:0E564000DEBF0FBECDBFED010895F894FFCF81
:10564E00FFFFFFFF050000000000803FFFFFFFFF90
:10565E00FF000000009402F4012102FC025202300D
:10566E00024402000000007F075207C80728074BBC
:10567E0007380729070D0A0074656C656D6574722D
:10568E00792C0025692C00302C002D312C00256939
:10569E00002400616C7469636F6E6669672C00414B
:1056AE006C746944756F00256C752C0025693B0A76
:1056BE0000746573745472616D652C00426561727D
:1056CE0020616C74696D65746572732061726520FA
:0E56DE007468652062657374212121212C00FF
:00000001FF
