:100000000C9445010C946D010C946D010C946D01E0
:100010000C946D010C946D010C946D010C94771689
:100020000C946D010C946D010C946D010C9494185A
:100030000C946D010C946D010C946D010C946D0188
:100040000C942B170C946D010C94F9160C94D31688
:100050000C946D010C946D010C946D010C946D0168
:100060000C9475170C946D0107634236B79BD8A7A3
:100070001A39685618AEBAAB558C1D3CB7CC5763CD
:10008000BD6DEDFD753EF6177231BF000000803F7B
:1000900008000000BE922449123EABAAAA2ABECD97
:1000A000CCCC4C3E00000080BEABAAAAAA3E000009
:1000B0000000BF000000803F000000000008417801
:1000C000D3BB4387D1133D190E3CC3BD4282AD2B38
:1000D0003E68EC8276BED98FE1A93E4C80EFFFBE30
:1000E00001C4FF7F3F0000000000696E76616C690B
:1000F0006420636F6E660024554E4B4E4F574E3B47
:1001000000244B303B0A00636F6E6669672072659E
:1001100073657465640A00244F4B3B0A0054656C98
:10012000656D657472792064697361626C65640AD7
:100130000054656C656D6574727920656E61626CE2
:1001400065640A004E6F7420696D706C656D656E34
:10015000746564200A004E6F7420696D706C656D63
:10016000656E746564200A004E6F7420696D706C52
:10017000656D656E746564200A00244F4B3B0A0070
:10018000244B4F3B0A00244F4B3B0A0024656E640E
:100190003B0A002473746172743B0A004E6F742032
:1001A000696D706C656D656E746564200A00244F1E
:1001B0004B3B0A004E6F7420696D706C656D656E07
:1001C000746564200A00244F4B3B0A00244F4B3BCC
:1001D0000A00244F4B3B0A004E6F7420696D706C0F
:1001E000656D656E746564200A004E6F7420696DDC
:1001F000706C656D656E746564200A0024656E64BC
:100200003B0A002473746172743B0A004E6F7420C1
:10021000696D706C656D656E746564200A00000020
:100220000000240027002A00000000002300260010
:10023000290000000008000201000003040700007C
:1002400000000000000053746172742070726F67C8
:1002500072616D0A0001020408102040800102044E
:1002600008102001020408102000000000250028CA
:10027000002B000404040404040404020202020229
:1002800002030303030303026B1911241FBECFEF04
:10029000D8E0DEBFCDBF11E0A0E0B1E0E6EEFAE5C8
:1002A00002C005900D92AE39B107D9F723E0AEE94F
:1002B000B1E001C01D92AA3EB207E1F711E0C5E42A
:1002C000D1E004C02197FE010E94882AC434D107DE
:1002D000C9F70E94B3190C94712D0C940000982F4B
:1002E00020911D0381E0213208F043C08091F90282
:1002F0008111FCCF80911C0332E03093F90290937E
:10030000F8029FEF9093F7021092F6022093F50205
:10031000ACEFB2E0E5EDF2E090E0291331C01092CD
:10032000D4029091D402880F892B8093D4028091BB
:10033000D302813049F51092D3028091D402809388
:10034000BB008091BC0083FDF8CF85EC8093BC009E
:100350008091F9028230E1F38091F7028F3FB1F092
:100360008091F7028032A1F08091F702803391F002
:1003700084E01092FB0210921D031092FA0208957D
:100380003D9131939F5FC9CF85EEE0CF80E0F1CF03
:1003900082E0EFCF83E0EDCF089508950895AF9206
:1003A000BF92CF92DF92EF92FF920F931F93CF9362
:1003B000DF936C017B018B01040F151FEB015E01C4
:1003C000AE18BF08C017D10759F06991D601ED9159
:1003D000FC910190F081E02DC6010995892B79F7F8
:1003E000C501DF91CF911F910F91FF90EF90DF90AA
:1003F000CF90BF90AF900895FC01538D448D252F71
:1004000030E0842F90E0821B930B541710F0CF96AE
:10041000089501970895FC01918D828D981761F0E0
:10042000A28DAE0FBF2FB11D5D968C91928D9F5FF7
:100430009F73928F90E008958FEF9FEF0895FC01D6
:10044000918D828D981731F0828DE80FF11D858D89
:1004500090E008958FEF9FEF0895FC01918D228D1C
:10046000892F90E0805C9F4F821B91098F739927A1
:1004700008958EE193E00E942D0221E0892B09F47A
:1004800020E0822F089580E090E0892B29F00E94DF
:10049000390281110C9400000895FC01A48DA80F6D
:1004A000B92FB11DA35ABF4F2C91848D90E00196B6
:1004B0008F739927848FA689B7892C93A089B189D6
:1004C0008C91837080648C93938D848D981306C077
:1004D0000288F389E02D80818F7D80830895EF92DB
:1004E000FF920F931F93CF93DF93EC0181E0888FEE
:1004F0009B8D8C8D98131AC0E889F989808185FFBE
:1005000015C09FB7F894EE89FF896083E889F9895F
:1005100080818370806480839FBF81E090E0DF9161
:10052000CF911F910F91FF90EF900895F62E0B8DB4
:1005300010E00F5F1F4F0F731127E02E8C8D8E116F
:100540000CC00FB607FCFACFE889F989808185FFD6
:10055000F5CFCE010E944D02F1CFEB8DEC0FFD2FB8
:10056000F11DE35AFF4FF0829FB7F8940B8FEA8991
:10057000FB8980818062CFCF0F931F93CF93DF934E
:100580008C01D0E0C0E0F801EC0FFD1F6491662300
:1005900041F08EE193E00E946F02892B11F02196C9
:1005A000F2CFCE01DF91CF911F910F910895CF939C
:1005B000DF93EC01888D8823B9F0AA89BB89E8898B
:1005C000F9898C9185FD03C0808186FD0DC00FB631
:1005D00007FCF7CF8C9185FFF2CF808185FFEDCFAF
:1005E000CE010E944D02E9CFDF91CF910895833073
:1005F00081F028F4813099F08230A9F00895873095
:10060000A9F08830C9F08430B1F4809180008F7DEA
:1006100003C0809180008F7780938000089584B517
:100620008F7784BD089584B58F7DFBCF8091B00016
:100630008F778093B00008958091B0008F7DF9CFBF
:10064000CF93DF93282F30E0F901EE5CFD4F8491CA
:10065000F901EB5AFD4FD491F901ED58FD4FC491CA
:10066000CC23A1F081110E94F702EC2FF0E0EE0FF5
:10067000FF1FE85DFD4FA591B491EC91ED2381E062
:1006800090E009F480E0DF91CF91089580E090E060
:10069000FACF1F93CF93DF93282F30E0F901EE5C60
:1006A000FD4F8491F901EB5AFD4FD491F901ED58BA
:1006B000FD4FC491CC23A9F0162F81110E94F7029F
:1006C000EC2FF0E0EE0FFF1FE759FD4FA591B4911D
:1006D0008FB7F894EC91111108C0D095DE23DC930C
:1006E0008FBFDF91CF911F910895DE2BF8CF10922D
:1006F000B2021092B1021092FB0210921D031092EE
:10070000F90281E08093F8021092D30261E082E165
:100710000E94490361E083E10E944903E9EBF0E0B4
:1007200080818E7F808380818D7F808388E4809329
:10073000B80085E48093BC008DEC91E090939F021B
:1007400080939E028EEC91E090939D0280939C0298
:1007500008959091080189130BC0E7E8F2E0E49155
:100760009FEF90930801E13049F028F0E23061F00A
:1007700060E00C94490310926E00FACF90916F00E4
:100780009D7F90936F00F4CF909170009D7F909328
:10079000700091E09093B0009091B100987F9460C8
:1007A0009093B1001092B300E3CFCF93DF9390E02A
:1007B000FC01EB5AFD4F24918D589D4FFC01849113
:1007C0008823C9F090E0880F991FFC01E25EFD4F7D
:1007D000A591B491FC01E759FD4FC591D4916111E8
:1007E0000DC09FB7F8948C91209582238C938881BB
:1007F000282328839FBFDF91CF910895623051F461
:100800009FB7F8943C91822F809583238C93E88145
:100810002E2BEFCF8FB7F894EC912E2B2C938FBF0C
:10082000EACF4F925F926F927F928F929F92AF9298
:10083000BF92CF92DF92EF92FF920F931F93CF93CD
:10084000DF9300D000D01F92CDB7DEB78C01498373
:100850005A836B837C83809108018D30C9F08F3F70
:1008600009F47DC00F900F900F900F900F90DF91C3
:10087000CF911F910F91FF90EF90DF90CF90BF909D
:10088000AF909F908F907F906F905F904F90089562
:10089000E7E8F2E084918D8387FDE4CF61E08DE0AD
:1008A0000E94D5038D81882321F09D81923009F02B
:1008B00044C14801B12CA12C60E072E18AE790E0CC
:1008C000A50198010E94742629013A017A01690163
:1008D00081E0C81AD108E108F1089FEFC916D104D8
:1008E000E104F10409F00CF4F7C060E472E48FE075
:1008F00090E0A50198010E94742669017A0181E0C7
:10090000C81AD108E108F1089D81923009F098C019
:100910008FEFC816D104E104F10409F00CF4CAC148
:1009200060E970ED83E090E0A50198010E947426D3
:1009300069017A0191E0C91AD108E108F1088FEF45
:10094000C816D104E104F10411F00CF065C183E094
:100950009091B100987F892B8093B100C5C08DE044
:1009600080930801E7E8F2E094919D839F3F09F4AA
:1009700079CF913029F158F0923009F43FC09D8130
:1009800097FD70CF61E08DE00E94D5038ECF14BC3F
:1009900015BC84B5826084BD85B5816085BDE0E805
:1009A000F2E0E491F0E0EE0FFF1FE759FD4F859173
:1009B0009491E2E6F2E0E491E093A4021D826ECF0E
:1009C0001092800010928100809181008860809355
:1009D000810080918100816080938100E0E8F2E0F5
:1009E000E491F0E0EE0FFF1FE759FD4F85919491E0
:1009F000E2E6F2E0E491E093A30250CF1092B0005F
:100A00001092B1008091B00082608093B00080911C
:100A1000B10081608093B100E0E8F2E0E491F0E0A1
:100A2000EE0FFF1FE759FD4F859194919093A2021D
:100A30008093A102E2E6F2E0E491E093A0022ECFDF
:100A40009FEFC916D104E104F10409F00CF473C05E
:100A500068E478EE81E090E0A50198010E94742698
:100A600069017A0181E0C81AD108E108F1089D8185
:100A7000992309F4EAC09FEFC916D104E104F104F7
:100A800009F00CF4E0C0EAC064E274EF80E090E0AA
:100A9000A50194010E94742669017A0181E0C81AB7
:100AA000D108E108F10885E09FEFC916D104E104FF
:100AB000F10409F008F44CCF62E17AE780E090E0BD
:100AC000A50194010E94742669017A0181E0C81A87
:100AD000D108E108F108D5C081E09D81911138CF9E
:100AE00095B5987F892B85BDD801AA0FBB1F298199
:100AF0003A814B815C810E94932628EE33E040E0EE
:100B000050E00E94A6268D81813009F44AC08230CF
:100B100009F459C08111A6CEC7BC2093AD02309311
:100B2000AE024093AF025093B00280916E0082609B
:100B300080936E0097CE82E0D0CFB12CA12C60E0E4
:100B400072E18AE790E0A50198010E94742669018C
:100B50007A0181E0C81AD108E108F108C114D10472
:100B600091E0E906F10464F491E08D81813009F0AF
:100B7000BBCF80918100887F892B80938100B4CF87
:100B800068E478EE81E090E0A50198010E94742667
:100B900069017A0181E0C81AD108E108F10893E0FF
:100BA000E4CFD0928900C09288002093A9023093AC
:100BB000AA024093AB025093AC0280916F00826016
:100BC00080936F004FCEC092B3002093A502309364
:100BD000A6024093A7025093A80280917000826001
:100BE000809370003FCE84E09FEFC916D104E104EA
:100BF000F10409F008F474CF730162019AE0F594EE
:100C0000E794D794C7949A95D1F781E0C81AD10890
:100C1000E108F10885E064CF68E478EE81E090E0D7
:100C2000A50198010E94742669017A0191E0C91A10
:100C3000D108E108F1088FEFC816D104E104F104EE
:100C400011F00CF021CF84E083CE83E09FEFC91632
:100C5000D104E104F10409F00CF442CF62E17AE737
:100C600080E090E0A50194010E94742669017A0158
:100C700081E0C81AD108E108F1089D81992309F49F
:100C8000B2CF86E09FEFC916D104E104F10409F068
:100C900008F45ECE730162012AE0F594E794D794DC
:100CA000C7942A95D1F781E0C81AD108E108F10864
:100CB00087E04ECE82E04CCE3FB7F894809113028D
:100CC00090911402A0911502B091160226B5A89B2E
:100CD00005C02F3F19F00196A11DB11D3FBFBA2FCE
:100CE000A92F982F8827BC01CD01620F711D811D8E
:100CF000911D42E0660F771F881F991F4A95D1F713
:100D000008958F929F92AF92BF92CF92DF92EF920F
:100D1000FF924B015C010E945C066B017C010E940A
:100D20005C066C197D098E099F09683E7340810538
:100D30009105A8F321E0821A9108A108B10888EE74
:100D4000C80E83E0D81EE11CF11C81149104A1049B
:100D5000B10429F7FF90EF90DF90CF90BF90AF9054
:100D60009F908F9008952FB7F89460910F02709123
:100D7000100280911102909112022FBF089585ED0B
:100D80008093BC008091BC0084FDFCCF1092F902DE
:100D900008952091EB01260F3327331F21323105AF
:100DA000ECF42091F902FC0190E080E0243069F03D
:100DB00082E00895A091EB012191AC0145535E4F73
:100DC000A40FB52FB11D2C930196861798F380912F
:100DD000EB01680F6093EB0180E0089581E00895D6
:100DE0000895E091B2028091B102E81730F4F0E08A
:100DF000ED54FD4F808190E008958FEF9FEF0895AF
:100E00009091B2028091B1022FEF3FEF981748F412
:100E1000E92FF0E0ED54FD4F208130E09F5F90938B
:100E2000B202C90108958091B1029091B202891B6A
:100E3000990B0895CF92DF92EF92FF920F931F9339
:100E4000CF93DF937C01CB018A012091FA02222308
:100E500089F0EB016B01C40ED51ECC15DD0569F0E0
:100E60006991D701ED91FC910190F081E02DC701CE
:100E70000995F3CF642F0E94C906C801DF91CF9175
:100E80001F910F91FF90EF90DF90CF900895CF9337
:100E9000DF931F92CDB7DEB769832091FA02222338
:100EA000F9F020911D03203258F021E030E0FC01E0
:100EB0003383228390E080E00F90DF91CF910895FB
:100EC0008091FB02E82FF0E0E450FD4F9981908380
:100ED0008F5F8093FB0280931D0381E090E0ECCF55
:100EE00061E0CE0101960E94C906F7CFCF93C82FCB
:100EF00081E08093FA0287E780931C031092FB0243
:100F000010921D0364EF8BEB93E00E9447076C2F58
:100F10008BEB93E00E94470781E0CF910C946F0127
:100F200090E080E00895DC01EC91EC3090F51196B2
:100F30008C91119728E830E0281B310987FD339503
:100F4000220F331F220F331F6217730784F012968C
:100F50008C9128E532E0281B310987FD3395220F5B
:100F6000331F220F331F621773070CF49B012250AB
:100F70003109220F331F4FB7F8948E2F90E0FC01F8
:100F8000EE0FFF1FE80FF91FE955FE4F3283218353
:100F90004FBF0895CF92DF92EF92FF92CF93DF93EE
:100FA000EC01603282E07807CCF5653B710514F006
:100FB00064EB70E0898128E830E0281B310987FD67
:100FC0003395220F331F220F331F6901330FEE08B1
:100FD000FF088A8128E532E0281B310987FD339517
:100FE000220F331F220F331F032E000C440B550B0F
:100FF0002C193D094E095F09DB0177FF02C0B0E003
:10100000A0E00E949E2624EB30E040E050E00E94E9
:101010007426C20ED31EE41EF51EB601CE01DF916A
:10102000CF91FF90EF90DF90CF900C9493071F9398
:10103000CF93DF93EC01162F88818C3008F04EC0DF
:1010400061E0812F0E94D5038881282F30E0F901CB
:10105000EE0FFF1FE20FF31FE955FE4F1F73608174
:10106000607C612B608319821A822CE0622F0E94BF
:101070007C2A829FB001112430E020E0AB01420FB6
:10108000531FFA01EE0FFF1FE40FF51FE955FE4F46
:10109000908196FD16C02F5F3F4F2C30310571F7C0
:1010A00081110FC01092800082E080938100109225
:1010B000850010928400B19A80916F0082608093C5
:1010C0006F00E8818E2F90E0FC01EE0FFF1FE80F0C
:1010D000F91FE955FE4F8081806480838881DF910C
:1010E000CF911F910895CF93DF93CDB7DEB7CC5446
:1010F000D1090FB6F894DEBF0FBECDBF10923D02EE
:1011000010923C0210923F0210923E021092410255
:101110001092400221E030E03093430220934202DB
:1011200083E090E0909345028093440210924B023A
:1011300010924A0210924D0210924C0210924F02ED
:1011400010924E0242E350E0509347024093460211
:10115000109249021092480248EB51E0509351021C
:101160004093500245E050E05093530240935202A6
:101170009093550280935402109257021092560297
:10118000109259021092580240E056E960E070E077
:1011900040935A0250935B0260935C0270935D022D
:1011A00010925F0210925E0240E052E050936102A2
:1011B0004093600210926302109262029093650263
:1011C0008093640210926702109266028AE090E0B7
:1011D000909369028093680210926B0210926A02E7
:1011E00088E790E090936D0280936C0210926F02FA
:1011F00010926E021092710210927002109273029D
:10120000109272028CE390E09093750280937402C6
:10121000909377028093760290937902809378027C
:1012200090937B0280937A0284E190E090937D0218
:1012300080937C0290937F0280937E029093810240
:101240008093800290938302809382023093850280
:10125000209384028CE4ECE3F2E0DE01119601902D
:101260000D928A95E1F7FE013196AE01455B5F4F25
:1012700090E080E0E417F50731F02191820F911D95
:1012800027FD9A95F7CF9093870280938602C45BDF
:10129000DF4F0FB6F894DEBF0FBECDBFDF91CF9109
:1012A000089548EE53E060E070E08091A3019091D2
:1012B000A4010E9411046CED75E080E090E00E94B2
:1012C00081068DE00C94A903CF93DF93CAE0D0E0B0
:1012D00048EE53E060E070E080E496E00E94110484
:1012E00062E370E080E090E00E9481068DE00E9461
:1012F000A903219769F768EE73E080E090E0DF9141
:10130000CF910C94810649E150E060E070E080915B
:10131000A3019091A4010E9411046CE271E080E0AD
:1013200090E00E9481068DE00C94A903CF92DF9299
:10133000EF92FF920F931F93CF93DF936B017C018A
:1013400024E6C216D104E104F1040CF446C024E6FC
:1013500030E040E050E00E947426890164E6629F1C
:10136000C001639F900D1124092E000CAA0BBB0B2A
:10137000A7019601281B390B4A0B5B0BCA01B90167
:101380002AE030E040E050E00E947426E901EE24BB
:10139000E394F12C1016110644F11C161D067CF482
:1013A00001E010E00E94830962E370E080E090E0D9
:1013B0000E9481060F5F1F4FC017D1079CF768E896
:1013C00073E180E090E0DF91CF911F910F91FF904A
:1013D000EF90DF90CF900C9481062AE030E040E05F
:1013E00050E00E947426E901D8CF0E94510962E3BF
:1013F00070E080E090E00E9481063FEFE31AF30A7C
:101400000E151F0594F7C9CF209172023091730217
:10141000232B09F044C08930910579F4662341F00B
:10142000609174027091750280ED93E00C94CA078C
:1014300060917C0270917D02F7CF8A30910571F442
:10144000662339F060917602709177028DEC93E01B
:10145000EDCF60917E0270917F02F8CF85309105CB
:1014600071F4662339F060917802709179028AEC08
:1014700093E0DCCF6091800270918102F8CF0697F3
:1014800069F5662339F060917A0270917B0287ECEE
:1014900093E0CCCF6091820270918302F8CF61110A
:1014A00009C060ED77E08930910539F480ED93E073
:1014B0000C94930768EE73E0F6CF8A30910519F427
:1014C0008DEC93E0F5CF8530910519F48AEC93E02B
:1014D000EFCF069719F487EC93E0EACF0895809157
:1014E0003C0290913D02892B09F089C080E090E098
:1014F000A0E8BFE38093040190930501A093060147
:10150000B09307016091460270914702072E000CCC
:10151000880B990B0E94EE27209104013091050160
:1015200040910601509107010E9444270E94B6276E
:10153000072E000C880B990B6093280270932902E8
:1015400080932A0290932B02809150029091510235
:101550009093A4018093A3011092890210928802B3
:101560001092330210923202109231021092300225
:1015700010929202109238021092390210923A029E
:1015800010923B02109234021092350210923602F1
:101590001092370269E070E080ED93E00E94170836
:1015A0006AE070E08DEC93E00E94170865E070E05F
:1015B0008AEC93E00E94170866E070E087EC93E005
:1015C0000E94170860E089E090E00E94040A60E051
:1015D0008AE090E00E94040A60E085E090E00E94CA
:1015E000040A60E086E090E00E94040A10922C0257
:1015F00010922D0210922E0210922F02089588E46C
:1016000099EFA1E5B0E476CF9091F9029111FCCF6A
:10161000282F91E09093F9029093F8023FEF3093D6
:10162000F7021092F602380F3093F5029093D4022D
:101630009091D4029E6E9093D4029091D3029130F7
:1016400019F51092D3029091D4029093BB0090911F
:10165000BC0093FDF8CF95EC9093BC009091F902FB
:101660009130E1F39091F602981710F42091F60270
:10167000A5EDB2E0E3EBF2E080E0821307C0109248
:10168000B2028093B102089595EEE6CF9D919193B9
:101690008F5FF3CF91E09093FA0297E790931C034A
:1016A0001092FB0210921D03682F8BEB93E00E94B7
:1016B000470781E00E946F0181E090E00E94040BE7
:1016C0008BEB93E00E9400070895CF93DF9391E0A6
:1016D0009093FA0297E790931C031092FB021092EA
:1016E0001D03682F8BEB93E00E94470781E00E9467
:1016F0006F0182E090E00E94040B8BEB93E00E946C
:101700000007D82F80E0C82F8BEB93E00E940007E2
:101710008C2B9D2BDF91CF9108958EE20E9476074E
:1017200065E070E080E090E00E94810686EF0C9416
:10173000650BFC0101900020E9F73197AF01481BD0
:10174000590BBC018EE193E00C94CF01CF93DF9352
:101750000E94BC02EC0185E391E00E94990B8C0F82
:101760009D1FDF91CF9108950F931F93CF93DF9328
:101770000CE312E0C0E2D0E0F80161918F01CE01EC
:101780000E9466262196CC36D105B1F7DF91CF9124
:101790001F910F910895EF92FF920F931F93CF9394
:1017A000DF93CDB7DEB7CC54D1090FB6F894DEBFC6
:1017B0000FBECDBF0E9473088CE3E82E82E0F82EA6
:1017C00000E210E0C8010E945E26F70181937F01CC
:1017D0000F5F1F4F0C361105A9F7409186025091FB
:1017E00087028CE4ECE3F2E0DE01119601900D92A9
:1017F0008A95E1F7FE013196BE01655B7F4F30E0CF
:1018000020E0E617F70731F08191280F311D87FDA1
:101810003A95F7CF81E04217530709F080E0C45BA7
:10182000DF4F0FB6F894DEBF0FBECDBFDF91CF9173
:101830001F910F91FF90EF9008958F929F92AF921A
:10184000BF92CF92DF92FF920F931F93CF93DF93BC
:1018500000D000D01F92CDB7DEB72AE0AE014F5FB7
:101860005F4F6A010E942C26F60101900020E9F7E3
:101870003197FE2EFC1868EB7BE080E090E00E9440
:10188000810656018A2D8C198F15F0F468EE73E0ED
:1018900080E090E00E948106F50101915F01005314
:1018A00009F40AE010E0912C812C0E948309FFEFDB
:1018B0008F1A9F0A801691062CF76AEF70E080E07D
:1018C00090E00E948106F1CF0F900F900F900F9043
:1018D0000F90DF91CF911F910F91FF90DF90CF90EC
:1018E000BF90AF909F908F9008954F925F926F92AC
:1018F0007F92AF92BF92CF92DF92EF92FF920F93BF
:101900001F93CF93DF93CDB7DEB7C45ED1090FB677
:10191000F894DEBF0FBECDBF8C010E94990B85E30A
:1019200091E00E94990BD8018C918136D1F48CE022
:1019300092E00E94A60BCC51DF4F0FB6F894DEBFA9
:101940000FBECDBFDF91CF911F910F91FF90EF9010
:10195000DF90CF90BF90AF907F906F905F904F904F
:101960000895823609F010C383E092E00E94BC0221
:101970001A821982FE01339684E9DF011D928A954D
:10198000E9F78E0109561F4FF8011192119288E074
:10199000DF011D928A95E9F70E94CB0B811104C0EB
:1019A0008AEE90E00E94BC0268E371E0CE010196ED
:1019B0000E948E2A80913D028F9380913C028F93EA
:1019C00084E4E82E81E0F82EFF92EF921F930F93AC
:1019D0000E94992AB801CE0101960E948E2A809118
:1019E0003F028F9380913E028F93FF92EF921F935D
:1019F0000F930E94992AB801CE0101960E948E2A67
:101A0000809141028F93809140028F93FF92EF92D9
:101A10001F930F930E94992AB801CE0101960E944C
:101A20008E2A809143028F93809142028F93FF927E
:101A3000EF921F930F930E94992AB801CE0101964D
:101A40000E948E2A809145028F93809144028F9349
:101A5000FF92EF921F930F930E94992AB801CE0133
:101A600001960E948E2A809149028F9380914802AC
:101A70008F93FF92EF921F930F930E94992A0FB6B4
:101A8000F894DEBF0FBECDBFB801CE0101960E9413
:101A90008E2A809147028F93809146028F93FF9206
:101AA000EF921F930F930E94992AB801CE010196DD
:101AB0000E948E2A68E471E0CE0101960E948E2A6F
:101AC00069E871E0CE0101960E948E2A1F9281E0A2
:101AD0008F93FF92EF921F930F930E94992AB80160
:101AE000CE0101960E948E2A1F9286E08F93FF926C
:101AF000EF921F930F930E94992AB801CE0101968D
:101B00000E948E2A80914B028F9380914A028F937C
:101B1000FF92EF921F930F930E94992AB801CE0172
:101B200001960E948E2A80914D028F9380914C02E3
:101B30008F93FF92EF921F930F930E94992AB801FF
:101B4000CE0101960E948E2A80914F028F93809140
:101B50004E028F93FF92EF921F930F930E94992A48
:101B60000FB6F894DEBF0FBECDBFB801CE0101960F
:101B70000E948E2A809151028F93809150028F9300
:101B8000FF92EF921F930F930E94992AB801CE0102
:101B900001960E948E2A809153028F938091520267
:101BA0008F93FF92EF921F930F930E94992AB8018F
:101BB000CE0101960E948E2A809155028F938091CA
:101BC00054028F93FF92EF921F930F930E94992AD2
:101BD000B801CE0101960E948E2A809157028F9300
:101BE000809156028F93FF92EF921F930F930E9462
:101BF000992AB801CE0101960E948E2A809159023D
:101C00008F93809158028F93FF92EF921F930F93BF
:101C10000E94992AB801CE0101960E948E2A8091D5
:101C20005D028F9380915C028F9380915B028F9312
:101C300080915A028F9382E591E09F938F931F9337
:101C40000F930E94992A0FB6F894DEBF0FBECDBF46
:101C5000B801CE0101960E948E2A80915F028F9377
:101C600080915E028F93FF92EF921F930F930E94D9
:101C7000992AB801CE0101960E948E2A80916102B4
:101C80008F93809160028F93FF92EF921F930F9337
:101C90000E94992AB801CE0101960E948E2A809155
:101CA00063028F93809162028F93FF92EF921F9352
:101CB0000F930E94992AB801CE0101960E948E2AA4
:101CC000809165028F93809164028F93FF92EF92CF
:101CD0001F930F930E94992AB801CE0101960E948A
:101CE0008E2A809167028F93809166028F93FF9274
:101CF000EF921F930F930E94992AB801CE0101968B
:101D00000E948E2A809169028F93809168028F933E
:101D1000FF92EF921F930F930E94992A0FB6F894A7
:101D2000DEBF0FBECDBFB801CE0101960E948E2A44
:101D300080916B028F9380916A028F93FF92EF9252
:101D40001F930F930E94992AB801CE0101960E9419
:101D50008E2A80916D028F9380916C028F93FF92F7
:101D6000EF921F930F930E94992AB801CE0101961A
:101D70000E948E2A80916F028F9380916E028F93C2
:101D8000FF92EF921F930F930E94992AB801CE0100
:101D900001960E948E2A809171028F938091700229
:101DA0008F93FF92EF921F930F930E94992AB8018D
:101DB000CE0101960E948E2A809173028F938091AA
:101DC00072028F93FF92EF921F930F930E94992AB2
:101DD000B801CE0101960E948E2A809175028F93E0
:101DE000809174028F93FF92EF921F930F930E9442
:101DF000992A0FB6F894DEBF0FBECDBFB801CE0151
:101E000001960E948E2A809177028F9380917602AC
:101E10008F93FF92EF921F930F930E94992AB8011C
:101E2000CE0101960E948E2A809179028F93809133
:101E300078028F93FF92EF921F930F930E94992A3B
:101E4000B801CE0101960E948E2A80917B028F9369
:101E500080917A028F93FF92EF921F930F930E94CB
:101E6000992AB801CE0101960E948E2A80917D02A6
:101E70008F9380917C028F93FF92EF921F930F9329
:101E80000E94992AB801CE0101960E948E2A809163
:101E90007F028F9380917E028F93FF92EF921F9328
:101EA0000F930E94992AB801CE0101960E948E2AB2
:101EB000809181028F93809180028F93FF92EF92A5
:101EC0001F930F930E94992A0FB6F894DEBF0FBE9E
:101ED000CDBFB801CE0101960E948E2A8091830267
:101EE0008F93809182028F93FF92EF921F930F93B3
:101EF0000E94992AB801CE0101960E948E2A8091F3
:101F000085028F93809184028F93FF92EF921F93AB
:101F10000F930E94992AB801CE0101960E948E2A41
:101F2000FE0131960FB6F894DEBF0FBECDBF90E034
:101F300080E02191820F911D27FD9A950E171F07B2
:101F4000C1F799279F938F9387E591E09F938F9394
:101F50001F930F930E94992AB801CE0101960E9407
:101F60008E2A8CE591E00E94990BCE0101960E9489
:101F7000990B8CEF91E00E94BC020F900F900F9094
:101F80000F900F900F90D7CC833619F48AEE91E022
:101F9000D0CC843649F40E9473080E94B40B0E948E
:101FA000CB0B0E946F0AC7CC853619F488ED91E0FF
:101FB000C0CC863641F481E080939B0282ED91E0B3
:101FC0000E94BC02B8CC873629F410929B028CEC9C
:101FD00091E0F6CF883619F486EC91E0F1CF8B369C
:101FE000A1F511968C9189831A82CE0101960E94E7
:101FF000C12597FDA0CCFF24F394F801828186349B
:1020000009F4F12CCE0101960E94A325823091059E
:10201000A1F04CF4019709F08ECC6F2D89E090E08F
:102020000E94040A88CC8330910559F0049709F086
:1020300082CC6F2D86E090E0F3CF6F2D8AE090E0A8
:10204000EFCF6F2D85E090E0EBCF8C3619F484EB69
:1020500091E06FCC8D3669F411968C91813329F41F
:1020600010929B028EEA91E0ABCF81E080939B02BD
:10207000F9CF8E3619F48CE991E05BCC8F3609F0FC
:1020800054C083E991E00E94BC021A821982FE01C9
:10209000339682E6DF011D928A95E9F78E01095693
:1020A0001F4FF8011192119288E0DF011D928A956D
:1020B000E9F76EE571E0CE0101960E948E2A69E68D
:1020C00071E0CE0101960E948E2AFE0131969E019A
:1020D0002B593F4F90E080E04191840F911D47FDC7
:1020E0009A95E217F307C1F799279F938F938BE88F
:1020F00091E09F938F931F930F930E94992AB801A9
:10210000CE0101960E948E2A69E571E0CE0101960A
:102110000E948E2A8CE591E00E94990BCE010196D7
:102120000E94990B8CE891E026CF803709F06AC1B4
:10213000CD51DF4F19830883C35ED0401A821982C4
:10214000FE01339682E6DF011D928A95E9F7B12CF4
:10215000A12C412C512C320110E000E0F12CE12C9B
:10216000AE014D515F4F69E871E0CD51DF4F88817D
:102170009981C35ED0400E94E8256C01009709F167
:10218000B1E0EB16F10461F40E94A3258C01B601C5
:10219000CE0101960E948E2A8FEFE81AF80AE0CF4E
:1021A000E2E0EE16F10429F40E94C1252B013C0166
:1021B000EECFF3E0EF16F10479F70E94A3255C015E
:1021C000EBCF94E0E916F1041CF480E891E0F8CE3E
:1021D000FE0131969E012B593F4F90E080E04191E6
:1021E000840F911D47FD9A95E217F307C1F78A15F1
:1021F0001B0459F7F8013197E432F10508F02CC0BF
:10220000EC5FFE4E0C94882A281148114D11521192
:1022100057115C11611166116B11701175117A11F2
:102220007F11841189118E1197119C11A111A61192
:10223000AB11B011B511BA11BF11C411C911CE1132
:10224000D311D811DD11E211E711EC11F111F611E2
:1022500050923D0240923C028CE4ECE3F2E0DE015D
:10226000A956BF4F01900D928A95E1F7FE01E956FC
:10227000FF4FAE014F515F4F90E080E04E175F0778
:1022800009F4B9C02191820F911D27FD9A95F6CFCF
:1022900050923F0240923E02DFCF50924102409264
:1022A0004002DACF5092430240924202D5CF509280
:1022B000450240924402D0CF5092470240924602DB
:1022C000CBCF5092490240924802C6CF50924B0267
:1022D00040924A02C1CF50924D0240924C02BCCF74
:1022E00050924F0240924E02B7CF5092510240920C
:1022F0005002B2CF5092530240925202ADCF509250
:10230000550240925402A8CF509257024092560272
:10231000A3CF50925902409258029ECF40925A0247
:1023200050925B0260925C0270925D0295CF509277
:102330005F0240925E0290CF509261024092600232
:102340008BCF509263024092620286CF5092650218
:102350004092640281CF50926702409266027CCF25
:10236000509269024092680277CF50926B0240927D
:102370006A0272CF50926D0240926C026DCF509201
:102380006F0240926E0268CF5092710240927002CA
:1023900063CF50927302409272025ECF50927502E8
:1023A0004092740259CF509277024092760254CFF5
:1023B00050927902409278024FCF50927B02409225
:1023C0007A024ACF50927D0240927C0245CF5092D1
:1023D0007F0240927E0240CF509281024092800262
:1023E0003BCF509283024092820236CF50928502B8
:1023F0004092840231CF909387028093860286E8D0
:1024000091E0DECD813749F40E94B40B0E94CB0BE2
:102410000E946F0A8AE791E0D3CD823719F488E6EB
:1024200091E087CA833719F486E591E082CA87373D
:1024300019F484E491E07DCA8937A9F411968C914E
:10244000813351F481E391E00E94BC0281E08093EA
:10245000A20187E191E0B4CD8DE191E00E94BC0240
:102460001092A201F6CF843739F40E9473080E94BB
:10247000B40B87E091E0A4CD893609F45CCA8032C0
:1024800019F481E091E09CCD87EF90E00E94BC02BE
:10249000F80160818EE193E00E946F0285E391E094
:1024A0000E94990B48CA2F923F924F925F926F926F
:1024B0007F928F929F92AF92BF92CF92DF92EF92D4
:1024C000FF920F931F93CF93DF93CDB7DEB7C35D1A
:1024D000D1090FB6F894DEBF0FBECDBF1A821982A4
:1024E000FE01339626ECDF011D922A95E9F78E0155
:1024F00007531F4FF8011192119228E0DF011D923E
:102500002A95E9F72091A201222309F494C17A01C6
:10251000892E982EA72EB62E0E94B30640909E01BB
:1025200050909F016090A0017090A101DC01CB014F
:1025300084199509A609B709A701FF0C660B770B4B
:10254000481759076A077B0708F075C10E94B30650
:1025500060939E0170939F018093A0019093A101CD
:1025600060909202B0918902CD52DF4FB883C35D73
:10257000D040209093023090940240909502509069
:10258000960280918802811170C1712CC12CD12CCE
:102590006EE871E0CE0101960E948E2A5F924F9202
:1025A0003F922F9284E4E82E81E0F82EFF92EF9282
:1025B0001F930F930E94992AB801CE0101960E94A1
:1025C0008E2A1F926F92FF92EF921F930F930E9499
:1025D000992AB801CE0101960E948E2A1F92CD52EF
:1025E000DF4F8881C35DD0408F93FF92EF921F939E
:1025F0000F930E94992AB801CE0101960E948E2A5B
:1026000080913B028F9380913A028F93809139029F
:102610008F93809138028F93FF92EF921F930F93C5
:102620000E94992AB801CE0101960E948E2A1F921B
:102630007F92FF92EF921F930F930E94992A0FB6F9
:10264000F894DEBF0FBECDBFB801CE0101960E9447
:102650008E2A809137028F93809136028F938091DA
:1026600035028F93809134028F93FF92EF921F93E4
:102670000F930E94992AB801CE0101960E948E2ADA
:10268000DF92CF92FF92EF921F930F930E94992AAD
:10269000B801CE0101960E948E2A8F929F92AF922E
:1026A000BF92FF92EF921F930F930E94992AB80155
:1026B000CE0101960E948E2A69E971E0CE01019651
:1026C0000E948E2A69E971E0CE0101960E948E2A4D
:1026D00069E971E0CE0101960E948E2A69E971E0F4
:1026E000CE0101960E948E2A69E971E0CE01019621
:1026F0000E948E2A0E948D0B9C0150E040E0809148
:10270000E8039091E903281B390B41095109A09175
:10271000E603B091E7030E9493260E94EE2720E093
:1027200030E040E058E30E947A280E94B6274B012F
:102730005C016091E0037091E103072E000C880BAF
:10274000990B0E94EE2720E030E040E055E40E9423
:102750007A282B013C016091E2037091E303072E7C
:10276000000C880B990B680D791D8A1D9B1D0E941A
:10277000EE279B01AC01C301B2010E9444270E94D5
:10278000B627680D791D8A1D9B1D685F7F4F8F4F8F
:102790009F4F0E94EE2720E030E040E85DE30E947A
:1027A0007A2820E030E040E251E40E9444270E9471
:1027B000B6277F936F93FF92EF921F930F930E9420
:1027C000992AB801CE0101960E948E2AFE01319607
:1027D0000FB6F894DEBF0FBECDBF90E080E0219130
:1027E000820F911D27FD9A950E171F07C1F7992794
:1027F0009F938F938BE891E09F938F931F930F93F9
:102800000E94992AB801CE0101960E948E2A69E59C
:1028100071E0CE0101960E948E2A8CE591E00E9423
:10282000990BCE0101960E94990B0F900F900F907B
:102830000F900F900F90CD52DF4F0FB6F894DEBF80
:102840000FBECDBFDF91CF911F910F91FF90EF9001
:10285000DF90CF90BF90AF909F908F907F906F90C0
:102860005F904F903F902F90089581E0D12C9AE097
:1028700029163104410451040CF080E0C82E77245D
:10288000739486CE4F925F926F927F928F929F92B7
:10289000AF92BF92CF92DF92EF92FF921F93CF93AE
:1028A000DF9300D000D000D0CDB7DEB70E948D0BF3
:1028B0005C018091D3038295880F880F807C8C5CAB
:1028C0000E94760765E070E080E090E00E9481065B
:1028D00086EF0E94650BB0E0A0E0CC24D82EE92E54
:1028E000FA2E88EF0E944A0BC82A1091D303212F99
:1028F00030E03E832D83950150E040E08091E80375
:102900009091E903281B390B41095109A091E60375
:10291000B091E7030E9493260E94EE2720E030E06A
:1029200040E058E30E947A280E94B6272B013C0120
:102930006091E0037091E103072E000C880B990B66
:102940000E94EE2720E030E040E055E40E947A2823
:102950004B015C016091E2037091E303072E000CD0
:10296000880B990B640D751D861D971D0E94EE271F
:102970009B01AC01C501B4010E9444270E94B62707
:10298000460E571E681E791E30EA431A3FE0530A6E
:1029900061087108A3019201C301B2010E946C2A6F
:1029A0009B01AC01ACE05595479537952795AA95C5
:1029B000D1F729833A834B835C83A091D803B091EC
:1029C000D903A30192010E949E264B015C01BDE048
:1029D000B594A79497948794BA95D1F7A091DA0308
:1029E000B091DB0329813A814B815C810E949E2654
:1029F0009C01552737FD5095452F280D391D4A1D3F
:102A00005B1D2E5F3F4F4F4F5F4F62E055954795DF
:102A1000379527956A95D1F730584F4F5F4FA09162
:102A2000E403B091E5030E9493264B015C017FE033
:102A3000B694A794979487947A95D1F788E090E01C
:102A40004D815E81841B950B04C0F694E794D79466
:102A5000C7948A95D2F7A091DC03B091DD03298158
:102A60003A814B815C810E949E269B01AC01EBE088
:102A70005595479537952795EA95D1F729833A8358
:102A80004B835C83A091D603B091D703A30192013D
:102A90000E949E26FBE09595879577956795FA9518
:102AA000D1F729813A814B815C81620F731F841FAA
:102AB000951F4090D4035090D503052C000C660858
:102AC0007708A2E0440C551C661C771CAA95D1F728
:102AD000640D751D861D971D012E04C0660F771F9E
:102AE000881F991F0A94D2F76E5F7F4F8F4F9F4FB9
:102AF00024E030E040E050E00E947426D701C60197
:102B0000821B930BA40BB50B9C01AD0160E573EC2C
:102B100080E090E004C096958795779567951A9523
:102B2000D2F70E946C2A97FDD7C0660F771F881FC7
:102B3000991FA50194010E94A62669017A0199278F
:102B4000F7FC9A958F2D7E2D6D2D9B01AC010E9477
:102B50006C2A9B01AC01AEEDBBE00E9493264B01B9
:102B60005C01A3E4B3EEA70196010E94A126BC017B
:102B7000992777FD9095892F4501BB2497FCB09448
:102B8000AB2C680D791D8A1D9B1D6153714F8F4FB2
:102B90009F4F44E095958795779567954A95D1F72E
:102BA0006C0D7D1D8E1D9F1D0E94EE2720E836EEC8
:102BB00045EC57E40E94442721E03EED42E45EE309
:102BC0000E94E72869837A838B839C8340901B0251
:102BD00050901C0260901D0270901E0220911F02F6
:102BE00030912002409121025091220260911702FF
:102BF000709118028091190290911A020E94D826B1
:102C00006B017C0120912302309124024091250226
:102C1000509126020E94D8269B01AC0160E070E032
:102C200080E89FE30E944427A70196010E947A282A
:102C30004B015C0129813A814B815C8160E070E04D
:102C400080E89FE30E94D72620E03AE24DE257E475
:102C50000E947A28A30192010E94D726A50194011F
:102C60000E947A28A30192010E94D8262B013C01E0
:102C700040921B0250921C0260921D0270921E0232
:102C8000A501940160E070E080E89FE30E94D726F0
:102C9000A70196010E947A28609317027093180288
:102CA0008093190290931A02C301B20126960FB6BF
:102CB000F894DEBF0FBECDBFDF91CF911F91FF9083
:102CC000EF90DF90CF90BF90AF909F908F907F90CC
:102CD0006F905F904F900895A50194010E94A626E1
:102CE00069017A01CC0CDD1CEE1CFF1C28CF1F9261
:102CF0000F920FB60F9211242F933F934F935F9330
:102D00006F937F938F939F93AF93BF93EF93FF93B3
:102D10008091A5029091A602A091A702B091A8026D
:102D2000892B8A2B8B2BD1F19091A002E091A102EB
:102D3000F091A2028081892780838091A5029091E1
:102D4000A602A091A702B091A802181619061A06A9
:102D50001B069CF48091A5029091A602A091A70267
:102D6000B091A8020197A109B1098093A50290939F
:102D7000A602A093A702B093A802FF91EF91BF9182
:102D8000AF919F918F917F916F915F914F913F9103
:102D90002F910F900FBE0F901F90189580910801F2
:102DA0000E94A903EACF1F920F920FB60F9211242F
:102DB0002F933F934F935F936F937F938F939F9343
:102DC000AF93BF93EF93FF938EE193E00E944D0288
:102DD000FF91EF91BF91AF919F918F917F916F91F3
:102DE0005F914F913F912F910F900FBE0F901F90C9
:102DF00018951F920F920FB60F9211242F938F9355
:102E00009F93EF93FF93E0912E03F0912F03808126
:102E1000E0913403F091350382FD1BC090818091D5
:102E200037038F5F8F7320913803821741F0E09151
:102E30003703F0E0E25EFC4F958F80933703FF91FC
:102E4000EF919F918F912F910F900FBE0F901F9038
:102E500018958081F4CF1F920F920FB60F92112414
:102E60002F933F938F939F93AF93BF9380910F02C4
:102E700090911002A0911102B091120230910E02B5
:102E800023E0230F2D3758F50196A11DB11D209386
:102E90000E0280930F0290931002A0931102B09340
:102EA00012028091130290911402A0911502B09128
:102EB00016020196A11DB11D809313029093140276
:102EC000A0931502B0931602BF91AF919F918F917D
:102ED0003F912F910F900FBE0F901F90189526E8ED
:102EE000230F0296A11DB11DD2CF1F920F920FB6D4
:102EF0000F9211242F933F934F935F936F937F9380
:102F00008F939F93AF93BF93EF93FF938091B900FB
:102F1000887F803609F44AC0F0F5883209F4A7C0EA
:102F200018F5803109F49BC0B8F4882309F4F9C07E
:102F3000883009F494C0FF91EF91BF91AF919F91B8
:102F40008F917F916F915F914F913F912F910F9052
:102F50000FBE0F901F901895883109F488C08032F9
:102F600051F78093F70214C0803409F49DC040F4F7
:102F70008033B9F38833F9F68093F70285ECB0C05B
:102F8000803509F485C0883509F496C0883499F6EF
:102F90000E94BF06D0CF883909F48CC038F5883735
:102FA00029F050F4883611F0803729F683E08093B9
:102FB000F90210920D0257C0883809F47BC080399D
:102FC00019F0803809F0B7CF80910D02803208F0F7
:102FD00071C0E0910D0281E08E0F80930D0280910F
:102FE000BB00F0E0E351FE4F80833DC0803B39F0F1
:102FF000E0F4803A09F479C0883A09F09CCF84E083
:103000008093F9021092EC011092EB01E0919E0284
:10301000F0919F0209958091EB0181110FC081E031
:103020008093EB011092CB0109C0803C09F4A6CF3C
:10303000883C09F4A3CF883B09F07DCFE091EC01F7
:1030400081E08E0F8093EC01F0E0E553FE4F80812C
:103050008093BB009091EC018091EB0129C080919D
:10306000D4028093BB0085EC8093BC0064CF909128
:10307000F6028091F502981758F5E091F60281E08A
:103080008E0F8093F602F0E0EB52FD4F8081E9CF86
:10309000E091F60281E08E0F8093F6028091BB00F2
:1030A000F0E0EB52FD4F80839091F6028091F502A3
:1030B0009817C8F285E8D8CFE091F60281E08E0F2C
:1030C0008093F6028091BB00F0E0EB52FD4F8083CD
:1030D0008091F80281115CCF81E08093D30284EA71
:1030E0008093BC001092F90226CF85EC8093BC003F
:1030F0001092F90280910D02803230F4E0910D02BD
:10310000F0E0E351FE4F108260910D0270E0E0911B
:103110009C02F0919D028DEE91E0099510920D02B6
:103120000ACF1092F70234CF1F920F920FB60F9270
:1031300011242F933F934F935F936F937F938F93BC
:103140009F93AF93BF93CF93DF93EF93FF938091C0
:10315000A501C091A601D0E087FF24C01092850090
:10316000109284008091A5018F5F8093A5018091CA
:10317000A501082E000C990B8C179D0724F4809153
:10318000A5018C30C4F18091840090918500049653
:1031900080349C4908F47AC0809184009091850025
:1031A000049676C08091A501082E000C990B8C170F
:1031B0009D07C4F6E091A5018E2FEE0F990BFC013F
:1031C000EE0FFF1FE80FF91FE955FE4F808186FFC4
:1031D000C9CFE091A5018E2FEE0F990BFC01EE0FE8
:1031E000FF1FE80FF91FE955FE4F808160E08F73E4
:1031F0000E944903B7CF2091840030918500E0916F
:10320000A5018E2FEE0F990BFC01EE0FFF1FE80FAB
:10321000F91FE955FE4F81819281820F931F909390
:10322000890080938800E091A5018E2FEE0F990B05
:10323000FC01EE0FFF1FE80FF91FE955FE4F8081DB
:1032400086FF11C0E091A5018E2FEE0F990BFC01B6
:10325000EE0FFF1FE80FF91FE955FE4F808161E077
:103260008F730E944903FF91EF91DF91CF91BF913E
:10327000AF919F918F917F916F915F914F913F910E
:103280002F910F900FBE0F901F90189580E49CE92E
:1032900090938900809388008FEF8093A501E3CFFE
:1032A000FC019091A6019C3098F481E0890F8093F5
:1032B000A6019083892F90E0FC01EE0FFF1FE80F1D
:1032C000F91FE955FE4F88EB9BE0928381830895B7
:1032D0008FEF80830895EEE1F3E01382128288EE8F
:1032E00093E0A0E0B0E084839583A683B78325E1D3
:1032F00031E03183208325EC30E03587248724ECCE
:1033000030E03787268720EC30E0318B208B21ECB2
:1033100030E0338B228B22EC30E0358B248B26EC93
:1033200030E0378B268B118E128E138E148EEBEBC2
:10333000F3E01382128284839583A683B78387E2A6
:1033400091E09183808380ED93E00E9450198DEC91
:1033500093E00E9450198AEC93E00E94501987EC88
:1033600093E00C945019CF93DF93CDB7DEB7C651DD
:10337000D1400FB6F894DEBF0FBECDBF789484B5B0
:10338000826084BD84B5816084BD85B5826085BD61
:1033900085B5816085BD80916E00816080936E00EF
:1033A00010928100809181008260809381008091E1
:1033B0008100816080938100809180008160809392
:1033C00080008091B10084608093B1008091B00052
:1033D00081608093B00080917A00846080937A004D
:1033E00080917A00826080937A0080917A00816077
:1033F00080937A0080917A00806880937A0010929E
:10340000C1000E94CB0B80932702811104C00E944F
:1034100073080E94B40B80915A0290915B02A091B4
:103420005C02B0915D028C3221E09207A105B105EA
:1034300009F452C0803B34E09307A105B10509F4BB
:103440004BC0803649E09407A105B10509F444C09A
:10345000803C52E19507A105B105F1F18038E5E224
:103460009E07A105B105C1F18034F8E39F07A105CE
:10347000B10591F181152BE49207A105B10561F128
:10348000803830E79307A105B10531F1811546E990
:103490009407A105B10501F1811551EE9507A1052C
:1034A000B105D1F08115E2EC9E07E1E0AE07B10570
:1034B00099F081159448A340B10571F080E096E938
:1034C000A0E0B0E080935A0290935B02A0935C026C
:1034D000B0935D020E94B40B86E492E00E94BC02AD
:1034E0000E946F0A82ED90E0A0E8B0E4809323028E
:1034F00090932402A0932502B09326028CE69FECC1
:10350000ACE4BEE380931F0290932002A0932102BB
:10351000B093220210921B0210921C0210921D0204
:1035200010921E02109217021092180210921902A5
:1035300010921A020E94770380E096E9A0E0B0E0C2
:1035400080935A0290935B02A0935C02B0935D0259
:10355000E0912E03F0912F0382E08083E0912A0313
:10356000F0912B031082E0912C03F0912D0383E363
:10357000808310923603E0913203F091330386E0AA
:103580008083E0913003F0913103808180618083FA
:10359000E0913003F0913103808188608083E09175
:1035A0003003F0913103808180688083E0913003A3
:1035B000F091310380818F7D808362E080E00E9402
:1035C000D50380915E02843008F083E08093D303BA
:1035D0000E94770380ED0E944A0B853509F04DC0AB
:1035E0008AEA0E94650B9093D5038093D4038CEAFA
:1035F0000E94650B9093D7038093D6038EEA0E94B6
:10360000650B9093D9038093D80380EB0E94650BE0
:103610009093E5038093E40382EB0E94650B909303
:10362000E7038093E60384EB0E94650B9093E90324
:103630008093E80386EB0E94650B9093DB038093F5
:10364000DA0388EB0E94650B9093DD038093DC0323
:103650008AEB0E94650B9093DF038093DE038CEB73
:103660000E94650B9093E1038093E0038EEB0E9430
:10367000650B9093E3038093E20361E08DE00E9489
:10368000D50360E088E00E94D50360E087E00E94F7
:10369000D50360E08DE00E9449030E9451090E9419
:1036A00083090E9483090E9483090E9483090E9462
:1036B00083090E9483098091520290915302092E3E
:1036C000000CAA0BBB0B8093000190930101A09307
:1036D0000201B093030180912702811125C084E685
:1036E00090E0A0E0B0E08093280290932902A0939C
:1036F0002A02B0932B0288E00E9420038C0187E00D
:103700000E9420030115110509F057C1892B61F4AE
:1037100082E390E0A0E0B0E0809328029093290239
:10372000A0932A02B0932B0202E310E00E944214FD
:1037300001501109D9F70AE010E0C12CD12C760113
:103740000E9442144B015C01C701B6010E94EE27A2
:10375000A50194010E94D8260E94B6276B017C0126
:1037600062E370E080E090E00E9481060150110960
:1037700039F7C701B6010E94EE2720E030E040E2B1
:1037800051E40E9444270E94B627609397027093E9
:1037900098028093990290939A0210922C021092B0
:1037A0002D0210922E0210922F02809168029091A9
:1037B0006902092E000CAA0BBB0B80938A0290931E
:1037C0008B02A0938C02B0938D02C450DF4F1982FC
:1037D0001882CC5FD04000E29E0127533F4FC75074
:1037E000DF4F39832883C95FD0400B3311F40C9429
:1037F0007D2580919B0281110C943C250E944214EE
:103800006B017C01609197027091980280919902FE
:1038100090919A020E94EE279B01AC01C701B6016C
:103820000E94D7260E94B627609393027093940259
:10383000809395029093960280919202882391F052
:103840000E94B306C0908E02D0908F02E09090024A
:10385000F09091026C197D098E099F0948EC50E0A7
:103860000E945312409193025091940260919502EC
:103870007091960280918A0290918B02A0918C02A5
:10388000B0918D0284179507A607B7070CF4A2C064
:1038900044EF51E060E070E0CB010E9453120E94BF
:1038A000B3064B015C0180918902882311F40C94CA
:1038B0003C2580918802882311F40C943C258EE1EC
:1038C00093E00E942D02892B01F18EE193E00E948A
:1038D0000B02082F8B3311F40C94F6248A30A9F0D4
:1038E000E1E0F0E0EC0FFD1FC450DF4F488159814B
:1038F000CC5FD040E40FF51F80834F5F5F4FC45013
:10390000DF4F59834883CC5FD0400E94B3066819CB
:1039100079098A099B09613177428105910518F27D
:103920000E946409609138027091390280913A02D4
:1039300090913B02C0900401D0900501E0900601F7
:10394000F090070120913E0230913F02232B11F0AD
:103950000C9424250E94EE27A70196010E947A2844
:103960000E94B6270E9496090E9464096091340261
:10397000709135028091360290913702C090040117
:10398000D0900501E0900601F090070120913E02E1
:1039900030913F02232B11F00C9430250E94EE272A
:1039A000A70196010E947A280E94B6270E949609D4
:1039B0000E94B3064B015C01A8CF0130110509F04C
:1039C000B3CE009711F00C94912586E990E0A0E029
:1039D000B0E0A2CE80E1C750DF4FA881B981C95FB6
:1039E000D0401D928A95E9F7CB50DF4F188219829B
:1039F0001A821B82C55FD040CF50DF4F18821982D8
:103A00001A821B82C15FD04080914A0290914B0282
:103A1000C751DF4F99838883C95ED04080914C02A3
:103A200090914D02C551DF4F99838883CB5ED04082
:103A300080914E0290914F02C351DF4F998388834A
:103A4000CD5ED0408091660290916702C151DF4FF8
:103A500099838883CF5ED04060914002709141028B
:103A6000CF51DF4F79836883C15ED04040914202DD
:103A700050914302CD51DF4F59834883C35ED040FC
:103A80002091440230914502CB51DF4F3983288386
:103A9000C55ED0408091640290916502C951DF4FAC
:103AA00099838883C75ED04018E0E9E0F1E0DE0149
:103AB000A752BF4F01900D921A95E1F7633071053F
:103AC00041F069E070E0C752DF4F79836883C95DD8
:103AD000D0404330510541F04AE050E0C552DF4F3D
:103AE00059834883CB5DD0402330310541F025E038
:103AF00030E0C352DF4F39832883CD5DD040039738
:103B000041F086E090E0C152DF4F99838883CF5D1A
:103B1000D040CB5EDE4F1882C551D140C150DF4F3F
:103B20001882CF5FD040C250DF4F1882CE5FD040A6
:103B3000212CC050DF4F1882C050D140CB5FDE4FE8
:103B4000188219821A821B82C550D140C35FDE4F92
:103B5000188219821A821B82CD50D140C75FDE4F76
:103B6000188219821A821B82C950D140CF5EDE4F63
:103B7000188219821A821B82C151D14011E00E9421
:103B800042144B015C016091970270919802809100
:103B9000990290919A020E94EE279B01AC01C50107
:103BA000B4010E94D7260E94B627609393027093B7
:103BB00094028093950290939602809192028823BA
:103BC00091F00E94B30680908E0290908F02A09098
:103BD0009002B0909102681979098A099B0948EC12
:103BE00050E00E94531240919302509194026091D0
:103BF00095027091960280918A0290918B02A09119
:103C00008C02B0918D0284179507A607B7073CF583
:103C100080919202811123C08091880281111FC07E
:103C20001093920248EC50E060E070E0CB010E94FB
:103C300053120E94B30660938E0270938F0280939A
:103C400090029093910280914802909149020197CD
:103C500031F421E0C050DF4F2883C050D140809123
:103C60009202882309F48BCFC12CD12C7601812CB0
:103C7000912C5401CA5EDE4F1882C651D14011E02A
:103C800072C2CA5EDE4F8880C651D140811007CE15
:103C900075CFC550DF4F9880CB5FD040C150DF4F0C
:103CA0009882CF5FD040EEC2C0922C02D0922D02FB
:103CB000E0922E02F0922F028091520290915302D4
:103CC000092E000CAA0BBB0B8093000190930101FD
:103CD000A0930201B09303012110B0C5C0909302DC
:103CE000D0909402E0909502F09096028091280284
:103CF00090912902A0912A02B0912B02C816D906F0
:103D0000EA06FB0608F001C180918902882309F4C4
:103D1000FCC0C250DF4F8880CE5FD040811016C0FB
:103D200080918802811107C70E94B306C75FDE4FEA
:103D3000688379838A839B83C950D140C0923402BF
:103D4000D0923502E0923602F0923702A0908802BB
:103D5000C250DF4FA882CE5FD040A110ECC66E01EA
:103D600025EFC20ED11CF12CE12CD6018D916D01F5
:103D7000811139C00E94B306AB01BC01C75FDE4FA1
:103D800088809980AA80BB80C950D14048195909C0
:103D90006A097B09E9EEF0E0EC0FFD1FEE0DFF1D57
:103DA00080819181092E000CAA0BBB0B4817590783
:103DB0006A077B07C0F0E1EEF0E0EC0FFD1FEE0DAF
:103DC000FF1D80819181892B71F461E0E9EDF0E0C4
:103DD000EC0FFD1FEE0DFF1D808191810E94040AF2
:103DE000F6013197108322E0E20EF11C38E0E31671
:103DF000F10409F0BACF6E0149EEC40ED11CF12CCA
:103E0000E12C0E94B306D6012D913D916D01AB01CD
:103E1000BC01C75FDE4F88809980AA80BB80C950F3
:103E2000D140481959096A097B09C90188519C4F39
:103E3000092E000CAA0BBB0B481759076A077B0712
:103E400060F151EFA52EB12CAC0EBD1EAE0CBF1C07
:103E5000D5018C91811121C0C701880F991FE1EE16
:103E6000F0E0EC0FFD1FE80FF91F20813181232BBB
:103E7000A1F42091840230918502232B61F4E9EDB5
:103E8000F0E0EC0FFD1F8E0F9F1F60E0DC018D91B5
:103E90009C910E94040AF5011083FFEFEF1AFF0ABC
:103EA00024E0E216F10409F0ACCFFE01EF50FF4F21
:103EB000DE01AF51BF4FCF010496432D2191211157
:103EC00006C02D913C911197232B09F440E01296E6
:103ED0008E179F0799F7409388020E94B306C090FF
:103EE0008E02D0908F02E0909002F09091026C19B7
:103EF0007D098E099F0948EC50E00E945312C25080
:103F0000DF4F3882CE5FD04007C0C250DF4F98806D
:103F1000CE5FD04091101ACFC150DF4F8880CF5F65
:103F2000D040882009F4D6C0809131028111D2C0DE
:103F30006E0125EFC20ED11CF12CE12CD6018D9122
:103F40006D01811139C00E94B306AB01BC01C35F92
:103F5000DE4F88809980AA80BB80CD50D14048191F
:103F600059096A097B09E9EEF0E0EC0FFD1FEE0D3F
:103F7000FF1D80819181092E000CAA0BBB0B4817F5
:103F800059076A077B07C0F0E1EEF0E0EC0FFD1F78
:103F9000EE0DFF1D80819181049771F461E0E9EDE0
:103FA000F0E0EC0FFD1FEE0DFF1D808191810E945E
:103FB000040AF6013197108322E0E20EF11C38E08A
:103FC000E316F10409F0BACF6E0149EEC40ED11C1C
:103FD000F12CE12C0E94B306D6012D913D916D018B
:103FE000AB01BC01C35FDE4F88809980AA80BB8093
:103FF000CD50D140481959096A097B09C901885136
:104000009C4F092E000CAA0BBB0B481759076A07D7
:104010007B0768F131EFA32EB12CAC0EBD1EAE0CA8
:10402000BF1CD5018C91811122C0C701880F991F37
:10403000E1EEF0E0EC0FFD1FE80FF91F2081318168
:1040400024303105A1F42091840230918502232B84
:1040500061F4E9EDF0E0EC0FFD1F8E0F9F1F60E0B3
:10406000DC018D919C910E94040AF5011083FFEF01
:10407000EF1AFF0A24E0E216F10409F0ABCFFE01CB
:10408000EF50FF4FDE01AF51BF4FCF010496432DDC
:104090002191211107C02D913C91119724303105B8
:1040A00009F440E012968E179F0791F74093310272
:1040B0000E94B306C0908E02D0908F02E0909002D2
:1040C000F09091026C197D098E099F0948EC50E02F
:1040D0000E945312809188028823C1F0809131029E
:1040E0008823A1F0109292020E94B306C0908E0223
:1040F000D0908F02E0909002F09091026C197D09AF
:104100008E099F0944EF51E00E945312809188026A
:104110008823D9F0F0903102FF20B9F00E94B30655
:1041200080908E0290908F02A0909002B0909102A9
:10413000681979098A099B0944EF51E00E945312DA
:10414000CA5EDE4FF882C651D140CF5FDE4FC880D5
:10415000D980EA80FB80C150D1404201CB5EDE4F66
:104160003882C551D14030909202332009F489CD74
:104170000E9442142B013C016091970270919802B9
:104180008091990290919A020E94EE279B01AC01C6
:10419000C301B2010E94D7260E94B627CF5FDE4F2F
:1041A000688379838A839B83C150D1406093930253
:1041B0007093940280939502909396020E94B306A6
:1041C00040908E0250908F02609090027090910209
:1041D0009B01AC01241935094609570929013A0107
:1041E00030918802C550DF4F3883CB5FD0403323F6
:1041F00009F448C080913102811144C0C150DF4FA1
:104200004881CF5FD040411144CDCF5FDE4F688100
:104210007981C150D1406C197D09072E000C880BA3
:10422000990B0E94EE276B017C01B2016819790994
:10423000072E000C880B990B0E94EE2720E030E03F
:104240004AE754E40E9444279B01AC01C701B60130
:104250000E9444270E94B627672BA1F40E94B30650
:10426000C35FDE4F688379838A839B83CD50D140BF
:10427000C550DF4F8880CB5FD040C150DF4F888270
:10428000CF5FD04048EC50E0C301B2010E9453120E
:10429000CB5EDE4FA880C551D140A1100AC00E945C
:1042A000B306CB5FDE4F688379838A839B83C550D7
:1042B000D140809132028111D2C06E0125EFC20E31
:1042C000D11CF12CE12CD6018D916D01811139C0E9
:1042D0000E94B306AB01BC01CB5FDE4F88809980A2
:1042E000AA80BB80C550D140481959096A097B0989
:1042F000E9EEF0E0EC0FFD1FEE0DFF1D80819181D6
:10430000092E000CAA0BBB0B481759076A077B073D
:10431000C0F0E1EEF0E0EC0FFD1FEE0DFF1D80811F
:104320009181059771F461E0E9EDF0E0EC0FFD1F7C
:10433000EE0DFF1D808191810E94040AF6013197E4
:10434000108322E0E20EF11C38E0E316F10409F0DC
:10435000BACF6E0149EEC40ED11CF12CE12C0E94A3
:10436000B306D6012D913D916D01AB01BC01CB5F30
:10437000DE4F88809980AA80BB80C550D140481903
:1043800059096A097B09C90188519C4F092E000C03
:10439000AA0BBB0B481759076A077B0768F151EF57
:1043A000A52EB12CAC0EBD1EAE0CBF1CD5018C9140
:1043B000811122C0C701880F991FE1EEF0E0EC0FD8
:1043C000FD1FE80FF91F2081318125303105A1F44F
:1043D0002091840230918502232B61F4E9EDF0E015
:1043E000EC0FFD1F8E0F9F1F60E0DC018D919C91F3
:1043F0000E94040AF5011083FFEFEF1AFF0A24E080
:10440000E216F10409F0ABCFFE01EF50FF4FDE01E1
:10441000AF51BF4FCF010496432D2191211107C009
:104420002D913C9111972530310509F440E0129609
:10443000E817F90791F7409332020E94B306C09043
:104440008E02D0908F02E0909002F09091026C1951
:104450007D098E099F0948EC50E00E94531280911B
:1044600030028111D6C06E0135EFC30ED11CF12C84
:10447000E12CD6018D916D01811141C0E9EEF0E092
:10448000EC0FFD1FEE0DFF1D80819181092E000CA8
:10449000AA0BBB0B4091930250919402609195023C
:1044A00070919602481759076A077B0744F1E1EEBD
:1044B000F0E0EC0FFD1FEE0DFF1D8081918106974E
:1044C000F1F461E0E9EDF0E0EC0FFD1FEE0DFF1DF2
:1044D000808191810E94040AF601319710830E9425
:1044E000B306F701EE0FFF1F39EC832E912C8C0ED3
:1044F0009D1EE80DF91D608371838283938322E002
:10450000E20EF11C38E0E316F10409F0B2CF6E01BF
:1045100049ECC40ED11CF12CE12C0E94B306AB0176
:10452000BC01F60181919191A191B1916F018851E6
:104530009C4FAF4FBF4F481759076A077B07B0F131
:1045400081EFA82EB12CAC0EBD1EAE0CBF1CD50148
:104550008C9181112BC0C701880F991FE1EEF0E00B
:10456000EC0FFD1FE80FF91F208131812630310546
:10457000E9F4E5EFF0E0EC0FFD1FEE0DFF1D2081EB
:104580002223A1F02091840230918502232B61F433
:10459000E9EDF0E0EC0FFD1F8E0F9F1F60E0DC01E6
:1045A0008D919C910E94040AF5011083FFEFEF1A90
:1045B000FF0A24E0E216F10409F0AFCFFE01EF504C
:1045C000FF4FDE01AF51BF4FCF010496432D219124
:1045D000211107C02D913C9111972630310509F426
:1045E00040E012968E179F0791F7409330020E9489
:1045F000B306C0908E02D0908F02E0909002F090AF
:1046000091026C197D098E099F0948EC50E00E94C7
:104610005312809133028111B1C06E0135EFC30E88
:10462000D11CF12CE12CD6018D916D01811129C095
:10463000E9EEF0E0EC0FFD1FEE0DFF1D8081918192
:10464000092E000CAA0BBB0B481659066A067B06FE
:10465000C0F0E1EEF0E0EC0FFD1FEE0DFF1D8081DC
:104660009181029771F461E0E9EDF0E0EC0FFD1F3C
:10467000EE0DFF1D808191810E94040AF6013197A1
:104680001083B2E0EB0EF11CE8E0EE16F10459F6EF
:104690006E01F9EECF0ED11CF12CE12CD6018D91DB
:1046A0009D916D0188519C4F092E000CAA0BBB0BEC
:1046B000481659066A067B0670F1A1EFAA2EB12CA6
:1046C000AC0EBD1EAE0CBF1CF5018081811123C054
:1046D000C701880F991FE1EEF0E0EC0FFD1FE80F16
:1046E000F91F2081318122303105A9F42091840203
:1046F00030918502232B69F4E9ED8E2E912C8C0EDE
:104700009D1E880D991D60E0DC018D919C910E9499
:10471000040AF5011083FFEFEF1AFF0A24E0E21606
:10472000F10409F0BBCFFE01EF50FF4FDE01AF51A6
:10473000BF4FCF010496432D2191211107C02D9128
:104740003C9111972230310509F440E012968E1702
:104750009F0791F7409333020E94B306C0908E02E8
:10476000D0908F02E0909002F09091026C197D0938
:104770008E099F0948EC50E00E9453128091480234
:1047800090914902019761F439EB43163BE05306DF
:104790006104710428F0C050DF4F1882C050D1402E
:1047A000C0909302D0909402E0909502F09096020F
:1047B00080912C0290912D02A0912E02B0912F0297
:1047C000C816D906EA06FB060CF06ECA21106CCAA0
:1047D000C050DF4F8880C050D140811065CA8091A1
:1047E000000190910101A0910201B0910301019794
:1047F000A109B1098093000190930101A0930201E6
:10480000B0930301C050DF4F2880C050D140892BA6
:104810008A2B8B2B09F062CA0E94B306CF5EDE4F53
:10482000688379838A839B83C151D140C0923802C7
:10483000D0923902E0923A02F0923B022090890233
:1048400021104CCA6E0125EFC20ED11CF12CE12CB7
:10485000D6018D916D01811139C00E94B306AB0163
:10486000BC01CF5EDE4F88809980AA80BB80C15199
:10487000D140481959096A097B09E9EEF0E0EC0FCB
:10488000FD1FEE0DFF1D80819181092E000CAA0BEA
:10489000BB0B481759076A077B07C0F0E1EEF0E051
:1048A000EC0FFD1FEE0DFF1D80819181019771F4CA
:1048B00061E0E9EDF0E0EC0FFD1FEE0DFF1D8081E2
:1048C00091810E94040AF6013197108322E0E20EE2
:1048D000F11C38E0E316F10409F0BACF6E0149EE9D
:1048E000C40ED11CF12CE12C0E94B306D6012D91EF
:1048F0003D916D01AB01BC01CF5EDE4F8880998098
:10490000AA80BB80C151D140481959096A097B0965
:10491000C90188519C4F092E000CAA0BBB0B4817EC
:1049200059076A077B0768F171EFA72EB12CAC0E0F
:10493000BD1EAE0CBF1CD5018C91811122C0C701D8
:10494000880F991FE1EEF0E0EC0FFD1FE80FF91F53
:104950002081318121303105A1F4209184023091F0
:104960008502232B61F4E9EDF0E0EC0FFD1F8E0FC3
:104970009F1F60E0DC018D919C910E94040AF5016B
:104980001083FFEFEF1AFF0A24E0E216F10409F0AA
:10499000ABCFFE01EF50FF4FDE01AF51BF4FCF0154
:1049A0000496432D2191211107C02D913C9111971F
:1049B0002130310509F440E012968E179F0791F7D8
:1049C000409389020E94B306C0908E02D0908F025D
:1049D000E0909002F09091026C197D098E099F0978
:1049E00048EC50E00E945312232C78C9C450DF4F8A
:1049F000E880F980CC5FD0405FEFE51AF50AE1E08E
:104A0000F0E0EC0FFD1FC450DF4F88819981CC5F2F
:104A1000D040E80FF91F108210928902109288028C
:104A200010923302109232021092310210929202CE
:104A3000CE0101960E94750CC450DF4FF982E882C6
:104A4000CC5FD0400C94851C0E94EE27A7019601F4
:104A50000E947A280E94B6270E941D0C0C94B41C58
:104A60000E94EE27A70196010E947A280E94B6278D
:104A70000E941D0C0C94D81C8EE193E00E942D0224
:104A8000892B11F40C94F51B8EE193E00E940B022C
:104A9000082F8B33C9F08A3079F3E1E0F0E0EC0FB6
:104AA000FD1FC450DF4F88809980CC5FD040E80D57
:104AB000F91D808394012F5F3F4FC450DF4F39832E
:104AC0002883CC5FD040D8CFC450DF4FE881F98134
:104AD000CC5FD040EC0FFD1F1182C450DF4F4881E6
:104AE0005981CC5FD0404F5F5F4FC450DF4F598337
:104AF0004883CC5FD0400C94EC1BCE0101960E9401
:104B0000750C80E090E0892B11F40C94E51B0E9459
:104B10003902882311F40C94E51B0E9400000C94C8
:104B2000E51B019711F00C94941B88EC90E0A0E039
:104B3000B0E00C948C1BC150DF4F8880CF5FD04019
:104B40008110F2C9CBCAFC0188279927E8942191EA
:104B50002032E9F3293010F02E30C8F32B3241F027
:104B60002D3239F4689404C00E942426820F911DCE
:104B7000219120532A30C0F31EF4909581959F4FC8
:104B800008951F93FC0199278827BC01E89411918F
:104B90001032E9F3193010F01E30C8F31B3251F017
:104BA0001D3249F4689406C00E940F26610F711DE2
:104BB000811D911D119110531A30B0F33EF4909560
:104BC0008095709561957F4F8F4F9F4F1F910895EE
:104BD000FA01A191B081009719F41097E1F0CD018D
:104BE000DC01CD010D90002011F4C00113C0FB01C8
:104BF0002191222319F02015D9F7F3CFFB01219140
:104C0000201519F41E92119606C02223C1F70D90AB
:104C10000020A1F7D001FA01A193B0830895592F84
:104C2000482F372F262F660F771F881F991F660F73
:104C3000771F881F991F620F731F841F951F660FB0
:104C4000771F881F991F08957AE0979F902D879F5F
:104C5000802D910D11240895BB27FA01A62F62170C
:104C6000710581059105330B30FB66F0AA27660FAD
:104C7000771F881F991FAA1FA21710F0A21B639508
:104C80003850A9F7A05DAA3308F0A95DA19336F7C3
:104C9000B111B1931082CA010C944E26DC01FC01C3
:104CA000672F71917723E1F7329704C07C916D9360
:104CB00070836291AE17BF07C8F30895F999FECFCC
:104CC00092BD81BDF89A992780B50895262FF9994C
:104CD000FECF1FBA92BD81BD20BD0FB6F894FA9ADF
:104CE000F99A0FBE01960895052E97FB1EF40094C5
:104CF0000E948B2657FD07D00E94A62607FC03D0F2
:104D00004EF40C948B2650954095309521953F4F4D
:104D10004F4F5F4F089590958095709561957F4FA7
:104D20008F4F9F4F08950E94C826A59F900DB49F56
:104D3000900DA49F800D911D11240895B7FF0C9430
:104D400093260E949326821B930B0895A1E21A2EAC
:104D5000AA1BBB1BFD010DC0AA1FBB1FEE1FFF1F1F
:104D6000A217B307E407F50720F0A21BB30BE40B6F
:104D7000F50B661F771F881F991F1A9469F76095B6
:104D80007095809590959B01AC01BD01CF01089570
:104D9000A29FB001B39FC001A39F700D811D11247C
:104DA000911DB29F700D811D1124911D08955058C1
:104DB000BB27AA270E94EF260C9440280E94322885
:104DC00038F00E94392820F039F49F3F19F426F476
:104DD0000C942F280EF4E095E7FB0C942928E92F7A
:104DE0000E94512858F3BA17620773078407950782
:104DF00020F079F4A6F50C9473280EF4E0950B2EB0
:104E0000BA2FA02D0B01B90190010C01CA01A0011C
:104E10001124FF27591B99F0593F50F4503E68F177
:104E20001A16F040A22F232F342F4427585FF3CFB8
:104E3000469537952795A795F0405395C9F77EF489
:104E40001F16BA0B620B730B840BBAF09150A1F0D2
:104E5000FF0FBB1F661F771F881FC2F70EC0BA0F58
:104E6000621F731F841F48F4879577956795B795E0
:104E7000F7959E3F08F0B0CF9395880F08F09927DB
:104E8000EE0F9795879508950E9458270C94402817
:104E90000E94392858F00E94322840F029F45F3FE0
:104EA00029F00C94292851110C9474280C942F2863
:104EB0000E94512868F39923B1F3552391F3951B70
:104EC000550BBB27AA2762177307840738F09F5F2B
:104ED0005F4F220F331F441FAA1FA9F335D00E2E98
:104EE0003AF0E0E832D091505040E695001CCAF705
:104EF0002BD0FE2F29D0660F771F881FBB1F2617C8
:104F000037074807AB07B0E809F0BB0B802DBF019E
:104F1000FF2793585F4F3AF09E3F510578F00C946D
:104F200029280C9474285F3FE4F3983ED4F38695C7
:104F300077956795B795F7959F5FC9F7880F911D8E
:104F40009695879597F90895E1E0660F771F881F7A
:104F5000BB1F621773078407BA0720F0621B730B2D
:104F6000840BBA0BEE1F88F7E09508950E94BD27C9
:104F70006894B1110C94742808950E94592888F0FF
:104F80009F5798F0B92F9927B751B0F0E1F0660F0D
:104F9000771F881F991F1AF0BA95C9F714C0B1304E
:104FA00091F00E947328B1E008950C947328672F44
:104FB000782F8827B85F39F0B93FCCF3869577957D
:104FC0006795B395D9F73EF4909580957095619566
:104FD0007F4F8F4F9F4F0895E89409C097FB3EF491
:104FE00090958095709561957F4F8F4F9F4F992336
:104FF000A9F0F92F96E9BB279395F69587957795B4
:105000006795B795F111F8CFFAF4BB0F11F460FF73
:105010001BC06F5F7F4F8F4F9F4F16C0882311F0CB
:1050200096E911C0772321F09EE8872F762F05C0DF
:10503000662371F096E8862F70E060E02AF09A957A
:10504000660F771F881FDAF7880F9695879597F96F
:10505000089597F99F6780E870E060E008959FEFFA
:1050600080EC089500240A941616170618060906FF
:10507000089500240A9412161306140605060895CE
:10508000092E0394000C11F4882352F0BB0F40F456
:10509000BF2B11F460FF04C06F5F7F4F8F4F9F4F96
:1050A000089557FD9058440F551F59F05F3F71F018
:1050B0004795880F97FB991F61F09F3F79F087957F
:1050C0000895121613061406551FF2CF4695F1DF08
:1050D00008C0161617061806991FF1CF8695710598
:1050E000610508940895E894BB2766277727CB01CC
:1050F00097F908950E948D280C9440280E94322828
:1051000038F00E94392820F0952311F00C942928BA
:105110000C942F2811240C9474280E94512870F3A9
:10512000959FC1F3950F50E0551F629FF001729F4C
:10513000BB27F00DB11D639FAA27F00DB11DAA1F5B
:10514000649F6627B00DA11D661F829F2227B00DA8
:10515000A11D621F739FB00DA11D621F839FA00D33
:10516000611D221F749F3327A00D611D231F849F83
:10517000600D211D822F762F6A2F11249F575040DA
:105180009AF0F1F088234AF0EE0FFF1FBB1F661F55
:10519000771F881F91505040A9F79E3F510580F01E
:1051A0000C9429280C9474285F3FE4F3983ED4F3C0
:1051B000869577956795B795F795E7959F5FC1F7C2
:1051C000FE2B880F911D9695879597F90895FA0102
:1051D000EE0FFF1F309621053105A1F16115710514
:1051E00061F48038BFE39B0749F1689490388105EA
:1051F00061F08038BFEF9B0741F099234AF5FF3FEC
:10520000E1053105210519F1E8940894E795D901E4
:10521000AA2329F4AB2FBE2FF85FD0F310C0FF5F95
:1052200070F4A695E0F7F73950F019F0FF3A38F42A
:105230009F779F930DD00F9007FC9058089546F0EC
:105240000C942F2860E070E080E89FE308954FE71A
:105250009F775F934F933F932F930E94E2292F9163
:105260003F914F915F910E947A280C943F2929F435
:1052700016F00C9429280C9473280C942F280E9463
:105280005928A8F39638A0F707F80F92E8942BE373
:105290003AEA48EB5FE70E9490280F920F920F9234
:1052A0004DB75EB70F920E942A2AE8E6F0E00E940E
:1052B00071294F915F91EF91FF91E595EE1FFF1FCF
:1052C00049F0FE57E0684427EE0F441FFA95E1F7D6
:1052D0004195550B0E94A4290F9007FE0C94982924
:1052E0000895DF93CF931F930F93FF92EF92DF9276
:1052F0007B018C01689406C0DA2EEF010E948D2894
:10530000FE01E894A5912591359145915591A6F31B
:10531000EF010E94EF26FE019701A801DA9469F7D8
:10532000DF90EF90FF900F911F91CF91DF91089543
:105330009B01AC0160E070E080E89FE30C9444279F
:105340000C9429280C945E2A0E945928D8F399239A
:10535000C9F3940F511DA3F39150504094F059F0AC
:10536000882332F0660F771F881F91505040C1F795
:105370009E3F51052CF7880F911D9695879597F9BB
:1053800008955F3FACF0983E9CF0BB2786957795DB
:105390006795B79508F4B1609395C1F7BB0F58F7BF
:1053A00011F460FFE8CF6F5F7F4F8F4F9F4FE3CFC8
:1053B0000C94742816F00C945E2A0C942F28689490
:1053C0000C9429280E945928A8F39923C1F3AEF31D
:1053D000DF93CF931F930F93FF92C92FDD2788236D
:1053E0002AF02197660F771F881FDAF720E030E058
:1053F00040E85FEB9FE3883920F0803E38F021964B
:105400008F770E94D826E0E9F0E004C00E94D826F9
:10541000EDEBF0E00E9471298B01BE01EC01FB2E47
:105420006F5771097595771F880B990B0E94EE27AE
:1054300028E132E741E35FE30E948D28AF2D980118
:10544000AE01FF900F911F91CF91DF910E94EF2647
:105450000C944028FA01DC01AA0FBB1F9B01AC0190
:10546000BF5728F4222733274427507820C0B7514C
:1054700090F4AB2F0024469537952795011CA395F2
:10548000D2F3002071F0220F331F441FB395DAF3DB
:105490000ED00C94D72661307105A0E88A07B94672
:1054A00030F49B01AC0166277727882790783096E7
:1054B00021F0208331834283538308959F3F31F04D
:1054C000915020F4879577956795B795880F911D32
:1054D0009695879597F90895DB018F939F930E9486
:1054E0009326BF91AF91A29F800D911DA39F900D18
:1054F000B29F900D11240895991B79E004C0991F63
:10550000961708F0961B881F7A95C9F7809508951D
:10551000EE0FFF1F0590F491E02D0994FB01DC01D3
:105520000D900020E9F7119701900D920020E1F70E
:105530000895AEE0B0E0EFE9FAE20C94482D0D8951
:105540001E8986E08C831A8309838FEF9FE79E83F1
:105550008D83AE01475E5F4F6F89788DCE010196D6
:105560000E94BC2A2F813885020F131FF801108278
:105570002E96E4E00C94642DABE0B0E0E2ECFAE2AD
:105580000C943A2D7C013B018A01FC0117821682A2
:10559000838181FFC8C1CE0101965C01F70193812F
:1055A000F30193FD859193FF81913F01882309F4D5
:1055B00053C1853239F493FD859193FF81913F0169
:1055C000853229F4B70190E00E94AC2CE7CF912CF2
:1055D000212C312CFFE1F31538F08B3211F190F4CE
:1055E000803209F1833229F137FC3CC020ED280FCD
:1055F0002A3050F536FE20C08AE0989E200D1124F6
:10560000922E06C08D3291F0803371F7689430F895
:10561000F30193FD859193FF81913F018111DACFD1
:1056200021C0689431F8689432F8F2CF689433F866
:10563000EFCF689434F8ECCFEAE02E9E200D1124D1
:10564000222E689435F8E4CF8E3229F436FC04C15A
:10565000689436F8DDCF8C3619F4689437F8D8CFD3
:105660008836B1F2982F9F7D95549330E0F08336C1
:10567000A1F18337C1F1833509F063C02801F2E05D
:105680004F0E511CF801C080D180692D70E036FCAE
:1056900002C06FEF7FEFC6010E94962C4C01689408
:1056A00037F882010AC00C5F1F4FFFE3F98388249B
:1056B0008394912C6501E89437F833FE2DC0522C69
:1056C0008114910471F5552009F468CFB70180E287
:1056D00090E00E94AC2C5A94F6CFF8018081898327
:1056E0000E5F1F4FE4CF2801F2E04F0E511CF8016E
:1056F000C080D180692D70E036FC02C06FEF7FEF73
:10570000C6010E94A12C4C018201D5CFB70180E2D5
:1057100090E00E94AC2C2A942814190409F0B0F7E8
:10572000CECFF60137FC859137FE81916F01B7012D
:1057300090E00E94AC2C51105A94F1E08F1A91081D
:10574000BFCF843619F0893609F077C0F80137FEEB
:105750006BC060817181828193810C5F1F4FF32D3B
:10576000FF763F2E97FF09C09095809570956195C3
:105770007F4F8F4F9F4F689437F82AE030E0A501A4
:105780000E94DC2CC82ECA188C2C432C36FE0CC070
:10579000E89440F8C91440F434FE05C032FC03C05C
:1057A000F32DFE7E4F2E892C44FE95C0FE01EC0D9C
:1057B000F11D8081803309F087C0242D297E422E7F
:1057C000842D8870582E43FC95C040FE8FC09C2CC1
:1057D000821418F42C0C922C981844FE91C0B70136
:1057E00080E390E00E94AC2C42FE09C088E790E084
:1057F00041FE02C088E590E0B7010E94AC2CC914BC
:1058000008F48AC0CA94D12C9FEFC91AD90ACA0CCD
:10581000DB1CF60182916F01B70190E00E94AC2C75
:10582000AC14BD04B1F74FCF60817181072E000C1D
:10583000880B990B0E5F1F4F92CFD32CE894D4F8AE
:105840002AE030E0853739F1232D297FD22E8F369B
:1058500001F148F48835A9F0F701868197812B96EC
:10586000E2E10C94562D803749F08837A9F7D4FE31
:1058700002C06894D2F820E130E00DC06894D4F8FA
:10588000F6CF34FE03C0822F8660D82E20E132E0AE
:1058900002C028E030E0F801D7FE0FC060817181BE
:1058A000828193810C5F1F4FA5010E94DC2CC82EC2
:1058B000CA183D2CE89437F867CF6081718190E079
:1058C00080E00E5F1F4FF0CF42FC02C0839478CF80
:1058D0008394839475CF842D867809F471CFF6CFA5
:1058E000B70180E290E00E94AC2C83948214C0F354
:1058F000512C73CF522C5818821408F46ECFF8CF65
:10590000842D867809F47BCF8BE241FE80E247FC50
:105910008DE2B70190E071CFB70180E390E00E9483
:10592000AC2C9A946CCF8FEF9FEF99CFFC01059030
:10593000615070400110D8F7809590958E0F9F1F91
:105940000895FC016150704001900110D8F78095D6
:1059500090958E0F9F1F08950F931F93CF93DF9302
:10596000182F092FEB018B8181FD09C01FEF0FEF6D
:10597000812F902FDF91CF911F910F91089582FF7A
:1059800014C02E813F818C819D81281739073CF4FA
:10599000E881F981CF0101969983888310838E81F4
:1059A0009F8101969F838E83E3CFE885F985812FC0
:1059B0000995892BA1F3DACFFA01AA27283051F1F2
:1059C000203181F1E8946F936E7F6E5F7F4F8F4F30
:1059D0009F4FAF4FB1E03ED0B4E03CD0670F781F8F
:1059E000891F9A1FA11D680F791F8A1F911DA11D74
:1059F0006A0F711D811D911DA11D20D009F46894AD
:105A00003F912AE0269F11243019305D3193DEF654
:105A1000CF010895462F4770405D4193B3E00FD00A
:105A2000C9F7F6CF462F4F70405D4A3318F0495DF5
:105A300031FD4052419302D0A9F7EACFB4E0A695D8
:105A40009795879577956795BA95C9F700976105FA
:105A5000710508959B01AC010A2E06945795479550
:105A600037952795BA95C9F7620F731F841F951F45
:105A7000A01D08952F923F924F925F926F927F9256
:105A80008F929F92AF92BF92CF92DF92EF92FF924E
:105A90000F931F93CF93DF93CDB7DEB7CA1BDB0BFA
:105AA0000FB6F894DEBF0FBECDBF09942A8839889F
:105AB00048885F846E847D848C849B84AA84B984A6
:105AC000C884DF80EE80FD800C811B81AA81B981B2
:105AD000CE0FD11D0FB6F894DEBF0FBECDBFED01C6
:065AE0000895F894FFCFC9
