:100000000C9482000C94AA000C94AA000C94AA00F0
:100010000C94AA000C94AA000C94AA000C94360428
:100020000C94AA000C94AA000C94AA000C94AA00A8
:100030000C94AA000C94AA000C94AA000C94AA0098
:100040000C94EC030C94AA000C941F050C94F90476
:100050000C94AA000C94AA000C94AA000C94AA0078
:100060000C94AA000C94AA000000000800020100F1
:100070000003040700000000000000003B0A002C01
:10008000002C002C002C002C002C002C002C002C10
:10009000002C002C002C002C002C002C002C002C00
:1000A000002C002C002C002C002C0024616C7469A6
:1000B000636F6E66696700696E76616C6964206360
:1000C0006F6E660000000000240027002A00010275
:1000D00004081020408001020408102001020408D6
:1000E000102000000000250028002B000404040458
:1000F00004040404020202020202030303030303D2
:1001000002003D0711241FBECFEFD8E0DEBFCDBFF8
:1001100011E0A0E0B1E0E4E5FFE002C005900D923F
:10012000A232B107D9F722E0A2E2B1E001C01D92EC
:10013000AB30B207E1F710E0C2E8D0E004C021978D
:10014000FE010E94A207C138D107C9F70E945105DC
:100150000C94A8070C94000090910001891719F0E5
:100160009F3F39F00895E0E0F1E0249127FF50C06F
:10017000089580930001E0E0F1E024912F3FC1F366
:10018000213009F484C040F1223081F71092B00090
:100190001092B1009091B00092609093B000909155
:1001A000B10091609093B100482F50E0FA01E45102
:1001B000FF4FE491F0E0EE0FFF1FEE51FF4F65910E
:1001C000749170935F0160935E01FA01E253FF4FF7
:1001D000E491E0935D011CC014BC15BC94B5926021
:1001E00094BD95B5916095BD282F30E0F901E4519B
:1001F000FF4FE491F0E0EE0FFF1FEE51FF4F4591EE
:100200005491F901E253FF4FE491E093610120E042
:1002100090E0FC01E253FF4F349184519F4FFC0169
:100220008491882399F090E0880F991FFC01EC538A
:10023000FF4FA591B491FC01EE51FF4F8591949130
:100240008FB7F894EC91E32BEC938FBF222309F442
:1002500065C0223009F03DC08091B100887F856083
:100260008093B1008DE88093B30080E793E0A0E035
:10027000B0E08093620190936301A0936401B09316
:1002800065018091700082608093700008951092E3
:10029000800010928100909181009860909381007D
:1002A00090918100916090938100482F50E0FA0175
:1002B000E451FF4FE491F0E0EE0FFF1FEE51FF4FCE
:1002C00065917491FA01E253FF4FE491E09360016C
:1002D0009FCF2130F1F480918100887F81608093ED
:1002E000810084E097E4909389008093880080E700
:1002F00093E0A0E0B0E08093660190936701A09343
:100300006801B093690180916F00826080936F00F3
:100310000895223009F02CCF84E0A5CF85B5887FE1
:10032000846085BD86E487BD80E793E0A0E0B0E00F
:1003300080936A0190936B01A0936C01B0936D015F
:1003400080916E00826080936E0012CFAF92BF9258
:10035000CF92DF92EF92FF920F931F93CF93DF9391
:100360006C017B018B01040F151FEB015E01AE18C0
:10037000BF08C017D10759F06991D601ED91FC91E2
:100380000190F081E02DC6010995892B79F7C5010F
:10039000DF91CF911F910F91FF90EF90DF90CF9061
:1003A000BF90AF900895FC01538D448D252F30E010
:1003B000842F90E0821B930B541710F0CF96089572
:1003C00001970895FC01918D828D981761F0A28D9F
:1003D000AE0FBF2FB11D5D968C91928D9F5F9F7365
:1003E000928F90E008958FEF9FEF0895FC01918D1B
:1003F000828D981731F0828DE80FF11D858D90E088
:1004000008958FEF9FEF0895FC01918D228D892F24
:1004100090E0805C9F4F821B91098F73992708950C
:100420008EE691E00E94040221E0892B09F420E08D
:10043000822F089580E090E0892B29F00E9410021D
:1004400081110C9400000895FC01A48DA80FB92F10
:10045000B11DA35ABF4F2C91848D90E001968F73EC
:100460009927848FA689B7892C93A089B1898C910B
:10047000837080648C93938D848D981306C002885A
:10048000F389E02D80818F7D80830895EF92FF9224
:100490000F931F93CF93DF93EC0181E0888F9B8DA7
:1004A0008C8D98131AC0E889F989808185FF15C061
:1004B0009FB7F894EE89FF896083E889F989808184
:1004C0008370806480839FBF81E090E0DF91CF9153
:1004D0001F910F91FF90EF900895F62E0B8D10E075
:1004E0000F5F1F4F0F731127E02E8C8D8E110CC0E4
:1004F0000FB607FCFACFE889F989808185FFF5CF2F
:10050000CE010E942402F1CFEB8DEC0FFD2FF11DE7
:10051000E35AFF4FF0829FB7F8940B8FEA89FB896B
:1005200080818062CFCF0F931F93CF93DF938C0195
:10053000D0E0C0E0F801EC0FFD1F6491662341F0AC
:100540008EE691E00E944602892B11F02196F2CFAF
:10055000CE01DF91CF911F910F910895CF93DF933B
:10056000EC01888D8823B9F0AA89BB89E889F989CB
:100570008C9185FD03C0808186FD0DC00FB607FC00
:10058000F7CF8C9185FFF2CF808185FFEDCFCE0133
:100590000E942402E9CFDF91CF910895CF93DF939A
:1005A000CDB7DEB7E2970FB6F894DEBF0FBECDBF72
:1005B0001092230110922201109225011092240121
:1005C000109227011092260121E030E0309329019A
:1005D0002093280183E090E090932B0180932A01DF
:1005E00010923101109230011092330110923201B9
:1005F000109235011092340142E350E050932D01E6
:1006000040932C0110922F0110922E0148EB51E0E3
:10061000509337014093360145E050E05093390143
:100620004093380190933B0180933A0110923D0131
:1006300010923C0110923F0110923E0140E056E9B9
:1006400060E070E0409340015093410160934201AB
:1006500070934301109245011092440140E052E032
:10066000509347014093460130934901209348013C
:1006700090934B0180934A0110924D0110924C01CE
:100680008AE090E090934F0180934E0110925101C7
:100690001092500182E3E2E2F1E0DE011196019056
:1006A0000D928A95E1F7FE013196AE014F5C5F4FE6
:1006B00090E080E0E417F50731F02191820F911D61
:1006C00027FD9A95F7CF9093530180935201E296BC
:1006D0000FB6F894DEBF0FBECDBFDF91CF91089566
:1006E000FC0101900020E9F73197AF01481B590B3D
:1006F000BC018EE691E00C94A6018F929F92AF927E
:10070000BF920F931F93CF93DF93CDB7DEB7A1971F
:100710000FB6F894DEBF0FBECDBF19A2423008F469
:100720004AE08E010F5D1F4F842E912CB12CA12C1D
:10073000A50194010E948007E62FB901CA01EA30A1
:10074000F4F4E05DD801EE938D01232B242B252BAF
:1007500079F790E080E0109719F0CD010E947003C6
:10076000A1960FB6F894DEBF0FBECDBFDF91CF913B
:100770001F910F91BF90AF909F908F900895E95C6B
:10078000E1CFCF92DF92EF92FF92CF93DF936B0195
:100790007C016DE28EE691E00E944602EC01662744
:1007A0007727CB016C197D098E099F094AE00E94C9
:1007B0007D038C0F9D1FDF91CF91FF90EF90DF9015
:1007C000CF900895BC01990F880B990B97FD0C945D
:1007D000C1034AE00C947D031F920F920FB60F9253
:1007E00011242F933F938F939F93AF93BF93809147
:1007F000590190915A01A0915B01B0915C01309137
:10080000580123E0230F2D3758F50196A11DB11D86
:10081000209358018093590190935A01A0935B0152
:10082000B0935C018091540190915501A0915601C3
:10083000B09157010196A11DB11D80935401909371
:100840005501A0935601B0935701BF91AF919F916D
:100850008F913F912F910F900FBE0F901F90189581
:1008600026E8230F0296A11DB11DD2CF1F920F9231
:100870000FB60F9211242F933F938F939F93AF93B3
:10088000BF93EF93FF938091620190916301A091D8
:100890006401B0916501892B8A2B8B2BB1F190916A
:1008A0005D01E0915E01F0915F0180818927808385
:1008B0008091620190916301A0916401B091650102
:1008C000181619061A061B069CF480916201909175
:1008D0006301A0916401B09165010197A109B1097B
:1008E0008093620190936301A0936401B0936501CA
:1008F000FF91EF91BF91AF919F918F913F912F9178
:100900000F900FBE0F901F90189580910001E0E0AE
:10091000F1E0E4919FEF90930001E13009F431C0E0
:1009200068F1E23009F433C090E0FC01E859FF4F70
:100930002491FC01E253FF4F3491FC01E451FF4F3D
:10094000E491EE23A9F2222351F0233009F43AC0B6
:1009500078F5213009F43CC0223009F43DC0F0E0C4
:10096000EE0FFF1FEE51FF4FA591B4918FB7F89492
:10097000EC9130953E233C938FBFBACF10926E001E
:10098000D3CF90916F009D7F90936F00CDCF9091CA
:1009900070009D7F9093700091E09093B0009091D3
:1009A000B100987F94609093B1001092B300BCCFD7
:1009B0002730A9F02830C9F0243089F680918000D2
:1009C0008F7D03C0809180008F7780938000C7CF98
:1009D00084B58F7784BDC3CF84B58F7DFBCF8091E5
:1009E000B0008F778093B000BACF8091B0008F7D38
:1009F000F9CF1F920F920FB60F9211242F933F93AE
:100A00004F935F936F937F938F939F93AF93BF9316
:100A1000EF93FF938EE691E00E942402FF91EF9105
:100A2000BF91AF919F918F917F916F915F914F9106
:100A30003F912F910F900FBE0F901F9018951F920E
:100A40000F920FB60F9211242F938F939F93EF93D2
:100A5000FF93E0917E01F0917F018081E09184011C
:100A6000F091850182FD1BC09081809187018F5F8D
:100A70008F7320918801821741F0E0918701F0E0A7
:100A8000E259FE4F958F80938701FF91EF919F91DF
:100A90008F912F910F900FBE0F901F90189580810E
:100AA000F4CFCF93DF93CDB7DEB7C456D1090FB6DD
:100AB000F894DEBF0FBECDBF789484B5826084BD4C
:100AC00084B5816084BD85B5826085BD85B5816052
:100AD00085BD80916E00816080936E0010928100D0
:100AE000809181008260809381008091810081608B
:100AF000809381008091800081608093800080914C
:100B0000B10084608093B1008091B00081608093D7
:100B1000B00080917A00846080937A0080917A009E
:100B2000826080937A0080917A00816080937A005D
:100B300080917A00806880937A001092C100E091E1
:100B40007E01F0917F0182E08083E0917A01F09153
:100B50007B011082E0917C01F0917D0183E3808331
:100B600010928601E0918201F091830186E08083FA
:100B7000E0918001F0918101808180618083E0912A
:100B80008001F0918101808188608083E091800103
:100B9000F0918101808180688083E0918001F091F3
:100BA000810180818F7D80830E94CE0282E2E82EC7
:100BB00081E0F82E670100E210E0F60161916F011B
:100BC000C8010E9472070F5F1F4F02351105A9F778
:100BD0000E94CE0200E210E0C8010E946A07F701FD
:100BE00081937F010F5F1F4F02351105A9F72091F7
:100BF00052013091530182E3E2E2F1E0DE0111960D
:100C000001900D928A95E1F7FE013196BE016F5C6D
:100C10007F4F90E080E06E177F0731F04191840FA5
:100C2000911D47FD9A95F7CF2817390721F087EBDB
:100C300090E00E9493028BEA90E00E94930289EA7E
:100C400090E00E94930280912201909123010E94E2
:100C5000E20387EA90E00E94930280912401909140
:100C600025010E94E20385EA90E00E9493028091B0
:100C70002601909127010E94E20383EA90E00E94FE
:100C8000930280912801909129010E94E20381EA58
:100C900090E00E94930280912A0190912B010E9482
:100CA000E2038FE990E00E94930280912E019091DF
:100CB0002F010E94E2038DE990E00E94930280914F
:100CC0002C0190912D010E94E2038BE990E00E949B
:100CD000930289E990E00E94930287E990E00E94E4
:100CE000930285E990E00E949302809130019091F7
:100CF00031010E94E20383E990E00E949302809117
:100D00003201909133010E94E20381E990E00E9458
:100D1000930280913401909135010E94E2038FE8A3
:100D200090E00E94930280913601909137010E94D9
:100D3000E2038DE890E00E94930280913801909147
:100D400039010E94E2038BE890E00E9493028091B7
:100D50003A0190913B010E94E20389E890E00E94F1
:100D6000930280913C0190913D010E94E20387E84B
:100D700090E00E94930280913E0190913F010E9479
:100D8000E20385E890E00E94930260914001709137
:100D90004101809142019091430197FF45C00E941B
:100DA000C10383E890E00E949302809144019091F6
:100DB00045010E94E20381E890E00E949302809145
:100DC0004601909147010E94E2038FE790E00E9464
:100DD000930280914801909149010E94E2038CE7BF
:100DE00090E00E94930283E191E00E94700388E109
:100DF00091E00E94700382E3E2E2F1E0DE01D3962B
:100E000001900D928A95E1F7FE01F3969F01205D16
:100E10003F4F70E060E0E217F30751F08191680FF7
:100E2000711D87FD7A95F7CF4AE00E947D03B9CF07
:100E300090E080E04AE00E947D038BE191E00E9417
:100E4000700388E191E00E947003809152019091BB
:100E500053010E94E2038CE00E94AC008DE00E94EE
:100E6000AC0000E010E001151105E9F30E9410024A
:100E70008823C9F30E940000F6CFEEE6F1E013826A
:100E8000128288EE93E0A0E0B0E084839583A6838D
:100E9000B78385E091E09183808385EC90E095872E
:100EA000848784EC90E09787868780EC90E0918B34
:100EB000808B81EC90E0938B828B82EC90E0958B21
:100EC000848B86EC90E0978B868B118E128E138E1E
:100ED000148E0895F999FECF92BD81BDF89A992795
:100EE00080B50895262FF999FECF1FBA92BD81BD16
:100EF00020BD0FB6F894FA9AF99A0FBE019608959C
:100F0000A1E21A2EAA1BBB1BFD010DC0AA1FBB1F0D
:100F1000EE1FFF1FA217B307E407F50720F0A21B7F
:100F2000B30BE40BF50B661F771F881F991F1A94EC
:100F300069F760957095809590959B01AC01BD0116
:100F4000CF010895EE0FFF1F0590F491E02D099455
:040F5000F894FFCF43
:100F5400FF000000004602A601D301AE020402E233
:100F640001F60163686B3A000D0A0063686B323A5C
:020F740000007B
:00000001FF
