:100000000C948E010C94B6010C94B6010C94B601BC
:100010000C94B6010C94B6010C94B6010C94912486
:100020000C94B6010C94B6010C94B6010C94B60174
:100030000C94B6010C94B6010C94B6010C94B60164
:100040000C9445250C94B6010C9413250C94ED24C6
:100050000C94B6010C94B6010C94B6010C94B60144
:100060000C948F250C94B60107634236B79BD8A732
:100070001A39685618AEBAAB558C1D3CB7CC5763CD
:10008000BD6DEDFD753EF6177231BF000000803F7B
:1000900008000000BE922449123EABAAAA2ABECD97
:1000A000CCCC4C3E00000080BEABAAAAAA3E000009
:1000B0000000BF000000803F000000000008417801
:1000C000D3BB4387D1133D190E3CC3BD4282AD2B38
:1000D0003E68EC8276BED98FE1A93E4C80EFFFBE30
:1000E00001C4FF7F3F0000000000696E76616C690B
:1000F0006420636F6E660024554E4B4E4F574E3B47
:1001000000244B303B0A00244F4B3B0A0054656CE3
:10011000656D657472792064697361626C65640AE7
:100120000054656C656D6574727920656E61626CF2
:1001300065640A005265636F7264696E67200A0025
:10014000636F6E66696720726573657465640A0023
:100150006E6F7420612076616C696420666C6967DB
:1001600068740024656E643B0A00247374617274C1
:100170003B0A00244F4B3B0A00244B4F3B0A002410
:100180004F4B3B0A0024656E643B0A002473746184
:1001900072743B0A0024656E643B0A002473746128
:1001A00072743B0A00244F4B3B0A00466C69676837
:1001B00074204C6973743A200A00244F4B3B0A00A8
:1001C000244F4B3B0A00244F4B3B0A00457261739E
:1001D000650A00436F6E74696E75697479206F6E7D
:1001E000200A00436F6E74696E75697479206F66BA
:1001F00066200A0024656E643B0A002473746172F1
:10020000743B0A0024656E643B0A002473746172B7
:10021000743B0A0000000000240027002A000000B0
:100220000000230026002900000000080002010051
:100230000003040700000000000000006166746510
:1002400072202072656164696E6720656570726FE7
:100250006D0A006265666F72652072656164696E21
:100260006720656570726F6D0A0061667465722043
:1002700072656164696E6720616C74697475646528
:100280000A006265666F72652072656164696E67F7
:1002900020616C746974756465320A006265666F0A
:1002A00072652072656164696E6720616C7469743F
:1002B000756465310A0061667465722062656570F7
:1002C0000A006265666F726520626565700A005398
:1002D000746172742070726F6772616D0A00736569
:1002E0006E736F720A000102040810204080010240
:1002F000040810200102040810200000000025005E
:1003000028002B0004040404040404040202020272
:1003100002020303030303030200AE2611241FBEDF
:10032000CFEFD8E0DEBFCDBF11E0A0E0B1E0E6E75F
:10033000F9E602C005900D92AA3FB107D9F725E072
:10034000AAEFB1E001C01D92A731B207E1F711E0B9
:10035000CEE8D1E004C02197FE010E94AE31CD3835
:10036000D107C9F70E9405270C94B9340C940000FA
:10037000E5E2F4E090E080E04181528163817481A4
:10038000452B462B472B29F001963896893191054C
:1003900099F7019708950E94B801AC01092E000C4D
:1003A000660B770B4F3F2FEF520762077207C9F0BA
:1003B000483151056105710591F023E0880F991FBF
:1003C0002A95E1F7FC01EB5DFB4F81E04581568109
:1003D000678170854D3D5F4F610571050CF080E0D0
:1003E000089581E00895089508950895AF92BF9209
:1003F000CF92DF92EF92FF920F931F93CF93DF93F1
:100400006C017B018B01040F151FEB015E01AE181F
:10041000BF08C017D10759F06991D601ED91FC9141
:100420000190F081E02DC6010995892B79F7C5016E
:10043000DF91CF911F910F91FF90EF90DF90CF90C0
:10044000BF90AF900895FC01538D448D252F30E06F
:10045000842F90E0821B930B541710F0CF960895D1
:1004600001970895FC01918D828D981761F0A28DFE
:10047000AE0FBF2FB11D5D968C91928D9F5F9F73C4
:10048000928F90E008958FEF9FEF0895FC01918D7A
:10049000828D981731F0828DE80FF11D858D90E0E7
:1004A00008958FEF9FEF0895FC01918D228D892F84
:1004B00090E0805C9F4F821B91098F73992708956C
:1004C0008FE693E00E94540221E0892B09F420E09A
:1004D000822F089580E090E0892B29F00E9460022D
:1004E00081110C9400000895FC01A48DA80FB92F70
:1004F000B11DA35ABF4F2C91848D90E001968F734C
:100500009927848FA689B7892C93A089B1898C916A
:10051000837080648C93938D848D981306C00288B9
:10052000F389E02D80818F7D80830895EF92FF9283
:100530000F931F93CF93DF93EC0181E0888F9B8D06
:100540008C8D98131AC0E889F989808185FF15C0C0
:100550009FB7F894EE89FF896083E889F9898081E3
:100560008370806480839FBF81E090E0DF91CF91B2
:100570001F910F91FF90EF900895F62E0B8D10E0D4
:100580000F5F1F4F0F731127E02E8C8D8E110CC043
:100590000FB607FCFACFE889F989808185FFF5CF8E
:1005A000CE010E947402F1CFEB8DEC0FFD2FF11DF7
:1005B000E35AFF4FF0829FB7F8940B8FEA89FB89CB
:1005C00080818062CFCF0F931F93CF93DF938C01F5
:1005D000D0E0C0E0F801EC0FFD1F6491662341F00C
:1005E0008FE693E00E949602892B11F02196F2CFBC
:1005F000CE01DF91CF911F910F910895CF93DF939B
:10060000EC01888D8823B9F0AA89BB89E889F9892A
:100610008C9185FD03C0808186FD0DC00FB607FC5F
:10062000F7CF8C9185FFF2CF808185FFEDCFCE0192
:100630000E947402E9CFDF91CF910895833081F059
:1006400028F4813099F08230A9F008958730A9F01C
:100650008830C9F08430B1F4809180008F7D03C070
:10066000809180008F7780938000089584B58F7784
:1006700084BD089584B58F7DFBCF8091B0008F77C6
:100680008093B00008958091B0008F7DF9CFCF9313
:10069000DF93282F30E0F901E85DFD4F8491F901E7
:1006A000EA51FD4FD491F901EC5FFC4FC491CC238A
:1006B000A1F081110E941E03EC2FF0E0EE0FFF1F4E
:1006C000E25EFD4FA591B491EC91ED2381E090E0C5
:1006D00009F480E0DF91CF91089580E090E0FACFB7
:1006E0001F93CF93DF93282F30E0F901E85DFD4F92
:1006F0008491F901EA51FD4FD491F901EC5FFC4F6F
:10070000C491CC23A9F0162F81110E941E03EC2F57
:10071000F0E0EE0FFF1FE650FD4FA591B4918FB7AB
:10072000F894EC91111108C0D095DE23DC938FBFB3
:10073000DF91CF911F910895DE2BF8CF9091150195
:1007400089130BC0E8E1F3E0E4919FEF909315016A
:10075000E13049F028F0E23061F060E00C94700381
:1007600010926E00FACF90916F009D7F90936F0072
:10077000F4CF909170009D7F9093700091E09093E2
:10078000B0009091B100987F94609093B100109266
:10079000B300E3CFCF93DF9390E0FC01EA51FD4F2C
:1007A00024918C5F9C4FFC0184918823C9F090E0D8
:1007B000880F991FFC01EC5EFD4FA591B491FC01DF
:1007C000E650FD4FC591D49161110DC09FB7F894CB
:1007D0008C91209582238C938881282328839FBF26
:1007E000DF91CF910895623051F49FB7F8943C9116
:1007F000822F809583238C93E8812E2BEFCF8FB7A8
:10080000F894EC912E2B2C938FBFEACF4F925F92EE
:100810006F927F928F929F92AF92BF92CF92DF9210
:10082000EF92FF920F931F93CF93DF9300D000D0EE
:100830001F92CDB7DEB78C012A013B0180911501D3
:100840008D30C9F08F3F09F47FC00F900F900F904B
:100850000F900F90DF91CF911F910F91FF90EF902C
:10086000DF90CF90BF90AF909F908F907F906F90D0
:100870005F904F900895E8E1F3E084918D8387FDC8
:10088000E4CF61E08DE00E94CA038D81882321F0CE
:100890009D81923009F05CC14801B12CA12C60E02F
:1008A00072E18AE790E0A50198010E948F312983C7
:1008B0003A834B835C8369017A0181E0C81AD108CD
:1008C000E108F1089FEFC916D104E104F10409F031
:1008D0000CF413C160E472E48FE090E0A50198018C
:1008E0000E948F3169017A0181E0C81AD108E108BC
:1008F000F1089D81923009F098C08FEFC816D1049D
:10090000E104F10409F00CF4DDC160E970ED83E06D
:1009100090E0A50198010E948F3169017A0191E070
:10092000C91AD108E108F1088FEFC816D104E10413
:10093000F10411F00CF0A3C183E09091B100987F15
:10094000892B8093B100E1C08DE080931501E8E12F
:10095000F3E094919D839F3F09F477CF913029F183
:1009600058F0923009F43FC08D8187FD6ECF61E071
:100970008DE00E94CA038CCF14BC15BC84B5826084
:1009800084BD85B5816085BDE1E1F3E0E491F0E0EF
:10099000EE0FFF1FE650FD4F85919491E3EFF2E0DB
:1009A000E491E093F0021D826CCF109280001092CF
:1009B0008100809181008860809381008091810016
:1009C000816080938100E1E1F3E0E491F0E0EE0FDB
:1009D000FF1FE650FD4F85919491E3EFF2E0E49123
:1009E000E093EF024ECF1092B0001092B1008091D0
:1009F000B00082608093B0008091B10081608093EC
:100A0000B100E1E1F3E0E491F0E0EE0FFF1FE6500A
:100A1000FD4F859194919093EE028093ED02E3EF68
:100A2000F2E0E491E093EC022CCF9FEFC916D104E1
:100A3000E104F10409F00CF489C068E478EE81E087
:100A400090E0A50198010E948F3169017A0181E04F
:100A5000C81AD108E108F1089D81992309F428C139
:100A60009FEFC916D104E104F10409F00CF41EC192
:100A700062E17AE780E090E0A50194010E948F3165
:100A800069017A0181E0C81AD108E108F1089D8165
:100A9000992309F4EBC08FEFC816D104E104F104E7
:100AA00011F008F0BFC086E048CF64E274EF80E048
:100AB00090E0A50194010E948F3169017A0181E0E3
:100AC000C81AD108E108F10885E09FEFC916D104E2
:100AD000E104F10409F008F430CF62E17AE780E044
:100AE00090E0A50194010E948F3169017A0191E0A3
:100AF000C91AD108E108F108CECF81E09D8191119A
:100B00001CCF95B5987F892B85BD2FEF3FEFA901AD
:100B1000411451046104710409F043C09D81913076
:100B200009F45EC0923009F46DC091118ECEC7BC3D
:100B30002093F9023093FA024093FB025093FC0297
:100B400080916E00826080936E007FCE82E0D6CF6F
:100B5000B12CA12C60E072E18AE790E0A501980138
:100B60000E948F3169017A0181E0C81AD108E10839
:100B7000F108C114D10491E0E906F10404F591E013
:100B80008D81813011F680918100887F892B80933F
:100B900081002FEF3FEFA90141145104610471045A
:100BA000F9F0D801AA0FBB1FA30192010E94B43132
:100BB00028EE33E040E050E00E946D31AFCF68E4B2
:100BC00078EE81E090E0A50198010E948F316901E3
:100BD0007A0181E0C81AD108E108F10893E0D0CF8A
:100BE000D0928900C09288002093F5023093F602DB
:100BF0004093F7025093F80280916F0082608093D7
:100C00006F0023CEC092B3002093F1023093F20222
:100C10004093F3025093F4028091700082608093BD
:100C2000700013CEC980DA80EB80FC809AE0F594E6
:100C3000E794D794C7949A95D1F791E0C91AD1084F
:100C4000E108F10887E079CEC980DA80EB80FC808A
:100C50008AE0F594E794D794C7948A95D1F791E008
:100C6000C91AD108E108F10885E04BCF8FEFC8160B
:100C7000D104E104F10409F038F784E042CF68E4DC
:100C800078EE81E090E0A50198010E948F31690122
:100C90007A0191E0C91AD108E108F1088FEFC8166E
:100CA000D104E104F10411F00CF0FFCE84E045CE54
:100CB0008FEFC816D104E104F10411F00CF0D8CE86
:100CC00083E01FCF82E039CE3FB7F89480914E0287
:100CD00090914F02A0915002B091510226B5A89B6D
:100CE00005C02F3F19F00196A11DB11D3FBFBA2FBE
:100CF000A92F982F8827BC01CD01620F711D811D7E
:100D0000911D42E0660F771F881F991F4A95D1F702
:100D100008958F929F92AF92BF92CF92DF92EF92FF
:100D2000FF926B017C010E9464064B015C01C114BF
:100D3000D104E104F104B9F00E946406681979094C
:100D40008A099B09683E73408105910580F321E083
:100D5000C21AD108E108F10888EE880E83E0981ED7
:100D6000A11CB11CE4CFFF90EF90DF90CF90BF901B
:100D7000AF909F908F9008952FB7F89460914A029A
:100D800070914B0280914C0290914D022FBF0895BB
:100D900020912602260F3327331F21323105ECF430
:100DA00020914503FC0190E080E0243069F082E06E
:100DB0000895A09126022191AC014A5F5D4FA40FD6
:100DC000B52FB11D2C930196861798F380912602BA
:100DD000680F6093260280E0089581E008951092E4
:100DE000450381E08093440310921F0361E082E198
:100DF0000E94700361E083E10E947003E9EBF0E080
:100E000080818E7F808380818D7F808388E4809342
:100E1000B80085E48093BC000895CF93DF9391E000
:100E2000909305028823B9F0C091B800D091BA0020
:100E30008091BC008A7B8093BC0060E082E10E94CC
:100E4000700360E083E10E9470030E94EF06D0937C
:100E5000BA00C093B800DF91CF9108958F929F920E
:100E6000AF92BF92CF92DF92EF92FF920F931F93B8
:100E7000CF93DF93D0916E03D13208F0D7C0182FF3
:100E8000C0916D030E9464066B017C018091450353
:100E900081116BC082E080934503109344038FEF70
:100EA0008093430310924203D0934103ADE4B3E037
:100EB000E1E2F3E080E0D81391C01092200380912A
:100EC0002003CC0FC82BC093200380911F038130D7
:100ED00009F088C010921F030E9464066B017C0118
:100EE000809120038093BB00809147039091480339
:100EF000A0914903B0914A03892B8A2B8B2BA1F037
:100F00000E94640600914703109148032091490311
:100F100030914A036C197D098E099F09061717073E
:100F20002807390708F442C08091BC0083FDD8CF60
:100F300085EC8093BC000E9464066B017C0180916B
:100F40004503823009F450C0809143038F3F09F478
:100F50006FC080914303803209F46CC080914303D9
:100F6000803309F469C084E026C0809147039091E2
:100F70004803A0914903B0914A03892B8A2B8B2BFC
:100F800009F484CF0E946406809047039090480340
:100F9000A0904903B0904A036C197D098E099F09FE
:100FA00086169706A806B90608F070CF809146030A
:100FB0000E940D0785E010924C0310926E03109270
:100FC0004B03DF91CF911F910F91FF90EF90DF9036
:100FD000CF90BF90AF909F908F9008959D919193E7
:100FE0008F5F69CF85EEA5CF80914703909148032D
:100FF000A0914903B0914A03892B8A2B8B2B09F4CA
:101000009ECF0E94640600914703109148032091EF
:10101000490330914A036C197D098E099F0906170F
:1010200017072807390708F08ACFC0CF81E0C3CF60
:1010300080E0C1CF82E0BFCF83E0BDCFCF92DF920F
:10104000EF92FF920F931F93CF93DF93D82FC62F6A
:10105000613208F098C00E9464066B017C018091A7
:10106000450381116BC081E0809345038093440365
:101070009FEF90934303109242039C0F9093410380
:101080008093200380912003DD0FD82BD093200381
:1010900080911F03813009F078C010921F030E94D5
:1010A00064066B017C01809120038093BB008091DA
:1010B000470390914803A0914903B0914A03892BBB
:1010C0008A2B8B2BA1F00E9464060091470310919C
:1010D00048032091490330914A036C197D098E0918
:1010E0009F09061717072807390708F448C0809199
:1010F000BC0083FDD8CF85EC8093BC000E946406C1
:101100006B017C0180914503813009F440C08091DE
:1011100042038C1710F4C0914203E1E2F3E0AFEF19
:10112000B2E080E08C1355C08C2FDF91CF911F91DE
:101130000F91FF90EF90DF90CF900895809147033B
:1011400090914803A0914903B0914A03892B8A2BBF
:101150008B2B09F484CF0E94640600914703109101
:1011600048032091490330914A036C197D098E0987
:101170009F09061717072807390708F070CF8091D5
:1011800046030E940D07C0E0CFCF85EEB5CF80911A
:10119000470390914803A0914903B0914A03892BDA
:1011A0008A2B8B2B09F4AECF0E9464060091470373
:1011B000109148032091490330914A036C197D092D
:1011C0008E099F09061717072807390708F09ACFD5
:1011D000D6CF91919D938F5FA5CF0895E091FE02A8
:1011E0008091FD02E81730F4F0E0E150FD4F80817E
:1011F00090E008958FEF9FEF08959091FE02809107
:10120000FD022FEF3FEF981748F4E92FF0E0E1508F
:10121000FD4F208130E09F5F9093FE02C901089549
:101220008091FD029091FE02891B990B0895CF9247
:10123000DF92EF92FF920F931F93CF93DF937C0186
:10124000CB018A0120914B03222389F0EB016B0132
:10125000C40ED51ECC15DD0569F06991D701ED915D
:10126000FC910190F081E02DC7010995F3CF642F27
:101270000E94C806C801DF91CF911F910F91FF9086
:10128000EF90DF90CF900895CF93DF931F92CDB76B
:10129000DEB7698320914B032223F9F020916E037E
:1012A000203258F021E030E0FC013383228390E0CB
:1012B00080E00F90DF91CF91089580914C03E82F4B
:1012C000F0E0E35BFC4F998190838F5F80934C0348
:1012D00080936E0381E090E0ECCF61E0CE01019657
:1012E0000E94C806F7CFCF93C82F81E080934B03AD
:1012F00087E780936D0310924C0310926E0364EFA6
:101300008CE094E00E9444096C2F8CE094E00E94F1
:10131000440981E0CF910C942E073F924F925F9247
:101320006F927F928F929F92AF92BF92CF92DF92F5
:10133000EF92FF920F931F93CF93DF932B013C010A
:101340007A01890120E2C22ED12C332433943BE967
:10135000A32E3FE0B32EC0911C04D0911D048091B8
:101360001F04909120049E01215031092421352130
:10137000C21BD30B9601281B390B0217130708F465
:1013800098012C173D0708F4E90120911E04B301D0
:10139000A20104C076956795579547952A95D2F78F
:1013A00090901804942A30924B0390926D031092FF
:1013B0004C0310926E03029741F49927872D762DE6
:1013C000652D8CE094E00E944409642D8CE094E04B
:1013D0000E944409AE01B7018CE094E00E94170915
:1013E00081E00E942E07811125C084E6882EC50168
:1013F0000197F1F730924B0390926D0310924C03DA
:1014000010926E0380911F0490912004029729F49A
:1014100060E08CE094E00E94440960E08CE094E09D
:101420000E94440981E00E942E078823A9F08A9433
:101430008110DDCFDF91CF911F910F91FF90EF9041
:10144000DF90CF90BF90AF909F908F907F906F90E4
:101450005F904F903F9008954C0E5D1E611C711C73
:10146000EC0EFD1E0C1B1D0B09F075CFE3CF809118
:10147000210490912204A0912304B0912404883C7B
:101480009105A105B10548F028EC30E046E254E0B2
:1014900060E070E0CB010E948D0988EC90E0089537
:1014A00090E080E00895FC01480F591F90E080E033
:1014B0002191820F911D27FD9A954E175F07C1F765
:1014C00099270895CF93DF93CDB7DEB7E8970FB68E
:1014D000F894DEBF0FBECDBF1092B5021092B402D9
:1014E0001092B7021092B6021092B9021092B8028E
:1014F00081E090E09093BB028093BA0283E090E099
:101500009093BD028093BC021092C3021092C2025B
:101510001092C5021092C4021092C7021092C60225
:1015200022E330E03093BF022093BE021092C1024A
:101530001092C00228EB31E03093C9022093C80218
:1015400025E030E03093CB022093CA029093CD0285
:101550008093CC021092CF021092CE021092D10250
:101560001092D00240E056E960E070E04093D20271
:101570005093D3026093D4027093D5021092D70295
:101580001092D60220E032E03093D9022093D802A4
:101590001092DB021092DA029093DD028093DC025B
:1015A0001092DF021092DE028AE090E09093E10256
:1015B0008093E0021092E3021092E20288E790E04A
:1015C0009093E5028093E4021092E7021092E60203
:1015D0001092E9021092E80288E3E4EBF2E0DE0107
:1015E000119601900D928A95E1F7FE013196AE01B8
:1015F000495C5F4F90E080E0E417F50731F02191FE
:10160000820F911D27FD9A95F7CF9093EB0280935F
:10161000EA02E8960FB6F894DEBF0FBECDBFDF91A9
:10162000CF91089548EE53E060E070E080917A0237
:1016300090917B020E9406046CED75E080E090E0E2
:101640000E9489068DE00C949E03CF93DF93CAE03D
:10165000D0E048EE53E060E070E080E496E00E9465
:10166000060462E370E080E090E00E9489068DE06D
:101670000E949E03219769F768EE73E080E090E096
:10168000DF91CF910C94890649E150E060E070E071
:1016900080917A0290917B020E9406046CE271E0D4
:1016A00080E090E00E9489068DE00C949E03CF922A
:1016B000DF92EF92FF920F931F93CF93DF936B0113
:1016C0007C0124E6C216D104E104F1040CF446C006
:1016D00024E630E040E050E00E948F31890164E66A
:1016E000629FC001639F900D1124092E000CAA0B6C
:1016F000BB0BA7019601281B390B4A0B5B0BCA01D8
:10170000B9012AE030E040E050E00E948F31E90169
:10171000EE24E394F12C1016110644F11C161D065C
:101720007CF401E010E00E94440B62E370E080E092
:1017300090E00E9489060F5F1F4FC017D1079CF7EA
:1017400068E873E180E090E0DF91CF911F910F9105
:10175000FF90EF90DF90CF900C9489062AE030E064
:1017600040E050E00E948F31E901D8CF0E94120B77
:1017700062E370E080E090E00E9489063FEFE31AA8
:10178000F30A0E151F0594F7C9CF662319F061E01F
:101790000C94700360E0FCCF4091E4025091E502AC
:1017A00028EE33E0429FC001439F900D529F900D61
:1017B0001124092E000CAA0BBB0B80930D019093F2
:1017C0000E01A0930F01B09310011092030210922A
:1017D000A1021092A002109297021092960210920B
:1017E0009502109202021092AA0210929C0210928C
:1017F0009D0210929E0210929F02109298021092E7
:10180000990210929A0210929B0210926602109214
:101810006702109268021092690208950E94CC0B30
:101820008091B4029091B502892B09F08DC080E0BF
:1018300090E0A0E8BFE38093110190931201A09380
:101840001301B09314016091BE027091BF02072E84
:10185000000C880B990B0E94DF2E20911101309112
:10186000120140911301509114010E94352E0E94E3
:10187000A72E072E000C880B990B60936A027093B9
:101880006B0280936C0290936D028091C8029091DC
:10189000C90290937B0280937A028091CA02909150
:1018A000CB02092E000CAA0BBB0B80930001909376
:1018B0000101A0930201B09303018FEF9FEF90937A
:1018C0000501809304018091B8029091B9020397B9
:1018D00051F010920501109204018BE090E090937A
:1018E0008102809380028091BA029091BB0203979B
:1018F00091F080910401909105010196909305016A
:1019000080930401880F991FFC01E058FD4F8AE085
:1019100090E0918380838091BC029091BD020397F7
:1019200091F0809104019091050101969093050139
:1019300080930401880F991FFC01E058FD4F80E15E
:1019400090E091838083089588E499EFA1E5B0E465
:1019500072CFCF93DF939091FF04992351F1682FB9
:1019600081E080934B0387E780936D0310924C03D3
:1019700010926E038CE094E00E94440981E00E9482
:101980002E0762E087E70E941E081092FE028093F5
:10199000FD028CE094E00E94FD08D82F80E0C82F63
:1019A0008CE094E00E94FD088C2B9D2BDF91CF9161
:1019B000089590E080E0FACF8091FF04882319F029
:1019C0008EE20E94730965E070E080E090E00E9482
:1019D000890686EF0C94A90C8F929F92AF92BF92CA
:1019E000CF92DF92EF92FF928091FF04882309F457
:1019F00066C00E94DC0C9C0150E040E0809115051F
:101A000090911605281B390B41095109A091130526
:101A1000B09114050E94B4310E94DF2E20E030E026
:101A200040E058E30E946B2F0E94A72E6B017C01BF
:101A300060910D0570910E05072E000C880B990B17
:101A40000E94DF2E20E030E040E055E40E946B2F42
:101A50004B015C0160910F0570911005072E000C81
:101A6000880B990B6C0D7D1D8E1D9F1D0E94DF2E16
:101A70009B01AC01C501B4010E94352E0E94A72E26
:101A80006C0D7D1D8E1D9F1D685F7F4F8F4F9F4F7B
:101A90000E94DF2E20E030E040E85DE30E946B2FE3
:101AA00020E030E040E251E40E94352EFF90EF90BC
:101AB000DF90CF90BF90AF909F908F90089590E06F
:101AC00080E099CF5F926F927F928F929F92AF92B8
:101AD000BF92CF92DF92EF92FF920F931F93CF931B
:101AE000DF934B015C016A01890177247394C091F3
:101AF0001C04D0911D04CE01019788219921C81B97
:101B0000D90BC8010132110510F080E290E08C176A
:101B10009D0708F4EC0180911E04A501940104C006
:101B200056954795379527958A95D2F7F0901804E2
:101B3000F22A70924B03F0926D0310924C031092B4
:101B40006E0380911F0490912004029741F499271D
:101B50008B2D7A2D692D8CE094E00E944409682D2C
:101B60008CE094E00E94440981E00E942E07582EE8
:101B7000811122C06C2F8F2D0E941E081092FE0230
:101B80008093FD02612CE62CF12CEC16FD0650F43E
:101B90008CE094E00E94FD08F601EE0DFF1D8083AD
:101BA0006394F1CF8C0E9D1EA11CB11CCC0EDD1ECA
:101BB0000C1B1D0B09F09BCF852DDF91CF911F9141
:101BC0000F91FF90EF90DF90CF90BF90AF909F90DC
:101BD0008F907F906F905F900895809121049091F5
:101BE0002204A0912304B0912404883C9105A1050E
:101BF000B10548F028EC30E046E254E060E070E0E7
:101C0000CB010E94620D88EC90E0089591E09093E2
:101C10004B0397E790936D0310924C0310926E0361
:101C2000682F8CE094E00E94440981E00E942E0716
:101C300061E087E70E941E081092FE028093FD0279
:101C40008CE094E00E94FD0808954F925F926F929D
:101C50007F928F929F92AF92BF92CF92DF92EF923C
:101C6000FF92CF93DF9300D000D01F92CDB7DEB7A5
:101C70008091FF04882309F498C10E94DC0C4C0178
:101C8000B12CA12C8091FF04882309F4A6C1809176
:101C900000058295880F880F807C8C5C0E947309F8
:101CA00080910005811184C165E070E080E090E0E2
:101CB0000E94890686EF0E94A90CB0E0A0E0CC2427
:101CC000D82EE92EFA2E8091FF04882309F483C1CF
:101CD00088EF0E94060EC82A2091000588E090E057
:101CE000821B9109A701960104C056954795379527
:101CF00027958A95D2F729833A834B835C83809119
:101D0000150590911605A5019401281B390B410971
:101D10005109A0911305B09114050E94B4310E949D
:101D2000DF2E20E030E040E058E30E946B2F0E945D
:101D3000A72E4B015C0160910D0570910E05072ED9
:101D4000000C880B990B0E94DF2E20E030E040E071
:101D500055E40E946B2F2B013C0160910F0570919F
:101D60001005072E000C880B990B680D791D8A1D34
:101D70009B1D0E94DF2E9B01AC01C301B2010E949A
:101D8000352E0E94A72E860E971EA81EB91E75011D
:101D9000640130EAC31A3FE0D30AE108F108A70161
:101DA0009601C701B6010E945D314B015C01FCE068
:101DB000B594A79497948794FA95D1F7409100052C
:101DC0004D83A0910505B0910605A7010E94BF3182
:101DD0002B013C01ADE07594679457944794AA9504
:101DE000D1F7A0910705B0910805A50194010E94C3
:101DF000BF319C01552737FD5095452F240D351DCA
:101E0000461D571D2E5F3F4F4F4F5F4F82E0559548
:101E10004795379527958A95D1F730584F4F5F4FA3
:101E2000A0911105B09112050E94B4312B013C0123
:101E30009FE076946794579447949A95D1F7A09130
:101E40000905B0910A05A50194010E94BF314B011B
:101E50005C012BE0B594A794979487942A95D1F7C9
:101E6000A0910305B0910405A70196010E94BF311E
:101E70003BE095958795779567953A95D1F7680DED
:101E8000791D8A1D9B1D8090010590900205092CEB
:101E9000000CAA08BB0842E0880C991CAA1CBB1CB9
:101EA0004A95D1F7680D791D8A1D9B1D0D8004C0D0
:101EB000660F771F881F991F0A94D2F76E5F7F4FB6
:101EC0008F4F9F4F24E030E040E050E00E948F3180
:101ED00089819A81AB81BC81821B930BA40BB50BCA
:101EE0009C01AD0160E573EC80E090E00D8004C0E2
:101EF00096958795779567950A94D2F70E945D31FC
:101F000097FD70C0660F771F881F991FA30192016C
:101F10000E946D3169017A019927F7FC9A958F2DFE
:101F20007E2D6D2D9B01AC010E945D319B01AC01AA
:101F3000AEEDBBE00E94B4314B015C01A3E4B3EE13
:101F4000A70196010E94C231BC01992777FD9095A7
:101F5000892F4501BB2497FCB094AB2C680D791DEB
:101F60008A1D9B1D6153714F8F4F9F4F44E0959584
:101F70008795779567954A95D1F76C0D7D1D8E1DD8
:101F80009F1D0F900F900F900F900F90DF91CF91AA
:101F9000FF90EF90DF90CF90BF90AF909F908F9089
:101FA0007F906F905F904F90089590E080E067CEB3
:101FB000813029F468E070E080E090E079CE8230F2
:101FC00029F46EE070E080E090E072CE6AE170E0AB
:101FD00080E090E06DCE80E07ECE19821A821B8276
:101FE0001C828DCEA30192010E946D3169017A019C
:101FF000CC0CDD1CEE1CFF1C8FCFFC0101900020DF
:10200000E9F73197AF01481B590BBC018FE693E00C
:102010000C94F6010C94FD0FCF93DF930E94E30222
:10202000EC018AE491E00E94FD0F8C0F9D1FDF916F
:10203000CF9108958F929F92AF92BF92CF92DF92ED
:10204000EF92FF920F931F93CF93DF93CDB7DEB73D
:10205000A1970FB6F894DEBF0FBECDBF6B017C0118
:10206000F7FE41C06DE28FE693E00E9496028C017C
:1020700022273327A9012C193D094E095F0919A20E
:10208000CE0181967C019AE0892E912CA12CB12C55
:10209000CA01B901A50194010E946D31605DF7018B
:1020A00062937F01211531054105510589F790E0C3
:1020B00080E0309719F0CF010E94FD0F800F911F33
:1020C000A1960FB6F894DEBF0FBECDBFDF91CF91C2
:1020D0001F910F91FF90EF90DF90CF90BF90AF9046
:1020E0009F908F900895AC019B0119A28E010F5D06
:1020F0001F4F8AE0C82ED12CE12CF12CCA01B90166
:10210000A70196010E946D31605DF80162938F0115
:10211000211531054105510589F790E080E03097A0
:1021200079F2CF010E94FD0FCBCF2F923F924F92B9
:102130005F926F927F928F929F92AF92BF92CF9257
:10214000DF92EF92FF920F931F93CF93DF93CDB760
:10215000DEB7C259D1090FB6F894DEBF0FBECDBFAE
:10216000FC0123E0EE0FFF1F2A95E1F7EB5DFB4F2B
:1021700081809280A380B48029EC82169104A1040E
:10218000B10408F432C11C0185819681A781B08514
:10219000412C512C32019C01AD012F5F3F4F4F4F1D
:1021A0005F4FC357DF4F288339834A835B83CD5802
:1021B000D0406E0133E0C30ED11C8E0107581F4F73
:1021C000A8014E5F5F4FCF56DF4F59834883C159F7
:1021D000D04083E5E82E81E0F82EC357DF4F888199
:1021E0009981AA81BB81CD58D04088169906AA064C
:1021F000BB0608F0FAC0409121045091220460917E
:10220000230470912404D501C4014096A11DB11D81
:10221000481759076A077B0740F020E130E04EEE8F
:1022200054E0C501B4010E94620D91E1890E911C38
:10223000A11CB11C1A821982D601E6E71D92EA950B
:10224000E9F7D8011D921C92CF56DF4FE881F98142
:10225000C159D04022E111922A95E9F78091EE040C
:102260009091EF04A091F004B091F104480E591E32
:102270006A1E7B1E6DE471E0CE0101960E94D6318C
:102280003F922F92FF92EF921F930F930E94E131A2
:10229000B801CE0101960E94D6317F926F925F9273
:1022A0004F92FF92EF921F930F930E94E131B8017A
:1022B000CE0101960E94D6318091F5048F938091D2
:1022C000F4048F938091F3048F938091F2048F93A1
:1022D000FF92EF921F930F930E94E131B801CE015C
:1022E00001960E94D6318091F9048F938091F80471
:1022F0008F938091F7048F938091F6048F93FF92D0
:10230000EF921F930F930E94E131B801CE01019625
:102310000E94D6318091FD048F938091FC048F93AD
:102320008091FB048F938091FA048F93FF92EF9238
:102330001F930F930E94E1310FB6F894DEBF0FBEDA
:10234000CDBFB801CE0101960E94D63148E750E0DA
:1023500060E070E0CE0101960E94530A9F938F9334
:1023600087E591E09F938F931F930F930E94E13134
:10237000B801CE0101960E94D6316DE871E0CE0120
:1023800001960E94D6318AE591E00E940A10CE01A2
:1023900001960E940A108091CE029091CF020F9078
:1023A0000F900F900F900F900F90009731F460E016
:1023B00070E0CB010E94890610CF8130910529F48D
:1023C00064E170E080E090E0F5CF8230910529F47F
:1023D00062E370E080E090E0EDCF039709F0FDCE7E
:1023E00064E670E080E090E0E5CFCE56DF4F0FB6B8
:1023F000F894DEBF0FBECDBFDF91CF911F910F913B
:10240000FF90EF90DF90CF90BF90AF909F908F9014
:102410007F906F905F904F903F902F9008952F92F4
:102420003F924F925F926F927F928F929F92AF9264
:10243000BF92CF92DF92EF92FF920F931F93CF93B1
:10244000DF93CDB7DEB7C15AD1090FB6F894DEBF1E
:102450000FBECDBF1A821982FE01339624E9DF0137
:102460001D922A95E9F78E0109561F4FF801119226
:10247000119228E0DF011D922A95E9F720910402CC
:10248000222309F4D2C17A01892E982EA72EB62EC6
:102490000E94BC064090FA015090FB016090FC0144
:1024A0007090FD01DC01CB0184199509A609B709DB
:1024B000A701FF0C660B770B481759076A077B07C4
:1024C00008F0B3C10E94BC066093FA017093FB014F
:1024D0008093FC019093FD016090AA02B091A1024B
:1024E000CF55DF4FB883C15AD0402090AB02309017
:1024F000AC024090AD025090AE028091A0028111DA
:10250000B2C1712CC12CD12C6CE571E0CE010196C9
:102510000E94D6315F924F923F922F9243E5E42E74
:1025200041E0F42EFF92EF921F930F930E94E1314E
:10253000B801CE0101960E94D6311F926F92FF9290
:10254000EF921F930F930E94E131B801CE010196E3
:102550000E94D6311F92CF55DF4F8881C15AD0409B
:102560008F93FF92EF921F930F930E94E131B80176
:10257000CE0101960E94D63180919F028F93809167
:102580009E028F9380919D028F9380919C028F93E6
:10259000FF92EF921F930F930E94E131B801CE0199
:1025A00001960E94D6311F927F92FF92EF921F9365
:1025B0000F930E94E1310FB6F894DEBF0FBECDBF7E
:1025C000B801CE0101960E94D63180919B028F9373
:1025D00080919A028F93809199028F9380919802B3
:1025E0008F93FF92EF921F930F930E94E131B801F6
:1025F000CE0101960E94D631DF92CF92FF92EF92E8
:102600001F930F930E94E131B801CE0101960E9401
:10261000D6318F929F92AF92BF92FF92EF921F930B
:102620000F930E94E131B801CE0101960E94D6318C
:102630000FB6F894DEBF0FBECDBF8091B802909167
:10264000B9026AE671E0039749F08BE00E94470304
:1026500067E671E0892B11F06BE671E0CE0101961F
:102660000E94D6318091BA029091BB026AE671E075
:10267000039749F08AE00E94470367E671E0892BDF
:1026800011F06BE671E0CE0101960E94D631809187
:10269000BC029091BD026AE671E0039749F080E1C7
:1026A0000E94470367E671E0892B11F06BE671E049
:1026B000CE0101960E94D6316AE671E0CE01019604
:1026C0000E94D6316AE671E0CE0101960E94D631B1
:1026D0008091FF04882309F4C2C00E94EC0C0E9480
:1026E000A72E7F936F9383E591E09F938F931F9322
:1026F0000F930E94E131B801CE0101960E94D631BC
:10270000E5E2F4E00F900F900F900F900F900F9074
:1027100090E080E04181528163817481452B462B9A
:10272000472B29F0019638968931910599F723E0D6
:10273000880F991F2A95E1F7FC01E35EFB4F658145
:102740007681878190850E94DF2E20E030E040E88E
:1027500057E30E946B2F20E030E048EC52E40E94E7
:102760006B2F0E94A72E7F936F9333E5E32E31E00A
:10277000F32EFF92EF921F930F930E94E131B80165
:10278000CE0101960E94D6310E94B80101969F9316
:102790008F93FF92EF921F930F930E94E131B80144
:1027A000CE0101960E94D631809101028F938091D3
:1027B00000028F938091FF018F938091FE018F9390
:1027C000FF92EF921F930F930E94E131B801CE0167
:1027D00001960E94D63146E950E060E070E0CE01FB
:1027E00001960E94530A9F938F9387E591E09F93F0
:1027F0008F931F930F930E94E131B801CE01019690
:102800000E94D6316DE871E0CE0101960E94D6316A
:102810008AE591E00E940A10CE0101960E940A10FA
:102820000FB6F894DEBF0FBECDBFCF55DF4F0FB64A
:10283000F894DEBF0FBECDBFDF91CF911F910F91F6
:10284000FF90EF90DF90CF90BF90AF909F908F90D0
:102850007F906F905F904F903F902F90089560E031
:1028600070E0CB013CCF81E0D12CBAE02B163104D3
:10287000410451040CF080E0C82E7724739444CEB8
:1028800085ED8093BC008091470390914803A0910F
:102890004903B0914A030796A11DB11D23E0B695E7
:1028A000A795979587952A95D1F72091BC0024FD8F
:1028B00003C0109245030895409147035091480387
:1028C0006091490370914A03452B462B472B69F3CE
:1028D0000097A105B10541F02AE22A95F1F700C061
:1028E0000197A109B109E1CF809146030C940D072E
:1028F0000F931F93CF93DF9304EB12E0C0E2D0E07D
:10290000F80161918F01CE010E94BA2D2196C83540
:10291000D105B1F7DF91CF911F910F910895EF92FB
:10292000FF920F931F93CF93DF93CDB7DEB7E89756
:102930000FB6F894DEBF0FBECDBF0E94620A84EBD3
:10294000E82E82E0F82E00E210E0C8010E94B22DCD
:10295000F70181937F010F5F1F4F08351105A9F71C
:102960004091EA025091EB0288E3E4EBF2E0DE01F1
:10297000119601900D928A95E1F7FE013196BE0104
:10298000695C7F4F30E020E0E617F70731F0819176
:10299000280F311D87FD3A95F7CF81E04217530785
:1029A00009F080E0E8960FB6F894DEBF0FBECDBF09
:1029B000DF91CF911F910F91FF90EF9008958F922B
:1029C0009F92AF92BF92CF92DF92FF920F931F938D
:1029D000CF93DF9300D000D01F92CDB7DEB72AE0AF
:1029E000AE014F5F5F4F6A010E94802DF60101909A
:1029F0000020E9F73197FE2EFC1868EB7BE080E0C1
:102A000090E00E94890656018A2D8C198F15F0F4EA
:102A100068EE73E080E090E00E948906F501019184
:102A20005F01005309F40AE010E0912C812C0E9410
:102A3000440BFFEF8F1A9F0A801691062CF76AEF5E
:102A400070E080E090E00E948906F1CF0F900F9037
:102A50000F900F900F90DF91CF911F910F91FF90EA
:102A6000DF90CF90BF90AF909F908F9008954F923E
:102A70005F926F927F928F929F92AF92BF92CF920E
:102A8000DF92EF92FF92CF93DF9300D000D0CDB7CB
:102A9000DEB78091FF04412C512C3201882301F1D3
:102AA0000E94250E0E94DF2E20E836EE45EC57E40A
:102AB0000E94352E21E03EED42E45EE30E94D82FD5
:102AC0009B01AC0160E070E080E89FE30E94C82DAC
:102AD00020E03AE24DE257E40E946B2F2B013C01CB
:102AE0008090560290905702A0905802B0905902E0
:102AF00020915A0230915B0240915C0250915D023C
:102B0000609152027091530280915402909155024B
:102B10000E94C92D6B017C0120915E0230915F0201
:102B200040916002509161020E94C92D9B01AC014D
:102B300060E070E080E89FE30E94352EA7019601D7
:102B40000E946B2F69837A838B839C83A5019401F8
:102B5000C301B2010E94C82D29813A814B815C8159
:102B60000E946B2FA50194010E94C92D4B015C01AD
:102B70008092560290925702A0925802B092590247
:102B800029813A814B815C8160E070E080E89FE3BD
:102B90000E94C82DA70196010E946B2F60935202DC
:102BA000709353028093540290935502C501B4016F
:102BB0000F900F900F900F90DF91CF91FF90EF90BB
:102BC000DF90CF90BF90AF909F908F907F906F904D
:102BD0005F904F9008952F923F924F925F926F9225
:102BE0007F928F929F92AF92BF92CF92DF92EF929D
:102BF000FF920F931F93CF93DF93CDB7DEB7CB54E4
:102C0000D1090FB6F894DEBF0FBECDBF0E94CC0B2A
:102C100019A61AA61BA61CA6188E1F8A8091C2028E
:102C20009091C3029A8B898B8091C4029091C502C6
:102C30009C8B8B8B8091C6029091C7029E8B8D8B53
:102C400088E0E6E1F1E0DE01599601900D928A9567
:102C5000E1F74091B8025091B9025A8F498F209103
:102C6000BA023091BB023C8F2B8F8091BC029091B5
:102C7000BD029E8F8D8F68E0EEE1F1E0DE0191965E
:102C800001900D926A95E1F74330510521F049E03A
:102C900050E05AA349A32330310521F02CE030E065
:102CA0003CA32BA3039721F081E190E09EA38DA389
:102CB00080E1FE013196DF011D928A95E9F71DA69C
:102CC0001EA61FA618AA1DAE2A961CAE1DAE1EAECD
:102CD0001FAE2A9726961CAE1DAE1EAE1FAE2697BF
:102CE000C12CD12C760122961CAE1DAE1EAE1FAE9D
:102CF000229700E01CAE1FAA212C809103028111B3
:102D0000ADC70E9437154B015C016091AF02709115
:102D1000B0028091B1029091B2020E94DF2E9B011D
:102D2000AC01C501B4010E94C82D0E94A72E60937A
:102D3000AB027093AC028093AD029093AE02809090
:102D4000A2029090A302A090A402B090A5028616C1
:102D50009706A806B9060CF03FC08091AA0281111F
:102D60003BC08091A0028111C8CF81E08093AA026C
:102D700048EC50E060E070E0CB010E940F120E942E
:102D8000BC066093A6027093A7028093A80290935A
:102D9000A9028091C0029091C102019711F411E043
:102DA0001DAF809108018823B9F0E0919302F09162
:102DB0009402A3E0EE0FFF1FAA95E1F7EB5DFB4F36
:102DC0008091090190910A01A0910B01B0910C0131
:102DD00081839283A383B483812C912C54011BAAF9
:102DE0001CAA1DAA1EAA9E01235D3F4F3AAB29AB28
:102DF0003090AA02332009F480CF0E9437152B01AE
:102E00003C016091AF027091B0028091B10290914B
:102E1000B2020E94DF2E9B01AC01C301B2010E94ED
:102E2000C82D0E94A72E68AF79AF8AAF9BAF609381
:102E3000AB027093AC028093AD029093AE020E94FD
:102E4000BC064090A6025090A7026090A802709025
:102E5000A9029B01AC01241935094609570929012A
:102E60003A011091A002112309F440C0809195020B
:102E700081113CC03CAD311138C088AD99ADAAADCF
:102E8000BBAD8A309105A105B10584F5BC01681977
:102E90007909072E000C880B990B0E94DF2E4B013D
:102EA0005C01C301B2012BA93CA94DA95EA9621B1B
:102EB000730B840B950B0E94DF2E20E030E04AE775
:102EC00054E40E94352E9B01AC01C501B4010E945F
:102ED000352E0E94A72E672B49F40E94BC06269629
:102EE0006CAF7DAF8EAF9FAF26971CAF48EC50E024
:102EF000C301B2010E940F12011108C00E94BC065A
:102F00002A966CAF7DAF8EAF9FAF2A9780919602C5
:102F10008111D9C08E01035D1F4F2C961FAF0EAFDC
:102F20002C9710E000E02C96AEADBFAD2C978D91A4
:102F30002C96BFAFAEAF2C9781113AC00E94BC0651
:102F4000AB01BC012A968CAC9DACAEACBFAC2A9751
:102F5000481959096A097B09E1E1F0E0EC0FFD1F0E
:102F6000E00FF11F80819181092E000CAA0BBB0B91
:102F7000481759076A077B07D8F0E9E1F0E0EC0F42
:102F8000FD1FE00FF11F80819181059789F461E0B9
:102F9000E1E2F0E0EC0FFD1FE00FF11F80810E94E5
:102FA000700381E02C96EEADFFAD2C9731978083B6
:102FB0000E5F1F4F0830110509F0B5CF8E010F5E6F
:102FC0001F4F2C961FAF0EAF2C97912C812C0E9477
:102FD000BC062C96EEADFFAD2C97A191B1912C962D
:102FE000FFAFEEAF2C97AB01BC012A960CAD1DAD27
:102FF0002EAD3FAD2A97401B510B620B730BCD01D9
:1030000088519C4F092E000CAA0BBB0B481759077F
:103010006A077B0738F179E2A72EB12CAC0EBD1EF2
:10302000A80CB91CD5018C9181111CC0C401880F5A
:10303000991FE9E1F0E0EC0FFD1FE80FF91F208177
:1030400031812530310571F4E1E2F0E0EC0FFD1F34
:103050008E0F9F1F60E0DC018C910E94700301E0E5
:10306000F50100831FEF811A910A24E08216910472
:1030700009F0ADCFFE01B996DE015996832D9191ED
:10308000911107C02D913C9111972530310509F41C
:1030900080E0129689A89AA8E815F90581F780932F
:1030A00096020E94BC060091A6021091A7022091F0
:1030B000A8023091A902601B710B820B930B48ECA4
:1030C00050E00E940F12809102028111CBC05E017C
:1030D0000DE2A00EB11C10E000E0D5018D915D0164
:1030E000811141C0E1E1F0E0EC0FFD1FE00FF11FA5
:1030F00080819181092E000CAA0BBB0B4091AB0281
:103100005091AC026091AD027091AE024817590720
:103110006A077B0744F1E9E1F0E0EC0FFD1FE00FE7
:10312000F11F808191810697F1F461E0E1E2F0E026
:10313000EC0FFD1FE00FF11F80810E94700381E002
:10314000F501319780830E94BC06F801EE0FFF1F46
:1031500088248394912C8C0E9D1EE80DF91D6083AC
:103160007183828393830E5F1F4F0830110509F02E
:10317000B4CF8E010F5F1F4F912C812C0E94BC0693
:10318000AB01BC01F80181919191A191B1918F01A5
:1031900088519C4FAF4FBF4F481759076A077B07AD
:1031A00080F139E2A32EB12CAC0EBD1EA80CB91CC7
:1031B000D5018C91811125C0C401880F991FE9E1C7
:1031C000F0E0EC0FFD1FE80FF91F20813181263060
:1031D0003105B9F4EDE2F0E0EC0FFD1FE80DF91D4B
:1031E0002081222371F0E1E2F0E0EC0FFD1F8E0F51
:1031F0009F1F60E0DC018C910E94700321E0F501CB
:1032000020833FEF831A930A44E08416910409F067
:10321000B5CFFE01B996DE015996832D919191119A
:1032200007C02D913C9111972630310509F480E0BB
:10323000129689A89AA8E815F90581F780930202E9
:103240000E94BC060091A6021091A7022091A8023C
:103250003091A902601B710B820B930B48EC50E07C
:103260000E940F12809197028111A4C05E010DE2AD
:10327000A00EB11C10E000E0D5018D915D0181111F
:1032800029C0E1E1F0E0EC0FFD1FE00FF11F8081AC
:103290009181092E000CAA0BBB0B481659066A0631
:1032A0007B06C0F0E9E1F0E0EC0FFD1FE00FF11F3D
:1032B00080819181029771F461E0E1E2F0E0EC0F2E
:1032C000FD1FE00FF11F80810E94700381E0F50176
:1032D000319780830E5F1F4F0830110569F68E010C
:1032E0000F5E1F4F912C812CF801819191918F01DC
:1032F00088519C4F092E000CAA0BBB0B481659068F
:103300006A067B0638F189E2A82EB12CAC0EBD1EF0
:10331000A80CB91CD5018C9181111CC0C401880F67
:10332000991FE9E1F0E0EC0FFD1FE80FF91F208184
:1033300031812230310571F4E1E2F0E0EC0FFD1F44
:103340008E0F9F1F60E0DC018C910E94700321E0D2
:10335000F50120833FEF831A930A44E08416910419
:1033600019F6FE01B996DE015996832D91919111BE
:1033700007C02D913C9111972230310509F480E06E
:10338000129689A89AA8E815F90581F78093970203
:103390000E94BC060091A6021091A7022091A802EB
:1033A0003091A902601B710B820B930B48EC50E02B
:1033B0000E940F1280910801882309F466C0809151
:1033C000AB029091AC02A091AD02B091AE02B301FC
:1033D000A2018BA89CA8ADA8BEA8481959096A09E2
:1033E0007B094093EE045093EF046093F0047093D4
:1033F000F1048093F2049093F304A093F404B09347
:10340000F5048091FF04882309F473C10E94EC0C39
:103410000E94A72E6093F6047093F7048093F8043B
:103420009093F9048091FF04882309F466C10E94F7
:10343000250E6093FA047093FB048093FC04909330
:10344000FD046091090170910A0180910B01909136
:103450000C01613F0FEF7007810591050CF451C11C
:10346000E0919302F0919402A3E0EE0FFF1FAA9562
:10347000E1F7EB5DFB4F61507109810991096583AB
:10348000768387839087109208018091C002909183
:10349000C102019741F439EB43163BE05306610446
:1034A000710408F01DAE8090AB029090AC02A09029
:1034B000AD02B090AE028091660290916702A09139
:1034C0006802B09169028BAB9CABADABBEAB88160A
:1034D0009906AA06BB060CF03CC121103AC10DADFD
:1034E000011137C18091000190910101A091020169
:1034F000B09103010197A109B10980930001909354
:103500000101A0930201B09303012DAC892B8A2BFA
:103510008B2B09F038C10E94BC0622966CAF7DAFA0
:103520008EAF9FAF22978092FE019092FF01A092F2
:103530000002B09201028BA89CA8ADA8BEA8809200
:103540009C0290929D02A0929E02B0929F022090B7
:10355000A102211018C18E01035D1F4F1CAB0BABE4
:1035600010E000E0ABA9BCA98D91BCABABAB811165
:1035700038C00E94BC06AB01BC0122968CAC9DAC4D
:10358000AEACBFAC2297481959096A097B09E1E141
:10359000F0E0EC0FFD1FE00FF11F80819181092EFB
:1035A000000CAA0BBB0B481759076A077B07C8F02A
:1035B000E9E1F0E0EC0FFD1FE00FF11F8081918148
:1035C000019779F461E0E1E2F0E0EC0FFD1FE00F1C
:1035D000F11F80810E94700381E0EBA9FCA9319763
:1035E00080830E5F1F4F0830110509F0BBCF8E019D
:1035F0000F5E1F4F1CAB0BAB912C812C222423940C
:103600000E94BC06EBA9FCA9A191B191FCABEBAB6C
:10361000AB01BC0122960CAD1DAD2EAD3FAD229786
:10362000401B510B620B730BCD0188519C4F092E2F
:10363000000CAA0BBB0B481759076A077B0730F130
:1036400079E2A72EB12CAC0EBD1EA80CB91CD50179
:103650008C9181111BC0C401880F991FE9E1F0E032
:10366000EC0FFD1FE80FF91F20813181213031055A
:1036700069F4E1E2F0E0EC0FFD1F8E0F9F1F60E0A8
:10368000DC018C910E947003F5012082FFEF8F1AFC
:103690009F0A04E08016910409F0B2CFFE01B996AA
:1036A000DE015996832D9191911107C02D913C9186
:1036B00011972130310509F480E0129689A89AA863
:1036C000E815F90581F78093A1020E94BC060091DC
:1036D000A6021091A7022091A8023091A902601BB6
:1036E000710B820B930B48EC50E00E940F12232CBD
:1036F0004AC060E070E0CB018BCE60E070E0CB01AF
:1037000098CE4B015C0110E1810E911CA11CB11CF3
:10371000009121041091220420912304309124046B
:10372000081519052A053B0530F020E130E04EEE82
:1037300054E00E948D092FEF821A920AA20AB20A5F
:103740008092090190920A01A0920B01B0920C01A3
:103750009CCE8092660290926702A0926802B0921C
:1037600069028091CA029091CB02092E000CAA0B2B
:10377000BB0B8093000190930101A0930201B093D1
:1037800003012110E4CE8090AB029090AC02A09097
:10379000AD02B090AE0280916A0290916B02A0914E
:1037A0006C02B0916D0288169906AA06BB0608F055
:1037B000D3C08091A102882309F4CEC00FA90111C2
:1037C00010C08091A0028111CAC00E94BC066B018A
:1037D0007C018092980290929902A0929A02B092F3
:1037E0009B028090A0028FAA8110B9C05E010DE2F9
:1037F000A00EB11C10E000E0D5018D915D0181119A
:1038000031C00E94BC06AB01BC014C195D096E09B8
:103810007F09E1E1F0E0EC0FFD1FE00FF11F808177
:103820009181092E000CAA0BBB0B481759076A0798
:103830007B07C0F0E9E1F0E0EC0FFD1FE00FF11FA6
:1038400080819181892B71F461E0E1E2F0E0EC0F7D
:10385000FD1FE00FF11F80810E94700381E0F501E0
:10386000319780830E5F1F4F0830110529F68E01B6
:103870000F5E1F4F912C812C0E94BC06F8012191F4
:1038800031918F01AB01BC014C195D096E097F09B3
:10389000C90188519C4F092E000CAA0BBB0B48177D
:1038A00059076A077B0730F159E2A52EB12CAC0EFF
:1038B000BD1EA80CB91CD5018C9181111BC0C4017F
:1038C000880F991FE9E1F0E0EC0FFD1FE80FF91FE9
:1038D00020813181232B71F4E1E2F0E0EC0FFD1F38
:1038E0008E0F9F1F60E0DC018C910E94700321E02D
:1038F000F50120833FEF831A930A44E08416910474
:1039000009F0BACFFE01B996DE015996832D919147
:10391000911106C02D913C911197232B09F480E061
:10392000129689A89AA8E815F90589F78093A0024C
:103930000E94BC060091A6021091A7022091A80245
:103940003091A902601B710B820B930B48EC50E085
:103950000E940F123FAA03C01FA9111142CF9CACB5
:10396000992009F4CFC0809195028111CBC08E01BE
:10397000035D1F4F1CAB0BAB10E000E0ABA9BCA973
:103980008D91BCABABAB811138C00E94BC06AB01C2
:10399000BC0126968CAC9DACAEACBFAC269748194A
:1039A00059096A097B09E1E1F0E0EC0FFD1FE00F26
:1039B000F11F80819181092E000CAA0BBB0B4817C7
:1039C00059076A077B07C8F0E9E1F0E0EC0FFD1F3B
:1039D000E00FF11F80819181049779F461E0E1E2C9
:1039E000F0E0EC0FFD1FE00FF11F80810E947003DB
:1039F00081E0EBA9FCA9319780830E5F1F4F08304F
:103A0000110509F0BBCF8E010F5E1F4F1CAB0BAB36
:103A1000912C812C0E94BC06EBA9FCA9A191B1912B
:103A2000FCABEBABAB01BC0126960CAD1DAD2EADD6
:103A30003FAD2697401B510B620B730BCD01885194
:103A40009C4F092E000CAA0BBB0B481759076A079D
:103A50007B0738F139E2A32EB12CAC0EBD1EA80CA9
:103A6000B91CD5018C9181111CC0C401880F991F0C
:103A7000E9E1F0E0EC0FFD1FE80FF91F2081318133
:103A80002430310571F4E1E2F0E0EC0FFD1F8E0F00
:103A90009F1F60E0DC018C910E94700301E0F50142
:103AA00000831FEF811A910A24E08216910409F025
:103AB000B1CFFE01B996DE015996832D91919111F6
:103AC00007C02D913C9111972430310509F480E015
:103AD000129689A89AA8E815F90581F780939502AE
:103AE0000E94BC060091A6021091A7022091A80294
:103AF0003091A902601B710B820B930B48EC50E0D4
:103B00000E940F1280910801882391F18091A002F8
:103B1000882391F18091AB029091AC02A091AD020B
:103B2000B091AE020A97A105B1050CF048C0809192
:103B30009502882309F443C0E0919302F091940226
:103B400083E0EE0FFF1F8A95E1F7EB5DFB4F80915D
:103B5000090190910A01A0910B01B0910C0101970C
:103B6000A109B10985839683A783B0870E94370A8C
:103B70008091A002811137C0809195028823A9F01D
:103B800081E0809303020E94BC060091A60210917E
:103B9000A7022091A8023091A902601B710B820B31
:103BA000930B48EC50E00E940F1288AC99ACAAAC81
:103BB000BBAC4BAA5CAA6DAA7EAA032D19C90E94B0
:103BC000BC066C197D098E099F0900910D011091A9
:103BD0000E0120910F0130911001061717072807D9
:103BE000390708F4A9CF8091AB029091AC02A09163
:103BF000AD02B091AE020A97A105B105DCF4809147
:103C000095028823B9F01092AA020E94BC06009186
:103C1000A6021091A7022091A8023091A902601B70
:103C2000710B820B930B48EC50E00E940F12109224
:103C30000402A2CF0E94BC066C197D098E099F095F
:103C400000910D0110910E0120910F013091100192
:103C50000617170728073907B0F28ECFC55BDF4F6D
:103C60000FB6F894DEBF0FBECDBFDF91CF911F918D
:103C70000F91FF90EF90DF90CF90BF90AF909F900B
:103C80008F907F906F905F904F903F902F9008950E
:103C90004F925F926F927F92AF92BF92CF92DF92DC
:103CA000EF92FF920F931F93CF93DF93CDB7DEB7C1
:103CB000C25BD1090FB6F894DEBF0FBECDBF8C0139
:103CC000DC018C918136B1F48BE092E00E94E3023A
:103CD00010E000E00E94B8018017910734F0C8019D
:103CE0000E9495100F5F1F4FF5CF84E092E00E9475
:103CF000E30278C2823609F068C28BEF91E00E943D
:103D0000E3021A821982FE01339686E7DF011D92D3
:103D10008A95E9F78E0107581F4FF8011192119209
:103D200088E0DF011D928A95E9F70E948F148111C6
:103D300004C08AEE90E00E94E3026EE671E0CE01DC
:103D400001960E94D6318091B5028F938091B40282
:103D50008F9343E5E42E41E0F42EFF92EF921F9300
:103D60000F930E94E131B801CE0101960E94D63135
:103D70008091B7028F938091B6028F93FF92EF925A
:103D80001F930F930E94E131B801CE0101960E946A
:103D9000D6318091B9028F938091B8028F93FF92B0
:103DA000EF921F930F930E94E131B801CE0101966B
:103DB0000E94D6318091BB028F938091BA028F937B
:103DC000FF92EF921F930F930E94E131B801CE0151
:103DD00001960E94D6318091BD028F938091BC02E2
:103DE0008F93FF92EF921F930F930E94E131B801DE
:103DF000CE0101960E94D6318091C1028F938091AD
:103E0000C0028F93FF92EF921F930F930E94E131B4
:103E10000FB6F894DEBF0FBECDBFB801CE0101963C
:103E20000E94D6318091BF028F938091BE028F9302
:103E3000FF92EF921F930F930E94E131B801CE01E0
:103E400001960E94D6316AE771E0CE0101960E9488
:103E5000D63163EE71E0CE0101960E94D6311F92F9
:103E600082E08F93FF92EF921F930F930E94E131B4
:103E7000B801CE0101960E94D6311F921F92FF9287
:103E8000EF921F930F930E94E131B801CE0101968A
:103E90000E94D6318091C3028F938091C2028F938A
:103EA000FF92EF921F930F930E94E131B801CE0170
:103EB00001960E94D6318091C5028F938091C402F1
:103EC0008F93FF92EF921F930F930E94E131B801FD
:103ED000CE0101960E94D6318091C7028F938091C6
:103EE000C6028F93FF92EF921F930F930E94E131CE
:103EF0000FB6F894DEBF0FBECDBFB801CE0101965C
:103F00000E94D6318091C9028F938091C8028F930D
:103F1000FF92EF921F930F930E94E131B801CE01FF
:103F200001960E94D6318091CB028F938091CA0274
:103F30008F93FF92EF921F930F930E94E131B8018C
:103F4000CE0101960E94D6318091CD028F9380914F
:103F5000CC028F93FF92EF921F930F930E94E13157
:103F6000B801CE0101960E94D6318091CF028F9385
:103F70008091CE028F93FF92EF921F930F930E9436
:103F8000E131B801CE0101960E94D6318091D10273
:103F90008F938091D0028F93FF92EF921F930F9394
:103FA0000E94E131B801CE0101960E94D631809184
:103FB000D5028F938091D4028F938091D3028F93F7
:103FC0008091D2028F9386E891E09F938F931F9305
:103FD0000F930E94E1310FB6F894DEBF0FBECDBF44
:103FE000B801CE0101960E94D6318091D7028F93FD
:103FF0008091D6028F93FF92EF921F930F930E94AE
:10400000E131B801CE0101960E94D6318091D902EA
:104010008F938091D8028F93FF92EF921F930F930B
:104020000E94E131B801CE0101960E94D631809103
:10403000DB028F938091DA028F93FF92EF921F93AE
:104040000F930E94E131B801CE0101960E94D63152
:104050008091DD028F938091DC028F93FF92EF922B
:104060001F930F930E94E131B801CE0101960E9487
:10407000D6318091DF028F938091DE028F93FF9281
:10408000EF921F930F930E94E131B801CE01019688
:104090000E94D6318091E1028F938091E0028F934C
:1040A000FF92EF921F930F930E94E1310FB6F894A5
:1040B000DEBF0FBECDBFB801CE0101960E94D63142
:1040C0008091E3028F938091E2028F93FF92EF92AF
:1040D0001F930F930E94E131B801CE0101960E9417
:1040E000D6318091E5028F938091E4028F93FF9205
:1040F000EF921F930F930E94E131B801CE01019618
:104100000E94D6318091E7028F938091E6028F93CF
:10411000FF92EF921F930F930E94E131B801CE01FD
:1041200001960E94D6318091E9028F938091E80236
:104130008F93FF92EF921F930F930E94E131B8018A
:10414000CE0101960E94D63148E750E060E070E071
:10415000CE0101960E94530A9F938F938BE891E0C2
:104160009F938F931F930F930E94E131B801CE016B
:1041700001960E94D6318AE591E00E940A100FB69E
:10418000F894DEBF0FBECDBF8091E8029091E902A6
:104190000197A1F4DE0111967D01E016F10691F080
:1041A000F70161917F018FE693E00E94960262E041
:1041B00070E080E090E00E948906EFCFCE0101968A
:1041C0000E940A1084EF91E092CD833631F5809100
:1041D000920281111DC081E08093920283EE91E0F2
:1041E0000E940C10CE54DF4F0FB6F894DEBF0FBE06
:1041F000CDBFDF91CF911F910F91FF90EF90DF9096
:10420000CF90BF90AF907F906F905F904F90089548
:104210001092920283ED91E0E3CF843639F40E944C
:10422000620A0E9478140E940E0CDCCF853639F5A4
:104230008CEC91E00E940C10E5E2F4E08DEE94E04D
:1042400011821282138214821582168217821086BE
:1042500038968E179F07A1F70E94370A1092940292
:104260001092930289EC90E0A0E0B0E08093090105
:1042700090930A01A0930B01B0930C01B3CF863643
:1042800031F481E08093B30286EC91E030CD873643
:1042900029F41092B30280EC91E029CD883619F40C
:1042A0008AEB91E024CD893609F49CCF8B3661F5F9
:1042B00011968C9189831A82CE0101960E94152D48
:1042C00097FD90CFFF24F394F8018281863409F49E
:1042D000F12CCE0101960E94F72C8230910561F0FD
:1042E0008330910569F0019709F07CCF6F2D89E04B
:1042F00090E00E94C50B76CF6F2D8CE090E0F9CF57
:104300006F2D81E190E0F5CF8C3609F050C08BEA3B
:1043100091E00E940C100E94ED0D05E214E0C12C0A
:10432000D12C7601F80181819281A381B481892BFE
:104330008A2B8B2B09F456CF80E991E00E940A105A
:10434000C701B6010E941A108AE491E00E94FD0F95
:104350008DE991E00E940A10D80111966D917D912E
:104360008D919C9114970E941A108AE491E00E940A
:10437000FD0F85EA91E00E940A10F80165817681BF
:10438000878190850E941A108AE491E00E94FD0FB7
:10439000085F1F4FFFEFCF1ADF0AEF0AFF0A89E11C
:1043A000C816D104E104F10409F0BCCF1BCF8D364F
:1043B00019F485EA91E09BCC8E3609F05FC01A8231
:1043C0001982FE0133968CE1DF011D928A95E9F78F
:1043D0008E0107581F4FF8011192119287E0DF01FB
:1043E0001D928A95E9F78CE991E00E94E3026BEA5D
:1043F00071E0CE0101960E94D6310E94B80101966B
:104400009F938F9383E591E09F938F931F930F93D7
:104410000E94E131B801CE0101960E94D6314EE1F1
:1044200050E060E070E0CE0101960E94530A9F9335
:104430008F9387E591E09F938F931F930F930E9433
:10444000E131B801CE0101960E94D6316DE871E0EC
:10445000CE0101960E94D6318AE591E00E940A10B1
:10446000CE0101960E940A1085E991E00E94E302C4
:104470000FB6F894DEBF0FBECDBFB4CE8F3609F0B5
:1044800054C08CE891E00E94E3021A821982FE0176
:10449000339682E6DF011D928A95E9F78E0107586F
:1044A0001F4FF8011192119288E0DF011D928A9549
:1044B000E9F768EB71E0CE0101960E94D63163EC1A
:1044C00071E0CE0101960E94D63144E650E060E0F2
:1044D00070E0CE0101960E94530A9F938F9387E567
:1044E00091E09F938F931F930F930E94E131B80146
:1044F000CE0101960E94D6316DE871E0CE010196A1
:104500000E94D6318AE591E00E940A10CE01019600
:104510000E940A1085E891E00E94E3020F900F903C
:104520000F900F900F900F905DCE803709F026C14D
:10453000CF54DF4F19830883C15BD0401A821982A0
:10454000FE01339682E6DF011D928A95E9F7B12CD0
:10455000A12C412C512C320110E000E0F12CE12C77
:10456000AE014F545F4F63EE71E0CF54DF4F88814F
:104570009981C15BD0400E943C2D6C01009709F1EC
:10458000B1E0EB16F10461F40E94F72C8C01B60146
:10459000CE0101960E94D6318FEFE81AF80AE0CFDB
:1045A000E2E0EE16F10429F40E94152D2B013C01E6
:1045B000EECFF3E0EF16F10479F70E94F72C5C01DF
:1045C000EBCF94E0E916F1041CF489E791E08FCB7E
:1045D00044E650E060E070E0CE0101960E94530A8C
:1045E0008A159B0591F7F8013197EA31F10510F52D
:1045F000E450FD4D0C94AE31162336233B2340236B
:1046000045234A234F23542359235E2363236823DE
:104610006D23722377237C2385238A238F2394237E
:1046200099239E23A323A823AD23B2235092B5023E
:104630004092B40288E3E4EBF2E0DE01A758BF4FFA
:1046400001900D928A95E1F7FE01E758FF4FAF0107
:104650004A5C5F4F90E080E04E175F0709F487C027
:104660002191820F911D27FD9A95F6CF5092B702A6
:104670004092B602DFCF5092B9024092B802DACF30
:104680005092BB024092BA02D5CF5092BD024092E6
:10469000BC02D0CF5092BF024092BE02CBCF50920C
:1046A000C1024092C002C6CF5092C3024092C202E1
:1046B000C1CF5092C5024092C402BCCF5092C702F3
:1046C0004092C602B7CF5092C9024092C802B2CF00
:1046D0005092CB024092CA02ADCF5092CD0240928E
:1046E000CC02A8CF5092CF024092CE02A3CF5092DC
:1046F000D1024092D0029ECF4092D2025092D30279
:104700006092D4027092D50295CF5092D702409217
:10471000D60290CF5092D9024092D8028BCF5092BD
:10472000DB024092DA0286CF5092DD024092DC0238
:1047300081CF5092DF024092DE027CCF5092E102A4
:104740004092E00277CF5092E3024092E20272CFB1
:104750005092E5024092E4026DCF5092E7024092FF
:10476000E60268CF5092E9024092E80263CF90934C
:10477000EB028093EA028FE791E0B9CA813749F4EE
:104780000E9478140E948F140E940E0C83E791E01F
:10479000AECA823711F511968C91119789831296C2
:1047A0008C918823A9F08A831B82CE0101960E94F6
:1047B000152D97FD0FC08AE691E00E94E302CE011D
:1047C00001960E94F72C0E94951083E691E08FCA13
:1047D0001A82EBCF80E591E003CD833709F402CD57
:1047E000843749F40E94620A0E9478140E940E0CD9
:1047F00080E491E07CCA873739F484E391E00E9439
:104800000C100E94EB15EECC883709F05FC0E5E292
:10481000F4E090E080E04181528163817481452B16
:10482000462B472B79F5009769F133E0880F991FE4
:104830003A95E1F7FC01E35EFB4F1182128213828D
:10484000148215821682178210860E94370A0E94EF
:10485000ED0D0E94B80197FF1BC0109294021092B8
:10486000930289EC90E0A0E0B0E08093090190937E
:104870000A01A0930B01B0930C010E94CB0180931D
:104880000801B0CC019638968931910521F6DFCF29
:10489000FC0123E0EE0FFF1F2A95E1F7EB5DFB4FD4
:1048A00045815681678170854F5F5F4F6F4F7F4FA6
:1048B0004093090150930A0160930B0170930C011E
:1048C00001969093940280939302D7CF8937A9F4ED
:1048D000F8018181813351F481E291E00E94E30289
:1048E00081E08093040287E091E001CA8DE091E0CD
:1048F0000E94E30210920402F6CF803219F481E0A4
:1049000091E0F5C987EF90E00E94E302D8016C9135
:104910008FE693E00E9496028AE491E00E94FD0FE8
:1049200061CC1F920F920FB60F9211242F933F93D9
:104930004F935F936F937F938F939F93AF93BF93A7
:10494000EF93FF938091F1029091F202A091F30214
:10495000B091F402892B8A2B8B2BD1F19091EC0230
:10496000E091ED02F091EE028081892780838091B1
:10497000F1029091F202A091F302B091F4021816A4
:1049800019061A061B069CF48091F1029091F2021E
:10499000A091F302B091F4020197A109B1098093AB
:1049A000F1029093F202A093F302B093F402FF910C
:1049B000EF91BF91AF919F918F917F916F915F9197
:1049C0004F913F912F910F900FBE0F901F90189510
:1049D000809115010E949E03EACF1F920F920FB69D
:1049E0000F9211242F933F934F935F936F937F9375
:1049F0008F939F93AF93BF93EF93FF938FE693E0D3
:104A00000E947402FF91EF91BF91AF919F918F919E
:104A10007F916F915F914F913F912F910F900FBEBA
:104A20000F901F9018951F920F920FB60F9211249E
:104A30002F938F939F93EF93FF93E0917F03F091D8
:104A400080038081E0918503F091860382FD1BC085
:104A50009081809188038F5F8F73209189038217E3
:104A600041F0E0918803F0E0E159FC4F958F80938D
:104A70008803FF91EF919F918F912F910F900FBE1F
:104A80000F901F9018958081F4CF1F920F920FB650
:104A90000F9211242F933F938F939F93AF93BF93C4
:104AA00080914A0290914B02A0914C02B0914D022C
:104AB0003091490223E0230F2D3758F50196A11DAF
:104AC000B11D2093490280934A0290934B02A09318
:104AD0004C02B0934D0280914E0290914F02A091F2
:104AE0005002B09151020196A11DB11D80934E025A
:104AF00090934F02A0935002B0935102BF91AF9197
:104B00009F918F913F912F910F900FBE0F901F900B
:104B1000189526E8230F0296A11DB11DD2CF1F9232
:104B20000F920FB60F9211242F933F934F935F93E1
:104B30006F937F938F939F93AF93BF93EF93FF9365
:104B40008091B900887F803609F44AC0F0F5883238
:104B500009F4A7C018F5803109F49BC0B8F4882384
:104B600009F4F9C0883009F494C0FF91EF91BF9126
:104B7000AF919F918F917F916F915F914F913F91F5
:104B80002F910F900FBE0F901F901895883109F448
:104B900088C0803251F78093430314C0803409F4F5
:104BA0009DC040F48033B9F38833F9F68093430312
:104BB00085ECB0C0803509F485C0883509F496C00D
:104BC000883499F60E944014D0CF883909F48CC0FB
:104BD00038F5883729F050F4883611F0803729F6F7
:104BE00083E0809345031092480257C0883809F447
:104BF0007BC0803919F0803809F0B7CF8091480226
:104C0000803208F071C0E091480281E08E0F8093FD
:104C100048028091BB00F0E0E85DFD4F80833DC01D
:104C2000803B39F0E0F4803A09F479C0883A09F021
:104C30009CCF84E0809345031092270210922602B5
:104C4000E0916202F0916302099580912602811140
:104C50000FC081E0809326021092060209C0803CBA
:104C600009F4A6CF883C09F4A3CF883B09F07DCF97
:104C7000E091270281E08E0F80932702F0E0EA5F47
:104C8000FD4F80818093BB00909127028091260286
:104C900029C0809120038093BB0085EC8093BC00E9
:104CA00064CF9091420380914103981758F5E091A9
:104CB000420381E08E0F80934203F0E0EF5DFC4FF2
:104CC0008081E9CFE091420381E08E0F809342031F
:104CD0008091BB00F0E0EF5DFC4F80839091420338
:104CE000809141039817C8F285E8D8CFE09142033C
:104CF00081E08E0F809342038091BB00F0E0EF5D76
:104D0000FC4F80838091440381115CCF81E08093CC
:104D10001F0384EA8093BC001092450326CF85ECE4
:104D20008093BC001092450380914802803230F499
:104D3000E0914802F0E0E85DFD4F1082609148028A
:104D400070E0E0916402F091650288E292E00995DA
:104D5000109248020ACF1092430334CFEFE6F3E0FB
:104D60001382128288EE93E0A0E0B0E08483958302
:104D7000A683B7832AE231E03183208325EC30E03B
:104D80003587248724EC30E03787268720EC30E015
:104D9000318B208B21EC30E0338B228B22EC30E006
:104DA000358B248B26EC30E0378B268B118E128EC0
:104DB000138E148EECE0F4E01382128284839583C8
:104DC000A683B7838CE391E091838083E8E1F4E0EC
:104DD00080E092E09283818381E0838320E430E06D
:104DE0003583248390E5908340E050E061E070E0FB
:104DF000418752876387748722E030E030872783BA
:104E000090E196838093FF040895CF93DF93CDB70D
:104E1000DEB7CC59D1090FB6F894DEBF0FBECDBFB7
:104E2000789484B5826084BD84B5816084BD85B585
:104E3000826085BD85B5816085BD80916E00816091
:104E400080936E0010928100809181008260809337
:104E50008100809181008160809381008091800039
:104E60008160809380008091B10084608093B10064
:104E70008091B00081608093B00080917A0084605E
:104E800080937A0080917A00826080937A0080918A
:104E90007A00816080937A0080917A0080688093A4
:104EA0007A001092C1000E948F14182F811104C043
:104EB0000E94620A0E9478148091D2029091D302DB
:104EC000A091D402B091D5028C3221E09207A105C5
:104ED000B10509F477C0803B44E09407A105B10512
:104EE00009F470C0803659E09507A105B10509F4B1
:104EF00069C0803C22E19207A105B10509F462C0B6
:104F0000803845E29407A105B10509F45BC08034FF
:104F100058E39507A105B10509F454C081152BE4A8
:104F20009207A105B10509F44DC0803840E7940708
:104F3000A105B10509F446C0811556E99507A105FB
:104F4000B10509F43FC0811521EE9207A105B10515
:104F5000C9F1811542EC940741E0A407B10591F134
:104F600081159448A340B10569F180E096E9A0E07D
:104F7000B0E08093D2029093D302A093D402B09376
:104F8000D50288E3E4EBF2E0DE01AB59BF4F0190BC
:104F90000D928A95E1F7FE01EB59FF4FAF014A5C94
:104FA0005F4F90E080E0E417F50731F02191820F28
:104FB000911D27FD9A95F7CF9093EB028093EA021B
:104FC0000E9478140E940E0C82ED90E0A0E8B0E4FC
:104FD00080935E0290935F02A0936002B09361029F
:104FE0008CE69FECACE4BEE380935A0290935B02A4
:104FF000A0935C02B0935D02109256021092570289
:1050000010925802109259021092520210925302BA
:1050100010925402109255021092FE021092FD025C
:1050200010924C0310926E030E94EF0684EF91E001
:10503000909363028093620285EF91E09093650202
:10504000809364028090D2029090D302A090D40208
:10505000B090D50260E079E08DE390E0A501940185
:105060000E946D31215031094109510956954795EA
:1050700037952795E0917F03F091800382E080834C
:10508000811481EE9806A104B10421F0211590E16C
:105090003907A8F0E0917F03F0918003108260E867
:1050A00074E88EE190E0A50194010E946D312150D9
:1050B0003109410951095695479537952795E09152
:1050C0007B03F0917C033083E0917D03F0917E03BC
:1050D000208310928703E0918303F091840386E09C
:1050E0008083E0918103F0918203808180618083DD
:1050F000E0918103F0918203808188608083E09158
:105100008103F0918203808180688083E091810334
:10511000F091820380818F7D808385EE91E00E94F3
:10512000FD0F8AE491E00E94FD0F62E080E00E94A2
:10513000CA038EED92E00E94E3028091D602843091
:1051400008F083E0809300051092FE021092FD02A9
:1051500010924C0310926E030E94EF0684EF91E0D0
:10516000909363028093620285EF91E090936502D1
:10517000809364028091FF0481114CC21092FF045D
:105180008FEC92E00E94E30261E089E00E94CA0392
:1051900061E08CE00E94CA0361E081E10E94CA03E1
:1051A00061E08DE00E94CA0360E088E00E94CA03CB
:1051B00060E087E00E94CA0360E08BE00E94CA03BF
:1051C00060E08AE00E94CA0360E080E10E94CA03B6
:1051D00060E089E00E94700360E08CE00E94700350
:1051E00060E081E10E94700360E08DE00E94700346
:1051F0008091DA029091DB02019709F05FC281E0B1
:105200008093920282EC92E00E94E3020E94120BD1
:105210000E94120B86EB92E00E94E302111125C05E
:1052200084E690E0A0E0B0E080936A0290936B0285
:10523000A0936C02B0936D0288E00E9447038C013A
:1052400087E00E9447030115110509F03AC2892B36
:1052500061F482E390E0A0E0B0E080936A02909372
:105260006B02A0936C02B0936D028CE992E00E94F5
:10527000E30202E310E00E94371501501109D9F74B
:1052800082E892E00E94E3020AE010E0812C912C77
:1052900054010E9437159B01AC01C501B4010E9465
:1052A000C92D4B015C0162E370E080E090E00E9458
:1052B00089060150110969F78AE692E00E94E3022B
:1052C00020E030E040E251E4C501B4010E94352EF7
:1052D0000E94A72E6093AF027093B0028093B10238
:1052E0009093B202109266021092670210926802C6
:1052F000109269028091E0029091E102092E000C67
:10530000AA0BBB0B8093A2029093A302A093A402CA
:10531000B093A50283E592E00E94E3020E94ED0DA6
:105320000E94B80197FFD9C1109294021092930283
:1053300089EC90E0A0E0B0E08093090190930A012D
:10534000A0930B01B0930C018CE392E00E94E30266
:105350000E94CB0180930801811108C08BEE91E07F
:105360000E94FD0F8AE491E00E94FD0F10E000E032
:1053700070E2F72E22242A94322C6CED462E65E042
:10538000562E612C712CABE3FA1609F417C38091E9
:10539000B3028111EDC20E9437154B015C0160918F
:1053A000AF027091B0028091B1029091B2020E945E
:1053B000DF2E9B01AC01C501B4010E94C82D0E94E3
:1053C000A72E6093AB027093AC028093AD029093D2
:1053D000AE028091AA02882391F00E94BC068090C0
:1053E000A6029090A702A090A802B090A902681906
:1053F00079098A099B0948EC50E00E940F124091FC
:10540000AB025091AC026091AD027091AE028091FE
:10541000A2029091A302A091A402B091A5028417C8
:105420009507A607B7070CF414C280919202811168
:105430007FC18091A10281117BC10E94BC06809036
:105440008E0290908F02A0909002B0909102681905
:1054500079098A099B0980908A0290908B02A0901A
:105460008C02B0908D0286169706A806B90608F041
:105470004BC08091060190910701019609F05CC133
:105480002091880230918902F901EE0FFF1FE05848
:10549000FD4F808191812F5F3F4F30938902209390
:1054A000880240910401509105014217530724F4EA
:1054B000109289021092880290930701809306014E
:1054C0008F3F980709F434C10E944703892B09F0E4
:1054D00022C140927C0250927D0260927E027092C4
:1054E0007F0240E050E0BA0180917A0290917B0205
:1054F0000E9406040E94BC066093760270937702B5
:10550000809378029093790244EF51E060E070E07C
:10551000CB010E940F120E94BC064B015C018091DE
:10552000A102882309F424C28091A002882309F4EF
:105530001FC28FE693E00E945402892BA9F08FE6E8
:1055400093E00E943202F82E9BE3F91609F484C11D
:10555000AAE0FA1649F0E1E0F0E0EC0FFD1FE00FE1
:10556000F11FF0820F5F1F4F0E94BC066819790976
:105570008A099B09613177428105910580F20E9479
:10558000250B60919C0270919D0280919E029091EA
:105590009F028090110190901201A0901301B09091
:1055A00014012091B6023091B702232B09F0CAC131
:1055B0000E94DF2EA50194010E946B2F0E94A72E4E
:1055C0000E94570B0E94250B6091980270919902DE
:1055D00080919A0290919B0280901101909012010B
:1055E000A0901301B09014012091B6023091B7023F
:1055F000232B09F0B2C10E94DF2EA50194010E9465
:105600006B2F0E94A72E0E94570B0E94BC064B01D5
:105610005C01AACF80ED0E94060E853509F0AECD63
:105620008AEA0E94A90C90930205809301058CEAF6
:105630000E94A90C90930405809303058EEA0E94B2
:10564000A90C909306058093050580EB0E94A90C98
:10565000909312058093110582EB0E94A90C909300
:1056600014058093130584EB0E94A90C90931605F2
:105670008093150586EB0E94A90C909308058093F2
:10568000070588EB0E94A90C90930A0580930905F1
:105690008AEB0E94A90C90930C0580930B058CEB70
:1056A0000E94A90C90930E0580930D058EEB0E942D
:1056B000A90C9093100580930F0562CD1092920271
:1056C000A1CD0130110509F0D0CD009709F087C1B7
:1056D00086E990E0A0E0B0E0C0CDFC01A3E0EE0FD1
:1056E000FF1FAA95E1F7EB5DFB4F4581568167816E
:1056F00070854F5F5F4F6F4F7F4F4093090150930D
:105700000A0160930B0170930C010196909394022F
:105710008093930219CE8CE291E0A0E0B0E08093F8
:105720007C0290937D02A0937E02B0937F02D9CE3B
:105730008DE00E949E03E8CE0E94BC0680907C0211
:1057400090907D02A0907E02B0907F022091760220
:10575000309177024091780250917902621B730B6D
:10576000840B950B86169706A806B90638F518140B
:1057700019041A041B0414F58DE00E949E03109274
:105780007C0210927D0210927E0210927F0284EFC2
:1057900091E0A0E0B0E08093720290937302A09336
:1057A0007402B09375020E94BC0660936E027093FF
:1057B0006F028093700290937102A6CE0E94BC0685
:1057C0008090720290907302A0907402B090750263
:1057D00020916E0230916F024091700250917102DF
:1057E000621B730B840B950B86169706A806B906E9
:1057F00008F08ACE181419041A041B040CF084CE85
:1058000030920701209206018091880290918902CE
:10581000892BB1F480E197E2A0E0B0E080938A02A6
:1058200090938B02A0938C02B0938D020E94BC06D1
:1058300060938E0270938F028093900290939102F6
:1058400010927202109273021092740210927502FA
:105850005BCE0E94EB155FCE6801BFEFCB1ADB0A6F
:10586000E1E0F0E0EC0FFD1FE00FF11F108220914E
:10587000E4023091E50248EE53E0249FC001259FE9
:10588000900D349F900D1124092E000CAA0BBB0B18
:1058900080930D0190930E01A0930F01B09310011E
:1058A0001092A1021092A0021092970210929602FA
:1058B000109295021092AA0210929C0210929D02E0
:1058C00010929E0210929F020E94ED0D0E94B8015C
:1058D00097FF1AC0109294021092930289EC90E004
:1058E000A0E0B0E08093090190930A01A0930B011E
:1058F000B0930C010E94CB0180930801CE01019668
:105900000E94481E860130CEFC0123E0EE0FFF1FEF
:105910002A95E1F7EB5DFB4F4581568167817085E4
:105920004F5F5F4F6F4F7F4F4093090150930A01C4
:1059300060930B0170930C010196909394028093F5
:105940009302D8CF0E94DF2EA50194010E946B2FF5
:105950000E94A72E0E94DF1435CE0E94DF2EA501E3
:1059600094010E946B2F0E94A72E0E94DF144DCE3F
:105970008FE693E00E945402892B09F404CD8FE650
:1059800093E00E943202F82EBBE38B1769F02AE005
:10599000821771F3E1E0F0E0EC0FFD1FE00FF11F63
:1059A00080830F5F1F4FE4CFE1E0F0E0EC0FFD1FBD
:1059B000E00FF11F10820F5F1F4FDCCCCE0101966C
:1059C0000E94481E80E090E0892B09F4CFCC0E9411
:1059D0006002882309F4CACC0E940000C7CC01975A
:1059E00009F043CC88EC90E0A0E0B0E036CCFC01BC
:1059F00088279927E89421912032E9F3293010F083
:105A00002E30C8F32B3241F02D3239F4689404C0A3
:105A10000E94782D820F911D219120532A30C0F3CE
:105A20001EF4909581959F4F08951F93FC0199272F
:105A30008827BC01E89411911032E9F3193010F075
:105A40001E30C8F31B3251F01D3249F4689406C071
:105A50000E94632D610F711D811D911D11911053C5
:105A60001A30B0F33EF490958095709561957F4F14
:105A70008F4F9F4F1F910895FA01A191B081009718
:105A800019F41097E1F0CD01DC01CD010D9000205B
:105A900011F4C00113C0FB012191222319F020153C
:105AA000D9F7F3CFFB012191201519F41E9211961D
:105AB00006C02223C1F70D900020A1F7D001FA0102
:105AC000A193B0830895592F482F372F262F660FA3
:105AD000771F881F991F660F771F881F991F620FF6
